{"project/contracts/WhalemonRenderer.sol":{"WhalemonRenderer":{"abi":[{"inputs":[{"internalType":"uint256","name":"","type":"uint256"}],"name":"elementColors","outputs":[{"internalType":"string","name":"","type":"string"}],"stateMutability":"view","type":"function"},{"inputs":[{"internalType":"uint256","name":"","type":"uint256"}],"name":"elementNames","outputs":[{"internalType":"string","name":"","type":"string"}],"stateMutability":"view","type":"function"},{"inputs":[{"internalType":"uint256","name":"","type":"uint256"}],"name":"rarityNames","outputs":[{"internalType":"string","name":"","type":"string"}],"stateMutability":"view","type":"function"},{"inputs":[{"internalType":"uint256","name":"tokenId","type":"uint256"},{"internalType":"uint16","name":"attack","type":"uint16"},{"internalType":"uint16","name":"defense","type":"uint16"},{"internalType":"uint16","name":"health","type":"uint16"},{"internalType":"uint16","name":"speed","type":"uint16"},{"internalType":"uint8","name":"element","type":"uint8"},{"internalType":"uint8","name":"rarity","type":"uint8"},{"internalType":"bool","name":"isSet","type":"bool"},{"internalType":"bool","name":"isCrafted","type":"bool"},{"internalType":"string","name":"imageURI","type":"string"}],"name":"renderTokenURI","outputs":[{"internalType":"string","name":"","type":"string"}],"stateMutability":"view","type":"function"}],"evm":{"bytecode":{"linkReferences":{},"object":"6080604052346105e9576100116105ed565b61001b604061060c565b6005815264416279737360d81b60208201528152610039604061060c565b60048152635469646560e01b60208201526020820152610059604061060c565b600581526453746f726d60d81b6020820152604082015261007a604061060c565b6005815264119c9bdcdd60da1b6020820152606082015261009b604061060c565b600581526410dbdc985b60da1b602082015260808201526100bc604061060c565b60098152682632bb34b0ba3430b760b91b602082015260a08201525f905f905b600682106104d95760405160a081016001600160401b038111828210176103c05760405261010a604061060c565b600681526521b7b6b6b7b760d11b60208201528152610129604061060c565b60088152672ab731b7b6b6b7b760c11b6020820152602082015261014d604061060c565b60048152635261726560e01b6020820152604082015261016d604061060c565b60048152634570696360e01b6020820152606082015261018d604061060c565b60098152684c6567656e6461727960b81b602082015260808201526006905f905b600582106103d4576101be6105ed565b6101c8604061060c565b600681526531613061326560d01b602082015281526101e7604061060c565b600681526530656135653960d01b60208201526020820152610209604061060c565b60068152651c311ab1b31b60d11b6020820152604082015261022b604061060c565b600681526536376538663960d01b6020820152606082015261024d604061060c565b6006815265331a1b99311b60d11b6020820152608082015261026f604061060c565b60068152653231991b191b60d11b602082015260a0820152600b905f905b600682106102a457604051611d5290816106808239f35b80518051906001600160401b0382116103c0576102c18554610631565b601f8111610385575b50602090601f831160011461031c5792610302836001959460209487965f92610311575b50508160011b915f199060031b1c19161790565b86555b0193019101909161028d565b0151905089806102ee565b90601f19831691865f52815f20925f5b81811061036d5750936020936001969387969383889510610355575b505050811b018655610305565b01515f1960f88460031b161c19169055888080610348565b8284015185556001909401936020938401930161032c565b6103b090865f5260205f20601f850160051c810191602086106103b6575b601f0160051c0190610669565b856102ca565b90915081906103a3565b634e487b7160e01b5f52604160045260245ffd5b80518051906001600160401b0382116103c0576103f18554610631565b601f81116104a9575b50602090601f83116001146104405792610431836001959460209487965f926103115750508160011b915f199060031b1c19161790565b86555b019301910190916101ae565b90601f19831691865f52815f20925f5b8181106104915750936020936001969387969383889510610479575b505050811b018655610434565b01515f1960f88460031b161c1916905588808061046c565b82840151855560019094019360209384019301610450565b6104d390865f5260205f20601f850160051c810191602086106103b657601f0160051c0190610669565b856103fa565b80518051906001600160401b0382116103c0576104f68554610631565b601f81116105b9575b50602090601f83116001146105505792610536836001959460209487965f926105455750508160011b915f199060031b1c19161790565b86555b019301910190916100dc565b015190505f806102ee565b90601f19831691865f52815f20925f5b8181106105a15750936020936001969387969383889510610589575b505050811b018655610539565b01515f1960f88460031b161c191690555f808061057c565b82840151855560019094019360209384019301610560565b6105e390865f5260205f20601f850160051c810191602086106103b657601f0160051c0190610669565b5f6104ff565b5f80fd5b6040519060c082016001600160401b038111838210176103c057604052565b6040519190601f01601f191682016001600160401b038111838210176103c057604052565b90600182811c9216801561065f575b602083101461064b57565b634e487b7160e01b5f52602260045260245ffd5b91607f1691610640565b818110610674575050565b5f815560010161066956fe6102a06040526004361015610012575f80fd5b5f3560e01c8063165ed4c51461019b5780634873a1e3146101725780636cb3fdcd14610086576398bf314314610046575f80fd5b346100825760203660031901126100825760043560058110156100825761007261007e916006016101fd565b604051918291826102c9565b0390f35b5f80fd5b34610082576101403660031901126100825760243561ffff81168103610082576044359061ffff82168203610082576064359061ffff821682036100825760843561ffff811681036100825760a43560ff811681036100825760c43560ff811681036100825760e435918215158303610082576101043593841515850361008257610124359667ffffffffffffffff88116100825736602389011215610082578760040135986101358a6102f3565b97610143604051998a6101c7565b8a89523660248c8c010111610082575f60208c61007e9d8c836100729f6024019101378b010152600435610398565b346100825760203660031901126100825760043560068110156100825761007261007e916101fd565b346100825760203660031901126100825760043560068110156100825761007261007e91600b016101fd565b90601f8019910116810190811067ffffffffffffffff8211176101e957604052565b634e487b7160e01b5f52604160045260245ffd5b90604051915f8154908160011c92600183169283156102bf575b6020851084146102ab5784875286939081156102895750600114610245575b50610243925003836101c7565b565b90505f9291925260205f20905f915b81831061026d575050906020610243928201015f610236565b6020919350806001915483858901015201910190918492610254565b90506020925061024394915060ff191682840152151560051b8201015f610236565b634e487b7160e01b5f52602260045260245ffd5b93607f1693610217565b602060409281835280519182918282860152018484015e5f828201840152601f01601f1916010190565b67ffffffffffffffff81116101e957601f01601f191660200190565b7f22696d616765223a22646174613a696d6167652f7376672b786d6c3b626173658152620d8d0b60ea1b602082015260230190565b90610243603d6020936040519485917f646174613a6170706c69636174696f6e2f6a736f6e3b6261736536342c000000828401528051918291018484015e81015f838201520301601f1981018452836101c7565b979392919095979694966101e05261018052610280526102405261020052610416602a60206103c96101e05161196e565b60405161026052695768616c656d6f6e202360b01b826102605101528051918291018361026051015e61026051015f8282015261026051900301601f1981016102605152610260516101c7565b1561157f57600682101561156b5761042d826101fd565b91600584101561156b576112dd94603a603894602482946023603997603160039b60060161045a816101fd565b98610200515f14611551576104f26040516104766040826101c7565b600a815269205b437261667465645d60b01b6020820152925b6102005115611537576104ea6040516104a96040826101c7565b601981527f20466f72676564207468726f756768206372616674696e672e000000000000006020820152985b6104e181600b016101fd565b610220526101fd565b60e0526101fd565b610120525f6101a05280511561143d576106266063607f6020936040519485917f3c636c6970506174682069643d2263223e3c7265637420783d2233302220793d828401527f223730222077696474683d2232343022206865696768743d22313830222072786040840152711e91189811179f1e17b1b634b82830ba341f60711b60608401526c1e34b6b0b3b290343932b31e9160991b60728401528051918291018484015e81017f2220783d2233302220793d223730222077696474683d22323430222068656967838201527f68743d223138302220636c69702d706174683d2275726c282363292220707265609f8201527f7365727665417370656374526174696f3d22784d6964594d696420736c69636560bf8201526211179f60e91b60df820152030160438101845201826101c7565b6101a0525b60206101c08190526040519061064190826101c7565b5f8152610160526102005161131e575b610eb0600660118f8f603291836007928a610b278f60436042608c61068561ffff61067e6101e05161196e565b971661196e565b61069561ffff610180511661196e565b61014052608a826106ac61ffff610280511661196e565b60a46106be61ffff610240511661196e565b94604051610100527f3c7465787420783d2234302220793d22323930222066696c6c3d2223393461336101c0516101005101527f62382220666f6e742d73697a653d223131223e41544b3c2f746578743e3c746560406101005101527f787420783d223132302220793d22323930222066696c6c3d222366383731373160606101005101527f2220666f6e742d73697a653d2231342220666f6e742d7765696768743d22626f6080610100510152633632111f60e11b60a0610100510152805180916101c051018361010051015e6101005101661e17ba32bc3a1f60c91b828201527f3c7465787420783d223137302220793d22323930222066696c6c3d222339346160ab8201527f3362382220666f6e742d73697a653d223131223e4445463c2f746578743e3c7460cb8201527f65787420783d223235302220793d22323930222066696c6c3d2223363061356660eb8201527f612220666f6e742d73697a653d2231342220666f6e742d7765696768743d226261010b8201526437b632111f60d91b61012b820152610140515190816101c051610140510161013083015e0101661e17ba32bc3a1f60c91b838201527f3c7465787420783d2234302220793d22333230222066696c6c3d22233934613360938201527f62382220666f6e742d73697a653d223131223e48503c2f746578743e3c74657860b38201527f7420783d223132302220793d22333230222066696c6c3d22233461646538302260d38201527f20666f6e742d73697a653d2231342220666f6e742d7765696768743d22626f6c60f38201526232111f60e91b610113820152815180926101c0510161011683015e010191661e17ba32bc3a1f60c91b828401527f3c7465787420783d223137302220793d22333230222066696c6c3d222339346160918401527f3362382220666f6e742d73697a653d223131223e5350443c2f746578743e3c7460b18401527f65787420783d223235302220793d22333230222066696c6c3d2223666163633160d18401527f352220666f6e742d73697a653d2231342220666f6e742d7765696768743d226260f18401526437b632111f60d91b610111840152805180916101c0510161011685015e661e17ba32bc3a1f60c91b8382018301808601919091527f3c7265637420783d2232302220793d22333530222077696474683d223236302260938201527f206865696768743d223530222072783d2238222066696c6c3d2223000000000060b38201526102205180516101c0519095928692919091019060ce015e0101010170111037b830b1b4ba3c9e9118171891179f60791b828201527f3c7465787420783d223135302220793d223338302220746578742d616e63686f605382015271723d226d6964646c65222066696c6c3d222360701b6073820152610220515190816101c0516102205101608583015e01017f2220666f6e742d73697a653d223131223e5748414c454d4f4e205443473c2f74828201526332bc3a1f60e11b60638201526101005190030160048101610100515201610100516101c7565b60405160c052610d07610146610b436101c05160c05101611adb565b7f3c646566733e3c6c696e6561724772616469656e742069643d2262672220783181527f3d2230222079313d2230222078323d2230222079323d2231223e3c73746f70206101c0518201527f6f66667365743d223025222073746f702d636f6c6f723d22233061306532372260408201527f2f3e3c73746f70206f66667365743d2231303025222073746f702d636f6c6f7260608201527f3d2223306631373261222f3e3c2f6c696e6561724772616469656e743e3c2f6460808201526332b3399f60e11b60a08201527f3c726563742077696474683d2233303022206865696768743d2234323022207260a48201527f783d223136222066696c6c3d2275726c2823626729222f3e000000000000000060c48201527f3c7265637420783d22342220793d2234222077696474683d223239322220686560dc8201527f696768743d22343132222072783d223134222066696c6c3d226e6f6e6522207360fc8201526774726f6b653d222360c01b61011c820152610220515190816101c051610220510161012483015e017f22207374726f6b652d77696474683d223322206f7061636974793d22302e382261012482015261179f60f11b61014482015201611b50565b815180926101c05101825e01661e17ba32bc3a1f60c91b81527f3c7465787420783d223135302220793d2235362220746578742d616e63686f7285820152703d226d6964646c65222066696c6c3d222360781b6027820152610220515190816101c05161022051018483015e017011103337b73a16b9b4bd329e911899111f60791b8282015260e0515190816101c05160e05101604983015e0101620103e160ed1b82820152610120515190816101c0516101205101601483015e0101661e17ba32bc3a1f60c91b828201526101a0515190816101c0516101a05101600a83015e0101818101905f8252610160515180926101c0516101605101905e01017f3c6c696e652078313d223330222079313d22323630222078323d22323730222081527179323d2232363022207374726f6b653d222360701b6101c051820152610220515190816101c05161022051018483015e0170111037b830b1b4ba3c9e9118171a11179f60791b82820152610100515190816101c0516101005101604383015e0101651e17b9bb339f60d11b8282015260c051900301601919810160c051520160c0516101c7565b610ebb60c051611bd3565b98610200515f146112f357610ef461ffff604051610eda6040826101c7565b600381526259657360e81b6101c051820152955b1661196e565b95610f0561ffff610180511661196e565b98610f1661ffff610280511661196e565b9b610f2761ffff610240511661196e565b60805260405160a052683d913730b6b2911d1160b91b6101c05160a05101526110386011600161026051518060206102605101602960a051015e60a05101956201016960ed1b6029880152601382602988516101c0518a019a818c602c83015e01019a6003600160fd1b908d015260038b51809d8d6101c051019e8f600483015e0101828101915f835280519283916101c05101905e010161088b60f21b8152700113232b9b1b934b83a34b7b7111d11209607d1b6002820152895190818c8483015e01600160fd1b82820152875190818a601483015e01016e102bb430b632b6b7b71031b0b9321760891b83820152815180926101c05101601083015e010161088b60f21b600f8201520161030f565b815180926101c05101825e61088b60f21b91019081526d2261747472696275746573223a5b60901b60028201527f7b2274726169745f74797065223a22456c656d656e74222c2276616c7565223a6010820152601160f91b603082015290519182908683015e019062089f4b60ea1b848301527f7b2274726169745f74797065223a22526172697479222c2276616c7565223a226034830152518092605483015e010162089f4b60ea1b838201527f7b2274726169745f74797065223a2243726166746564222c2276616c7565223a6026820152601160f91b6046820152815180926101c05101604783015e010162089f4b60ea1b838201527f7b2274726169745f74797065223a2241747461636b222c22646973706c61795f6027820152763a3cb832911d11373ab6b132b91116113b30b63ab2911d60491b6047820152815180926101c05101605e83015e0101611f4b60f21b838201527f7b2274726169745f74797065223a22446566656e7365222c22646973706c6179603c8201527f5f74797065223a226e756d626572222c2276616c7565223a0000000000000000605c820152815180926101c05101607483015e0101611f4b60f21b838201527f7b2274726169745f74797065223a224865616c7468222c22646973706c61795f603c820152763a3cb832911d11373ab6b132b91116113b30b63ab2911d60491b605c820152815180926101c05101607383015e0101611f4b60f21b828201527f7b2274726169745f74797065223a225370656564222c22646973706c61795f74603b820152753cb832911d11373ab6b132b91116113b30b63ab2911d60511b605b8201526080515190816101c05160805101607183015e0101607d60f81b82820152615d7d60f01b603982015260a051900301601c19810160a051520160a0516101c7565b6112f06112eb60a051611bd3565b610344565b90565b610ef461ffff6040516113076040826101c7565b60028152614e6f60f01b6101c05182015295610eee565b6040517f3c7265637420783d2233302220793d223736222077696474683d2235362220686101c0518201527f65696768743d223230222072783d2234222066696c6c3d222300000000000000604082015261143460766059836102205151806101c05161022051018484015e810171111037b830b1b4ba3c9e9118171c1a91179f60711b838201527f3c7465787420783d2235382220793d2239302220746578742d616e63686f723d606b8201527f226d6964646c65222066696c6c3d22236666662220666f6e742d73697a653d22608b8201527f392220666f6e742d7765696768743d22626f6c64223e435241465445443c2f7460ab8201526332bc3a1f60e11b60cb820152030160568101845201826101c7565b61016052610651565b506040517f3c636972636c652063783d22313530222063793d223136302220723d223730226020820152672066696c6c3d222360c01b604082015261152e606b604883610220515180602061022051018484015e810171111037b830b1b4ba3c9e911817189a91179f60711b838201527f3c7465787420783d223135302220793d223137302220746578742d616e63686f605a8201527f723d226d6964646c65222066696c6c3d22236532653866302220666f6e742d73607a8201527f697a653d223438223e26237831463433333b3c2f746578743e00000000000000609a8201520301604b8101845201826101c7565b6101a05261062b565b6104ea6040516115486020826101c7565b5f8152986104d5565b6104f26040516115626020826101c7565b5f81529261048f565b634e487b7160e01b5f52603260045260245ffd5b505050506112f06112eb60206118bc60026118c1836118bc6101876115a66101e05161196e565b6040519384916116a260b06115bc848601611adb565b7f3c726563742077696474683d2233303022206865696768743d2234323022207281527f783d223136222066696c6c3d2223306130653237222f3e000000000000000000858201527f3c7265637420783d22342220793d2234222077696474683d223239322220686560378201527f696768743d22343132222072783d223134222066696c6c3d226e6f6e6522207360578201527f74726f6b653d222333333431353522207374726f6b652d77696474683d22322260778201527f207374726f6b652d6461736861727261793d22382034222f3e00000000000000609782015201611b50565b90805192839101825e01661e17ba32bc3a1f60c91b81527f3c7465787420783d223135302220793d2235362220746578742d616e63686f7260078201527f3d226d6964646c65222066696c6c3d22233634373438622220666f6e742d736960278201527f7a653d223132223e4177616974696e672044657374696e792e2e2e3c2f7465786047820152613a1f60f11b60678201527f3c7465787420783d223135302220793d223138302220746578742d616e63686f60698201527f723d226d6964646c65222066696c6c3d22233437353536392220666f6e742d7360898201527f697a653d223634223e26237831463433333b3c2f746578743e0000000000000060a98201527f3c7465787420783d223135302220793d223330302220746578742d616e63686f60c28201527f723d226d6964646c65222066696c6c3d22233437353536392220666f6e742d7360e28201527f697a653d223132223e53746174732067656e65726174696e672e2e2e3c2f7465610102820152623c3a1f60e91b6101228201527f3c7465787420783d223135302220793d223338302220746578742d616e63686f6101258201527f723d226d6964646c65222066696c6c3d22233333343135352220666f6e742d736101458201527f697a653d223131223e5748414c454d4f4e205443473c2f746578743e00000000610165820152651e17b9bb339f60d11b610181820152036101678101845201826101c7565b611bd3565b604051938491683d913730b6b2911d1160b91b8284015261194d6069610260515180856102605101602988015e850161088b60f21b60298201527f226465736372697074696f6e223a2241205768616c656d6f6e2054726164696e602b8201527f672043617264206177616974696e67206974732064657374696e792e222c0000604b8201520161030f565b90805192839101825e0161227d60f01b815203601d198101845201826101c7565b805f9172184f03e93ff9f4daa797ed6e38ed64bf6a1f0160401b821015611ab8575b806d04ee2d6d415b85acef8100000000600a921015611a9d575b662386f26fc10000811015611a89575b6305f5e100811015611a78575b612710811015611a69575b6064811015611a5b575b1015611a50575b600a602160018401936119f5856102f3565b94611a0360405196876101c7565b808652611a12601f19916102f3565b013660208701378401015b5f1901916f181899199a1a9b1b9c1cb0b131b232b360811b8282061a8353048015611a4b57600a9091611a1d565b505090565b6001909101906119e3565b6064600291049301926119dc565b612710600491049301926119d2565b6305f5e100600891049301926119c7565b662386f26fc10000601091049301926119ba565b6d04ee2d6d415b85acef8100000000602091049301926119aa565b506040915072184f03e93ff9f4daa797ed6e38ed64bf6a1f0160401b8104611990565b7f3c73766720786d6c6e733d22687474703a2f2f7777772e77332e6f72672f323081527f30302f737667222076696577426f783d2230203020333030203432302220737460208201527f796c653d22666f6e742d66616d696c793a6d6f6e6f7370616365223e000000006040820152605c0190565b7f3c7465787420783d223135302220793d2233362220746578742d616e63686f7281527f3d226d6964646c65222066696c6c3d22236532653866302220666f6e742d736960208201527f7a653d2231362220666f6e742d7765696768743d22626f6c64223e5748414c456040820152644d4f4e202360d81b606082015260650190565b90815115611d0657815160028101809111611cf25760039004600281901b91906001600160fe1b03811603611cf257604051917f4142434445464748494a4b4c4d4e4f505152535455565758595a616263646566601f527f6768696a6b6c6d6e6f707172737475767778797a303132333435363738392b2f603f52602083018480518101602081018051915f82525b808910611cb65750602095969750906003929152510680600114611ca157600214611c94575b50808452830101604052565b603d905f1901535f611c88565b50603d90815f1982015360011901535f611c88565b939760036004910198603f8a51818160121c165183538181600c1c16516001840153818160061c16516002840153165160038201530193611c62565b634e487b7160e01b5f52601160045260245ffd5b9050604051611d166020826101c7565b5f81529056fea26469706673582212201fd34b49928b8dc5949aaf26f2bcf5b3797b92f8c730b8f9a3779e62b34e53c764736f6c634300081c0033","opcodes":"PUSH1 0x80 PUSH1 0x40 MSTORE CALLVALUE PUSH2 0x5E9 JUMPI PUSH2 0x11 PUSH2 0x5ED JUMP JUMPDEST PUSH2 0x1B PUSH1 0x40 PUSH2 0x60C JUMP JUMPDEST PUSH1 0x5 DUP2 MSTORE PUSH5 0x4162797373 PUSH1 0xD8 SHL PUSH1 0x20 DUP3 ADD MSTORE DUP2 MSTORE PUSH2 0x39 PUSH1 0x40 PUSH2 0x60C JUMP JUMPDEST PUSH1 0x4 DUP2 MSTORE PUSH4 0x54696465 PUSH1 0xE0 SHL PUSH1 0x20 DUP3 ADD MSTORE PUSH1 0x20 DUP3 ADD MSTORE PUSH2 0x59 PUSH1 0x40 PUSH2 0x60C JUMP JUMPDEST PUSH1 0x5 DUP2 MSTORE PUSH5 0x53746F726D PUSH1 0xD8 SHL PUSH1 0x20 DUP3 ADD MSTORE PUSH1 0x40 DUP3 ADD MSTORE PUSH2 0x7A PUSH1 0x40 PUSH2 0x60C JUMP JUMPDEST PUSH1 0x5 DUP2 MSTORE PUSH5 0x119C9BDCDD PUSH1 0xDA SHL PUSH1 0x20 DUP3 ADD MSTORE PUSH1 0x60 DUP3 ADD MSTORE PUSH2 0x9B PUSH1 0x40 PUSH2 0x60C JUMP JUMPDEST PUSH1 0x5 DUP2 MSTORE PUSH5 0x10DBDC985B PUSH1 0xDA SHL PUSH1 0x20 DUP3 ADD MSTORE PUSH1 0x80 DUP3 ADD MSTORE PUSH2 0xBC PUSH1 0x40 PUSH2 0x60C JUMP JUMPDEST PUSH1 0x9 DUP2 MSTORE PUSH9 0x2632BB34B0BA3430B7 PUSH1 0xB9 SHL PUSH1 0x20 DUP3 ADD MSTORE PUSH1 0xA0 DUP3 ADD MSTORE PUSH0 SWAP1 PUSH0 SWAP1 JUMPDEST PUSH1 0x6 DUP3 LT PUSH2 0x4D9 JUMPI PUSH1 0x40 MLOAD PUSH1 0xA0 DUP2 ADD PUSH1 0x1 PUSH1 0x1 PUSH1 0x40 SHL SUB DUP2 GT DUP3 DUP3 LT OR PUSH2 0x3C0 JUMPI PUSH1 0x40 MSTORE PUSH2 0x10A PUSH1 0x40 PUSH2 0x60C JUMP JUMPDEST PUSH1 0x6 DUP2 MSTORE PUSH6 0x21B7B6B6B7B7 PUSH1 0xD1 SHL PUSH1 0x20 DUP3 ADD MSTORE DUP2 MSTORE PUSH2 0x129 PUSH1 0x40 PUSH2 0x60C JUMP JUMPDEST PUSH1 0x8 DUP2 MSTORE PUSH8 0x2AB731B7B6B6B7B7 PUSH1 0xC1 SHL PUSH1 0x20 DUP3 ADD MSTORE PUSH1 0x20 DUP3 ADD MSTORE PUSH2 0x14D PUSH1 0x40 PUSH2 0x60C JUMP JUMPDEST PUSH1 0x4 DUP2 MSTORE PUSH4 0x52617265 PUSH1 0xE0 SHL PUSH1 0x20 DUP3 ADD MSTORE PUSH1 0x40 DUP3 ADD MSTORE PUSH2 0x16D PUSH1 0x40 PUSH2 0x60C JUMP JUMPDEST PUSH1 0x4 DUP2 MSTORE PUSH4 0x45706963 PUSH1 0xE0 SHL PUSH1 0x20 DUP3 ADD MSTORE PUSH1 0x60 DUP3 ADD MSTORE PUSH2 0x18D PUSH1 0x40 PUSH2 0x60C JUMP JUMPDEST PUSH1 0x9 DUP2 MSTORE PUSH9 0x4C6567656E64617279 PUSH1 0xB8 SHL PUSH1 0x20 DUP3 ADD MSTORE PUSH1 0x80 DUP3 ADD MSTORE PUSH1 0x6 SWAP1 PUSH0 SWAP1 JUMPDEST PUSH1 0x5 DUP3 LT PUSH2 0x3D4 JUMPI PUSH2 0x1BE PUSH2 0x5ED JUMP JUMPDEST PUSH2 0x1C8 PUSH1 0x40 PUSH2 0x60C JUMP JUMPDEST PUSH1 0x6 DUP2 MSTORE PUSH6 0x316130613265 PUSH1 0xD0 SHL PUSH1 0x20 DUP3 ADD MSTORE DUP2 MSTORE PUSH2 0x1E7 PUSH1 0x40 PUSH2 0x60C JUMP JUMPDEST PUSH1 0x6 DUP2 MSTORE PUSH6 0x306561356539 PUSH1 0xD0 SHL PUSH1 0x20 DUP3 ADD MSTORE PUSH1 0x20 DUP3 ADD MSTORE PUSH2 0x209 PUSH1 0x40 PUSH2 0x60C JUMP JUMPDEST PUSH1 0x6 DUP2 MSTORE PUSH6 0x1C311AB1B31B PUSH1 0xD1 SHL PUSH1 0x20 DUP3 ADD MSTORE PUSH1 0x40 DUP3 ADD MSTORE PUSH2 0x22B PUSH1 0x40 PUSH2 0x60C JUMP JUMPDEST PUSH1 0x6 DUP2 MSTORE PUSH6 0x363765386639 PUSH1 0xD0 SHL PUSH1 0x20 DUP3 ADD MSTORE PUSH1 0x60 DUP3 ADD MSTORE PUSH2 0x24D PUSH1 0x40 PUSH2 0x60C JUMP JUMPDEST PUSH1 0x6 DUP2 MSTORE PUSH6 0x331A1B99311B PUSH1 0xD1 SHL PUSH1 0x20 DUP3 ADD MSTORE PUSH1 0x80 DUP3 ADD MSTORE PUSH2 0x26F PUSH1 0x40 PUSH2 0x60C JUMP JUMPDEST PUSH1 0x6 DUP2 MSTORE PUSH6 0x3231991B191B PUSH1 0xD1 SHL PUSH1 0x20 DUP3 ADD MSTORE PUSH1 0xA0 DUP3 ADD MSTORE PUSH1 0xB SWAP1 PUSH0 SWAP1 JUMPDEST PUSH1 0x6 DUP3 LT PUSH2 0x2A4 JUMPI PUSH1 0x40 MLOAD PUSH2 0x1D52 SWAP1 DUP2 PUSH2 0x680 DUP3 CODECOPY RETURN JUMPDEST DUP1 MLOAD DUP1 MLOAD SWAP1 PUSH1 0x1 PUSH1 0x1 PUSH1 0x40 SHL SUB DUP3 GT PUSH2 0x3C0 JUMPI PUSH2 0x2C1 DUP6 SLOAD PUSH2 0x631 JUMP JUMPDEST PUSH1 0x1F DUP2 GT PUSH2 0x385 JUMPI JUMPDEST POP PUSH1 0x20 SWAP1 PUSH1 0x1F DUP4 GT PUSH1 0x1 EQ PUSH2 0x31C JUMPI SWAP3 PUSH2 0x302 DUP4 PUSH1 0x1 SWAP6 SWAP5 PUSH1 0x20 SWAP5 DUP8 SWAP7 PUSH0 SWAP3 PUSH2 0x311 JUMPI JUMPDEST POP POP DUP2 PUSH1 0x1 SHL SWAP2 PUSH0 NOT SWAP1 PUSH1 0x3 SHL SHR NOT AND OR SWAP1 JUMP JUMPDEST DUP7 SSTORE JUMPDEST ADD SWAP4 ADD SWAP2 ADD SWAP1 SWAP2 PUSH2 0x28D JUMP JUMPDEST ADD MLOAD SWAP1 POP DUP10 DUP1 PUSH2 0x2EE JUMP JUMPDEST SWAP1 PUSH1 0x1F NOT DUP4 AND SWAP2 DUP7 PUSH0 MSTORE DUP2 PUSH0 KECCAK256 SWAP3 PUSH0 JUMPDEST DUP2 DUP2 LT PUSH2 0x36D JUMPI POP SWAP4 PUSH1 0x20 SWAP4 PUSH1 0x1 SWAP7 SWAP4 DUP8 SWAP7 SWAP4 DUP4 DUP9 SWAP6 LT PUSH2 0x355 JUMPI JUMPDEST POP POP POP DUP2 SHL ADD DUP7 SSTORE PUSH2 0x305 JUMP JUMPDEST ADD MLOAD PUSH0 NOT PUSH1 0xF8 DUP5 PUSH1 0x3 SHL AND SHR NOT AND SWAP1 SSTORE DUP9 DUP1 DUP1 PUSH2 0x348 JUMP JUMPDEST DUP3 DUP5 ADD MLOAD DUP6 SSTORE PUSH1 0x1 SWAP1 SWAP5 ADD SWAP4 PUSH1 0x20 SWAP4 DUP5 ADD SWAP4 ADD PUSH2 0x32C JUMP JUMPDEST PUSH2 0x3B0 SWAP1 DUP7 PUSH0 MSTORE PUSH1 0x20 PUSH0 KECCAK256 PUSH1 0x1F DUP6 ADD PUSH1 0x5 SHR DUP2 ADD SWAP2 PUSH1 0x20 DUP7 LT PUSH2 0x3B6 JUMPI JUMPDEST PUSH1 0x1F ADD PUSH1 0x5 SHR ADD SWAP1 PUSH2 0x669 JUMP JUMPDEST DUP6 PUSH2 0x2CA JUMP JUMPDEST SWAP1 SWAP2 POP DUP2 SWAP1 PUSH2 0x3A3 JUMP JUMPDEST PUSH4 0x4E487B71 PUSH1 0xE0 SHL PUSH0 MSTORE PUSH1 0x41 PUSH1 0x4 MSTORE PUSH1 0x24 PUSH0 REVERT JUMPDEST DUP1 MLOAD DUP1 MLOAD SWAP1 PUSH1 0x1 PUSH1 0x1 PUSH1 0x40 SHL SUB DUP3 GT PUSH2 0x3C0 JUMPI PUSH2 0x3F1 DUP6 SLOAD PUSH2 0x631 JUMP JUMPDEST PUSH1 0x1F DUP2 GT PUSH2 0x4A9 JUMPI JUMPDEST POP PUSH1 0x20 SWAP1 PUSH1 0x1F DUP4 GT PUSH1 0x1 EQ PUSH2 0x440 JUMPI SWAP3 PUSH2 0x431 DUP4 PUSH1 0x1 SWAP6 SWAP5 PUSH1 0x20 SWAP5 DUP8 SWAP7 PUSH0 SWAP3 PUSH2 0x311 JUMPI POP POP DUP2 PUSH1 0x1 SHL SWAP2 PUSH0 NOT SWAP1 PUSH1 0x3 SHL SHR NOT AND OR SWAP1 JUMP JUMPDEST DUP7 SSTORE JUMPDEST ADD SWAP4 ADD SWAP2 ADD SWAP1 SWAP2 PUSH2 0x1AE JUMP JUMPDEST SWAP1 PUSH1 0x1F NOT DUP4 AND SWAP2 DUP7 PUSH0 MSTORE DUP2 PUSH0 KECCAK256 SWAP3 PUSH0 JUMPDEST DUP2 DUP2 LT PUSH2 0x491 JUMPI POP SWAP4 PUSH1 0x20 SWAP4 PUSH1 0x1 SWAP7 SWAP4 DUP8 SWAP7 SWAP4 DUP4 DUP9 SWAP6 LT PUSH2 0x479 JUMPI JUMPDEST POP POP POP DUP2 SHL ADD DUP7 SSTORE PUSH2 0x434 JUMP JUMPDEST ADD MLOAD PUSH0 NOT PUSH1 0xF8 DUP5 PUSH1 0x3 SHL AND SHR NOT AND SWAP1 SSTORE DUP9 DUP1 DUP1 PUSH2 0x46C JUMP JUMPDEST DUP3 DUP5 ADD MLOAD DUP6 SSTORE PUSH1 0x1 SWAP1 SWAP5 ADD SWAP4 PUSH1 0x20 SWAP4 DUP5 ADD SWAP4 ADD PUSH2 0x450 JUMP JUMPDEST PUSH2 0x4D3 SWAP1 DUP7 PUSH0 MSTORE PUSH1 0x20 PUSH0 KECCAK256 PUSH1 0x1F DUP6 ADD PUSH1 0x5 SHR DUP2 ADD SWAP2 PUSH1 0x20 DUP7 LT PUSH2 0x3B6 JUMPI PUSH1 0x1F ADD PUSH1 0x5 SHR ADD SWAP1 PUSH2 0x669 JUMP JUMPDEST DUP6 PUSH2 0x3FA JUMP JUMPDEST DUP1 MLOAD DUP1 MLOAD SWAP1 PUSH1 0x1 PUSH1 0x1 PUSH1 0x40 SHL SUB DUP3 GT PUSH2 0x3C0 JUMPI PUSH2 0x4F6 DUP6 SLOAD PUSH2 0x631 JUMP JUMPDEST PUSH1 0x1F DUP2 GT PUSH2 0x5B9 JUMPI JUMPDEST POP PUSH1 0x20 SWAP1 PUSH1 0x1F DUP4 GT PUSH1 0x1 EQ PUSH2 0x550 JUMPI SWAP3 PUSH2 0x536 DUP4 PUSH1 0x1 SWAP6 SWAP5 PUSH1 0x20 SWAP5 DUP8 SWAP7 PUSH0 SWAP3 PUSH2 0x545 JUMPI POP POP DUP2 PUSH1 0x1 SHL SWAP2 PUSH0 NOT SWAP1 PUSH1 0x3 SHL SHR NOT AND OR SWAP1 JUMP JUMPDEST DUP7 SSTORE JUMPDEST ADD SWAP4 ADD SWAP2 ADD SWAP1 SWAP2 PUSH2 0xDC JUMP JUMPDEST ADD MLOAD SWAP1 POP PUSH0 DUP1 PUSH2 0x2EE JUMP JUMPDEST SWAP1 PUSH1 0x1F NOT DUP4 AND SWAP2 DUP7 PUSH0 MSTORE DUP2 PUSH0 KECCAK256 SWAP3 PUSH0 JUMPDEST DUP2 DUP2 LT PUSH2 0x5A1 JUMPI POP SWAP4 PUSH1 0x20 SWAP4 PUSH1 0x1 SWAP7 SWAP4 DUP8 SWAP7 SWAP4 DUP4 DUP9 SWAP6 LT PUSH2 0x589 JUMPI JUMPDEST POP POP POP DUP2 SHL ADD DUP7 SSTORE PUSH2 0x539 JUMP JUMPDEST ADD MLOAD PUSH0 NOT PUSH1 0xF8 DUP5 PUSH1 0x3 SHL AND SHR NOT AND SWAP1 SSTORE PUSH0 DUP1 DUP1 PUSH2 0x57C JUMP JUMPDEST DUP3 DUP5 ADD MLOAD DUP6 SSTORE PUSH1 0x1 SWAP1 SWAP5 ADD SWAP4 PUSH1 0x20 SWAP4 DUP5 ADD SWAP4 ADD PUSH2 0x560 JUMP JUMPDEST PUSH2 0x5E3 SWAP1 DUP7 PUSH0 MSTORE PUSH1 0x20 PUSH0 KECCAK256 PUSH1 0x1F DUP6 ADD PUSH1 0x5 SHR DUP2 ADD SWAP2 PUSH1 0x20 DUP7 LT PUSH2 0x3B6 JUMPI PUSH1 0x1F ADD PUSH1 0x5 SHR ADD SWAP1 PUSH2 0x669 JUMP JUMPDEST PUSH0 PUSH2 0x4FF JUMP JUMPDEST PUSH0 DUP1 REVERT JUMPDEST PUSH1 0x40 MLOAD SWAP1 PUSH1 0xC0 DUP3 ADD PUSH1 0x1 PUSH1 0x1 PUSH1 0x40 SHL SUB DUP2 GT DUP4 DUP3 LT OR PUSH2 0x3C0 JUMPI PUSH1 0x40 MSTORE JUMP JUMPDEST PUSH1 0x40 MLOAD SWAP2 SWAP1 PUSH1 0x1F ADD PUSH1 0x1F NOT AND DUP3 ADD PUSH1 0x1 PUSH1 0x1 PUSH1 0x40 SHL SUB DUP2 GT DUP4 DUP3 LT OR PUSH2 0x3C0 JUMPI PUSH1 0x40 MSTORE JUMP JUMPDEST SWAP1 PUSH1 0x1 DUP3 DUP2 SHR SWAP3 AND DUP1 ISZERO PUSH2 0x65F JUMPI JUMPDEST PUSH1 0x20 DUP4 LT EQ PUSH2 0x64B JUMPI JUMP JUMPDEST PUSH4 0x4E487B71 PUSH1 0xE0 SHL PUSH0 MSTORE PUSH1 0x22 PUSH1 0x4 MSTORE PUSH1 0x24 PUSH0 REVERT JUMPDEST SWAP2 PUSH1 0x7F AND SWAP2 PUSH2 0x640 JUMP JUMPDEST DUP2 DUP2 LT PUSH2 0x674 JUMPI POP POP JUMP JUMPDEST PUSH0 DUP2 SSTORE PUSH1 0x1 ADD PUSH2 0x669 JUMP INVALID PUSH2 0x2A0 PUSH1 0x40 MSTORE PUSH1 0x4 CALLDATASIZE LT ISZERO PUSH2 0x12 JUMPI PUSH0 DUP1 REVERT JUMPDEST PUSH0 CALLDATALOAD PUSH1 0xE0 SHR DUP1 PUSH4 0x165ED4C5 EQ PUSH2 0x19B JUMPI DUP1 PUSH4 0x4873A1E3 EQ PUSH2 0x172 JUMPI DUP1 PUSH4 0x6CB3FDCD EQ PUSH2 0x86 JUMPI PUSH4 0x98BF3143 EQ PUSH2 0x46 JUMPI PUSH0 DUP1 REVERT JUMPDEST CALLVALUE PUSH2 0x82 JUMPI PUSH1 0x20 CALLDATASIZE PUSH1 0x3 NOT ADD SLT PUSH2 0x82 JUMPI PUSH1 0x4 CALLDATALOAD PUSH1 0x5 DUP2 LT ISZERO PUSH2 0x82 JUMPI PUSH2 0x72 PUSH2 0x7E SWAP2 PUSH1 0x6 ADD PUSH2 0x1FD JUMP JUMPDEST PUSH1 0x40 MLOAD SWAP2 DUP3 SWAP2 DUP3 PUSH2 0x2C9 JUMP JUMPDEST SUB SWAP1 RETURN JUMPDEST PUSH0 DUP1 REVERT JUMPDEST CALLVALUE PUSH2 0x82 JUMPI PUSH2 0x140 CALLDATASIZE PUSH1 0x3 NOT ADD SLT PUSH2 0x82 JUMPI PUSH1 0x24 CALLDATALOAD PUSH2 0xFFFF DUP2 AND DUP2 SUB PUSH2 0x82 JUMPI PUSH1 0x44 CALLDATALOAD SWAP1 PUSH2 0xFFFF DUP3 AND DUP3 SUB PUSH2 0x82 JUMPI PUSH1 0x64 CALLDATALOAD SWAP1 PUSH2 0xFFFF DUP3 AND DUP3 SUB PUSH2 0x82 JUMPI PUSH1 0x84 CALLDATALOAD PUSH2 0xFFFF DUP2 AND DUP2 SUB PUSH2 0x82 JUMPI PUSH1 0xA4 CALLDATALOAD PUSH1 0xFF DUP2 AND DUP2 SUB PUSH2 0x82 JUMPI PUSH1 0xC4 CALLDATALOAD PUSH1 0xFF DUP2 AND DUP2 SUB PUSH2 0x82 JUMPI PUSH1 0xE4 CALLDATALOAD SWAP2 DUP3 ISZERO ISZERO DUP4 SUB PUSH2 0x82 JUMPI PUSH2 0x104 CALLDATALOAD SWAP4 DUP5 ISZERO ISZERO DUP6 SUB PUSH2 0x82 JUMPI PUSH2 0x124 CALLDATALOAD SWAP7 PUSH8 0xFFFFFFFFFFFFFFFF DUP9 GT PUSH2 0x82 JUMPI CALLDATASIZE PUSH1 0x23 DUP10 ADD SLT ISZERO PUSH2 0x82 JUMPI DUP8 PUSH1 0x4 ADD CALLDATALOAD SWAP9 PUSH2 0x135 DUP11 PUSH2 0x2F3 JUMP JUMPDEST SWAP8 PUSH2 0x143 PUSH1 0x40 MLOAD SWAP10 DUP11 PUSH2 0x1C7 JUMP JUMPDEST DUP11 DUP10 MSTORE CALLDATASIZE PUSH1 0x24 DUP13 DUP13 ADD ADD GT PUSH2 0x82 JUMPI PUSH0 PUSH1 0x20 DUP13 PUSH2 0x7E SWAP14 DUP13 DUP4 PUSH2 0x72 SWAP16 PUSH1 0x24 ADD SWAP2 ADD CALLDATACOPY DUP12 ADD ADD MSTORE PUSH1 0x4 CALLDATALOAD PUSH2 0x398 JUMP JUMPDEST CALLVALUE PUSH2 0x82 JUMPI PUSH1 0x20 CALLDATASIZE PUSH1 0x3 NOT ADD SLT PUSH2 0x82 JUMPI PUSH1 0x4 CALLDATALOAD PUSH1 0x6 DUP2 LT ISZERO PUSH2 0x82 JUMPI PUSH2 0x72 PUSH2 0x7E SWAP2 PUSH2 0x1FD JUMP JUMPDEST CALLVALUE PUSH2 0x82 JUMPI PUSH1 0x20 CALLDATASIZE PUSH1 0x3 NOT ADD SLT PUSH2 0x82 JUMPI PUSH1 0x4 CALLDATALOAD PUSH1 0x6 DUP2 LT ISZERO PUSH2 0x82 JUMPI PUSH2 0x72 PUSH2 0x7E SWAP2 PUSH1 0xB ADD PUSH2 0x1FD JUMP JUMPDEST SWAP1 PUSH1 0x1F DUP1 NOT SWAP2 ADD AND DUP2 ADD SWAP1 DUP2 LT PUSH8 0xFFFFFFFFFFFFFFFF DUP3 GT OR PUSH2 0x1E9 JUMPI PUSH1 0x40 MSTORE JUMP JUMPDEST PUSH4 0x4E487B71 PUSH1 0xE0 SHL PUSH0 MSTORE PUSH1 0x41 PUSH1 0x4 MSTORE PUSH1 0x24 PUSH0 REVERT JUMPDEST SWAP1 PUSH1 0x40 MLOAD SWAP2 PUSH0 DUP2 SLOAD SWAP1 DUP2 PUSH1 0x1 SHR SWAP3 PUSH1 0x1 DUP4 AND SWAP3 DUP4 ISZERO PUSH2 0x2BF JUMPI JUMPDEST PUSH1 0x20 DUP6 LT DUP5 EQ PUSH2 0x2AB JUMPI DUP5 DUP8 MSTORE DUP7 SWAP4 SWAP1 DUP2 ISZERO PUSH2 0x289 JUMPI POP PUSH1 0x1 EQ PUSH2 0x245 JUMPI JUMPDEST POP PUSH2 0x243 SWAP3 POP SUB DUP4 PUSH2 0x1C7 JUMP JUMPDEST JUMP JUMPDEST SWAP1 POP PUSH0 SWAP3 SWAP2 SWAP3 MSTORE PUSH1 0x20 PUSH0 KECCAK256 SWAP1 PUSH0 SWAP2 JUMPDEST DUP2 DUP4 LT PUSH2 0x26D JUMPI POP POP SWAP1 PUSH1 0x20 PUSH2 0x243 SWAP3 DUP3 ADD ADD PUSH0 PUSH2 0x236 JUMP JUMPDEST PUSH1 0x20 SWAP2 SWAP4 POP DUP1 PUSH1 0x1 SWAP2 SLOAD DUP4 DUP6 DUP10 ADD ADD MSTORE ADD SWAP2 ADD SWAP1 SWAP2 DUP5 SWAP3 PUSH2 0x254 JUMP JUMPDEST SWAP1 POP PUSH1 0x20 SWAP3 POP PUSH2 0x243 SWAP5 SWAP2 POP PUSH1 0xFF NOT AND DUP3 DUP5 ADD MSTORE ISZERO ISZERO PUSH1 0x5 SHL DUP3 ADD ADD PUSH0 PUSH2 0x236 JUMP JUMPDEST PUSH4 0x4E487B71 PUSH1 0xE0 SHL PUSH0 MSTORE PUSH1 0x22 PUSH1 0x4 MSTORE PUSH1 0x24 PUSH0 REVERT JUMPDEST SWAP4 PUSH1 0x7F AND SWAP4 PUSH2 0x217 JUMP JUMPDEST PUSH1 0x20 PUSH1 0x40 SWAP3 DUP2 DUP4 MSTORE DUP1 MLOAD SWAP2 DUP3 SWAP2 DUP3 DUP3 DUP7 ADD MSTORE ADD DUP5 DUP5 ADD MCOPY PUSH0 DUP3 DUP3 ADD DUP5 ADD MSTORE PUSH1 0x1F ADD PUSH1 0x1F NOT AND ADD ADD SWAP1 JUMP JUMPDEST PUSH8 0xFFFFFFFFFFFFFFFF DUP2 GT PUSH2 0x1E9 JUMPI PUSH1 0x1F ADD PUSH1 0x1F NOT AND PUSH1 0x20 ADD SWAP1 JUMP JUMPDEST PUSH32 0x22696D616765223A22646174613A696D6167652F7376672B786D6C3B62617365 DUP2 MSTORE PUSH3 0xD8D0B PUSH1 0xEA SHL PUSH1 0x20 DUP3 ADD MSTORE PUSH1 0x23 ADD SWAP1 JUMP JUMPDEST SWAP1 PUSH2 0x243 PUSH1 0x3D PUSH1 0x20 SWAP4 PUSH1 0x40 MLOAD SWAP5 DUP6 SWAP2 PUSH32 0x646174613A6170706C69636174696F6E2F6A736F6E3B6261736536342C000000 DUP3 DUP5 ADD MSTORE DUP1 MLOAD SWAP2 DUP3 SWAP2 ADD DUP5 DUP5 ADD MCOPY DUP2 ADD PUSH0 DUP4 DUP3 ADD MSTORE SUB ADD PUSH1 0x1F NOT DUP2 ADD DUP5 MSTORE DUP4 PUSH2 0x1C7 JUMP JUMPDEST SWAP8 SWAP4 SWAP3 SWAP2 SWAP1 SWAP6 SWAP8 SWAP7 SWAP5 SWAP7 PUSH2 0x1E0 MSTORE PUSH2 0x180 MSTORE PUSH2 0x280 MSTORE PUSH2 0x240 MSTORE PUSH2 0x200 MSTORE PUSH2 0x416 PUSH1 0x2A PUSH1 0x20 PUSH2 0x3C9 PUSH2 0x1E0 MLOAD PUSH2 0x196E JUMP JUMPDEST PUSH1 0x40 MLOAD PUSH2 0x260 MSTORE PUSH10 0x5768616C656D6F6E2023 PUSH1 0xB0 SHL DUP3 PUSH2 0x260 MLOAD ADD MSTORE DUP1 MLOAD SWAP2 DUP3 SWAP2 ADD DUP4 PUSH2 0x260 MLOAD ADD MCOPY PUSH2 0x260 MLOAD ADD PUSH0 DUP3 DUP3 ADD MSTORE PUSH2 0x260 MLOAD SWAP1 SUB ADD PUSH1 0x1F NOT DUP2 ADD PUSH2 0x260 MLOAD MSTORE PUSH2 0x260 MLOAD PUSH2 0x1C7 JUMP JUMPDEST ISZERO PUSH2 0x157F JUMPI PUSH1 0x6 DUP3 LT ISZERO PUSH2 0x156B JUMPI PUSH2 0x42D DUP3 PUSH2 0x1FD JUMP JUMPDEST SWAP2 PUSH1 0x5 DUP5 LT ISZERO PUSH2 0x156B JUMPI PUSH2 0x12DD SWAP5 PUSH1 0x3A PUSH1 0x38 SWAP5 PUSH1 0x24 DUP3 SWAP5 PUSH1 0x23 PUSH1 0x39 SWAP8 PUSH1 0x31 PUSH1 0x3 SWAP12 PUSH1 0x6 ADD PUSH2 0x45A DUP2 PUSH2 0x1FD JUMP JUMPDEST SWAP9 PUSH2 0x200 MLOAD PUSH0 EQ PUSH2 0x1551 JUMPI PUSH2 0x4F2 PUSH1 0x40 MLOAD PUSH2 0x476 PUSH1 0x40 DUP3 PUSH2 0x1C7 JUMP JUMPDEST PUSH1 0xA DUP2 MSTORE PUSH10 0x205B437261667465645D PUSH1 0xB0 SHL PUSH1 0x20 DUP3 ADD MSTORE SWAP3 JUMPDEST PUSH2 0x200 MLOAD ISZERO PUSH2 0x1537 JUMPI PUSH2 0x4EA PUSH1 0x40 MLOAD PUSH2 0x4A9 PUSH1 0x40 DUP3 PUSH2 0x1C7 JUMP JUMPDEST PUSH1 0x19 DUP2 MSTORE PUSH32 0x20466F72676564207468726F756768206372616674696E672E00000000000000 PUSH1 0x20 DUP3 ADD MSTORE SWAP9 JUMPDEST PUSH2 0x4E1 DUP2 PUSH1 0xB ADD PUSH2 0x1FD JUMP JUMPDEST PUSH2 0x220 MSTORE PUSH2 0x1FD JUMP JUMPDEST PUSH1 0xE0 MSTORE PUSH2 0x1FD JUMP JUMPDEST PUSH2 0x120 MSTORE PUSH0 PUSH2 0x1A0 MSTORE DUP1 MLOAD ISZERO PUSH2 0x143D JUMPI PUSH2 0x626 PUSH1 0x63 PUSH1 0x7F PUSH1 0x20 SWAP4 PUSH1 0x40 MLOAD SWAP5 DUP6 SWAP2 PUSH32 0x3C636C6970506174682069643D2263223E3C7265637420783D2233302220793D DUP3 DUP5 ADD MSTORE PUSH32 0x223730222077696474683D2232343022206865696768743D2231383022207278 PUSH1 0x40 DUP5 ADD MSTORE PUSH18 0x1E91189811179F1E17B1B634B82830BA341F PUSH1 0x71 SHL PUSH1 0x60 DUP5 ADD MSTORE PUSH13 0x1E34B6B0B3B290343932B31E91 PUSH1 0x99 SHL PUSH1 0x72 DUP5 ADD MSTORE DUP1 MLOAD SWAP2 DUP3 SWAP2 ADD DUP5 DUP5 ADD MCOPY DUP2 ADD PUSH32 0x2220783D2233302220793D223730222077696474683D22323430222068656967 DUP4 DUP3 ADD MSTORE PUSH32 0x68743D223138302220636C69702D706174683D2275726C282363292220707265 PUSH1 0x9F DUP3 ADD MSTORE PUSH32 0x7365727665417370656374526174696F3D22784D6964594D696420736C696365 PUSH1 0xBF DUP3 ADD MSTORE PUSH3 0x11179F PUSH1 0xE9 SHL PUSH1 0xDF DUP3 ADD MSTORE SUB ADD PUSH1 0x43 DUP2 ADD DUP5 MSTORE ADD DUP3 PUSH2 0x1C7 JUMP JUMPDEST PUSH2 0x1A0 MSTORE JUMPDEST PUSH1 0x20 PUSH2 0x1C0 DUP2 SWAP1 MSTORE PUSH1 0x40 MLOAD SWAP1 PUSH2 0x641 SWAP1 DUP3 PUSH2 0x1C7 JUMP JUMPDEST PUSH0 DUP2 MSTORE PUSH2 0x160 MSTORE PUSH2 0x200 MLOAD PUSH2 0x131E JUMPI JUMPDEST PUSH2 0xEB0 PUSH1 0x6 PUSH1 0x11 DUP16 DUP16 PUSH1 0x32 SWAP2 DUP4 PUSH1 0x7 SWAP3 DUP11 PUSH2 0xB27 DUP16 PUSH1 0x43 PUSH1 0x42 PUSH1 0x8C PUSH2 0x685 PUSH2 0xFFFF PUSH2 0x67E PUSH2 0x1E0 MLOAD PUSH2 0x196E JUMP JUMPDEST SWAP8 AND PUSH2 0x196E JUMP JUMPDEST PUSH2 0x695 PUSH2 0xFFFF PUSH2 0x180 MLOAD AND PUSH2 0x196E JUMP JUMPDEST PUSH2 0x140 MSTORE PUSH1 0x8A DUP3 PUSH2 0x6AC PUSH2 0xFFFF PUSH2 0x280 MLOAD AND PUSH2 0x196E JUMP JUMPDEST PUSH1 0xA4 PUSH2 0x6BE PUSH2 0xFFFF PUSH2 0x240 MLOAD AND PUSH2 0x196E JUMP JUMPDEST SWAP5 PUSH1 0x40 MLOAD PUSH2 0x100 MSTORE PUSH32 0x3C7465787420783D2234302220793D22323930222066696C6C3D222339346133 PUSH2 0x1C0 MLOAD PUSH2 0x100 MLOAD ADD MSTORE PUSH32 0x62382220666F6E742D73697A653D223131223E41544B3C2F746578743E3C7465 PUSH1 0x40 PUSH2 0x100 MLOAD ADD MSTORE PUSH32 0x787420783D223132302220793D22323930222066696C6C3D2223663837313731 PUSH1 0x60 PUSH2 0x100 MLOAD ADD MSTORE PUSH32 0x2220666F6E742D73697A653D2231342220666F6E742D7765696768743D22626F PUSH1 0x80 PUSH2 0x100 MLOAD ADD MSTORE PUSH4 0x3632111F PUSH1 0xE1 SHL PUSH1 0xA0 PUSH2 0x100 MLOAD ADD MSTORE DUP1 MLOAD DUP1 SWAP2 PUSH2 0x1C0 MLOAD ADD DUP4 PUSH2 0x100 MLOAD ADD MCOPY PUSH2 0x100 MLOAD ADD PUSH7 0x1E17BA32BC3A1F PUSH1 0xC9 SHL DUP3 DUP3 ADD MSTORE PUSH32 0x3C7465787420783D223137302220793D22323930222066696C6C3D2223393461 PUSH1 0xAB DUP3 ADD MSTORE PUSH32 0x3362382220666F6E742D73697A653D223131223E4445463C2F746578743E3C74 PUSH1 0xCB DUP3 ADD MSTORE PUSH32 0x65787420783D223235302220793D22323930222066696C6C3D22233630613566 PUSH1 0xEB DUP3 ADD MSTORE PUSH32 0x612220666F6E742D73697A653D2231342220666F6E742D7765696768743D2262 PUSH2 0x10B DUP3 ADD MSTORE PUSH5 0x37B632111F PUSH1 0xD9 SHL PUSH2 0x12B DUP3 ADD MSTORE PUSH2 0x140 MLOAD MLOAD SWAP1 DUP2 PUSH2 0x1C0 MLOAD PUSH2 0x140 MLOAD ADD PUSH2 0x130 DUP4 ADD MCOPY ADD ADD PUSH7 0x1E17BA32BC3A1F PUSH1 0xC9 SHL DUP4 DUP3 ADD MSTORE PUSH32 0x3C7465787420783D2234302220793D22333230222066696C6C3D222339346133 PUSH1 0x93 DUP3 ADD MSTORE PUSH32 0x62382220666F6E742D73697A653D223131223E48503C2F746578743E3C746578 PUSH1 0xB3 DUP3 ADD MSTORE PUSH32 0x7420783D223132302220793D22333230222066696C6C3D222334616465383022 PUSH1 0xD3 DUP3 ADD MSTORE PUSH32 0x20666F6E742D73697A653D2231342220666F6E742D7765696768743D22626F6C PUSH1 0xF3 DUP3 ADD MSTORE PUSH3 0x32111F PUSH1 0xE9 SHL PUSH2 0x113 DUP3 ADD MSTORE DUP2 MLOAD DUP1 SWAP3 PUSH2 0x1C0 MLOAD ADD PUSH2 0x116 DUP4 ADD MCOPY ADD ADD SWAP2 PUSH7 0x1E17BA32BC3A1F PUSH1 0xC9 SHL DUP3 DUP5 ADD MSTORE PUSH32 0x3C7465787420783D223137302220793D22333230222066696C6C3D2223393461 PUSH1 0x91 DUP5 ADD MSTORE PUSH32 0x3362382220666F6E742D73697A653D223131223E5350443C2F746578743E3C74 PUSH1 0xB1 DUP5 ADD MSTORE PUSH32 0x65787420783D223235302220793D22333230222066696C6C3D22236661636331 PUSH1 0xD1 DUP5 ADD MSTORE PUSH32 0x352220666F6E742D73697A653D2231342220666F6E742D7765696768743D2262 PUSH1 0xF1 DUP5 ADD MSTORE PUSH5 0x37B632111F PUSH1 0xD9 SHL PUSH2 0x111 DUP5 ADD MSTORE DUP1 MLOAD DUP1 SWAP2 PUSH2 0x1C0 MLOAD ADD PUSH2 0x116 DUP6 ADD MCOPY PUSH7 0x1E17BA32BC3A1F PUSH1 0xC9 SHL DUP4 DUP3 ADD DUP4 ADD DUP1 DUP7 ADD SWAP2 SWAP1 SWAP2 MSTORE PUSH32 0x3C7265637420783D2232302220793D22333530222077696474683D2232363022 PUSH1 0x93 DUP3 ADD MSTORE PUSH32 0x206865696768743D223530222072783D2238222066696C6C3D22230000000000 PUSH1 0xB3 DUP3 ADD MSTORE PUSH2 0x220 MLOAD DUP1 MLOAD PUSH2 0x1C0 MLOAD SWAP1 SWAP6 SWAP3 DUP7 SWAP3 SWAP2 SWAP1 SWAP2 ADD SWAP1 PUSH1 0xCE ADD MCOPY ADD ADD ADD ADD PUSH17 0x111037B830B1B4BA3C9E9118171891179F PUSH1 0x79 SHL DUP3 DUP3 ADD MSTORE PUSH32 0x3C7465787420783D223135302220793D223338302220746578742D616E63686F PUSH1 0x53 DUP3 ADD MSTORE PUSH18 0x723D226D6964646C65222066696C6C3D2223 PUSH1 0x70 SHL PUSH1 0x73 DUP3 ADD MSTORE PUSH2 0x220 MLOAD MLOAD SWAP1 DUP2 PUSH2 0x1C0 MLOAD PUSH2 0x220 MLOAD ADD PUSH1 0x85 DUP4 ADD MCOPY ADD ADD PUSH32 0x2220666F6E742D73697A653D223131223E5748414C454D4F4E205443473C2F74 DUP3 DUP3 ADD MSTORE PUSH4 0x32BC3A1F PUSH1 0xE1 SHL PUSH1 0x63 DUP3 ADD MSTORE PUSH2 0x100 MLOAD SWAP1 SUB ADD PUSH1 0x4 DUP2 ADD PUSH2 0x100 MLOAD MSTORE ADD PUSH2 0x100 MLOAD PUSH2 0x1C7 JUMP JUMPDEST PUSH1 0x40 MLOAD PUSH1 0xC0 MSTORE PUSH2 0xD07 PUSH2 0x146 PUSH2 0xB43 PUSH2 0x1C0 MLOAD PUSH1 0xC0 MLOAD ADD PUSH2 0x1ADB JUMP JUMPDEST PUSH32 0x3C646566733E3C6C696E6561724772616469656E742069643D22626722207831 DUP2 MSTORE PUSH32 0x3D2230222079313D2230222078323D2230222079323D2231223E3C73746F7020 PUSH2 0x1C0 MLOAD DUP3 ADD MSTORE PUSH32 0x6F66667365743D223025222073746F702D636F6C6F723D222330613065323722 PUSH1 0x40 DUP3 ADD MSTORE PUSH32 0x2F3E3C73746F70206F66667365743D2231303025222073746F702D636F6C6F72 PUSH1 0x60 DUP3 ADD MSTORE PUSH32 0x3D2223306631373261222F3E3C2F6C696E6561724772616469656E743E3C2F64 PUSH1 0x80 DUP3 ADD MSTORE PUSH4 0x32B3399F PUSH1 0xE1 SHL PUSH1 0xA0 DUP3 ADD MSTORE PUSH32 0x3C726563742077696474683D2233303022206865696768743D22343230222072 PUSH1 0xA4 DUP3 ADD MSTORE PUSH32 0x783D223136222066696C6C3D2275726C2823626729222F3E0000000000000000 PUSH1 0xC4 DUP3 ADD MSTORE PUSH32 0x3C7265637420783D22342220793D2234222077696474683D2232393222206865 PUSH1 0xDC DUP3 ADD MSTORE PUSH32 0x696768743D22343132222072783D223134222066696C6C3D226E6F6E65222073 PUSH1 0xFC DUP3 ADD MSTORE PUSH8 0x74726F6B653D2223 PUSH1 0xC0 SHL PUSH2 0x11C DUP3 ADD MSTORE PUSH2 0x220 MLOAD MLOAD SWAP1 DUP2 PUSH2 0x1C0 MLOAD PUSH2 0x220 MLOAD ADD PUSH2 0x124 DUP4 ADD MCOPY ADD PUSH32 0x22207374726F6B652D77696474683D223322206F7061636974793D22302E3822 PUSH2 0x124 DUP3 ADD MSTORE PUSH2 0x179F PUSH1 0xF1 SHL PUSH2 0x144 DUP3 ADD MSTORE ADD PUSH2 0x1B50 JUMP JUMPDEST DUP2 MLOAD DUP1 SWAP3 PUSH2 0x1C0 MLOAD ADD DUP3 MCOPY ADD PUSH7 0x1E17BA32BC3A1F PUSH1 0xC9 SHL DUP2 MSTORE PUSH32 0x3C7465787420783D223135302220793D2235362220746578742D616E63686F72 DUP6 DUP3 ADD MSTORE PUSH17 0x3D226D6964646C65222066696C6C3D2223 PUSH1 0x78 SHL PUSH1 0x27 DUP3 ADD MSTORE PUSH2 0x220 MLOAD MLOAD SWAP1 DUP2 PUSH2 0x1C0 MLOAD PUSH2 0x220 MLOAD ADD DUP5 DUP4 ADD MCOPY ADD PUSH17 0x11103337B73A16B9B4BD329E911899111F PUSH1 0x79 SHL DUP3 DUP3 ADD MSTORE PUSH1 0xE0 MLOAD MLOAD SWAP1 DUP2 PUSH2 0x1C0 MLOAD PUSH1 0xE0 MLOAD ADD PUSH1 0x49 DUP4 ADD MCOPY ADD ADD PUSH3 0x103E1 PUSH1 0xED SHL DUP3 DUP3 ADD MSTORE PUSH2 0x120 MLOAD MLOAD SWAP1 DUP2 PUSH2 0x1C0 MLOAD PUSH2 0x120 MLOAD ADD PUSH1 0x14 DUP4 ADD MCOPY ADD ADD PUSH7 0x1E17BA32BC3A1F PUSH1 0xC9 SHL DUP3 DUP3 ADD MSTORE PUSH2 0x1A0 MLOAD MLOAD SWAP1 DUP2 PUSH2 0x1C0 MLOAD PUSH2 0x1A0 MLOAD ADD PUSH1 0xA DUP4 ADD MCOPY ADD ADD DUP2 DUP2 ADD SWAP1 PUSH0 DUP3 MSTORE PUSH2 0x160 MLOAD MLOAD DUP1 SWAP3 PUSH2 0x1C0 MLOAD PUSH2 0x160 MLOAD ADD SWAP1 MCOPY ADD ADD PUSH32 0x3C6C696E652078313D223330222079313D22323630222078323D223237302220 DUP2 MSTORE PUSH18 0x79323D2232363022207374726F6B653D2223 PUSH1 0x70 SHL PUSH2 0x1C0 MLOAD DUP3 ADD MSTORE PUSH2 0x220 MLOAD MLOAD SWAP1 DUP2 PUSH2 0x1C0 MLOAD PUSH2 0x220 MLOAD ADD DUP5 DUP4 ADD MCOPY ADD PUSH17 0x111037B830B1B4BA3C9E9118171A11179F PUSH1 0x79 SHL DUP3 DUP3 ADD MSTORE PUSH2 0x100 MLOAD MLOAD SWAP1 DUP2 PUSH2 0x1C0 MLOAD PUSH2 0x100 MLOAD ADD PUSH1 0x43 DUP4 ADD MCOPY ADD ADD PUSH6 0x1E17B9BB339F PUSH1 0xD1 SHL DUP3 DUP3 ADD MSTORE PUSH1 0xC0 MLOAD SWAP1 SUB ADD PUSH1 0x19 NOT DUP2 ADD PUSH1 0xC0 MLOAD MSTORE ADD PUSH1 0xC0 MLOAD PUSH2 0x1C7 JUMP JUMPDEST PUSH2 0xEBB PUSH1 0xC0 MLOAD PUSH2 0x1BD3 JUMP JUMPDEST SWAP9 PUSH2 0x200 MLOAD PUSH0 EQ PUSH2 0x12F3 JUMPI PUSH2 0xEF4 PUSH2 0xFFFF PUSH1 0x40 MLOAD PUSH2 0xEDA PUSH1 0x40 DUP3 PUSH2 0x1C7 JUMP JUMPDEST PUSH1 0x3 DUP2 MSTORE PUSH3 0x596573 PUSH1 0xE8 SHL PUSH2 0x1C0 MLOAD DUP3 ADD MSTORE SWAP6 JUMPDEST AND PUSH2 0x196E JUMP JUMPDEST SWAP6 PUSH2 0xF05 PUSH2 0xFFFF PUSH2 0x180 MLOAD AND PUSH2 0x196E JUMP JUMPDEST SWAP9 PUSH2 0xF16 PUSH2 0xFFFF PUSH2 0x280 MLOAD AND PUSH2 0x196E JUMP JUMPDEST SWAP12 PUSH2 0xF27 PUSH2 0xFFFF PUSH2 0x240 MLOAD AND PUSH2 0x196E JUMP JUMPDEST PUSH1 0x80 MSTORE PUSH1 0x40 MLOAD PUSH1 0xA0 MSTORE PUSH9 0x3D913730B6B2911D11 PUSH1 0xB9 SHL PUSH2 0x1C0 MLOAD PUSH1 0xA0 MLOAD ADD MSTORE PUSH2 0x1038 PUSH1 0x11 PUSH1 0x1 PUSH2 0x260 MLOAD MLOAD DUP1 PUSH1 0x20 PUSH2 0x260 MLOAD ADD PUSH1 0x29 PUSH1 0xA0 MLOAD ADD MCOPY PUSH1 0xA0 MLOAD ADD SWAP6 PUSH3 0x10169 PUSH1 0xED SHL PUSH1 0x29 DUP9 ADD MSTORE PUSH1 0x13 DUP3 PUSH1 0x29 DUP9 MLOAD PUSH2 0x1C0 MLOAD DUP11 ADD SWAP11 DUP2 DUP13 PUSH1 0x2C DUP4 ADD MCOPY ADD ADD SWAP11 PUSH1 0x3 PUSH1 0x1 PUSH1 0xFD SHL SWAP1 DUP14 ADD MSTORE PUSH1 0x3 DUP12 MLOAD DUP1 SWAP14 DUP14 PUSH2 0x1C0 MLOAD ADD SWAP15 DUP16 PUSH1 0x4 DUP4 ADD MCOPY ADD ADD DUP3 DUP2 ADD SWAP2 PUSH0 DUP4 MSTORE DUP1 MLOAD SWAP3 DUP4 SWAP2 PUSH2 0x1C0 MLOAD ADD SWAP1 MCOPY ADD ADD PUSH2 0x88B PUSH1 0xF2 SHL DUP2 MSTORE PUSH17 0x113232B9B1B934B83A34B7B7111D11209 PUSH1 0x7D SHL PUSH1 0x2 DUP3 ADD MSTORE DUP10 MLOAD SWAP1 DUP2 DUP13 DUP5 DUP4 ADD MCOPY ADD PUSH1 0x1 PUSH1 0xFD SHL DUP3 DUP3 ADD MSTORE DUP8 MLOAD SWAP1 DUP2 DUP11 PUSH1 0x14 DUP4 ADD MCOPY ADD ADD PUSH15 0x102BB430B632B6B7B71031B0B93217 PUSH1 0x89 SHL DUP4 DUP3 ADD MSTORE DUP2 MLOAD DUP1 SWAP3 PUSH2 0x1C0 MLOAD ADD PUSH1 0x10 DUP4 ADD MCOPY ADD ADD PUSH2 0x88B PUSH1 0xF2 SHL PUSH1 0xF DUP3 ADD MSTORE ADD PUSH2 0x30F JUMP JUMPDEST DUP2 MLOAD DUP1 SWAP3 PUSH2 0x1C0 MLOAD ADD DUP3 MCOPY PUSH2 0x88B PUSH1 0xF2 SHL SWAP2 ADD SWAP1 DUP2 MSTORE PUSH14 0x2261747472696275746573223A5B PUSH1 0x90 SHL PUSH1 0x2 DUP3 ADD MSTORE PUSH32 0x7B2274726169745F74797065223A22456C656D656E74222C2276616C7565223A PUSH1 0x10 DUP3 ADD MSTORE PUSH1 0x11 PUSH1 0xF9 SHL PUSH1 0x30 DUP3 ADD MSTORE SWAP1 MLOAD SWAP2 DUP3 SWAP1 DUP7 DUP4 ADD MCOPY ADD SWAP1 PUSH3 0x89F4B PUSH1 0xEA SHL DUP5 DUP4 ADD MSTORE PUSH32 0x7B2274726169745F74797065223A22526172697479222C2276616C7565223A22 PUSH1 0x34 DUP4 ADD MSTORE MLOAD DUP1 SWAP3 PUSH1 0x54 DUP4 ADD MCOPY ADD ADD PUSH3 0x89F4B PUSH1 0xEA SHL DUP4 DUP3 ADD MSTORE PUSH32 0x7B2274726169745F74797065223A2243726166746564222C2276616C7565223A PUSH1 0x26 DUP3 ADD MSTORE PUSH1 0x11 PUSH1 0xF9 SHL PUSH1 0x46 DUP3 ADD MSTORE DUP2 MLOAD DUP1 SWAP3 PUSH2 0x1C0 MLOAD ADD PUSH1 0x47 DUP4 ADD MCOPY ADD ADD PUSH3 0x89F4B PUSH1 0xEA SHL DUP4 DUP3 ADD MSTORE PUSH32 0x7B2274726169745F74797065223A2241747461636B222C22646973706C61795F PUSH1 0x27 DUP3 ADD MSTORE PUSH23 0x3A3CB832911D11373AB6B132B91116113B30B63AB2911D PUSH1 0x49 SHL PUSH1 0x47 DUP3 ADD MSTORE DUP2 MLOAD DUP1 SWAP3 PUSH2 0x1C0 MLOAD ADD PUSH1 0x5E DUP4 ADD MCOPY ADD ADD PUSH2 0x1F4B PUSH1 0xF2 SHL DUP4 DUP3 ADD MSTORE PUSH32 0x7B2274726169745F74797065223A22446566656E7365222C22646973706C6179 PUSH1 0x3C DUP3 ADD MSTORE PUSH32 0x5F74797065223A226E756D626572222C2276616C7565223A0000000000000000 PUSH1 0x5C DUP3 ADD MSTORE DUP2 MLOAD DUP1 SWAP3 PUSH2 0x1C0 MLOAD ADD PUSH1 0x74 DUP4 ADD MCOPY ADD ADD PUSH2 0x1F4B PUSH1 0xF2 SHL DUP4 DUP3 ADD MSTORE PUSH32 0x7B2274726169745F74797065223A224865616C7468222C22646973706C61795F PUSH1 0x3C DUP3 ADD MSTORE PUSH23 0x3A3CB832911D11373AB6B132B91116113B30B63AB2911D PUSH1 0x49 SHL PUSH1 0x5C DUP3 ADD MSTORE DUP2 MLOAD DUP1 SWAP3 PUSH2 0x1C0 MLOAD ADD PUSH1 0x73 DUP4 ADD MCOPY ADD ADD PUSH2 0x1F4B PUSH1 0xF2 SHL DUP3 DUP3 ADD MSTORE PUSH32 0x7B2274726169745F74797065223A225370656564222C22646973706C61795F74 PUSH1 0x3B DUP3 ADD MSTORE PUSH22 0x3CB832911D11373AB6B132B91116113B30B63AB2911D PUSH1 0x51 SHL PUSH1 0x5B DUP3 ADD MSTORE PUSH1 0x80 MLOAD MLOAD SWAP1 DUP2 PUSH2 0x1C0 MLOAD PUSH1 0x80 MLOAD ADD PUSH1 0x71 DUP4 ADD MCOPY ADD ADD PUSH1 0x7D PUSH1 0xF8 SHL DUP3 DUP3 ADD MSTORE PUSH2 0x5D7D PUSH1 0xF0 SHL PUSH1 0x39 DUP3 ADD MSTORE PUSH1 0xA0 MLOAD SWAP1 SUB ADD PUSH1 0x1C NOT DUP2 ADD PUSH1 0xA0 MLOAD MSTORE ADD PUSH1 0xA0 MLOAD PUSH2 0x1C7 JUMP JUMPDEST PUSH2 0x12F0 PUSH2 0x12EB PUSH1 0xA0 MLOAD PUSH2 0x1BD3 JUMP JUMPDEST PUSH2 0x344 JUMP JUMPDEST SWAP1 JUMP JUMPDEST PUSH2 0xEF4 PUSH2 0xFFFF PUSH1 0x40 MLOAD PUSH2 0x1307 PUSH1 0x40 DUP3 PUSH2 0x1C7 JUMP JUMPDEST PUSH1 0x2 DUP2 MSTORE PUSH2 0x4E6F PUSH1 0xF0 SHL PUSH2 0x1C0 MLOAD DUP3 ADD MSTORE SWAP6 PUSH2 0xEEE JUMP JUMPDEST PUSH1 0x40 MLOAD PUSH32 0x3C7265637420783D2233302220793D223736222077696474683D223536222068 PUSH2 0x1C0 MLOAD DUP3 ADD MSTORE PUSH32 0x65696768743D223230222072783D2234222066696C6C3D222300000000000000 PUSH1 0x40 DUP3 ADD MSTORE PUSH2 0x1434 PUSH1 0x76 PUSH1 0x59 DUP4 PUSH2 0x220 MLOAD MLOAD DUP1 PUSH2 0x1C0 MLOAD PUSH2 0x220 MLOAD ADD DUP5 DUP5 ADD MCOPY DUP2 ADD PUSH18 0x111037B830B1B4BA3C9E9118171C1A91179F PUSH1 0x71 SHL DUP4 DUP3 ADD MSTORE PUSH32 0x3C7465787420783D2235382220793D2239302220746578742D616E63686F723D PUSH1 0x6B DUP3 ADD MSTORE PUSH32 0x226D6964646C65222066696C6C3D22236666662220666F6E742D73697A653D22 PUSH1 0x8B DUP3 ADD MSTORE PUSH32 0x392220666F6E742D7765696768743D22626F6C64223E435241465445443C2F74 PUSH1 0xAB DUP3 ADD MSTORE PUSH4 0x32BC3A1F PUSH1 0xE1 SHL PUSH1 0xCB DUP3 ADD MSTORE SUB ADD PUSH1 0x56 DUP2 ADD DUP5 MSTORE ADD DUP3 PUSH2 0x1C7 JUMP JUMPDEST PUSH2 0x160 MSTORE PUSH2 0x651 JUMP JUMPDEST POP PUSH1 0x40 MLOAD PUSH32 0x3C636972636C652063783D22313530222063793D223136302220723D22373022 PUSH1 0x20 DUP3 ADD MSTORE PUSH8 0x2066696C6C3D2223 PUSH1 0xC0 SHL PUSH1 0x40 DUP3 ADD MSTORE PUSH2 0x152E PUSH1 0x6B PUSH1 0x48 DUP4 PUSH2 0x220 MLOAD MLOAD DUP1 PUSH1 0x20 PUSH2 0x220 MLOAD ADD DUP5 DUP5 ADD MCOPY DUP2 ADD PUSH18 0x111037B830B1B4BA3C9E911817189A91179F PUSH1 0x71 SHL DUP4 DUP3 ADD MSTORE PUSH32 0x3C7465787420783D223135302220793D223137302220746578742D616E63686F PUSH1 0x5A DUP3 ADD MSTORE PUSH32 0x723D226D6964646C65222066696C6C3D22236532653866302220666F6E742D73 PUSH1 0x7A DUP3 ADD MSTORE PUSH32 0x697A653D223438223E26237831463433333B3C2F746578743E00000000000000 PUSH1 0x9A DUP3 ADD MSTORE SUB ADD PUSH1 0x4B DUP2 ADD DUP5 MSTORE ADD DUP3 PUSH2 0x1C7 JUMP JUMPDEST PUSH2 0x1A0 MSTORE PUSH2 0x62B JUMP JUMPDEST PUSH2 0x4EA PUSH1 0x40 MLOAD PUSH2 0x1548 PUSH1 0x20 DUP3 PUSH2 0x1C7 JUMP JUMPDEST PUSH0 DUP2 MSTORE SWAP9 PUSH2 0x4D5 JUMP JUMPDEST PUSH2 0x4F2 PUSH1 0x40 MLOAD PUSH2 0x1562 PUSH1 0x20 DUP3 PUSH2 0x1C7 JUMP JUMPDEST PUSH0 DUP2 MSTORE SWAP3 PUSH2 0x48F JUMP JUMPDEST PUSH4 0x4E487B71 PUSH1 0xE0 SHL PUSH0 MSTORE PUSH1 0x32 PUSH1 0x4 MSTORE PUSH1 0x24 PUSH0 REVERT JUMPDEST POP POP POP POP PUSH2 0x12F0 PUSH2 0x12EB PUSH1 0x20 PUSH2 0x18BC PUSH1 0x2 PUSH2 0x18C1 DUP4 PUSH2 0x18BC PUSH2 0x187 PUSH2 0x15A6 PUSH2 0x1E0 MLOAD PUSH2 0x196E JUMP JUMPDEST PUSH1 0x40 MLOAD SWAP4 DUP5 SWAP2 PUSH2 0x16A2 PUSH1 0xB0 PUSH2 0x15BC DUP5 DUP7 ADD PUSH2 0x1ADB JUMP JUMPDEST PUSH32 0x3C726563742077696474683D2233303022206865696768743D22343230222072 DUP2 MSTORE PUSH32 0x783D223136222066696C6C3D2223306130653237222F3E000000000000000000 DUP6 DUP3 ADD MSTORE PUSH32 0x3C7265637420783D22342220793D2234222077696474683D2232393222206865 PUSH1 0x37 DUP3 ADD MSTORE PUSH32 0x696768743D22343132222072783D223134222066696C6C3D226E6F6E65222073 PUSH1 0x57 DUP3 ADD MSTORE PUSH32 0x74726F6B653D222333333431353522207374726F6B652D77696474683D223222 PUSH1 0x77 DUP3 ADD MSTORE PUSH32 0x207374726F6B652D6461736861727261793D22382034222F3E00000000000000 PUSH1 0x97 DUP3 ADD MSTORE ADD PUSH2 0x1B50 JUMP JUMPDEST SWAP1 DUP1 MLOAD SWAP3 DUP4 SWAP2 ADD DUP3 MCOPY ADD PUSH7 0x1E17BA32BC3A1F PUSH1 0xC9 SHL DUP2 MSTORE PUSH32 0x3C7465787420783D223135302220793D2235362220746578742D616E63686F72 PUSH1 0x7 DUP3 ADD MSTORE PUSH32 0x3D226D6964646C65222066696C6C3D22233634373438622220666F6E742D7369 PUSH1 0x27 DUP3 ADD MSTORE PUSH32 0x7A653D223132223E4177616974696E672044657374696E792E2E2E3C2F746578 PUSH1 0x47 DUP3 ADD MSTORE PUSH2 0x3A1F PUSH1 0xF1 SHL PUSH1 0x67 DUP3 ADD MSTORE PUSH32 0x3C7465787420783D223135302220793D223138302220746578742D616E63686F PUSH1 0x69 DUP3 ADD MSTORE PUSH32 0x723D226D6964646C65222066696C6C3D22233437353536392220666F6E742D73 PUSH1 0x89 DUP3 ADD MSTORE PUSH32 0x697A653D223634223E26237831463433333B3C2F746578743E00000000000000 PUSH1 0xA9 DUP3 ADD MSTORE PUSH32 0x3C7465787420783D223135302220793D223330302220746578742D616E63686F PUSH1 0xC2 DUP3 ADD MSTORE PUSH32 0x723D226D6964646C65222066696C6C3D22233437353536392220666F6E742D73 PUSH1 0xE2 DUP3 ADD MSTORE PUSH32 0x697A653D223132223E53746174732067656E65726174696E672E2E2E3C2F7465 PUSH2 0x102 DUP3 ADD MSTORE PUSH3 0x3C3A1F PUSH1 0xE9 SHL PUSH2 0x122 DUP3 ADD MSTORE PUSH32 0x3C7465787420783D223135302220793D223338302220746578742D616E63686F PUSH2 0x125 DUP3 ADD MSTORE PUSH32 0x723D226D6964646C65222066696C6C3D22233333343135352220666F6E742D73 PUSH2 0x145 DUP3 ADD MSTORE PUSH32 0x697A653D223131223E5748414C454D4F4E205443473C2F746578743E00000000 PUSH2 0x165 DUP3 ADD MSTORE PUSH6 0x1E17B9BB339F PUSH1 0xD1 SHL PUSH2 0x181 DUP3 ADD MSTORE SUB PUSH2 0x167 DUP2 ADD DUP5 MSTORE ADD DUP3 PUSH2 0x1C7 JUMP JUMPDEST PUSH2 0x1BD3 JUMP JUMPDEST PUSH1 0x40 MLOAD SWAP4 DUP5 SWAP2 PUSH9 0x3D913730B6B2911D11 PUSH1 0xB9 SHL DUP3 DUP5 ADD MSTORE PUSH2 0x194D PUSH1 0x69 PUSH2 0x260 MLOAD MLOAD DUP1 DUP6 PUSH2 0x260 MLOAD ADD PUSH1 0x29 DUP9 ADD MCOPY DUP6 ADD PUSH2 0x88B PUSH1 0xF2 SHL PUSH1 0x29 DUP3 ADD MSTORE PUSH32 0x226465736372697074696F6E223A2241205768616C656D6F6E2054726164696E PUSH1 0x2B DUP3 ADD MSTORE PUSH32 0x672043617264206177616974696E67206974732064657374696E792E222C0000 PUSH1 0x4B DUP3 ADD MSTORE ADD PUSH2 0x30F JUMP JUMPDEST SWAP1 DUP1 MLOAD SWAP3 DUP4 SWAP2 ADD DUP3 MCOPY ADD PUSH2 0x227D PUSH1 0xF0 SHL DUP2 MSTORE SUB PUSH1 0x1D NOT DUP2 ADD DUP5 MSTORE ADD DUP3 PUSH2 0x1C7 JUMP JUMPDEST DUP1 PUSH0 SWAP2 PUSH19 0x184F03E93FF9F4DAA797ED6E38ED64BF6A1F01 PUSH1 0x40 SHL DUP3 LT ISZERO PUSH2 0x1AB8 JUMPI JUMPDEST DUP1 PUSH14 0x4EE2D6D415B85ACEF8100000000 PUSH1 0xA SWAP3 LT ISZERO PUSH2 0x1A9D JUMPI JUMPDEST PUSH7 0x2386F26FC10000 DUP2 LT ISZERO PUSH2 0x1A89 JUMPI JUMPDEST PUSH4 0x5F5E100 DUP2 LT ISZERO PUSH2 0x1A78 JUMPI JUMPDEST PUSH2 0x2710 DUP2 LT ISZERO PUSH2 0x1A69 JUMPI JUMPDEST PUSH1 0x64 DUP2 LT ISZERO PUSH2 0x1A5B JUMPI JUMPDEST LT ISZERO PUSH2 0x1A50 JUMPI JUMPDEST PUSH1 0xA PUSH1 0x21 PUSH1 0x1 DUP5 ADD SWAP4 PUSH2 0x19F5 DUP6 PUSH2 0x2F3 JUMP JUMPDEST SWAP5 PUSH2 0x1A03 PUSH1 0x40 MLOAD SWAP7 DUP8 PUSH2 0x1C7 JUMP JUMPDEST DUP1 DUP7 MSTORE PUSH2 0x1A12 PUSH1 0x1F NOT SWAP2 PUSH2 0x2F3 JUMP JUMPDEST ADD CALLDATASIZE PUSH1 0x20 DUP8 ADD CALLDATACOPY DUP5 ADD ADD JUMPDEST PUSH0 NOT ADD SWAP2 PUSH16 0x181899199A1A9B1B9C1CB0B131B232B3 PUSH1 0x81 SHL DUP3 DUP3 MOD BYTE DUP4 MSTORE8 DIV DUP1 ISZERO PUSH2 0x1A4B JUMPI PUSH1 0xA SWAP1 SWAP2 PUSH2 0x1A1D JUMP JUMPDEST POP POP SWAP1 JUMP JUMPDEST PUSH1 0x1 SWAP1 SWAP2 ADD SWAP1 PUSH2 0x19E3 JUMP JUMPDEST PUSH1 0x64 PUSH1 0x2 SWAP2 DIV SWAP4 ADD SWAP3 PUSH2 0x19DC JUMP JUMPDEST PUSH2 0x2710 PUSH1 0x4 SWAP2 DIV SWAP4 ADD SWAP3 PUSH2 0x19D2 JUMP JUMPDEST PUSH4 0x5F5E100 PUSH1 0x8 SWAP2 DIV SWAP4 ADD SWAP3 PUSH2 0x19C7 JUMP JUMPDEST PUSH7 0x2386F26FC10000 PUSH1 0x10 SWAP2 DIV SWAP4 ADD SWAP3 PUSH2 0x19BA JUMP JUMPDEST PUSH14 0x4EE2D6D415B85ACEF8100000000 PUSH1 0x20 SWAP2 DIV SWAP4 ADD SWAP3 PUSH2 0x19AA JUMP JUMPDEST POP PUSH1 0x40 SWAP2 POP PUSH19 0x184F03E93FF9F4DAA797ED6E38ED64BF6A1F01 PUSH1 0x40 SHL DUP2 DIV PUSH2 0x1990 JUMP JUMPDEST PUSH32 0x3C73766720786D6C6E733D22687474703A2F2F7777772E77332E6F72672F3230 DUP2 MSTORE PUSH32 0x30302F737667222076696577426F783D22302030203330302034323022207374 PUSH1 0x20 DUP3 ADD MSTORE PUSH32 0x796C653D22666F6E742D66616D696C793A6D6F6E6F7370616365223E00000000 PUSH1 0x40 DUP3 ADD MSTORE PUSH1 0x5C ADD SWAP1 JUMP JUMPDEST PUSH32 0x3C7465787420783D223135302220793D2233362220746578742D616E63686F72 DUP2 MSTORE PUSH32 0x3D226D6964646C65222066696C6C3D22236532653866302220666F6E742D7369 PUSH1 0x20 DUP3 ADD MSTORE PUSH32 0x7A653D2231362220666F6E742D7765696768743D22626F6C64223E5748414C45 PUSH1 0x40 DUP3 ADD MSTORE PUSH5 0x4D4F4E2023 PUSH1 0xD8 SHL PUSH1 0x60 DUP3 ADD MSTORE PUSH1 0x65 ADD SWAP1 JUMP JUMPDEST SWAP1 DUP2 MLOAD ISZERO PUSH2 0x1D06 JUMPI DUP2 MLOAD PUSH1 0x2 DUP2 ADD DUP1 SWAP2 GT PUSH2 0x1CF2 JUMPI PUSH1 0x3 SWAP1 DIV PUSH1 0x2 DUP2 SWAP1 SHL SWAP2 SWAP1 PUSH1 0x1 PUSH1 0x1 PUSH1 0xFE SHL SUB DUP2 AND SUB PUSH2 0x1CF2 JUMPI PUSH1 0x40 MLOAD SWAP2 PUSH32 0x4142434445464748494A4B4C4D4E4F505152535455565758595A616263646566 PUSH1 0x1F MSTORE PUSH32 0x6768696A6B6C6D6E6F707172737475767778797A303132333435363738392B2F PUSH1 0x3F MSTORE PUSH1 0x20 DUP4 ADD DUP5 DUP1 MLOAD DUP2 ADD PUSH1 0x20 DUP2 ADD DUP1 MLOAD SWAP2 PUSH0 DUP3 MSTORE JUMPDEST DUP1 DUP10 LT PUSH2 0x1CB6 JUMPI POP PUSH1 0x20 SWAP6 SWAP7 SWAP8 POP SWAP1 PUSH1 0x3 SWAP3 SWAP2 MSTORE MLOAD MOD DUP1 PUSH1 0x1 EQ PUSH2 0x1CA1 JUMPI PUSH1 0x2 EQ PUSH2 0x1C94 JUMPI JUMPDEST POP DUP1 DUP5 MSTORE DUP4 ADD ADD PUSH1 0x40 MSTORE JUMP JUMPDEST PUSH1 0x3D SWAP1 PUSH0 NOT ADD MSTORE8 PUSH0 PUSH2 0x1C88 JUMP JUMPDEST POP PUSH1 0x3D SWAP1 DUP2 PUSH0 NOT DUP3 ADD MSTORE8 PUSH1 0x1 NOT ADD MSTORE8 PUSH0 PUSH2 0x1C88 JUMP JUMPDEST SWAP4 SWAP8 PUSH1 0x3 PUSH1 0x4 SWAP2 ADD SWAP9 PUSH1 0x3F DUP11 MLOAD DUP2 DUP2 PUSH1 0x12 SHR AND MLOAD DUP4 MSTORE8 DUP2 DUP2 PUSH1 0xC SHR AND MLOAD PUSH1 0x1 DUP5 ADD MSTORE8 DUP2 DUP2 PUSH1 0x6 SHR AND MLOAD PUSH1 0x2 DUP5 ADD MSTORE8 AND MLOAD PUSH1 0x3 DUP3 ADD MSTORE8 ADD SWAP4 PUSH2 0x1C62 JUMP JUMPDEST PUSH4 0x4E487B71 PUSH1 0xE0 SHL PUSH0 MSTORE PUSH1 0x11 PUSH1 0x4 MSTORE PUSH1 0x24 PUSH0 REVERT JUMPDEST SWAP1 POP PUSH1 0x40 MLOAD PUSH2 0x1D16 PUSH1 0x20 DUP3 PUSH2 0x1C7 JUMP JUMPDEST PUSH0 DUP2 MSTORE SWAP1 JUMP INVALID LOG2 PUSH5 0x6970667358 0x22 SLT KECCAK256 0x1F 0xD3 0x4B BLOBHASH SWAP3 DUP12 DUP14 0xC5 SWAP5 SWAP11 0xAF 0x26 CALLCODE 0xBC CREATE2 0xB3 PUSH26 0x7B92F8C730B8F9A3779E62B34E53C764736F6C634300081C0033 "},"methodIdentifiers":{"elementColors(uint256)":"165ed4c5","elementNames(uint256)":"4873a1e3","rarityNames(uint256)":"98bf3143","renderTokenURI(uint256,uint16,uint16,uint16,uint16,uint8,uint8,bool,bool,string)":"6cb3fdcd"}}}}}