{"project/contracts/BattleArena.sol":{"BattleArena":{"abi":[{"inputs":[{"internalType":"address","name":"_whaleCards","type":"address"},{"internalType":"address","name":"_pathUSD","type":"address"}],"stateMutability":"nonpayable","type":"constructor"},{"inputs":[],"name":"AbilityOnCooldown","type":"error"},{"inputs":[],"name":"AlreadyClaimed","type":"error"},{"inputs":[],"name":"AlreadyInBattle","type":"error"},{"inputs":[],"name":"BattleAlreadyFinished","type":"error"},{"inputs":[],"name":"BattleNotActive","type":"error"},{"inputs":[],"name":"BattleNotOpen","type":"error"},{"inputs":[],"name":"CannotFightYourself","type":"error"},{"inputs":[],"name":"CardStatsNotSet","type":"error"},{"inputs":[],"name":"ForfeitNotAllowed","type":"error"},{"inputs":[],"name":"InsufficientAllowance","type":"error"},{"inputs":[],"name":"InvalidFee","type":"error"},{"inputs":[],"name":"InvalidMove","type":"error"},{"inputs":[],"name":"InvalidRank","type":"error"},{"inputs":[],"name":"NotBattleParticipant","type":"error"},{"inputs":[],"name":"NotCardOwner","type":"error"},{"inputs":[],"name":"NotRankedPlayer","type":"error"},{"inputs":[],"name":"NotYourTurn","type":"error"},{"inputs":[],"name":"NothingToWithdraw","type":"error"},{"inputs":[{"internalType":"address","name":"owner","type":"address"}],"name":"OwnableInvalidOwner","type":"error"},{"inputs":[{"internalType":"address","name":"account","type":"address"}],"name":"OwnableUnauthorizedAccount","type":"error"},{"inputs":[],"name":"ReentrancyGuardReentrantCall","type":"error"},{"inputs":[],"name":"SeasonNotEnded","type":"error"},{"inputs":[],"name":"SeasonStillActive","type":"error"},{"anonymous":false,"inputs":[{"indexed":true,"internalType":"uint256","name":"battleId","type":"uint256"},{"indexed":true,"internalType":"address","name":"abandoner","type":"address"}],"name":"BattleAbandoned","type":"event"},{"anonymous":false,"inputs":[{"indexed":true,"internalType":"uint256","name":"battleId","type":"uint256"}],"name":"BattleCancelled","type":"event"},{"anonymous":false,"inputs":[{"indexed":true,"internalType":"uint256","name":"battleId","type":"uint256"},{"indexed":true,"internalType":"address","name":"player1","type":"address"},{"indexed":false,"internalType":"uint256","name":"card1","type":"uint256"},{"indexed":false,"internalType":"enum BattleArena.BattleMode","name":"mode","type":"uint8"}],"name":"BattleCreated","type":"event"},{"anonymous":false,"inputs":[{"indexed":true,"internalType":"uint256","name":"battleId","type":"uint256"},{"indexed":true,"internalType":"address","name":"winner","type":"address"},{"indexed":false,"internalType":"uint8","name":"totalTurns","type":"uint8"}],"name":"BattleFinished","type":"event"},{"anonymous":false,"inputs":[{"indexed":true,"internalType":"uint256","name":"battleId","type":"uint256"},{"indexed":true,"internalType":"address","name":"forfeiter","type":"address"}],"name":"BattleForfeited","type":"event"},{"anonymous":false,"inputs":[{"indexed":true,"internalType":"uint256","name":"battleId","type":"uint256"},{"indexed":true,"internalType":"address","name":"player2","type":"address"},{"indexed":false,"internalType":"uint256","name":"card2","type":"uint256"}],"name":"BattleJoined","type":"event"},{"anonymous":false,"inputs":[{"indexed":true,"internalType":"uint256","name":"battleId","type":"uint256"},{"indexed":false,"internalType":"uint8","name":"turn","type":"uint8"},{"indexed":true,"internalType":"address","name":"player","type":"address"},{"indexed":false,"internalType":"enum BattleArena.MoveType","name":"move","type":"uint8"},{"indexed":false,"internalType":"uint16","name":"damage","type":"uint16"}],"name":"BattleMove","type":"event"},{"anonymous":false,"inputs":[{"indexed":true,"internalType":"address","name":"to","type":"address"},{"indexed":false,"internalType":"uint256","name":"amount","type":"uint256"}],"name":"EmergencyWithdraw","type":"event"},{"anonymous":false,"inputs":[{"indexed":true,"internalType":"address","name":"player","type":"address"},{"indexed":false,"internalType":"uint256","name":"amount","type":"uint256"},{"indexed":false,"internalType":"uint256","name":"toPool","type":"uint256"},{"indexed":false,"internalType":"uint256","name":"toPlatform","type":"uint256"}],"name":"EntryFeePaid","type":"event"},{"anonymous":false,"inputs":[{"indexed":false,"internalType":"uint256","name":"oldFee","type":"uint256"},{"indexed":false,"internalType":"uint256","name":"newFee","type":"uint256"}],"name":"EntryFeeUpdated","type":"event"},{"anonymous":false,"inputs":[{"indexed":true,"internalType":"address","name":"previousOwner","type":"address"},{"indexed":true,"internalType":"address","name":"newOwner","type":"address"}],"name":"OwnershipTransferred","type":"event"},{"anonymous":false,"inputs":[{"indexed":true,"internalType":"uint256","name":"season","type":"uint256"},{"indexed":false,"internalType":"uint256","name":"rank","type":"uint256"},{"indexed":true,"internalType":"address","name":"player","type":"address"},{"indexed":false,"internalType":"uint256","name":"amount","type":"uint256"}],"name":"PrizeClaimed","type":"event"},{"anonymous":false,"inputs":[{"indexed":true,"internalType":"uint256","name":"season","type":"uint256"},{"indexed":false,"internalType":"uint256","name":"prizePool","type":"uint256"},{"indexed":false,"internalType":"address[]","name":"topPlayers","type":"address[]"}],"name":"SeasonEnded","type":"event"},{"inputs":[],"name":"ABILITY_COOLDOWN","outputs":[{"internalType":"uint16","name":"","type":"uint16"}],"stateMutability":"view","type":"function"},{"inputs":[],"name":"ABILITY_POWER_MULTIPLIER","outputs":[{"internalType":"uint16","name":"","type":"uint16"}],"stateMutability":"view","type":"function"},{"inputs":[],"name":"BASE_DAMAGE_MIN","outputs":[{"internalType":"uint16","name":"","type":"uint16"}],"stateMutability":"view","type":"function"},{"inputs":[],"name":"ELEMENT_BONUS","outputs":[{"internalType":"uint16","name":"","type":"uint16"}],"stateMutability":"view","type":"function"},{"inputs":[],"name":"MAX_PLATFORM_FEE","outputs":[{"internalType":"uint256","name":"","type":"uint256"}],"stateMutability":"view","type":"function"},{"inputs":[],"name":"MAX_TURNS","outputs":[{"internalType":"uint8","name":"","type":"uint8"}],"stateMutability":"view","type":"function"},{"inputs":[{"internalType":"uint256","name":"battleId","type":"uint256"}],"name":"abandonBattle","outputs":[],"stateMutability":"nonpayable","type":"function"},{"inputs":[{"internalType":"address","name":"","type":"address"}],"name":"activeBattle","outputs":[{"internalType":"uint256","name":"","type":"uint256"}],"stateMutability":"view","type":"function"},{"inputs":[{"internalType":"uint256","name":"","type":"uint256"},{"internalType":"uint256","name":"","type":"uint256"}],"name":"battleLogs","outputs":[{"internalType":"uint8","name":"turn","type":"uint8"},{"internalType":"address","name":"player","type":"address"},{"internalType":"enum BattleArena.MoveType","name":"move","type":"uint8"},{"internalType":"uint16","name":"damage","type":"uint16"},{"internalType":"int16","name":"hp1After","type":"int16"},{"internalType":"int16","name":"hp2After","type":"int16"}],"stateMutability":"view","type":"function"},{"inputs":[{"internalType":"uint256","name":"","type":"uint256"}],"name":"battles","outputs":[{"internalType":"uint256","name":"battleId","type":"uint256"},{"internalType":"address","name":"player1","type":"address"},{"internalType":"address","name":"player2","type":"address"},{"internalType":"uint256","name":"card1","type":"uint256"},{"internalType":"uint256","name":"card2","type":"uint256"},{"internalType":"int16","name":"hp1","type":"int16"},{"internalType":"int16","name":"hp2","type":"int16"},{"internalType":"uint8","name":"turn","type":"uint8"},{"internalType":"uint8","name":"lastAbility1","type":"uint8"},{"internalType":"uint8","name":"lastAbility2","type":"uint8"},{"internalType":"bool","name":"isPlayer1Turn","type":"bool"},{"internalType":"uint8","name":"defenseBoost1","type":"uint8"},{"internalType":"uint8","name":"defenseBoost2","type":"uint8"},{"internalType":"enum BattleArena.BattleStatus","name":"status","type":"uint8"},{"internalType":"enum BattleArena.BattleMode","name":"mode","type":"uint8"},{"internalType":"address","name":"winner","type":"address"},{"internalType":"uint256","name":"createdAt","type":"uint256"},{"internalType":"uint256","name":"finishedAt","type":"uint256"}],"stateMutability":"view","type":"function"},{"inputs":[{"internalType":"uint256","name":"battleId","type":"uint256"},{"internalType":"bool","name":"isPlayer1","type":"bool"}],"name":"canUseAbility","outputs":[{"internalType":"bool","name":"","type":"bool"}],"stateMutability":"view","type":"function"},{"inputs":[{"internalType":"uint256","name":"battleId","type":"uint256"}],"name":"cancelBattle","outputs":[],"stateMutability":"nonpayable","type":"function"},{"inputs":[{"internalType":"uint256","name":"season","type":"uint256"},{"internalType":"uint256","name":"rank","type":"uint256"}],"name":"claimPrize","outputs":[],"stateMutability":"nonpayable","type":"function"},{"inputs":[{"internalType":"uint256","name":"cardId","type":"uint256"}],"name":"createAIBattle","outputs":[{"internalType":"uint256","name":"","type":"uint256"}],"stateMutability":"nonpayable","type":"function"},{"inputs":[{"internalType":"uint256","name":"cardId","type":"uint256"}],"name":"createBattle","outputs":[{"internalType":"uint256","name":"","type":"uint256"}],"stateMutability":"nonpayable","type":"function"},{"inputs":[],"name":"currentSeason","outputs":[{"internalType":"uint256","name":"","type":"uint256"}],"stateMutability":"view","type":"function"},{"inputs":[{"internalType":"uint8","name":"","type":"uint8"}],"name":"elementAdvantage","outputs":[{"internalType":"uint8","name":"","type":"uint8"}],"stateMutability":"view","type":"function"},{"inputs":[{"internalType":"address","name":"to","type":"address"}],"name":"emergencyWithdrawPrizePool","outputs":[],"stateMutability":"nonpayable","type":"function"},{"inputs":[{"internalType":"address[]","name":"topPlayers","type":"address[]"}],"name":"endSeason","outputs":[],"stateMutability":"nonpayable","type":"function"},{"inputs":[],"name":"entryFee","outputs":[{"internalType":"uint256","name":"","type":"uint256"}],"stateMutability":"view","type":"function"},{"inputs":[{"internalType":"uint256","name":"battleId","type":"uint256"}],"name":"forfeitBattle","outputs":[],"stateMutability":"nonpayable","type":"function"},{"inputs":[{"internalType":"uint256","name":"battleId","type":"uint256"}],"name":"getBattle","outputs":[{"components":[{"internalType":"uint256","name":"battleId","type":"uint256"},{"internalType":"address","name":"player1","type":"address"},{"internalType":"address","name":"player2","type":"address"},{"internalType":"uint256","name":"card1","type":"uint256"},{"internalType":"uint256","name":"card2","type":"uint256"},{"internalType":"int16","name":"hp1","type":"int16"},{"internalType":"int16","name":"hp2","type":"int16"},{"internalType":"uint8","name":"turn","type":"uint8"},{"internalType":"uint8","name":"lastAbility1","type":"uint8"},{"internalType":"uint8","name":"lastAbility2","type":"uint8"},{"internalType":"bool","name":"isPlayer1Turn","type":"bool"},{"internalType":"uint8","name":"defenseBoost1","type":"uint8"},{"internalType":"uint8","name":"defenseBoost2","type":"uint8"},{"internalType":"enum BattleArena.BattleStatus","name":"status","type":"uint8"},{"internalType":"enum BattleArena.BattleMode","name":"mode","type":"uint8"},{"internalType":"address","name":"winner","type":"address"},{"internalType":"uint256","name":"createdAt","type":"uint256"},{"internalType":"uint256","name":"finishedAt","type":"uint256"}],"internalType":"struct BattleArena.Battle","name":"","type":"tuple"}],"stateMutability":"view","type":"function"},{"inputs":[{"internalType":"uint256","name":"battleId","type":"uint256"}],"name":"getBattleLog","outputs":[{"components":[{"internalType":"uint8","name":"turn","type":"uint8"},{"internalType":"address","name":"player","type":"address"},{"internalType":"enum BattleArena.MoveType","name":"move","type":"uint8"},{"internalType":"uint16","name":"damage","type":"uint16"},{"internalType":"int16","name":"hp1After","type":"int16"},{"internalType":"int16","name":"hp2After","type":"int16"}],"internalType":"struct BattleArena.BattleLog[]","name":"","type":"tuple[]"}],"stateMutability":"view","type":"function"},{"inputs":[{"internalType":"uint256","name":"offset","type":"uint256"},{"internalType":"uint256","name":"limit","type":"uint256"}],"name":"getOpenBattles","outputs":[{"components":[{"internalType":"uint256","name":"battleId","type":"uint256"},{"internalType":"address","name":"player1","type":"address"},{"internalType":"address","name":"player2","type":"address"},{"internalType":"uint256","name":"card1","type":"uint256"},{"internalType":"uint256","name":"card2","type":"uint256"},{"internalType":"int16","name":"hp1","type":"int16"},{"internalType":"int16","name":"hp2","type":"int16"},{"internalType":"uint8","name":"turn","type":"uint8"},{"internalType":"uint8","name":"lastAbility1","type":"uint8"},{"internalType":"uint8","name":"lastAbility2","type":"uint8"},{"internalType":"bool","name":"isPlayer1Turn","type":"bool"},{"internalType":"uint8","name":"defenseBoost1","type":"uint8"},{"internalType":"uint8","name":"defenseBoost2","type":"uint8"},{"internalType":"enum BattleArena.BattleStatus","name":"status","type":"uint8"},{"internalType":"enum BattleArena.BattleMode","name":"mode","type":"uint8"},{"internalType":"address","name":"winner","type":"address"},{"internalType":"uint256","name":"createdAt","type":"uint256"},{"internalType":"uint256","name":"finishedAt","type":"uint256"}],"internalType":"struct BattleArena.Battle[]","name":"","type":"tuple[]"}],"stateMutability":"view","type":"function"},{"inputs":[{"internalType":"address","name":"player","type":"address"}],"name":"getPlayerRecord","outputs":[{"components":[{"internalType":"uint32","name":"wins","type":"uint32"},{"internalType":"uint32","name":"losses","type":"uint32"},{"internalType":"uint32","name":"draws","type":"uint32"},{"internalType":"uint32","name":"totalBattles","type":"uint32"},{"internalType":"uint32","name":"winStreak","type":"uint32"},{"internalType":"uint32","name":"bestStreak","type":"uint32"},{"internalType":"uint256","name":"totalDamageDealt","type":"uint256"}],"internalType":"struct BattleArena.PlayerRecord","name":"","type":"tuple"}],"stateMutability":"view","type":"function"},{"inputs":[],"name":"getPoolInfo","outputs":[{"internalType":"uint256","name":"currentPool","type":"uint256"},{"internalType":"uint256","name":"season","type":"uint256"},{"internalType":"uint256","name":"seasonEnd","type":"uint256"},{"internalType":"uint256","name":"totalBattles","type":"uint256"},{"internalType":"uint256","name":"currentEntryFee","type":"uint256"},{"internalType":"uint256","name":"topTier","type":"uint256"},{"internalType":"uint256","name":"totalRewarded","type":"uint256"}],"stateMutability":"view","type":"function"},{"inputs":[{"internalType":"uint256","name":"season","type":"uint256"},{"internalType":"uint256","name":"rank","type":"uint256"}],"name":"getPrizeAmount","outputs":[{"internalType":"uint256","name":"","type":"uint256"}],"stateMutability":"view","type":"function"},{"inputs":[{"internalType":"uint256","name":"season","type":"uint256"},{"internalType":"address","name":"player","type":"address"}],"name":"getSeasonWins","outputs":[{"internalType":"uint32","name":"","type":"uint32"}],"stateMutability":"view","type":"function"},{"inputs":[],"name":"getTopTierShares","outputs":[{"internalType":"uint256[]","name":"","type":"uint256[]"}],"stateMutability":"view","type":"function"},{"inputs":[{"internalType":"uint8","name":"attackerElement","type":"uint8"},{"internalType":"uint8","name":"defenderElement","type":"uint8"}],"name":"hasElementAdvantage","outputs":[{"internalType":"bool","name":"","type":"bool"}],"stateMutability":"view","type":"function"},{"inputs":[{"internalType":"uint256","name":"battleId","type":"uint256"},{"internalType":"uint256","name":"cardId","type":"uint256"}],"name":"joinBattle","outputs":[],"stateMutability":"nonpayable","type":"function"},{"inputs":[{"internalType":"uint256","name":"battleId","type":"uint256"},{"internalType":"enum BattleArena.MoveType","name":"move","type":"uint8"}],"name":"makeMove","outputs":[],"stateMutability":"nonpayable","type":"function"},{"inputs":[],"name":"nextBattleId","outputs":[{"internalType":"uint256","name":"","type":"uint256"}],"stateMutability":"view","type":"function"},{"inputs":[],"name":"owner","outputs":[{"internalType":"address","name":"","type":"address"}],"stateMutability":"view","type":"function"},{"inputs":[],"name":"pathUSD","outputs":[{"internalType":"contract IPATHUSD","name":"","type":"address"}],"stateMutability":"view","type":"function"},{"inputs":[],"name":"platformFeeBps","outputs":[{"internalType":"uint256","name":"","type":"uint256"}],"stateMutability":"view","type":"function"},{"inputs":[],"name":"platformFees","outputs":[{"internalType":"uint256","name":"","type":"uint256"}],"stateMutability":"view","type":"function"},{"inputs":[{"internalType":"address","name":"","type":"address"}],"name":"playerRecords","outputs":[{"internalType":"uint32","name":"wins","type":"uint32"},{"internalType":"uint32","name":"losses","type":"uint32"},{"internalType":"uint32","name":"draws","type":"uint32"},{"internalType":"uint32","name":"totalBattles","type":"uint32"},{"internalType":"uint32","name":"winStreak","type":"uint32"},{"internalType":"uint32","name":"bestStreak","type":"uint32"},{"internalType":"uint256","name":"totalDamageDealt","type":"uint256"}],"stateMutability":"view","type":"function"},{"inputs":[{"internalType":"uint256","name":"","type":"uint256"},{"internalType":"uint256","name":"","type":"uint256"}],"name":"prizeClaimed","outputs":[{"internalType":"bool","name":"","type":"bool"}],"stateMutability":"view","type":"function"},{"inputs":[],"name":"prizePool","outputs":[{"internalType":"uint256","name":"","type":"uint256"}],"stateMutability":"view","type":"function"},{"inputs":[],"name":"renounceOwnership","outputs":[],"stateMutability":"nonpayable","type":"function"},{"inputs":[],"name":"seasonDuration","outputs":[{"internalType":"uint256","name":"","type":"uint256"}],"stateMutability":"view","type":"function"},{"inputs":[{"internalType":"uint256","name":"","type":"uint256"}],"name":"seasonPrizePool","outputs":[{"internalType":"uint256","name":"","type":"uint256"}],"stateMutability":"view","type":"function"},{"inputs":[{"internalType":"uint256","name":"","type":"uint256"},{"internalType":"uint256","name":"","type":"uint256"}],"name":"seasonRankings","outputs":[{"internalType":"address","name":"","type":"address"}],"stateMutability":"view","type":"function"},{"inputs":[],"name":"seasonStart","outputs":[{"internalType":"uint256","name":"","type":"uint256"}],"stateMutability":"view","type":"function"},{"inputs":[],"name":"seasonTimeRemaining","outputs":[{"internalType":"uint256","name":"","type":"uint256"}],"stateMutability":"view","type":"function"},{"inputs":[{"internalType":"uint256","name":"","type":"uint256"},{"internalType":"address","name":"","type":"address"}],"name":"seasonWins","outputs":[{"internalType":"uint32","name":"","type":"uint32"}],"stateMutability":"view","type":"function"},{"inputs":[{"internalType":"uint256","name":"_fee","type":"uint256"}],"name":"setEntryFee","outputs":[],"stateMutability":"nonpayable","type":"function"},{"inputs":[{"internalType":"uint256","name":"_feeBps","type":"uint256"}],"name":"setPlatformFee","outputs":[],"stateMutability":"nonpayable","type":"function"},{"inputs":[{"internalType":"uint256[]","name":"_topTierShares","type":"uint256[]"},{"internalType":"uint256","name":"_totalRewardedPlayers","type":"uint256"}],"name":"setPrizeStructure","outputs":[],"stateMutability":"nonpayable","type":"function"},{"inputs":[{"internalType":"uint256","name":"_duration","type":"uint256"}],"name":"setSeasonDuration","outputs":[],"stateMutability":"nonpayable","type":"function"},{"inputs":[],"name":"topTierCount","outputs":[{"internalType":"uint256","name":"","type":"uint256"}],"stateMutability":"view","type":"function"},{"inputs":[{"internalType":"uint256","name":"","type":"uint256"}],"name":"topTierShares","outputs":[{"internalType":"uint256","name":"","type":"uint256"}],"stateMutability":"view","type":"function"},{"inputs":[],"name":"totalBattlesPlayed","outputs":[{"internalType":"uint256","name":"","type":"uint256"}],"stateMutability":"view","type":"function"},{"inputs":[],"name":"totalRewardedPlayers","outputs":[{"internalType":"uint256","name":"","type":"uint256"}],"stateMutability":"view","type":"function"},{"inputs":[{"internalType":"address","name":"newOwner","type":"address"}],"name":"transferOwnership","outputs":[],"stateMutability":"nonpayable","type":"function"},{"inputs":[],"name":"whaleCards","outputs":[{"internalType":"contract IWhaleCards","name":"","type":"address"}],"stateMutability":"view","type":"function"},{"inputs":[{"internalType":"address","name":"to","type":"address"}],"name":"withdrawPlatformFees","outputs":[],"stateMutability":"nonpayable","type":"function"}],"evm":{"bytecode":{"linkReferences":{},"object":"60c0346103df57601f614bd938819003918201601f19168301916001600160401b038311848410176103b85780849260409485528339810103126103df57610052602061004b836103e3565b92016103e3565b9033156103cc575f8054336001600160a01b0319821681178355916001600160a01b03909116907f8be0079c531659141344cd1fd0a4f28419497f9722a3daafe3b4186f6b6457e09080a360017f9b779b17422d0df92223018b32b4d1fa46e071723d6817e2486d003becc55f00819055620f42406007556103e8600855600b81905562278d00600d5560196010556001600160a01b03918216608052911660a05260066020527f54cdd369e4e8a8515e52ca72ec816c2101831ad1f18bf44102ed171459c9b4f8805460ff199081166003179091557f75f96ab15d697e93042dc45b5c896c4b27e89bb6eaf39475c5c371cb2513f7d28054821660041790557fc5069e24aaadb2addc3e52e868fcf3f4f8acf5a87e24300992fd4540c2a87eed805482169092179091557f3e5fec24aa4dc4e5aee2e025e51e1392c72a2500577559fae9665c6d52bd6a318054821660051790557fbfd358e93f18da3ed276c3afdbdba00b8f0b6008a03476a6a86bd6320ee6938b8054821660029081179091555f527f8819ef417987f8ae7a81f42cdfb18815282fe989326fbff903d13cf0e03ace298054909116905542600c55600f54680100000000000000008110156103b8576001810180600f558110156103a457610bb890600f5f5260205f200155600f54680100000000000000008110156103b8576001810180600f558110156103a4576107d090600f5f5260205f200155600f54680100000000000000008110156103b8576001810180600f558110156103a4576105dc90600f5f5260205f200155600f54680100000000000000008110156103b8576001810180600f558110156103a4576103e890600f5f5260205f200155600f54680100000000000000008110156103b8576001810180600f558110156103a457600f5f526102bc7f8d1108e10bcb7c27dddfc02ed9d693a074039d026cf4ea4240b40f7d581ac802909101556005600e556040516147e190816103f8823960805181818161065701528181610d00015281816111110152818161119d01528181613ca901528181613fa901528181614348015281816143ba0152818161444b015281816146ab015261471d015260a0518181816103ae015281816104d50152818161196f01528181611a71015281816137680152613de70152f35b634e487b7160e01b5f52603260045260245ffd5b634e487b7160e01b5f52604160045260245ffd5b631e4fbdf760e01b5f525f60045260245ffd5b5f80fd5b51906001600160a01b03821682036103df5756fe6080806040526004361015610012575f80fd5b5f3560e01c908163072ea61c146127875750806307653afd146125a55780630a02396b146125705780630dca4bc11461085757806312e8e2c3146125375780631833c0af14612397578063188107b714612247578063194a4e7e1461222a57806320286cc31461221057806322dcd13e146121f3578063255d2fad14611f6a5780632f3d22bb14611f4f578063302c80e114611f3257806331a6ff6614611f1557806333e4b2df14611edd578063371ca3c514611ec05780633837ad4814611ea55780633998a68114611e895780633aaea2e714611e6c5780633c38b21d14611e3457806342d4aa6014611db05780634c4c447e14611cec57806360246c8814611c90578063606d2e9614611b775780636abe4b1a14611b565780636dd0ce7a14611b14578063715018a614611abd578063719ce73e14611aa05780637b008d3b14611a5c5780637b154140146118a65780637c01800d146118265780637fd6f7c4146117e257806384f86a66146117c1578063851ea6b9146116045780638a29719f1461154e5780638b90fbc0146115335780638da5cb5b1461150c57806394d44f121461114057806396a92858146110fc578063a94e5a69146110c5578063a98204f814610ca3578063b94f5e4914610c5f578063bafa094614610c42578063bcb3962114610c25578063c0fac83814610c0a578063cf2012af14610a03578063d21b4c521461090a578063d794e1a6146108d5578063db2c0fd1146108a1578063e178e21514610857578063e26807091461083c578063e44dba4f146105cd578063e76c5908146105b0578063e7a2df6114610476578063eb770d0c14610423578063ec3889b51461034d578063f2fde38b146102c85763fe54009d1461029a575f80fd5b346102c45760203660031901126102c4576004355f526012602052602060405f2054604051908152f35b5f80fd5b346102c45760203660031901126102c4576102e16127c7565b6102e96137d4565b6001600160a01b0316801561033a575f80546001600160a01b03198116831782556001600160a01b0316907f8be0079c531659141344cd1fd0a4f28419497f9722a3daafe3b4186f6b6457e09080a3005b631e4fbdf760e01b5f525f60045260245ffd5b346102c45760203660031901126102c4576103a9602061036b6127c7565b6103736137d4565b600a80545f90915560405163a9059cbb60e01b81526001600160a01b039092166004830152602482015291829081906044820190565b03815f7f00000000000000000000000000000000000000000000000000000000000000006001600160a01b03165af18015610418576103e457005b6020813d602011610410575b816103fd60209383612a30565b810103126102c45761040e90612c59565b005b3d91506103f0565b6040513d5f823e3d90fd5b346102c45760203660031901126102c45760043561043f6137d4565b7f6a75d918a59da9597a749b7c707f23cfa76552074b43c68a24a21db1c45841f160406007548151908152836020820152a1600755005b346102c45760203660031901126102c45761048f6127c7565b6104976137d4565b6009549081156105a1575f60095560405163a9059cbb60e01b81526001600160a01b038216600482015260248101839052602081806044810103815f7f00000000000000000000000000000000000000000000000000000000000000006001600160a01b03165af1801561041857610543575b506040519182526001600160a01b0316907f5fafa99d0643513820be26656b45130b01e1c03062e1266bf36f88cbd3bd969590602090a2005b6020813d602011610599575b8161055c60209383612a30565b810103126102c4577f5fafa99d0643513820be26656b45130b01e1c03062e1266bf36f88cbd3bd969591610591602092612c59565b50915061050a565b3d915061054f565b630686827b60e51b5f5260045ffd5b346102c4575f3660031901126102c4576020600d54604051908152f35b346102c4576105db3661285c565b906105e4613695565b805f52600260205260405f206005810160ff815460501c166004811015610828576108195760018201546001600160a01b0316331461080a57335f52600560205260405f20546107fb576106388433613c93565b61064133613db6565b604051636a24447f60e11b8152600481018590527f00000000000000000000000000000000000000000000000000000000000000006001600160a01b03169261010082602481875afa918215610418575f926107d5575b506002810180546001600160a01b03191633179055600481018690556040820151835463ffff0000191663ffff000060109290921b919091161783556101009060039084546aff0000000000ff0000000019166a01000000000001000000001785550154604051636a24447f60e11b8152600481019190915293849060249082905afa801561041857606061ffff818193610759975f916107a6575b5001511692015116111560ff60381b825491151560381b169060ff60381b1916179055565b335f5260056020528060405f20556040519182527fa47b02d2d7d744d434c03db59a4362b0fc7a74d04df715cc6200d66fd65df98960203393a360015f51602061478c5f395f51905f5255005b6107c891506101003d81116107ce575b6107c08183612a30565b810190613553565b8a610734565b503d6107b6565b6101009192506107f3600391833d81116107ce576107c08183612a30565b929150610698565b631844f0a560e11b5f5260045ffd5b632f50dd8760e01b5f5260045ffd5b637100718960e01b5f5260045ffd5b634e487b7160e01b5f52602160045260245ffd5b346102c4575f3660031901126102c457602060405160968152f35b346102c45760403660031901126102c4576108706127b1565b6004355f52601460205260405f209060018060a01b03165f52602052602063ffffffff60405f205416604051908152f35b346102c4576108af3661285c565b905f52601360205260405f20905f52602052602060ff60405f2054166040519015158152f35b346102c45760403660031901126102c45760243580151581036102c45761090060209160043561363a565b6040519015158152f35b346102c45760203660031901126102c4576109236127c7565b5f60c060405161093281612a14565b8281528260208201528260408201528260608201528260808201528260a0820152015260018060a01b03165f52600460205260e060405f2060405161097681612a14565b63ffffffff82548181818581808416988983528160208401818760201c16815260c060016040870194848a60401c1686528460a060608a0199828d60601c168b5282608082019d60801c168d52019c60a01c168c5201549b019a8b526040519b8c52511660208b0152511660408901525116606087015251166080850152511660a08301525160c0820152f35b346102c45760403660031901126102c45760043567ffffffffffffffff81116102c457610a349036906004016127dd565b60243591610a406137d4565b818310610bc5575f805b838210610ba55761271091501015610b3a57600f545f600f5580610ada575b505f5b828110610a7d575050600e55601055005b610a888184846129bd565b3590600f5491600160401b831015610ac657610aab836001809501600f5561281b565b819291549060031b91821b915f19901b191617905501610a6c565b634e487b7160e01b5f52604160045260245ffd5b600f5f527f8d1108e10bcb7c27dddfc02ed9d693a074039d026cf4ea4240b40f7d581ac802017f8d1108e10bcb7c27dddfc02ed9d693a074039d026cf4ea4240b40f7d581ac8025b818110610b2f5750610a69565b5f8155600101610b22565b60405162461bcd60e51b815260206004820152603960248201527f546f70207469657220736861726573206d757374206c656176652072656d616960448201527f6e64657220666f7220657175616c2d73686172652074696572000000000000006064820152608490fd5b610bbd600191610bb68487876129bd565b35906129b0565b910190610a4a565b60405162461bcd60e51b815260206004820152601f60248201527f546f74616c206d757374206265203e3d20746f70207469657220636f756e74006044820152606490fd5b346102c4575f3660031901126102c457602060405160038152f35b346102c4575f3660031901126102c4576020600b54604051908152f35b346102c4575f3660031901126102c4576020600c54604051908152f35b346102c45760403660031901126102c457610c786127a1565b60243560ff81168091036102c45760ff602092165f526006825260ff60405f20541614604051908152f35b346102c45760203660031901126102c457610cbc613695565b610cc860043533613c93565b335f52600560205260405f20546107fb57610ce233613db6565b604051636a24447f60e11b81526004803590820152610100816024817f00000000000000000000000000000000000000000000000000000000000000006001600160a01b03165afa908115610418575f916110a6575b50610d446001546129cd565b8060015560b46040516020810190428252836040820152600435606082015260608152610d72608082612a30565b5190200660500191826050116110925761ffff6040819201511660010b9260405193610d9d856129f7565b83855233602086015230604086015260043560608601525f608086015260a08501521660010b60c0830152600160e08301525f6101008301525f61012083015260016101408301525f6101608301525f61018083015260016101a083015260016101c08301525f6101e0830152426102008301525f610220830152805f52600260205260405f208251815560018060a01b03602084015116600182019060018060a01b03166001600160601b0360a01b82541617905560018060a01b03604084015116600282019060018060a01b03166001600160601b0360a01b825416179055606083015160038201556080830151600482015560a083015160010b61ffff196005830154169061ffff16176005820155610ed860c084015160010b600583019081549060101b63ffff0000169063ffff00001916179055565b610f0360ff60e085015116600583019064ff0000000082549160201b169064ff000000001916179055565b610f2d60ff61010085015116600583019060ff60281b82549160281b169060ff60281b1916179055565b610f5760ff61012085015116600583019060ff60301b82549160301b169060ff60301b1916179055565b61014083015160058201805461016086015161018087015162ffffff60381b1990921660ff60381b94151560381b949094169390931760409390931b60ff60401b169290921760489290921b60ff60481b169190911790556101a0830151600481101561082857610fcb906005830161298c565b6101c0830151926002841015610828576005820180546101e08301516affffffffffffffffffffff90911660589690961b60ff60581b169590951760609590951b6001600160601b031916949094179093556020926007906102209061020081015160068501550151910155335f52600582528060405f20556040516004358152600183820152817f04eb289f4f987f7cfc6dabfb6ccea9a32bd7d39f2e413d0b4d59bcce2a332aba60403393a360015f51602061478c5f395f51905f5255604051908152f35b634e487b7160e01b5f52601160045260245ffd5b6110bf91506101003d81116107ce576107c08183612a30565b81610d38565b346102c4576110d33661285c565b905f52601160205260405f20905f52602052602060018060a01b0360405f205416604051908152f35b346102c4575f3660031901126102c4576040517f00000000000000000000000000000000000000000000000000000000000000006001600160a01b03168152602090f35b346102c45760203660031901126102c457611159613695565b61116560043533613c93565b335f52600560205260405f20546107fb5761117f33613db6565b604051636a24447f60e11b81526004803590820152610100816024817f00000000000000000000000000000000000000000000000000000000000000006001600160a01b03165afa908115610418575f916114ed575b5061ffff60406111e66001546129cd565b928360015501511660010b90604051916111ff836129f7565b8183523360208401525f604084015260043560608401525f608084015260a08301525f60c08301525f60e08301525f6101008301525f61012083015260016101408301525f6101608301525f6101808301525f6101a08301525f6101c08301525f6101e0830152426102008301525f610220830152805f52600260205260405f208251815560018060a01b03602084015116600182019060018060a01b03166001600160601b0360a01b82541617905560018060a01b03604084015116600282019060018060a01b03166001600160601b0360a01b825416179055606083015160038201556080830151600482015560a083015160010b61ffff196005830154169061ffff1617600582015561133460c084015160010b600583019081549060101b63ffff0000169063ffff00001916179055565b61135f60ff60e085015116600583019064ff0000000082549160201b169064ff000000001916179055565b61138960ff61010085015116600583019060ff60281b82549160281b169060ff60281b1916179055565b6113b360ff61012085015116600583019060ff60301b82549160301b169060ff60301b1916179055565b61014083015160058201805461016086015161018087015162ffffff60381b1990921660ff60381b94151560381b949094169390931760409390931b60ff60401b169290921760489290921b60ff60481b169190911790556101a0830151600481101561082857611427906005830161298c565b6101c0830151926002841015610828576005820180546101e08301516affffffffffffffffffffff90911660589690961b60ff60581b169590951760609590951b6001600160601b031916949094179093556020926007906102209061020081015160068501550151910155335f52600582528060405f205560405160043581525f83820152817f04eb289f4f987f7cfc6dabfb6ccea9a32bd7d39f2e413d0b4d59bcce2a332aba60403393a360015f51602061478c5f395f51905f5255604051908152f35b61150691506101003d81116107ce576107c08183612a30565b816111d5565b346102c4575f3660031901126102c4575f546040516001600160a01b039091168152602090f35b346102c4575f3660031901126102c4576020604051601e8152f35b346102c4575f3660031901126102c457604051806020600f5492838152018092600f5f527f8d1108e10bcb7c27dddfc02ed9d693a074039d026cf4ea4240b40f7d581ac802905f5b8181106115ee57505050816115ac910382612a30565b604051918291602083019060208452518091526040830191905f5b8181106115d5575050500390f35b82518452859450602093840193909201916001016115c7565b8254845260209093019260019283019201611596565b346102c4576116123661285c565b5f9160018054905b81811115806117b8575b1561167157805f52600260205260ff600560405f20015460501c166004811015610828571561165c575b611657906129cd565b61161a565b93611669611657916129cd565b94905061164e565b508361167c81612a52565b6116896040519182612a30565b818152601f1961169883612a52565b015f5b8181106117a15750505f905f9260015b8581111580611798575b1561174757805f52600260205260ff600560405f20015460501c16600481101561082857156116ed575b6116e8906129cd565b6116ab565b86851061173457806116e8915f52600260205261172b60405f209561171a611714826129cd565b97612b55565b6117248288613522565b5285613522565b505b90506116df565b936117416116e8916129cd565b9461172d565b826040518091602082016020835281518091526020604084019201905f5b818110611773575050500390f35b9193509160206102408261178a600194885161288c565b019401910191849392611765565b508184106116b5565b6020906117ac612ad3565b8282860101520161169b565b50838510611624565b346102c45760203660031901126102c4576117da6137d4565b600435600d55005b346102c45760403660031901126102c45760243560038110156102c4576118139061180b613695565b600435612d92565b60015f51602061478c5f395f51905f5255005b346102c45760203660031901126102c4576001600160a01b036118476127c7565b165f52600460205260e060405f206001815491015463ffffffff604051928181168452818160201c166020850152818160401c166040850152818160601c166060850152818160801c16608085015260a01c1660a083015260c0820152f35b346102c4576118b43661285c565b906118bd613695565b600b54811015611a4d57601054821015611a3e57805f52601160205260405f20825f5260205260018060a01b0360405f2054163303611a2f57805f52601360205260405f20825f5260205260ff60405f205416611a2057805f52601260205261192a8260405f205461398d565b5f8281526013602090815260408083208684528252808320805460ff191660011790555163a9059cbb60e01b81523360048201526024810184905291829060449082907f00000000000000000000000000000000000000000000000000000000000000006001600160a01b03165af18015610418576119e9575b5060405192835260208301527f608c8c3c6a3d40f40b96fbee44f9b9aee57a39c2fcb8bb0f59d8892b2d5492a260403393a360015f51602061478c5f395f51905f5255005b6020813d602011611a18575b81611a0260209383612a30565b810103126102c457611a1390612c59565b6119a4565b3d91506119f5565b630c8d9eab60e31b5f5260045ffd5b636ee783d160e11b5f5260045ffd5b6302ba562960e61b5f5260045ffd5b637221b37b60e01b5f5260045ffd5b346102c4575f3660031901126102c4576040517f00000000000000000000000000000000000000000000000000000000000000006001600160a01b03168152602090f35b346102c4575f3660031901126102c4576020600954604051908152f35b346102c4575f3660031901126102c457611ad56137d4565b5f80546001600160a01b0319811682556001600160a01b03167f8be0079c531659141344cd1fd0a4f28419497f9722a3daafe3b4186f6b6457e08280a3005b346102c45760203660031901126102c457611b2d612ad3565b506004355f526002602052610240611b4760405f20612b55565b611b54604051809261288c565bf35b346102c4576020611b6f611b693661285c565b90612aad565b604051908152f35b346102c45760203660031901126102c4576004355f52600260205261024060405f2080549060018060a01b036001820154169060018060a01b036002820154166003820154600483015490600584015492600760068601549501549560405197885260208801526040870152606086015260808501528060010b60a08501528060101c60010b60c085015260ff8160201c1660e085015260ff8160281c1661010085015260ff8160301c1661012085015260ff8160381c16151561014085015260ff8160401c1661016085015260ff8160481c16610180850152611c656101a0850160ff8360501c16612872565b611c796101c0850160ff8360581c1661287f565b60601c6101e0840152610200830152610220820152f35b346102c4575f3660031901126102c45760e0600954600b54611cb7600c54600d54906129b0565b60155460075490600e549260105494604051968752602087015260408601526060850152608084015260a083015260c0820152f35b346102c45760203660031901126102c457600435611d08613695565b5f81815260026020526040902060018101546001600160a01b03163303611da15760050160ff815460501c1660048110156108285761081957805460ff60501b1916600360501b179055335f81815260056020526040812055611d6a906136eb565b7fe10fd8c156678d18df7daf6dd3e15b95c6d350ee99272630fcad6dde9bef0d0c5f80a260015f51602061478c5f395f51905f5255005b634b400be560e11b5f5260045ffd5b346102c457611dbe3661285c565b905f52600360205260405f2080548210156102c45760c091611ddf91612847565b50546040519060ff8116825260018060a01b038160081c166020830152611e0f6040830160ff8360a81c1661280e565b61ffff8160b01c16606083015280831c60010b608083015260d01c60010b60a0820152f35b346102c45760203660031901126102c457600435600f548110156102c457611e5d60209161281b565b90549060031b1c604051908152f35b346102c4575f3660031901126102c4576020601054604051908152f35b346102c4575f3660031901126102c45760206040516107d08152f35b346102c4575f3660031901126102c457602060405160058152f35b346102c4575f3660031901126102c4576020600e54604051908152f35b346102c45760203660031901126102c4576001600160a01b03611efe6127c7565b165f526005602052602060405f2054604051908152f35b346102c4575f3660031901126102c4576020600154604051908152f35b346102c4575f3660031901126102c4576020601554604051908152f35b346102c4575f3660031901126102c457602060405160b48152f35b346102c45760203660031901126102c457600435611f86613695565b805f52600260205260405f20906001820160018060a01b03815416331490600284019160018060a01b038354163314811590816121ea575b50611da157600585019460ff865460501c166004811015610828576001036121db57855460ff60501b1916600160511b1786554260079190910155156121935760ff845460581c166002811015610828571580612180575b1561217757815461204b906001600160a01b03165b85546001600160601b031660609190911b6001600160601b031916178555565b805461205f906001600160a01b0316613811565b60ff845460581c166002811015610828571580612163575b80612150575b612137575b546001600160a01b039081165f90815260056020526040812055905416308103612124575b506120b36015546129cd565b6015557f6ece8c7a0814e499368677abb88c44f55f86f4bdb83665cb2bbee15321ae78d860206040519333847fb553d7de984c6037119480bd7720e3fb2f3802a5f89a3645a81d30526ceabfd35f80a35460ff81831c16855260601c93a360015f51602061478c5f395f51905f5255005b5f5260056020525f6040812055826120a7565b815461214b906001600160a01b0316613895565b612082565b5081546001600160a01b0316151561207d565b5081546001600160a01b0316301415612077565b61204b5f61202b565b5081546001600160a01b03161515612016565b805484546001600160601b031660609190911b6001600160601b03191617845581546121c7906001600160a01b0316613811565b805461214b906001600160a01b0316613895565b63792c967960e11b5f5260045ffd5b90501586611fbe565b346102c4575f3660031901126102c4576020600854604051908152f35b346102c4575f3660031901126102c4576020611b6f612a83565b346102c4575f3660031901126102c4576020600a54604051908152f35b346102c45760203660031901126102c4576004355f52600360205260405f2080549061227282612a52565b916122806040519384612a30565b8083526020830180925f5260205f205f915b83831061232b578486604051918291602083019060208452518091526040830191905f5b8181106122c4575050500390f35b91935091602060c060019260a0875160ff81511683528580831b038582015116858401526122fa6040820151604085019061280e565b61ffff60608201511660608401526080810151860b60808401520151840b60a08201520194019101918493926122b6565b60016020819260405161233d816129db565b855460ff81168252848060a01b038160081c168483015261236760ff8260a81c1660408401612a6a565b61ffff8160b01c1660608301528060c01c850b608083015260d01c840b60a0820152815201920192019190612292565b346102c45760203660031901126102c45760043567ffffffffffffffff81116102c4576123c89036906004016127dd565b6123d06137d4565b6123df600c54600d54906129b0565b42106125285760105481116124f057600b5491600954915f5b81811061249b5750835f5260126020528260405f20555f60095561241d600b546129cd565b600b5542600c5580604051936040850190855260406020860152526060830191905f905b80821061247157857f60adcb75ee5c9fd534a467f9f54a34f58a8532f615c0deadb38f85eb32e814d086860387a2005b90919283359060018060a01b0382168092036102c457602081600193829352019401920190612441565b6124a68183856129bd565b35906001600160a01b03821682036102c457600191865f52601160205260405f20825f5260205260405f2090838060a01b03166001600160601b0360a01b825416179055016123f8565b60405162461bcd60e51b815260206004820152601060248201526f546f6f206d616e7920706c617965727360801b6044820152606490fd5b63141189cf60e31b5f5260045ffd5b346102c45760203660031901126102c4576004356125536137d4565b6107d0811161256157600855005b6358d620b360e01b5f5260045ffd5b346102c45760203660031901126102c45760ff61258b6127a1565b165f526006602052602060ff60405f205416604051908152f35b346102c45760203660031901126102c4576004356125c1613695565b805f52600260205260405f20600181019060018060a01b03825416331490600281019160018060a01b0383541633149015908161277e575b50611da15760058101805460ff8160501c166004811015610828576001036121db5760ff60029160201c161161276f57805460ff60501b1916600360501b1781554260079092019190915582546001600160a01b039081165f90815260056020526040812055825460ff92911630810361275c575b505460581c166002811015610828576001036126f5575054612698906001600160a01b03166136eb565b33817fa4262d2b40a2cee3044e9392c8668b69a5d135ea0ad29d0ad69caf59f0b95f595f80a37fe10fd8c156678d18df7daf6dd3e15b95c6d350ee99272630fcad6dde9bef0d0c5f80a260015f51602061478c5f395f51905f5255005b80546001600160a01b03168015159081612751575b501561273d5790546127389190612729906001600160a01b03166136eb565b546001600160a01b03166136eb565b612698565b5054612738906001600160a01b03166136eb565b90503014158461270a565b5f5260056020525f60408120558561266e565b638acece1160e01b5f5260045ffd5b905015856125f9565b346102c4575f3660031901126102c4576020906007548152f35b6004359060ff821682036102c457565b602435906001600160a01b03821682036102c457565b600435906001600160a01b03821682036102c457565b9181601f840112156102c45782359167ffffffffffffffff83116102c4576020808501948460051b0101116102c457565b9060038210156108285752565b600f5481101561283357600f5f5260205f2001905f90565b634e487b7160e01b5f52603260045260245ffd5b8054821015612833575f5260205f2001905f90565b60409060031901126102c4576004359060243590565b9060048210156108285752565b9060028210156108285752565b61022080918051845260018060a01b03602082015116602085015260018060a01b036040820151166040850152606081015160608501526080810151608085015260a081015160010b60a085015260c081015160010b60c085015260ff60e08201511660e085015260ff6101008201511661010085015260ff61012082015116610120850152610140810151151561014085015260ff6101608201511661016085015260ff610180820151166101808501526129526101a08201516101a0860190612872565b6129666101c08201516101c086019061287f565b6101e0818101516001600160a01b03169085015261020080820151908501520151910152565b90600481101561082857815460ff60501b191660509190911b60ff60501b16179055565b9190820180921161109257565b91908110156128335760051b0190565b5f1981146110925760010190565b60c0810190811067ffffffffffffffff821117610ac657604052565b610240810190811067ffffffffffffffff821117610ac657604052565b60e0810190811067ffffffffffffffff821117610ac657604052565b90601f8019910116810190811067ffffffffffffffff821117610ac657604052565b67ffffffffffffffff8111610ac65760051b60200190565b60038210156108285752565b9190820391821161109257565b612a92600c54600d54906129b0565b80421015612aa857612aa5904290612a76565b90565b505f90565b90601054811015612acd57612aa5915f52601260205260405f205461398d565b50505f90565b60405190612ae0826129f7565b5f610220838281528260208201528260408201528260608201528260808201528260a08201528260c08201528260e08201528261010082015282610120820152826101408201528261016082015282610180820152826101a0820152826101c0820152826101e0820152826102008201520152565b90604051612b62816129f7565b80928054825260018060a01b03600182015416602083015260018060a01b03600282015416604083015260038101546060830152600481015460808301526005810154908160010b60a08401528160101c60010b60c084015260ff8260201c1660e084015260ff8260281c1661010084015260ff8260301c1661012084015260ff8260381c16151561014084015260ff8260401c1661016084015260ff8260481c1661018084015260ff8260501c166004811015610828576101a084015260ff8260581c1690600282101561082857610220926007926101c086015260601c6101e085015260068101546102008501520154910152565b519081151582036102c457565b8054600160401b811015610ac657612c8391600182018155612847565b919091612d4757805182546020830151610100600160a81b0360089190911b1660ff9092166001600160a81b03198216811783178555604084015192939291906003831015610828576060840151608085015160a09095015160d01b61ffff60d01b1660c09590951b61ffff60c01b1661ffff60b01b60b09290921b9190911660ff60a81b60a89590951b949094166001600160c01b03199390931661ffff60b01b1992909216919091179490941763ffffffff60c01b1916171791909117179055565b634e487b7160e01b5f525f60045260245ffd5b916040919493612d7b61ffff9260ff6060870198168652602086019061280e565b16910152565b60ff1660ff81146110925760010190565b805f52600260205260405f2090600582019283549060ff8260501c16600481101561082857600181036121db576002146135135760018401546002850154336001600160a01b0392831681149492909116149083158061350b575b611da15760ff8160581c16600281101561082857156134c3575b50506003811015610828578061338757612e218285614428565b821561335e57612e5d612e4261ffff831660010b885460101c60010b613a2a565b879081549060101b63ffff0000169063ffff00001916179055565b835f526003602052612ebb60405f2087549060405191612e7c836129db565b60ff8160201c168352336020840152612e988660408501612a6a565b61ffff851660608401528060010b608084015260101c60010b60a0830152612c66565b855491847f4098e393a0e9d111279b0d880bb9ede47cc0304a549b3e044a2f8eace73a167f612efa60ff8660201c169460405191829133968884612d5a565b0390a35f8260010b139182159261334b575b50811561333f575b506133335783549060ff8260581c16600281101561082857600114908161332b575b50612fce575b505050805460ff8160581c16600281101561082857612fbb5750805467ff00000000000000198116603891821c60ff161590911b60ff60381b1617815580549060ff8260381c16612f8c575b5050565b612f9e60ff612fb99360201c16612d81565b64ff0000000082549160201b169064ff000000001916179055565b565b90612f9e60ff612fb99360201c16612d81565b82546040516020810191825260ff60f81b8360d81b1660408201524260418201526a30b4afb232b1b4b9b4b7b760a91b6061820152604c8152613012606c82612a30565b5190209060ff8160301c16918215928315613309575b50606490069060101c60010b6003810560010b13806132ff575b156132db57505060025b5f600382101561082857816131b6576130658185614428565b901561318d576130a161308661ffff831660010b875460101c60010b613a2a565b869081549060101b63ffff0000169063ffff00001916179055565b90825f52600360205261310060405f20865490604051916130c1836129db565b60ff8160201c1683523060208401526130dd8560408501612a6a565b61ffff861660608401528060010b608084015260101c60010b60a0830152612c66565b8454927f4098e393a0e9d111279b0d880bb9ede47cc0304a549b3e044a2f8eace73a167f61313e60ff8660201c169460405191829130968884612d5a565b0390a35f8260010b139182159261317a575b50811561316e575b50613164578080612f3c565b612fb99150613a45565b601e915010155f613158565b5f91925060101c60010b1315905f613150565b6131a261ffff821660010b865460010b613a2a565b61ffff198654169061ffff161785556130a1565b600182036132ac57801561329f5760ff855460281c165b60ff811615159081613281575b50613272576131e98185613f86565b901561322a5761320a61308661ffff831660010b875460101c60010b613a2a565b845465ff000000000019811660089190911b60ff60281b161785556130a1565b61323f61ffff821660010b865460010b613a2a565b855460ff60301b61ffff19821661ffff9390931692831760101b1666ff00000000ffff19909116919091171785556130a1565b631bfa8cdd60e21b8152600490fd5b6003915061329760ff9182895460201c16613626565b16105f6131da565b60ff855460301c166131cd565b50600281036132cc57835460ff60481b1916600160491b1784555f6130a1565b6321e08b4d60e21b5f5260045ffd5b816132f4575b50156132ee57600161304c565b5f61304c565b60289150105f6132e1565b50601e8110613042565b606491935060ff613321600392828660201c16613626565b1610159290613028565b90505f612f36565b5050612fb99150613a45565b601e915010155f612f14565b5f91925060101c60010b1315905f612f0c565b61337361ffff821660010b875460010b613a2a565b61ffff198754169061ffff16178655612e5d565b6001810361347d5781156134705760ff855460281c165b60ff811615159081613452575b50613443576133ba8285613f86565b82156133fb576133db612e4261ffff831660010b885460101c60010b613a2a565b855465ff000000000019811660089190911b60ff60281b16178655612e5d565b61341061ffff821660010b875460010b613a2a565b865460ff60301b61ffff19821661ffff9390931692831760101b1666ff00000000ffff1990911691909117178655612e5d565b631bfa8cdd60e21b5f5260045ffd5b6003915061346860ff9182895460201c16613626565b16105f6133ab565b60ff855460301c1661339e565b600281036132cc5781156134ad57845468ff00000000000000001916680200000000000000001785555b5f612e5d565b845460ff60481b1916600160491b1785556134a7565b83806134fd575b6134e057816134ef575b506134e0575f80612e07565b631cc191eb60e31b5f5260045ffd5b60ff915060381c165f6134d4565b5060ff8160381c16156134ca565b508115612ded565b6306e1839960e11b5f5260045ffd5b80518210156128335760209160051b010190565b519061ffff821682036102c457565b519060ff821682036102c457565b90816101009103126102c45760405190610100820182811067ffffffffffffffff821117610ac6576135f59160e09160405261358e81613536565b845261359c60208201613536565b60208501526135ad60408201613536565b60408501526135be60608201613536565b60608501526135cf60808201613545565b60808501526135e060a08201613545565b60a085015260c081015160c085015201612c59565b60e082015290565b9060968202918083046096149015171561109257565b8181029291811591840414171561109257565b9060ff8091169116039060ff821161109257565b5f52600260205261364d60405f20612b55565b90156136875760ff610100820151165b60ff8116156136805761367a60ff918260e0600395015116613626565b16101590565b5050600190565b60ff6101208201511661365d565b60025f51602061478c5f395f51905f5254146136be5760025f51602061478c5f395f51905f5255565b633ee5aeb560e01b5f5260045ffd5b81156136d7570490565b634e487b7160e01b5f52601260045260245ffd5b600754908115612f88576137639160209161372f61271061370e60085485613613565b0461372461371c8286612a76565b600954612a76565b600955600a54612a76565b600a5560405163a9059cbb60e01b81526001600160a01b039091166004820152602481019190915291829081906044820190565b03815f7f00000000000000000000000000000000000000000000000000000000000000006001600160a01b03165af180156104185761379f5750565b6020813d6020116137cc575b816137b860209383612a30565b810103126102c4576137c990612c59565b50565b3d91506137ab565b5f546001600160a01b031633036137e757565b63118cdaa760e01b5f523360045260245ffd5b63ffffffff1663ffffffff81146110925760010190565b60018060a01b03165f52600460205260405f2061388561386563ffffffff835467ffffffff00000000613848838360201c166137fa565b60201b169067ffffffff0000000019161780855560601c166137fa565b825463ffffffff60601b191660609190911b63ffffffff60601b16178255565b805463ffffffff60801b19169055565b60018060a01b0381165f52600460205260405f2063ffffffff6138ba818354166137fa565b1663ffffffff198254161781556138dd61386563ffffffff835460601c166137fa565b6138f063ffffffff825460801c166137fa565b815463ffffffff60801b1916608091821b63ffffffff60801b16178083559060a082901c63ffffffff9081169183901c1611613969575b5050600b545f52601460205260405f209060018060a01b03165f5260205260405f2063ffffffff61395a818354166137fa565b1663ffffffff19825416179055565b63ffffffff60a01b19811660209190911b63ffffffff60a01b161790555f80613927565b90600f548082105f146139bc5750612710916139ab6139b89261281b565b90549060031b1c90613613565b0490565b5f9150815b818110613a0657506139d590601054612a76565b9081156139ff57612710036127108111611092576139f961271091612aa594613613565b046136cd565b5050505f90565b91613a23600191613a168561281b565b90549060031b1c906129b0565b92016139c1565b600191820b910b0390617fff198212617fff83131761109257565b60058101805460ff60501b1916600160511b17808255426007840155909190600181900b905f82131580613c83575b15613b9c5750506001600160601b03825416825560018060a01b036001820154165f526004602052613ad560405f20613ab663ffffffff825460401c166137fa565b63ffffffff60401b82549160401b169063ffffffff60401b1916179055565b60028101546001600160a01b0316308103613b75575b505b60018101546001600160a01b039081165f90815260056020526040812055600282015416308103613b62575b50613b256015546129cd565b601555549054907f6ece8c7a0814e499368677abb88c44f55f86f4bdb83665cb2bbee15321ae78d860206040519360ff81831c16855260601c93a3565b5f5260056020525f60408120555f613b19565b5f526004602052613b9660405f20613ab663ffffffff825460401c166137fa565b5f613aeb565b60101c60010b5f811391821592613c79575b505015613c175760018101805483546001600160601b031660609190911b6001600160601b031916178355613bec90546001600160a01b0316613895565b60028101546001600160a01b0316308103613c08575b50613aed565b613c1190613811565b5f613c02565b60028101805483546001600160601b031660609190911b6001600160601b031916178355546001600160a01b0316308103613c6a575b506001810154613c65906001600160a01b0316613811565b613aed565b613c7390613895565b5f613c4d565b1390505f80613bae565b505f8160101c60010b1315613a74565b6040516331a9108f60e11b8152600481018390527f00000000000000000000000000000000000000000000000000000000000000006001600160a01b03169291602082602481875afa918215610418575f92613d72575b506001600160a01b03908116911603613d635761010090602460405180948193636a24447f60e11b835260048301525afa80156104185760e0915f91613d44575b50015115613d3557565b630cc71c2960e11b5f5260045ffd5b613d5d91506101003d81116107ce576107c08183612a30565b5f613d2b565b638f0f029b60e01b5f5260045ffd5b9091506020813d602011613dae575b81613d8e60209383612a30565b810103126102c457516001600160a01b03811681036102c457905f613cea565b3d9150613d81565b6007548015612f8857604051636eb1769f60e11b81526001600160a01b0392831660048201819052306024830152927f0000000000000000000000000000000000000000000000000000000000000000169190602081604481865afa80156104185782915f91613f42575b5010613f33575f6020612710613e3960085485613613565b04936064613e478686612a76565b9460405194859384926323b872dd60e01b84528a600485015230602485015260448401525af1801561041857613ed3575b50807f0662b8686f5a56f0acf339ed89dc0000ec2e51d0960e10ef41643917b660809092613eaa6060936009546129b0565b600955613eb981600a546129b0565b600a556007549160405192835260208301526040820152a2565b906020823d602011613f2b575b81613eed60209383612a30565b810103126102c4577f0662b8686f5a56f0acf339ed89dc0000ec2e51d0960e10ef41643917b660809092613f22606093612c59565b50925090613e78565b3d9150613ee0565b6313be252b60e01b5f5260045ffd5b9150506020813d602011613f6f575b81613f5e60209383612a30565b810103126102c4578190515f613e21565b3d9150613f51565b60ff168015611092575f190190565b9080156142ae576003820154604051636a24447f60e11b815260048101919091527f00000000000000000000000000000000000000000000000000000000000000006001600160a01b0316919061010081602481865afa908115610418575f9161428f575b5060ff608061ffff835116920151169260058501549060ff8260581c166002811015610828576001036142255750845490604051906020820192835260ff60f81b9060d81b166040820152623232b360e91b604182015260248152614051604482612a30565b51902060328106601e0180601e116110925760ff600661ffff809316930616925b16906064820291808304606414901517156110925761ffff16606401806064116110925761409f916136cd565b60b481029080820460b4149015171561109257606460ff910493165f52600660205260ff8060405f205416911614614212575b80806141ff575b1561419357600560159260011c936141168282016140fd60ff825460481c16613f77565b60ff60481b82549160481b169060ff60481b1916179055565b01549060405190602082019242845260ff60f81b9060d81b166040830152151560f81b60418201526022815261414d604282612a30565b51902006605a019081605a116110925760649161416991613613565b046005811061418b575b61ffff811115614184575061ffff90565b61ffff1690565b506005614173565b8015806141ec575b6141ab575b600560159293614116565b600560159260011c936141e38282016141ca60ff825460401c16613f77565b60ff60401b82549160401b169060ff60401b1916179055565b939250506141a0565b5060ff600584015460401c16151561419b565b5060ff600584015460481c1615156140d9565b9061421e6064916135fd565b04906140d2565b90506101006004860154602460405180948193636a24447f60e11b835260048301525afa908115610418575f91614270575b5061ffff60ff6080826020850151169301511692614072565b61428991506101003d81116107ce576107c08183612a30565b5f614257565b6142a891506101003d81116107ce576107c08183612a30565b5f613feb565b600582015460ff8160581c1660028110156108285760010361439857825490604051906020820192835260ff60f81b9060d81b16604082015264616961746b60d81b604182015260268152614304604682612a30565b5190209060378206601e0180601e1161109257600661ffff60ff9216930616915b6003840154604051636a24447f60e11b81526004810191909152610100816024817f00000000000000000000000000000000000000000000000000000000000000006001600160a01b03165afa908115610418575f91614270575061ffff60ff6080826020850151169301511692614072565b50600482810154604051636a24447f60e11b81529182015290610100826024817f00000000000000000000000000000000000000000000000000000000000000006001600160a01b03165afa918215610418575f92614407575b5060ff608061ffff8451169301511691614325565b6144219192506101003d81116107ce576107c08183612a30565b905f6143f2565b908015614611576003820154604051636a24447f60e11b815260048101919091527f00000000000000000000000000000000000000000000000000000000000000006001600160a01b0316919061010081602481865afa908115610418575f916145f2575b5060ff608061ffff835116920151169260058501549060ff8260581c166002811015610828576001036145885750845490604051906020820192835260ff60f81b9060d81b166040820152623232b360e91b6041820152602481526144f3604482612a30565b51902060328106601e0180601e116110925760ff600661ffff809316930616925b16906064820291808304606414901517156110925761ffff1660640190816064116110925760ff91614545916136cd565b93165f52600660205260ff8060405f2054169116146142125780806141ff571561419357600560159260011c936141168282016140fd60ff825460481c16613f77565b90506101006004860154602460405180948193636a24447f60e11b835260048301525afa908115610418575f916145d3575b5061ffff60ff6080826020850151169301511692614514565b6145ec91506101003d81116107ce576107c08183612a30565b5f6145ba565b61460b91506101003d81116107ce576107c08183612a30565b5f61448d565b600582015460ff8160581c166002811015610828576001036146fb57825490604051906020820192835260ff60f81b9060d81b16604082015264616961746b60d81b604182015260268152614667604682612a30565b5190209060378206601e0180601e1161109257600661ffff60ff9216930616915b6003840154604051636a24447f60e11b81526004810191909152610100816024817f00000000000000000000000000000000000000000000000000000000000000006001600160a01b03165afa908115610418575f916145d3575061ffff60ff6080826020850151169301511692614514565b50600482810154604051636a24447f60e11b81529182015290610100826024817f00000000000000000000000000000000000000000000000000000000000000006001600160a01b03165afa918215610418575f9261476a575b5060ff608061ffff8451169301511691614688565b6147849192506101003d81116107ce576107c08183612a30565b905f61475556fe9b779b17422d0df92223018b32b4d1fa46e071723d6817e2486d003becc55f00a2646970667358221220071cb737ab96a4a488302a01a1fcc8153a9e26ad99b3c10307e28e4ada4c671864736f6c634300081c0033","opcodes":"PUSH1 0xC0 CALLVALUE PUSH2 0x3DF JUMPI PUSH1 0x1F PUSH2 0x4BD9 CODESIZE DUP2 SWAP1 SUB SWAP2 DUP3 ADD PUSH1 0x1F NOT AND DUP4 ADD SWAP2 PUSH1 0x1 PUSH1 0x1 PUSH1 0x40 SHL SUB DUP4 GT DUP5 DUP5 LT OR PUSH2 0x3B8 JUMPI DUP1 DUP5 SWAP3 PUSH1 0x40 SWAP5 DUP6 MSTORE DUP4 CODECOPY DUP2 ADD SUB SLT PUSH2 0x3DF JUMPI PUSH2 0x52 PUSH1 0x20 PUSH2 0x4B DUP4 PUSH2 0x3E3 JUMP JUMPDEST SWAP3 ADD PUSH2 0x3E3 JUMP JUMPDEST SWAP1 CALLER ISZERO PUSH2 0x3CC JUMPI PUSH0 DUP1 SLOAD CALLER PUSH1 0x1 PUSH1 0x1 PUSH1 0xA0 SHL SUB NOT DUP3 AND DUP2 OR DUP4 SSTORE SWAP2 PUSH1 0x1 PUSH1 0x1 PUSH1 0xA0 SHL SUB SWAP1 SWAP2 AND SWAP1 PUSH32 0x8BE0079C531659141344CD1FD0A4F28419497F9722A3DAAFE3B4186F6B6457E0 SWAP1 DUP1 LOG3 PUSH1 0x1 PUSH32 0x9B779B17422D0DF92223018B32B4D1FA46E071723D6817E2486D003BECC55F00 DUP2 SWAP1 SSTORE PUSH3 0xF4240 PUSH1 0x7 SSTORE PUSH2 0x3E8 PUSH1 0x8 SSTORE PUSH1 0xB DUP2 SWAP1 SSTORE PUSH3 0x278D00 PUSH1 0xD SSTORE PUSH1 0x19 PUSH1 0x10 SSTORE PUSH1 0x1 PUSH1 0x1 PUSH1 0xA0 SHL SUB SWAP2 DUP3 AND PUSH1 0x80 MSTORE SWAP2 AND PUSH1 0xA0 MSTORE PUSH1 0x6 PUSH1 0x20 MSTORE PUSH32 0x54CDD369E4E8A8515E52CA72EC816C2101831AD1F18BF44102ED171459C9B4F8 DUP1 SLOAD PUSH1 0xFF NOT SWAP1 DUP2 AND PUSH1 0x3 OR SWAP1 SWAP2 SSTORE PUSH32 0x75F96AB15D697E93042DC45B5C896C4B27E89BB6EAF39475C5C371CB2513F7D2 DUP1 SLOAD DUP3 AND PUSH1 0x4 OR SWAP1 SSTORE PUSH32 0xC5069E24AAADB2ADDC3E52E868FCF3F4F8ACF5A87E24300992FD4540C2A87EED DUP1 SLOAD DUP3 AND SWAP1 SWAP3 OR SWAP1 SWAP2 SSTORE PUSH32 0x3E5FEC24AA4DC4E5AEE2E025E51E1392C72A2500577559FAE9665C6D52BD6A31 DUP1 SLOAD DUP3 AND PUSH1 0x5 OR SWAP1 SSTORE PUSH32 0xBFD358E93F18DA3ED276C3AFDBDBA00B8F0B6008A03476A6A86BD6320EE6938B DUP1 SLOAD DUP3 AND PUSH1 0x2 SWAP1 DUP2 OR SWAP1 SWAP2 SSTORE PUSH0 MSTORE PUSH32 0x8819EF417987F8AE7A81F42CDFB18815282FE989326FBFF903D13CF0E03ACE29 DUP1 SLOAD SWAP1 SWAP2 AND SWAP1 SSTORE TIMESTAMP PUSH1 0xC SSTORE PUSH1 0xF SLOAD PUSH9 0x10000000000000000 DUP2 LT ISZERO PUSH2 0x3B8 JUMPI PUSH1 0x1 DUP2 ADD DUP1 PUSH1 0xF SSTORE DUP2 LT ISZERO PUSH2 0x3A4 JUMPI PUSH2 0xBB8 SWAP1 PUSH1 0xF PUSH0 MSTORE PUSH1 0x20 PUSH0 KECCAK256 ADD SSTORE PUSH1 0xF SLOAD PUSH9 0x10000000000000000 DUP2 LT ISZERO PUSH2 0x3B8 JUMPI PUSH1 0x1 DUP2 ADD DUP1 PUSH1 0xF SSTORE DUP2 LT ISZERO PUSH2 0x3A4 JUMPI PUSH2 0x7D0 SWAP1 PUSH1 0xF PUSH0 MSTORE PUSH1 0x20 PUSH0 KECCAK256 ADD SSTORE PUSH1 0xF SLOAD PUSH9 0x10000000000000000 DUP2 LT ISZERO PUSH2 0x3B8 JUMPI PUSH1 0x1 DUP2 ADD DUP1 PUSH1 0xF SSTORE DUP2 LT ISZERO PUSH2 0x3A4 JUMPI PUSH2 0x5DC SWAP1 PUSH1 0xF PUSH0 MSTORE PUSH1 0x20 PUSH0 KECCAK256 ADD SSTORE PUSH1 0xF SLOAD PUSH9 0x10000000000000000 DUP2 LT ISZERO PUSH2 0x3B8 JUMPI PUSH1 0x1 DUP2 ADD DUP1 PUSH1 0xF SSTORE DUP2 LT ISZERO PUSH2 0x3A4 JUMPI PUSH2 0x3E8 SWAP1 PUSH1 0xF PUSH0 MSTORE PUSH1 0x20 PUSH0 KECCAK256 ADD SSTORE PUSH1 0xF SLOAD PUSH9 0x10000000000000000 DUP2 LT ISZERO PUSH2 0x3B8 JUMPI PUSH1 0x1 DUP2 ADD DUP1 PUSH1 0xF SSTORE DUP2 LT ISZERO PUSH2 0x3A4 JUMPI PUSH1 0xF PUSH0 MSTORE PUSH2 0x2BC PUSH32 0x8D1108E10BCB7C27DDDFC02ED9D693A074039D026CF4EA4240B40F7D581AC802 SWAP1 SWAP2 ADD SSTORE PUSH1 0x5 PUSH1 0xE SSTORE PUSH1 0x40 MLOAD PUSH2 0x47E1 SWAP1 DUP2 PUSH2 0x3F8 DUP3 CODECOPY PUSH1 0x80 MLOAD DUP2 DUP2 DUP2 PUSH2 0x657 ADD MSTORE DUP2 DUP2 PUSH2 0xD00 ADD MSTORE DUP2 DUP2 PUSH2 0x1111 ADD MSTORE DUP2 DUP2 PUSH2 0x119D ADD MSTORE DUP2 DUP2 PUSH2 0x3CA9 ADD MSTORE DUP2 DUP2 PUSH2 0x3FA9 ADD MSTORE DUP2 DUP2 PUSH2 0x4348 ADD MSTORE DUP2 DUP2 PUSH2 0x43BA ADD MSTORE DUP2 DUP2 PUSH2 0x444B ADD MSTORE DUP2 DUP2 PUSH2 0x46AB ADD MSTORE PUSH2 0x471D ADD MSTORE PUSH1 0xA0 MLOAD DUP2 DUP2 DUP2 PUSH2 0x3AE ADD MSTORE DUP2 DUP2 PUSH2 0x4D5 ADD MSTORE DUP2 DUP2 PUSH2 0x196F ADD MSTORE DUP2 DUP2 PUSH2 0x1A71 ADD MSTORE DUP2 DUP2 PUSH2 0x3768 ADD MSTORE PUSH2 0x3DE7 ADD MSTORE RETURN JUMPDEST PUSH4 0x4E487B71 PUSH1 0xE0 SHL PUSH0 MSTORE PUSH1 0x32 PUSH1 0x4 MSTORE PUSH1 0x24 PUSH0 REVERT JUMPDEST PUSH4 0x4E487B71 PUSH1 0xE0 SHL PUSH0 MSTORE PUSH1 0x41 PUSH1 0x4 MSTORE PUSH1 0x24 PUSH0 REVERT JUMPDEST PUSH4 0x1E4FBDF7 PUSH1 0xE0 SHL PUSH0 MSTORE PUSH0 PUSH1 0x4 MSTORE PUSH1 0x24 PUSH0 REVERT JUMPDEST PUSH0 DUP1 REVERT JUMPDEST MLOAD SWAP1 PUSH1 0x1 PUSH1 0x1 PUSH1 0xA0 SHL SUB DUP3 AND DUP3 SUB PUSH2 0x3DF JUMPI JUMP INVALID PUSH1 0x80 DUP1 PUSH1 0x40 MSTORE PUSH1 0x4 CALLDATASIZE LT ISZERO PUSH2 0x12 JUMPI PUSH0 DUP1 REVERT JUMPDEST PUSH0 CALLDATALOAD PUSH1 0xE0 SHR SWAP1 DUP2 PUSH4 0x72EA61C EQ PUSH2 0x2787 JUMPI POP DUP1 PUSH4 0x7653AFD EQ PUSH2 0x25A5 JUMPI DUP1 PUSH4 0xA02396B EQ PUSH2 0x2570 JUMPI DUP1 PUSH4 0xDCA4BC1 EQ PUSH2 0x857 JUMPI DUP1 PUSH4 0x12E8E2C3 EQ PUSH2 0x2537 JUMPI DUP1 PUSH4 0x1833C0AF EQ PUSH2 0x2397 JUMPI DUP1 PUSH4 0x188107B7 EQ PUSH2 0x2247 JUMPI DUP1 PUSH4 0x194A4E7E EQ PUSH2 0x222A JUMPI DUP1 PUSH4 0x20286CC3 EQ PUSH2 0x2210 JUMPI DUP1 PUSH4 0x22DCD13E EQ PUSH2 0x21F3 JUMPI DUP1 PUSH4 0x255D2FAD EQ PUSH2 0x1F6A JUMPI DUP1 PUSH4 0x2F3D22BB EQ PUSH2 0x1F4F JUMPI DUP1 PUSH4 0x302C80E1 EQ PUSH2 0x1F32 JUMPI DUP1 PUSH4 0x31A6FF66 EQ PUSH2 0x1F15 JUMPI DUP1 PUSH4 0x33E4B2DF EQ PUSH2 0x1EDD JUMPI DUP1 PUSH4 0x371CA3C5 EQ PUSH2 0x1EC0 JUMPI DUP1 PUSH4 0x3837AD48 EQ PUSH2 0x1EA5 JUMPI DUP1 PUSH4 0x3998A681 EQ PUSH2 0x1E89 JUMPI DUP1 PUSH4 0x3AAEA2E7 EQ PUSH2 0x1E6C JUMPI DUP1 PUSH4 0x3C38B21D EQ PUSH2 0x1E34 JUMPI DUP1 PUSH4 0x42D4AA60 EQ PUSH2 0x1DB0 JUMPI DUP1 PUSH4 0x4C4C447E EQ PUSH2 0x1CEC JUMPI DUP1 PUSH4 0x60246C88 EQ PUSH2 0x1C90 JUMPI DUP1 PUSH4 0x606D2E96 EQ PUSH2 0x1B77 JUMPI DUP1 PUSH4 0x6ABE4B1A EQ PUSH2 0x1B56 JUMPI DUP1 PUSH4 0x6DD0CE7A EQ PUSH2 0x1B14 JUMPI DUP1 PUSH4 0x715018A6 EQ PUSH2 0x1ABD JUMPI DUP1 PUSH4 0x719CE73E EQ PUSH2 0x1AA0 JUMPI DUP1 PUSH4 0x7B008D3B EQ PUSH2 0x1A5C JUMPI DUP1 PUSH4 0x7B154140 EQ PUSH2 0x18A6 JUMPI DUP1 PUSH4 0x7C01800D EQ PUSH2 0x1826 JUMPI DUP1 PUSH4 0x7FD6F7C4 EQ PUSH2 0x17E2 JUMPI DUP1 PUSH4 0x84F86A66 EQ PUSH2 0x17C1 JUMPI DUP1 PUSH4 0x851EA6B9 EQ PUSH2 0x1604 JUMPI DUP1 PUSH4 0x8A29719F EQ PUSH2 0x154E JUMPI DUP1 PUSH4 0x8B90FBC0 EQ PUSH2 0x1533 JUMPI DUP1 PUSH4 0x8DA5CB5B EQ PUSH2 0x150C JUMPI DUP1 PUSH4 0x94D44F12 EQ PUSH2 0x1140 JUMPI DUP1 PUSH4 0x96A92858 EQ PUSH2 0x10FC JUMPI DUP1 PUSH4 0xA94E5A69 EQ PUSH2 0x10C5 JUMPI DUP1 PUSH4 0xA98204F8 EQ PUSH2 0xCA3 JUMPI DUP1 PUSH4 0xB94F5E49 EQ PUSH2 0xC5F JUMPI DUP1 PUSH4 0xBAFA0946 EQ PUSH2 0xC42 JUMPI DUP1 PUSH4 0xBCB39621 EQ PUSH2 0xC25 JUMPI DUP1 PUSH4 0xC0FAC838 EQ PUSH2 0xC0A JUMPI DUP1 PUSH4 0xCF2012AF EQ PUSH2 0xA03 JUMPI DUP1 PUSH4 0xD21B4C52 EQ PUSH2 0x90A JUMPI DUP1 PUSH4 0xD794E1A6 EQ PUSH2 0x8D5 JUMPI DUP1 PUSH4 0xDB2C0FD1 EQ PUSH2 0x8A1 JUMPI DUP1 PUSH4 0xE178E215 EQ PUSH2 0x857 JUMPI DUP1 PUSH4 0xE2680709 EQ PUSH2 0x83C JUMPI DUP1 PUSH4 0xE44DBA4F EQ PUSH2 0x5CD JUMPI DUP1 PUSH4 0xE76C5908 EQ PUSH2 0x5B0 JUMPI DUP1 PUSH4 0xE7A2DF61 EQ PUSH2 0x476 JUMPI DUP1 PUSH4 0xEB770D0C EQ PUSH2 0x423 JUMPI DUP1 PUSH4 0xEC3889B5 EQ PUSH2 0x34D JUMPI DUP1 PUSH4 0xF2FDE38B EQ PUSH2 0x2C8 JUMPI PUSH4 0xFE54009D EQ PUSH2 0x29A JUMPI PUSH0 DUP1 REVERT JUMPDEST CALLVALUE PUSH2 0x2C4 JUMPI PUSH1 0x20 CALLDATASIZE PUSH1 0x3 NOT ADD SLT PUSH2 0x2C4 JUMPI PUSH1 0x4 CALLDATALOAD PUSH0 MSTORE PUSH1 0x12 PUSH1 0x20 MSTORE PUSH1 0x20 PUSH1 0x40 PUSH0 KECCAK256 SLOAD PUSH1 0x40 MLOAD SWAP1 DUP2 MSTORE RETURN JUMPDEST PUSH0 DUP1 REVERT JUMPDEST CALLVALUE PUSH2 0x2C4 JUMPI PUSH1 0x20 CALLDATASIZE PUSH1 0x3 NOT ADD SLT PUSH2 0x2C4 JUMPI PUSH2 0x2E1 PUSH2 0x27C7 JUMP JUMPDEST PUSH2 0x2E9 PUSH2 0x37D4 JUMP JUMPDEST PUSH1 0x1 PUSH1 0x1 PUSH1 0xA0 SHL SUB AND DUP1 ISZERO PUSH2 0x33A JUMPI PUSH0 DUP1 SLOAD PUSH1 0x1 PUSH1 0x1 PUSH1 0xA0 SHL SUB NOT DUP2 AND DUP4 OR DUP3 SSTORE PUSH1 0x1 PUSH1 0x1 PUSH1 0xA0 SHL SUB AND SWAP1 PUSH32 0x8BE0079C531659141344CD1FD0A4F28419497F9722A3DAAFE3B4186F6B6457E0 SWAP1 DUP1 LOG3 STOP JUMPDEST PUSH4 0x1E4FBDF7 PUSH1 0xE0 SHL PUSH0 MSTORE PUSH0 PUSH1 0x4 MSTORE PUSH1 0x24 PUSH0 REVERT JUMPDEST CALLVALUE PUSH2 0x2C4 JUMPI PUSH1 0x20 CALLDATASIZE PUSH1 0x3 NOT ADD SLT PUSH2 0x2C4 JUMPI PUSH2 0x3A9 PUSH1 0x20 PUSH2 0x36B PUSH2 0x27C7 JUMP JUMPDEST PUSH2 0x373 PUSH2 0x37D4 JUMP JUMPDEST PUSH1 0xA DUP1 SLOAD PUSH0 SWAP1 SWAP2 SSTORE PUSH1 0x40 MLOAD PUSH4 0xA9059CBB PUSH1 0xE0 SHL DUP2 MSTORE PUSH1 0x1 PUSH1 0x1 PUSH1 0xA0 SHL SUB SWAP1 SWAP3 AND PUSH1 0x4 DUP4 ADD MSTORE PUSH1 0x24 DUP3 ADD MSTORE SWAP2 DUP3 SWAP1 DUP2 SWAP1 PUSH1 0x44 DUP3 ADD SWAP1 JUMP JUMPDEST SUB DUP2 PUSH0 PUSH32 0x0 PUSH1 0x1 PUSH1 0x1 PUSH1 0xA0 SHL SUB AND GAS CALL DUP1 ISZERO PUSH2 0x418 JUMPI PUSH2 0x3E4 JUMPI STOP JUMPDEST PUSH1 0x20 DUP2 RETURNDATASIZE PUSH1 0x20 GT PUSH2 0x410 JUMPI JUMPDEST DUP2 PUSH2 0x3FD PUSH1 0x20 SWAP4 DUP4 PUSH2 0x2A30 JUMP JUMPDEST DUP2 ADD SUB SLT PUSH2 0x2C4 JUMPI PUSH2 0x40E SWAP1 PUSH2 0x2C59 JUMP JUMPDEST STOP JUMPDEST RETURNDATASIZE SWAP2 POP PUSH2 0x3F0 JUMP JUMPDEST PUSH1 0x40 MLOAD RETURNDATASIZE PUSH0 DUP3 RETURNDATACOPY RETURNDATASIZE SWAP1 REVERT JUMPDEST CALLVALUE PUSH2 0x2C4 JUMPI PUSH1 0x20 CALLDATASIZE PUSH1 0x3 NOT ADD SLT PUSH2 0x2C4 JUMPI PUSH1 0x4 CALLDATALOAD PUSH2 0x43F PUSH2 0x37D4 JUMP JUMPDEST PUSH32 0x6A75D918A59DA9597A749B7C707F23CFA76552074B43C68A24A21DB1C45841F1 PUSH1 0x40 PUSH1 0x7 SLOAD DUP2 MLOAD SWAP1 DUP2 MSTORE DUP4 PUSH1 0x20 DUP3 ADD MSTORE LOG1 PUSH1 0x7 SSTORE STOP JUMPDEST CALLVALUE PUSH2 0x2C4 JUMPI PUSH1 0x20 CALLDATASIZE PUSH1 0x3 NOT ADD SLT PUSH2 0x2C4 JUMPI PUSH2 0x48F PUSH2 0x27C7 JUMP JUMPDEST PUSH2 0x497 PUSH2 0x37D4 JUMP JUMPDEST PUSH1 0x9 SLOAD SWAP1 DUP2 ISZERO PUSH2 0x5A1 JUMPI PUSH0 PUSH1 0x9 SSTORE PUSH1 0x40 MLOAD PUSH4 0xA9059CBB PUSH1 0xE0 SHL DUP2 MSTORE PUSH1 0x1 PUSH1 0x1 PUSH1 0xA0 SHL SUB DUP3 AND PUSH1 0x4 DUP3 ADD MSTORE PUSH1 0x24 DUP2 ADD DUP4 SWAP1 MSTORE PUSH1 0x20 DUP2 DUP1 PUSH1 0x44 DUP2 ADD SUB DUP2 PUSH0 PUSH32 0x0 PUSH1 0x1 PUSH1 0x1 PUSH1 0xA0 SHL SUB AND GAS CALL DUP1 ISZERO PUSH2 0x418 JUMPI PUSH2 0x543 JUMPI JUMPDEST POP PUSH1 0x40 MLOAD SWAP2 DUP3 MSTORE PUSH1 0x1 PUSH1 0x1 PUSH1 0xA0 SHL SUB AND SWAP1 PUSH32 0x5FAFA99D0643513820BE26656B45130B01E1C03062E1266BF36F88CBD3BD9695 SWAP1 PUSH1 0x20 SWAP1 LOG2 STOP JUMPDEST PUSH1 0x20 DUP2 RETURNDATASIZE PUSH1 0x20 GT PUSH2 0x599 JUMPI JUMPDEST DUP2 PUSH2 0x55C PUSH1 0x20 SWAP4 DUP4 PUSH2 0x2A30 JUMP JUMPDEST DUP2 ADD SUB SLT PUSH2 0x2C4 JUMPI PUSH32 0x5FAFA99D0643513820BE26656B45130B01E1C03062E1266BF36F88CBD3BD9695 SWAP2 PUSH2 0x591 PUSH1 0x20 SWAP3 PUSH2 0x2C59 JUMP JUMPDEST POP SWAP2 POP PUSH2 0x50A JUMP JUMPDEST RETURNDATASIZE SWAP2 POP PUSH2 0x54F JUMP JUMPDEST PUSH4 0x686827B PUSH1 0xE5 SHL PUSH0 MSTORE PUSH1 0x4 PUSH0 REVERT JUMPDEST CALLVALUE PUSH2 0x2C4 JUMPI PUSH0 CALLDATASIZE PUSH1 0x3 NOT ADD SLT PUSH2 0x2C4 JUMPI PUSH1 0x20 PUSH1 0xD SLOAD PUSH1 0x40 MLOAD SWAP1 DUP2 MSTORE RETURN JUMPDEST CALLVALUE PUSH2 0x2C4 JUMPI PUSH2 0x5DB CALLDATASIZE PUSH2 0x285C JUMP JUMPDEST SWAP1 PUSH2 0x5E4 PUSH2 0x3695 JUMP JUMPDEST DUP1 PUSH0 MSTORE PUSH1 0x2 PUSH1 0x20 MSTORE PUSH1 0x40 PUSH0 KECCAK256 PUSH1 0x5 DUP2 ADD PUSH1 0xFF DUP2 SLOAD PUSH1 0x50 SHR AND PUSH1 0x4 DUP2 LT ISZERO PUSH2 0x828 JUMPI PUSH2 0x819 JUMPI PUSH1 0x1 DUP3 ADD SLOAD PUSH1 0x1 PUSH1 0x1 PUSH1 0xA0 SHL SUB AND CALLER EQ PUSH2 0x80A JUMPI CALLER PUSH0 MSTORE PUSH1 0x5 PUSH1 0x20 MSTORE PUSH1 0x40 PUSH0 KECCAK256 SLOAD PUSH2 0x7FB JUMPI PUSH2 0x638 DUP5 CALLER PUSH2 0x3C93 JUMP JUMPDEST PUSH2 0x641 CALLER PUSH2 0x3DB6 JUMP JUMPDEST PUSH1 0x40 MLOAD PUSH4 0x6A24447F PUSH1 0xE1 SHL DUP2 MSTORE PUSH1 0x4 DUP2 ADD DUP6 SWAP1 MSTORE PUSH32 0x0 PUSH1 0x1 PUSH1 0x1 PUSH1 0xA0 SHL SUB AND SWAP3 PUSH2 0x100 DUP3 PUSH1 0x24 DUP2 DUP8 GAS STATICCALL SWAP2 DUP3 ISZERO PUSH2 0x418 JUMPI PUSH0 SWAP3 PUSH2 0x7D5 JUMPI JUMPDEST POP PUSH1 0x2 DUP2 ADD DUP1 SLOAD PUSH1 0x1 PUSH1 0x1 PUSH1 0xA0 SHL SUB NOT AND CALLER OR SWAP1 SSTORE PUSH1 0x4 DUP2 ADD DUP7 SWAP1 SSTORE PUSH1 0x40 DUP3 ADD MLOAD DUP4 SLOAD PUSH4 0xFFFF0000 NOT AND PUSH4 0xFFFF0000 PUSH1 0x10 SWAP3 SWAP1 SWAP3 SHL SWAP2 SWAP1 SWAP2 AND OR DUP4 SSTORE PUSH2 0x100 SWAP1 PUSH1 0x3 SWAP1 DUP5 SLOAD PUSH11 0xFF0000000000FF00000000 NOT AND PUSH11 0x100000000000100000000 OR DUP6 SSTORE ADD SLOAD PUSH1 0x40 MLOAD PUSH4 0x6A24447F PUSH1 0xE1 SHL DUP2 MSTORE PUSH1 0x4 DUP2 ADD SWAP2 SWAP1 SWAP2 MSTORE SWAP4 DUP5 SWAP1 PUSH1 0x24 SWAP1 DUP3 SWAP1 GAS STATICCALL DUP1 ISZERO PUSH2 0x418 JUMPI PUSH1 0x60 PUSH2 0xFFFF DUP2 DUP2 SWAP4 PUSH2 0x759 SWAP8 PUSH0 SWAP2 PUSH2 0x7A6 JUMPI JUMPDEST POP ADD MLOAD AND SWAP3 ADD MLOAD AND GT ISZERO PUSH1 0xFF PUSH1 0x38 SHL DUP3 SLOAD SWAP2 ISZERO ISZERO PUSH1 0x38 SHL AND SWAP1 PUSH1 0xFF PUSH1 0x38 SHL NOT AND OR SWAP1 SSTORE JUMP JUMPDEST CALLER PUSH0 MSTORE PUSH1 0x5 PUSH1 0x20 MSTORE DUP1 PUSH1 0x40 PUSH0 KECCAK256 SSTORE PUSH1 0x40 MLOAD SWAP2 DUP3 MSTORE PUSH32 0xA47B02D2D7D744D434C03DB59A4362B0FC7A74D04DF715CC6200D66FD65DF989 PUSH1 0x20 CALLER SWAP4 LOG3 PUSH1 0x1 PUSH0 MLOAD PUSH1 0x20 PUSH2 0x478C PUSH0 CODECOPY PUSH0 MLOAD SWAP1 PUSH0 MSTORE SSTORE STOP JUMPDEST PUSH2 0x7C8 SWAP2 POP PUSH2 0x100 RETURNDATASIZE DUP2 GT PUSH2 0x7CE JUMPI JUMPDEST PUSH2 0x7C0 DUP2 DUP4 PUSH2 0x2A30 JUMP JUMPDEST DUP2 ADD SWAP1 PUSH2 0x3553 JUMP JUMPDEST DUP11 PUSH2 0x734 JUMP JUMPDEST POP RETURNDATASIZE PUSH2 0x7B6 JUMP JUMPDEST PUSH2 0x100 SWAP2 SWAP3 POP PUSH2 0x7F3 PUSH1 0x3 SWAP2 DUP4 RETURNDATASIZE DUP2 GT PUSH2 0x7CE JUMPI PUSH2 0x7C0 DUP2 DUP4 PUSH2 0x2A30 JUMP JUMPDEST SWAP3 SWAP2 POP PUSH2 0x698 JUMP JUMPDEST PUSH4 0x1844F0A5 PUSH1 0xE1 SHL PUSH0 MSTORE PUSH1 0x4 PUSH0 REVERT JUMPDEST PUSH4 0x2F50DD87 PUSH1 0xE0 SHL PUSH0 MSTORE PUSH1 0x4 PUSH0 REVERT JUMPDEST PUSH4 0x71007189 PUSH1 0xE0 SHL PUSH0 MSTORE PUSH1 0x4 PUSH0 REVERT JUMPDEST PUSH4 0x4E487B71 PUSH1 0xE0 SHL PUSH0 MSTORE PUSH1 0x21 PUSH1 0x4 MSTORE PUSH1 0x24 PUSH0 REVERT JUMPDEST CALLVALUE PUSH2 0x2C4 JUMPI PUSH0 CALLDATASIZE PUSH1 0x3 NOT ADD SLT PUSH2 0x2C4 JUMPI PUSH1 0x20 PUSH1 0x40 MLOAD PUSH1 0x96 DUP2 MSTORE RETURN JUMPDEST CALLVALUE PUSH2 0x2C4 JUMPI PUSH1 0x40 CALLDATASIZE PUSH1 0x3 NOT ADD SLT PUSH2 0x2C4 JUMPI PUSH2 0x870 PUSH2 0x27B1 JUMP JUMPDEST PUSH1 0x4 CALLDATALOAD PUSH0 MSTORE PUSH1 0x14 PUSH1 0x20 MSTORE PUSH1 0x40 PUSH0 KECCAK256 SWAP1 PUSH1 0x1 DUP1 PUSH1 0xA0 SHL SUB AND PUSH0 MSTORE PUSH1 0x20 MSTORE PUSH1 0x20 PUSH4 0xFFFFFFFF PUSH1 0x40 PUSH0 KECCAK256 SLOAD AND PUSH1 0x40 MLOAD SWAP1 DUP2 MSTORE RETURN JUMPDEST CALLVALUE PUSH2 0x2C4 JUMPI PUSH2 0x8AF CALLDATASIZE PUSH2 0x285C JUMP JUMPDEST SWAP1 PUSH0 MSTORE PUSH1 0x13 PUSH1 0x20 MSTORE PUSH1 0x40 PUSH0 KECCAK256 SWAP1 PUSH0 MSTORE PUSH1 0x20 MSTORE PUSH1 0x20 PUSH1 0xFF PUSH1 0x40 PUSH0 KECCAK256 SLOAD AND PUSH1 0x40 MLOAD SWAP1 ISZERO ISZERO DUP2 MSTORE RETURN JUMPDEST CALLVALUE PUSH2 0x2C4 JUMPI PUSH1 0x40 CALLDATASIZE PUSH1 0x3 NOT ADD SLT PUSH2 0x2C4 JUMPI PUSH1 0x24 CALLDATALOAD DUP1 ISZERO ISZERO DUP2 SUB PUSH2 0x2C4 JUMPI PUSH2 0x900 PUSH1 0x20 SWAP2 PUSH1 0x4 CALLDATALOAD PUSH2 0x363A JUMP JUMPDEST PUSH1 0x40 MLOAD SWAP1 ISZERO ISZERO DUP2 MSTORE RETURN JUMPDEST CALLVALUE PUSH2 0x2C4 JUMPI PUSH1 0x20 CALLDATASIZE PUSH1 0x3 NOT ADD SLT PUSH2 0x2C4 JUMPI PUSH2 0x923 PUSH2 0x27C7 JUMP JUMPDEST PUSH0 PUSH1 0xC0 PUSH1 0x40 MLOAD PUSH2 0x932 DUP2 PUSH2 0x2A14 JUMP JUMPDEST DUP3 DUP2 MSTORE DUP3 PUSH1 0x20 DUP3 ADD MSTORE DUP3 PUSH1 0x40 DUP3 ADD MSTORE DUP3 PUSH1 0x60 DUP3 ADD MSTORE DUP3 PUSH1 0x80 DUP3 ADD MSTORE DUP3 PUSH1 0xA0 DUP3 ADD MSTORE ADD MSTORE PUSH1 0x1 DUP1 PUSH1 0xA0 SHL SUB AND PUSH0 MSTORE PUSH1 0x4 PUSH1 0x20 MSTORE PUSH1 0xE0 PUSH1 0x40 PUSH0 KECCAK256 PUSH1 0x40 MLOAD PUSH2 0x976 DUP2 PUSH2 0x2A14 JUMP JUMPDEST PUSH4 0xFFFFFFFF DUP3 SLOAD DUP2 DUP2 DUP2 DUP6 DUP2 DUP1 DUP5 AND SWAP9 DUP10 DUP4 MSTORE DUP2 PUSH1 0x20 DUP5 ADD DUP2 DUP8 PUSH1 0x20 SHR AND DUP2 MSTORE PUSH1 0xC0 PUSH1 0x1 PUSH1 0x40 DUP8 ADD SWAP5 DUP5 DUP11 PUSH1 0x40 SHR AND DUP7 MSTORE DUP5 PUSH1 0xA0 PUSH1 0x60 DUP11 ADD SWAP10 DUP3 DUP14 PUSH1 0x60 SHR AND DUP12 MSTORE DUP3 PUSH1 0x80 DUP3 ADD SWAP14 PUSH1 0x80 SHR AND DUP14 MSTORE ADD SWAP13 PUSH1 0xA0 SHR AND DUP13 MSTORE ADD SLOAD SWAP12 ADD SWAP11 DUP12 MSTORE PUSH1 0x40 MLOAD SWAP12 DUP13 MSTORE MLOAD AND PUSH1 0x20 DUP12 ADD MSTORE MLOAD AND PUSH1 0x40 DUP10 ADD MSTORE MLOAD AND PUSH1 0x60 DUP8 ADD MSTORE MLOAD AND PUSH1 0x80 DUP6 ADD MSTORE MLOAD AND PUSH1 0xA0 DUP4 ADD MSTORE MLOAD PUSH1 0xC0 DUP3 ADD MSTORE RETURN JUMPDEST CALLVALUE PUSH2 0x2C4 JUMPI PUSH1 0x40 CALLDATASIZE PUSH1 0x3 NOT ADD SLT PUSH2 0x2C4 JUMPI PUSH1 0x4 CALLDATALOAD PUSH8 0xFFFFFFFFFFFFFFFF DUP2 GT PUSH2 0x2C4 JUMPI PUSH2 0xA34 SWAP1 CALLDATASIZE SWAP1 PUSH1 0x4 ADD PUSH2 0x27DD JUMP JUMPDEST PUSH1 0x24 CALLDATALOAD SWAP2 PUSH2 0xA40 PUSH2 0x37D4 JUMP JUMPDEST DUP2 DUP4 LT PUSH2 0xBC5 JUMPI PUSH0 DUP1 JUMPDEST DUP4 DUP3 LT PUSH2 0xBA5 JUMPI PUSH2 0x2710 SWAP2 POP LT ISZERO PUSH2 0xB3A JUMPI PUSH1 0xF SLOAD PUSH0 PUSH1 0xF SSTORE DUP1 PUSH2 0xADA JUMPI JUMPDEST POP PUSH0 JUMPDEST DUP3 DUP2 LT PUSH2 0xA7D JUMPI POP POP PUSH1 0xE SSTORE PUSH1 0x10 SSTORE STOP JUMPDEST PUSH2 0xA88 DUP2 DUP5 DUP5 PUSH2 0x29BD JUMP JUMPDEST CALLDATALOAD SWAP1 PUSH1 0xF SLOAD SWAP2 PUSH1 0x1 PUSH1 0x40 SHL DUP4 LT ISZERO PUSH2 0xAC6 JUMPI PUSH2 0xAAB DUP4 PUSH1 0x1 DUP1 SWAP6 ADD PUSH1 0xF SSTORE PUSH2 0x281B JUMP JUMPDEST DUP2 SWAP3 SWAP2 SLOAD SWAP1 PUSH1 0x3 SHL SWAP2 DUP3 SHL SWAP2 PUSH0 NOT SWAP1 SHL NOT AND OR SWAP1 SSTORE ADD PUSH2 0xA6C JUMP JUMPDEST PUSH4 0x4E487B71 PUSH1 0xE0 SHL PUSH0 MSTORE PUSH1 0x41 PUSH1 0x4 MSTORE PUSH1 0x24 PUSH0 REVERT JUMPDEST PUSH1 0xF PUSH0 MSTORE PUSH32 0x8D1108E10BCB7C27DDDFC02ED9D693A074039D026CF4EA4240B40F7D581AC802 ADD PUSH32 0x8D1108E10BCB7C27DDDFC02ED9D693A074039D026CF4EA4240B40F7D581AC802 JUMPDEST DUP2 DUP2 LT PUSH2 0xB2F JUMPI POP PUSH2 0xA69 JUMP JUMPDEST PUSH0 DUP2 SSTORE PUSH1 0x1 ADD PUSH2 0xB22 JUMP JUMPDEST PUSH1 0x40 MLOAD PUSH3 0x461BCD PUSH1 0xE5 SHL DUP2 MSTORE PUSH1 0x20 PUSH1 0x4 DUP3 ADD MSTORE PUSH1 0x39 PUSH1 0x24 DUP3 ADD MSTORE PUSH32 0x546F70207469657220736861726573206D757374206C656176652072656D6169 PUSH1 0x44 DUP3 ADD MSTORE PUSH32 0x6E64657220666F7220657175616C2D7368617265207469657200000000000000 PUSH1 0x64 DUP3 ADD MSTORE PUSH1 0x84 SWAP1 REVERT JUMPDEST PUSH2 0xBBD PUSH1 0x1 SWAP2 PUSH2 0xBB6 DUP5 DUP8 DUP8 PUSH2 0x29BD JUMP JUMPDEST CALLDATALOAD SWAP1 PUSH2 0x29B0 JUMP JUMPDEST SWAP2 ADD SWAP1 PUSH2 0xA4A JUMP JUMPDEST PUSH1 0x40 MLOAD PUSH3 0x461BCD PUSH1 0xE5 SHL DUP2 MSTORE PUSH1 0x20 PUSH1 0x4 DUP3 ADD MSTORE PUSH1 0x1F PUSH1 0x24 DUP3 ADD MSTORE PUSH32 0x546F74616C206D757374206265203E3D20746F70207469657220636F756E7400 PUSH1 0x44 DUP3 ADD MSTORE PUSH1 0x64 SWAP1 REVERT JUMPDEST CALLVALUE PUSH2 0x2C4 JUMPI PUSH0 CALLDATASIZE PUSH1 0x3 NOT ADD SLT PUSH2 0x2C4 JUMPI PUSH1 0x20 PUSH1 0x40 MLOAD PUSH1 0x3 DUP2 MSTORE RETURN JUMPDEST CALLVALUE PUSH2 0x2C4 JUMPI PUSH0 CALLDATASIZE PUSH1 0x3 NOT ADD SLT PUSH2 0x2C4 JUMPI PUSH1 0x20 PUSH1 0xB SLOAD PUSH1 0x40 MLOAD SWAP1 DUP2 MSTORE RETURN JUMPDEST CALLVALUE PUSH2 0x2C4 JUMPI PUSH0 CALLDATASIZE PUSH1 0x3 NOT ADD SLT PUSH2 0x2C4 JUMPI PUSH1 0x20 PUSH1 0xC SLOAD PUSH1 0x40 MLOAD SWAP1 DUP2 MSTORE RETURN JUMPDEST CALLVALUE PUSH2 0x2C4 JUMPI PUSH1 0x40 CALLDATASIZE PUSH1 0x3 NOT ADD SLT PUSH2 0x2C4 JUMPI PUSH2 0xC78 PUSH2 0x27A1 JUMP JUMPDEST PUSH1 0x24 CALLDATALOAD PUSH1 0xFF DUP2 AND DUP1 SWAP2 SUB PUSH2 0x2C4 JUMPI PUSH1 0xFF PUSH1 0x20 SWAP3 AND PUSH0 MSTORE PUSH1 0x6 DUP3 MSTORE PUSH1 0xFF PUSH1 0x40 PUSH0 KECCAK256 SLOAD AND EQ PUSH1 0x40 MLOAD SWAP1 DUP2 MSTORE RETURN JUMPDEST CALLVALUE PUSH2 0x2C4 JUMPI PUSH1 0x20 CALLDATASIZE PUSH1 0x3 NOT ADD SLT PUSH2 0x2C4 JUMPI PUSH2 0xCBC PUSH2 0x3695 JUMP JUMPDEST PUSH2 0xCC8 PUSH1 0x4 CALLDATALOAD CALLER PUSH2 0x3C93 JUMP JUMPDEST CALLER PUSH0 MSTORE PUSH1 0x5 PUSH1 0x20 MSTORE PUSH1 0x40 PUSH0 KECCAK256 SLOAD PUSH2 0x7FB JUMPI PUSH2 0xCE2 CALLER PUSH2 0x3DB6 JUMP JUMPDEST PUSH1 0x40 MLOAD PUSH4 0x6A24447F PUSH1 0xE1 SHL DUP2 MSTORE PUSH1 0x4 DUP1 CALLDATALOAD SWAP1 DUP3 ADD MSTORE PUSH2 0x100 DUP2 PUSH1 0x24 DUP2 PUSH32 0x0 PUSH1 0x1 PUSH1 0x1 PUSH1 0xA0 SHL SUB AND GAS STATICCALL SWAP1 DUP2 ISZERO PUSH2 0x418 JUMPI PUSH0 SWAP2 PUSH2 0x10A6 JUMPI JUMPDEST POP PUSH2 0xD44 PUSH1 0x1 SLOAD PUSH2 0x29CD JUMP JUMPDEST DUP1 PUSH1 0x1 SSTORE PUSH1 0xB4 PUSH1 0x40 MLOAD PUSH1 0x20 DUP2 ADD SWAP1 TIMESTAMP DUP3 MSTORE DUP4 PUSH1 0x40 DUP3 ADD MSTORE PUSH1 0x4 CALLDATALOAD PUSH1 0x60 DUP3 ADD MSTORE PUSH1 0x60 DUP2 MSTORE PUSH2 0xD72 PUSH1 0x80 DUP3 PUSH2 0x2A30 JUMP JUMPDEST MLOAD SWAP1 KECCAK256 MOD PUSH1 0x50 ADD SWAP2 DUP3 PUSH1 0x50 GT PUSH2 0x1092 JUMPI PUSH2 0xFFFF PUSH1 0x40 DUP2 SWAP3 ADD MLOAD AND PUSH1 0x1 SIGNEXTEND SWAP3 PUSH1 0x40 MLOAD SWAP4 PUSH2 0xD9D DUP6 PUSH2 0x29F7 JUMP JUMPDEST DUP4 DUP6 MSTORE CALLER PUSH1 0x20 DUP7 ADD MSTORE ADDRESS PUSH1 0x40 DUP7 ADD MSTORE PUSH1 0x4 CALLDATALOAD PUSH1 0x60 DUP7 ADD MSTORE PUSH0 PUSH1 0x80 DUP7 ADD MSTORE PUSH1 0xA0 DUP6 ADD MSTORE AND PUSH1 0x1 SIGNEXTEND PUSH1 0xC0 DUP4 ADD MSTORE PUSH1 0x1 PUSH1 0xE0 DUP4 ADD MSTORE PUSH0 PUSH2 0x100 DUP4 ADD MSTORE PUSH0 PUSH2 0x120 DUP4 ADD MSTORE PUSH1 0x1 PUSH2 0x140 DUP4 ADD MSTORE PUSH0 PUSH2 0x160 DUP4 ADD MSTORE PUSH0 PUSH2 0x180 DUP4 ADD MSTORE PUSH1 0x1 PUSH2 0x1A0 DUP4 ADD MSTORE PUSH1 0x1 PUSH2 0x1C0 DUP4 ADD MSTORE PUSH0 PUSH2 0x1E0 DUP4 ADD MSTORE TIMESTAMP PUSH2 0x200 DUP4 ADD MSTORE PUSH0 PUSH2 0x220 DUP4 ADD MSTORE DUP1 PUSH0 MSTORE PUSH1 0x2 PUSH1 0x20 MSTORE PUSH1 0x40 PUSH0 KECCAK256 DUP3 MLOAD DUP2 SSTORE PUSH1 0x1 DUP1 PUSH1 0xA0 SHL SUB PUSH1 0x20 DUP5 ADD MLOAD AND PUSH1 0x1 DUP3 ADD SWAP1 PUSH1 0x1 DUP1 PUSH1 0xA0 SHL SUB AND PUSH1 0x1 PUSH1 0x1 PUSH1 0x60 SHL SUB PUSH1 0xA0 SHL DUP3 SLOAD AND OR SWAP1 SSTORE PUSH1 0x1 DUP1 PUSH1 0xA0 SHL SUB PUSH1 0x40 DUP5 ADD MLOAD AND PUSH1 0x2 DUP3 ADD SWAP1 PUSH1 0x1 DUP1 PUSH1 0xA0 SHL SUB AND PUSH1 0x1 PUSH1 0x1 PUSH1 0x60 SHL SUB PUSH1 0xA0 SHL DUP3 SLOAD AND OR SWAP1 SSTORE PUSH1 0x60 DUP4 ADD MLOAD PUSH1 0x3 DUP3 ADD SSTORE PUSH1 0x80 DUP4 ADD MLOAD PUSH1 0x4 DUP3 ADD SSTORE PUSH1 0xA0 DUP4 ADD MLOAD PUSH1 0x1 SIGNEXTEND PUSH2 0xFFFF NOT PUSH1 0x5 DUP4 ADD SLOAD AND SWAP1 PUSH2 0xFFFF AND OR PUSH1 0x5 DUP3 ADD SSTORE PUSH2 0xED8 PUSH1 0xC0 DUP5 ADD MLOAD PUSH1 0x1 SIGNEXTEND PUSH1 0x5 DUP4 ADD SWAP1 DUP2 SLOAD SWAP1 PUSH1 0x10 SHL PUSH4 0xFFFF0000 AND SWAP1 PUSH4 0xFFFF0000 NOT AND OR SWAP1 SSTORE JUMP JUMPDEST PUSH2 0xF03 PUSH1 0xFF PUSH1 0xE0 DUP6 ADD MLOAD AND PUSH1 0x5 DUP4 ADD SWAP1 PUSH5 0xFF00000000 DUP3 SLOAD SWAP2 PUSH1 0x20 SHL AND SWAP1 PUSH5 0xFF00000000 NOT AND OR SWAP1 SSTORE JUMP JUMPDEST PUSH2 0xF2D PUSH1 0xFF PUSH2 0x100 DUP6 ADD MLOAD AND PUSH1 0x5 DUP4 ADD SWAP1 PUSH1 0xFF PUSH1 0x28 SHL DUP3 SLOAD SWAP2 PUSH1 0x28 SHL AND SWAP1 PUSH1 0xFF PUSH1 0x28 SHL NOT AND OR SWAP1 SSTORE JUMP JUMPDEST PUSH2 0xF57 PUSH1 0xFF PUSH2 0x120 DUP6 ADD MLOAD AND PUSH1 0x5 DUP4 ADD SWAP1 PUSH1 0xFF PUSH1 0x30 SHL DUP3 SLOAD SWAP2 PUSH1 0x30 SHL AND SWAP1 PUSH1 0xFF PUSH1 0x30 SHL NOT AND OR SWAP1 SSTORE JUMP JUMPDEST PUSH2 0x140 DUP4 ADD MLOAD PUSH1 0x5 DUP3 ADD DUP1 SLOAD PUSH2 0x160 DUP7 ADD MLOAD PUSH2 0x180 DUP8 ADD MLOAD PUSH3 0xFFFFFF PUSH1 0x38 SHL NOT SWAP1 SWAP3 AND PUSH1 0xFF PUSH1 0x38 SHL SWAP5 ISZERO ISZERO PUSH1 0x38 SHL SWAP5 SWAP1 SWAP5 AND SWAP4 SWAP1 SWAP4 OR PUSH1 0x40 SWAP4 SWAP1 SWAP4 SHL PUSH1 0xFF PUSH1 0x40 SHL AND SWAP3 SWAP1 SWAP3 OR PUSH1 0x48 SWAP3 SWAP1 SWAP3 SHL PUSH1 0xFF PUSH1 0x48 SHL AND SWAP2 SWAP1 SWAP2 OR SWAP1 SSTORE PUSH2 0x1A0 DUP4 ADD MLOAD PUSH1 0x4 DUP2 LT ISZERO PUSH2 0x828 JUMPI PUSH2 0xFCB SWAP1 PUSH1 0x5 DUP4 ADD PUSH2 0x298C JUMP JUMPDEST PUSH2 0x1C0 DUP4 ADD MLOAD SWAP3 PUSH1 0x2 DUP5 LT ISZERO PUSH2 0x828 JUMPI PUSH1 0x5 DUP3 ADD DUP1 SLOAD PUSH2 0x1E0 DUP4 ADD MLOAD PUSH11 0xFFFFFFFFFFFFFFFFFFFFFF SWAP1 SWAP2 AND PUSH1 0x58 SWAP7 SWAP1 SWAP7 SHL PUSH1 0xFF PUSH1 0x58 SHL AND SWAP6 SWAP1 SWAP6 OR PUSH1 0x60 SWAP6 SWAP1 SWAP6 SHL PUSH1 0x1 PUSH1 0x1 PUSH1 0x60 SHL SUB NOT AND SWAP5 SWAP1 SWAP5 OR SWAP1 SWAP4 SSTORE PUSH1 0x20 SWAP3 PUSH1 0x7 SWAP1 PUSH2 0x220 SWAP1 PUSH2 0x200 DUP2 ADD MLOAD PUSH1 0x6 DUP6 ADD SSTORE ADD MLOAD SWAP2 ADD SSTORE CALLER PUSH0 MSTORE PUSH1 0x5 DUP3 MSTORE DUP1 PUSH1 0x40 PUSH0 KECCAK256 SSTORE PUSH1 0x40 MLOAD PUSH1 0x4 CALLDATALOAD DUP2 MSTORE PUSH1 0x1 DUP4 DUP3 ADD MSTORE DUP2 PUSH32 0x4EB289F4F987F7CFC6DABFB6CCEA9A32BD7D39F2E413D0B4D59BCCE2A332ABA PUSH1 0x40 CALLER SWAP4 LOG3 PUSH1 0x1 PUSH0 MLOAD PUSH1 0x20 PUSH2 0x478C PUSH0 CODECOPY PUSH0 MLOAD SWAP1 PUSH0 MSTORE SSTORE PUSH1 0x40 MLOAD SWAP1 DUP2 MSTORE RETURN JUMPDEST PUSH4 0x4E487B71 PUSH1 0xE0 SHL PUSH0 MSTORE PUSH1 0x11 PUSH1 0x4 MSTORE PUSH1 0x24 PUSH0 REVERT JUMPDEST PUSH2 0x10BF SWAP2 POP PUSH2 0x100 RETURNDATASIZE DUP2 GT PUSH2 0x7CE JUMPI PUSH2 0x7C0 DUP2 DUP4 PUSH2 0x2A30 JUMP JUMPDEST DUP2 PUSH2 0xD38 JUMP JUMPDEST CALLVALUE PUSH2 0x2C4 JUMPI PUSH2 0x10D3 CALLDATASIZE PUSH2 0x285C JUMP JUMPDEST SWAP1 PUSH0 MSTORE PUSH1 0x11 PUSH1 0x20 MSTORE PUSH1 0x40 PUSH0 KECCAK256 SWAP1 PUSH0 MSTORE PUSH1 0x20 MSTORE PUSH1 0x20 PUSH1 0x1 DUP1 PUSH1 0xA0 SHL SUB PUSH1 0x40 PUSH0 KECCAK256 SLOAD AND PUSH1 0x40 MLOAD SWAP1 DUP2 MSTORE RETURN JUMPDEST CALLVALUE PUSH2 0x2C4 JUMPI PUSH0 CALLDATASIZE PUSH1 0x3 NOT ADD SLT PUSH2 0x2C4 JUMPI PUSH1 0x40 MLOAD PUSH32 0x0 PUSH1 0x1 PUSH1 0x1 PUSH1 0xA0 SHL SUB AND DUP2 MSTORE PUSH1 0x20 SWAP1 RETURN JUMPDEST CALLVALUE PUSH2 0x2C4 JUMPI PUSH1 0x20 CALLDATASIZE PUSH1 0x3 NOT ADD SLT PUSH2 0x2C4 JUMPI PUSH2 0x1159 PUSH2 0x3695 JUMP JUMPDEST PUSH2 0x1165 PUSH1 0x4 CALLDATALOAD CALLER PUSH2 0x3C93 JUMP JUMPDEST CALLER PUSH0 MSTORE PUSH1 0x5 PUSH1 0x20 MSTORE PUSH1 0x40 PUSH0 KECCAK256 SLOAD PUSH2 0x7FB JUMPI PUSH2 0x117F CALLER PUSH2 0x3DB6 JUMP JUMPDEST PUSH1 0x40 MLOAD PUSH4 0x6A24447F PUSH1 0xE1 SHL DUP2 MSTORE PUSH1 0x4 DUP1 CALLDATALOAD SWAP1 DUP3 ADD MSTORE PUSH2 0x100 DUP2 PUSH1 0x24 DUP2 PUSH32 0x0 PUSH1 0x1 PUSH1 0x1 PUSH1 0xA0 SHL SUB AND GAS STATICCALL SWAP1 DUP2 ISZERO PUSH2 0x418 JUMPI PUSH0 SWAP2 PUSH2 0x14ED JUMPI JUMPDEST POP PUSH2 0xFFFF PUSH1 0x40 PUSH2 0x11E6 PUSH1 0x1 SLOAD PUSH2 0x29CD JUMP JUMPDEST SWAP3 DUP4 PUSH1 0x1 SSTORE ADD MLOAD AND PUSH1 0x1 SIGNEXTEND SWAP1 PUSH1 0x40 MLOAD SWAP2 PUSH2 0x11FF DUP4 PUSH2 0x29F7 JUMP JUMPDEST DUP2 DUP4 MSTORE CALLER PUSH1 0x20 DUP5 ADD MSTORE PUSH0 PUSH1 0x40 DUP5 ADD MSTORE PUSH1 0x4 CALLDATALOAD PUSH1 0x60 DUP5 ADD MSTORE PUSH0 PUSH1 0x80 DUP5 ADD MSTORE PUSH1 0xA0 DUP4 ADD MSTORE PUSH0 PUSH1 0xC0 DUP4 ADD MSTORE PUSH0 PUSH1 0xE0 DUP4 ADD MSTORE PUSH0 PUSH2 0x100 DUP4 ADD MSTORE PUSH0 PUSH2 0x120 DUP4 ADD MSTORE PUSH1 0x1 PUSH2 0x140 DUP4 ADD MSTORE PUSH0 PUSH2 0x160 DUP4 ADD MSTORE PUSH0 PUSH2 0x180 DUP4 ADD MSTORE PUSH0 PUSH2 0x1A0 DUP4 ADD MSTORE PUSH0 PUSH2 0x1C0 DUP4 ADD MSTORE PUSH0 PUSH2 0x1E0 DUP4 ADD MSTORE TIMESTAMP PUSH2 0x200 DUP4 ADD MSTORE PUSH0 PUSH2 0x220 DUP4 ADD MSTORE DUP1 PUSH0 MSTORE PUSH1 0x2 PUSH1 0x20 MSTORE PUSH1 0x40 PUSH0 KECCAK256 DUP3 MLOAD DUP2 SSTORE PUSH1 0x1 DUP1 PUSH1 0xA0 SHL SUB PUSH1 0x20 DUP5 ADD MLOAD AND PUSH1 0x1 DUP3 ADD SWAP1 PUSH1 0x1 DUP1 PUSH1 0xA0 SHL SUB AND PUSH1 0x1 PUSH1 0x1 PUSH1 0x60 SHL SUB PUSH1 0xA0 SHL DUP3 SLOAD AND OR SWAP1 SSTORE PUSH1 0x1 DUP1 PUSH1 0xA0 SHL SUB PUSH1 0x40 DUP5 ADD MLOAD AND PUSH1 0x2 DUP3 ADD SWAP1 PUSH1 0x1 DUP1 PUSH1 0xA0 SHL SUB AND PUSH1 0x1 PUSH1 0x1 PUSH1 0x60 SHL SUB PUSH1 0xA0 SHL DUP3 SLOAD AND OR SWAP1 SSTORE PUSH1 0x60 DUP4 ADD MLOAD PUSH1 0x3 DUP3 ADD SSTORE PUSH1 0x80 DUP4 ADD MLOAD PUSH1 0x4 DUP3 ADD SSTORE PUSH1 0xA0 DUP4 ADD MLOAD PUSH1 0x1 SIGNEXTEND PUSH2 0xFFFF NOT PUSH1 0x5 DUP4 ADD SLOAD AND SWAP1 PUSH2 0xFFFF AND OR PUSH1 0x5 DUP3 ADD SSTORE PUSH2 0x1334 PUSH1 0xC0 DUP5 ADD MLOAD PUSH1 0x1 SIGNEXTEND PUSH1 0x5 DUP4 ADD SWAP1 DUP2 SLOAD SWAP1 PUSH1 0x10 SHL PUSH4 0xFFFF0000 AND SWAP1 PUSH4 0xFFFF0000 NOT AND OR SWAP1 SSTORE JUMP JUMPDEST PUSH2 0x135F PUSH1 0xFF PUSH1 0xE0 DUP6 ADD MLOAD AND PUSH1 0x5 DUP4 ADD SWAP1 PUSH5 0xFF00000000 DUP3 SLOAD SWAP2 PUSH1 0x20 SHL AND SWAP1 PUSH5 0xFF00000000 NOT AND OR SWAP1 SSTORE JUMP JUMPDEST PUSH2 0x1389 PUSH1 0xFF PUSH2 0x100 DUP6 ADD MLOAD AND PUSH1 0x5 DUP4 ADD SWAP1 PUSH1 0xFF PUSH1 0x28 SHL DUP3 SLOAD SWAP2 PUSH1 0x28 SHL AND SWAP1 PUSH1 0xFF PUSH1 0x28 SHL NOT AND OR SWAP1 SSTORE JUMP JUMPDEST PUSH2 0x13B3 PUSH1 0xFF PUSH2 0x120 DUP6 ADD MLOAD AND PUSH1 0x5 DUP4 ADD SWAP1 PUSH1 0xFF PUSH1 0x30 SHL DUP3 SLOAD SWAP2 PUSH1 0x30 SHL AND SWAP1 PUSH1 0xFF PUSH1 0x30 SHL NOT AND OR SWAP1 SSTORE JUMP JUMPDEST PUSH2 0x140 DUP4 ADD MLOAD PUSH1 0x5 DUP3 ADD DUP1 SLOAD PUSH2 0x160 DUP7 ADD MLOAD PUSH2 0x180 DUP8 ADD MLOAD PUSH3 0xFFFFFF PUSH1 0x38 SHL NOT SWAP1 SWAP3 AND PUSH1 0xFF PUSH1 0x38 SHL SWAP5 ISZERO ISZERO PUSH1 0x38 SHL SWAP5 SWAP1 SWAP5 AND SWAP4 SWAP1 SWAP4 OR PUSH1 0x40 SWAP4 SWAP1 SWAP4 SHL PUSH1 0xFF PUSH1 0x40 SHL AND SWAP3 SWAP1 SWAP3 OR PUSH1 0x48 SWAP3 SWAP1 SWAP3 SHL PUSH1 0xFF PUSH1 0x48 SHL AND SWAP2 SWAP1 SWAP2 OR SWAP1 SSTORE PUSH2 0x1A0 DUP4 ADD MLOAD PUSH1 0x4 DUP2 LT ISZERO PUSH2 0x828 JUMPI PUSH2 0x1427 SWAP1 PUSH1 0x5 DUP4 ADD PUSH2 0x298C JUMP JUMPDEST PUSH2 0x1C0 DUP4 ADD MLOAD SWAP3 PUSH1 0x2 DUP5 LT ISZERO PUSH2 0x828 JUMPI PUSH1 0x5 DUP3 ADD DUP1 SLOAD PUSH2 0x1E0 DUP4 ADD MLOAD PUSH11 0xFFFFFFFFFFFFFFFFFFFFFF SWAP1 SWAP2 AND PUSH1 0x58 SWAP7 SWAP1 SWAP7 SHL PUSH1 0xFF PUSH1 0x58 SHL AND SWAP6 SWAP1 SWAP6 OR PUSH1 0x60 SWAP6 SWAP1 SWAP6 SHL PUSH1 0x1 PUSH1 0x1 PUSH1 0x60 SHL SUB NOT AND SWAP5 SWAP1 SWAP5 OR SWAP1 SWAP4 SSTORE PUSH1 0x20 SWAP3 PUSH1 0x7 SWAP1 PUSH2 0x220 SWAP1 PUSH2 0x200 DUP2 ADD MLOAD PUSH1 0x6 DUP6 ADD SSTORE ADD MLOAD SWAP2 ADD SSTORE CALLER PUSH0 MSTORE PUSH1 0x5 DUP3 MSTORE DUP1 PUSH1 0x40 PUSH0 KECCAK256 SSTORE PUSH1 0x40 MLOAD PUSH1 0x4 CALLDATALOAD DUP2 MSTORE PUSH0 DUP4 DUP3 ADD MSTORE DUP2 PUSH32 0x4EB289F4F987F7CFC6DABFB6CCEA9A32BD7D39F2E413D0B4D59BCCE2A332ABA PUSH1 0x40 CALLER SWAP4 LOG3 PUSH1 0x1 PUSH0 MLOAD PUSH1 0x20 PUSH2 0x478C PUSH0 CODECOPY PUSH0 MLOAD SWAP1 PUSH0 MSTORE SSTORE PUSH1 0x40 MLOAD SWAP1 DUP2 MSTORE RETURN JUMPDEST PUSH2 0x1506 SWAP2 POP PUSH2 0x100 RETURNDATASIZE DUP2 GT PUSH2 0x7CE JUMPI PUSH2 0x7C0 DUP2 DUP4 PUSH2 0x2A30 JUMP JUMPDEST DUP2 PUSH2 0x11D5 JUMP JUMPDEST CALLVALUE PUSH2 0x2C4 JUMPI PUSH0 CALLDATASIZE PUSH1 0x3 NOT ADD SLT PUSH2 0x2C4 JUMPI PUSH0 SLOAD PUSH1 0x40 MLOAD PUSH1 0x1 PUSH1 0x1 PUSH1 0xA0 SHL SUB SWAP1 SWAP2 AND DUP2 MSTORE PUSH1 0x20 SWAP1 RETURN JUMPDEST CALLVALUE PUSH2 0x2C4 JUMPI PUSH0 CALLDATASIZE PUSH1 0x3 NOT ADD SLT PUSH2 0x2C4 JUMPI PUSH1 0x20 PUSH1 0x40 MLOAD PUSH1 0x1E DUP2 MSTORE RETURN JUMPDEST CALLVALUE PUSH2 0x2C4 JUMPI PUSH0 CALLDATASIZE PUSH1 0x3 NOT ADD SLT PUSH2 0x2C4 JUMPI PUSH1 0x40 MLOAD DUP1 PUSH1 0x20 PUSH1 0xF SLOAD SWAP3 DUP4 DUP2 MSTORE ADD DUP1 SWAP3 PUSH1 0xF PUSH0 MSTORE PUSH32 0x8D1108E10BCB7C27DDDFC02ED9D693A074039D026CF4EA4240B40F7D581AC802 SWAP1 PUSH0 JUMPDEST DUP2 DUP2 LT PUSH2 0x15EE JUMPI POP POP POP DUP2 PUSH2 0x15AC SWAP2 SUB DUP3 PUSH2 0x2A30 JUMP JUMPDEST PUSH1 0x40 MLOAD SWAP2 DUP3 SWAP2 PUSH1 0x20 DUP4 ADD SWAP1 PUSH1 0x20 DUP5 MSTORE MLOAD DUP1 SWAP2 MSTORE PUSH1 0x40 DUP4 ADD SWAP2 SWAP1 PUSH0 JUMPDEST DUP2 DUP2 LT PUSH2 0x15D5 JUMPI POP POP POP SUB SWAP1 RETURN JUMPDEST DUP3 MLOAD DUP5 MSTORE DUP6 SWAP5 POP PUSH1 0x20 SWAP4 DUP5 ADD SWAP4 SWAP1 SWAP3 ADD SWAP2 PUSH1 0x1 ADD PUSH2 0x15C7 JUMP JUMPDEST DUP3 SLOAD DUP5 MSTORE PUSH1 0x20 SWAP1 SWAP4 ADD SWAP3 PUSH1 0x1 SWAP3 DUP4 ADD SWAP3 ADD PUSH2 0x1596 JUMP JUMPDEST CALLVALUE PUSH2 0x2C4 JUMPI PUSH2 0x1612 CALLDATASIZE PUSH2 0x285C JUMP JUMPDEST PUSH0 SWAP2 PUSH1 0x1 DUP1 SLOAD SWAP1 JUMPDEST DUP2 DUP2 GT ISZERO DUP1 PUSH2 0x17B8 JUMPI JUMPDEST ISZERO PUSH2 0x1671 JUMPI DUP1 PUSH0 MSTORE PUSH1 0x2 PUSH1 0x20 MSTORE PUSH1 0xFF PUSH1 0x5 PUSH1 0x40 PUSH0 KECCAK256 ADD SLOAD PUSH1 0x50 SHR AND PUSH1 0x4 DUP2 LT ISZERO PUSH2 0x828 JUMPI ISZERO PUSH2 0x165C JUMPI JUMPDEST PUSH2 0x1657 SWAP1 PUSH2 0x29CD JUMP JUMPDEST PUSH2 0x161A JUMP JUMPDEST SWAP4 PUSH2 0x1669 PUSH2 0x1657 SWAP2 PUSH2 0x29CD JUMP JUMPDEST SWAP5 SWAP1 POP PUSH2 0x164E JUMP JUMPDEST POP DUP4 PUSH2 0x167C DUP2 PUSH2 0x2A52 JUMP JUMPDEST PUSH2 0x1689 PUSH1 0x40 MLOAD SWAP2 DUP3 PUSH2 0x2A30 JUMP JUMPDEST DUP2 DUP2 MSTORE PUSH1 0x1F NOT PUSH2 0x1698 DUP4 PUSH2 0x2A52 JUMP JUMPDEST ADD PUSH0 JUMPDEST DUP2 DUP2 LT PUSH2 0x17A1 JUMPI POP POP PUSH0 SWAP1 PUSH0 SWAP3 PUSH1 0x1 JUMPDEST DUP6 DUP2 GT ISZERO DUP1 PUSH2 0x1798 JUMPI JUMPDEST ISZERO PUSH2 0x1747 JUMPI DUP1 PUSH0 MSTORE PUSH1 0x2 PUSH1 0x20 MSTORE PUSH1 0xFF PUSH1 0x5 PUSH1 0x40 PUSH0 KECCAK256 ADD SLOAD PUSH1 0x50 SHR AND PUSH1 0x4 DUP2 LT ISZERO PUSH2 0x828 JUMPI ISZERO PUSH2 0x16ED JUMPI JUMPDEST PUSH2 0x16E8 SWAP1 PUSH2 0x29CD JUMP JUMPDEST PUSH2 0x16AB JUMP JUMPDEST DUP7 DUP6 LT PUSH2 0x1734 JUMPI DUP1 PUSH2 0x16E8 SWAP2 PUSH0 MSTORE PUSH1 0x2 PUSH1 0x20 MSTORE PUSH2 0x172B PUSH1 0x40 PUSH0 KECCAK256 SWAP6 PUSH2 0x171A PUSH2 0x1714 DUP3 PUSH2 0x29CD JUMP JUMPDEST SWAP8 PUSH2 0x2B55 JUMP JUMPDEST PUSH2 0x1724 DUP3 DUP9 PUSH2 0x3522 JUMP JUMPDEST MSTORE DUP6 PUSH2 0x3522 JUMP JUMPDEST POP JUMPDEST SWAP1 POP PUSH2 0x16DF JUMP JUMPDEST SWAP4 PUSH2 0x1741 PUSH2 0x16E8 SWAP2 PUSH2 0x29CD JUMP JUMPDEST SWAP5 PUSH2 0x172D JUMP JUMPDEST DUP3 PUSH1 0x40 MLOAD DUP1 SWAP2 PUSH1 0x20 DUP3 ADD PUSH1 0x20 DUP4 MSTORE DUP2 MLOAD DUP1 SWAP2 MSTORE PUSH1 0x20 PUSH1 0x40 DUP5 ADD SWAP3 ADD SWAP1 PUSH0 JUMPDEST DUP2 DUP2 LT PUSH2 0x1773 JUMPI POP POP POP SUB SWAP1 RETURN JUMPDEST SWAP2 SWAP4 POP SWAP2 PUSH1 0x20 PUSH2 0x240 DUP3 PUSH2 0x178A PUSH1 0x1 SWAP5 DUP9 MLOAD PUSH2 0x288C JUMP JUMPDEST ADD SWAP5 ADD SWAP2 ADD SWAP2 DUP5 SWAP4 SWAP3 PUSH2 0x1765 JUMP JUMPDEST POP DUP2 DUP5 LT PUSH2 0x16B5 JUMP JUMPDEST PUSH1 0x20 SWAP1 PUSH2 0x17AC PUSH2 0x2AD3 JUMP JUMPDEST DUP3 DUP3 DUP7 ADD ADD MSTORE ADD PUSH2 0x169B JUMP JUMPDEST POP DUP4 DUP6 LT PUSH2 0x1624 JUMP JUMPDEST CALLVALUE PUSH2 0x2C4 JUMPI PUSH1 0x20 CALLDATASIZE PUSH1 0x3 NOT ADD SLT PUSH2 0x2C4 JUMPI PUSH2 0x17DA PUSH2 0x37D4 JUMP JUMPDEST PUSH1 0x4 CALLDATALOAD PUSH1 0xD SSTORE STOP JUMPDEST CALLVALUE PUSH2 0x2C4 JUMPI PUSH1 0x40 CALLDATASIZE PUSH1 0x3 NOT ADD SLT PUSH2 0x2C4 JUMPI PUSH1 0x24 CALLDATALOAD PUSH1 0x3 DUP2 LT ISZERO PUSH2 0x2C4 JUMPI PUSH2 0x1813 SWAP1 PUSH2 0x180B PUSH2 0x3695 JUMP JUMPDEST PUSH1 0x4 CALLDATALOAD PUSH2 0x2D92 JUMP JUMPDEST PUSH1 0x1 PUSH0 MLOAD PUSH1 0x20 PUSH2 0x478C PUSH0 CODECOPY PUSH0 MLOAD SWAP1 PUSH0 MSTORE SSTORE STOP JUMPDEST CALLVALUE PUSH2 0x2C4 JUMPI PUSH1 0x20 CALLDATASIZE PUSH1 0x3 NOT ADD SLT PUSH2 0x2C4 JUMPI PUSH1 0x1 PUSH1 0x1 PUSH1 0xA0 SHL SUB PUSH2 0x1847 PUSH2 0x27C7 JUMP JUMPDEST AND PUSH0 MSTORE PUSH1 0x4 PUSH1 0x20 MSTORE PUSH1 0xE0 PUSH1 0x40 PUSH0 KECCAK256 PUSH1 0x1 DUP2 SLOAD SWAP2 ADD SLOAD PUSH4 0xFFFFFFFF PUSH1 0x40 MLOAD SWAP3 DUP2 DUP2 AND DUP5 MSTORE DUP2 DUP2 PUSH1 0x20 SHR AND PUSH1 0x20 DUP6 ADD MSTORE DUP2 DUP2 PUSH1 0x40 SHR AND PUSH1 0x40 DUP6 ADD MSTORE DUP2 DUP2 PUSH1 0x60 SHR AND PUSH1 0x60 DUP6 ADD MSTORE DUP2 DUP2 PUSH1 0x80 SHR AND PUSH1 0x80 DUP6 ADD MSTORE PUSH1 0xA0 SHR AND PUSH1 0xA0 DUP4 ADD MSTORE PUSH1 0xC0 DUP3 ADD MSTORE RETURN JUMPDEST CALLVALUE PUSH2 0x2C4 JUMPI PUSH2 0x18B4 CALLDATASIZE PUSH2 0x285C JUMP JUMPDEST SWAP1 PUSH2 0x18BD PUSH2 0x3695 JUMP JUMPDEST PUSH1 0xB SLOAD DUP2 LT ISZERO PUSH2 0x1A4D JUMPI PUSH1 0x10 SLOAD DUP3 LT ISZERO PUSH2 0x1A3E JUMPI DUP1 PUSH0 MSTORE PUSH1 0x11 PUSH1 0x20 MSTORE PUSH1 0x40 PUSH0 KECCAK256 DUP3 PUSH0 MSTORE PUSH1 0x20 MSTORE PUSH1 0x1 DUP1 PUSH1 0xA0 SHL SUB PUSH1 0x40 PUSH0 KECCAK256 SLOAD AND CALLER SUB PUSH2 0x1A2F JUMPI DUP1 PUSH0 MSTORE PUSH1 0x13 PUSH1 0x20 MSTORE PUSH1 0x40 PUSH0 KECCAK256 DUP3 PUSH0 MSTORE PUSH1 0x20 MSTORE PUSH1 0xFF PUSH1 0x40 PUSH0 KECCAK256 SLOAD AND PUSH2 0x1A20 JUMPI DUP1 PUSH0 MSTORE PUSH1 0x12 PUSH1 0x20 MSTORE PUSH2 0x192A DUP3 PUSH1 0x40 PUSH0 KECCAK256 SLOAD PUSH2 0x398D JUMP JUMPDEST PUSH0 DUP3 DUP2 MSTORE PUSH1 0x13 PUSH1 0x20 SWAP1 DUP2 MSTORE PUSH1 0x40 DUP1 DUP4 KECCAK256 DUP7 DUP5 MSTORE DUP3 MSTORE DUP1 DUP4 KECCAK256 DUP1 SLOAD PUSH1 0xFF NOT AND PUSH1 0x1 OR SWAP1 SSTORE MLOAD PUSH4 0xA9059CBB PUSH1 0xE0 SHL DUP2 MSTORE CALLER PUSH1 0x4 DUP3 ADD MSTORE PUSH1 0x24 DUP2 ADD DUP5 SWAP1 MSTORE SWAP2 DUP3 SWAP1 PUSH1 0x44 SWAP1 DUP3 SWAP1 PUSH32 0x0 PUSH1 0x1 PUSH1 0x1 PUSH1 0xA0 SHL SUB AND GAS CALL DUP1 ISZERO PUSH2 0x418 JUMPI PUSH2 0x19E9 JUMPI JUMPDEST POP PUSH1 0x40 MLOAD SWAP3 DUP4 MSTORE PUSH1 0x20 DUP4 ADD MSTORE PUSH32 0x608C8C3C6A3D40F40B96FBEE44F9B9AEE57A39C2FCB8BB0F59D8892B2D5492A2 PUSH1 0x40 CALLER SWAP4 LOG3 PUSH1 0x1 PUSH0 MLOAD PUSH1 0x20 PUSH2 0x478C PUSH0 CODECOPY PUSH0 MLOAD SWAP1 PUSH0 MSTORE SSTORE STOP JUMPDEST PUSH1 0x20 DUP2 RETURNDATASIZE PUSH1 0x20 GT PUSH2 0x1A18 JUMPI JUMPDEST DUP2 PUSH2 0x1A02 PUSH1 0x20 SWAP4 DUP4 PUSH2 0x2A30 JUMP JUMPDEST DUP2 ADD SUB SLT PUSH2 0x2C4 JUMPI PUSH2 0x1A13 SWAP1 PUSH2 0x2C59 JUMP JUMPDEST PUSH2 0x19A4 JUMP JUMPDEST RETURNDATASIZE SWAP2 POP PUSH2 0x19F5 JUMP JUMPDEST PUSH4 0xC8D9EAB PUSH1 0xE3 SHL PUSH0 MSTORE PUSH1 0x4 PUSH0 REVERT JUMPDEST PUSH4 0x6EE783D1 PUSH1 0xE1 SHL PUSH0 MSTORE PUSH1 0x4 PUSH0 REVERT JUMPDEST PUSH4 0x2BA5629 PUSH1 0xE6 SHL PUSH0 MSTORE PUSH1 0x4 PUSH0 REVERT JUMPDEST PUSH4 0x7221B37B PUSH1 0xE0 SHL PUSH0 MSTORE PUSH1 0x4 PUSH0 REVERT JUMPDEST CALLVALUE PUSH2 0x2C4 JUMPI PUSH0 CALLDATASIZE PUSH1 0x3 NOT ADD SLT PUSH2 0x2C4 JUMPI PUSH1 0x40 MLOAD PUSH32 0x0 PUSH1 0x1 PUSH1 0x1 PUSH1 0xA0 SHL SUB AND DUP2 MSTORE PUSH1 0x20 SWAP1 RETURN JUMPDEST CALLVALUE PUSH2 0x2C4 JUMPI PUSH0 CALLDATASIZE PUSH1 0x3 NOT ADD SLT PUSH2 0x2C4 JUMPI PUSH1 0x20 PUSH1 0x9 SLOAD PUSH1 0x40 MLOAD SWAP1 DUP2 MSTORE RETURN JUMPDEST CALLVALUE PUSH2 0x2C4 JUMPI PUSH0 CALLDATASIZE PUSH1 0x3 NOT ADD SLT PUSH2 0x2C4 JUMPI PUSH2 0x1AD5 PUSH2 0x37D4 JUMP JUMPDEST PUSH0 DUP1 SLOAD PUSH1 0x1 PUSH1 0x1 PUSH1 0xA0 SHL SUB NOT DUP2 AND DUP3 SSTORE PUSH1 0x1 PUSH1 0x1 PUSH1 0xA0 SHL SUB AND PUSH32 0x8BE0079C531659141344CD1FD0A4F28419497F9722A3DAAFE3B4186F6B6457E0 DUP3 DUP1 LOG3 STOP JUMPDEST CALLVALUE PUSH2 0x2C4 JUMPI PUSH1 0x20 CALLDATASIZE PUSH1 0x3 NOT ADD SLT PUSH2 0x2C4 JUMPI PUSH2 0x1B2D PUSH2 0x2AD3 JUMP JUMPDEST POP PUSH1 0x4 CALLDATALOAD PUSH0 MSTORE PUSH1 0x2 PUSH1 0x20 MSTORE PUSH2 0x240 PUSH2 0x1B47 PUSH1 0x40 PUSH0 KECCAK256 PUSH2 0x2B55 JUMP JUMPDEST PUSH2 0x1B54 PUSH1 0x40 MLOAD DUP1 SWAP3 PUSH2 0x288C JUMP JUMPDEST RETURN JUMPDEST CALLVALUE PUSH2 0x2C4 JUMPI PUSH1 0x20 PUSH2 0x1B6F PUSH2 0x1B69 CALLDATASIZE PUSH2 0x285C JUMP JUMPDEST SWAP1 PUSH2 0x2AAD JUMP JUMPDEST PUSH1 0x40 MLOAD SWAP1 DUP2 MSTORE RETURN JUMPDEST CALLVALUE PUSH2 0x2C4 JUMPI PUSH1 0x20 CALLDATASIZE PUSH1 0x3 NOT ADD SLT PUSH2 0x2C4 JUMPI PUSH1 0x4 CALLDATALOAD PUSH0 MSTORE PUSH1 0x2 PUSH1 0x20 MSTORE PUSH2 0x240 PUSH1 0x40 PUSH0 KECCAK256 DUP1 SLOAD SWAP1 PUSH1 0x1 DUP1 PUSH1 0xA0 SHL SUB PUSH1 0x1 DUP3 ADD SLOAD AND SWAP1 PUSH1 0x1 DUP1 PUSH1 0xA0 SHL SUB PUSH1 0x2 DUP3 ADD SLOAD AND PUSH1 0x3 DUP3 ADD SLOAD PUSH1 0x4 DUP4 ADD SLOAD SWAP1 PUSH1 0x5 DUP5 ADD SLOAD SWAP3 PUSH1 0x7 PUSH1 0x6 DUP7 ADD SLOAD SWAP6 ADD SLOAD SWAP6 PUSH1 0x40 MLOAD SWAP8 DUP9 MSTORE PUSH1 0x20 DUP9 ADD MSTORE PUSH1 0x40 DUP8 ADD MSTORE PUSH1 0x60 DUP7 ADD MSTORE PUSH1 0x80 DUP6 ADD MSTORE DUP1 PUSH1 0x1 SIGNEXTEND PUSH1 0xA0 DUP6 ADD MSTORE DUP1 PUSH1 0x10 SHR PUSH1 0x1 SIGNEXTEND PUSH1 0xC0 DUP6 ADD MSTORE PUSH1 0xFF DUP2 PUSH1 0x20 SHR AND PUSH1 0xE0 DUP6 ADD MSTORE PUSH1 0xFF DUP2 PUSH1 0x28 SHR AND PUSH2 0x100 DUP6 ADD MSTORE PUSH1 0xFF DUP2 PUSH1 0x30 SHR AND PUSH2 0x120 DUP6 ADD MSTORE PUSH1 0xFF DUP2 PUSH1 0x38 SHR AND ISZERO ISZERO PUSH2 0x140 DUP6 ADD MSTORE PUSH1 0xFF DUP2 PUSH1 0x40 SHR AND PUSH2 0x160 DUP6 ADD MSTORE PUSH1 0xFF DUP2 PUSH1 0x48 SHR AND PUSH2 0x180 DUP6 ADD MSTORE PUSH2 0x1C65 PUSH2 0x1A0 DUP6 ADD PUSH1 0xFF DUP4 PUSH1 0x50 SHR AND PUSH2 0x2872 JUMP JUMPDEST PUSH2 0x1C79 PUSH2 0x1C0 DUP6 ADD PUSH1 0xFF DUP4 PUSH1 0x58 SHR AND PUSH2 0x287F JUMP JUMPDEST PUSH1 0x60 SHR PUSH2 0x1E0 DUP5 ADD MSTORE PUSH2 0x200 DUP4 ADD MSTORE PUSH2 0x220 DUP3 ADD MSTORE RETURN JUMPDEST CALLVALUE PUSH2 0x2C4 JUMPI PUSH0 CALLDATASIZE PUSH1 0x3 NOT ADD SLT PUSH2 0x2C4 JUMPI PUSH1 0xE0 PUSH1 0x9 SLOAD PUSH1 0xB SLOAD PUSH2 0x1CB7 PUSH1 0xC SLOAD PUSH1 0xD SLOAD SWAP1 PUSH2 0x29B0 JUMP JUMPDEST PUSH1 0x15 SLOAD PUSH1 0x7 SLOAD SWAP1 PUSH1 0xE SLOAD SWAP3 PUSH1 0x10 SLOAD SWAP5 PUSH1 0x40 MLOAD SWAP7 DUP8 MSTORE PUSH1 0x20 DUP8 ADD MSTORE PUSH1 0x40 DUP7 ADD MSTORE PUSH1 0x60 DUP6 ADD MSTORE PUSH1 0x80 DUP5 ADD MSTORE PUSH1 0xA0 DUP4 ADD MSTORE PUSH1 0xC0 DUP3 ADD MSTORE RETURN JUMPDEST CALLVALUE PUSH2 0x2C4 JUMPI PUSH1 0x20 CALLDATASIZE PUSH1 0x3 NOT ADD SLT PUSH2 0x2C4 JUMPI PUSH1 0x4 CALLDATALOAD PUSH2 0x1D08 PUSH2 0x3695 JUMP JUMPDEST PUSH0 DUP2 DUP2 MSTORE PUSH1 0x2 PUSH1 0x20 MSTORE PUSH1 0x40 SWAP1 KECCAK256 PUSH1 0x1 DUP2 ADD SLOAD PUSH1 0x1 PUSH1 0x1 PUSH1 0xA0 SHL SUB AND CALLER SUB PUSH2 0x1DA1 JUMPI PUSH1 0x5 ADD PUSH1 0xFF DUP2 SLOAD PUSH1 0x50 SHR AND PUSH1 0x4 DUP2 LT ISZERO PUSH2 0x828 JUMPI PUSH2 0x819 JUMPI DUP1 SLOAD PUSH1 0xFF PUSH1 0x50 SHL NOT AND PUSH1 0x3 PUSH1 0x50 SHL OR SWAP1 SSTORE CALLER PUSH0 DUP2 DUP2 MSTORE PUSH1 0x5 PUSH1 0x20 MSTORE PUSH1 0x40 DUP2 KECCAK256 SSTORE PUSH2 0x1D6A SWAP1 PUSH2 0x36EB JUMP JUMPDEST PUSH32 0xE10FD8C156678D18DF7DAF6DD3E15B95C6D350EE99272630FCAD6DDE9BEF0D0C PUSH0 DUP1 LOG2 PUSH1 0x1 PUSH0 MLOAD PUSH1 0x20 PUSH2 0x478C PUSH0 CODECOPY PUSH0 MLOAD SWAP1 PUSH0 MSTORE SSTORE STOP JUMPDEST PUSH4 0x4B400BE5 PUSH1 0xE1 SHL PUSH0 MSTORE PUSH1 0x4 PUSH0 REVERT JUMPDEST CALLVALUE PUSH2 0x2C4 JUMPI PUSH2 0x1DBE CALLDATASIZE PUSH2 0x285C JUMP JUMPDEST SWAP1 PUSH0 MSTORE PUSH1 0x3 PUSH1 0x20 MSTORE PUSH1 0x40 PUSH0 KECCAK256 DUP1 SLOAD DUP3 LT ISZERO PUSH2 0x2C4 JUMPI PUSH1 0xC0 SWAP2 PUSH2 0x1DDF SWAP2 PUSH2 0x2847 JUMP JUMPDEST POP SLOAD PUSH1 0x40 MLOAD SWAP1 PUSH1 0xFF DUP2 AND DUP3 MSTORE PUSH1 0x1 DUP1 PUSH1 0xA0 SHL SUB DUP2 PUSH1 0x8 SHR AND PUSH1 0x20 DUP4 ADD MSTORE PUSH2 0x1E0F PUSH1 0x40 DUP4 ADD PUSH1 0xFF DUP4 PUSH1 0xA8 SHR AND PUSH2 0x280E JUMP JUMPDEST PUSH2 0xFFFF DUP2 PUSH1 0xB0 SHR AND PUSH1 0x60 DUP4 ADD MSTORE DUP1 DUP4 SHR PUSH1 0x1 SIGNEXTEND PUSH1 0x80 DUP4 ADD MSTORE PUSH1 0xD0 SHR PUSH1 0x1 SIGNEXTEND PUSH1 0xA0 DUP3 ADD MSTORE RETURN JUMPDEST CALLVALUE PUSH2 0x2C4 JUMPI PUSH1 0x20 CALLDATASIZE PUSH1 0x3 NOT ADD SLT PUSH2 0x2C4 JUMPI PUSH1 0x4 CALLDATALOAD PUSH1 0xF SLOAD DUP2 LT ISZERO PUSH2 0x2C4 JUMPI PUSH2 0x1E5D PUSH1 0x20 SWAP2 PUSH2 0x281B JUMP JUMPDEST SWAP1 SLOAD SWAP1 PUSH1 0x3 SHL SHR PUSH1 0x40 MLOAD SWAP1 DUP2 MSTORE RETURN JUMPDEST CALLVALUE PUSH2 0x2C4 JUMPI PUSH0 CALLDATASIZE PUSH1 0x3 NOT ADD SLT PUSH2 0x2C4 JUMPI PUSH1 0x20 PUSH1 0x10 SLOAD PUSH1 0x40 MLOAD SWAP1 DUP2 MSTORE RETURN JUMPDEST CALLVALUE PUSH2 0x2C4 JUMPI PUSH0 CALLDATASIZE PUSH1 0x3 NOT ADD SLT PUSH2 0x2C4 JUMPI PUSH1 0x20 PUSH1 0x40 MLOAD PUSH2 0x7D0 DUP2 MSTORE RETURN JUMPDEST CALLVALUE PUSH2 0x2C4 JUMPI PUSH0 CALLDATASIZE PUSH1 0x3 NOT ADD SLT PUSH2 0x2C4 JUMPI PUSH1 0x20 PUSH1 0x40 MLOAD PUSH1 0x5 DUP2 MSTORE RETURN JUMPDEST CALLVALUE PUSH2 0x2C4 JUMPI PUSH0 CALLDATASIZE PUSH1 0x3 NOT ADD SLT PUSH2 0x2C4 JUMPI PUSH1 0x20 PUSH1 0xE SLOAD PUSH1 0x40 MLOAD SWAP1 DUP2 MSTORE RETURN JUMPDEST CALLVALUE PUSH2 0x2C4 JUMPI PUSH1 0x20 CALLDATASIZE PUSH1 0x3 NOT ADD SLT PUSH2 0x2C4 JUMPI PUSH1 0x1 PUSH1 0x1 PUSH1 0xA0 SHL SUB PUSH2 0x1EFE PUSH2 0x27C7 JUMP JUMPDEST AND PUSH0 MSTORE PUSH1 0x5 PUSH1 0x20 MSTORE PUSH1 0x20 PUSH1 0x40 PUSH0 KECCAK256 SLOAD PUSH1 0x40 MLOAD SWAP1 DUP2 MSTORE RETURN JUMPDEST CALLVALUE PUSH2 0x2C4 JUMPI PUSH0 CALLDATASIZE PUSH1 0x3 NOT ADD SLT PUSH2 0x2C4 JUMPI PUSH1 0x20 PUSH1 0x1 SLOAD PUSH1 0x40 MLOAD SWAP1 DUP2 MSTORE RETURN JUMPDEST CALLVALUE PUSH2 0x2C4 JUMPI PUSH0 CALLDATASIZE PUSH1 0x3 NOT ADD SLT PUSH2 0x2C4 JUMPI PUSH1 0x20 PUSH1 0x15 SLOAD PUSH1 0x40 MLOAD SWAP1 DUP2 MSTORE RETURN JUMPDEST CALLVALUE PUSH2 0x2C4 JUMPI PUSH0 CALLDATASIZE PUSH1 0x3 NOT ADD SLT PUSH2 0x2C4 JUMPI PUSH1 0x20 PUSH1 0x40 MLOAD PUSH1 0xB4 DUP2 MSTORE RETURN JUMPDEST CALLVALUE PUSH2 0x2C4 JUMPI PUSH1 0x20 CALLDATASIZE PUSH1 0x3 NOT ADD SLT PUSH2 0x2C4 JUMPI PUSH1 0x4 CALLDATALOAD PUSH2 0x1F86 PUSH2 0x3695 JUMP JUMPDEST DUP1 PUSH0 MSTORE PUSH1 0x2 PUSH1 0x20 MSTORE PUSH1 0x40 PUSH0 KECCAK256 SWAP1 PUSH1 0x1 DUP3 ADD PUSH1 0x1 DUP1 PUSH1 0xA0 SHL SUB DUP2 SLOAD AND CALLER EQ SWAP1 PUSH1 0x2 DUP5 ADD SWAP2 PUSH1 0x1 DUP1 PUSH1 0xA0 SHL SUB DUP4 SLOAD AND CALLER EQ DUP2 ISZERO SWAP1 DUP2 PUSH2 0x21EA JUMPI JUMPDEST POP PUSH2 0x1DA1 JUMPI PUSH1 0x5 DUP6 ADD SWAP5 PUSH1 0xFF DUP7 SLOAD PUSH1 0x50 SHR AND PUSH1 0x4 DUP2 LT ISZERO PUSH2 0x828 JUMPI PUSH1 0x1 SUB PUSH2 0x21DB JUMPI DUP6 SLOAD PUSH1 0xFF PUSH1 0x50 SHL NOT AND PUSH1 0x1 PUSH1 0x51 SHL OR DUP7 SSTORE TIMESTAMP PUSH1 0x7 SWAP2 SWAP1 SWAP2 ADD SSTORE ISZERO PUSH2 0x2193 JUMPI PUSH1 0xFF DUP5 SLOAD PUSH1 0x58 SHR AND PUSH1 0x2 DUP2 LT ISZERO PUSH2 0x828 JUMPI ISZERO DUP1 PUSH2 0x2180 JUMPI JUMPDEST ISZERO PUSH2 0x2177 JUMPI DUP2 SLOAD PUSH2 0x204B SWAP1 PUSH1 0x1 PUSH1 0x1 PUSH1 0xA0 SHL SUB AND JUMPDEST DUP6 SLOAD PUSH1 0x1 PUSH1 0x1 PUSH1 0x60 SHL SUB AND PUSH1 0x60 SWAP2 SWAP1 SWAP2 SHL PUSH1 0x1 PUSH1 0x1 PUSH1 0x60 SHL SUB NOT AND OR DUP6 SSTORE JUMP JUMPDEST DUP1 SLOAD PUSH2 0x205F SWAP1 PUSH1 0x1 PUSH1 0x1 PUSH1 0xA0 SHL SUB AND PUSH2 0x3811 JUMP JUMPDEST PUSH1 0xFF DUP5 SLOAD PUSH1 0x58 SHR AND PUSH1 0x2 DUP2 LT ISZERO PUSH2 0x828 JUMPI ISZERO DUP1 PUSH2 0x2163 JUMPI JUMPDEST DUP1 PUSH2 0x2150 JUMPI JUMPDEST PUSH2 0x2137 JUMPI JUMPDEST SLOAD PUSH1 0x1 PUSH1 0x1 PUSH1 0xA0 SHL SUB SWAP1 DUP2 AND PUSH0 SWAP1 DUP2 MSTORE PUSH1 0x5 PUSH1 0x20 MSTORE PUSH1 0x40 DUP2 KECCAK256 SSTORE SWAP1 SLOAD AND ADDRESS DUP2 SUB PUSH2 0x2124 JUMPI JUMPDEST POP PUSH2 0x20B3 PUSH1 0x15 SLOAD PUSH2 0x29CD JUMP JUMPDEST PUSH1 0x15 SSTORE PUSH32 0x6ECE8C7A0814E499368677ABB88C44F55F86F4BDB83665CB2BBEE15321AE78D8 PUSH1 0x20 PUSH1 0x40 MLOAD SWAP4 CALLER DUP5 PUSH32 0xB553D7DE984C6037119480BD7720E3FB2F3802A5F89A3645A81D30526CEABFD3 PUSH0 DUP1 LOG3 SLOAD PUSH1 0xFF DUP2 DUP4 SHR AND DUP6 MSTORE PUSH1 0x60 SHR SWAP4 LOG3 PUSH1 0x1 PUSH0 MLOAD PUSH1 0x20 PUSH2 0x478C PUSH0 CODECOPY PUSH0 MLOAD SWAP1 PUSH0 MSTORE SSTORE STOP JUMPDEST PUSH0 MSTORE PUSH1 0x5 PUSH1 0x20 MSTORE PUSH0 PUSH1 0x40 DUP2 KECCAK256 SSTORE DUP3 PUSH2 0x20A7 JUMP JUMPDEST DUP2 SLOAD PUSH2 0x214B SWAP1 PUSH1 0x1 PUSH1 0x1 PUSH1 0xA0 SHL SUB AND PUSH2 0x3895 JUMP JUMPDEST PUSH2 0x2082 JUMP JUMPDEST POP DUP2 SLOAD PUSH1 0x1 PUSH1 0x1 PUSH1 0xA0 SHL SUB AND ISZERO ISZERO PUSH2 0x207D JUMP JUMPDEST POP DUP2 SLOAD PUSH1 0x1 PUSH1 0x1 PUSH1 0xA0 SHL SUB AND ADDRESS EQ ISZERO PUSH2 0x2077 JUMP JUMPDEST PUSH2 0x204B PUSH0 PUSH2 0x202B JUMP JUMPDEST POP DUP2 SLOAD PUSH1 0x1 PUSH1 0x1 PUSH1 0xA0 SHL SUB AND ISZERO ISZERO PUSH2 0x2016 JUMP JUMPDEST DUP1 SLOAD DUP5 SLOAD PUSH1 0x1 PUSH1 0x1 PUSH1 0x60 SHL SUB AND PUSH1 0x60 SWAP2 SWAP1 SWAP2 SHL PUSH1 0x1 PUSH1 0x1 PUSH1 0x60 SHL SUB NOT AND OR DUP5 SSTORE DUP2 SLOAD PUSH2 0x21C7 SWAP1 PUSH1 0x1 PUSH1 0x1 PUSH1 0xA0 SHL SUB AND PUSH2 0x3811 JUMP JUMPDEST DUP1 SLOAD PUSH2 0x214B SWAP1 PUSH1 0x1 PUSH1 0x1 PUSH1 0xA0 SHL SUB AND PUSH2 0x3895 JUMP JUMPDEST PUSH4 0x792C9679 PUSH1 0xE1 SHL PUSH0 MSTORE PUSH1 0x4 PUSH0 REVERT JUMPDEST SWAP1 POP ISZERO DUP7 PUSH2 0x1FBE JUMP JUMPDEST CALLVALUE PUSH2 0x2C4 JUMPI PUSH0 CALLDATASIZE PUSH1 0x3 NOT ADD SLT PUSH2 0x2C4 JUMPI PUSH1 0x20 PUSH1 0x8 SLOAD PUSH1 0x40 MLOAD SWAP1 DUP2 MSTORE RETURN JUMPDEST CALLVALUE PUSH2 0x2C4 JUMPI PUSH0 CALLDATASIZE PUSH1 0x3 NOT ADD SLT PUSH2 0x2C4 JUMPI PUSH1 0x20 PUSH2 0x1B6F PUSH2 0x2A83 JUMP JUMPDEST CALLVALUE PUSH2 0x2C4 JUMPI PUSH0 CALLDATASIZE PUSH1 0x3 NOT ADD SLT PUSH2 0x2C4 JUMPI PUSH1 0x20 PUSH1 0xA SLOAD PUSH1 0x40 MLOAD SWAP1 DUP2 MSTORE RETURN JUMPDEST CALLVALUE PUSH2 0x2C4 JUMPI PUSH1 0x20 CALLDATASIZE PUSH1 0x3 NOT ADD SLT PUSH2 0x2C4 JUMPI PUSH1 0x4 CALLDATALOAD PUSH0 MSTORE PUSH1 0x3 PUSH1 0x20 MSTORE PUSH1 0x40 PUSH0 KECCAK256 DUP1 SLOAD SWAP1 PUSH2 0x2272 DUP3 PUSH2 0x2A52 JUMP JUMPDEST SWAP2 PUSH2 0x2280 PUSH1 0x40 MLOAD SWAP4 DUP5 PUSH2 0x2A30 JUMP JUMPDEST DUP1 DUP4 MSTORE PUSH1 0x20 DUP4 ADD DUP1 SWAP3 PUSH0 MSTORE PUSH1 0x20 PUSH0 KECCAK256 PUSH0 SWAP2 JUMPDEST DUP4 DUP4 LT PUSH2 0x232B JUMPI DUP5 DUP7 PUSH1 0x40 MLOAD SWAP2 DUP3 SWAP2 PUSH1 0x20 DUP4 ADD SWAP1 PUSH1 0x20 DUP5 MSTORE MLOAD DUP1 SWAP2 MSTORE PUSH1 0x40 DUP4 ADD SWAP2 SWAP1 PUSH0 JUMPDEST DUP2 DUP2 LT PUSH2 0x22C4 JUMPI POP POP POP SUB SWAP1 RETURN JUMPDEST SWAP2 SWAP4 POP SWAP2 PUSH1 0x20 PUSH1 0xC0 PUSH1 0x1 SWAP3 PUSH1 0xA0 DUP8 MLOAD PUSH1 0xFF DUP2 MLOAD AND DUP4 MSTORE DUP6 DUP1 DUP4 SHL SUB DUP6 DUP3 ADD MLOAD AND DUP6 DUP5 ADD MSTORE PUSH2 0x22FA PUSH1 0x40 DUP3 ADD MLOAD PUSH1 0x40 DUP6 ADD SWAP1 PUSH2 0x280E JUMP JUMPDEST PUSH2 0xFFFF PUSH1 0x60 DUP3 ADD MLOAD AND PUSH1 0x60 DUP5 ADD MSTORE PUSH1 0x80 DUP2 ADD MLOAD DUP7 SIGNEXTEND PUSH1 0x80 DUP5 ADD MSTORE ADD MLOAD DUP5 SIGNEXTEND PUSH1 0xA0 DUP3 ADD MSTORE ADD SWAP5 ADD SWAP2 ADD SWAP2 DUP5 SWAP4 SWAP3 PUSH2 0x22B6 JUMP JUMPDEST PUSH1 0x1 PUSH1 0x20 DUP2 SWAP3 PUSH1 0x40 MLOAD PUSH2 0x233D DUP2 PUSH2 0x29DB JUMP JUMPDEST DUP6 SLOAD PUSH1 0xFF DUP2 AND DUP3 MSTORE DUP5 DUP1 PUSH1 0xA0 SHL SUB DUP2 PUSH1 0x8 SHR AND DUP5 DUP4 ADD MSTORE PUSH2 0x2367 PUSH1 0xFF DUP3 PUSH1 0xA8 SHR AND PUSH1 0x40 DUP5 ADD PUSH2 0x2A6A JUMP JUMPDEST PUSH2 0xFFFF DUP2 PUSH1 0xB0 SHR AND PUSH1 0x60 DUP4 ADD MSTORE DUP1 PUSH1 0xC0 SHR DUP6 SIGNEXTEND PUSH1 0x80 DUP4 ADD MSTORE PUSH1 0xD0 SHR DUP5 SIGNEXTEND PUSH1 0xA0 DUP3 ADD MSTORE DUP2 MSTORE ADD SWAP3 ADD SWAP3 ADD SWAP2 SWAP1 PUSH2 0x2292 JUMP JUMPDEST CALLVALUE PUSH2 0x2C4 JUMPI PUSH1 0x20 CALLDATASIZE PUSH1 0x3 NOT ADD SLT PUSH2 0x2C4 JUMPI PUSH1 0x4 CALLDATALOAD PUSH8 0xFFFFFFFFFFFFFFFF DUP2 GT PUSH2 0x2C4 JUMPI PUSH2 0x23C8 SWAP1 CALLDATASIZE SWAP1 PUSH1 0x4 ADD PUSH2 0x27DD JUMP JUMPDEST PUSH2 0x23D0 PUSH2 0x37D4 JUMP JUMPDEST PUSH2 0x23DF PUSH1 0xC SLOAD PUSH1 0xD SLOAD SWAP1 PUSH2 0x29B0 JUMP JUMPDEST TIMESTAMP LT PUSH2 0x2528 JUMPI PUSH1 0x10 SLOAD DUP2 GT PUSH2 0x24F0 JUMPI PUSH1 0xB SLOAD SWAP2 PUSH1 0x9 SLOAD SWAP2 PUSH0 JUMPDEST DUP2 DUP2 LT PUSH2 0x249B JUMPI POP DUP4 PUSH0 MSTORE PUSH1 0x12 PUSH1 0x20 MSTORE DUP3 PUSH1 0x40 PUSH0 KECCAK256 SSTORE PUSH0 PUSH1 0x9 SSTORE PUSH2 0x241D PUSH1 0xB SLOAD PUSH2 0x29CD JUMP JUMPDEST PUSH1 0xB SSTORE TIMESTAMP PUSH1 0xC SSTORE DUP1 PUSH1 0x40 MLOAD SWAP4 PUSH1 0x40 DUP6 ADD SWAP1 DUP6 MSTORE PUSH1 0x40 PUSH1 0x20 DUP7 ADD MSTORE MSTORE PUSH1 0x60 DUP4 ADD SWAP2 SWAP1 PUSH0 SWAP1 JUMPDEST DUP1 DUP3 LT PUSH2 0x2471 JUMPI DUP6 PUSH32 0x60ADCB75EE5C9FD534A467F9F54A34F58A8532F615C0DEADB38F85EB32E814D0 DUP7 DUP7 SUB DUP8 LOG2 STOP JUMPDEST SWAP1 SWAP2 SWAP3 DUP4 CALLDATALOAD SWAP1 PUSH1 0x1 DUP1 PUSH1 0xA0 SHL SUB DUP3 AND DUP1 SWAP3 SUB PUSH2 0x2C4 JUMPI PUSH1 0x20 DUP2 PUSH1 0x1 SWAP4 DUP3 SWAP4 MSTORE ADD SWAP5 ADD SWAP3 ADD SWAP1 PUSH2 0x2441 JUMP JUMPDEST PUSH2 0x24A6 DUP2 DUP4 DUP6 PUSH2 0x29BD JUMP JUMPDEST CALLDATALOAD SWAP1 PUSH1 0x1 PUSH1 0x1 PUSH1 0xA0 SHL SUB DUP3 AND DUP3 SUB PUSH2 0x2C4 JUMPI PUSH1 0x1 SWAP2 DUP7 PUSH0 MSTORE PUSH1 0x11 PUSH1 0x20 MSTORE PUSH1 0x40 PUSH0 KECCAK256 DUP3 PUSH0 MSTORE PUSH1 0x20 MSTORE PUSH1 0x40 PUSH0 KECCAK256 SWAP1 DUP4 DUP1 PUSH1 0xA0 SHL SUB AND PUSH1 0x1 PUSH1 0x1 PUSH1 0x60 SHL SUB PUSH1 0xA0 SHL DUP3 SLOAD AND OR SWAP1 SSTORE ADD PUSH2 0x23F8 JUMP JUMPDEST PUSH1 0x40 MLOAD PUSH3 0x461BCD PUSH1 0xE5 SHL DUP2 MSTORE PUSH1 0x20 PUSH1 0x4 DUP3 ADD MSTORE PUSH1 0x10 PUSH1 0x24 DUP3 ADD MSTORE PUSH16 0x546F6F206D616E7920706C6179657273 PUSH1 0x80 SHL PUSH1 0x44 DUP3 ADD MSTORE PUSH1 0x64 SWAP1 REVERT JUMPDEST PUSH4 0x141189CF PUSH1 0xE3 SHL PUSH0 MSTORE PUSH1 0x4 PUSH0 REVERT JUMPDEST CALLVALUE PUSH2 0x2C4 JUMPI PUSH1 0x20 CALLDATASIZE PUSH1 0x3 NOT ADD SLT PUSH2 0x2C4 JUMPI PUSH1 0x4 CALLDATALOAD PUSH2 0x2553 PUSH2 0x37D4 JUMP JUMPDEST PUSH2 0x7D0 DUP2 GT PUSH2 0x2561 JUMPI PUSH1 0x8 SSTORE STOP JUMPDEST PUSH4 0x58D620B3 PUSH1 0xE0 SHL PUSH0 MSTORE PUSH1 0x4 PUSH0 REVERT JUMPDEST CALLVALUE PUSH2 0x2C4 JUMPI PUSH1 0x20 CALLDATASIZE PUSH1 0x3 NOT ADD SLT PUSH2 0x2C4 JUMPI PUSH1 0xFF PUSH2 0x258B PUSH2 0x27A1 JUMP JUMPDEST AND PUSH0 MSTORE PUSH1 0x6 PUSH1 0x20 MSTORE PUSH1 0x20 PUSH1 0xFF PUSH1 0x40 PUSH0 KECCAK256 SLOAD AND PUSH1 0x40 MLOAD SWAP1 DUP2 MSTORE RETURN JUMPDEST CALLVALUE PUSH2 0x2C4 JUMPI PUSH1 0x20 CALLDATASIZE PUSH1 0x3 NOT ADD SLT PUSH2 0x2C4 JUMPI PUSH1 0x4 CALLDATALOAD PUSH2 0x25C1 PUSH2 0x3695 JUMP JUMPDEST DUP1 PUSH0 MSTORE PUSH1 0x2 PUSH1 0x20 MSTORE PUSH1 0x40 PUSH0 KECCAK256 PUSH1 0x1 DUP2 ADD SWAP1 PUSH1 0x1 DUP1 PUSH1 0xA0 SHL SUB DUP3 SLOAD AND CALLER EQ SWAP1 PUSH1 0x2 DUP2 ADD SWAP2 PUSH1 0x1 DUP1 PUSH1 0xA0 SHL SUB DUP4 SLOAD AND CALLER EQ SWAP1 ISZERO SWAP1 DUP2 PUSH2 0x277E JUMPI JUMPDEST POP PUSH2 0x1DA1 JUMPI PUSH1 0x5 DUP2 ADD DUP1 SLOAD PUSH1 0xFF DUP2 PUSH1 0x50 SHR AND PUSH1 0x4 DUP2 LT ISZERO PUSH2 0x828 JUMPI PUSH1 0x1 SUB PUSH2 0x21DB JUMPI PUSH1 0xFF PUSH1 0x2 SWAP2 PUSH1 0x20 SHR AND GT PUSH2 0x276F JUMPI DUP1 SLOAD PUSH1 0xFF PUSH1 0x50 SHL NOT AND PUSH1 0x3 PUSH1 0x50 SHL OR DUP2 SSTORE TIMESTAMP PUSH1 0x7 SWAP1 SWAP3 ADD SWAP2 SWAP1 SWAP2 SSTORE DUP3 SLOAD PUSH1 0x1 PUSH1 0x1 PUSH1 0xA0 SHL SUB SWAP1 DUP2 AND PUSH0 SWAP1 DUP2 MSTORE PUSH1 0x5 PUSH1 0x20 MSTORE PUSH1 0x40 DUP2 KECCAK256 SSTORE DUP3 SLOAD PUSH1 0xFF SWAP3 SWAP2 AND ADDRESS DUP2 SUB PUSH2 0x275C JUMPI JUMPDEST POP SLOAD PUSH1 0x58 SHR AND PUSH1 0x2 DUP2 LT ISZERO PUSH2 0x828 JUMPI PUSH1 0x1 SUB PUSH2 0x26F5 JUMPI POP SLOAD PUSH2 0x2698 SWAP1 PUSH1 0x1 PUSH1 0x1 PUSH1 0xA0 SHL SUB AND PUSH2 0x36EB JUMP JUMPDEST CALLER DUP2 PUSH32 0xA4262D2B40A2CEE3044E9392C8668B69A5D135EA0AD29D0AD69CAF59F0B95F59 PUSH0 DUP1 LOG3 PUSH32 0xE10FD8C156678D18DF7DAF6DD3E15B95C6D350EE99272630FCAD6DDE9BEF0D0C PUSH0 DUP1 LOG2 PUSH1 0x1 PUSH0 MLOAD PUSH1 0x20 PUSH2 0x478C PUSH0 CODECOPY PUSH0 MLOAD SWAP1 PUSH0 MSTORE SSTORE STOP JUMPDEST DUP1 SLOAD PUSH1 0x1 PUSH1 0x1 PUSH1 0xA0 SHL SUB AND DUP1 ISZERO ISZERO SWAP1 DUP2 PUSH2 0x2751 JUMPI JUMPDEST POP ISZERO PUSH2 0x273D JUMPI SWAP1 SLOAD PUSH2 0x2738 SWAP2 SWAP1 PUSH2 0x2729 SWAP1 PUSH1 0x1 PUSH1 0x1 PUSH1 0xA0 SHL SUB AND PUSH2 0x36EB JUMP JUMPDEST SLOAD PUSH1 0x1 PUSH1 0x1 PUSH1 0xA0 SHL SUB AND PUSH2 0x36EB JUMP JUMPDEST PUSH2 0x2698 JUMP JUMPDEST POP SLOAD PUSH2 0x2738 SWAP1 PUSH1 0x1 PUSH1 0x1 PUSH1 0xA0 SHL SUB AND PUSH2 0x36EB JUMP JUMPDEST SWAP1 POP ADDRESS EQ ISZERO DUP5 PUSH2 0x270A JUMP JUMPDEST PUSH0 MSTORE PUSH1 0x5 PUSH1 0x20 MSTORE PUSH0 PUSH1 0x40 DUP2 KECCAK256 SSTORE DUP6 PUSH2 0x266E JUMP JUMPDEST PUSH4 0x8ACECE11 PUSH1 0xE0 SHL PUSH0 MSTORE PUSH1 0x4 PUSH0 REVERT JUMPDEST SWAP1 POP ISZERO DUP6 PUSH2 0x25F9 JUMP JUMPDEST CALLVALUE PUSH2 0x2C4 JUMPI PUSH0 CALLDATASIZE PUSH1 0x3 NOT ADD SLT PUSH2 0x2C4 JUMPI PUSH1 0x20 SWAP1 PUSH1 0x7 SLOAD DUP2 MSTORE RETURN JUMPDEST PUSH1 0x4 CALLDATALOAD SWAP1 PUSH1 0xFF DUP3 AND DUP3 SUB PUSH2 0x2C4 JUMPI JUMP JUMPDEST PUSH1 0x24 CALLDATALOAD SWAP1 PUSH1 0x1 PUSH1 0x1 PUSH1 0xA0 SHL SUB DUP3 AND DUP3 SUB PUSH2 0x2C4 JUMPI JUMP JUMPDEST PUSH1 0x4 CALLDATALOAD SWAP1 PUSH1 0x1 PUSH1 0x1 PUSH1 0xA0 SHL SUB DUP3 AND DUP3 SUB PUSH2 0x2C4 JUMPI JUMP JUMPDEST SWAP2 DUP2 PUSH1 0x1F DUP5 ADD SLT ISZERO PUSH2 0x2C4 JUMPI DUP3 CALLDATALOAD SWAP2 PUSH8 0xFFFFFFFFFFFFFFFF DUP4 GT PUSH2 0x2C4 JUMPI PUSH1 0x20 DUP1 DUP6 ADD SWAP5 DUP5 PUSH1 0x5 SHL ADD ADD GT PUSH2 0x2C4 JUMPI JUMP JUMPDEST SWAP1 PUSH1 0x3 DUP3 LT ISZERO PUSH2 0x828 JUMPI MSTORE JUMP JUMPDEST PUSH1 0xF SLOAD DUP2 LT ISZERO PUSH2 0x2833 JUMPI PUSH1 0xF PUSH0 MSTORE PUSH1 0x20 PUSH0 KECCAK256 ADD SWAP1 PUSH0 SWAP1 JUMP JUMPDEST PUSH4 0x4E487B71 PUSH1 0xE0 SHL PUSH0 MSTORE PUSH1 0x32 PUSH1 0x4 MSTORE PUSH1 0x24 PUSH0 REVERT JUMPDEST DUP1 SLOAD DUP3 LT ISZERO PUSH2 0x2833 JUMPI PUSH0 MSTORE PUSH1 0x20 PUSH0 KECCAK256 ADD SWAP1 PUSH0 SWAP1 JUMP JUMPDEST PUSH1 0x40 SWAP1 PUSH1 0x3 NOT ADD SLT PUSH2 0x2C4 JUMPI PUSH1 0x4 CALLDATALOAD SWAP1 PUSH1 0x24 CALLDATALOAD SWAP1 JUMP JUMPDEST SWAP1 PUSH1 0x4 DUP3 LT ISZERO PUSH2 0x828 JUMPI MSTORE JUMP JUMPDEST SWAP1 PUSH1 0x2 DUP3 LT ISZERO PUSH2 0x828 JUMPI MSTORE JUMP JUMPDEST PUSH2 0x220 DUP1 SWAP2 DUP1 MLOAD DUP5 MSTORE PUSH1 0x1 DUP1 PUSH1 0xA0 SHL SUB PUSH1 0x20 DUP3 ADD MLOAD AND PUSH1 0x20 DUP6 ADD MSTORE PUSH1 0x1 DUP1 PUSH1 0xA0 SHL SUB PUSH1 0x40 DUP3 ADD MLOAD AND PUSH1 0x40 DUP6 ADD MSTORE PUSH1 0x60 DUP2 ADD MLOAD PUSH1 0x60 DUP6 ADD MSTORE PUSH1 0x80 DUP2 ADD MLOAD PUSH1 0x80 DUP6 ADD MSTORE PUSH1 0xA0 DUP2 ADD MLOAD PUSH1 0x1 SIGNEXTEND PUSH1 0xA0 DUP6 ADD MSTORE PUSH1 0xC0 DUP2 ADD MLOAD PUSH1 0x1 SIGNEXTEND PUSH1 0xC0 DUP6 ADD MSTORE PUSH1 0xFF PUSH1 0xE0 DUP3 ADD MLOAD AND PUSH1 0xE0 DUP6 ADD MSTORE PUSH1 0xFF PUSH2 0x100 DUP3 ADD MLOAD AND PUSH2 0x100 DUP6 ADD MSTORE PUSH1 0xFF PUSH2 0x120 DUP3 ADD MLOAD AND PUSH2 0x120 DUP6 ADD MSTORE PUSH2 0x140 DUP2 ADD MLOAD ISZERO ISZERO PUSH2 0x140 DUP6 ADD MSTORE PUSH1 0xFF PUSH2 0x160 DUP3 ADD MLOAD AND PUSH2 0x160 DUP6 ADD MSTORE PUSH1 0xFF PUSH2 0x180 DUP3 ADD MLOAD AND PUSH2 0x180 DUP6 ADD MSTORE PUSH2 0x2952 PUSH2 0x1A0 DUP3 ADD MLOAD PUSH2 0x1A0 DUP7 ADD SWAP1 PUSH2 0x2872 JUMP JUMPDEST PUSH2 0x2966 PUSH2 0x1C0 DUP3 ADD MLOAD PUSH2 0x1C0 DUP7 ADD SWAP1 PUSH2 0x287F JUMP JUMPDEST PUSH2 0x1E0 DUP2 DUP2 ADD MLOAD PUSH1 0x1 PUSH1 0x1 PUSH1 0xA0 SHL SUB AND SWAP1 DUP6 ADD MSTORE PUSH2 0x200 DUP1 DUP3 ADD MLOAD SWAP1 DUP6 ADD MSTORE ADD MLOAD SWAP2 ADD MSTORE JUMP JUMPDEST SWAP1 PUSH1 0x4 DUP2 LT ISZERO PUSH2 0x828 JUMPI DUP2 SLOAD PUSH1 0xFF PUSH1 0x50 SHL NOT AND PUSH1 0x50 SWAP2 SWAP1 SWAP2 SHL PUSH1 0xFF PUSH1 0x50 SHL AND OR SWAP1 SSTORE JUMP JUMPDEST SWAP2 SWAP1 DUP3 ADD DUP1 SWAP3 GT PUSH2 0x1092 JUMPI JUMP JUMPDEST SWAP2 SWAP1 DUP2 LT ISZERO PUSH2 0x2833 JUMPI PUSH1 0x5 SHL ADD SWAP1 JUMP JUMPDEST PUSH0 NOT DUP2 EQ PUSH2 0x1092 JUMPI PUSH1 0x1 ADD SWAP1 JUMP JUMPDEST PUSH1 0xC0 DUP2 ADD SWAP1 DUP2 LT PUSH8 0xFFFFFFFFFFFFFFFF DUP3 GT OR PUSH2 0xAC6 JUMPI PUSH1 0x40 MSTORE JUMP JUMPDEST PUSH2 0x240 DUP2 ADD SWAP1 DUP2 LT PUSH8 0xFFFFFFFFFFFFFFFF DUP3 GT OR PUSH2 0xAC6 JUMPI PUSH1 0x40 MSTORE JUMP JUMPDEST PUSH1 0xE0 DUP2 ADD SWAP1 DUP2 LT PUSH8 0xFFFFFFFFFFFFFFFF DUP3 GT OR PUSH2 0xAC6 JUMPI PUSH1 0x40 MSTORE JUMP JUMPDEST SWAP1 PUSH1 0x1F DUP1 NOT SWAP2 ADD AND DUP2 ADD SWAP1 DUP2 LT PUSH8 0xFFFFFFFFFFFFFFFF DUP3 GT OR PUSH2 0xAC6 JUMPI PUSH1 0x40 MSTORE JUMP JUMPDEST PUSH8 0xFFFFFFFFFFFFFFFF DUP2 GT PUSH2 0xAC6 JUMPI PUSH1 0x5 SHL PUSH1 0x20 ADD SWAP1 JUMP JUMPDEST PUSH1 0x3 DUP3 LT ISZERO PUSH2 0x828 JUMPI MSTORE JUMP JUMPDEST SWAP2 SWAP1 DUP3 SUB SWAP2 DUP3 GT PUSH2 0x1092 JUMPI JUMP JUMPDEST PUSH2 0x2A92 PUSH1 0xC SLOAD PUSH1 0xD SLOAD SWAP1 PUSH2 0x29B0 JUMP JUMPDEST DUP1 TIMESTAMP LT ISZERO PUSH2 0x2AA8 JUMPI PUSH2 0x2AA5 SWAP1 TIMESTAMP SWAP1 PUSH2 0x2A76 JUMP JUMPDEST SWAP1 JUMP JUMPDEST POP PUSH0 SWAP1 JUMP JUMPDEST SWAP1 PUSH1 0x10 SLOAD DUP2 LT ISZERO PUSH2 0x2ACD JUMPI PUSH2 0x2AA5 SWAP2 PUSH0 MSTORE PUSH1 0x12 PUSH1 0x20 MSTORE PUSH1 0x40 PUSH0 KECCAK256 SLOAD PUSH2 0x398D JUMP JUMPDEST POP POP PUSH0 SWAP1 JUMP JUMPDEST PUSH1 0x40 MLOAD SWAP1 PUSH2 0x2AE0 DUP3 PUSH2 0x29F7 JUMP JUMPDEST PUSH0 PUSH2 0x220 DUP4 DUP3 DUP2 MSTORE DUP3 PUSH1 0x20 DUP3 ADD MSTORE DUP3 PUSH1 0x40 DUP3 ADD MSTORE DUP3 PUSH1 0x60 DUP3 ADD MSTORE DUP3 PUSH1 0x80 DUP3 ADD MSTORE DUP3 PUSH1 0xA0 DUP3 ADD MSTORE DUP3 PUSH1 0xC0 DUP3 ADD MSTORE DUP3 PUSH1 0xE0 DUP3 ADD MSTORE DUP3 PUSH2 0x100 DUP3 ADD MSTORE DUP3 PUSH2 0x120 DUP3 ADD MSTORE DUP3 PUSH2 0x140 DUP3 ADD MSTORE DUP3 PUSH2 0x160 DUP3 ADD MSTORE DUP3 PUSH2 0x180 DUP3 ADD MSTORE DUP3 PUSH2 0x1A0 DUP3 ADD MSTORE DUP3 PUSH2 0x1C0 DUP3 ADD MSTORE DUP3 PUSH2 0x1E0 DUP3 ADD MSTORE DUP3 PUSH2 0x200 DUP3 ADD MSTORE ADD MSTORE JUMP JUMPDEST SWAP1 PUSH1 0x40 MLOAD PUSH2 0x2B62 DUP2 PUSH2 0x29F7 JUMP JUMPDEST DUP1 SWAP3 DUP1 SLOAD DUP3 MSTORE PUSH1 0x1 DUP1 PUSH1 0xA0 SHL SUB PUSH1 0x1 DUP3 ADD SLOAD AND PUSH1 0x20 DUP4 ADD MSTORE PUSH1 0x1 DUP1 PUSH1 0xA0 SHL SUB PUSH1 0x2 DUP3 ADD SLOAD AND PUSH1 0x40 DUP4 ADD MSTORE PUSH1 0x3 DUP2 ADD SLOAD PUSH1 0x60 DUP4 ADD MSTORE PUSH1 0x4 DUP2 ADD SLOAD PUSH1 0x80 DUP4 ADD MSTORE PUSH1 0x5 DUP2 ADD SLOAD SWAP1 DUP2 PUSH1 0x1 SIGNEXTEND PUSH1 0xA0 DUP5 ADD MSTORE DUP2 PUSH1 0x10 SHR PUSH1 0x1 SIGNEXTEND PUSH1 0xC0 DUP5 ADD MSTORE PUSH1 0xFF DUP3 PUSH1 0x20 SHR AND PUSH1 0xE0 DUP5 ADD MSTORE PUSH1 0xFF DUP3 PUSH1 0x28 SHR AND PUSH2 0x100 DUP5 ADD MSTORE PUSH1 0xFF DUP3 PUSH1 0x30 SHR AND PUSH2 0x120 DUP5 ADD MSTORE PUSH1 0xFF DUP3 PUSH1 0x38 SHR AND ISZERO ISZERO PUSH2 0x140 DUP5 ADD MSTORE PUSH1 0xFF DUP3 PUSH1 0x40 SHR AND PUSH2 0x160 DUP5 ADD MSTORE PUSH1 0xFF DUP3 PUSH1 0x48 SHR AND PUSH2 0x180 DUP5 ADD MSTORE PUSH1 0xFF DUP3 PUSH1 0x50 SHR AND PUSH1 0x4 DUP2 LT ISZERO PUSH2 0x828 JUMPI PUSH2 0x1A0 DUP5 ADD MSTORE PUSH1 0xFF DUP3 PUSH1 0x58 SHR AND SWAP1 PUSH1 0x2 DUP3 LT ISZERO PUSH2 0x828 JUMPI PUSH2 0x220 SWAP3 PUSH1 0x7 SWAP3 PUSH2 0x1C0 DUP7 ADD MSTORE PUSH1 0x60 SHR PUSH2 0x1E0 DUP6 ADD MSTORE PUSH1 0x6 DUP2 ADD SLOAD PUSH2 0x200 DUP6 ADD MSTORE ADD SLOAD SWAP2 ADD MSTORE JUMP JUMPDEST MLOAD SWAP1 DUP2 ISZERO ISZERO DUP3 SUB PUSH2 0x2C4 JUMPI JUMP JUMPDEST DUP1 SLOAD PUSH1 0x1 PUSH1 0x40 SHL DUP2 LT ISZERO PUSH2 0xAC6 JUMPI PUSH2 0x2C83 SWAP2 PUSH1 0x1 DUP3 ADD DUP2 SSTORE PUSH2 0x2847 JUMP JUMPDEST SWAP2 SWAP1 SWAP2 PUSH2 0x2D47 JUMPI DUP1 MLOAD DUP3 SLOAD PUSH1 0x20 DUP4 ADD MLOAD PUSH2 0x100 PUSH1 0x1 PUSH1 0xA8 SHL SUB PUSH1 0x8 SWAP2 SWAP1 SWAP2 SHL AND PUSH1 0xFF SWAP1 SWAP3 AND PUSH1 0x1 PUSH1 0x1 PUSH1 0xA8 SHL SUB NOT DUP3 AND DUP2 OR DUP4 OR DUP6 SSTORE PUSH1 0x40 DUP5 ADD MLOAD SWAP3 SWAP4 SWAP3 SWAP2 SWAP1 PUSH1 0x3 DUP4 LT ISZERO PUSH2 0x828 JUMPI PUSH1 0x60 DUP5 ADD MLOAD PUSH1 0x80 DUP6 ADD MLOAD PUSH1 0xA0 SWAP1 SWAP6 ADD MLOAD PUSH1 0xD0 SHL PUSH2 0xFFFF PUSH1 0xD0 SHL AND PUSH1 0xC0 SWAP6 SWAP1 SWAP6 SHL PUSH2 0xFFFF PUSH1 0xC0 SHL AND PUSH2 0xFFFF PUSH1 0xB0 SHL PUSH1 0xB0 SWAP3 SWAP1 SWAP3 SHL SWAP2 SWAP1 SWAP2 AND PUSH1 0xFF PUSH1 0xA8 SHL PUSH1 0xA8 SWAP6 SWAP1 SWAP6 SHL SWAP5 SWAP1 SWAP5 AND PUSH1 0x1 PUSH1 0x1 PUSH1 0xC0 SHL SUB NOT SWAP4 SWAP1 SWAP4 AND PUSH2 0xFFFF PUSH1 0xB0 SHL NOT SWAP3 SWAP1 SWAP3 AND SWAP2 SWAP1 SWAP2 OR SWAP5 SWAP1 SWAP5 OR PUSH4 0xFFFFFFFF PUSH1 0xC0 SHL NOT AND OR OR SWAP2 SWAP1 SWAP2 OR OR SWAP1 SSTORE JUMP JUMPDEST PUSH4 0x4E487B71 PUSH1 0xE0 SHL PUSH0 MSTORE PUSH0 PUSH1 0x4 MSTORE PUSH1 0x24 PUSH0 REVERT JUMPDEST SWAP2 PUSH1 0x40 SWAP2 SWAP5 SWAP4 PUSH2 0x2D7B PUSH2 0xFFFF SWAP3 PUSH1 0xFF PUSH1 0x60 DUP8 ADD SWAP9 AND DUP7 MSTORE PUSH1 0x20 DUP7 ADD SWAP1 PUSH2 0x280E JUMP JUMPDEST AND SWAP2 ADD MSTORE JUMP JUMPDEST PUSH1 0xFF AND PUSH1 0xFF DUP2 EQ PUSH2 0x1092 JUMPI PUSH1 0x1 ADD SWAP1 JUMP JUMPDEST DUP1 PUSH0 MSTORE PUSH1 0x2 PUSH1 0x20 MSTORE PUSH1 0x40 PUSH0 KECCAK256 SWAP1 PUSH1 0x5 DUP3 ADD SWAP3 DUP4 SLOAD SWAP1 PUSH1 0xFF DUP3 PUSH1 0x50 SHR AND PUSH1 0x4 DUP2 LT ISZERO PUSH2 0x828 JUMPI PUSH1 0x1 DUP2 SUB PUSH2 0x21DB JUMPI PUSH1 0x2 EQ PUSH2 0x3513 JUMPI PUSH1 0x1 DUP5 ADD SLOAD PUSH1 0x2 DUP6 ADD SLOAD CALLER PUSH1 0x1 PUSH1 0x1 PUSH1 0xA0 SHL SUB SWAP3 DUP4 AND DUP2 EQ SWAP5 SWAP3 SWAP1 SWAP2 AND EQ SWAP1 DUP4 ISZERO DUP1 PUSH2 0x350B JUMPI JUMPDEST PUSH2 0x1DA1 JUMPI PUSH1 0xFF DUP2 PUSH1 0x58 SHR AND PUSH1 0x2 DUP2 LT ISZERO PUSH2 0x828 JUMPI ISZERO PUSH2 0x34C3 JUMPI JUMPDEST POP POP PUSH1 0x3 DUP2 LT ISZERO PUSH2 0x828 JUMPI DUP1 PUSH2 0x3387 JUMPI PUSH2 0x2E21 DUP3 DUP6 PUSH2 0x4428 JUMP JUMPDEST DUP3 ISZERO PUSH2 0x335E JUMPI PUSH2 0x2E5D PUSH2 0x2E42 PUSH2 0xFFFF DUP4 AND PUSH1 0x1 SIGNEXTEND DUP9 SLOAD PUSH1 0x10 SHR PUSH1 0x1 SIGNEXTEND PUSH2 0x3A2A JUMP JUMPDEST DUP8 SWAP1 DUP2 SLOAD SWAP1 PUSH1 0x10 SHL PUSH4 0xFFFF0000 AND SWAP1 PUSH4 0xFFFF0000 NOT AND OR SWAP1 SSTORE JUMP JUMPDEST DUP4 PUSH0 MSTORE PUSH1 0x3 PUSH1 0x20 MSTORE PUSH2 0x2EBB PUSH1 0x40 PUSH0 KECCAK256 DUP8 SLOAD SWAP1 PUSH1 0x40 MLOAD SWAP2 PUSH2 0x2E7C DUP4 PUSH2 0x29DB JUMP JUMPDEST PUSH1 0xFF DUP2 PUSH1 0x20 SHR AND DUP4 MSTORE CALLER PUSH1 0x20 DUP5 ADD MSTORE PUSH2 0x2E98 DUP7 PUSH1 0x40 DUP6 ADD PUSH2 0x2A6A JUMP JUMPDEST PUSH2 0xFFFF DUP6 AND PUSH1 0x60 DUP5 ADD MSTORE DUP1 PUSH1 0x1 SIGNEXTEND PUSH1 0x80 DUP5 ADD MSTORE PUSH1 0x10 SHR PUSH1 0x1 SIGNEXTEND PUSH1 0xA0 DUP4 ADD MSTORE PUSH2 0x2C66 JUMP JUMPDEST DUP6 SLOAD SWAP2 DUP5 PUSH32 0x4098E393A0E9D111279B0D880BB9EDE47CC0304A549B3E044A2F8EACE73A167F PUSH2 0x2EFA PUSH1 0xFF DUP7 PUSH1 0x20 SHR AND SWAP5 PUSH1 0x40 MLOAD SWAP2 DUP3 SWAP2 CALLER SWAP7 DUP9 DUP5 PUSH2 0x2D5A JUMP JUMPDEST SUB SWAP1 LOG3 PUSH0 DUP3 PUSH1 0x1 SIGNEXTEND SGT SWAP2 DUP3 ISZERO SWAP3 PUSH2 0x334B JUMPI JUMPDEST POP DUP2 ISZERO PUSH2 0x333F JUMPI JUMPDEST POP PUSH2 0x3333 JUMPI DUP4 SLOAD SWAP1 PUSH1 0xFF DUP3 PUSH1 0x58 SHR AND PUSH1 0x2 DUP2 LT ISZERO PUSH2 0x828 JUMPI PUSH1 0x1 EQ SWAP1 DUP2 PUSH2 0x332B JUMPI JUMPDEST POP PUSH2 0x2FCE JUMPI JUMPDEST POP POP POP DUP1 SLOAD PUSH1 0xFF DUP2 PUSH1 0x58 SHR AND PUSH1 0x2 DUP2 LT ISZERO PUSH2 0x828 JUMPI PUSH2 0x2FBB JUMPI POP DUP1 SLOAD PUSH8 0xFF00000000000000 NOT DUP2 AND PUSH1 0x38 SWAP2 DUP3 SHR PUSH1 0xFF AND ISZERO SWAP1 SWAP2 SHL PUSH1 0xFF PUSH1 0x38 SHL AND OR DUP2 SSTORE DUP1 SLOAD SWAP1 PUSH1 0xFF DUP3 PUSH1 0x38 SHR AND PUSH2 0x2F8C JUMPI JUMPDEST POP POP JUMP JUMPDEST PUSH2 0x2F9E PUSH1 0xFF PUSH2 0x2FB9 SWAP4 PUSH1 0x20 SHR AND PUSH2 0x2D81 JUMP JUMPDEST PUSH5 0xFF00000000 DUP3 SLOAD SWAP2 PUSH1 0x20 SHL AND SWAP1 PUSH5 0xFF00000000 NOT AND OR SWAP1 SSTORE JUMP JUMPDEST JUMP JUMPDEST SWAP1 PUSH2 0x2F9E PUSH1 0xFF PUSH2 0x2FB9 SWAP4 PUSH1 0x20 SHR AND PUSH2 0x2D81 JUMP JUMPDEST DUP3 SLOAD PUSH1 0x40 MLOAD PUSH1 0x20 DUP2 ADD SWAP2 DUP3 MSTORE PUSH1 0xFF PUSH1 0xF8 SHL DUP4 PUSH1 0xD8 SHL AND PUSH1 0x40 DUP3 ADD MSTORE TIMESTAMP PUSH1 0x41 DUP3 ADD MSTORE PUSH11 0x30B4AFB232B1B4B9B4B7B7 PUSH1 0xA9 SHL PUSH1 0x61 DUP3 ADD MSTORE PUSH1 0x4C DUP2 MSTORE PUSH2 0x3012 PUSH1 0x6C DUP3 PUSH2 0x2A30 JUMP JUMPDEST MLOAD SWAP1 KECCAK256 SWAP1 PUSH1 0xFF DUP2 PUSH1 0x30 SHR AND SWAP2 DUP3 ISZERO SWAP3 DUP4 ISZERO PUSH2 0x3309 JUMPI JUMPDEST POP PUSH1 0x64 SWAP1 MOD SWAP1 PUSH1 0x10 SHR PUSH1 0x1 SIGNEXTEND PUSH1 0x3 DUP2 SDIV PUSH1 0x1 SIGNEXTEND SGT DUP1 PUSH2 0x32FF JUMPI JUMPDEST ISZERO PUSH2 0x32DB JUMPI POP POP PUSH1 0x2 JUMPDEST PUSH0 PUSH1 0x3 DUP3 LT ISZERO PUSH2 0x828 JUMPI DUP2 PUSH2 0x31B6 JUMPI PUSH2 0x3065 DUP2 DUP6 PUSH2 0x4428 JUMP JUMPDEST SWAP1 ISZERO PUSH2 0x318D JUMPI PUSH2 0x30A1 PUSH2 0x3086 PUSH2 0xFFFF DUP4 AND PUSH1 0x1 SIGNEXTEND DUP8 SLOAD PUSH1 0x10 SHR PUSH1 0x1 SIGNEXTEND PUSH2 0x3A2A JUMP JUMPDEST DUP7 SWAP1 DUP2 SLOAD SWAP1 PUSH1 0x10 SHL PUSH4 0xFFFF0000 AND SWAP1 PUSH4 0xFFFF0000 NOT AND OR SWAP1 SSTORE JUMP JUMPDEST SWAP1 DUP3 PUSH0 MSTORE PUSH1 0x3 PUSH1 0x20 MSTORE PUSH2 0x3100 PUSH1 0x40 PUSH0 KECCAK256 DUP7 SLOAD SWAP1 PUSH1 0x40 MLOAD SWAP2 PUSH2 0x30C1 DUP4 PUSH2 0x29DB JUMP JUMPDEST PUSH1 0xFF DUP2 PUSH1 0x20 SHR AND DUP4 MSTORE ADDRESS PUSH1 0x20 DUP5 ADD MSTORE PUSH2 0x30DD DUP6 PUSH1 0x40 DUP6 ADD PUSH2 0x2A6A JUMP JUMPDEST PUSH2 0xFFFF DUP7 AND PUSH1 0x60 DUP5 ADD MSTORE DUP1 PUSH1 0x1 SIGNEXTEND PUSH1 0x80 DUP5 ADD MSTORE PUSH1 0x10 SHR PUSH1 0x1 SIGNEXTEND PUSH1 0xA0 DUP4 ADD MSTORE PUSH2 0x2C66 JUMP JUMPDEST DUP5 SLOAD SWAP3 PUSH32 0x4098E393A0E9D111279B0D880BB9EDE47CC0304A549B3E044A2F8EACE73A167F PUSH2 0x313E PUSH1 0xFF DUP7 PUSH1 0x20 SHR AND SWAP5 PUSH1 0x40 MLOAD SWAP2 DUP3 SWAP2 ADDRESS SWAP7 DUP9 DUP5 PUSH2 0x2D5A JUMP JUMPDEST SUB SWAP1 LOG3 PUSH0 DUP3 PUSH1 0x1 SIGNEXTEND SGT SWAP2 DUP3 ISZERO SWAP3 PUSH2 0x317A JUMPI JUMPDEST POP DUP2 ISZERO PUSH2 0x316E JUMPI JUMPDEST POP PUSH2 0x3164 JUMPI DUP1 DUP1 PUSH2 0x2F3C JUMP JUMPDEST PUSH2 0x2FB9 SWAP2 POP PUSH2 0x3A45 JUMP JUMPDEST PUSH1 0x1E SWAP2 POP LT ISZERO PUSH0 PUSH2 0x3158 JUMP JUMPDEST PUSH0 SWAP2 SWAP3 POP PUSH1 0x10 SHR PUSH1 0x1 SIGNEXTEND SGT ISZERO SWAP1 PUSH0 PUSH2 0x3150 JUMP JUMPDEST PUSH2 0x31A2 PUSH2 0xFFFF DUP3 AND PUSH1 0x1 SIGNEXTEND DUP7 SLOAD PUSH1 0x1 SIGNEXTEND PUSH2 0x3A2A JUMP JUMPDEST PUSH2 0xFFFF NOT DUP7 SLOAD AND SWAP1 PUSH2 0xFFFF AND OR DUP6 SSTORE PUSH2 0x30A1 JUMP JUMPDEST PUSH1 0x1 DUP3 SUB PUSH2 0x32AC JUMPI DUP1 ISZERO PUSH2 0x329F JUMPI PUSH1 0xFF DUP6 SLOAD PUSH1 0x28 SHR AND JUMPDEST PUSH1 0xFF DUP2 AND ISZERO ISZERO SWAP1 DUP2 PUSH2 0x3281 JUMPI JUMPDEST POP PUSH2 0x3272 JUMPI PUSH2 0x31E9 DUP2 DUP6 PUSH2 0x3F86 JUMP JUMPDEST SWAP1 ISZERO PUSH2 0x322A JUMPI PUSH2 0x320A PUSH2 0x3086 PUSH2 0xFFFF DUP4 AND PUSH1 0x1 SIGNEXTEND DUP8 SLOAD PUSH1 0x10 SHR PUSH1 0x1 SIGNEXTEND PUSH2 0x3A2A JUMP JUMPDEST DUP5 SLOAD PUSH6 0xFF0000000000 NOT DUP2 AND PUSH1 0x8 SWAP2 SWAP1 SWAP2 SHL PUSH1 0xFF PUSH1 0x28 SHL AND OR DUP6 SSTORE PUSH2 0x30A1 JUMP JUMPDEST PUSH2 0x323F PUSH2 0xFFFF DUP3 AND PUSH1 0x1 SIGNEXTEND DUP7 SLOAD PUSH1 0x1 SIGNEXTEND PUSH2 0x3A2A JUMP JUMPDEST DUP6 SLOAD PUSH1 0xFF PUSH1 0x30 SHL PUSH2 0xFFFF NOT DUP3 AND PUSH2 0xFFFF SWAP4 SWAP1 SWAP4 AND SWAP3 DUP4 OR PUSH1 0x10 SHL AND PUSH7 0xFF00000000FFFF NOT SWAP1 SWAP2 AND SWAP2 SWAP1 SWAP2 OR OR DUP6 SSTORE PUSH2 0x30A1 JUMP JUMPDEST PUSH4 0x1BFA8CDD PUSH1 0xE2 SHL DUP2 MSTORE PUSH1 0x4 SWAP1 REVERT JUMPDEST PUSH1 0x3 SWAP2 POP PUSH2 0x3297 PUSH1 0xFF SWAP2 DUP3 DUP10 SLOAD PUSH1 0x20 SHR AND PUSH2 0x3626 JUMP JUMPDEST AND LT PUSH0 PUSH2 0x31DA JUMP JUMPDEST PUSH1 0xFF DUP6 SLOAD PUSH1 0x30 SHR AND PUSH2 0x31CD JUMP JUMPDEST POP PUSH1 0x2 DUP2 SUB PUSH2 0x32CC JUMPI DUP4 SLOAD PUSH1 0xFF PUSH1 0x48 SHL NOT AND PUSH1 0x1 PUSH1 0x49 SHL OR DUP5 SSTORE PUSH0 PUSH2 0x30A1 JUMP JUMPDEST PUSH4 0x21E08B4D PUSH1 0xE2 SHL PUSH0 MSTORE PUSH1 0x4 PUSH0 REVERT JUMPDEST DUP2 PUSH2 0x32F4 JUMPI JUMPDEST POP ISZERO PUSH2 0x32EE JUMPI PUSH1 0x1 PUSH2 0x304C JUMP JUMPDEST PUSH0 PUSH2 0x304C JUMP JUMPDEST PUSH1 0x28 SWAP2 POP LT PUSH0 PUSH2 0x32E1 JUMP JUMPDEST POP PUSH1 0x1E DUP2 LT PUSH2 0x3042 JUMP JUMPDEST PUSH1 0x64 SWAP2 SWAP4 POP PUSH1 0xFF PUSH2 0x3321 PUSH1 0x3 SWAP3 DUP3 DUP7 PUSH1 0x20 SHR AND PUSH2 0x3626 JUMP JUMPDEST AND LT ISZERO SWAP3 SWAP1 PUSH2 0x3028 JUMP JUMPDEST SWAP1 POP PUSH0 PUSH2 0x2F36 JUMP JUMPDEST POP POP PUSH2 0x2FB9 SWAP2 POP PUSH2 0x3A45 JUMP JUMPDEST PUSH1 0x1E SWAP2 POP LT ISZERO PUSH0 PUSH2 0x2F14 JUMP JUMPDEST PUSH0 SWAP2 SWAP3 POP PUSH1 0x10 SHR PUSH1 0x1 SIGNEXTEND SGT ISZERO SWAP1 PUSH0 PUSH2 0x2F0C JUMP JUMPDEST PUSH2 0x3373 PUSH2 0xFFFF DUP3 AND PUSH1 0x1 SIGNEXTEND DUP8 SLOAD PUSH1 0x1 SIGNEXTEND PUSH2 0x3A2A JUMP JUMPDEST PUSH2 0xFFFF NOT DUP8 SLOAD AND SWAP1 PUSH2 0xFFFF AND OR DUP7 SSTORE PUSH2 0x2E5D JUMP JUMPDEST PUSH1 0x1 DUP2 SUB PUSH2 0x347D JUMPI DUP2 ISZERO PUSH2 0x3470 JUMPI PUSH1 0xFF DUP6 SLOAD PUSH1 0x28 SHR AND JUMPDEST PUSH1 0xFF DUP2 AND ISZERO ISZERO SWAP1 DUP2 PUSH2 0x3452 JUMPI JUMPDEST POP PUSH2 0x3443 JUMPI PUSH2 0x33BA DUP3 DUP6 PUSH2 0x3F86 JUMP JUMPDEST DUP3 ISZERO PUSH2 0x33FB JUMPI PUSH2 0x33DB PUSH2 0x2E42 PUSH2 0xFFFF DUP4 AND PUSH1 0x1 SIGNEXTEND DUP9 SLOAD PUSH1 0x10 SHR PUSH1 0x1 SIGNEXTEND PUSH2 0x3A2A JUMP JUMPDEST DUP6 SLOAD PUSH6 0xFF0000000000 NOT DUP2 AND PUSH1 0x8 SWAP2 SWAP1 SWAP2 SHL PUSH1 0xFF PUSH1 0x28 SHL AND OR DUP7 SSTORE PUSH2 0x2E5D JUMP JUMPDEST PUSH2 0x3410 PUSH2 0xFFFF DUP3 AND PUSH1 0x1 SIGNEXTEND DUP8 SLOAD PUSH1 0x1 SIGNEXTEND PUSH2 0x3A2A JUMP JUMPDEST DUP7 SLOAD PUSH1 0xFF PUSH1 0x30 SHL PUSH2 0xFFFF NOT DUP3 AND PUSH2 0xFFFF SWAP4 SWAP1 SWAP4 AND SWAP3 DUP4 OR PUSH1 0x10 SHL AND PUSH7 0xFF00000000FFFF NOT SWAP1 SWAP2 AND SWAP2 SWAP1 SWAP2 OR OR DUP7 SSTORE PUSH2 0x2E5D JUMP JUMPDEST PUSH4 0x1BFA8CDD PUSH1 0xE2 SHL PUSH0 MSTORE PUSH1 0x4 PUSH0 REVERT JUMPDEST PUSH1 0x3 SWAP2 POP PUSH2 0x3468 PUSH1 0xFF SWAP2 DUP3 DUP10 SLOAD PUSH1 0x20 SHR AND PUSH2 0x3626 JUMP JUMPDEST AND LT PUSH0 PUSH2 0x33AB JUMP JUMPDEST PUSH1 0xFF DUP6 SLOAD PUSH1 0x30 SHR AND PUSH2 0x339E JUMP JUMPDEST PUSH1 0x2 DUP2 SUB PUSH2 0x32CC JUMPI DUP2 ISZERO PUSH2 0x34AD JUMPI DUP5 SLOAD PUSH9 0xFF0000000000000000 NOT AND PUSH9 0x20000000000000000 OR DUP6 SSTORE JUMPDEST PUSH0 PUSH2 0x2E5D JUMP JUMPDEST DUP5 SLOAD PUSH1 0xFF PUSH1 0x48 SHL NOT AND PUSH1 0x1 PUSH1 0x49 SHL OR DUP6 SSTORE PUSH2 0x34A7 JUMP JUMPDEST DUP4 DUP1 PUSH2 0x34FD JUMPI JUMPDEST PUSH2 0x34E0 JUMPI DUP2 PUSH2 0x34EF JUMPI JUMPDEST POP PUSH2 0x34E0 JUMPI PUSH0 DUP1 PUSH2 0x2E07 JUMP JUMPDEST PUSH4 0x1CC191EB PUSH1 0xE3 SHL PUSH0 MSTORE PUSH1 0x4 PUSH0 REVERT JUMPDEST PUSH1 0xFF SWAP2 POP PUSH1 0x38 SHR AND PUSH0 PUSH2 0x34D4 JUMP JUMPDEST POP PUSH1 0xFF DUP2 PUSH1 0x38 SHR AND ISZERO PUSH2 0x34CA JUMP JUMPDEST POP DUP2 ISZERO PUSH2 0x2DED JUMP JUMPDEST PUSH4 0x6E18399 PUSH1 0xE1 SHL PUSH0 MSTORE PUSH1 0x4 PUSH0 REVERT JUMPDEST DUP1 MLOAD DUP3 LT ISZERO PUSH2 0x2833 JUMPI PUSH1 0x20 SWAP2 PUSH1 0x5 SHL ADD ADD SWAP1 JUMP JUMPDEST MLOAD SWAP1 PUSH2 0xFFFF DUP3 AND DUP3 SUB PUSH2 0x2C4 JUMPI JUMP JUMPDEST MLOAD SWAP1 PUSH1 0xFF DUP3 AND DUP3 SUB PUSH2 0x2C4 JUMPI JUMP JUMPDEST SWAP1 DUP2 PUSH2 0x100 SWAP2 SUB SLT PUSH2 0x2C4 JUMPI PUSH1 0x40 MLOAD SWAP1 PUSH2 0x100 DUP3 ADD DUP3 DUP2 LT PUSH8 0xFFFFFFFFFFFFFFFF DUP3 GT OR PUSH2 0xAC6 JUMPI PUSH2 0x35F5 SWAP2 PUSH1 0xE0 SWAP2 PUSH1 0x40 MSTORE PUSH2 0x358E DUP2 PUSH2 0x3536 JUMP JUMPDEST DUP5 MSTORE PUSH2 0x359C PUSH1 0x20 DUP3 ADD PUSH2 0x3536 JUMP JUMPDEST PUSH1 0x20 DUP6 ADD MSTORE PUSH2 0x35AD PUSH1 0x40 DUP3 ADD PUSH2 0x3536 JUMP JUMPDEST PUSH1 0x40 DUP6 ADD MSTORE PUSH2 0x35BE PUSH1 0x60 DUP3 ADD PUSH2 0x3536 JUMP JUMPDEST PUSH1 0x60 DUP6 ADD MSTORE PUSH2 0x35CF PUSH1 0x80 DUP3 ADD PUSH2 0x3545 JUMP JUMPDEST PUSH1 0x80 DUP6 ADD MSTORE PUSH2 0x35E0 PUSH1 0xA0 DUP3 ADD PUSH2 0x3545 JUMP JUMPDEST PUSH1 0xA0 DUP6 ADD MSTORE PUSH1 0xC0 DUP2 ADD MLOAD PUSH1 0xC0 DUP6 ADD MSTORE ADD PUSH2 0x2C59 JUMP JUMPDEST PUSH1 0xE0 DUP3 ADD MSTORE SWAP1 JUMP JUMPDEST SWAP1 PUSH1 0x96 DUP3 MUL SWAP2 DUP1 DUP4 DIV PUSH1 0x96 EQ SWAP1 ISZERO OR ISZERO PUSH2 0x1092 JUMPI JUMP JUMPDEST DUP2 DUP2 MUL SWAP3 SWAP2 DUP2 ISZERO SWAP2 DUP5 DIV EQ OR ISZERO PUSH2 0x1092 JUMPI JUMP JUMPDEST SWAP1 PUSH1 0xFF DUP1 SWAP2 AND SWAP2 AND SUB SWAP1 PUSH1 0xFF DUP3 GT PUSH2 0x1092 JUMPI JUMP JUMPDEST PUSH0 MSTORE PUSH1 0x2 PUSH1 0x20 MSTORE PUSH2 0x364D PUSH1 0x40 PUSH0 KECCAK256 PUSH2 0x2B55 JUMP JUMPDEST SWAP1 ISZERO PUSH2 0x3687 JUMPI PUSH1 0xFF PUSH2 0x100 DUP3 ADD MLOAD AND JUMPDEST PUSH1 0xFF DUP2 AND ISZERO PUSH2 0x3680 JUMPI PUSH2 0x367A PUSH1 0xFF SWAP2 DUP3 PUSH1 0xE0 PUSH1 0x3 SWAP6 ADD MLOAD AND PUSH2 0x3626 JUMP JUMPDEST AND LT ISZERO SWAP1 JUMP JUMPDEST POP POP PUSH1 0x1 SWAP1 JUMP JUMPDEST PUSH1 0xFF PUSH2 0x120 DUP3 ADD MLOAD AND PUSH2 0x365D JUMP JUMPDEST PUSH1 0x2 PUSH0 MLOAD PUSH1 0x20 PUSH2 0x478C PUSH0 CODECOPY PUSH0 MLOAD SWAP1 PUSH0 MSTORE SLOAD EQ PUSH2 0x36BE JUMPI PUSH1 0x2 PUSH0 MLOAD PUSH1 0x20 PUSH2 0x478C PUSH0 CODECOPY PUSH0 MLOAD SWAP1 PUSH0 MSTORE SSTORE JUMP JUMPDEST PUSH4 0x3EE5AEB5 PUSH1 0xE0 SHL PUSH0 MSTORE PUSH1 0x4 PUSH0 REVERT JUMPDEST DUP2 ISZERO PUSH2 0x36D7 JUMPI DIV SWAP1 JUMP JUMPDEST PUSH4 0x4E487B71 PUSH1 0xE0 SHL PUSH0 MSTORE PUSH1 0x12 PUSH1 0x4 MSTORE PUSH1 0x24 PUSH0 REVERT JUMPDEST PUSH1 0x7 SLOAD SWAP1 DUP2 ISZERO PUSH2 0x2F88 JUMPI PUSH2 0x3763 SWAP2 PUSH1 0x20 SWAP2 PUSH2 0x372F PUSH2 0x2710 PUSH2 0x370E PUSH1 0x8 SLOAD DUP6 PUSH2 0x3613 JUMP JUMPDEST DIV PUSH2 0x3724 PUSH2 0x371C DUP3 DUP7 PUSH2 0x2A76 JUMP JUMPDEST PUSH1 0x9 SLOAD PUSH2 0x2A76 JUMP JUMPDEST PUSH1 0x9 SSTORE PUSH1 0xA SLOAD PUSH2 0x2A76 JUMP JUMPDEST PUSH1 0xA SSTORE PUSH1 0x40 MLOAD PUSH4 0xA9059CBB PUSH1 0xE0 SHL DUP2 MSTORE PUSH1 0x1 PUSH1 0x1 PUSH1 0xA0 SHL SUB SWAP1 SWAP2 AND PUSH1 0x4 DUP3 ADD MSTORE PUSH1 0x24 DUP2 ADD SWAP2 SWAP1 SWAP2 MSTORE SWAP2 DUP3 SWAP1 DUP2 SWAP1 PUSH1 0x44 DUP3 ADD SWAP1 JUMP JUMPDEST SUB DUP2 PUSH0 PUSH32 0x0 PUSH1 0x1 PUSH1 0x1 PUSH1 0xA0 SHL SUB AND GAS CALL DUP1 ISZERO PUSH2 0x418 JUMPI PUSH2 0x379F JUMPI POP JUMP JUMPDEST PUSH1 0x20 DUP2 RETURNDATASIZE PUSH1 0x20 GT PUSH2 0x37CC JUMPI JUMPDEST DUP2 PUSH2 0x37B8 PUSH1 0x20 SWAP4 DUP4 PUSH2 0x2A30 JUMP JUMPDEST DUP2 ADD SUB SLT PUSH2 0x2C4 JUMPI PUSH2 0x37C9 SWAP1 PUSH2 0x2C59 JUMP JUMPDEST POP JUMP JUMPDEST RETURNDATASIZE SWAP2 POP PUSH2 0x37AB JUMP JUMPDEST PUSH0 SLOAD PUSH1 0x1 PUSH1 0x1 PUSH1 0xA0 SHL SUB AND CALLER SUB PUSH2 0x37E7 JUMPI JUMP JUMPDEST PUSH4 0x118CDAA7 PUSH1 0xE0 SHL PUSH0 MSTORE CALLER PUSH1 0x4 MSTORE PUSH1 0x24 PUSH0 REVERT JUMPDEST PUSH4 0xFFFFFFFF AND PUSH4 0xFFFFFFFF DUP2 EQ PUSH2 0x1092 JUMPI PUSH1 0x1 ADD SWAP1 JUMP JUMPDEST PUSH1 0x1 DUP1 PUSH1 0xA0 SHL SUB AND PUSH0 MSTORE PUSH1 0x4 PUSH1 0x20 MSTORE PUSH1 0x40 PUSH0 KECCAK256 PUSH2 0x3885 PUSH2 0x3865 PUSH4 0xFFFFFFFF DUP4 SLOAD PUSH8 0xFFFFFFFF00000000 PUSH2 0x3848 DUP4 DUP4 PUSH1 0x20 SHR AND PUSH2 0x37FA JUMP JUMPDEST PUSH1 0x20 SHL AND SWAP1 PUSH8 0xFFFFFFFF00000000 NOT AND OR DUP1 DUP6 SSTORE PUSH1 0x60 SHR AND PUSH2 0x37FA JUMP JUMPDEST DUP3 SLOAD PUSH4 0xFFFFFFFF PUSH1 0x60 SHL NOT AND PUSH1 0x60 SWAP2 SWAP1 SWAP2 SHL PUSH4 0xFFFFFFFF PUSH1 0x60 SHL AND OR DUP3 SSTORE JUMP JUMPDEST DUP1 SLOAD PUSH4 0xFFFFFFFF PUSH1 0x80 SHL NOT AND SWAP1 SSTORE JUMP JUMPDEST PUSH1 0x1 DUP1 PUSH1 0xA0 SHL SUB DUP2 AND PUSH0 MSTORE PUSH1 0x4 PUSH1 0x20 MSTORE PUSH1 0x40 PUSH0 KECCAK256 PUSH4 0xFFFFFFFF PUSH2 0x38BA DUP2 DUP4 SLOAD AND PUSH2 0x37FA JUMP JUMPDEST AND PUSH4 0xFFFFFFFF NOT DUP3 SLOAD AND OR DUP2 SSTORE PUSH2 0x38DD PUSH2 0x3865 PUSH4 0xFFFFFFFF DUP4 SLOAD PUSH1 0x60 SHR AND PUSH2 0x37FA JUMP JUMPDEST PUSH2 0x38F0 PUSH4 0xFFFFFFFF DUP3 SLOAD PUSH1 0x80 SHR AND PUSH2 0x37FA JUMP JUMPDEST DUP2 SLOAD PUSH4 0xFFFFFFFF PUSH1 0x80 SHL NOT AND PUSH1 0x80 SWAP2 DUP3 SHL PUSH4 0xFFFFFFFF PUSH1 0x80 SHL AND OR DUP1 DUP4 SSTORE SWAP1 PUSH1 0xA0 DUP3 SWAP1 SHR PUSH4 0xFFFFFFFF SWAP1 DUP2 AND SWAP2 DUP4 SWAP1 SHR AND GT PUSH2 0x3969 JUMPI JUMPDEST POP POP PUSH1 0xB SLOAD PUSH0 MSTORE PUSH1 0x14 PUSH1 0x20 MSTORE PUSH1 0x40 PUSH0 KECCAK256 SWAP1 PUSH1 0x1 DUP1 PUSH1 0xA0 SHL SUB AND PUSH0 MSTORE PUSH1 0x20 MSTORE PUSH1 0x40 PUSH0 KECCAK256 PUSH4 0xFFFFFFFF PUSH2 0x395A DUP2 DUP4 SLOAD AND PUSH2 0x37FA JUMP JUMPDEST AND PUSH4 0xFFFFFFFF NOT DUP3 SLOAD AND OR SWAP1 SSTORE JUMP JUMPDEST PUSH4 0xFFFFFFFF PUSH1 0xA0 SHL NOT DUP2 AND PUSH1 0x20 SWAP2 SWAP1 SWAP2 SHL PUSH4 0xFFFFFFFF PUSH1 0xA0 SHL AND OR SWAP1 SSTORE PUSH0 DUP1 PUSH2 0x3927 JUMP JUMPDEST SWAP1 PUSH1 0xF SLOAD DUP1 DUP3 LT PUSH0 EQ PUSH2 0x39BC JUMPI POP PUSH2 0x2710 SWAP2 PUSH2 0x39AB PUSH2 0x39B8 SWAP3 PUSH2 0x281B JUMP JUMPDEST SWAP1 SLOAD SWAP1 PUSH1 0x3 SHL SHR SWAP1 PUSH2 0x3613 JUMP JUMPDEST DIV SWAP1 JUMP JUMPDEST PUSH0 SWAP2 POP DUP2 JUMPDEST DUP2 DUP2 LT PUSH2 0x3A06 JUMPI POP PUSH2 0x39D5 SWAP1 PUSH1 0x10 SLOAD PUSH2 0x2A76 JUMP JUMPDEST SWAP1 DUP2 ISZERO PUSH2 0x39FF JUMPI PUSH2 0x2710 SUB PUSH2 0x2710 DUP2 GT PUSH2 0x1092 JUMPI PUSH2 0x39F9 PUSH2 0x2710 SWAP2 PUSH2 0x2AA5 SWAP5 PUSH2 0x3613 JUMP JUMPDEST DIV PUSH2 0x36CD JUMP JUMPDEST POP POP POP PUSH0 SWAP1 JUMP JUMPDEST SWAP2 PUSH2 0x3A23 PUSH1 0x1 SWAP2 PUSH2 0x3A16 DUP6 PUSH2 0x281B JUMP JUMPDEST SWAP1 SLOAD SWAP1 PUSH1 0x3 SHL SHR SWAP1 PUSH2 0x29B0 JUMP JUMPDEST SWAP3 ADD PUSH2 0x39C1 JUMP JUMPDEST PUSH1 0x1 SWAP2 DUP3 SIGNEXTEND SWAP2 SIGNEXTEND SUB SWAP1 PUSH2 0x7FFF NOT DUP3 SLT PUSH2 0x7FFF DUP4 SGT OR PUSH2 0x1092 JUMPI JUMP JUMPDEST PUSH1 0x5 DUP2 ADD DUP1 SLOAD PUSH1 0xFF PUSH1 0x50 SHL NOT AND PUSH1 0x1 PUSH1 0x51 SHL OR DUP1 DUP3 SSTORE TIMESTAMP PUSH1 0x7 DUP5 ADD SSTORE SWAP1 SWAP2 SWAP1 PUSH1 0x1 DUP2 SWAP1 SIGNEXTEND SWAP1 PUSH0 DUP3 SGT ISZERO DUP1 PUSH2 0x3C83 JUMPI JUMPDEST ISZERO PUSH2 0x3B9C JUMPI POP POP PUSH1 0x1 PUSH1 0x1 PUSH1 0x60 SHL SUB DUP3 SLOAD AND DUP3 SSTORE PUSH1 0x1 DUP1 PUSH1 0xA0 SHL SUB PUSH1 0x1 DUP3 ADD SLOAD AND PUSH0 MSTORE PUSH1 0x4 PUSH1 0x20 MSTORE PUSH2 0x3AD5 PUSH1 0x40 PUSH0 KECCAK256 PUSH2 0x3AB6 PUSH4 0xFFFFFFFF DUP3 SLOAD PUSH1 0x40 SHR AND PUSH2 0x37FA JUMP JUMPDEST PUSH4 0xFFFFFFFF PUSH1 0x40 SHL DUP3 SLOAD SWAP2 PUSH1 0x40 SHL AND SWAP1 PUSH4 0xFFFFFFFF PUSH1 0x40 SHL NOT AND OR SWAP1 SSTORE JUMP JUMPDEST PUSH1 0x2 DUP2 ADD SLOAD PUSH1 0x1 PUSH1 0x1 PUSH1 0xA0 SHL SUB AND ADDRESS DUP2 SUB PUSH2 0x3B75 JUMPI JUMPDEST POP JUMPDEST PUSH1 0x1 DUP2 ADD SLOAD PUSH1 0x1 PUSH1 0x1 PUSH1 0xA0 SHL SUB SWAP1 DUP2 AND PUSH0 SWAP1 DUP2 MSTORE PUSH1 0x5 PUSH1 0x20 MSTORE PUSH1 0x40 DUP2 KECCAK256 SSTORE PUSH1 0x2 DUP3 ADD SLOAD AND ADDRESS DUP2 SUB PUSH2 0x3B62 JUMPI JUMPDEST POP PUSH2 0x3B25 PUSH1 0x15 SLOAD PUSH2 0x29CD JUMP JUMPDEST PUSH1 0x15 SSTORE SLOAD SWAP1 SLOAD SWAP1 PUSH32 0x6ECE8C7A0814E499368677ABB88C44F55F86F4BDB83665CB2BBEE15321AE78D8 PUSH1 0x20 PUSH1 0x40 MLOAD SWAP4 PUSH1 0xFF DUP2 DUP4 SHR AND DUP6 MSTORE PUSH1 0x60 SHR SWAP4 LOG3 JUMP JUMPDEST PUSH0 MSTORE PUSH1 0x5 PUSH1 0x20 MSTORE PUSH0 PUSH1 0x40 DUP2 KECCAK256 SSTORE PUSH0 PUSH2 0x3B19 JUMP JUMPDEST PUSH0 MSTORE PUSH1 0x4 PUSH1 0x20 MSTORE PUSH2 0x3B96 PUSH1 0x40 PUSH0 KECCAK256 PUSH2 0x3AB6 PUSH4 0xFFFFFFFF DUP3 SLOAD PUSH1 0x40 SHR AND PUSH2 0x37FA JUMP JUMPDEST PUSH0 PUSH2 0x3AEB JUMP JUMPDEST PUSH1 0x10 SHR PUSH1 0x1 SIGNEXTEND PUSH0 DUP2 SGT SWAP2 DUP3 ISZERO SWAP3 PUSH2 0x3C79 JUMPI JUMPDEST POP POP ISZERO PUSH2 0x3C17 JUMPI PUSH1 0x1 DUP2 ADD DUP1 SLOAD DUP4 SLOAD PUSH1 0x1 PUSH1 0x1 PUSH1 0x60 SHL SUB AND PUSH1 0x60 SWAP2 SWAP1 SWAP2 SHL PUSH1 0x1 PUSH1 0x1 PUSH1 0x60 SHL SUB NOT AND OR DUP4 SSTORE PUSH2 0x3BEC SWAP1 SLOAD PUSH1 0x1 PUSH1 0x1 PUSH1 0xA0 SHL SUB AND PUSH2 0x3895 JUMP JUMPDEST PUSH1 0x2 DUP2 ADD SLOAD PUSH1 0x1 PUSH1 0x1 PUSH1 0xA0 SHL SUB AND ADDRESS DUP2 SUB PUSH2 0x3C08 JUMPI JUMPDEST POP PUSH2 0x3AED JUMP JUMPDEST PUSH2 0x3C11 SWAP1 PUSH2 0x3811 JUMP JUMPDEST PUSH0 PUSH2 0x3C02 JUMP JUMPDEST PUSH1 0x2 DUP2 ADD DUP1 SLOAD DUP4 SLOAD PUSH1 0x1 PUSH1 0x1 PUSH1 0x60 SHL SUB AND PUSH1 0x60 SWAP2 SWAP1 SWAP2 SHL PUSH1 0x1 PUSH1 0x1 PUSH1 0x60 SHL SUB NOT AND OR DUP4 SSTORE SLOAD PUSH1 0x1 PUSH1 0x1 PUSH1 0xA0 SHL SUB AND ADDRESS DUP2 SUB PUSH2 0x3C6A JUMPI JUMPDEST POP PUSH1 0x1 DUP2 ADD SLOAD PUSH2 0x3C65 SWAP1 PUSH1 0x1 PUSH1 0x1 PUSH1 0xA0 SHL SUB AND PUSH2 0x3811 JUMP JUMPDEST PUSH2 0x3AED JUMP JUMPDEST PUSH2 0x3C73 SWAP1 PUSH2 0x3895 JUMP JUMPDEST PUSH0 PUSH2 0x3C4D JUMP JUMPDEST SGT SWAP1 POP PUSH0 DUP1 PUSH2 0x3BAE JUMP JUMPDEST POP PUSH0 DUP2 PUSH1 0x10 SHR PUSH1 0x1 SIGNEXTEND SGT ISZERO PUSH2 0x3A74 JUMP JUMPDEST PUSH1 0x40 MLOAD PUSH4 0x31A9108F PUSH1 0xE1 SHL DUP2 MSTORE PUSH1 0x4 DUP2 ADD DUP4 SWAP1 MSTORE PUSH32 0x0 PUSH1 0x1 PUSH1 0x1 PUSH1 0xA0 SHL SUB AND SWAP3 SWAP2 PUSH1 0x20 DUP3 PUSH1 0x24 DUP2 DUP8 GAS STATICCALL SWAP2 DUP3 ISZERO PUSH2 0x418 JUMPI PUSH0 SWAP3 PUSH2 0x3D72 JUMPI JUMPDEST POP PUSH1 0x1 PUSH1 0x1 PUSH1 0xA0 SHL SUB SWAP1 DUP2 AND SWAP2 AND SUB PUSH2 0x3D63 JUMPI PUSH2 0x100 SWAP1 PUSH1 0x24 PUSH1 0x40 MLOAD DUP1 SWAP5 DUP2 SWAP4 PUSH4 0x6A24447F PUSH1 0xE1 SHL DUP4 MSTORE PUSH1 0x4 DUP4 ADD MSTORE GAS STATICCALL DUP1 ISZERO PUSH2 0x418 JUMPI PUSH1 0xE0 SWAP2 PUSH0 SWAP2 PUSH2 0x3D44 JUMPI JUMPDEST POP ADD MLOAD ISZERO PUSH2 0x3D35 JUMPI JUMP JUMPDEST PUSH4 0xCC71C29 PUSH1 0xE1 SHL PUSH0 MSTORE PUSH1 0x4 PUSH0 REVERT JUMPDEST PUSH2 0x3D5D SWAP2 POP PUSH2 0x100 RETURNDATASIZE DUP2 GT PUSH2 0x7CE JUMPI PUSH2 0x7C0 DUP2 DUP4 PUSH2 0x2A30 JUMP JUMPDEST PUSH0 PUSH2 0x3D2B JUMP JUMPDEST PUSH4 0x8F0F029B PUSH1 0xE0 SHL PUSH0 MSTORE PUSH1 0x4 PUSH0 REVERT JUMPDEST SWAP1 SWAP2 POP PUSH1 0x20 DUP2 RETURNDATASIZE PUSH1 0x20 GT PUSH2 0x3DAE JUMPI JUMPDEST DUP2 PUSH2 0x3D8E PUSH1 0x20 SWAP4 DUP4 PUSH2 0x2A30 JUMP JUMPDEST DUP2 ADD SUB SLT PUSH2 0x2C4 JUMPI MLOAD PUSH1 0x1 PUSH1 0x1 PUSH1 0xA0 SHL SUB DUP2 AND DUP2 SUB PUSH2 0x2C4 JUMPI SWAP1 PUSH0 PUSH2 0x3CEA JUMP JUMPDEST RETURNDATASIZE SWAP2 POP PUSH2 0x3D81 JUMP JUMPDEST PUSH1 0x7 SLOAD DUP1 ISZERO PUSH2 0x2F88 JUMPI PUSH1 0x40 MLOAD PUSH4 0x6EB1769F PUSH1 0xE1 SHL DUP2 MSTORE PUSH1 0x1 PUSH1 0x1 PUSH1 0xA0 SHL SUB SWAP3 DUP4 AND PUSH1 0x4 DUP3 ADD DUP2 SWAP1 MSTORE ADDRESS PUSH1 0x24 DUP4 ADD MSTORE SWAP3 PUSH32 0x0 AND SWAP2 SWAP1 PUSH1 0x20 DUP2 PUSH1 0x44 DUP2 DUP7 GAS STATICCALL DUP1 ISZERO PUSH2 0x418 JUMPI DUP3 SWAP2 PUSH0 SWAP2 PUSH2 0x3F42 JUMPI JUMPDEST POP LT PUSH2 0x3F33 JUMPI PUSH0 PUSH1 0x20 PUSH2 0x2710 PUSH2 0x3E39 PUSH1 0x8 SLOAD DUP6 PUSH2 0x3613 JUMP JUMPDEST DIV SWAP4 PUSH1 0x64 PUSH2 0x3E47 DUP7 DUP7 PUSH2 0x2A76 JUMP JUMPDEST SWAP5 PUSH1 0x40 MLOAD SWAP5 DUP6 SWAP4 DUP5 SWAP3 PUSH4 0x23B872DD PUSH1 0xE0 SHL DUP5 MSTORE DUP11 PUSH1 0x4 DUP6 ADD MSTORE ADDRESS PUSH1 0x24 DUP6 ADD MSTORE PUSH1 0x44 DUP5 ADD MSTORE GAS CALL DUP1 ISZERO PUSH2 0x418 JUMPI PUSH2 0x3ED3 JUMPI JUMPDEST POP DUP1 PUSH32 0x662B8686F5A56F0ACF339ED89DC0000EC2E51D0960E10EF41643917B6608090 SWAP3 PUSH2 0x3EAA PUSH1 0x60 SWAP4 PUSH1 0x9 SLOAD PUSH2 0x29B0 JUMP JUMPDEST PUSH1 0x9 SSTORE PUSH2 0x3EB9 DUP2 PUSH1 0xA SLOAD PUSH2 0x29B0 JUMP JUMPDEST PUSH1 0xA SSTORE PUSH1 0x7 SLOAD SWAP2 PUSH1 0x40 MLOAD SWAP3 DUP4 MSTORE PUSH1 0x20 DUP4 ADD MSTORE PUSH1 0x40 DUP3 ADD MSTORE LOG2 JUMP JUMPDEST SWAP1 PUSH1 0x20 DUP3 RETURNDATASIZE PUSH1 0x20 GT PUSH2 0x3F2B JUMPI JUMPDEST DUP2 PUSH2 0x3EED PUSH1 0x20 SWAP4 DUP4 PUSH2 0x2A30 JUMP JUMPDEST DUP2 ADD SUB SLT PUSH2 0x2C4 JUMPI PUSH32 0x662B8686F5A56F0ACF339ED89DC0000EC2E51D0960E10EF41643917B6608090 SWAP3 PUSH2 0x3F22 PUSH1 0x60 SWAP4 PUSH2 0x2C59 JUMP JUMPDEST POP SWAP3 POP SWAP1 PUSH2 0x3E78 JUMP JUMPDEST RETURNDATASIZE SWAP2 POP PUSH2 0x3EE0 JUMP JUMPDEST PUSH4 0x13BE252B PUSH1 0xE0 SHL PUSH0 MSTORE PUSH1 0x4 PUSH0 REVERT JUMPDEST SWAP2 POP POP PUSH1 0x20 DUP2 RETURNDATASIZE PUSH1 0x20 GT PUSH2 0x3F6F JUMPI JUMPDEST DUP2 PUSH2 0x3F5E PUSH1 0x20 SWAP4 DUP4 PUSH2 0x2A30 JUMP JUMPDEST DUP2 ADD SUB SLT PUSH2 0x2C4 JUMPI DUP2 SWAP1 MLOAD PUSH0 PUSH2 0x3E21 JUMP JUMPDEST RETURNDATASIZE SWAP2 POP PUSH2 0x3F51 JUMP JUMPDEST PUSH1 0xFF AND DUP1 ISZERO PUSH2 0x1092 JUMPI PUSH0 NOT ADD SWAP1 JUMP JUMPDEST SWAP1 DUP1 ISZERO PUSH2 0x42AE JUMPI PUSH1 0x3 DUP3 ADD SLOAD PUSH1 0x40 MLOAD PUSH4 0x6A24447F PUSH1 0xE1 SHL DUP2 MSTORE PUSH1 0x4 DUP2 ADD SWAP2 SWAP1 SWAP2 MSTORE PUSH32 0x0 PUSH1 0x1 PUSH1 0x1 PUSH1 0xA0 SHL SUB AND SWAP2 SWAP1 PUSH2 0x100 DUP2 PUSH1 0x24 DUP2 DUP7 GAS STATICCALL SWAP1 DUP2 ISZERO PUSH2 0x418 JUMPI PUSH0 SWAP2 PUSH2 0x428F JUMPI JUMPDEST POP PUSH1 0xFF PUSH1 0x80 PUSH2 0xFFFF DUP4 MLOAD AND SWAP3 ADD MLOAD AND SWAP3 PUSH1 0x5 DUP6 ADD SLOAD SWAP1 PUSH1 0xFF DUP3 PUSH1 0x58 SHR AND PUSH1 0x2 DUP2 LT ISZERO PUSH2 0x828 JUMPI PUSH1 0x1 SUB PUSH2 0x4225 JUMPI POP DUP5 SLOAD SWAP1 PUSH1 0x40 MLOAD SWAP1 PUSH1 0x20 DUP3 ADD SWAP3 DUP4 MSTORE PUSH1 0xFF PUSH1 0xF8 SHL SWAP1 PUSH1 0xD8 SHL AND PUSH1 0x40 DUP3 ADD MSTORE PUSH3 0x3232B3 PUSH1 0xE9 SHL PUSH1 0x41 DUP3 ADD MSTORE PUSH1 0x24 DUP2 MSTORE PUSH2 0x4051 PUSH1 0x44 DUP3 PUSH2 0x2A30 JUMP JUMPDEST MLOAD SWAP1 KECCAK256 PUSH1 0x32 DUP2 MOD PUSH1 0x1E ADD DUP1 PUSH1 0x1E GT PUSH2 0x1092 JUMPI PUSH1 0xFF PUSH1 0x6 PUSH2 0xFFFF DUP1 SWAP4 AND SWAP4 MOD AND SWAP3 JUMPDEST AND SWAP1 PUSH1 0x64 DUP3 MUL SWAP2 DUP1 DUP4 DIV PUSH1 0x64 EQ SWAP1 ISZERO OR ISZERO PUSH2 0x1092 JUMPI PUSH2 0xFFFF AND PUSH1 0x64 ADD DUP1 PUSH1 0x64 GT PUSH2 0x1092 JUMPI PUSH2 0x409F SWAP2 PUSH2 0x36CD JUMP JUMPDEST PUSH1 0xB4 DUP2 MUL SWAP1 DUP1 DUP3 DIV PUSH1 0xB4 EQ SWAP1 ISZERO OR ISZERO PUSH2 0x1092 JUMPI PUSH1 0x64 PUSH1 0xFF SWAP2 DIV SWAP4 AND PUSH0 MSTORE PUSH1 0x6 PUSH1 0x20 MSTORE PUSH1 0xFF DUP1 PUSH1 0x40 PUSH0 KECCAK256 SLOAD AND SWAP2 AND EQ PUSH2 0x4212 JUMPI JUMPDEST DUP1 DUP1 PUSH2 0x41FF JUMPI JUMPDEST ISZERO PUSH2 0x4193 JUMPI PUSH1 0x5 PUSH1 0x15 SWAP3 PUSH1 0x1 SHR SWAP4 PUSH2 0x4116 DUP3 DUP3 ADD PUSH2 0x40FD PUSH1 0xFF DUP3 SLOAD PUSH1 0x48 SHR AND PUSH2 0x3F77 JUMP JUMPDEST PUSH1 0xFF PUSH1 0x48 SHL DUP3 SLOAD SWAP2 PUSH1 0x48 SHL AND SWAP1 PUSH1 0xFF PUSH1 0x48 SHL NOT AND OR SWAP1 SSTORE JUMP JUMPDEST ADD SLOAD SWAP1 PUSH1 0x40 MLOAD SWAP1 PUSH1 0x20 DUP3 ADD SWAP3 TIMESTAMP DUP5 MSTORE PUSH1 0xFF PUSH1 0xF8 SHL SWAP1 PUSH1 0xD8 SHL AND PUSH1 0x40 DUP4 ADD MSTORE ISZERO ISZERO PUSH1 0xF8 SHL PUSH1 0x41 DUP3 ADD MSTORE PUSH1 0x22 DUP2 MSTORE PUSH2 0x414D PUSH1 0x42 DUP3 PUSH2 0x2A30 JUMP JUMPDEST MLOAD SWAP1 KECCAK256 MOD PUSH1 0x5A ADD SWAP1 DUP2 PUSH1 0x5A GT PUSH2 0x1092 JUMPI PUSH1 0x64 SWAP2 PUSH2 0x4169 SWAP2 PUSH2 0x3613 JUMP JUMPDEST DIV PUSH1 0x5 DUP2 LT PUSH2 0x418B JUMPI JUMPDEST PUSH2 0xFFFF DUP2 GT ISZERO PUSH2 0x4184 JUMPI POP PUSH2 0xFFFF SWAP1 JUMP JUMPDEST PUSH2 0xFFFF AND SWAP1 JUMP JUMPDEST POP PUSH1 0x5 PUSH2 0x4173 JUMP JUMPDEST DUP1 ISZERO DUP1 PUSH2 0x41EC JUMPI JUMPDEST PUSH2 0x41AB JUMPI JUMPDEST PUSH1 0x5 PUSH1 0x15 SWAP3 SWAP4 PUSH2 0x4116 JUMP JUMPDEST PUSH1 0x5 PUSH1 0x15 SWAP3 PUSH1 0x1 SHR SWAP4 PUSH2 0x41E3 DUP3 DUP3 ADD PUSH2 0x41CA PUSH1 0xFF DUP3 SLOAD PUSH1 0x40 SHR AND PUSH2 0x3F77 JUMP JUMPDEST PUSH1 0xFF PUSH1 0x40 SHL DUP3 SLOAD SWAP2 PUSH1 0x40 SHL AND SWAP1 PUSH1 0xFF PUSH1 0x40 SHL NOT AND OR SWAP1 SSTORE JUMP JUMPDEST SWAP4 SWAP3 POP POP PUSH2 0x41A0 JUMP JUMPDEST POP PUSH1 0xFF PUSH1 0x5 DUP5 ADD SLOAD PUSH1 0x40 SHR AND ISZERO ISZERO PUSH2 0x419B JUMP JUMPDEST POP PUSH1 0xFF PUSH1 0x5 DUP5 ADD SLOAD PUSH1 0x48 SHR AND ISZERO ISZERO PUSH2 0x40D9 JUMP JUMPDEST SWAP1 PUSH2 0x421E PUSH1 0x64 SWAP2 PUSH2 0x35FD JUMP JUMPDEST DIV SWAP1 PUSH2 0x40D2 JUMP JUMPDEST SWAP1 POP PUSH2 0x100 PUSH1 0x4 DUP7 ADD SLOAD PUSH1 0x24 PUSH1 0x40 MLOAD DUP1 SWAP5 DUP2 SWAP4 PUSH4 0x6A24447F PUSH1 0xE1 SHL DUP4 MSTORE PUSH1 0x4 DUP4 ADD MSTORE GAS STATICCALL SWAP1 DUP2 ISZERO PUSH2 0x418 JUMPI PUSH0 SWAP2 PUSH2 0x4270 JUMPI JUMPDEST POP PUSH2 0xFFFF PUSH1 0xFF PUSH1 0x80 DUP3 PUSH1 0x20 DUP6 ADD MLOAD AND SWAP4 ADD MLOAD AND SWAP3 PUSH2 0x4072 JUMP JUMPDEST PUSH2 0x4289 SWAP2 POP PUSH2 0x100 RETURNDATASIZE DUP2 GT PUSH2 0x7CE JUMPI PUSH2 0x7C0 DUP2 DUP4 PUSH2 0x2A30 JUMP JUMPDEST PUSH0 PUSH2 0x4257 JUMP JUMPDEST PUSH2 0x42A8 SWAP2 POP PUSH2 0x100 RETURNDATASIZE DUP2 GT PUSH2 0x7CE JUMPI PUSH2 0x7C0 DUP2 DUP4 PUSH2 0x2A30 JUMP JUMPDEST PUSH0 PUSH2 0x3FEB JUMP JUMPDEST PUSH1 0x5 DUP3 ADD SLOAD PUSH1 0xFF DUP2 PUSH1 0x58 SHR AND PUSH1 0x2 DUP2 LT ISZERO PUSH2 0x828 JUMPI PUSH1 0x1 SUB PUSH2 0x4398 JUMPI DUP3 SLOAD SWAP1 PUSH1 0x40 MLOAD SWAP1 PUSH1 0x20 DUP3 ADD SWAP3 DUP4 MSTORE PUSH1 0xFF PUSH1 0xF8 SHL SWAP1 PUSH1 0xD8 SHL AND PUSH1 0x40 DUP3 ADD MSTORE PUSH5 0x616961746B PUSH1 0xD8 SHL PUSH1 0x41 DUP3 ADD MSTORE PUSH1 0x26 DUP2 MSTORE PUSH2 0x4304 PUSH1 0x46 DUP3 PUSH2 0x2A30 JUMP JUMPDEST MLOAD SWAP1 KECCAK256 SWAP1 PUSH1 0x37 DUP3 MOD PUSH1 0x1E ADD DUP1 PUSH1 0x1E GT PUSH2 0x1092 JUMPI PUSH1 0x6 PUSH2 0xFFFF PUSH1 0xFF SWAP3 AND SWAP4 MOD AND SWAP2 JUMPDEST PUSH1 0x3 DUP5 ADD SLOAD PUSH1 0x40 MLOAD PUSH4 0x6A24447F PUSH1 0xE1 SHL DUP2 MSTORE PUSH1 0x4 DUP2 ADD SWAP2 SWAP1 SWAP2 MSTORE PUSH2 0x100 DUP2 PUSH1 0x24 DUP2 PUSH32 0x0 PUSH1 0x1 PUSH1 0x1 PUSH1 0xA0 SHL SUB AND GAS STATICCALL SWAP1 DUP2 ISZERO PUSH2 0x418 JUMPI PUSH0 SWAP2 PUSH2 0x4270 JUMPI POP PUSH2 0xFFFF PUSH1 0xFF PUSH1 0x80 DUP3 PUSH1 0x20 DUP6 ADD MLOAD AND SWAP4 ADD MLOAD AND SWAP3 PUSH2 0x4072 JUMP JUMPDEST POP PUSH1 0x4 DUP3 DUP2 ADD SLOAD PUSH1 0x40 MLOAD PUSH4 0x6A24447F PUSH1 0xE1 SHL DUP2 MSTORE SWAP2 DUP3 ADD MSTORE SWAP1 PUSH2 0x100 DUP3 PUSH1 0x24 DUP2 PUSH32 0x0 PUSH1 0x1 PUSH1 0x1 PUSH1 0xA0 SHL SUB AND GAS STATICCALL SWAP2 DUP3 ISZERO PUSH2 0x418 JUMPI PUSH0 SWAP3 PUSH2 0x4407 JUMPI JUMPDEST POP PUSH1 0xFF PUSH1 0x80 PUSH2 0xFFFF DUP5 MLOAD AND SWAP4 ADD MLOAD AND SWAP2 PUSH2 0x4325 JUMP JUMPDEST PUSH2 0x4421 SWAP2 SWAP3 POP PUSH2 0x100 RETURNDATASIZE DUP2 GT PUSH2 0x7CE JUMPI PUSH2 0x7C0 DUP2 DUP4 PUSH2 0x2A30 JUMP JUMPDEST SWAP1 PUSH0 PUSH2 0x43F2 JUMP JUMPDEST SWAP1 DUP1 ISZERO PUSH2 0x4611 JUMPI PUSH1 0x3 DUP3 ADD SLOAD PUSH1 0x40 MLOAD PUSH4 0x6A24447F PUSH1 0xE1 SHL DUP2 MSTORE PUSH1 0x4 DUP2 ADD SWAP2 SWAP1 SWAP2 MSTORE PUSH32 0x0 PUSH1 0x1 PUSH1 0x1 PUSH1 0xA0 SHL SUB AND SWAP2 SWAP1 PUSH2 0x100 DUP2 PUSH1 0x24 DUP2 DUP7 GAS STATICCALL SWAP1 DUP2 ISZERO PUSH2 0x418 JUMPI PUSH0 SWAP2 PUSH2 0x45F2 JUMPI JUMPDEST POP PUSH1 0xFF PUSH1 0x80 PUSH2 0xFFFF DUP4 MLOAD AND SWAP3 ADD MLOAD AND SWAP3 PUSH1 0x5 DUP6 ADD SLOAD SWAP1 PUSH1 0xFF DUP3 PUSH1 0x58 SHR AND PUSH1 0x2 DUP2 LT ISZERO PUSH2 0x828 JUMPI PUSH1 0x1 SUB PUSH2 0x4588 JUMPI POP DUP5 SLOAD SWAP1 PUSH1 0x40 MLOAD SWAP1 PUSH1 0x20 DUP3 ADD SWAP3 DUP4 MSTORE PUSH1 0xFF PUSH1 0xF8 SHL SWAP1 PUSH1 0xD8 SHL AND PUSH1 0x40 DUP3 ADD MSTORE PUSH3 0x3232B3 PUSH1 0xE9 SHL PUSH1 0x41 DUP3 ADD MSTORE PUSH1 0x24 DUP2 MSTORE PUSH2 0x44F3 PUSH1 0x44 DUP3 PUSH2 0x2A30 JUMP JUMPDEST MLOAD SWAP1 KECCAK256 PUSH1 0x32 DUP2 MOD PUSH1 0x1E ADD DUP1 PUSH1 0x1E GT PUSH2 0x1092 JUMPI PUSH1 0xFF PUSH1 0x6 PUSH2 0xFFFF DUP1 SWAP4 AND SWAP4 MOD AND SWAP3 JUMPDEST AND SWAP1 PUSH1 0x64 DUP3 MUL SWAP2 DUP1 DUP4 DIV PUSH1 0x64 EQ SWAP1 ISZERO OR ISZERO PUSH2 0x1092 JUMPI PUSH2 0xFFFF AND PUSH1 0x64 ADD SWAP1 DUP2 PUSH1 0x64 GT PUSH2 0x1092 JUMPI PUSH1 0xFF SWAP2 PUSH2 0x4545 SWAP2 PUSH2 0x36CD JUMP JUMPDEST SWAP4 AND PUSH0 MSTORE PUSH1 0x6 PUSH1 0x20 MSTORE PUSH1 0xFF DUP1 PUSH1 0x40 PUSH0 KECCAK256 SLOAD AND SWAP2 AND EQ PUSH2 0x4212 JUMPI DUP1 DUP1 PUSH2 0x41FF JUMPI ISZERO PUSH2 0x4193 JUMPI PUSH1 0x5 PUSH1 0x15 SWAP3 PUSH1 0x1 SHR SWAP4 PUSH2 0x4116 DUP3 DUP3 ADD PUSH2 0x40FD PUSH1 0xFF DUP3 SLOAD PUSH1 0x48 SHR AND PUSH2 0x3F77 JUMP JUMPDEST SWAP1 POP PUSH2 0x100 PUSH1 0x4 DUP7 ADD SLOAD PUSH1 0x24 PUSH1 0x40 MLOAD DUP1 SWAP5 DUP2 SWAP4 PUSH4 0x6A24447F PUSH1 0xE1 SHL DUP4 MSTORE PUSH1 0x4 DUP4 ADD MSTORE GAS STATICCALL SWAP1 DUP2 ISZERO PUSH2 0x418 JUMPI PUSH0 SWAP2 PUSH2 0x45D3 JUMPI JUMPDEST POP PUSH2 0xFFFF PUSH1 0xFF PUSH1 0x80 DUP3 PUSH1 0x20 DUP6 ADD MLOAD AND SWAP4 ADD MLOAD AND SWAP3 PUSH2 0x4514 JUMP JUMPDEST PUSH2 0x45EC SWAP2 POP PUSH2 0x100 RETURNDATASIZE DUP2 GT PUSH2 0x7CE JUMPI PUSH2 0x7C0 DUP2 DUP4 PUSH2 0x2A30 JUMP JUMPDEST PUSH0 PUSH2 0x45BA JUMP JUMPDEST PUSH2 0x460B SWAP2 POP PUSH2 0x100 RETURNDATASIZE DUP2 GT PUSH2 0x7CE JUMPI PUSH2 0x7C0 DUP2 DUP4 PUSH2 0x2A30 JUMP JUMPDEST PUSH0 PUSH2 0x448D JUMP JUMPDEST PUSH1 0x5 DUP3 ADD SLOAD PUSH1 0xFF DUP2 PUSH1 0x58 SHR AND PUSH1 0x2 DUP2 LT ISZERO PUSH2 0x828 JUMPI PUSH1 0x1 SUB PUSH2 0x46FB JUMPI DUP3 SLOAD SWAP1 PUSH1 0x40 MLOAD SWAP1 PUSH1 0x20 DUP3 ADD SWAP3 DUP4 MSTORE PUSH1 0xFF PUSH1 0xF8 SHL SWAP1 PUSH1 0xD8 SHL AND PUSH1 0x40 DUP3 ADD MSTORE PUSH5 0x616961746B PUSH1 0xD8 SHL PUSH1 0x41 DUP3 ADD MSTORE PUSH1 0x26 DUP2 MSTORE PUSH2 0x4667 PUSH1 0x46 DUP3 PUSH2 0x2A30 JUMP JUMPDEST MLOAD SWAP1 KECCAK256 SWAP1 PUSH1 0x37 DUP3 MOD PUSH1 0x1E ADD DUP1 PUSH1 0x1E GT PUSH2 0x1092 JUMPI PUSH1 0x6 PUSH2 0xFFFF PUSH1 0xFF SWAP3 AND SWAP4 MOD AND SWAP2 JUMPDEST PUSH1 0x3 DUP5 ADD SLOAD PUSH1 0x40 MLOAD PUSH4 0x6A24447F PUSH1 0xE1 SHL DUP2 MSTORE PUSH1 0x4 DUP2 ADD SWAP2 SWAP1 SWAP2 MSTORE PUSH2 0x100 DUP2 PUSH1 0x24 DUP2 PUSH32 0x0 PUSH1 0x1 PUSH1 0x1 PUSH1 0xA0 SHL SUB AND GAS STATICCALL SWAP1 DUP2 ISZERO PUSH2 0x418 JUMPI PUSH0 SWAP2 PUSH2 0x45D3 JUMPI POP PUSH2 0xFFFF PUSH1 0xFF PUSH1 0x80 DUP3 PUSH1 0x20 DUP6 ADD MLOAD AND SWAP4 ADD MLOAD AND SWAP3 PUSH2 0x4514 JUMP JUMPDEST POP PUSH1 0x4 DUP3 DUP2 ADD SLOAD PUSH1 0x40 MLOAD PUSH4 0x6A24447F PUSH1 0xE1 SHL DUP2 MSTORE SWAP2 DUP3 ADD MSTORE SWAP1 PUSH2 0x100 DUP3 PUSH1 0x24 DUP2 PUSH32 0x0 PUSH1 0x1 PUSH1 0x1 PUSH1 0xA0 SHL SUB AND GAS STATICCALL SWAP2 DUP3 ISZERO PUSH2 0x418 JUMPI PUSH0 SWAP3 PUSH2 0x476A JUMPI JUMPDEST POP PUSH1 0xFF PUSH1 0x80 PUSH2 0xFFFF DUP5 MLOAD AND SWAP4 ADD MLOAD AND SWAP2 PUSH2 0x4688 JUMP JUMPDEST PUSH2 0x4784 SWAP2 SWAP3 POP PUSH2 0x100 RETURNDATASIZE DUP2 GT PUSH2 0x7CE JUMPI PUSH2 0x7C0 DUP2 DUP4 PUSH2 0x2A30 JUMP JUMPDEST SWAP1 PUSH0 PUSH2 0x4755 JUMP INVALID SWAP12 PUSH24 0x9B17422D0DF92223018B32B4D1FA46E071723D6817E2486D STOP EXTCODESIZE 0xEC 0xC5 PUSH0 STOP LOG2 PUSH5 0x6970667358 0x22 SLT KECCAK256 SMOD SHR 0xB7 CALLDATACOPY 0xAB SWAP7 LOG4 LOG4 DUP9 ADDRESS 0x2A ADD LOG1 0xFC 0xC8 ISZERO GASPRICE SWAP15 0x26 0xAD SWAP10 0xB3 0xC1 SUB SMOD 0xE2 DUP15 BLOBBASEFEE 0xDA 0x4C PUSH8 0x1864736F6C634300 ADDMOD SHR STOP CALLER "},"methodIdentifiers":{"ABILITY_COOLDOWN()":"c0fac838","ABILITY_POWER_MULTIPLIER()":"2f3d22bb","BASE_DAMAGE_MIN()":"3837ad48","ELEMENT_BONUS()":"e2680709","MAX_PLATFORM_FEE()":"3998a681","MAX_TURNS()":"8b90fbc0","abandonBattle(uint256)":"255d2fad","activeBattle(address)":"33e4b2df","battleLogs(uint256,uint256)":"42d4aa60","battles(uint256)":"606d2e96","canUseAbility(uint256,bool)":"d794e1a6","cancelBattle(uint256)":"4c4c447e","claimPrize(uint256,uint256)":"7b154140","createAIBattle(uint256)":"a98204f8","createBattle(uint256)":"94d44f12","currentSeason()":"bcb39621","elementAdvantage(uint8)":"0a02396b","emergencyWithdrawPrizePool(address)":"e7a2df61","endSeason(address[])":"1833c0af","entryFee()":"072ea61c","forfeitBattle(uint256)":"07653afd","getBattle(uint256)":"6dd0ce7a","getBattleLog(uint256)":"188107b7","getOpenBattles(uint256,uint256)":"851ea6b9","getPlayerRecord(address)":"d21b4c52","getPoolInfo()":"60246c88","getPrizeAmount(uint256,uint256)":"6abe4b1a","getSeasonWins(uint256,address)":"e178e215","getTopTierShares()":"8a29719f","hasElementAdvantage(uint8,uint8)":"b94f5e49","joinBattle(uint256,uint256)":"e44dba4f","makeMove(uint256,uint8)":"7fd6f7c4","nextBattleId()":"31a6ff66","owner()":"8da5cb5b","pathUSD()":"7b008d3b","platformFeeBps()":"22dcd13e","platformFees()":"194a4e7e","playerRecords(address)":"7c01800d","prizeClaimed(uint256,uint256)":"db2c0fd1","prizePool()":"719ce73e","renounceOwnership()":"715018a6","seasonDuration()":"e76c5908","seasonPrizePool(uint256)":"fe54009d","seasonRankings(uint256,uint256)":"a94e5a69","seasonStart()":"bafa0946","seasonTimeRemaining()":"20286cc3","seasonWins(uint256,address)":"0dca4bc1","setEntryFee(uint256)":"eb770d0c","setPlatformFee(uint256)":"12e8e2c3","setPrizeStructure(uint256[],uint256)":"cf2012af","setSeasonDuration(uint256)":"84f86a66","topTierCount()":"371ca3c5","topTierShares(uint256)":"3c38b21d","totalBattlesPlayed()":"302c80e1","totalRewardedPlayers()":"3aaea2e7","transferOwnership(address)":"f2fde38b","whaleCards()":"96a92858","withdrawPlatformFees(address)":"ec3889b5"}}}}}