{"project/contracts/BattleArena.sol":{"BattleArena":{"abi":[{"inputs":[{"internalType":"address","name":"_whaleCards","type":"address"},{"internalType":"address","name":"_pathUSD","type":"address"}],"stateMutability":"nonpayable","type":"constructor"},{"inputs":[],"name":"AbilityOnCooldown","type":"error"},{"inputs":[],"name":"AlreadyClaimed","type":"error"},{"inputs":[],"name":"AlreadyInBattle","type":"error"},{"inputs":[],"name":"BattleAlreadyFinished","type":"error"},{"inputs":[],"name":"BattleNotActive","type":"error"},{"inputs":[],"name":"BattleNotFound","type":"error"},{"inputs":[],"name":"BattleNotOpen","type":"error"},{"inputs":[],"name":"CannotFightYourself","type":"error"},{"inputs":[],"name":"CardStatsNotSet","type":"error"},{"inputs":[],"name":"ForfeitNotAllowed","type":"error"},{"inputs":[],"name":"InsufficientAllowance","type":"error"},{"inputs":[],"name":"InvalidFee","type":"error"},{"inputs":[],"name":"InvalidMove","type":"error"},{"inputs":[],"name":"InvalidRank","type":"error"},{"inputs":[],"name":"NotBattleParticipant","type":"error"},{"inputs":[],"name":"NotCardOwner","type":"error"},{"inputs":[],"name":"NotRankedPlayer","type":"error"},{"inputs":[],"name":"NotYourTurn","type":"error"},{"inputs":[],"name":"NothingToWithdraw","type":"error"},{"inputs":[{"internalType":"address","name":"owner","type":"address"}],"name":"OwnableInvalidOwner","type":"error"},{"inputs":[{"internalType":"address","name":"account","type":"address"}],"name":"OwnableUnauthorizedAccount","type":"error"},{"inputs":[],"name":"ReentrancyGuardReentrantCall","type":"error"},{"inputs":[],"name":"SeasonNotEnded","type":"error"},{"inputs":[],"name":"SeasonStillActive","type":"error"},{"anonymous":false,"inputs":[{"indexed":true,"internalType":"uint256","name":"battleId","type":"uint256"}],"name":"BattleCancelled","type":"event"},{"anonymous":false,"inputs":[{"indexed":true,"internalType":"uint256","name":"battleId","type":"uint256"},{"indexed":true,"internalType":"address","name":"player1","type":"address"},{"indexed":false,"internalType":"uint256","name":"card1","type":"uint256"},{"indexed":false,"internalType":"enum BattleArena.BattleMode","name":"mode","type":"uint8"}],"name":"BattleCreated","type":"event"},{"anonymous":false,"inputs":[{"indexed":true,"internalType":"uint256","name":"battleId","type":"uint256"},{"indexed":true,"internalType":"address","name":"winner","type":"address"},{"indexed":false,"internalType":"uint8","name":"totalTurns","type":"uint8"}],"name":"BattleFinished","type":"event"},{"anonymous":false,"inputs":[{"indexed":true,"internalType":"uint256","name":"battleId","type":"uint256"},{"indexed":true,"internalType":"address","name":"forfeiter","type":"address"}],"name":"BattleForfeited","type":"event"},{"anonymous":false,"inputs":[{"indexed":true,"internalType":"uint256","name":"battleId","type":"uint256"},{"indexed":true,"internalType":"address","name":"player2","type":"address"},{"indexed":false,"internalType":"uint256","name":"card2","type":"uint256"}],"name":"BattleJoined","type":"event"},{"anonymous":false,"inputs":[{"indexed":true,"internalType":"uint256","name":"battleId","type":"uint256"},{"indexed":false,"internalType":"uint8","name":"turn","type":"uint8"},{"indexed":true,"internalType":"address","name":"player","type":"address"},{"indexed":false,"internalType":"enum BattleArena.MoveType","name":"move","type":"uint8"},{"indexed":false,"internalType":"uint16","name":"damage","type":"uint16"}],"name":"BattleMove","type":"event"},{"anonymous":false,"inputs":[{"indexed":true,"internalType":"address","name":"to","type":"address"},{"indexed":false,"internalType":"uint256","name":"amount","type":"uint256"}],"name":"EmergencyWithdraw","type":"event"},{"anonymous":false,"inputs":[{"indexed":true,"internalType":"address","name":"player","type":"address"},{"indexed":false,"internalType":"uint256","name":"amount","type":"uint256"},{"indexed":false,"internalType":"uint256","name":"toPool","type":"uint256"},{"indexed":false,"internalType":"uint256","name":"toPlatform","type":"uint256"}],"name":"EntryFeePaid","type":"event"},{"anonymous":false,"inputs":[{"indexed":false,"internalType":"uint256","name":"oldFee","type":"uint256"},{"indexed":false,"internalType":"uint256","name":"newFee","type":"uint256"}],"name":"EntryFeeUpdated","type":"event"},{"anonymous":false,"inputs":[{"indexed":true,"internalType":"address","name":"previousOwner","type":"address"},{"indexed":true,"internalType":"address","name":"newOwner","type":"address"}],"name":"OwnershipTransferred","type":"event"},{"anonymous":false,"inputs":[{"indexed":true,"internalType":"uint256","name":"season","type":"uint256"},{"indexed":false,"internalType":"uint256","name":"rank","type":"uint256"},{"indexed":true,"internalType":"address","name":"player","type":"address"},{"indexed":false,"internalType":"uint256","name":"amount","type":"uint256"}],"name":"PrizeClaimed","type":"event"},{"anonymous":false,"inputs":[{"indexed":true,"internalType":"uint256","name":"season","type":"uint256"},{"indexed":false,"internalType":"uint256","name":"prizePool","type":"uint256"},{"indexed":false,"internalType":"address[]","name":"topPlayers","type":"address[]"}],"name":"SeasonEnded","type":"event"},{"inputs":[],"name":"ABILITY_COOLDOWN","outputs":[{"internalType":"uint16","name":"","type":"uint16"}],"stateMutability":"view","type":"function"},{"inputs":[],"name":"ABILITY_POWER_MULTIPLIER","outputs":[{"internalType":"uint16","name":"","type":"uint16"}],"stateMutability":"view","type":"function"},{"inputs":[],"name":"BASE_DAMAGE_MIN","outputs":[{"internalType":"uint16","name":"","type":"uint16"}],"stateMutability":"view","type":"function"},{"inputs":[],"name":"ELEMENT_BONUS","outputs":[{"internalType":"uint16","name":"","type":"uint16"}],"stateMutability":"view","type":"function"},{"inputs":[],"name":"MAX_PLATFORM_FEE","outputs":[{"internalType":"uint256","name":"","type":"uint256"}],"stateMutability":"view","type":"function"},{"inputs":[],"name":"MAX_TURNS","outputs":[{"internalType":"uint8","name":"","type":"uint8"}],"stateMutability":"view","type":"function"},{"inputs":[{"internalType":"address","name":"","type":"address"}],"name":"activeBattle","outputs":[{"internalType":"uint256","name":"","type":"uint256"}],"stateMutability":"view","type":"function"},{"inputs":[{"internalType":"uint256","name":"","type":"uint256"},{"internalType":"uint256","name":"","type":"uint256"}],"name":"battleLogs","outputs":[{"internalType":"uint8","name":"turn","type":"uint8"},{"internalType":"address","name":"player","type":"address"},{"internalType":"enum BattleArena.MoveType","name":"move","type":"uint8"},{"internalType":"uint16","name":"damage","type":"uint16"},{"internalType":"int16","name":"hp1After","type":"int16"},{"internalType":"int16","name":"hp2After","type":"int16"}],"stateMutability":"view","type":"function"},{"inputs":[{"internalType":"uint256","name":"","type":"uint256"}],"name":"battles","outputs":[{"internalType":"uint256","name":"battleId","type":"uint256"},{"internalType":"address","name":"player1","type":"address"},{"internalType":"address","name":"player2","type":"address"},{"internalType":"uint256","name":"card1","type":"uint256"},{"internalType":"uint256","name":"card2","type":"uint256"},{"internalType":"int16","name":"hp1","type":"int16"},{"internalType":"int16","name":"hp2","type":"int16"},{"internalType":"uint8","name":"turn","type":"uint8"},{"internalType":"uint8","name":"lastAbility1","type":"uint8"},{"internalType":"uint8","name":"lastAbility2","type":"uint8"},{"internalType":"bool","name":"isPlayer1Turn","type":"bool"},{"internalType":"uint8","name":"defenseBoost1","type":"uint8"},{"internalType":"uint8","name":"defenseBoost2","type":"uint8"},{"internalType":"enum BattleArena.BattleStatus","name":"status","type":"uint8"},{"internalType":"enum BattleArena.BattleMode","name":"mode","type":"uint8"},{"internalType":"address","name":"winner","type":"address"},{"internalType":"uint256","name":"createdAt","type":"uint256"},{"internalType":"uint256","name":"finishedAt","type":"uint256"}],"stateMutability":"view","type":"function"},{"inputs":[{"internalType":"uint256","name":"battleId","type":"uint256"},{"internalType":"bool","name":"isPlayer1","type":"bool"}],"name":"canUseAbility","outputs":[{"internalType":"bool","name":"","type":"bool"}],"stateMutability":"view","type":"function"},{"inputs":[{"internalType":"uint256","name":"battleId","type":"uint256"}],"name":"cancelBattle","outputs":[],"stateMutability":"nonpayable","type":"function"},{"inputs":[{"internalType":"uint256","name":"season","type":"uint256"},{"internalType":"uint256","name":"rank","type":"uint256"}],"name":"claimPrize","outputs":[],"stateMutability":"nonpayable","type":"function"},{"inputs":[{"internalType":"uint256","name":"cardId","type":"uint256"}],"name":"createAIBattle","outputs":[{"internalType":"uint256","name":"","type":"uint256"}],"stateMutability":"nonpayable","type":"function"},{"inputs":[{"internalType":"uint256","name":"cardId","type":"uint256"}],"name":"createBattle","outputs":[{"internalType":"uint256","name":"","type":"uint256"}],"stateMutability":"nonpayable","type":"function"},{"inputs":[],"name":"currentSeason","outputs":[{"internalType":"uint256","name":"","type":"uint256"}],"stateMutability":"view","type":"function"},{"inputs":[{"internalType":"uint8","name":"","type":"uint8"}],"name":"elementAdvantage","outputs":[{"internalType":"uint8","name":"","type":"uint8"}],"stateMutability":"view","type":"function"},{"inputs":[{"internalType":"address","name":"to","type":"address"}],"name":"emergencyWithdrawPrizePool","outputs":[],"stateMutability":"nonpayable","type":"function"},{"inputs":[{"internalType":"address[]","name":"topPlayers","type":"address[]"}],"name":"endSeason","outputs":[],"stateMutability":"nonpayable","type":"function"},{"inputs":[],"name":"entryFee","outputs":[{"internalType":"uint256","name":"","type":"uint256"}],"stateMutability":"view","type":"function"},{"inputs":[{"internalType":"uint256","name":"battleId","type":"uint256"}],"name":"forfeitBattle","outputs":[],"stateMutability":"nonpayable","type":"function"},{"inputs":[{"internalType":"uint256","name":"battleId","type":"uint256"}],"name":"getBattle","outputs":[{"components":[{"internalType":"uint256","name":"battleId","type":"uint256"},{"internalType":"address","name":"player1","type":"address"},{"internalType":"address","name":"player2","type":"address"},{"internalType":"uint256","name":"card1","type":"uint256"},{"internalType":"uint256","name":"card2","type":"uint256"},{"internalType":"int16","name":"hp1","type":"int16"},{"internalType":"int16","name":"hp2","type":"int16"},{"internalType":"uint8","name":"turn","type":"uint8"},{"internalType":"uint8","name":"lastAbility1","type":"uint8"},{"internalType":"uint8","name":"lastAbility2","type":"uint8"},{"internalType":"bool","name":"isPlayer1Turn","type":"bool"},{"internalType":"uint8","name":"defenseBoost1","type":"uint8"},{"internalType":"uint8","name":"defenseBoost2","type":"uint8"},{"internalType":"enum BattleArena.BattleStatus","name":"status","type":"uint8"},{"internalType":"enum BattleArena.BattleMode","name":"mode","type":"uint8"},{"internalType":"address","name":"winner","type":"address"},{"internalType":"uint256","name":"createdAt","type":"uint256"},{"internalType":"uint256","name":"finishedAt","type":"uint256"}],"internalType":"struct BattleArena.Battle","name":"","type":"tuple"}],"stateMutability":"view","type":"function"},{"inputs":[{"internalType":"uint256","name":"battleId","type":"uint256"}],"name":"getBattleLog","outputs":[{"components":[{"internalType":"uint8","name":"turn","type":"uint8"},{"internalType":"address","name":"player","type":"address"},{"internalType":"enum BattleArena.MoveType","name":"move","type":"uint8"},{"internalType":"uint16","name":"damage","type":"uint16"},{"internalType":"int16","name":"hp1After","type":"int16"},{"internalType":"int16","name":"hp2After","type":"int16"}],"internalType":"struct BattleArena.BattleLog[]","name":"","type":"tuple[]"}],"stateMutability":"view","type":"function"},{"inputs":[{"internalType":"uint256","name":"offset","type":"uint256"},{"internalType":"uint256","name":"limit","type":"uint256"}],"name":"getOpenBattles","outputs":[{"components":[{"internalType":"uint256","name":"battleId","type":"uint256"},{"internalType":"address","name":"player1","type":"address"},{"internalType":"address","name":"player2","type":"address"},{"internalType":"uint256","name":"card1","type":"uint256"},{"internalType":"uint256","name":"card2","type":"uint256"},{"internalType":"int16","name":"hp1","type":"int16"},{"internalType":"int16","name":"hp2","type":"int16"},{"internalType":"uint8","name":"turn","type":"uint8"},{"internalType":"uint8","name":"lastAbility1","type":"uint8"},{"internalType":"uint8","name":"lastAbility2","type":"uint8"},{"internalType":"bool","name":"isPlayer1Turn","type":"bool"},{"internalType":"uint8","name":"defenseBoost1","type":"uint8"},{"internalType":"uint8","name":"defenseBoost2","type":"uint8"},{"internalType":"enum BattleArena.BattleStatus","name":"status","type":"uint8"},{"internalType":"enum BattleArena.BattleMode","name":"mode","type":"uint8"},{"internalType":"address","name":"winner","type":"address"},{"internalType":"uint256","name":"createdAt","type":"uint256"},{"internalType":"uint256","name":"finishedAt","type":"uint256"}],"internalType":"struct BattleArena.Battle[]","name":"","type":"tuple[]"}],"stateMutability":"view","type":"function"},{"inputs":[{"internalType":"address","name":"player","type":"address"}],"name":"getPlayerRecord","outputs":[{"components":[{"internalType":"uint32","name":"wins","type":"uint32"},{"internalType":"uint32","name":"losses","type":"uint32"},{"internalType":"uint32","name":"draws","type":"uint32"},{"internalType":"uint32","name":"totalBattles","type":"uint32"},{"internalType":"uint32","name":"winStreak","type":"uint32"},{"internalType":"uint32","name":"bestStreak","type":"uint32"},{"internalType":"uint256","name":"totalDamageDealt","type":"uint256"}],"internalType":"struct BattleArena.PlayerRecord","name":"","type":"tuple"}],"stateMutability":"view","type":"function"},{"inputs":[],"name":"getPoolInfo","outputs":[{"internalType":"uint256","name":"currentPool","type":"uint256"},{"internalType":"uint256","name":"season","type":"uint256"},{"internalType":"uint256","name":"seasonEnd","type":"uint256"},{"internalType":"uint256","name":"totalBattles","type":"uint256"},{"internalType":"uint256","name":"currentEntryFee","type":"uint256"},{"internalType":"uint256","name":"topTier","type":"uint256"},{"internalType":"uint256","name":"totalRewarded","type":"uint256"}],"stateMutability":"view","type":"function"},{"inputs":[{"internalType":"uint256","name":"season","type":"uint256"},{"internalType":"uint256","name":"rank","type":"uint256"}],"name":"getPrizeAmount","outputs":[{"internalType":"uint256","name":"","type":"uint256"}],"stateMutability":"view","type":"function"},{"inputs":[{"internalType":"uint256","name":"season","type":"uint256"},{"internalType":"address","name":"player","type":"address"}],"name":"getSeasonWins","outputs":[{"internalType":"uint32","name":"","type":"uint32"}],"stateMutability":"view","type":"function"},{"inputs":[],"name":"getTopTierShares","outputs":[{"internalType":"uint256[]","name":"","type":"uint256[]"}],"stateMutability":"view","type":"function"},{"inputs":[{"internalType":"uint8","name":"attackerElement","type":"uint8"},{"internalType":"uint8","name":"defenderElement","type":"uint8"}],"name":"hasElementAdvantage","outputs":[{"internalType":"bool","name":"","type":"bool"}],"stateMutability":"view","type":"function"},{"inputs":[{"internalType":"uint256","name":"battleId","type":"uint256"},{"internalType":"uint256","name":"cardId","type":"uint256"}],"name":"joinBattle","outputs":[],"stateMutability":"nonpayable","type":"function"},{"inputs":[{"internalType":"uint256","name":"battleId","type":"uint256"},{"internalType":"enum BattleArena.MoveType","name":"move","type":"uint8"}],"name":"makeMove","outputs":[],"stateMutability":"nonpayable","type":"function"},{"inputs":[],"name":"nextBattleId","outputs":[{"internalType":"uint256","name":"","type":"uint256"}],"stateMutability":"view","type":"function"},{"inputs":[],"name":"owner","outputs":[{"internalType":"address","name":"","type":"address"}],"stateMutability":"view","type":"function"},{"inputs":[],"name":"pathUSD","outputs":[{"internalType":"contract IPATHUSD","name":"","type":"address"}],"stateMutability":"view","type":"function"},{"inputs":[],"name":"platformFeeBps","outputs":[{"internalType":"uint256","name":"","type":"uint256"}],"stateMutability":"view","type":"function"},{"inputs":[],"name":"platformFees","outputs":[{"internalType":"uint256","name":"","type":"uint256"}],"stateMutability":"view","type":"function"},{"inputs":[{"internalType":"address","name":"","type":"address"}],"name":"playerRecords","outputs":[{"internalType":"uint32","name":"wins","type":"uint32"},{"internalType":"uint32","name":"losses","type":"uint32"},{"internalType":"uint32","name":"draws","type":"uint32"},{"internalType":"uint32","name":"totalBattles","type":"uint32"},{"internalType":"uint32","name":"winStreak","type":"uint32"},{"internalType":"uint32","name":"bestStreak","type":"uint32"},{"internalType":"uint256","name":"totalDamageDealt","type":"uint256"}],"stateMutability":"view","type":"function"},{"inputs":[{"internalType":"uint256","name":"","type":"uint256"},{"internalType":"uint256","name":"","type":"uint256"}],"name":"prizeClaimed","outputs":[{"internalType":"bool","name":"","type":"bool"}],"stateMutability":"view","type":"function"},{"inputs":[],"name":"prizePool","outputs":[{"internalType":"uint256","name":"","type":"uint256"}],"stateMutability":"view","type":"function"},{"inputs":[],"name":"renounceOwnership","outputs":[],"stateMutability":"nonpayable","type":"function"},{"inputs":[],"name":"seasonDuration","outputs":[{"internalType":"uint256","name":"","type":"uint256"}],"stateMutability":"view","type":"function"},{"inputs":[{"internalType":"uint256","name":"","type":"uint256"}],"name":"seasonPrizePool","outputs":[{"internalType":"uint256","name":"","type":"uint256"}],"stateMutability":"view","type":"function"},{"inputs":[{"internalType":"uint256","name":"","type":"uint256"},{"internalType":"uint256","name":"","type":"uint256"}],"name":"seasonRankings","outputs":[{"internalType":"address","name":"","type":"address"}],"stateMutability":"view","type":"function"},{"inputs":[],"name":"seasonStart","outputs":[{"internalType":"uint256","name":"","type":"uint256"}],"stateMutability":"view","type":"function"},{"inputs":[],"name":"seasonTimeRemaining","outputs":[{"internalType":"uint256","name":"","type":"uint256"}],"stateMutability":"view","type":"function"},{"inputs":[{"internalType":"uint256","name":"","type":"uint256"},{"internalType":"address","name":"","type":"address"}],"name":"seasonWins","outputs":[{"internalType":"uint32","name":"","type":"uint32"}],"stateMutability":"view","type":"function"},{"inputs":[{"internalType":"uint256","name":"_fee","type":"uint256"}],"name":"setEntryFee","outputs":[],"stateMutability":"nonpayable","type":"function"},{"inputs":[{"internalType":"uint256","name":"_feeBps","type":"uint256"}],"name":"setPlatformFee","outputs":[],"stateMutability":"nonpayable","type":"function"},{"inputs":[{"internalType":"uint256[]","name":"_topTierShares","type":"uint256[]"},{"internalType":"uint256","name":"_totalRewardedPlayers","type":"uint256"}],"name":"setPrizeStructure","outputs":[],"stateMutability":"nonpayable","type":"function"},{"inputs":[{"internalType":"uint256","name":"_duration","type":"uint256"}],"name":"setSeasonDuration","outputs":[],"stateMutability":"nonpayable","type":"function"},{"inputs":[],"name":"topTierCount","outputs":[{"internalType":"uint256","name":"","type":"uint256"}],"stateMutability":"view","type":"function"},{"inputs":[{"internalType":"uint256","name":"","type":"uint256"}],"name":"topTierShares","outputs":[{"internalType":"uint256","name":"","type":"uint256"}],"stateMutability":"view","type":"function"},{"inputs":[],"name":"totalBattlesPlayed","outputs":[{"internalType":"uint256","name":"","type":"uint256"}],"stateMutability":"view","type":"function"},{"inputs":[],"name":"totalRewardedPlayers","outputs":[{"internalType":"uint256","name":"","type":"uint256"}],"stateMutability":"view","type":"function"},{"inputs":[{"internalType":"address","name":"newOwner","type":"address"}],"name":"transferOwnership","outputs":[],"stateMutability":"nonpayable","type":"function"},{"inputs":[],"name":"whaleCards","outputs":[{"internalType":"contract IWhaleCards","name":"","type":"address"}],"stateMutability":"view","type":"function"},{"inputs":[{"internalType":"address","name":"to","type":"address"}],"name":"withdrawPlatformFees","outputs":[],"stateMutability":"nonpayable","type":"function"}],"evm":{"bytecode":{"linkReferences":{},"object":"60c03461040757601f614df638819003918201601f19168301916001600160401b038311848410176103e057808492604094855283398101031261040757610052602061004b8361040b565b920161040b565b9033156103f4575f8054336001600160a01b0319821681178355916001600160a01b03909116907f8be0079c531659141344cd1fd0a4f28419497f9722a3daafe3b4186f6b6457e09080a360017f9b779b17422d0df92223018b32b4d1fa46e071723d6817e2486d003becc55f00819055620f42406007556103e8600855600b81905562278d00600d556005600e81905560196010556001600160a01b039283166080529290911660a05260066020527f54cdd369e4e8a8515e52ca72ec816c2101831ad1f18bf44102ed171459c9b4f8805460ff199081166003179091557f75f96ab15d697e93042dc45b5c896c4b27e89bb6eaf39475c5c371cb2513f7d28054821660041790557fc5069e24aaadb2addc3e52e868fcf3f4f8acf5a87e24300992fd4540c2a87eed805482169092179091557f3e5fec24aa4dc4e5aee2e025e51e1392c72a2500577559fae9665c6d52bd6a31805482169092179091557fbfd358e93f18da3ed276c3afdbdba00b8f0b6008a03476a6a86bd6320ee6938b8054821660029081179091555f527f8819ef417987f8ae7a81f42cdfb18815282fe989326fbff903d13cf0e03ace298054909116905542600c55600f54680100000000000000008110156103e0576001810180600f558110156103cc57610bb890600f5f5260205f200155600f54680100000000000000008110156103e0576001810180600f558110156103cc576107d090600f5f5260205f200155600f54680100000000000000008110156103e0576001810180600f558110156103cc576105dc90600f5f5260205f200155600f54680100000000000000008110156103e0576001810180600f558110156103cc576103e890600f5f5260205f200155600f54680100000000000000008110156103e0576001810180600f558110156103cc57600f5f526102bc7f8d1108e10bcb7c27dddfc02ed9d693a074039d026cf4ea4240b40f7d581ac802909101556040516149d69081610420823960805181818161064c01528181610cf5015281816111060152818161119201528181613b2c01528181613eb6015281816140e5015281816142c6015281816143380152818161445301528181614543015281816147240152614796015260a0518181816103a3015281816104ca0152818161196401528181611a6601528181611dff0152818161259a0152818161269e015281816127ef0152613c6a0152f35b634e487b7160e01b5f52603260045260245ffd5b634e487b7160e01b5f52604160045260245ffd5b631e4fbdf760e01b5f525f60045260245ffd5b5f80fd5b51906001600160a01b03821682036104075756fe6080806040526004361015610012575f80fd5b5f3560e01c908163072ea61c1461286e5750806307653afd146123e85780630a02396b146123b35780630dca4bc11461084c57806312e8e2c31461237a5780631833c0af146121da578063188107b71461208a578063194a4e7e1461206d57806320286cc31461205357806322dcd13e146120365780632f3d22bb1461201b578063302c80e114611ffe57806331a6ff6614611fe157806333e4b2df14611fa9578063371ca3c514611f8c5780633837ad4814611f715780633998a68114611f555780633aaea2e714611f385780633c38b21d14611f0057806342d4aa6014611e7c5780634c4c447e14611ce157806360246c8814611c85578063606d2e9614611b6c5780636abe4b1a14611b4b5780636dd0ce7a14611b09578063715018a614611ab2578063719ce73e14611a955780637b008d3b14611a515780637b1541401461189b5780637c01800d1461181b5780637fd6f7c4146117d757806384f86a66146117b6578063851ea6b9146115f95780638a29719f146115435780638b90fbc0146115285780638da5cb5b1461150157806394d44f121461113557806396a92858146110f1578063a94e5a69146110ba578063a98204f814610c98578063b94f5e4914610c54578063bafa094614610c37578063bcb3962114610c1a578063c0fac83814610bff578063cf2012af146109f8578063d21b4c52146108ff578063d794e1a6146108ca578063db2c0fd114610896578063e178e2151461084c578063e268070914610831578063e44dba4f146105c2578063e76c5908146105a5578063e7a2df611461046b578063eb770d0c14610418578063ec3889b514610342578063f2fde38b146102bd5763fe54009d1461028f575f80fd5b346102b95760203660031901126102b9576004355f526012602052602060405f2054604051908152f35b5f80fd5b346102b95760203660031901126102b9576102d66128ae565b6102de6137d2565b6001600160a01b0316801561032f575f80546001600160a01b03198116831782556001600160a01b0316907f8be0079c531659141344cd1fd0a4f28419497f9722a3daafe3b4186f6b6457e09080a3005b631e4fbdf760e01b5f525f60045260245ffd5b346102b95760203660031901126102b95761039e60206103606128ae565b6103686137d2565b600a80545f90915560405163a9059cbb60e01b81526001600160a01b039092166004830152602482015291829081906044820190565b03815f7f00000000000000000000000000000000000000000000000000000000000000006001600160a01b03165af1801561040d576103d957005b6020813d602011610405575b816103f260209383612b40565b810103126102b95761040390612b62565b005b3d91506103e5565b6040513d5f823e3d90fd5b346102b95760203660031901126102b9576004356104346137d2565b7f6a75d918a59da9597a749b7c707f23cfa76552074b43c68a24a21db1c45841f160406007548151908152836020820152a1600755005b346102b95760203660031901126102b9576104846128ae565b61048c6137d2565b600954908115610596575f60095560405163a9059cbb60e01b81526001600160a01b038216600482015260248101839052602081806044810103815f7f00000000000000000000000000000000000000000000000000000000000000006001600160a01b03165af1801561040d57610538575b506040519182526001600160a01b0316907f5fafa99d0643513820be26656b45130b01e1c03062e1266bf36f88cbd3bd969590602090a2005b6020813d60201161058e575b8161055160209383612b40565b810103126102b9577f5fafa99d0643513820be26656b45130b01e1c03062e1266bf36f88cbd3bd969591610586602092612b62565b5091506104ff565b3d9150610544565b630686827b60e51b5f5260045ffd5b346102b9575f3660031901126102b9576020600d54604051908152f35b346102b9576105d036612943565b906105d961379a565b805f52600260205260405f206005810160ff815460501c16600481101561081d5761080e5760018201546001600160a01b031633146107ff57335f52600560205260405f20546107f05761062d8433613b16565b61063633613c39565b604051636a24447f60e11b8152600481018590527f00000000000000000000000000000000000000000000000000000000000000006001600160a01b03169261010082602481875afa91821561040d575f926107ca575b506002810180546001600160a01b03191633179055600481018690556040820151835463ffff0000191663ffff000060109290921b919091161783556101009060039084546aff0000000000ff0000000019166a01000000000001000000001785550154604051636a24447f60e11b8152600481019190915293849060249082905afa801561040d57606061ffff81819361074e975f9161079b575b5001511692015116111560ff60381b825491151560381b169060ff60381b1916179055565b335f5260056020528060405f20556040519182527fa47b02d2d7d744d434c03db59a4362b0fc7a74d04df715cc6200d66fd65df98960203393a360015f5160206149815f395f51905f5255005b6107bd91506101003d81116107c3575b6107b58183612b40565b810190613681565b8a610729565b503d6107ab565b6101009192506107e8600391833d81116107c3576107b58183612b40565b92915061068d565b631844f0a560e11b5f5260045ffd5b632f50dd8760e01b5f5260045ffd5b637100718960e01b5f5260045ffd5b634e487b7160e01b5f52602160045260245ffd5b346102b9575f3660031901126102b957602060405160968152f35b346102b95760403660031901126102b957610865612898565b6004355f52601460205260405f209060018060a01b03165f52602052602063ffffffff60405f205416604051908152f35b346102b9576108a436612943565b905f52601360205260405f20905f52602052602060ff60405f2054166040519015158152f35b346102b95760403660031901126102b95760243580151581036102b9576108f560209160043561373f565b6040519015158152f35b346102b95760203660031901126102b9576109186128ae565b5f60c060405161092781612b24565b8281528260208201528260408201528260608201528260808201528260a0820152015260018060a01b03165f52600460205260e060405f2060405161096b81612b24565b63ffffffff82548181818581808416988983528160208401818760201c16815260c060016040870194848a60401c1686528460a060608a0199828d60601c168b5282608082019d60801c168d52019c60a01c168c5201549b019a8b526040519b8c52511660208b0152511660408901525116606087015251166080850152511660a08301525160c0820152f35b346102b95760403660031901126102b95760043567ffffffffffffffff81116102b957610a299036906004016128c4565b60243591610a356137d2565b818310610bba575f805b838210610b9a5761271091501015610b2f57600f545f600f5580610acf575b505f5b828110610a72575050600e55601055005b610a7d818484612b7c565b3590600f5491600160401b831015610abb57610aa0836001809501600f55612902565b819291549060031b91821b915f19901b191617905501610a61565b634e487b7160e01b5f52604160045260245ffd5b600f5f527f8d1108e10bcb7c27dddfc02ed9d693a074039d026cf4ea4240b40f7d581ac802017f8d1108e10bcb7c27dddfc02ed9d693a074039d026cf4ea4240b40f7d581ac8025b818110610b245750610a5e565b5f8155600101610b17565b60405162461bcd60e51b815260206004820152603960248201527f546f70207469657220736861726573206d757374206c656176652072656d616960448201527f6e64657220666f7220657175616c2d73686172652074696572000000000000006064820152608490fd5b610bb2600191610bab848787612b7c565b3590612b6f565b910190610a3f565b60405162461bcd60e51b815260206004820152601f60248201527f546f74616c206d757374206265203e3d20746f70207469657220636f756e74006044820152606490fd5b346102b9575f3660031901126102b957602060405160038152f35b346102b9575f3660031901126102b9576020600b54604051908152f35b346102b9575f3660031901126102b9576020600c54604051908152f35b346102b95760403660031901126102b957610c6d612888565b60243560ff81168091036102b95760ff602092165f526006825260ff60405f20541614604051908152f35b346102b95760203660031901126102b957610cb161379a565b610cbd60043533613b16565b335f52600560205260405f20546107f057610cd733613c39565b604051636a24447f60e11b81526004803590820152610100816024817f00000000000000000000000000000000000000000000000000000000000000006001600160a01b03165afa90811561040d575f9161109b575b50610d39600154612b8c565b8060015560b46040516020810190428252836040820152600435606082015260608152610d67608082612b40565b5190200660500191826050116110875761ffff6040819201511660010b9260405193610d9285612b07565b83855233602086015230604086015260043560608601525f608086015260a08501521660010b60c0830152600160e08301525f6101008301525f61012083015260016101408301525f6101608301525f61018083015260016101a083015260016101c08301525f6101e0830152426102008301525f610220830152805f52600260205260405f208251815560018060a01b03602084015116600182019060018060a01b03166001600160601b0360a01b82541617905560018060a01b03604084015116600282019060018060a01b03166001600160601b0360a01b825416179055606083015160038201556080830151600482015560a083015160010b61ffff196005830154169061ffff16176005820155610ecd60c084015160010b600583019081549060101b63ffff0000169063ffff00001916179055565b610ef860ff60e085015116600583019064ff0000000082549160201b169064ff000000001916179055565b610f2260ff61010085015116600583019060ff60281b82549160281b169060ff60281b1916179055565b610f4c60ff61012085015116600583019060ff60301b82549160301b169060ff60301b1916179055565b61014083015160058201805461016086015161018087015162ffffff60381b1990921660ff60381b94151560381b949094169390931760409390931b60ff60401b169290921760489290921b60ff60481b169190911790556101a0830151600481101561081d57610fc09060058301612a73565b6101c083015192600284101561081d576005820180546101e08301516affffffffffffffffffffff90911660589690961b60ff60581b169590951760609590951b6001600160601b031916949094179093556020926007906102209061020081015160068501550151910155335f52600582528060405f20556040516004358152600183820152817f04eb289f4f987f7cfc6dabfb6ccea9a32bd7d39f2e413d0b4d59bcce2a332aba60403393a360015f5160206149815f395f51905f5255604051908152f35b634e487b7160e01b5f52601160045260245ffd5b6110b491506101003d81116107c3576107b58183612b40565b81610d2d565b346102b9576110c836612943565b905f52601160205260405f20905f52602052602060018060a01b0360405f205416604051908152f35b346102b9575f3660031901126102b9576040517f00000000000000000000000000000000000000000000000000000000000000006001600160a01b03168152602090f35b346102b95760203660031901126102b95761114e61379a565b61115a60043533613b16565b335f52600560205260405f20546107f05761117433613c39565b604051636a24447f60e11b81526004803590820152610100816024817f00000000000000000000000000000000000000000000000000000000000000006001600160a01b03165afa90811561040d575f916114e2575b5061ffff60406111db600154612b8c565b928360015501511660010b90604051916111f483612b07565b8183523360208401525f604084015260043560608401525f608084015260a08301525f60c08301525f60e08301525f6101008301525f61012083015260016101408301525f6101608301525f6101808301525f6101a08301525f6101c08301525f6101e0830152426102008301525f610220830152805f52600260205260405f208251815560018060a01b03602084015116600182019060018060a01b03166001600160601b0360a01b82541617905560018060a01b03604084015116600282019060018060a01b03166001600160601b0360a01b825416179055606083015160038201556080830151600482015560a083015160010b61ffff196005830154169061ffff1617600582015561132960c084015160010b600583019081549060101b63ffff0000169063ffff00001916179055565b61135460ff60e085015116600583019064ff0000000082549160201b169064ff000000001916179055565b61137e60ff61010085015116600583019060ff60281b82549160281b169060ff60281b1916179055565b6113a860ff61012085015116600583019060ff60301b82549160301b169060ff60301b1916179055565b61014083015160058201805461016086015161018087015162ffffff60381b1990921660ff60381b94151560381b949094169390931760409390931b60ff60401b169290921760489290921b60ff60481b169190911790556101a0830151600481101561081d5761141c9060058301612a73565b6101c083015192600284101561081d576005820180546101e08301516affffffffffffffffffffff90911660589690961b60ff60581b169590951760609590951b6001600160601b031916949094179093556020926007906102209061020081015160068501550151910155335f52600582528060405f205560405160043581525f83820152817f04eb289f4f987f7cfc6dabfb6ccea9a32bd7d39f2e413d0b4d59bcce2a332aba60403393a360015f5160206149815f395f51905f5255604051908152f35b6114fb91506101003d81116107c3576107b58183612b40565b816111ca565b346102b9575f3660031901126102b9575f546040516001600160a01b039091168152602090f35b346102b9575f3660031901126102b9576020604051601e8152f35b346102b9575f3660031901126102b957604051806020600f5492838152018092600f5f527f8d1108e10bcb7c27dddfc02ed9d693a074039d026cf4ea4240b40f7d581ac802905f5b8181106115e357505050816115a1910382612b40565b604051918291602083019060208452518091526040830191905f5b8181106115ca575050500390f35b82518452859450602093840193909201916001016115bc565b825484526020909301926001928301920161158b565b346102b95761160736612943565b5f9160018054905b81811115806117ad575b1561166657805f52600260205260ff600560405f20015460501c16600481101561081d5715611651575b61164c90612b8c565b61160f565b9361165e61164c91612b8c565b949050611643565b508361167181612b9a565b61167e6040519182612b40565b818152601f1961168d83612b9a565b015f5b8181106117965750505f905f9260015b858111158061178d575b1561173c57805f52600260205260ff600560405f20015460501c16600481101561081d57156116e2575b6116dd90612b8c565b6116a0565b86851061172957806116dd915f52600260205261172060405f209561170f61170982612b8c565b97612c90565b6117198288613650565b5285613650565b505b90506116d4565b936117366116dd91612b8c565b94611722565b826040518091602082016020835281518091526020604084019201905f5b818110611768575050500390f35b9193509160206102408261177f6001948851612973565b01940191019184939261175a565b508184106116aa565b6020906117a1612c0e565b82828601015201611690565b50838510611619565b346102b95760203660031901126102b9576117cf6137d2565b600435600d55005b346102b95760403660031901126102b95760243560038110156102b9576118089061180061379a565b600435612ec0565b60015f5160206149815f395f51905f5255005b346102b95760203660031901126102b9576001600160a01b0361183c6128ae565b165f52600460205260e060405f206001815491015463ffffffff604051928181168452818160201c166020850152818160401c166040850152818160601c166060850152818160801c16608085015260a01c1660a083015260c0820152f35b346102b9576118a936612943565b906118b261379a565b600b54811015611a4257601054821015611a3357805f52601160205260405f20825f5260205260018060a01b0360405f2054163303611a2457805f52601360205260405f20825f5260205260ff60405f205416611a1557805f52601260205261191f8260405f20546137f8565b5f8281526013602090815260408083208684528252808320805460ff191660011790555163a9059cbb60e01b81523360048201526024810184905291829060449082907f00000000000000000000000000000000000000000000000000000000000000006001600160a01b03165af1801561040d576119de575b5060405192835260208301527f608c8c3c6a3d40f40b96fbee44f9b9aee57a39c2fcb8bb0f59d8892b2d5492a260403393a360015f5160206149815f395f51905f5255005b6020813d602011611a0d575b816119f760209383612b40565b810103126102b957611a0890612b62565b611999565b3d91506119ea565b630c8d9eab60e31b5f5260045ffd5b636ee783d160e11b5f5260045ffd5b6302ba562960e61b5f5260045ffd5b637221b37b60e01b5f5260045ffd5b346102b9575f3660031901126102b9576040517f00000000000000000000000000000000000000000000000000000000000000006001600160a01b03168152602090f35b346102b9575f3660031901126102b9576020600954604051908152f35b346102b9575f3660031901126102b957611aca6137d2565b5f80546001600160a01b0319811682556001600160a01b03167f8be0079c531659141344cd1fd0a4f28419497f9722a3daafe3b4186f6b6457e08280a3005b346102b95760203660031901126102b957611b22612c0e565b506004355f526002602052610240611b3c60405f20612c90565b611b496040518092612973565bf35b346102b9576020611b64611b5e36612943565b90612be8565b604051908152f35b346102b95760203660031901126102b9576004355f52600260205261024060405f2080549060018060a01b036001820154169060018060a01b036002820154166003820154600483015490600584015492600760068601549501549560405197885260208801526040870152606086015260808501528060010b60a08501528060101c60010b60c085015260ff8160201c1660e085015260ff8160281c1661010085015260ff8160301c1661012085015260ff8160381c16151561014085015260ff8160401c1661016085015260ff8160481c16610180850152611c5a6101a0850160ff8360501c16612959565b611c6e6101c0850160ff8360581c16612966565b60601c6101e0840152610200830152610220820152f35b346102b9575f3660031901126102b95760e0600954600b54611cac600c54600d5490612b6f565b60155460075490600e549260105494604051968752602087015260408601526060850152608084015260a083015260c0820152f35b346102b95760203660031901126102b957600435611cfd61379a565b5f81815260026020526040902060018101546001600160a01b03163303611e6d5760050160ff815460501c16600481101561081d5761080e57805460ff60501b1916600360501b179055335f9081526005602052604081205560075480611d97575b507fe10fd8c156678d18df7daf6dd3e15b95c6d350ee99272630fcad6dde9bef0d0c5f80a260015f5160206149815f395f51905f5255005b6020611dfa91611dd0612710611daf60085484612aad565b04611dc5611dbd8285612ade565b600954612ade565b600955600a54612ade565b600a5560405163a9059cbb60e01b8152336004820152602481019190915291829081906044820190565b03815f7f00000000000000000000000000000000000000000000000000000000000000006001600160a01b03165af1801561040d5715611d5f576020813d602011611e65575b81611e4d60209383612b40565b810103126102b957611e5e90612b62565b5081611d5f565b3d9150611e40565b634b400be560e11b5f5260045ffd5b346102b957611e8a36612943565b905f52600360205260405f2080548210156102b95760c091611eab9161292e565b50546040519060ff8116825260018060a01b038160081c166020830152611edb6040830160ff8360a81c166128f5565b61ffff8160b01c16606083015280831c60010b608083015260d01c60010b60a0820152f35b346102b95760203660031901126102b957600435600f548110156102b957611f29602091612902565b90549060031b1c604051908152f35b346102b9575f3660031901126102b9576020601054604051908152f35b346102b9575f3660031901126102b95760206040516107d08152f35b346102b9575f3660031901126102b957602060405160058152f35b346102b9575f3660031901126102b9576020600e54604051908152f35b346102b95760203660031901126102b9576001600160a01b03611fca6128ae565b165f526005602052602060405f2054604051908152f35b346102b9575f3660031901126102b9576020600154604051908152f35b346102b9575f3660031901126102b9576020601554604051908152f35b346102b9575f3660031901126102b957602060405160b48152f35b346102b9575f3660031901126102b9576020600854604051908152f35b346102b9575f3660031901126102b9576020611b64612bbe565b346102b9575f3660031901126102b9576020600a54604051908152f35b346102b95760203660031901126102b9576004355f52600360205260405f208054906120b582612b9a565b916120c36040519384612b40565b8083526020830180925f5260205f205f915b83831061216e578486604051918291602083019060208452518091526040830191905f5b818110612107575050500390f35b91935091602060c060019260a0875160ff81511683528580831b0385820151168584015261213d604082015160408501906128f5565b61ffff60608201511660608401526080810151860b60808401520151840b60a08201520194019101918493926120f9565b60016020819260405161218081612aeb565b855460ff81168252848060a01b038160081c16848301526121aa60ff8260a81c1660408401612bb2565b61ffff8160b01c1660608301528060c01c850b608083015260d01c840b60a08201528152019201920191906120d5565b346102b95760203660031901126102b95760043567ffffffffffffffff81116102b95761220b9036906004016128c4565b6122136137d2565b612222600c54600d5490612b6f565b421061236b57601054811161233357600b5491600954915f5b8181106122de5750835f5260126020528260405f20555f600955612260600b54612b8c565b600b5542600c5580604051936040850190855260406020860152526060830191905f905b8082106122b457857f60adcb75ee5c9fd534a467f9f54a34f58a8532f615c0deadb38f85eb32e814d086860387a2005b90919283359060018060a01b0382168092036102b957602081600193829352019401920190612284565b6122e9818385612b7c565b35906001600160a01b03821682036102b957600191865f52601160205260405f20825f5260205260405f2090838060a01b03166001600160601b0360a01b8254161790550161223b565b60405162461bcd60e51b815260206004820152601060248201526f546f6f206d616e7920706c617965727360801b6044820152606490fd5b63141189cf60e31b5f5260045ffd5b346102b95760203660031901126102b9576004356123966137d2565b6107d081116123a457600855005b6358d620b360e01b5f5260045ffd5b346102b95760203660031901126102b95760ff6123ce612888565b165f526006602052602060ff60405f205416604051908152f35b346102b95760203660031901126102b95760043561240461379a565b805f52600260205260405f206001810160018060a01b03815416331491600281019260018060a01b03845416331490159081612865575b50611e6d576005810190815460ff8160501c16600481101561081d576001036128565760ff60019160201c161161284757815460ff60501b1916600360501b178255426007919091015581546001600160a01b039081165f90815260056020526040812055835416308103612834575b506007549081612514575b8433817fa4262d2b40a2cee3044e9392c8668b69a5d135ea0ad29d0ad69caf59f0b95f595f80a37fe10fd8c156678d18df7daf6dd3e15b95c6d350ee99272630fcad6dde9bef0d0c5f80a260015f5160206149815f395f51905f5255005b61271061252360085484612aad565b049160ff6125318483612ade565b925460581c16600281101561081d576001036126135750612595935060209291611dc561256092600954612ade565b600a555460075460405163a9059cbb60e01b81526001600160a01b039092166004830152602482015291829081906044820190565b03815f7f00000000000000000000000000000000000000000000000000000000000000006001600160a01b03165af1801561040d576125da575b505b818080806124b6565b6020813d60201161260b575b816125f360209383612b40565b810103126102b95761260490612b62565b50816125cf565b3d91506125e6565b84546001600160a01b03168015159081612829575b501561279c57508060011b90808204600214901517156110875761264e90600954612ade565b6009558060011b90808204600214901517156110875761267090600a54612ade565b600a555460075460405163a9059cbb60e01b81526001600160a01b03928316600482015260248101919091527f0000000000000000000000000000000000000000000000000000000000000000909116906020816044815f865af1801561040d5761275a575b50905460075460405163a9059cbb60e01b81526001600160a01b0390921660048301526024820152906020908290815f81604481015b03925af1801561040d57612721575b506125d1565b6020813d602011612752575b8161273a60209383612b40565b810103126102b95761274b90612b62565b508161271b565b3d915061272d565b906020823d602011612794575b8161277460209383612b40565b810103126102b95761270c9261278b602093612b62565b509250906126d6565b3d9150612767565b916127ea94506127b590611dc560209593600954612ade565b600a555460405163a9059cbb60e01b81526001600160a01b039091166004820152602481019190915291829081906044820190565b03815f7f00000000000000000000000000000000000000000000000000000000000000006001600160a01b03165af1801561040d5761272157506125d1565b905030141587612628565b5f5260056020525f6040812055846124ab565b638acece1160e01b5f5260045ffd5b63792c967960e11b5f5260045ffd5b9050158561243b565b346102b9575f3660031901126102b9576020906007548152f35b6004359060ff821682036102b957565b602435906001600160a01b03821682036102b957565b600435906001600160a01b03821682036102b957565b9181601f840112156102b95782359167ffffffffffffffff83116102b9576020808501948460051b0101116102b957565b90600382101561081d5752565b600f5481101561291a57600f5f5260205f2001905f90565b634e487b7160e01b5f52603260045260245ffd5b805482101561291a575f5260205f2001905f90565b60409060031901126102b9576004359060243590565b90600482101561081d5752565b90600282101561081d5752565b61022080918051845260018060a01b03602082015116602085015260018060a01b036040820151166040850152606081015160608501526080810151608085015260a081015160010b60a085015260c081015160010b60c085015260ff60e08201511660e085015260ff6101008201511661010085015260ff61012082015116610120850152610140810151151561014085015260ff6101608201511661016085015260ff61018082015116610180850152612a396101a08201516101a0860190612959565b612a4d6101c08201516101c0860190612966565b6101e0818101516001600160a01b03169085015261020080820151908501520151910152565b90600481101561081d57815460ff60501b191660509190911b60ff60501b16179055565b9060968202918083046096149015171561108757565b8181029291811591840414171561108757565b8115612aca570490565b634e487b7160e01b5f52601260045260245ffd5b9190820391821161108757565b60c0810190811067ffffffffffffffff821117610abb57604052565b610240810190811067ffffffffffffffff821117610abb57604052565b60e0810190811067ffffffffffffffff821117610abb57604052565b90601f8019910116810190811067ffffffffffffffff821117610abb57604052565b519081151582036102b957565b9190820180921161108757565b919081101561291a5760051b0190565b5f1981146110875760010190565b67ffffffffffffffff8111610abb5760051b60200190565b600382101561081d5752565b612bcd600c54600d5490612b6f565b80421015612be357612be0904290612ade565b90565b505f90565b90601054811015612c0857612be0915f52601260205260405f20546137f8565b50505f90565b60405190612c1b82612b07565b5f610220838281528260208201528260408201528260608201528260808201528260a08201528260c08201528260e08201528261010082015282610120820152826101408201528261016082015282610180820152826101a0820152826101c0820152826101e0820152826102008201520152565b90604051612c9d81612b07565b80928054825260018060a01b03600182015416602083015260018060a01b03600282015416604083015260038101546060830152600481015460808301526005810154908160010b60a08401528160101c60010b60c084015260ff8260201c1660e084015260ff8260281c1661010084015260ff8260301c1661012084015260ff8260381c16151561014084015260ff8260401c1661016084015260ff8260481c1661018084015260ff8260501c16600481101561081d576101a084015260ff8260581c1690600282101561081d57610220926007926101c086015260601c6101e085015260068101546102008501520154910152565b8054600160401b811015610abb57612db19160018201815561292e565b919091612e7557805182546020830151610100600160a81b0360089190911b1660ff9092166001600160a81b0319821681178317855560408401519293929190600383101561081d576060840151608085015160a09095015160d01b61ffff60d01b1660c09590951b61ffff60c01b1661ffff60b01b60b09290921b9190911660ff60a81b60a89590951b949094166001600160c01b03199390931661ffff60b01b1992909216919091179490941763ffffffff60c01b1916171791909117179055565b634e487b7160e01b5f525f60045260245ffd5b916040919493612ea961ffff9260ff606087019816865260208601906128f5565b16910152565b60ff1660ff81146110875760010190565b805f52600260205260405f2090600582019283549060ff8260501c16600481101561081d5760018103612856576002146136415760018401546002850154336001600160a01b03928316811494929091161490831580613639575b611e6d5760ff8160581c16600281101561081d57156135f1575b5050600381101561081d57806134b557612f4f82856143a6565b821561348c57612f8b612f7061ffff831660010b885460101c60010b613896565b879081549060101b63ffff0000169063ffff00001916179055565b835f526003602052612fe960405f2087549060405191612faa83612aeb565b60ff8160201c168352336020840152612fc68660408501612bb2565b61ffff851660608401528060010b608084015260101c60010b60a0830152612d94565b855491847f4098e393a0e9d111279b0d880bb9ede47cc0304a549b3e044a2f8eace73a167f61302860ff8660201c169460405191829133968884612e88565b0390a35f8260010b1391821592613479575b50811561346d575b506134615783549060ff8260581c16600281101561081d576001149081613459575b506130fc575b505050805460ff8160581c16600281101561081d576130e95750805467ff00000000000000198116603891821c60ff161590911b60ff60381b1617815580549060ff8260381c166130ba575b5050565b6130cc60ff6130e79360201c16612eaf565b64ff0000000082549160201b169064ff000000001916179055565b565b906130cc60ff6130e79360201c16612eaf565b82546040516020810191825260ff60f81b8360d81b1660408201524260418201526a30b4afb232b1b4b9b4b7b760a91b6061820152604c8152613140606c82612b40565b5190209060ff8160301c16918215928315613437575b50606490069060101c60010b6003810560010b138061342d575b1561340957505060025b5f600382101561081d57816132e45761319381856143a6565b90156132bb576131cf6131b461ffff831660010b875460101c60010b613896565b869081549060101b63ffff0000169063ffff00001916179055565b90825f52600360205261322e60405f20865490604051916131ef83612aeb565b60ff8160201c16835230602084015261320b8560408501612bb2565b61ffff861660608401528060010b608084015260101c60010b60a0830152612d94565b8454927f4098e393a0e9d111279b0d880bb9ede47cc0304a549b3e044a2f8eace73a167f61326c60ff8660201c169460405191829130968884612e88565b0390a35f8260010b13918215926132a8575b50811561329c575b5061329257808061306a565b6130e791506138c8565b601e915010155f613286565b5f91925060101c60010b1315905f61327e565b6132d061ffff821660010b865460010b613896565b61ffff198654169061ffff161785556131cf565b600182036133da5780156133cd5760ff855460281c165b60ff8116151590816133af575b506133a0576133178185613e09565b9015613358576133386131b461ffff831660010b875460101c60010b613896565b845465ff000000000019811660089190911b60ff60281b161785556131cf565b61336d61ffff821660010b865460010b613896565b855460ff60301b61ffff19821661ffff9390931692831760101b1666ff00000000ffff19909116919091171785556131cf565b631bfa8cdd60e21b8152600490fd5b600391506133c560ff9182895460201c1661372b565b16105f613308565b60ff855460301c166132fb565b50600281036133fa57835460ff60481b1916600160491b1784555f6131cf565b6321e08b4d60e21b5f5260045ffd5b81613422575b501561341c57600161317a565b5f61317a565b60289150105f61340f565b50601e8110613170565b606491935060ff61344f600392828660201c1661372b565b1610159290613156565b90505f613064565b50506130e791506138c8565b601e915010155f613042565b5f91925060101c60010b1315905f61303a565b6134a161ffff821660010b875460010b613896565b61ffff198754169061ffff16178655612f8b565b600181036135ab57811561359e5760ff855460281c165b60ff811615159081613580575b50613571576134e88285613e09565b821561352957613509612f7061ffff831660010b885460101c60010b613896565b855465ff000000000019811660089190911b60ff60281b16178655612f8b565b61353e61ffff821660010b875460010b613896565b865460ff60301b61ffff19821661ffff9390931692831760101b1666ff00000000ffff1990911691909117178655612f8b565b631bfa8cdd60e21b5f5260045ffd5b6003915061359660ff9182895460201c1661372b565b16105f6134d9565b60ff855460301c166134cc565b600281036133fa5781156135db57845468ff00000000000000001916680200000000000000001785555b5f612f8b565b845460ff60481b1916600160491b1785556135d5565b838061362b575b61360e578161361d575b5061360e575f80612f35565b631cc191eb60e31b5f5260045ffd5b60ff915060381c165f613602565b5060ff8160381c16156135f8565b508115612f1b565b6306e1839960e11b5f5260045ffd5b805182101561291a5760209160051b010190565b519061ffff821682036102b957565b519060ff821682036102b957565b90816101009103126102b95760405190610100820182811067ffffffffffffffff821117610abb576137239160e0916040526136bc81613664565b84526136ca60208201613664565b60208501526136db60408201613664565b60408501526136ec60608201613664565b60608501526136fd60808201613673565b608085015261370e60a08201613673565b60a085015260c081015160c085015201612b62565b60e082015290565b9060ff8091169116039060ff821161108757565b5f52600260205261375260405f20612c90565b901561378c5760ff610100820151165b60ff8116156137855761377f60ff918260e060039501511661372b565b16101590565b5050600190565b60ff61012082015116613762565b60025f5160206149815f395f51905f5254146137c35760025f5160206149815f395f51905f5255565b633ee5aeb560e01b5f5260045ffd5b5f546001600160a01b031633036137e557565b63118cdaa760e01b5f523360045260245ffd5b90600f548082105f1461382757506127109161381661382392612902565b90549060031b1c90612aad565b0490565b90505f5f5b8281106138725750612710039061271082116110875761384e90601054612ade565b90811561386b5761386561271091612be094612aad565b04612ac0565b5050505f90565b9061388f60019161388284612902565b90549060031b1c90612b6f565b910161382c565b600191820b910b0390617fff198212617fff83131761108757565b63ffffffff1663ffffffff81146110875760010190565b60058101805460ff60501b1916600160511b17808255426007840155909190600181900b905f82131580613b06575b15613a1f5750506001600160601b03825416825560018060a01b036001820154165f52600460205261395860405f2061393963ffffffff825460401c166138b1565b63ffffffff60401b82549160401b169063ffffffff60401b1916179055565b60028101546001600160a01b03163081036139f8575b505b60018101546001600160a01b039081165f908152600560205260408120556002820154163081036139e5575b506139a8601554612b8c565b601555549054907f6ece8c7a0814e499368677abb88c44f55f86f4bdb83665cb2bbee15321ae78d860206040519360ff81831c16855260601c93a3565b5f5260056020525f60408120555f61399c565b5f526004602052613a1960405f2061393963ffffffff825460401c166138b1565b5f61396e565b60101c60010b5f811391821592613afc575b505015613a9a5760018101805483546001600160601b031660609190911b6001600160601b031916178355613a6f90546001600160a01b0316614804565b60028101546001600160a01b0316308103613a8b575b50613970565b613a949061491c565b5f613a85565b60028101805483546001600160601b031660609190911b6001600160601b031916178355546001600160a01b0316308103613aed575b506001810154613ae8906001600160a01b031661491c565b613970565b613af690614804565b5f613ad0565b1390505f80613a31565b505f8160101c60010b13156138f7565b6040516331a9108f60e11b8152600481018390527f00000000000000000000000000000000000000000000000000000000000000006001600160a01b03169291602082602481875afa91821561040d575f92613bf5575b506001600160a01b03908116911603613be65761010090602460405180948193636a24447f60e11b835260048301525afa801561040d5760e0915f91613bc7575b50015115613bb857565b630cc71c2960e11b5f5260045ffd5b613be091506101003d81116107c3576107b58183612b40565b5f613bae565b638f0f029b60e01b5f5260045ffd5b9091506020813d602011613c31575b81613c1160209383612b40565b810103126102b957516001600160a01b03811681036102b957905f613b6d565b3d9150613c04565b60075480156130b657604051636eb1769f60e11b81526001600160a01b0392831660048201819052306024830152927f0000000000000000000000000000000000000000000000000000000000000000169190602081604481865afa801561040d5782915f91613dc5575b5010613db6575f6020612710613cbc60085485612aad565b04936064613cca8686612ade565b9460405194859384926323b872dd60e01b84528a600485015230602485015260448401525af1801561040d57613d56575b50807f0662b8686f5a56f0acf339ed89dc0000ec2e51d0960e10ef41643917b660809092613d2d606093600954612b6f565b600955613d3c81600a54612b6f565b600a556007549160405192835260208301526040820152a2565b906020823d602011613dae575b81613d7060209383612b40565b810103126102b9577f0662b8686f5a56f0acf339ed89dc0000ec2e51d0960e10ef41643917b660809092613da5606093612b62565b50925090613cfb565b3d9150613d63565b6313be252b60e01b5f5260045ffd5b9150506020813d602011613df2575b81613de160209383612b40565b810103126102b9578190515f613ca4565b3d9150613dd4565b60ff168015611087575f190190565b90801561422c57600582015460ff8160581c16600281101561081d576001148080614224575b156140c65750825490604051906020820192835260ff60f81b9060d81b1660408201526261746b60e81b604182015260248152613e6d604482612b40565b51902090603c8206601e0180601e116110875761ffff1660ff6006603294061692600385015460405190636a24447f60e11b825260048201526101008160248160018060a01b037f0000000000000000000000000000000000000000000000000000000000000000165afa801561040d57608060ff9161ffff935f916140a7575b50015116925b16906064820291808304606414901517156110875761ffff166064018060641161108757613f2191612ac0565b60b481029080820460b4149015171561108757606460ff910493165f52600660205260ff8060405f205416911614614094575b8080614081575b1561401557600560159260011c93613f98828201613f7f60ff825460481c16613dfa565b60ff60481b82549160481b169060ff60481b1916179055565b01549060405190602082019242845260ff60f81b9060d81b166040830152151560f81b604182015260228152613fcf604282612b40565b51902006605a019081605a1161108757606491613feb91612aad565b046005811061400d575b61ffff811115614006575061ffff90565b61ffff1690565b506005613ff5565b80158061406e575b61402d575b600560159293613f98565b600560159260011c9361406582820161404c60ff825460401c16613dfa565b60ff60401b82549160401b169060ff60401b1916179055565b93925050614022565b5060ff600584015460401c16151561401d565b5060ff600584015460481c161515613f5b565b906140a0606491612a97565b0490613f54565b6140c091506101003d81116107c3576107b58183612b40565b5f613eee565b6003840154604051636a24447f60e11b815260048101919091529092917f00000000000000000000000000000000000000000000000000000000000000006001600160a01b031661010083602481845afa92831561040d575f93614203575b5060ff608061ffff85511694015116945f146141995750845490604051906020820192835260ff60f81b9060d81b166040820152623232b360e91b604182015260248152614174604482612b40565b51902060328106601e0180601e116110875760ff600661ffff80931693061692613ef4565b90506101006004860154602460405180948193636a24447f60e11b835260048301525afa90811561040d575f916141e4575b5061ffff60ff6080826020850151169301511692613ef4565b6141fd91506101003d81116107c3576107b58183612b40565b5f6141cb565b61421d9193506101003d81116107c3576107b58183612b40565b915f614125565b508215613e2f565b600582015460ff8160581c16600281101561081d5760010361431657825490604051906020820192835260ff60f81b9060d81b16604082015264616961746b60d81b604182015260268152614282604682612b40565b5190209060378206601e0180601e1161108757600661ffff60ff9216930616915b6003840154604051636a24447f60e11b81526004810191909152610100816024817f00000000000000000000000000000000000000000000000000000000000000006001600160a01b03165afa90811561040d575f916141e4575061ffff60ff6080826020850151169301511692613ef4565b50600482810154604051636a24447f60e11b81529182015290610100826024817f00000000000000000000000000000000000000000000000000000000000000006001600160a01b03165afa91821561040d575f92614385575b5060ff608061ffff84511693015116916142a3565b61439f9192506101003d81116107c3576107b58183612b40565b905f614370565b90801561468a57600582015460ff8160581c16600281101561081d576001148080614682575b156145245750825490604051906020820192835260ff60f81b9060d81b1660408201526261746b60e81b60418201526024815261440a604482612b40565b51902090603c8206601e0180601e116110875761ffff1660ff6006603294061692600385015460405190636a24447f60e11b825260048201526101008160248160018060a01b037f0000000000000000000000000000000000000000000000000000000000000000165afa801561040d57608060ff9161ffff935f91614505575b50015116925b16906064820291808304606414901517156110875761ffff1660640190816064116110875760ff916144c291612ac0565b93165f52600660205260ff8060405f205416911614614094578080614081571561401557600560159260011c93613f98828201613f7f60ff825460481c16613dfa565b61451e91506101003d81116107c3576107b58183612b40565b5f61448b565b6003840154604051636a24447f60e11b815260048101919091529092917f00000000000000000000000000000000000000000000000000000000000000006001600160a01b031661010083602481845afa92831561040d575f93614661575b5060ff608061ffff85511694015116945f146145f75750845490604051906020820192835260ff60f81b9060d81b166040820152623232b360e91b6041820152602481526145d2604482612b40565b51902060328106601e0180601e116110875760ff600661ffff80931693061692614491565b90506101006004860154602460405180948193636a24447f60e11b835260048301525afa90811561040d575f91614642575b5061ffff60ff6080826020850151169301511692614491565b61465b91506101003d81116107c3576107b58183612b40565b5f614629565b61467b9193506101003d81116107c3576107b58183612b40565b915f614583565b5082156143cc565b600582015460ff8160581c16600281101561081d5760010361477457825490604051906020820192835260ff60f81b9060d81b16604082015264616961746b60d81b6041820152602681526146e0604682612b40565b5190209060378206601e0180601e1161108757600661ffff60ff9216930616915b6003840154604051636a24447f60e11b81526004810191909152610100816024817f00000000000000000000000000000000000000000000000000000000000000006001600160a01b03165afa90811561040d575f91614642575061ffff60ff6080826020850151169301511692614491565b50600482810154604051636a24447f60e11b81529182015290610100826024817f00000000000000000000000000000000000000000000000000000000000000006001600160a01b03165afa91821561040d575f926147e3575b5060ff608061ffff8451169301511691614701565b6147fd9192506101003d81116107c3576107b58183612b40565b905f6147ce565b60018060a01b0381165f52600460205260405f2063ffffffff614829818354166138b1565b1663ffffffff1982541617815561486c61484c63ffffffff835460601c166138b1565b825463ffffffff60601b191660609190911b63ffffffff60601b16178255565b61487f63ffffffff825460801c166138b1565b815463ffffffff60801b1916608091821b63ffffffff60801b16178083559060a082901c63ffffffff9081169183901c16116148f8575b5050600b545f52601460205260405f209060018060a01b03165f5260205260405f2063ffffffff6148e9818354166138b1565b1663ffffffff19825416179055565b63ffffffff60a01b19811660209190911b63ffffffff60a01b161790555f806148b6565b60018060a01b03165f52600460205260405f2061497061484c63ffffffff835467ffffffff00000000614953838360201c166138b1565b60201b169067ffffffff0000000019161780855560601c166138b1565b805463ffffffff60801b1916905556fe9b779b17422d0df92223018b32b4d1fa46e071723d6817e2486d003becc55f00a2646970667358221220603c6de6f64b69dbe32229a973e1c24a80bec3539f99fbc9deeaeae439c5b0e564736f6c634300081c0033","opcodes":"PUSH1 0xC0 CALLVALUE PUSH2 0x407 JUMPI PUSH1 0x1F PUSH2 0x4DF6 CODESIZE DUP2 SWAP1 SUB SWAP2 DUP3 ADD PUSH1 0x1F NOT AND DUP4 ADD SWAP2 PUSH1 0x1 PUSH1 0x1 PUSH1 0x40 SHL SUB DUP4 GT DUP5 DUP5 LT OR PUSH2 0x3E0 JUMPI DUP1 DUP5 SWAP3 PUSH1 0x40 SWAP5 DUP6 MSTORE DUP4 CODECOPY DUP2 ADD SUB SLT PUSH2 0x407 JUMPI PUSH2 0x52 PUSH1 0x20 PUSH2 0x4B DUP4 PUSH2 0x40B JUMP JUMPDEST SWAP3 ADD PUSH2 0x40B JUMP JUMPDEST SWAP1 CALLER ISZERO PUSH2 0x3F4 JUMPI PUSH0 DUP1 SLOAD CALLER PUSH1 0x1 PUSH1 0x1 PUSH1 0xA0 SHL SUB NOT DUP3 AND DUP2 OR DUP4 SSTORE SWAP2 PUSH1 0x1 PUSH1 0x1 PUSH1 0xA0 SHL SUB SWAP1 SWAP2 AND SWAP1 PUSH32 0x8BE0079C531659141344CD1FD0A4F28419497F9722A3DAAFE3B4186F6B6457E0 SWAP1 DUP1 LOG3 PUSH1 0x1 PUSH32 0x9B779B17422D0DF92223018B32B4D1FA46E071723D6817E2486D003BECC55F00 DUP2 SWAP1 SSTORE PUSH3 0xF4240 PUSH1 0x7 SSTORE PUSH2 0x3E8 PUSH1 0x8 SSTORE PUSH1 0xB DUP2 SWAP1 SSTORE PUSH3 0x278D00 PUSH1 0xD SSTORE PUSH1 0x5 PUSH1 0xE DUP2 SWAP1 SSTORE PUSH1 0x19 PUSH1 0x10 SSTORE PUSH1 0x1 PUSH1 0x1 PUSH1 0xA0 SHL SUB SWAP3 DUP4 AND PUSH1 0x80 MSTORE SWAP3 SWAP1 SWAP2 AND PUSH1 0xA0 MSTORE PUSH1 0x6 PUSH1 0x20 MSTORE PUSH32 0x54CDD369E4E8A8515E52CA72EC816C2101831AD1F18BF44102ED171459C9B4F8 DUP1 SLOAD PUSH1 0xFF NOT SWAP1 DUP2 AND PUSH1 0x3 OR SWAP1 SWAP2 SSTORE PUSH32 0x75F96AB15D697E93042DC45B5C896C4B27E89BB6EAF39475C5C371CB2513F7D2 DUP1 SLOAD DUP3 AND PUSH1 0x4 OR SWAP1 SSTORE PUSH32 0xC5069E24AAADB2ADDC3E52E868FCF3F4F8ACF5A87E24300992FD4540C2A87EED DUP1 SLOAD DUP3 AND SWAP1 SWAP3 OR SWAP1 SWAP2 SSTORE PUSH32 0x3E5FEC24AA4DC4E5AEE2E025E51E1392C72A2500577559FAE9665C6D52BD6A31 DUP1 SLOAD DUP3 AND SWAP1 SWAP3 OR SWAP1 SWAP2 SSTORE PUSH32 0xBFD358E93F18DA3ED276C3AFDBDBA00B8F0B6008A03476A6A86BD6320EE6938B DUP1 SLOAD DUP3 AND PUSH1 0x2 SWAP1 DUP2 OR SWAP1 SWAP2 SSTORE PUSH0 MSTORE PUSH32 0x8819EF417987F8AE7A81F42CDFB18815282FE989326FBFF903D13CF0E03ACE29 DUP1 SLOAD SWAP1 SWAP2 AND SWAP1 SSTORE TIMESTAMP PUSH1 0xC SSTORE PUSH1 0xF SLOAD PUSH9 0x10000000000000000 DUP2 LT ISZERO PUSH2 0x3E0 JUMPI PUSH1 0x1 DUP2 ADD DUP1 PUSH1 0xF SSTORE DUP2 LT ISZERO PUSH2 0x3CC JUMPI PUSH2 0xBB8 SWAP1 PUSH1 0xF PUSH0 MSTORE PUSH1 0x20 PUSH0 KECCAK256 ADD SSTORE PUSH1 0xF SLOAD PUSH9 0x10000000000000000 DUP2 LT ISZERO PUSH2 0x3E0 JUMPI PUSH1 0x1 DUP2 ADD DUP1 PUSH1 0xF SSTORE DUP2 LT ISZERO PUSH2 0x3CC JUMPI PUSH2 0x7D0 SWAP1 PUSH1 0xF PUSH0 MSTORE PUSH1 0x20 PUSH0 KECCAK256 ADD SSTORE PUSH1 0xF SLOAD PUSH9 0x10000000000000000 DUP2 LT ISZERO PUSH2 0x3E0 JUMPI PUSH1 0x1 DUP2 ADD DUP1 PUSH1 0xF SSTORE DUP2 LT ISZERO PUSH2 0x3CC JUMPI PUSH2 0x5DC SWAP1 PUSH1 0xF PUSH0 MSTORE PUSH1 0x20 PUSH0 KECCAK256 ADD SSTORE PUSH1 0xF SLOAD PUSH9 0x10000000000000000 DUP2 LT ISZERO PUSH2 0x3E0 JUMPI PUSH1 0x1 DUP2 ADD DUP1 PUSH1 0xF SSTORE DUP2 LT ISZERO PUSH2 0x3CC JUMPI PUSH2 0x3E8 SWAP1 PUSH1 0xF PUSH0 MSTORE PUSH1 0x20 PUSH0 KECCAK256 ADD SSTORE PUSH1 0xF SLOAD PUSH9 0x10000000000000000 DUP2 LT ISZERO PUSH2 0x3E0 JUMPI PUSH1 0x1 DUP2 ADD DUP1 PUSH1 0xF SSTORE DUP2 LT ISZERO PUSH2 0x3CC JUMPI PUSH1 0xF PUSH0 MSTORE PUSH2 0x2BC PUSH32 0x8D1108E10BCB7C27DDDFC02ED9D693A074039D026CF4EA4240B40F7D581AC802 SWAP1 SWAP2 ADD SSTORE PUSH1 0x40 MLOAD PUSH2 0x49D6 SWAP1 DUP2 PUSH2 0x420 DUP3 CODECOPY PUSH1 0x80 MLOAD DUP2 DUP2 DUP2 PUSH2 0x64C ADD MSTORE DUP2 DUP2 PUSH2 0xCF5 ADD MSTORE DUP2 DUP2 PUSH2 0x1106 ADD MSTORE DUP2 DUP2 PUSH2 0x1192 ADD MSTORE DUP2 DUP2 PUSH2 0x3B2C ADD MSTORE DUP2 DUP2 PUSH2 0x3EB6 ADD MSTORE DUP2 DUP2 PUSH2 0x40E5 ADD MSTORE DUP2 DUP2 PUSH2 0x42C6 ADD MSTORE DUP2 DUP2 PUSH2 0x4338 ADD MSTORE DUP2 DUP2 PUSH2 0x4453 ADD MSTORE DUP2 DUP2 PUSH2 0x4543 ADD MSTORE DUP2 DUP2 PUSH2 0x4724 ADD MSTORE PUSH2 0x4796 ADD MSTORE PUSH1 0xA0 MLOAD DUP2 DUP2 DUP2 PUSH2 0x3A3 ADD MSTORE DUP2 DUP2 PUSH2 0x4CA ADD MSTORE DUP2 DUP2 PUSH2 0x1964 ADD MSTORE DUP2 DUP2 PUSH2 0x1A66 ADD MSTORE DUP2 DUP2 PUSH2 0x1DFF ADD MSTORE DUP2 DUP2 PUSH2 0x259A ADD MSTORE DUP2 DUP2 PUSH2 0x269E ADD MSTORE DUP2 DUP2 PUSH2 0x27EF ADD MSTORE PUSH2 0x3C6A ADD MSTORE RETURN JUMPDEST PUSH4 0x4E487B71 PUSH1 0xE0 SHL PUSH0 MSTORE PUSH1 0x32 PUSH1 0x4 MSTORE PUSH1 0x24 PUSH0 REVERT JUMPDEST PUSH4 0x4E487B71 PUSH1 0xE0 SHL PUSH0 MSTORE PUSH1 0x41 PUSH1 0x4 MSTORE PUSH1 0x24 PUSH0 REVERT JUMPDEST PUSH4 0x1E4FBDF7 PUSH1 0xE0 SHL PUSH0 MSTORE PUSH0 PUSH1 0x4 MSTORE PUSH1 0x24 PUSH0 REVERT JUMPDEST PUSH0 DUP1 REVERT JUMPDEST MLOAD SWAP1 PUSH1 0x1 PUSH1 0x1 PUSH1 0xA0 SHL SUB DUP3 AND DUP3 SUB PUSH2 0x407 JUMPI JUMP INVALID PUSH1 0x80 DUP1 PUSH1 0x40 MSTORE PUSH1 0x4 CALLDATASIZE LT ISZERO PUSH2 0x12 JUMPI PUSH0 DUP1 REVERT JUMPDEST PUSH0 CALLDATALOAD PUSH1 0xE0 SHR SWAP1 DUP2 PUSH4 0x72EA61C EQ PUSH2 0x286E JUMPI POP DUP1 PUSH4 0x7653AFD EQ PUSH2 0x23E8 JUMPI DUP1 PUSH4 0xA02396B EQ PUSH2 0x23B3 JUMPI DUP1 PUSH4 0xDCA4BC1 EQ PUSH2 0x84C JUMPI DUP1 PUSH4 0x12E8E2C3 EQ PUSH2 0x237A JUMPI DUP1 PUSH4 0x1833C0AF EQ PUSH2 0x21DA JUMPI DUP1 PUSH4 0x188107B7 EQ PUSH2 0x208A JUMPI DUP1 PUSH4 0x194A4E7E EQ PUSH2 0x206D JUMPI DUP1 PUSH4 0x20286CC3 EQ PUSH2 0x2053 JUMPI DUP1 PUSH4 0x22DCD13E EQ PUSH2 0x2036 JUMPI DUP1 PUSH4 0x2F3D22BB EQ PUSH2 0x201B JUMPI DUP1 PUSH4 0x302C80E1 EQ PUSH2 0x1FFE JUMPI DUP1 PUSH4 0x31A6FF66 EQ PUSH2 0x1FE1 JUMPI DUP1 PUSH4 0x33E4B2DF EQ PUSH2 0x1FA9 JUMPI DUP1 PUSH4 0x371CA3C5 EQ PUSH2 0x1F8C JUMPI DUP1 PUSH4 0x3837AD48 EQ PUSH2 0x1F71 JUMPI DUP1 PUSH4 0x3998A681 EQ PUSH2 0x1F55 JUMPI DUP1 PUSH4 0x3AAEA2E7 EQ PUSH2 0x1F38 JUMPI DUP1 PUSH4 0x3C38B21D EQ PUSH2 0x1F00 JUMPI DUP1 PUSH4 0x42D4AA60 EQ PUSH2 0x1E7C JUMPI DUP1 PUSH4 0x4C4C447E EQ PUSH2 0x1CE1 JUMPI DUP1 PUSH4 0x60246C88 EQ PUSH2 0x1C85 JUMPI DUP1 PUSH4 0x606D2E96 EQ PUSH2 0x1B6C JUMPI DUP1 PUSH4 0x6ABE4B1A EQ PUSH2 0x1B4B JUMPI DUP1 PUSH4 0x6DD0CE7A EQ PUSH2 0x1B09 JUMPI DUP1 PUSH4 0x715018A6 EQ PUSH2 0x1AB2 JUMPI DUP1 PUSH4 0x719CE73E EQ PUSH2 0x1A95 JUMPI DUP1 PUSH4 0x7B008D3B EQ PUSH2 0x1A51 JUMPI DUP1 PUSH4 0x7B154140 EQ PUSH2 0x189B JUMPI DUP1 PUSH4 0x7C01800D EQ PUSH2 0x181B JUMPI DUP1 PUSH4 0x7FD6F7C4 EQ PUSH2 0x17D7 JUMPI DUP1 PUSH4 0x84F86A66 EQ PUSH2 0x17B6 JUMPI DUP1 PUSH4 0x851EA6B9 EQ PUSH2 0x15F9 JUMPI DUP1 PUSH4 0x8A29719F EQ PUSH2 0x1543 JUMPI DUP1 PUSH4 0x8B90FBC0 EQ PUSH2 0x1528 JUMPI DUP1 PUSH4 0x8DA5CB5B EQ PUSH2 0x1501 JUMPI DUP1 PUSH4 0x94D44F12 EQ PUSH2 0x1135 JUMPI DUP1 PUSH4 0x96A92858 EQ PUSH2 0x10F1 JUMPI DUP1 PUSH4 0xA94E5A69 EQ PUSH2 0x10BA JUMPI DUP1 PUSH4 0xA98204F8 EQ PUSH2 0xC98 JUMPI DUP1 PUSH4 0xB94F5E49 EQ PUSH2 0xC54 JUMPI DUP1 PUSH4 0xBAFA0946 EQ PUSH2 0xC37 JUMPI DUP1 PUSH4 0xBCB39621 EQ PUSH2 0xC1A JUMPI DUP1 PUSH4 0xC0FAC838 EQ PUSH2 0xBFF JUMPI DUP1 PUSH4 0xCF2012AF EQ PUSH2 0x9F8 JUMPI DUP1 PUSH4 0xD21B4C52 EQ PUSH2 0x8FF JUMPI DUP1 PUSH4 0xD794E1A6 EQ PUSH2 0x8CA JUMPI DUP1 PUSH4 0xDB2C0FD1 EQ PUSH2 0x896 JUMPI DUP1 PUSH4 0xE178E215 EQ PUSH2 0x84C JUMPI DUP1 PUSH4 0xE2680709 EQ PUSH2 0x831 JUMPI DUP1 PUSH4 0xE44DBA4F EQ PUSH2 0x5C2 JUMPI DUP1 PUSH4 0xE76C5908 EQ PUSH2 0x5A5 JUMPI DUP1 PUSH4 0xE7A2DF61 EQ PUSH2 0x46B JUMPI DUP1 PUSH4 0xEB770D0C EQ PUSH2 0x418 JUMPI DUP1 PUSH4 0xEC3889B5 EQ PUSH2 0x342 JUMPI DUP1 PUSH4 0xF2FDE38B EQ PUSH2 0x2BD JUMPI PUSH4 0xFE54009D EQ PUSH2 0x28F JUMPI PUSH0 DUP1 REVERT JUMPDEST CALLVALUE PUSH2 0x2B9 JUMPI PUSH1 0x20 CALLDATASIZE PUSH1 0x3 NOT ADD SLT PUSH2 0x2B9 JUMPI PUSH1 0x4 CALLDATALOAD PUSH0 MSTORE PUSH1 0x12 PUSH1 0x20 MSTORE PUSH1 0x20 PUSH1 0x40 PUSH0 KECCAK256 SLOAD PUSH1 0x40 MLOAD SWAP1 DUP2 MSTORE RETURN JUMPDEST PUSH0 DUP1 REVERT JUMPDEST CALLVALUE PUSH2 0x2B9 JUMPI PUSH1 0x20 CALLDATASIZE PUSH1 0x3 NOT ADD SLT PUSH2 0x2B9 JUMPI PUSH2 0x2D6 PUSH2 0x28AE JUMP JUMPDEST PUSH2 0x2DE PUSH2 0x37D2 JUMP JUMPDEST PUSH1 0x1 PUSH1 0x1 PUSH1 0xA0 SHL SUB AND DUP1 ISZERO PUSH2 0x32F JUMPI PUSH0 DUP1 SLOAD PUSH1 0x1 PUSH1 0x1 PUSH1 0xA0 SHL SUB NOT DUP2 AND DUP4 OR DUP3 SSTORE PUSH1 0x1 PUSH1 0x1 PUSH1 0xA0 SHL SUB AND SWAP1 PUSH32 0x8BE0079C531659141344CD1FD0A4F28419497F9722A3DAAFE3B4186F6B6457E0 SWAP1 DUP1 LOG3 STOP JUMPDEST PUSH4 0x1E4FBDF7 PUSH1 0xE0 SHL PUSH0 MSTORE PUSH0 PUSH1 0x4 MSTORE PUSH1 0x24 PUSH0 REVERT JUMPDEST CALLVALUE PUSH2 0x2B9 JUMPI PUSH1 0x20 CALLDATASIZE PUSH1 0x3 NOT ADD SLT PUSH2 0x2B9 JUMPI PUSH2 0x39E PUSH1 0x20 PUSH2 0x360 PUSH2 0x28AE JUMP JUMPDEST PUSH2 0x368 PUSH2 0x37D2 JUMP JUMPDEST PUSH1 0xA DUP1 SLOAD PUSH0 SWAP1 SWAP2 SSTORE PUSH1 0x40 MLOAD PUSH4 0xA9059CBB PUSH1 0xE0 SHL DUP2 MSTORE PUSH1 0x1 PUSH1 0x1 PUSH1 0xA0 SHL SUB SWAP1 SWAP3 AND PUSH1 0x4 DUP4 ADD MSTORE PUSH1 0x24 DUP3 ADD MSTORE SWAP2 DUP3 SWAP1 DUP2 SWAP1 PUSH1 0x44 DUP3 ADD SWAP1 JUMP JUMPDEST SUB DUP2 PUSH0 PUSH32 0x0 PUSH1 0x1 PUSH1 0x1 PUSH1 0xA0 SHL SUB AND GAS CALL DUP1 ISZERO PUSH2 0x40D JUMPI PUSH2 0x3D9 JUMPI STOP JUMPDEST PUSH1 0x20 DUP2 RETURNDATASIZE PUSH1 0x20 GT PUSH2 0x405 JUMPI JUMPDEST DUP2 PUSH2 0x3F2 PUSH1 0x20 SWAP4 DUP4 PUSH2 0x2B40 JUMP JUMPDEST DUP2 ADD SUB SLT PUSH2 0x2B9 JUMPI PUSH2 0x403 SWAP1 PUSH2 0x2B62 JUMP JUMPDEST STOP JUMPDEST RETURNDATASIZE SWAP2 POP PUSH2 0x3E5 JUMP JUMPDEST PUSH1 0x40 MLOAD RETURNDATASIZE PUSH0 DUP3 RETURNDATACOPY RETURNDATASIZE SWAP1 REVERT JUMPDEST CALLVALUE PUSH2 0x2B9 JUMPI PUSH1 0x20 CALLDATASIZE PUSH1 0x3 NOT ADD SLT PUSH2 0x2B9 JUMPI PUSH1 0x4 CALLDATALOAD PUSH2 0x434 PUSH2 0x37D2 JUMP JUMPDEST PUSH32 0x6A75D918A59DA9597A749B7C707F23CFA76552074B43C68A24A21DB1C45841F1 PUSH1 0x40 PUSH1 0x7 SLOAD DUP2 MLOAD SWAP1 DUP2 MSTORE DUP4 PUSH1 0x20 DUP3 ADD MSTORE LOG1 PUSH1 0x7 SSTORE STOP JUMPDEST CALLVALUE PUSH2 0x2B9 JUMPI PUSH1 0x20 CALLDATASIZE PUSH1 0x3 NOT ADD SLT PUSH2 0x2B9 JUMPI PUSH2 0x484 PUSH2 0x28AE JUMP JUMPDEST PUSH2 0x48C PUSH2 0x37D2 JUMP JUMPDEST PUSH1 0x9 SLOAD SWAP1 DUP2 ISZERO PUSH2 0x596 JUMPI PUSH0 PUSH1 0x9 SSTORE PUSH1 0x40 MLOAD PUSH4 0xA9059CBB PUSH1 0xE0 SHL DUP2 MSTORE PUSH1 0x1 PUSH1 0x1 PUSH1 0xA0 SHL SUB DUP3 AND PUSH1 0x4 DUP3 ADD MSTORE PUSH1 0x24 DUP2 ADD DUP4 SWAP1 MSTORE PUSH1 0x20 DUP2 DUP1 PUSH1 0x44 DUP2 ADD SUB DUP2 PUSH0 PUSH32 0x0 PUSH1 0x1 PUSH1 0x1 PUSH1 0xA0 SHL SUB AND GAS CALL DUP1 ISZERO PUSH2 0x40D JUMPI PUSH2 0x538 JUMPI JUMPDEST POP PUSH1 0x40 MLOAD SWAP2 DUP3 MSTORE PUSH1 0x1 PUSH1 0x1 PUSH1 0xA0 SHL SUB AND SWAP1 PUSH32 0x5FAFA99D0643513820BE26656B45130B01E1C03062E1266BF36F88CBD3BD9695 SWAP1 PUSH1 0x20 SWAP1 LOG2 STOP JUMPDEST PUSH1 0x20 DUP2 RETURNDATASIZE PUSH1 0x20 GT PUSH2 0x58E JUMPI JUMPDEST DUP2 PUSH2 0x551 PUSH1 0x20 SWAP4 DUP4 PUSH2 0x2B40 JUMP JUMPDEST DUP2 ADD SUB SLT PUSH2 0x2B9 JUMPI PUSH32 0x5FAFA99D0643513820BE26656B45130B01E1C03062E1266BF36F88CBD3BD9695 SWAP2 PUSH2 0x586 PUSH1 0x20 SWAP3 PUSH2 0x2B62 JUMP JUMPDEST POP SWAP2 POP PUSH2 0x4FF JUMP JUMPDEST RETURNDATASIZE SWAP2 POP PUSH2 0x544 JUMP JUMPDEST PUSH4 0x686827B PUSH1 0xE5 SHL PUSH0 MSTORE PUSH1 0x4 PUSH0 REVERT JUMPDEST CALLVALUE PUSH2 0x2B9 JUMPI PUSH0 CALLDATASIZE PUSH1 0x3 NOT ADD SLT PUSH2 0x2B9 JUMPI PUSH1 0x20 PUSH1 0xD SLOAD PUSH1 0x40 MLOAD SWAP1 DUP2 MSTORE RETURN JUMPDEST CALLVALUE PUSH2 0x2B9 JUMPI PUSH2 0x5D0 CALLDATASIZE PUSH2 0x2943 JUMP JUMPDEST SWAP1 PUSH2 0x5D9 PUSH2 0x379A JUMP JUMPDEST DUP1 PUSH0 MSTORE PUSH1 0x2 PUSH1 0x20 MSTORE PUSH1 0x40 PUSH0 KECCAK256 PUSH1 0x5 DUP2 ADD PUSH1 0xFF DUP2 SLOAD PUSH1 0x50 SHR AND PUSH1 0x4 DUP2 LT ISZERO PUSH2 0x81D JUMPI PUSH2 0x80E JUMPI PUSH1 0x1 DUP3 ADD SLOAD PUSH1 0x1 PUSH1 0x1 PUSH1 0xA0 SHL SUB AND CALLER EQ PUSH2 0x7FF JUMPI CALLER PUSH0 MSTORE PUSH1 0x5 PUSH1 0x20 MSTORE PUSH1 0x40 PUSH0 KECCAK256 SLOAD PUSH2 0x7F0 JUMPI PUSH2 0x62D DUP5 CALLER PUSH2 0x3B16 JUMP JUMPDEST PUSH2 0x636 CALLER PUSH2 0x3C39 JUMP JUMPDEST PUSH1 0x40 MLOAD PUSH4 0x6A24447F PUSH1 0xE1 SHL DUP2 MSTORE PUSH1 0x4 DUP2 ADD DUP6 SWAP1 MSTORE PUSH32 0x0 PUSH1 0x1 PUSH1 0x1 PUSH1 0xA0 SHL SUB AND SWAP3 PUSH2 0x100 DUP3 PUSH1 0x24 DUP2 DUP8 GAS STATICCALL SWAP2 DUP3 ISZERO PUSH2 0x40D JUMPI PUSH0 SWAP3 PUSH2 0x7CA JUMPI JUMPDEST POP PUSH1 0x2 DUP2 ADD DUP1 SLOAD PUSH1 0x1 PUSH1 0x1 PUSH1 0xA0 SHL SUB NOT AND CALLER OR SWAP1 SSTORE PUSH1 0x4 DUP2 ADD DUP7 SWAP1 SSTORE PUSH1 0x40 DUP3 ADD MLOAD DUP4 SLOAD PUSH4 0xFFFF0000 NOT AND PUSH4 0xFFFF0000 PUSH1 0x10 SWAP3 SWAP1 SWAP3 SHL SWAP2 SWAP1 SWAP2 AND OR DUP4 SSTORE PUSH2 0x100 SWAP1 PUSH1 0x3 SWAP1 DUP5 SLOAD PUSH11 0xFF0000000000FF00000000 NOT AND PUSH11 0x100000000000100000000 OR DUP6 SSTORE ADD SLOAD PUSH1 0x40 MLOAD PUSH4 0x6A24447F PUSH1 0xE1 SHL DUP2 MSTORE PUSH1 0x4 DUP2 ADD SWAP2 SWAP1 SWAP2 MSTORE SWAP4 DUP5 SWAP1 PUSH1 0x24 SWAP1 DUP3 SWAP1 GAS STATICCALL DUP1 ISZERO PUSH2 0x40D JUMPI PUSH1 0x60 PUSH2 0xFFFF DUP2 DUP2 SWAP4 PUSH2 0x74E SWAP8 PUSH0 SWAP2 PUSH2 0x79B JUMPI JUMPDEST POP ADD MLOAD AND SWAP3 ADD MLOAD AND GT ISZERO PUSH1 0xFF PUSH1 0x38 SHL DUP3 SLOAD SWAP2 ISZERO ISZERO PUSH1 0x38 SHL AND SWAP1 PUSH1 0xFF PUSH1 0x38 SHL NOT AND OR SWAP1 SSTORE JUMP JUMPDEST CALLER PUSH0 MSTORE PUSH1 0x5 PUSH1 0x20 MSTORE DUP1 PUSH1 0x40 PUSH0 KECCAK256 SSTORE PUSH1 0x40 MLOAD SWAP2 DUP3 MSTORE PUSH32 0xA47B02D2D7D744D434C03DB59A4362B0FC7A74D04DF715CC6200D66FD65DF989 PUSH1 0x20 CALLER SWAP4 LOG3 PUSH1 0x1 PUSH0 MLOAD PUSH1 0x20 PUSH2 0x4981 PUSH0 CODECOPY PUSH0 MLOAD SWAP1 PUSH0 MSTORE SSTORE STOP JUMPDEST PUSH2 0x7BD SWAP2 POP PUSH2 0x100 RETURNDATASIZE DUP2 GT PUSH2 0x7C3 JUMPI JUMPDEST PUSH2 0x7B5 DUP2 DUP4 PUSH2 0x2B40 JUMP JUMPDEST DUP2 ADD SWAP1 PUSH2 0x3681 JUMP JUMPDEST DUP11 PUSH2 0x729 JUMP JUMPDEST POP RETURNDATASIZE PUSH2 0x7AB JUMP JUMPDEST PUSH2 0x100 SWAP2 SWAP3 POP PUSH2 0x7E8 PUSH1 0x3 SWAP2 DUP4 RETURNDATASIZE DUP2 GT PUSH2 0x7C3 JUMPI PUSH2 0x7B5 DUP2 DUP4 PUSH2 0x2B40 JUMP JUMPDEST SWAP3 SWAP2 POP PUSH2 0x68D JUMP JUMPDEST PUSH4 0x1844F0A5 PUSH1 0xE1 SHL PUSH0 MSTORE PUSH1 0x4 PUSH0 REVERT JUMPDEST PUSH4 0x2F50DD87 PUSH1 0xE0 SHL PUSH0 MSTORE PUSH1 0x4 PUSH0 REVERT JUMPDEST PUSH4 0x71007189 PUSH1 0xE0 SHL PUSH0 MSTORE PUSH1 0x4 PUSH0 REVERT JUMPDEST PUSH4 0x4E487B71 PUSH1 0xE0 SHL PUSH0 MSTORE PUSH1 0x21 PUSH1 0x4 MSTORE PUSH1 0x24 PUSH0 REVERT JUMPDEST CALLVALUE PUSH2 0x2B9 JUMPI PUSH0 CALLDATASIZE PUSH1 0x3 NOT ADD SLT PUSH2 0x2B9 JUMPI PUSH1 0x20 PUSH1 0x40 MLOAD PUSH1 0x96 DUP2 MSTORE RETURN JUMPDEST CALLVALUE PUSH2 0x2B9 JUMPI PUSH1 0x40 CALLDATASIZE PUSH1 0x3 NOT ADD SLT PUSH2 0x2B9 JUMPI PUSH2 0x865 PUSH2 0x2898 JUMP JUMPDEST PUSH1 0x4 CALLDATALOAD PUSH0 MSTORE PUSH1 0x14 PUSH1 0x20 MSTORE PUSH1 0x40 PUSH0 KECCAK256 SWAP1 PUSH1 0x1 DUP1 PUSH1 0xA0 SHL SUB AND PUSH0 MSTORE PUSH1 0x20 MSTORE PUSH1 0x20 PUSH4 0xFFFFFFFF PUSH1 0x40 PUSH0 KECCAK256 SLOAD AND PUSH1 0x40 MLOAD SWAP1 DUP2 MSTORE RETURN JUMPDEST CALLVALUE PUSH2 0x2B9 JUMPI PUSH2 0x8A4 CALLDATASIZE PUSH2 0x2943 JUMP JUMPDEST SWAP1 PUSH0 MSTORE PUSH1 0x13 PUSH1 0x20 MSTORE PUSH1 0x40 PUSH0 KECCAK256 SWAP1 PUSH0 MSTORE PUSH1 0x20 MSTORE PUSH1 0x20 PUSH1 0xFF PUSH1 0x40 PUSH0 KECCAK256 SLOAD AND PUSH1 0x40 MLOAD SWAP1 ISZERO ISZERO DUP2 MSTORE RETURN JUMPDEST CALLVALUE PUSH2 0x2B9 JUMPI PUSH1 0x40 CALLDATASIZE PUSH1 0x3 NOT ADD SLT PUSH2 0x2B9 JUMPI PUSH1 0x24 CALLDATALOAD DUP1 ISZERO ISZERO DUP2 SUB PUSH2 0x2B9 JUMPI PUSH2 0x8F5 PUSH1 0x20 SWAP2 PUSH1 0x4 CALLDATALOAD PUSH2 0x373F JUMP JUMPDEST PUSH1 0x40 MLOAD SWAP1 ISZERO ISZERO DUP2 MSTORE RETURN JUMPDEST CALLVALUE PUSH2 0x2B9 JUMPI PUSH1 0x20 CALLDATASIZE PUSH1 0x3 NOT ADD SLT PUSH2 0x2B9 JUMPI PUSH2 0x918 PUSH2 0x28AE JUMP JUMPDEST PUSH0 PUSH1 0xC0 PUSH1 0x40 MLOAD PUSH2 0x927 DUP2 PUSH2 0x2B24 JUMP JUMPDEST DUP3 DUP2 MSTORE DUP3 PUSH1 0x20 DUP3 ADD MSTORE DUP3 PUSH1 0x40 DUP3 ADD MSTORE DUP3 PUSH1 0x60 DUP3 ADD MSTORE DUP3 PUSH1 0x80 DUP3 ADD MSTORE DUP3 PUSH1 0xA0 DUP3 ADD MSTORE ADD MSTORE PUSH1 0x1 DUP1 PUSH1 0xA0 SHL SUB AND PUSH0 MSTORE PUSH1 0x4 PUSH1 0x20 MSTORE PUSH1 0xE0 PUSH1 0x40 PUSH0 KECCAK256 PUSH1 0x40 MLOAD PUSH2 0x96B DUP2 PUSH2 0x2B24 JUMP JUMPDEST PUSH4 0xFFFFFFFF DUP3 SLOAD DUP2 DUP2 DUP2 DUP6 DUP2 DUP1 DUP5 AND SWAP9 DUP10 DUP4 MSTORE DUP2 PUSH1 0x20 DUP5 ADD DUP2 DUP8 PUSH1 0x20 SHR AND DUP2 MSTORE PUSH1 0xC0 PUSH1 0x1 PUSH1 0x40 DUP8 ADD SWAP5 DUP5 DUP11 PUSH1 0x40 SHR AND DUP7 MSTORE DUP5 PUSH1 0xA0 PUSH1 0x60 DUP11 ADD SWAP10 DUP3 DUP14 PUSH1 0x60 SHR AND DUP12 MSTORE DUP3 PUSH1 0x80 DUP3 ADD SWAP14 PUSH1 0x80 SHR AND DUP14 MSTORE ADD SWAP13 PUSH1 0xA0 SHR AND DUP13 MSTORE ADD SLOAD SWAP12 ADD SWAP11 DUP12 MSTORE PUSH1 0x40 MLOAD SWAP12 DUP13 MSTORE MLOAD AND PUSH1 0x20 DUP12 ADD MSTORE MLOAD AND PUSH1 0x40 DUP10 ADD MSTORE MLOAD AND PUSH1 0x60 DUP8 ADD MSTORE MLOAD AND PUSH1 0x80 DUP6 ADD MSTORE MLOAD AND PUSH1 0xA0 DUP4 ADD MSTORE MLOAD PUSH1 0xC0 DUP3 ADD MSTORE RETURN JUMPDEST CALLVALUE PUSH2 0x2B9 JUMPI PUSH1 0x40 CALLDATASIZE PUSH1 0x3 NOT ADD SLT PUSH2 0x2B9 JUMPI PUSH1 0x4 CALLDATALOAD PUSH8 0xFFFFFFFFFFFFFFFF DUP2 GT PUSH2 0x2B9 JUMPI PUSH2 0xA29 SWAP1 CALLDATASIZE SWAP1 PUSH1 0x4 ADD PUSH2 0x28C4 JUMP JUMPDEST PUSH1 0x24 CALLDATALOAD SWAP2 PUSH2 0xA35 PUSH2 0x37D2 JUMP JUMPDEST DUP2 DUP4 LT PUSH2 0xBBA JUMPI PUSH0 DUP1 JUMPDEST DUP4 DUP3 LT PUSH2 0xB9A JUMPI PUSH2 0x2710 SWAP2 POP LT ISZERO PUSH2 0xB2F JUMPI PUSH1 0xF SLOAD PUSH0 PUSH1 0xF SSTORE DUP1 PUSH2 0xACF JUMPI JUMPDEST POP PUSH0 JUMPDEST DUP3 DUP2 LT PUSH2 0xA72 JUMPI POP POP PUSH1 0xE SSTORE PUSH1 0x10 SSTORE STOP JUMPDEST PUSH2 0xA7D DUP2 DUP5 DUP5 PUSH2 0x2B7C JUMP JUMPDEST CALLDATALOAD SWAP1 PUSH1 0xF SLOAD SWAP2 PUSH1 0x1 PUSH1 0x40 SHL DUP4 LT ISZERO PUSH2 0xABB JUMPI PUSH2 0xAA0 DUP4 PUSH1 0x1 DUP1 SWAP6 ADD PUSH1 0xF SSTORE PUSH2 0x2902 JUMP JUMPDEST DUP2 SWAP3 SWAP2 SLOAD SWAP1 PUSH1 0x3 SHL SWAP2 DUP3 SHL SWAP2 PUSH0 NOT SWAP1 SHL NOT AND OR SWAP1 SSTORE ADD PUSH2 0xA61 JUMP JUMPDEST PUSH4 0x4E487B71 PUSH1 0xE0 SHL PUSH0 MSTORE PUSH1 0x41 PUSH1 0x4 MSTORE PUSH1 0x24 PUSH0 REVERT JUMPDEST PUSH1 0xF PUSH0 MSTORE PUSH32 0x8D1108E10BCB7C27DDDFC02ED9D693A074039D026CF4EA4240B40F7D581AC802 ADD PUSH32 0x8D1108E10BCB7C27DDDFC02ED9D693A074039D026CF4EA4240B40F7D581AC802 JUMPDEST DUP2 DUP2 LT PUSH2 0xB24 JUMPI POP PUSH2 0xA5E JUMP JUMPDEST PUSH0 DUP2 SSTORE PUSH1 0x1 ADD PUSH2 0xB17 JUMP JUMPDEST PUSH1 0x40 MLOAD PUSH3 0x461BCD PUSH1 0xE5 SHL DUP2 MSTORE PUSH1 0x20 PUSH1 0x4 DUP3 ADD MSTORE PUSH1 0x39 PUSH1 0x24 DUP3 ADD MSTORE PUSH32 0x546F70207469657220736861726573206D757374206C656176652072656D6169 PUSH1 0x44 DUP3 ADD MSTORE PUSH32 0x6E64657220666F7220657175616C2D7368617265207469657200000000000000 PUSH1 0x64 DUP3 ADD MSTORE PUSH1 0x84 SWAP1 REVERT JUMPDEST PUSH2 0xBB2 PUSH1 0x1 SWAP2 PUSH2 0xBAB DUP5 DUP8 DUP8 PUSH2 0x2B7C JUMP JUMPDEST CALLDATALOAD SWAP1 PUSH2 0x2B6F JUMP JUMPDEST SWAP2 ADD SWAP1 PUSH2 0xA3F JUMP JUMPDEST PUSH1 0x40 MLOAD PUSH3 0x461BCD PUSH1 0xE5 SHL DUP2 MSTORE PUSH1 0x20 PUSH1 0x4 DUP3 ADD MSTORE PUSH1 0x1F PUSH1 0x24 DUP3 ADD MSTORE PUSH32 0x546F74616C206D757374206265203E3D20746F70207469657220636F756E7400 PUSH1 0x44 DUP3 ADD MSTORE PUSH1 0x64 SWAP1 REVERT JUMPDEST CALLVALUE PUSH2 0x2B9 JUMPI PUSH0 CALLDATASIZE PUSH1 0x3 NOT ADD SLT PUSH2 0x2B9 JUMPI PUSH1 0x20 PUSH1 0x40 MLOAD PUSH1 0x3 DUP2 MSTORE RETURN JUMPDEST CALLVALUE PUSH2 0x2B9 JUMPI PUSH0 CALLDATASIZE PUSH1 0x3 NOT ADD SLT PUSH2 0x2B9 JUMPI PUSH1 0x20 PUSH1 0xB SLOAD PUSH1 0x40 MLOAD SWAP1 DUP2 MSTORE RETURN JUMPDEST CALLVALUE PUSH2 0x2B9 JUMPI PUSH0 CALLDATASIZE PUSH1 0x3 NOT ADD SLT PUSH2 0x2B9 JUMPI PUSH1 0x20 PUSH1 0xC SLOAD PUSH1 0x40 MLOAD SWAP1 DUP2 MSTORE RETURN JUMPDEST CALLVALUE PUSH2 0x2B9 JUMPI PUSH1 0x40 CALLDATASIZE PUSH1 0x3 NOT ADD SLT PUSH2 0x2B9 JUMPI PUSH2 0xC6D PUSH2 0x2888 JUMP JUMPDEST PUSH1 0x24 CALLDATALOAD PUSH1 0xFF DUP2 AND DUP1 SWAP2 SUB PUSH2 0x2B9 JUMPI PUSH1 0xFF PUSH1 0x20 SWAP3 AND PUSH0 MSTORE PUSH1 0x6 DUP3 MSTORE PUSH1 0xFF PUSH1 0x40 PUSH0 KECCAK256 SLOAD AND EQ PUSH1 0x40 MLOAD SWAP1 DUP2 MSTORE RETURN JUMPDEST CALLVALUE PUSH2 0x2B9 JUMPI PUSH1 0x20 CALLDATASIZE PUSH1 0x3 NOT ADD SLT PUSH2 0x2B9 JUMPI PUSH2 0xCB1 PUSH2 0x379A JUMP JUMPDEST PUSH2 0xCBD PUSH1 0x4 CALLDATALOAD CALLER PUSH2 0x3B16 JUMP JUMPDEST CALLER PUSH0 MSTORE PUSH1 0x5 PUSH1 0x20 MSTORE PUSH1 0x40 PUSH0 KECCAK256 SLOAD PUSH2 0x7F0 JUMPI PUSH2 0xCD7 CALLER PUSH2 0x3C39 JUMP JUMPDEST PUSH1 0x40 MLOAD PUSH4 0x6A24447F PUSH1 0xE1 SHL DUP2 MSTORE PUSH1 0x4 DUP1 CALLDATALOAD SWAP1 DUP3 ADD MSTORE PUSH2 0x100 DUP2 PUSH1 0x24 DUP2 PUSH32 0x0 PUSH1 0x1 PUSH1 0x1 PUSH1 0xA0 SHL SUB AND GAS STATICCALL SWAP1 DUP2 ISZERO PUSH2 0x40D JUMPI PUSH0 SWAP2 PUSH2 0x109B JUMPI JUMPDEST POP PUSH2 0xD39 PUSH1 0x1 SLOAD PUSH2 0x2B8C JUMP JUMPDEST DUP1 PUSH1 0x1 SSTORE PUSH1 0xB4 PUSH1 0x40 MLOAD PUSH1 0x20 DUP2 ADD SWAP1 TIMESTAMP DUP3 MSTORE DUP4 PUSH1 0x40 DUP3 ADD MSTORE PUSH1 0x4 CALLDATALOAD PUSH1 0x60 DUP3 ADD MSTORE PUSH1 0x60 DUP2 MSTORE PUSH2 0xD67 PUSH1 0x80 DUP3 PUSH2 0x2B40 JUMP JUMPDEST MLOAD SWAP1 KECCAK256 MOD PUSH1 0x50 ADD SWAP2 DUP3 PUSH1 0x50 GT PUSH2 0x1087 JUMPI PUSH2 0xFFFF PUSH1 0x40 DUP2 SWAP3 ADD MLOAD AND PUSH1 0x1 SIGNEXTEND SWAP3 PUSH1 0x40 MLOAD SWAP4 PUSH2 0xD92 DUP6 PUSH2 0x2B07 JUMP JUMPDEST DUP4 DUP6 MSTORE CALLER PUSH1 0x20 DUP7 ADD MSTORE ADDRESS PUSH1 0x40 DUP7 ADD MSTORE PUSH1 0x4 CALLDATALOAD PUSH1 0x60 DUP7 ADD MSTORE PUSH0 PUSH1 0x80 DUP7 ADD MSTORE PUSH1 0xA0 DUP6 ADD MSTORE AND PUSH1 0x1 SIGNEXTEND PUSH1 0xC0 DUP4 ADD MSTORE PUSH1 0x1 PUSH1 0xE0 DUP4 ADD MSTORE PUSH0 PUSH2 0x100 DUP4 ADD MSTORE PUSH0 PUSH2 0x120 DUP4 ADD MSTORE PUSH1 0x1 PUSH2 0x140 DUP4 ADD MSTORE PUSH0 PUSH2 0x160 DUP4 ADD MSTORE PUSH0 PUSH2 0x180 DUP4 ADD MSTORE PUSH1 0x1 PUSH2 0x1A0 DUP4 ADD MSTORE PUSH1 0x1 PUSH2 0x1C0 DUP4 ADD MSTORE PUSH0 PUSH2 0x1E0 DUP4 ADD MSTORE TIMESTAMP PUSH2 0x200 DUP4 ADD MSTORE PUSH0 PUSH2 0x220 DUP4 ADD MSTORE DUP1 PUSH0 MSTORE PUSH1 0x2 PUSH1 0x20 MSTORE PUSH1 0x40 PUSH0 KECCAK256 DUP3 MLOAD DUP2 SSTORE PUSH1 0x1 DUP1 PUSH1 0xA0 SHL SUB PUSH1 0x20 DUP5 ADD MLOAD AND PUSH1 0x1 DUP3 ADD SWAP1 PUSH1 0x1 DUP1 PUSH1 0xA0 SHL SUB AND PUSH1 0x1 PUSH1 0x1 PUSH1 0x60 SHL SUB PUSH1 0xA0 SHL DUP3 SLOAD AND OR SWAP1 SSTORE PUSH1 0x1 DUP1 PUSH1 0xA0 SHL SUB PUSH1 0x40 DUP5 ADD MLOAD AND PUSH1 0x2 DUP3 ADD SWAP1 PUSH1 0x1 DUP1 PUSH1 0xA0 SHL SUB AND PUSH1 0x1 PUSH1 0x1 PUSH1 0x60 SHL SUB PUSH1 0xA0 SHL DUP3 SLOAD AND OR SWAP1 SSTORE PUSH1 0x60 DUP4 ADD MLOAD PUSH1 0x3 DUP3 ADD SSTORE PUSH1 0x80 DUP4 ADD MLOAD PUSH1 0x4 DUP3 ADD SSTORE PUSH1 0xA0 DUP4 ADD MLOAD PUSH1 0x1 SIGNEXTEND PUSH2 0xFFFF NOT PUSH1 0x5 DUP4 ADD SLOAD AND SWAP1 PUSH2 0xFFFF AND OR PUSH1 0x5 DUP3 ADD SSTORE PUSH2 0xECD PUSH1 0xC0 DUP5 ADD MLOAD PUSH1 0x1 SIGNEXTEND PUSH1 0x5 DUP4 ADD SWAP1 DUP2 SLOAD SWAP1 PUSH1 0x10 SHL PUSH4 0xFFFF0000 AND SWAP1 PUSH4 0xFFFF0000 NOT AND OR SWAP1 SSTORE JUMP JUMPDEST PUSH2 0xEF8 PUSH1 0xFF PUSH1 0xE0 DUP6 ADD MLOAD AND PUSH1 0x5 DUP4 ADD SWAP1 PUSH5 0xFF00000000 DUP3 SLOAD SWAP2 PUSH1 0x20 SHL AND SWAP1 PUSH5 0xFF00000000 NOT AND OR SWAP1 SSTORE JUMP JUMPDEST PUSH2 0xF22 PUSH1 0xFF PUSH2 0x100 DUP6 ADD MLOAD AND PUSH1 0x5 DUP4 ADD SWAP1 PUSH1 0xFF PUSH1 0x28 SHL DUP3 SLOAD SWAP2 PUSH1 0x28 SHL AND SWAP1 PUSH1 0xFF PUSH1 0x28 SHL NOT AND OR SWAP1 SSTORE JUMP JUMPDEST PUSH2 0xF4C PUSH1 0xFF PUSH2 0x120 DUP6 ADD MLOAD AND PUSH1 0x5 DUP4 ADD SWAP1 PUSH1 0xFF PUSH1 0x30 SHL DUP3 SLOAD SWAP2 PUSH1 0x30 SHL AND SWAP1 PUSH1 0xFF PUSH1 0x30 SHL NOT AND OR SWAP1 SSTORE JUMP JUMPDEST PUSH2 0x140 DUP4 ADD MLOAD PUSH1 0x5 DUP3 ADD DUP1 SLOAD PUSH2 0x160 DUP7 ADD MLOAD PUSH2 0x180 DUP8 ADD MLOAD PUSH3 0xFFFFFF PUSH1 0x38 SHL NOT SWAP1 SWAP3 AND PUSH1 0xFF PUSH1 0x38 SHL SWAP5 ISZERO ISZERO PUSH1 0x38 SHL SWAP5 SWAP1 SWAP5 AND SWAP4 SWAP1 SWAP4 OR PUSH1 0x40 SWAP4 SWAP1 SWAP4 SHL PUSH1 0xFF PUSH1 0x40 SHL AND SWAP3 SWAP1 SWAP3 OR PUSH1 0x48 SWAP3 SWAP1 SWAP3 SHL PUSH1 0xFF PUSH1 0x48 SHL AND SWAP2 SWAP1 SWAP2 OR SWAP1 SSTORE PUSH2 0x1A0 DUP4 ADD MLOAD PUSH1 0x4 DUP2 LT ISZERO PUSH2 0x81D JUMPI PUSH2 0xFC0 SWAP1 PUSH1 0x5 DUP4 ADD PUSH2 0x2A73 JUMP JUMPDEST PUSH2 0x1C0 DUP4 ADD MLOAD SWAP3 PUSH1 0x2 DUP5 LT ISZERO PUSH2 0x81D JUMPI PUSH1 0x5 DUP3 ADD DUP1 SLOAD PUSH2 0x1E0 DUP4 ADD MLOAD PUSH11 0xFFFFFFFFFFFFFFFFFFFFFF SWAP1 SWAP2 AND PUSH1 0x58 SWAP7 SWAP1 SWAP7 SHL PUSH1 0xFF PUSH1 0x58 SHL AND SWAP6 SWAP1 SWAP6 OR PUSH1 0x60 SWAP6 SWAP1 SWAP6 SHL PUSH1 0x1 PUSH1 0x1 PUSH1 0x60 SHL SUB NOT AND SWAP5 SWAP1 SWAP5 OR SWAP1 SWAP4 SSTORE PUSH1 0x20 SWAP3 PUSH1 0x7 SWAP1 PUSH2 0x220 SWAP1 PUSH2 0x200 DUP2 ADD MLOAD PUSH1 0x6 DUP6 ADD SSTORE ADD MLOAD SWAP2 ADD SSTORE CALLER PUSH0 MSTORE PUSH1 0x5 DUP3 MSTORE DUP1 PUSH1 0x40 PUSH0 KECCAK256 SSTORE PUSH1 0x40 MLOAD PUSH1 0x4 CALLDATALOAD DUP2 MSTORE PUSH1 0x1 DUP4 DUP3 ADD MSTORE DUP2 PUSH32 0x4EB289F4F987F7CFC6DABFB6CCEA9A32BD7D39F2E413D0B4D59BCCE2A332ABA PUSH1 0x40 CALLER SWAP4 LOG3 PUSH1 0x1 PUSH0 MLOAD PUSH1 0x20 PUSH2 0x4981 PUSH0 CODECOPY PUSH0 MLOAD SWAP1 PUSH0 MSTORE SSTORE PUSH1 0x40 MLOAD SWAP1 DUP2 MSTORE RETURN JUMPDEST PUSH4 0x4E487B71 PUSH1 0xE0 SHL PUSH0 MSTORE PUSH1 0x11 PUSH1 0x4 MSTORE PUSH1 0x24 PUSH0 REVERT JUMPDEST PUSH2 0x10B4 SWAP2 POP PUSH2 0x100 RETURNDATASIZE DUP2 GT PUSH2 0x7C3 JUMPI PUSH2 0x7B5 DUP2 DUP4 PUSH2 0x2B40 JUMP JUMPDEST DUP2 PUSH2 0xD2D JUMP JUMPDEST CALLVALUE PUSH2 0x2B9 JUMPI PUSH2 0x10C8 CALLDATASIZE PUSH2 0x2943 JUMP JUMPDEST SWAP1 PUSH0 MSTORE PUSH1 0x11 PUSH1 0x20 MSTORE PUSH1 0x40 PUSH0 KECCAK256 SWAP1 PUSH0 MSTORE PUSH1 0x20 MSTORE PUSH1 0x20 PUSH1 0x1 DUP1 PUSH1 0xA0 SHL SUB PUSH1 0x40 PUSH0 KECCAK256 SLOAD AND PUSH1 0x40 MLOAD SWAP1 DUP2 MSTORE RETURN JUMPDEST CALLVALUE PUSH2 0x2B9 JUMPI PUSH0 CALLDATASIZE PUSH1 0x3 NOT ADD SLT PUSH2 0x2B9 JUMPI PUSH1 0x40 MLOAD PUSH32 0x0 PUSH1 0x1 PUSH1 0x1 PUSH1 0xA0 SHL SUB AND DUP2 MSTORE PUSH1 0x20 SWAP1 RETURN JUMPDEST CALLVALUE PUSH2 0x2B9 JUMPI PUSH1 0x20 CALLDATASIZE PUSH1 0x3 NOT ADD SLT PUSH2 0x2B9 JUMPI PUSH2 0x114E PUSH2 0x379A JUMP JUMPDEST PUSH2 0x115A PUSH1 0x4 CALLDATALOAD CALLER PUSH2 0x3B16 JUMP JUMPDEST CALLER PUSH0 MSTORE PUSH1 0x5 PUSH1 0x20 MSTORE PUSH1 0x40 PUSH0 KECCAK256 SLOAD PUSH2 0x7F0 JUMPI PUSH2 0x1174 CALLER PUSH2 0x3C39 JUMP JUMPDEST PUSH1 0x40 MLOAD PUSH4 0x6A24447F PUSH1 0xE1 SHL DUP2 MSTORE PUSH1 0x4 DUP1 CALLDATALOAD SWAP1 DUP3 ADD MSTORE PUSH2 0x100 DUP2 PUSH1 0x24 DUP2 PUSH32 0x0 PUSH1 0x1 PUSH1 0x1 PUSH1 0xA0 SHL SUB AND GAS STATICCALL SWAP1 DUP2 ISZERO PUSH2 0x40D JUMPI PUSH0 SWAP2 PUSH2 0x14E2 JUMPI JUMPDEST POP PUSH2 0xFFFF PUSH1 0x40 PUSH2 0x11DB PUSH1 0x1 SLOAD PUSH2 0x2B8C JUMP JUMPDEST SWAP3 DUP4 PUSH1 0x1 SSTORE ADD MLOAD AND PUSH1 0x1 SIGNEXTEND SWAP1 PUSH1 0x40 MLOAD SWAP2 PUSH2 0x11F4 DUP4 PUSH2 0x2B07 JUMP JUMPDEST DUP2 DUP4 MSTORE CALLER PUSH1 0x20 DUP5 ADD MSTORE PUSH0 PUSH1 0x40 DUP5 ADD MSTORE PUSH1 0x4 CALLDATALOAD PUSH1 0x60 DUP5 ADD MSTORE PUSH0 PUSH1 0x80 DUP5 ADD MSTORE PUSH1 0xA0 DUP4 ADD MSTORE PUSH0 PUSH1 0xC0 DUP4 ADD MSTORE PUSH0 PUSH1 0xE0 DUP4 ADD MSTORE PUSH0 PUSH2 0x100 DUP4 ADD MSTORE PUSH0 PUSH2 0x120 DUP4 ADD MSTORE PUSH1 0x1 PUSH2 0x140 DUP4 ADD MSTORE PUSH0 PUSH2 0x160 DUP4 ADD MSTORE PUSH0 PUSH2 0x180 DUP4 ADD MSTORE PUSH0 PUSH2 0x1A0 DUP4 ADD MSTORE PUSH0 PUSH2 0x1C0 DUP4 ADD MSTORE PUSH0 PUSH2 0x1E0 DUP4 ADD MSTORE TIMESTAMP PUSH2 0x200 DUP4 ADD MSTORE PUSH0 PUSH2 0x220 DUP4 ADD MSTORE DUP1 PUSH0 MSTORE PUSH1 0x2 PUSH1 0x20 MSTORE PUSH1 0x40 PUSH0 KECCAK256 DUP3 MLOAD DUP2 SSTORE PUSH1 0x1 DUP1 PUSH1 0xA0 SHL SUB PUSH1 0x20 DUP5 ADD MLOAD AND PUSH1 0x1 DUP3 ADD SWAP1 PUSH1 0x1 DUP1 PUSH1 0xA0 SHL SUB AND PUSH1 0x1 PUSH1 0x1 PUSH1 0x60 SHL SUB PUSH1 0xA0 SHL DUP3 SLOAD AND OR SWAP1 SSTORE PUSH1 0x1 DUP1 PUSH1 0xA0 SHL SUB PUSH1 0x40 DUP5 ADD MLOAD AND PUSH1 0x2 DUP3 ADD SWAP1 PUSH1 0x1 DUP1 PUSH1 0xA0 SHL SUB AND PUSH1 0x1 PUSH1 0x1 PUSH1 0x60 SHL SUB PUSH1 0xA0 SHL DUP3 SLOAD AND OR SWAP1 SSTORE PUSH1 0x60 DUP4 ADD MLOAD PUSH1 0x3 DUP3 ADD SSTORE PUSH1 0x80 DUP4 ADD MLOAD PUSH1 0x4 DUP3 ADD SSTORE PUSH1 0xA0 DUP4 ADD MLOAD PUSH1 0x1 SIGNEXTEND PUSH2 0xFFFF NOT PUSH1 0x5 DUP4 ADD SLOAD AND SWAP1 PUSH2 0xFFFF AND OR PUSH1 0x5 DUP3 ADD SSTORE PUSH2 0x1329 PUSH1 0xC0 DUP5 ADD MLOAD PUSH1 0x1 SIGNEXTEND PUSH1 0x5 DUP4 ADD SWAP1 DUP2 SLOAD SWAP1 PUSH1 0x10 SHL PUSH4 0xFFFF0000 AND SWAP1 PUSH4 0xFFFF0000 NOT AND OR SWAP1 SSTORE JUMP JUMPDEST PUSH2 0x1354 PUSH1 0xFF PUSH1 0xE0 DUP6 ADD MLOAD AND PUSH1 0x5 DUP4 ADD SWAP1 PUSH5 0xFF00000000 DUP3 SLOAD SWAP2 PUSH1 0x20 SHL AND SWAP1 PUSH5 0xFF00000000 NOT AND OR SWAP1 SSTORE JUMP JUMPDEST PUSH2 0x137E PUSH1 0xFF PUSH2 0x100 DUP6 ADD MLOAD AND PUSH1 0x5 DUP4 ADD SWAP1 PUSH1 0xFF PUSH1 0x28 SHL DUP3 SLOAD SWAP2 PUSH1 0x28 SHL AND SWAP1 PUSH1 0xFF PUSH1 0x28 SHL NOT AND OR SWAP1 SSTORE JUMP JUMPDEST PUSH2 0x13A8 PUSH1 0xFF PUSH2 0x120 DUP6 ADD MLOAD AND PUSH1 0x5 DUP4 ADD SWAP1 PUSH1 0xFF PUSH1 0x30 SHL DUP3 SLOAD SWAP2 PUSH1 0x30 SHL AND SWAP1 PUSH1 0xFF PUSH1 0x30 SHL NOT AND OR SWAP1 SSTORE JUMP JUMPDEST PUSH2 0x140 DUP4 ADD MLOAD PUSH1 0x5 DUP3 ADD DUP1 SLOAD PUSH2 0x160 DUP7 ADD MLOAD PUSH2 0x180 DUP8 ADD MLOAD PUSH3 0xFFFFFF PUSH1 0x38 SHL NOT SWAP1 SWAP3 AND PUSH1 0xFF PUSH1 0x38 SHL SWAP5 ISZERO ISZERO PUSH1 0x38 SHL SWAP5 SWAP1 SWAP5 AND SWAP4 SWAP1 SWAP4 OR PUSH1 0x40 SWAP4 SWAP1 SWAP4 SHL PUSH1 0xFF PUSH1 0x40 SHL AND SWAP3 SWAP1 SWAP3 OR PUSH1 0x48 SWAP3 SWAP1 SWAP3 SHL PUSH1 0xFF PUSH1 0x48 SHL AND SWAP2 SWAP1 SWAP2 OR SWAP1 SSTORE PUSH2 0x1A0 DUP4 ADD MLOAD PUSH1 0x4 DUP2 LT ISZERO PUSH2 0x81D JUMPI PUSH2 0x141C SWAP1 PUSH1 0x5 DUP4 ADD PUSH2 0x2A73 JUMP JUMPDEST PUSH2 0x1C0 DUP4 ADD MLOAD SWAP3 PUSH1 0x2 DUP5 LT ISZERO PUSH2 0x81D JUMPI PUSH1 0x5 DUP3 ADD DUP1 SLOAD PUSH2 0x1E0 DUP4 ADD MLOAD PUSH11 0xFFFFFFFFFFFFFFFFFFFFFF SWAP1 SWAP2 AND PUSH1 0x58 SWAP7 SWAP1 SWAP7 SHL PUSH1 0xFF PUSH1 0x58 SHL AND SWAP6 SWAP1 SWAP6 OR PUSH1 0x60 SWAP6 SWAP1 SWAP6 SHL PUSH1 0x1 PUSH1 0x1 PUSH1 0x60 SHL SUB NOT AND SWAP5 SWAP1 SWAP5 OR SWAP1 SWAP4 SSTORE PUSH1 0x20 SWAP3 PUSH1 0x7 SWAP1 PUSH2 0x220 SWAP1 PUSH2 0x200 DUP2 ADD MLOAD PUSH1 0x6 DUP6 ADD SSTORE ADD MLOAD SWAP2 ADD SSTORE CALLER PUSH0 MSTORE PUSH1 0x5 DUP3 MSTORE DUP1 PUSH1 0x40 PUSH0 KECCAK256 SSTORE PUSH1 0x40 MLOAD PUSH1 0x4 CALLDATALOAD DUP2 MSTORE PUSH0 DUP4 DUP3 ADD MSTORE DUP2 PUSH32 0x4EB289F4F987F7CFC6DABFB6CCEA9A32BD7D39F2E413D0B4D59BCCE2A332ABA PUSH1 0x40 CALLER SWAP4 LOG3 PUSH1 0x1 PUSH0 MLOAD PUSH1 0x20 PUSH2 0x4981 PUSH0 CODECOPY PUSH0 MLOAD SWAP1 PUSH0 MSTORE SSTORE PUSH1 0x40 MLOAD SWAP1 DUP2 MSTORE RETURN JUMPDEST PUSH2 0x14FB SWAP2 POP PUSH2 0x100 RETURNDATASIZE DUP2 GT PUSH2 0x7C3 JUMPI PUSH2 0x7B5 DUP2 DUP4 PUSH2 0x2B40 JUMP JUMPDEST DUP2 PUSH2 0x11CA JUMP JUMPDEST CALLVALUE PUSH2 0x2B9 JUMPI PUSH0 CALLDATASIZE PUSH1 0x3 NOT ADD SLT PUSH2 0x2B9 JUMPI PUSH0 SLOAD PUSH1 0x40 MLOAD PUSH1 0x1 PUSH1 0x1 PUSH1 0xA0 SHL SUB SWAP1 SWAP2 AND DUP2 MSTORE PUSH1 0x20 SWAP1 RETURN JUMPDEST CALLVALUE PUSH2 0x2B9 JUMPI PUSH0 CALLDATASIZE PUSH1 0x3 NOT ADD SLT PUSH2 0x2B9 JUMPI PUSH1 0x20 PUSH1 0x40 MLOAD PUSH1 0x1E DUP2 MSTORE RETURN JUMPDEST CALLVALUE PUSH2 0x2B9 JUMPI PUSH0 CALLDATASIZE PUSH1 0x3 NOT ADD SLT PUSH2 0x2B9 JUMPI PUSH1 0x40 MLOAD DUP1 PUSH1 0x20 PUSH1 0xF SLOAD SWAP3 DUP4 DUP2 MSTORE ADD DUP1 SWAP3 PUSH1 0xF PUSH0 MSTORE PUSH32 0x8D1108E10BCB7C27DDDFC02ED9D693A074039D026CF4EA4240B40F7D581AC802 SWAP1 PUSH0 JUMPDEST DUP2 DUP2 LT PUSH2 0x15E3 JUMPI POP POP POP DUP2 PUSH2 0x15A1 SWAP2 SUB DUP3 PUSH2 0x2B40 JUMP JUMPDEST PUSH1 0x40 MLOAD SWAP2 DUP3 SWAP2 PUSH1 0x20 DUP4 ADD SWAP1 PUSH1 0x20 DUP5 MSTORE MLOAD DUP1 SWAP2 MSTORE PUSH1 0x40 DUP4 ADD SWAP2 SWAP1 PUSH0 JUMPDEST DUP2 DUP2 LT PUSH2 0x15CA JUMPI POP POP POP SUB SWAP1 RETURN JUMPDEST DUP3 MLOAD DUP5 MSTORE DUP6 SWAP5 POP PUSH1 0x20 SWAP4 DUP5 ADD SWAP4 SWAP1 SWAP3 ADD SWAP2 PUSH1 0x1 ADD PUSH2 0x15BC JUMP JUMPDEST DUP3 SLOAD DUP5 MSTORE PUSH1 0x20 SWAP1 SWAP4 ADD SWAP3 PUSH1 0x1 SWAP3 DUP4 ADD SWAP3 ADD PUSH2 0x158B JUMP JUMPDEST CALLVALUE PUSH2 0x2B9 JUMPI PUSH2 0x1607 CALLDATASIZE PUSH2 0x2943 JUMP JUMPDEST PUSH0 SWAP2 PUSH1 0x1 DUP1 SLOAD SWAP1 JUMPDEST DUP2 DUP2 GT ISZERO DUP1 PUSH2 0x17AD JUMPI JUMPDEST ISZERO PUSH2 0x1666 JUMPI DUP1 PUSH0 MSTORE PUSH1 0x2 PUSH1 0x20 MSTORE PUSH1 0xFF PUSH1 0x5 PUSH1 0x40 PUSH0 KECCAK256 ADD SLOAD PUSH1 0x50 SHR AND PUSH1 0x4 DUP2 LT ISZERO PUSH2 0x81D JUMPI ISZERO PUSH2 0x1651 JUMPI JUMPDEST PUSH2 0x164C SWAP1 PUSH2 0x2B8C JUMP JUMPDEST PUSH2 0x160F JUMP JUMPDEST SWAP4 PUSH2 0x165E PUSH2 0x164C SWAP2 PUSH2 0x2B8C JUMP JUMPDEST SWAP5 SWAP1 POP PUSH2 0x1643 JUMP JUMPDEST POP DUP4 PUSH2 0x1671 DUP2 PUSH2 0x2B9A JUMP JUMPDEST PUSH2 0x167E PUSH1 0x40 MLOAD SWAP2 DUP3 PUSH2 0x2B40 JUMP JUMPDEST DUP2 DUP2 MSTORE PUSH1 0x1F NOT PUSH2 0x168D DUP4 PUSH2 0x2B9A JUMP JUMPDEST ADD PUSH0 JUMPDEST DUP2 DUP2 LT PUSH2 0x1796 JUMPI POP POP PUSH0 SWAP1 PUSH0 SWAP3 PUSH1 0x1 JUMPDEST DUP6 DUP2 GT ISZERO DUP1 PUSH2 0x178D JUMPI JUMPDEST ISZERO PUSH2 0x173C JUMPI DUP1 PUSH0 MSTORE PUSH1 0x2 PUSH1 0x20 MSTORE PUSH1 0xFF PUSH1 0x5 PUSH1 0x40 PUSH0 KECCAK256 ADD SLOAD PUSH1 0x50 SHR AND PUSH1 0x4 DUP2 LT ISZERO PUSH2 0x81D JUMPI ISZERO PUSH2 0x16E2 JUMPI JUMPDEST PUSH2 0x16DD SWAP1 PUSH2 0x2B8C JUMP JUMPDEST PUSH2 0x16A0 JUMP JUMPDEST DUP7 DUP6 LT PUSH2 0x1729 JUMPI DUP1 PUSH2 0x16DD SWAP2 PUSH0 MSTORE PUSH1 0x2 PUSH1 0x20 MSTORE PUSH2 0x1720 PUSH1 0x40 PUSH0 KECCAK256 SWAP6 PUSH2 0x170F PUSH2 0x1709 DUP3 PUSH2 0x2B8C JUMP JUMPDEST SWAP8 PUSH2 0x2C90 JUMP JUMPDEST PUSH2 0x1719 DUP3 DUP9 PUSH2 0x3650 JUMP JUMPDEST MSTORE DUP6 PUSH2 0x3650 JUMP JUMPDEST POP JUMPDEST SWAP1 POP PUSH2 0x16D4 JUMP JUMPDEST SWAP4 PUSH2 0x1736 PUSH2 0x16DD SWAP2 PUSH2 0x2B8C JUMP JUMPDEST SWAP5 PUSH2 0x1722 JUMP JUMPDEST DUP3 PUSH1 0x40 MLOAD DUP1 SWAP2 PUSH1 0x20 DUP3 ADD PUSH1 0x20 DUP4 MSTORE DUP2 MLOAD DUP1 SWAP2 MSTORE PUSH1 0x20 PUSH1 0x40 DUP5 ADD SWAP3 ADD SWAP1 PUSH0 JUMPDEST DUP2 DUP2 LT PUSH2 0x1768 JUMPI POP POP POP SUB SWAP1 RETURN JUMPDEST SWAP2 SWAP4 POP SWAP2 PUSH1 0x20 PUSH2 0x240 DUP3 PUSH2 0x177F PUSH1 0x1 SWAP5 DUP9 MLOAD PUSH2 0x2973 JUMP JUMPDEST ADD SWAP5 ADD SWAP2 ADD SWAP2 DUP5 SWAP4 SWAP3 PUSH2 0x175A JUMP JUMPDEST POP DUP2 DUP5 LT PUSH2 0x16AA JUMP JUMPDEST PUSH1 0x20 SWAP1 PUSH2 0x17A1 PUSH2 0x2C0E JUMP JUMPDEST DUP3 DUP3 DUP7 ADD ADD MSTORE ADD PUSH2 0x1690 JUMP JUMPDEST POP DUP4 DUP6 LT PUSH2 0x1619 JUMP JUMPDEST CALLVALUE PUSH2 0x2B9 JUMPI PUSH1 0x20 CALLDATASIZE PUSH1 0x3 NOT ADD SLT PUSH2 0x2B9 JUMPI PUSH2 0x17CF PUSH2 0x37D2 JUMP JUMPDEST PUSH1 0x4 CALLDATALOAD PUSH1 0xD SSTORE STOP JUMPDEST CALLVALUE PUSH2 0x2B9 JUMPI PUSH1 0x40 CALLDATASIZE PUSH1 0x3 NOT ADD SLT PUSH2 0x2B9 JUMPI PUSH1 0x24 CALLDATALOAD PUSH1 0x3 DUP2 LT ISZERO PUSH2 0x2B9 JUMPI PUSH2 0x1808 SWAP1 PUSH2 0x1800 PUSH2 0x379A JUMP JUMPDEST PUSH1 0x4 CALLDATALOAD PUSH2 0x2EC0 JUMP JUMPDEST PUSH1 0x1 PUSH0 MLOAD PUSH1 0x20 PUSH2 0x4981 PUSH0 CODECOPY PUSH0 MLOAD SWAP1 PUSH0 MSTORE SSTORE STOP JUMPDEST CALLVALUE PUSH2 0x2B9 JUMPI PUSH1 0x20 CALLDATASIZE PUSH1 0x3 NOT ADD SLT PUSH2 0x2B9 JUMPI PUSH1 0x1 PUSH1 0x1 PUSH1 0xA0 SHL SUB PUSH2 0x183C PUSH2 0x28AE JUMP JUMPDEST AND PUSH0 MSTORE PUSH1 0x4 PUSH1 0x20 MSTORE PUSH1 0xE0 PUSH1 0x40 PUSH0 KECCAK256 PUSH1 0x1 DUP2 SLOAD SWAP2 ADD SLOAD PUSH4 0xFFFFFFFF PUSH1 0x40 MLOAD SWAP3 DUP2 DUP2 AND DUP5 MSTORE DUP2 DUP2 PUSH1 0x20 SHR AND PUSH1 0x20 DUP6 ADD MSTORE DUP2 DUP2 PUSH1 0x40 SHR AND PUSH1 0x40 DUP6 ADD MSTORE DUP2 DUP2 PUSH1 0x60 SHR AND PUSH1 0x60 DUP6 ADD MSTORE DUP2 DUP2 PUSH1 0x80 SHR AND PUSH1 0x80 DUP6 ADD MSTORE PUSH1 0xA0 SHR AND PUSH1 0xA0 DUP4 ADD MSTORE PUSH1 0xC0 DUP3 ADD MSTORE RETURN JUMPDEST CALLVALUE PUSH2 0x2B9 JUMPI PUSH2 0x18A9 CALLDATASIZE PUSH2 0x2943 JUMP JUMPDEST SWAP1 PUSH2 0x18B2 PUSH2 0x379A JUMP JUMPDEST PUSH1 0xB SLOAD DUP2 LT ISZERO PUSH2 0x1A42 JUMPI PUSH1 0x10 SLOAD DUP3 LT ISZERO PUSH2 0x1A33 JUMPI DUP1 PUSH0 MSTORE PUSH1 0x11 PUSH1 0x20 MSTORE PUSH1 0x40 PUSH0 KECCAK256 DUP3 PUSH0 MSTORE PUSH1 0x20 MSTORE PUSH1 0x1 DUP1 PUSH1 0xA0 SHL SUB PUSH1 0x40 PUSH0 KECCAK256 SLOAD AND CALLER SUB PUSH2 0x1A24 JUMPI DUP1 PUSH0 MSTORE PUSH1 0x13 PUSH1 0x20 MSTORE PUSH1 0x40 PUSH0 KECCAK256 DUP3 PUSH0 MSTORE PUSH1 0x20 MSTORE PUSH1 0xFF PUSH1 0x40 PUSH0 KECCAK256 SLOAD AND PUSH2 0x1A15 JUMPI DUP1 PUSH0 MSTORE PUSH1 0x12 PUSH1 0x20 MSTORE PUSH2 0x191F DUP3 PUSH1 0x40 PUSH0 KECCAK256 SLOAD PUSH2 0x37F8 JUMP JUMPDEST PUSH0 DUP3 DUP2 MSTORE PUSH1 0x13 PUSH1 0x20 SWAP1 DUP2 MSTORE PUSH1 0x40 DUP1 DUP4 KECCAK256 DUP7 DUP5 MSTORE DUP3 MSTORE DUP1 DUP4 KECCAK256 DUP1 SLOAD PUSH1 0xFF NOT AND PUSH1 0x1 OR SWAP1 SSTORE MLOAD PUSH4 0xA9059CBB PUSH1 0xE0 SHL DUP2 MSTORE CALLER PUSH1 0x4 DUP3 ADD MSTORE PUSH1 0x24 DUP2 ADD DUP5 SWAP1 MSTORE SWAP2 DUP3 SWAP1 PUSH1 0x44 SWAP1 DUP3 SWAP1 PUSH32 0x0 PUSH1 0x1 PUSH1 0x1 PUSH1 0xA0 SHL SUB AND GAS CALL DUP1 ISZERO PUSH2 0x40D JUMPI PUSH2 0x19DE JUMPI JUMPDEST POP PUSH1 0x40 MLOAD SWAP3 DUP4 MSTORE PUSH1 0x20 DUP4 ADD MSTORE PUSH32 0x608C8C3C6A3D40F40B96FBEE44F9B9AEE57A39C2FCB8BB0F59D8892B2D5492A2 PUSH1 0x40 CALLER SWAP4 LOG3 PUSH1 0x1 PUSH0 MLOAD PUSH1 0x20 PUSH2 0x4981 PUSH0 CODECOPY PUSH0 MLOAD SWAP1 PUSH0 MSTORE SSTORE STOP JUMPDEST PUSH1 0x20 DUP2 RETURNDATASIZE PUSH1 0x20 GT PUSH2 0x1A0D JUMPI JUMPDEST DUP2 PUSH2 0x19F7 PUSH1 0x20 SWAP4 DUP4 PUSH2 0x2B40 JUMP JUMPDEST DUP2 ADD SUB SLT PUSH2 0x2B9 JUMPI PUSH2 0x1A08 SWAP1 PUSH2 0x2B62 JUMP JUMPDEST PUSH2 0x1999 JUMP JUMPDEST RETURNDATASIZE SWAP2 POP PUSH2 0x19EA JUMP JUMPDEST PUSH4 0xC8D9EAB PUSH1 0xE3 SHL PUSH0 MSTORE PUSH1 0x4 PUSH0 REVERT JUMPDEST PUSH4 0x6EE783D1 PUSH1 0xE1 SHL PUSH0 MSTORE PUSH1 0x4 PUSH0 REVERT JUMPDEST PUSH4 0x2BA5629 PUSH1 0xE6 SHL PUSH0 MSTORE PUSH1 0x4 PUSH0 REVERT JUMPDEST PUSH4 0x7221B37B PUSH1 0xE0 SHL PUSH0 MSTORE PUSH1 0x4 PUSH0 REVERT JUMPDEST CALLVALUE PUSH2 0x2B9 JUMPI PUSH0 CALLDATASIZE PUSH1 0x3 NOT ADD SLT PUSH2 0x2B9 JUMPI PUSH1 0x40 MLOAD PUSH32 0x0 PUSH1 0x1 PUSH1 0x1 PUSH1 0xA0 SHL SUB AND DUP2 MSTORE PUSH1 0x20 SWAP1 RETURN JUMPDEST CALLVALUE PUSH2 0x2B9 JUMPI PUSH0 CALLDATASIZE PUSH1 0x3 NOT ADD SLT PUSH2 0x2B9 JUMPI PUSH1 0x20 PUSH1 0x9 SLOAD PUSH1 0x40 MLOAD SWAP1 DUP2 MSTORE RETURN JUMPDEST CALLVALUE PUSH2 0x2B9 JUMPI PUSH0 CALLDATASIZE PUSH1 0x3 NOT ADD SLT PUSH2 0x2B9 JUMPI PUSH2 0x1ACA PUSH2 0x37D2 JUMP JUMPDEST PUSH0 DUP1 SLOAD PUSH1 0x1 PUSH1 0x1 PUSH1 0xA0 SHL SUB NOT DUP2 AND DUP3 SSTORE PUSH1 0x1 PUSH1 0x1 PUSH1 0xA0 SHL SUB AND PUSH32 0x8BE0079C531659141344CD1FD0A4F28419497F9722A3DAAFE3B4186F6B6457E0 DUP3 DUP1 LOG3 STOP JUMPDEST CALLVALUE PUSH2 0x2B9 JUMPI PUSH1 0x20 CALLDATASIZE PUSH1 0x3 NOT ADD SLT PUSH2 0x2B9 JUMPI PUSH2 0x1B22 PUSH2 0x2C0E JUMP JUMPDEST POP PUSH1 0x4 CALLDATALOAD PUSH0 MSTORE PUSH1 0x2 PUSH1 0x20 MSTORE PUSH2 0x240 PUSH2 0x1B3C PUSH1 0x40 PUSH0 KECCAK256 PUSH2 0x2C90 JUMP JUMPDEST PUSH2 0x1B49 PUSH1 0x40 MLOAD DUP1 SWAP3 PUSH2 0x2973 JUMP JUMPDEST RETURN JUMPDEST CALLVALUE PUSH2 0x2B9 JUMPI PUSH1 0x20 PUSH2 0x1B64 PUSH2 0x1B5E CALLDATASIZE PUSH2 0x2943 JUMP JUMPDEST SWAP1 PUSH2 0x2BE8 JUMP JUMPDEST PUSH1 0x40 MLOAD SWAP1 DUP2 MSTORE RETURN JUMPDEST CALLVALUE PUSH2 0x2B9 JUMPI PUSH1 0x20 CALLDATASIZE PUSH1 0x3 NOT ADD SLT PUSH2 0x2B9 JUMPI PUSH1 0x4 CALLDATALOAD PUSH0 MSTORE PUSH1 0x2 PUSH1 0x20 MSTORE PUSH2 0x240 PUSH1 0x40 PUSH0 KECCAK256 DUP1 SLOAD SWAP1 PUSH1 0x1 DUP1 PUSH1 0xA0 SHL SUB PUSH1 0x1 DUP3 ADD SLOAD AND SWAP1 PUSH1 0x1 DUP1 PUSH1 0xA0 SHL SUB PUSH1 0x2 DUP3 ADD SLOAD AND PUSH1 0x3 DUP3 ADD SLOAD PUSH1 0x4 DUP4 ADD SLOAD SWAP1 PUSH1 0x5 DUP5 ADD SLOAD SWAP3 PUSH1 0x7 PUSH1 0x6 DUP7 ADD SLOAD SWAP6 ADD SLOAD SWAP6 PUSH1 0x40 MLOAD SWAP8 DUP9 MSTORE PUSH1 0x20 DUP9 ADD MSTORE PUSH1 0x40 DUP8 ADD MSTORE PUSH1 0x60 DUP7 ADD MSTORE PUSH1 0x80 DUP6 ADD MSTORE DUP1 PUSH1 0x1 SIGNEXTEND PUSH1 0xA0 DUP6 ADD MSTORE DUP1 PUSH1 0x10 SHR PUSH1 0x1 SIGNEXTEND PUSH1 0xC0 DUP6 ADD MSTORE PUSH1 0xFF DUP2 PUSH1 0x20 SHR AND PUSH1 0xE0 DUP6 ADD MSTORE PUSH1 0xFF DUP2 PUSH1 0x28 SHR AND PUSH2 0x100 DUP6 ADD MSTORE PUSH1 0xFF DUP2 PUSH1 0x30 SHR AND PUSH2 0x120 DUP6 ADD MSTORE PUSH1 0xFF DUP2 PUSH1 0x38 SHR AND ISZERO ISZERO PUSH2 0x140 DUP6 ADD MSTORE PUSH1 0xFF DUP2 PUSH1 0x40 SHR AND PUSH2 0x160 DUP6 ADD MSTORE PUSH1 0xFF DUP2 PUSH1 0x48 SHR AND PUSH2 0x180 DUP6 ADD MSTORE PUSH2 0x1C5A PUSH2 0x1A0 DUP6 ADD PUSH1 0xFF DUP4 PUSH1 0x50 SHR AND PUSH2 0x2959 JUMP JUMPDEST PUSH2 0x1C6E PUSH2 0x1C0 DUP6 ADD PUSH1 0xFF DUP4 PUSH1 0x58 SHR AND PUSH2 0x2966 JUMP JUMPDEST PUSH1 0x60 SHR PUSH2 0x1E0 DUP5 ADD MSTORE PUSH2 0x200 DUP4 ADD MSTORE PUSH2 0x220 DUP3 ADD MSTORE RETURN JUMPDEST CALLVALUE PUSH2 0x2B9 JUMPI PUSH0 CALLDATASIZE PUSH1 0x3 NOT ADD SLT PUSH2 0x2B9 JUMPI PUSH1 0xE0 PUSH1 0x9 SLOAD PUSH1 0xB SLOAD PUSH2 0x1CAC PUSH1 0xC SLOAD PUSH1 0xD SLOAD SWAP1 PUSH2 0x2B6F JUMP JUMPDEST PUSH1 0x15 SLOAD PUSH1 0x7 SLOAD SWAP1 PUSH1 0xE SLOAD SWAP3 PUSH1 0x10 SLOAD SWAP5 PUSH1 0x40 MLOAD SWAP7 DUP8 MSTORE PUSH1 0x20 DUP8 ADD MSTORE PUSH1 0x40 DUP7 ADD MSTORE PUSH1 0x60 DUP6 ADD MSTORE PUSH1 0x80 DUP5 ADD MSTORE PUSH1 0xA0 DUP4 ADD MSTORE PUSH1 0xC0 DUP3 ADD MSTORE RETURN JUMPDEST CALLVALUE PUSH2 0x2B9 JUMPI PUSH1 0x20 CALLDATASIZE PUSH1 0x3 NOT ADD SLT PUSH2 0x2B9 JUMPI PUSH1 0x4 CALLDATALOAD PUSH2 0x1CFD PUSH2 0x379A JUMP JUMPDEST PUSH0 DUP2 DUP2 MSTORE PUSH1 0x2 PUSH1 0x20 MSTORE PUSH1 0x40 SWAP1 KECCAK256 PUSH1 0x1 DUP2 ADD SLOAD PUSH1 0x1 PUSH1 0x1 PUSH1 0xA0 SHL SUB AND CALLER SUB PUSH2 0x1E6D JUMPI PUSH1 0x5 ADD PUSH1 0xFF DUP2 SLOAD PUSH1 0x50 SHR AND PUSH1 0x4 DUP2 LT ISZERO PUSH2 0x81D JUMPI PUSH2 0x80E JUMPI DUP1 SLOAD PUSH1 0xFF PUSH1 0x50 SHL NOT AND PUSH1 0x3 PUSH1 0x50 SHL OR SWAP1 SSTORE CALLER PUSH0 SWAP1 DUP2 MSTORE PUSH1 0x5 PUSH1 0x20 MSTORE PUSH1 0x40 DUP2 KECCAK256 SSTORE PUSH1 0x7 SLOAD DUP1 PUSH2 0x1D97 JUMPI JUMPDEST POP PUSH32 0xE10FD8C156678D18DF7DAF6DD3E15B95C6D350EE99272630FCAD6DDE9BEF0D0C PUSH0 DUP1 LOG2 PUSH1 0x1 PUSH0 MLOAD PUSH1 0x20 PUSH2 0x4981 PUSH0 CODECOPY PUSH0 MLOAD SWAP1 PUSH0 MSTORE SSTORE STOP JUMPDEST PUSH1 0x20 PUSH2 0x1DFA SWAP2 PUSH2 0x1DD0 PUSH2 0x2710 PUSH2 0x1DAF PUSH1 0x8 SLOAD DUP5 PUSH2 0x2AAD JUMP JUMPDEST DIV PUSH2 0x1DC5 PUSH2 0x1DBD DUP3 DUP6 PUSH2 0x2ADE JUMP JUMPDEST PUSH1 0x9 SLOAD PUSH2 0x2ADE JUMP JUMPDEST PUSH1 0x9 SSTORE PUSH1 0xA SLOAD PUSH2 0x2ADE JUMP JUMPDEST PUSH1 0xA SSTORE PUSH1 0x40 MLOAD PUSH4 0xA9059CBB PUSH1 0xE0 SHL DUP2 MSTORE CALLER PUSH1 0x4 DUP3 ADD MSTORE PUSH1 0x24 DUP2 ADD SWAP2 SWAP1 SWAP2 MSTORE SWAP2 DUP3 SWAP1 DUP2 SWAP1 PUSH1 0x44 DUP3 ADD SWAP1 JUMP JUMPDEST SUB DUP2 PUSH0 PUSH32 0x0 PUSH1 0x1 PUSH1 0x1 PUSH1 0xA0 SHL SUB AND GAS CALL DUP1 ISZERO PUSH2 0x40D JUMPI ISZERO PUSH2 0x1D5F JUMPI PUSH1 0x20 DUP2 RETURNDATASIZE PUSH1 0x20 GT PUSH2 0x1E65 JUMPI JUMPDEST DUP2 PUSH2 0x1E4D PUSH1 0x20 SWAP4 DUP4 PUSH2 0x2B40 JUMP JUMPDEST DUP2 ADD SUB SLT PUSH2 0x2B9 JUMPI PUSH2 0x1E5E SWAP1 PUSH2 0x2B62 JUMP JUMPDEST POP DUP2 PUSH2 0x1D5F JUMP JUMPDEST RETURNDATASIZE SWAP2 POP PUSH2 0x1E40 JUMP JUMPDEST PUSH4 0x4B400BE5 PUSH1 0xE1 SHL PUSH0 MSTORE PUSH1 0x4 PUSH0 REVERT JUMPDEST CALLVALUE PUSH2 0x2B9 JUMPI PUSH2 0x1E8A CALLDATASIZE PUSH2 0x2943 JUMP JUMPDEST SWAP1 PUSH0 MSTORE PUSH1 0x3 PUSH1 0x20 MSTORE PUSH1 0x40 PUSH0 KECCAK256 DUP1 SLOAD DUP3 LT ISZERO PUSH2 0x2B9 JUMPI PUSH1 0xC0 SWAP2 PUSH2 0x1EAB SWAP2 PUSH2 0x292E JUMP JUMPDEST POP SLOAD PUSH1 0x40 MLOAD SWAP1 PUSH1 0xFF DUP2 AND DUP3 MSTORE PUSH1 0x1 DUP1 PUSH1 0xA0 SHL SUB DUP2 PUSH1 0x8 SHR AND PUSH1 0x20 DUP4 ADD MSTORE PUSH2 0x1EDB PUSH1 0x40 DUP4 ADD PUSH1 0xFF DUP4 PUSH1 0xA8 SHR AND PUSH2 0x28F5 JUMP JUMPDEST PUSH2 0xFFFF DUP2 PUSH1 0xB0 SHR AND PUSH1 0x60 DUP4 ADD MSTORE DUP1 DUP4 SHR PUSH1 0x1 SIGNEXTEND PUSH1 0x80 DUP4 ADD MSTORE PUSH1 0xD0 SHR PUSH1 0x1 SIGNEXTEND PUSH1 0xA0 DUP3 ADD MSTORE RETURN JUMPDEST CALLVALUE PUSH2 0x2B9 JUMPI PUSH1 0x20 CALLDATASIZE PUSH1 0x3 NOT ADD SLT PUSH2 0x2B9 JUMPI PUSH1 0x4 CALLDATALOAD PUSH1 0xF SLOAD DUP2 LT ISZERO PUSH2 0x2B9 JUMPI PUSH2 0x1F29 PUSH1 0x20 SWAP2 PUSH2 0x2902 JUMP JUMPDEST SWAP1 SLOAD SWAP1 PUSH1 0x3 SHL SHR PUSH1 0x40 MLOAD SWAP1 DUP2 MSTORE RETURN JUMPDEST CALLVALUE PUSH2 0x2B9 JUMPI PUSH0 CALLDATASIZE PUSH1 0x3 NOT ADD SLT PUSH2 0x2B9 JUMPI PUSH1 0x20 PUSH1 0x10 SLOAD PUSH1 0x40 MLOAD SWAP1 DUP2 MSTORE RETURN JUMPDEST CALLVALUE PUSH2 0x2B9 JUMPI PUSH0 CALLDATASIZE PUSH1 0x3 NOT ADD SLT PUSH2 0x2B9 JUMPI PUSH1 0x20 PUSH1 0x40 MLOAD PUSH2 0x7D0 DUP2 MSTORE RETURN JUMPDEST CALLVALUE PUSH2 0x2B9 JUMPI PUSH0 CALLDATASIZE PUSH1 0x3 NOT ADD SLT PUSH2 0x2B9 JUMPI PUSH1 0x20 PUSH1 0x40 MLOAD PUSH1 0x5 DUP2 MSTORE RETURN JUMPDEST CALLVALUE PUSH2 0x2B9 JUMPI PUSH0 CALLDATASIZE PUSH1 0x3 NOT ADD SLT PUSH2 0x2B9 JUMPI PUSH1 0x20 PUSH1 0xE SLOAD PUSH1 0x40 MLOAD SWAP1 DUP2 MSTORE RETURN JUMPDEST CALLVALUE PUSH2 0x2B9 JUMPI PUSH1 0x20 CALLDATASIZE PUSH1 0x3 NOT ADD SLT PUSH2 0x2B9 JUMPI PUSH1 0x1 PUSH1 0x1 PUSH1 0xA0 SHL SUB PUSH2 0x1FCA PUSH2 0x28AE JUMP JUMPDEST AND PUSH0 MSTORE PUSH1 0x5 PUSH1 0x20 MSTORE PUSH1 0x20 PUSH1 0x40 PUSH0 KECCAK256 SLOAD PUSH1 0x40 MLOAD SWAP1 DUP2 MSTORE RETURN JUMPDEST CALLVALUE PUSH2 0x2B9 JUMPI PUSH0 CALLDATASIZE PUSH1 0x3 NOT ADD SLT PUSH2 0x2B9 JUMPI PUSH1 0x20 PUSH1 0x1 SLOAD PUSH1 0x40 MLOAD SWAP1 DUP2 MSTORE RETURN JUMPDEST CALLVALUE PUSH2 0x2B9 JUMPI PUSH0 CALLDATASIZE PUSH1 0x3 NOT ADD SLT PUSH2 0x2B9 JUMPI PUSH1 0x20 PUSH1 0x15 SLOAD PUSH1 0x40 MLOAD SWAP1 DUP2 MSTORE RETURN JUMPDEST CALLVALUE PUSH2 0x2B9 JUMPI PUSH0 CALLDATASIZE PUSH1 0x3 NOT ADD SLT PUSH2 0x2B9 JUMPI PUSH1 0x20 PUSH1 0x40 MLOAD PUSH1 0xB4 DUP2 MSTORE RETURN JUMPDEST CALLVALUE PUSH2 0x2B9 JUMPI PUSH0 CALLDATASIZE PUSH1 0x3 NOT ADD SLT PUSH2 0x2B9 JUMPI PUSH1 0x20 PUSH1 0x8 SLOAD PUSH1 0x40 MLOAD SWAP1 DUP2 MSTORE RETURN JUMPDEST CALLVALUE PUSH2 0x2B9 JUMPI PUSH0 CALLDATASIZE PUSH1 0x3 NOT ADD SLT PUSH2 0x2B9 JUMPI PUSH1 0x20 PUSH2 0x1B64 PUSH2 0x2BBE JUMP JUMPDEST CALLVALUE PUSH2 0x2B9 JUMPI PUSH0 CALLDATASIZE PUSH1 0x3 NOT ADD SLT PUSH2 0x2B9 JUMPI PUSH1 0x20 PUSH1 0xA SLOAD PUSH1 0x40 MLOAD SWAP1 DUP2 MSTORE RETURN JUMPDEST CALLVALUE PUSH2 0x2B9 JUMPI PUSH1 0x20 CALLDATASIZE PUSH1 0x3 NOT ADD SLT PUSH2 0x2B9 JUMPI PUSH1 0x4 CALLDATALOAD PUSH0 MSTORE PUSH1 0x3 PUSH1 0x20 MSTORE PUSH1 0x40 PUSH0 KECCAK256 DUP1 SLOAD SWAP1 PUSH2 0x20B5 DUP3 PUSH2 0x2B9A JUMP JUMPDEST SWAP2 PUSH2 0x20C3 PUSH1 0x40 MLOAD SWAP4 DUP5 PUSH2 0x2B40 JUMP JUMPDEST DUP1 DUP4 MSTORE PUSH1 0x20 DUP4 ADD DUP1 SWAP3 PUSH0 MSTORE PUSH1 0x20 PUSH0 KECCAK256 PUSH0 SWAP2 JUMPDEST DUP4 DUP4 LT PUSH2 0x216E JUMPI DUP5 DUP7 PUSH1 0x40 MLOAD SWAP2 DUP3 SWAP2 PUSH1 0x20 DUP4 ADD SWAP1 PUSH1 0x20 DUP5 MSTORE MLOAD DUP1 SWAP2 MSTORE PUSH1 0x40 DUP4 ADD SWAP2 SWAP1 PUSH0 JUMPDEST DUP2 DUP2 LT PUSH2 0x2107 JUMPI POP POP POP SUB SWAP1 RETURN JUMPDEST SWAP2 SWAP4 POP SWAP2 PUSH1 0x20 PUSH1 0xC0 PUSH1 0x1 SWAP3 PUSH1 0xA0 DUP8 MLOAD PUSH1 0xFF DUP2 MLOAD AND DUP4 MSTORE DUP6 DUP1 DUP4 SHL SUB DUP6 DUP3 ADD MLOAD AND DUP6 DUP5 ADD MSTORE PUSH2 0x213D PUSH1 0x40 DUP3 ADD MLOAD PUSH1 0x40 DUP6 ADD SWAP1 PUSH2 0x28F5 JUMP JUMPDEST PUSH2 0xFFFF PUSH1 0x60 DUP3 ADD MLOAD AND PUSH1 0x60 DUP5 ADD MSTORE PUSH1 0x80 DUP2 ADD MLOAD DUP7 SIGNEXTEND PUSH1 0x80 DUP5 ADD MSTORE ADD MLOAD DUP5 SIGNEXTEND PUSH1 0xA0 DUP3 ADD MSTORE ADD SWAP5 ADD SWAP2 ADD SWAP2 DUP5 SWAP4 SWAP3 PUSH2 0x20F9 JUMP JUMPDEST PUSH1 0x1 PUSH1 0x20 DUP2 SWAP3 PUSH1 0x40 MLOAD PUSH2 0x2180 DUP2 PUSH2 0x2AEB JUMP JUMPDEST DUP6 SLOAD PUSH1 0xFF DUP2 AND DUP3 MSTORE DUP5 DUP1 PUSH1 0xA0 SHL SUB DUP2 PUSH1 0x8 SHR AND DUP5 DUP4 ADD MSTORE PUSH2 0x21AA PUSH1 0xFF DUP3 PUSH1 0xA8 SHR AND PUSH1 0x40 DUP5 ADD PUSH2 0x2BB2 JUMP JUMPDEST PUSH2 0xFFFF DUP2 PUSH1 0xB0 SHR AND PUSH1 0x60 DUP4 ADD MSTORE DUP1 PUSH1 0xC0 SHR DUP6 SIGNEXTEND PUSH1 0x80 DUP4 ADD MSTORE PUSH1 0xD0 SHR DUP5 SIGNEXTEND PUSH1 0xA0 DUP3 ADD MSTORE DUP2 MSTORE ADD SWAP3 ADD SWAP3 ADD SWAP2 SWAP1 PUSH2 0x20D5 JUMP JUMPDEST CALLVALUE PUSH2 0x2B9 JUMPI PUSH1 0x20 CALLDATASIZE PUSH1 0x3 NOT ADD SLT PUSH2 0x2B9 JUMPI PUSH1 0x4 CALLDATALOAD PUSH8 0xFFFFFFFFFFFFFFFF DUP2 GT PUSH2 0x2B9 JUMPI PUSH2 0x220B SWAP1 CALLDATASIZE SWAP1 PUSH1 0x4 ADD PUSH2 0x28C4 JUMP JUMPDEST PUSH2 0x2213 PUSH2 0x37D2 JUMP JUMPDEST PUSH2 0x2222 PUSH1 0xC SLOAD PUSH1 0xD SLOAD SWAP1 PUSH2 0x2B6F JUMP JUMPDEST TIMESTAMP LT PUSH2 0x236B JUMPI PUSH1 0x10 SLOAD DUP2 GT PUSH2 0x2333 JUMPI PUSH1 0xB SLOAD SWAP2 PUSH1 0x9 SLOAD SWAP2 PUSH0 JUMPDEST DUP2 DUP2 LT PUSH2 0x22DE JUMPI POP DUP4 PUSH0 MSTORE PUSH1 0x12 PUSH1 0x20 MSTORE DUP3 PUSH1 0x40 PUSH0 KECCAK256 SSTORE PUSH0 PUSH1 0x9 SSTORE PUSH2 0x2260 PUSH1 0xB SLOAD PUSH2 0x2B8C JUMP JUMPDEST PUSH1 0xB SSTORE TIMESTAMP PUSH1 0xC SSTORE DUP1 PUSH1 0x40 MLOAD SWAP4 PUSH1 0x40 DUP6 ADD SWAP1 DUP6 MSTORE PUSH1 0x40 PUSH1 0x20 DUP7 ADD MSTORE MSTORE PUSH1 0x60 DUP4 ADD SWAP2 SWAP1 PUSH0 SWAP1 JUMPDEST DUP1 DUP3 LT PUSH2 0x22B4 JUMPI DUP6 PUSH32 0x60ADCB75EE5C9FD534A467F9F54A34F58A8532F615C0DEADB38F85EB32E814D0 DUP7 DUP7 SUB DUP8 LOG2 STOP JUMPDEST SWAP1 SWAP2 SWAP3 DUP4 CALLDATALOAD SWAP1 PUSH1 0x1 DUP1 PUSH1 0xA0 SHL SUB DUP3 AND DUP1 SWAP3 SUB PUSH2 0x2B9 JUMPI PUSH1 0x20 DUP2 PUSH1 0x1 SWAP4 DUP3 SWAP4 MSTORE ADD SWAP5 ADD SWAP3 ADD SWAP1 PUSH2 0x2284 JUMP JUMPDEST PUSH2 0x22E9 DUP2 DUP4 DUP6 PUSH2 0x2B7C JUMP JUMPDEST CALLDATALOAD SWAP1 PUSH1 0x1 PUSH1 0x1 PUSH1 0xA0 SHL SUB DUP3 AND DUP3 SUB PUSH2 0x2B9 JUMPI PUSH1 0x1 SWAP2 DUP7 PUSH0 MSTORE PUSH1 0x11 PUSH1 0x20 MSTORE PUSH1 0x40 PUSH0 KECCAK256 DUP3 PUSH0 MSTORE PUSH1 0x20 MSTORE PUSH1 0x40 PUSH0 KECCAK256 SWAP1 DUP4 DUP1 PUSH1 0xA0 SHL SUB AND PUSH1 0x1 PUSH1 0x1 PUSH1 0x60 SHL SUB PUSH1 0xA0 SHL DUP3 SLOAD AND OR SWAP1 SSTORE ADD PUSH2 0x223B JUMP JUMPDEST PUSH1 0x40 MLOAD PUSH3 0x461BCD PUSH1 0xE5 SHL DUP2 MSTORE PUSH1 0x20 PUSH1 0x4 DUP3 ADD MSTORE PUSH1 0x10 PUSH1 0x24 DUP3 ADD MSTORE PUSH16 0x546F6F206D616E7920706C6179657273 PUSH1 0x80 SHL PUSH1 0x44 DUP3 ADD MSTORE PUSH1 0x64 SWAP1 REVERT JUMPDEST PUSH4 0x141189CF PUSH1 0xE3 SHL PUSH0 MSTORE PUSH1 0x4 PUSH0 REVERT JUMPDEST CALLVALUE PUSH2 0x2B9 JUMPI PUSH1 0x20 CALLDATASIZE PUSH1 0x3 NOT ADD SLT PUSH2 0x2B9 JUMPI PUSH1 0x4 CALLDATALOAD PUSH2 0x2396 PUSH2 0x37D2 JUMP JUMPDEST PUSH2 0x7D0 DUP2 GT PUSH2 0x23A4 JUMPI PUSH1 0x8 SSTORE STOP JUMPDEST PUSH4 0x58D620B3 PUSH1 0xE0 SHL PUSH0 MSTORE PUSH1 0x4 PUSH0 REVERT JUMPDEST CALLVALUE PUSH2 0x2B9 JUMPI PUSH1 0x20 CALLDATASIZE PUSH1 0x3 NOT ADD SLT PUSH2 0x2B9 JUMPI PUSH1 0xFF PUSH2 0x23CE PUSH2 0x2888 JUMP JUMPDEST AND PUSH0 MSTORE PUSH1 0x6 PUSH1 0x20 MSTORE PUSH1 0x20 PUSH1 0xFF PUSH1 0x40 PUSH0 KECCAK256 SLOAD AND PUSH1 0x40 MLOAD SWAP1 DUP2 MSTORE RETURN JUMPDEST CALLVALUE PUSH2 0x2B9 JUMPI PUSH1 0x20 CALLDATASIZE PUSH1 0x3 NOT ADD SLT PUSH2 0x2B9 JUMPI PUSH1 0x4 CALLDATALOAD PUSH2 0x2404 PUSH2 0x379A JUMP JUMPDEST DUP1 PUSH0 MSTORE PUSH1 0x2 PUSH1 0x20 MSTORE PUSH1 0x40 PUSH0 KECCAK256 PUSH1 0x1 DUP2 ADD PUSH1 0x1 DUP1 PUSH1 0xA0 SHL SUB DUP2 SLOAD AND CALLER EQ SWAP2 PUSH1 0x2 DUP2 ADD SWAP3 PUSH1 0x1 DUP1 PUSH1 0xA0 SHL SUB DUP5 SLOAD AND CALLER EQ SWAP1 ISZERO SWAP1 DUP2 PUSH2 0x2865 JUMPI JUMPDEST POP PUSH2 0x1E6D JUMPI PUSH1 0x5 DUP2 ADD SWAP1 DUP2 SLOAD PUSH1 0xFF DUP2 PUSH1 0x50 SHR AND PUSH1 0x4 DUP2 LT ISZERO PUSH2 0x81D JUMPI PUSH1 0x1 SUB PUSH2 0x2856 JUMPI PUSH1 0xFF PUSH1 0x1 SWAP2 PUSH1 0x20 SHR AND GT PUSH2 0x2847 JUMPI DUP2 SLOAD PUSH1 0xFF PUSH1 0x50 SHL NOT AND PUSH1 0x3 PUSH1 0x50 SHL OR DUP3 SSTORE TIMESTAMP PUSH1 0x7 SWAP2 SWAP1 SWAP2 ADD SSTORE DUP2 SLOAD PUSH1 0x1 PUSH1 0x1 PUSH1 0xA0 SHL SUB SWAP1 DUP2 AND PUSH0 SWAP1 DUP2 MSTORE PUSH1 0x5 PUSH1 0x20 MSTORE PUSH1 0x40 DUP2 KECCAK256 SSTORE DUP4 SLOAD AND ADDRESS DUP2 SUB PUSH2 0x2834 JUMPI JUMPDEST POP PUSH1 0x7 SLOAD SWAP1 DUP2 PUSH2 0x2514 JUMPI JUMPDEST DUP5 CALLER DUP2 PUSH32 0xA4262D2B40A2CEE3044E9392C8668B69A5D135EA0AD29D0AD69CAF59F0B95F59 PUSH0 DUP1 LOG3 PUSH32 0xE10FD8C156678D18DF7DAF6DD3E15B95C6D350EE99272630FCAD6DDE9BEF0D0C PUSH0 DUP1 LOG2 PUSH1 0x1 PUSH0 MLOAD PUSH1 0x20 PUSH2 0x4981 PUSH0 CODECOPY PUSH0 MLOAD SWAP1 PUSH0 MSTORE SSTORE STOP JUMPDEST PUSH2 0x2710 PUSH2 0x2523 PUSH1 0x8 SLOAD DUP5 PUSH2 0x2AAD JUMP JUMPDEST DIV SWAP2 PUSH1 0xFF PUSH2 0x2531 DUP5 DUP4 PUSH2 0x2ADE JUMP JUMPDEST SWAP3 SLOAD PUSH1 0x58 SHR AND PUSH1 0x2 DUP2 LT ISZERO PUSH2 0x81D JUMPI PUSH1 0x1 SUB PUSH2 0x2613 JUMPI POP PUSH2 0x2595 SWAP4 POP PUSH1 0x20 SWAP3 SWAP2 PUSH2 0x1DC5 PUSH2 0x2560 SWAP3 PUSH1 0x9 SLOAD PUSH2 0x2ADE JUMP JUMPDEST PUSH1 0xA SSTORE SLOAD PUSH1 0x7 SLOAD PUSH1 0x40 MLOAD PUSH4 0xA9059CBB PUSH1 0xE0 SHL DUP2 MSTORE PUSH1 0x1 PUSH1 0x1 PUSH1 0xA0 SHL SUB SWAP1 SWAP3 AND PUSH1 0x4 DUP4 ADD MSTORE PUSH1 0x24 DUP3 ADD MSTORE SWAP2 DUP3 SWAP1 DUP2 SWAP1 PUSH1 0x44 DUP3 ADD SWAP1 JUMP JUMPDEST SUB DUP2 PUSH0 PUSH32 0x0 PUSH1 0x1 PUSH1 0x1 PUSH1 0xA0 SHL SUB AND GAS CALL DUP1 ISZERO PUSH2 0x40D JUMPI PUSH2 0x25DA JUMPI JUMPDEST POP JUMPDEST DUP2 DUP1 DUP1 DUP1 PUSH2 0x24B6 JUMP JUMPDEST PUSH1 0x20 DUP2 RETURNDATASIZE PUSH1 0x20 GT PUSH2 0x260B JUMPI JUMPDEST DUP2 PUSH2 0x25F3 PUSH1 0x20 SWAP4 DUP4 PUSH2 0x2B40 JUMP JUMPDEST DUP2 ADD SUB SLT PUSH2 0x2B9 JUMPI PUSH2 0x2604 SWAP1 PUSH2 0x2B62 JUMP JUMPDEST POP DUP2 PUSH2 0x25CF JUMP JUMPDEST RETURNDATASIZE SWAP2 POP PUSH2 0x25E6 JUMP JUMPDEST DUP5 SLOAD PUSH1 0x1 PUSH1 0x1 PUSH1 0xA0 SHL SUB AND DUP1 ISZERO ISZERO SWAP1 DUP2 PUSH2 0x2829 JUMPI JUMPDEST POP ISZERO PUSH2 0x279C JUMPI POP DUP1 PUSH1 0x1 SHL SWAP1 DUP1 DUP3 DIV PUSH1 0x2 EQ SWAP1 ISZERO OR ISZERO PUSH2 0x1087 JUMPI PUSH2 0x264E SWAP1 PUSH1 0x9 SLOAD PUSH2 0x2ADE JUMP JUMPDEST PUSH1 0x9 SSTORE DUP1 PUSH1 0x1 SHL SWAP1 DUP1 DUP3 DIV PUSH1 0x2 EQ SWAP1 ISZERO OR ISZERO PUSH2 0x1087 JUMPI PUSH2 0x2670 SWAP1 PUSH1 0xA SLOAD PUSH2 0x2ADE JUMP JUMPDEST PUSH1 0xA SSTORE SLOAD PUSH1 0x7 SLOAD PUSH1 0x40 MLOAD PUSH4 0xA9059CBB PUSH1 0xE0 SHL DUP2 MSTORE PUSH1 0x1 PUSH1 0x1 PUSH1 0xA0 SHL SUB SWAP3 DUP4 AND PUSH1 0x4 DUP3 ADD MSTORE PUSH1 0x24 DUP2 ADD SWAP2 SWAP1 SWAP2 MSTORE PUSH32 0x0 SWAP1 SWAP2 AND SWAP1 PUSH1 0x20 DUP2 PUSH1 0x44 DUP2 PUSH0 DUP7 GAS CALL DUP1 ISZERO PUSH2 0x40D JUMPI PUSH2 0x275A JUMPI JUMPDEST POP SWAP1 SLOAD PUSH1 0x7 SLOAD PUSH1 0x40 MLOAD PUSH4 0xA9059CBB PUSH1 0xE0 SHL DUP2 MSTORE PUSH1 0x1 PUSH1 0x1 PUSH1 0xA0 SHL SUB SWAP1 SWAP3 AND PUSH1 0x4 DUP4 ADD MSTORE PUSH1 0x24 DUP3 ADD MSTORE SWAP1 PUSH1 0x20 SWAP1 DUP3 SWAP1 DUP2 PUSH0 DUP2 PUSH1 0x44 DUP2 ADD JUMPDEST SUB SWAP3 GAS CALL DUP1 ISZERO PUSH2 0x40D JUMPI PUSH2 0x2721 JUMPI JUMPDEST POP PUSH2 0x25D1 JUMP JUMPDEST PUSH1 0x20 DUP2 RETURNDATASIZE PUSH1 0x20 GT PUSH2 0x2752 JUMPI JUMPDEST DUP2 PUSH2 0x273A PUSH1 0x20 SWAP4 DUP4 PUSH2 0x2B40 JUMP JUMPDEST DUP2 ADD SUB SLT PUSH2 0x2B9 JUMPI PUSH2 0x274B SWAP1 PUSH2 0x2B62 JUMP JUMPDEST POP DUP2 PUSH2 0x271B JUMP JUMPDEST RETURNDATASIZE SWAP2 POP PUSH2 0x272D JUMP JUMPDEST SWAP1 PUSH1 0x20 DUP3 RETURNDATASIZE PUSH1 0x20 GT PUSH2 0x2794 JUMPI JUMPDEST DUP2 PUSH2 0x2774 PUSH1 0x20 SWAP4 DUP4 PUSH2 0x2B40 JUMP JUMPDEST DUP2 ADD SUB SLT PUSH2 0x2B9 JUMPI PUSH2 0x270C SWAP3 PUSH2 0x278B PUSH1 0x20 SWAP4 PUSH2 0x2B62 JUMP JUMPDEST POP SWAP3 POP SWAP1 PUSH2 0x26D6 JUMP JUMPDEST RETURNDATASIZE SWAP2 POP PUSH2 0x2767 JUMP JUMPDEST SWAP2 PUSH2 0x27EA SWAP5 POP PUSH2 0x27B5 SWAP1 PUSH2 0x1DC5 PUSH1 0x20 SWAP6 SWAP4 PUSH1 0x9 SLOAD PUSH2 0x2ADE JUMP JUMPDEST PUSH1 0xA SSTORE SLOAD PUSH1 0x40 MLOAD PUSH4 0xA9059CBB PUSH1 0xE0 SHL DUP2 MSTORE PUSH1 0x1 PUSH1 0x1 PUSH1 0xA0 SHL SUB SWAP1 SWAP2 AND PUSH1 0x4 DUP3 ADD MSTORE PUSH1 0x24 DUP2 ADD SWAP2 SWAP1 SWAP2 MSTORE SWAP2 DUP3 SWAP1 DUP2 SWAP1 PUSH1 0x44 DUP3 ADD SWAP1 JUMP JUMPDEST SUB DUP2 PUSH0 PUSH32 0x0 PUSH1 0x1 PUSH1 0x1 PUSH1 0xA0 SHL SUB AND GAS CALL DUP1 ISZERO PUSH2 0x40D JUMPI PUSH2 0x2721 JUMPI POP PUSH2 0x25D1 JUMP JUMPDEST SWAP1 POP ADDRESS EQ ISZERO DUP8 PUSH2 0x2628 JUMP JUMPDEST PUSH0 MSTORE PUSH1 0x5 PUSH1 0x20 MSTORE PUSH0 PUSH1 0x40 DUP2 KECCAK256 SSTORE DUP5 PUSH2 0x24AB JUMP JUMPDEST PUSH4 0x8ACECE11 PUSH1 0xE0 SHL PUSH0 MSTORE PUSH1 0x4 PUSH0 REVERT JUMPDEST PUSH4 0x792C9679 PUSH1 0xE1 SHL PUSH0 MSTORE PUSH1 0x4 PUSH0 REVERT JUMPDEST SWAP1 POP ISZERO DUP6 PUSH2 0x243B JUMP JUMPDEST CALLVALUE PUSH2 0x2B9 JUMPI PUSH0 CALLDATASIZE PUSH1 0x3 NOT ADD SLT PUSH2 0x2B9 JUMPI PUSH1 0x20 SWAP1 PUSH1 0x7 SLOAD DUP2 MSTORE RETURN JUMPDEST PUSH1 0x4 CALLDATALOAD SWAP1 PUSH1 0xFF DUP3 AND DUP3 SUB PUSH2 0x2B9 JUMPI JUMP JUMPDEST PUSH1 0x24 CALLDATALOAD SWAP1 PUSH1 0x1 PUSH1 0x1 PUSH1 0xA0 SHL SUB DUP3 AND DUP3 SUB PUSH2 0x2B9 JUMPI JUMP JUMPDEST PUSH1 0x4 CALLDATALOAD SWAP1 PUSH1 0x1 PUSH1 0x1 PUSH1 0xA0 SHL SUB DUP3 AND DUP3 SUB PUSH2 0x2B9 JUMPI JUMP JUMPDEST SWAP2 DUP2 PUSH1 0x1F DUP5 ADD SLT ISZERO PUSH2 0x2B9 JUMPI DUP3 CALLDATALOAD SWAP2 PUSH8 0xFFFFFFFFFFFFFFFF DUP4 GT PUSH2 0x2B9 JUMPI PUSH1 0x20 DUP1 DUP6 ADD SWAP5 DUP5 PUSH1 0x5 SHL ADD ADD GT PUSH2 0x2B9 JUMPI JUMP JUMPDEST SWAP1 PUSH1 0x3 DUP3 LT ISZERO PUSH2 0x81D JUMPI MSTORE JUMP JUMPDEST PUSH1 0xF SLOAD DUP2 LT ISZERO PUSH2 0x291A JUMPI PUSH1 0xF PUSH0 MSTORE PUSH1 0x20 PUSH0 KECCAK256 ADD SWAP1 PUSH0 SWAP1 JUMP JUMPDEST PUSH4 0x4E487B71 PUSH1 0xE0 SHL PUSH0 MSTORE PUSH1 0x32 PUSH1 0x4 MSTORE PUSH1 0x24 PUSH0 REVERT JUMPDEST DUP1 SLOAD DUP3 LT ISZERO PUSH2 0x291A JUMPI PUSH0 MSTORE PUSH1 0x20 PUSH0 KECCAK256 ADD SWAP1 PUSH0 SWAP1 JUMP JUMPDEST PUSH1 0x40 SWAP1 PUSH1 0x3 NOT ADD SLT PUSH2 0x2B9 JUMPI PUSH1 0x4 CALLDATALOAD SWAP1 PUSH1 0x24 CALLDATALOAD SWAP1 JUMP JUMPDEST SWAP1 PUSH1 0x4 DUP3 LT ISZERO PUSH2 0x81D JUMPI MSTORE JUMP JUMPDEST SWAP1 PUSH1 0x2 DUP3 LT ISZERO PUSH2 0x81D JUMPI MSTORE JUMP JUMPDEST PUSH2 0x220 DUP1 SWAP2 DUP1 MLOAD DUP5 MSTORE PUSH1 0x1 DUP1 PUSH1 0xA0 SHL SUB PUSH1 0x20 DUP3 ADD MLOAD AND PUSH1 0x20 DUP6 ADD MSTORE PUSH1 0x1 DUP1 PUSH1 0xA0 SHL SUB PUSH1 0x40 DUP3 ADD MLOAD AND PUSH1 0x40 DUP6 ADD MSTORE PUSH1 0x60 DUP2 ADD MLOAD PUSH1 0x60 DUP6 ADD MSTORE PUSH1 0x80 DUP2 ADD MLOAD PUSH1 0x80 DUP6 ADD MSTORE PUSH1 0xA0 DUP2 ADD MLOAD PUSH1 0x1 SIGNEXTEND PUSH1 0xA0 DUP6 ADD MSTORE PUSH1 0xC0 DUP2 ADD MLOAD PUSH1 0x1 SIGNEXTEND PUSH1 0xC0 DUP6 ADD MSTORE PUSH1 0xFF PUSH1 0xE0 DUP3 ADD MLOAD AND PUSH1 0xE0 DUP6 ADD MSTORE PUSH1 0xFF PUSH2 0x100 DUP3 ADD MLOAD AND PUSH2 0x100 DUP6 ADD MSTORE PUSH1 0xFF PUSH2 0x120 DUP3 ADD MLOAD AND PUSH2 0x120 DUP6 ADD MSTORE PUSH2 0x140 DUP2 ADD MLOAD ISZERO ISZERO PUSH2 0x140 DUP6 ADD MSTORE PUSH1 0xFF PUSH2 0x160 DUP3 ADD MLOAD AND PUSH2 0x160 DUP6 ADD MSTORE PUSH1 0xFF PUSH2 0x180 DUP3 ADD MLOAD AND PUSH2 0x180 DUP6 ADD MSTORE PUSH2 0x2A39 PUSH2 0x1A0 DUP3 ADD MLOAD PUSH2 0x1A0 DUP7 ADD SWAP1 PUSH2 0x2959 JUMP JUMPDEST PUSH2 0x2A4D PUSH2 0x1C0 DUP3 ADD MLOAD PUSH2 0x1C0 DUP7 ADD SWAP1 PUSH2 0x2966 JUMP JUMPDEST PUSH2 0x1E0 DUP2 DUP2 ADD MLOAD PUSH1 0x1 PUSH1 0x1 PUSH1 0xA0 SHL SUB AND SWAP1 DUP6 ADD MSTORE PUSH2 0x200 DUP1 DUP3 ADD MLOAD SWAP1 DUP6 ADD MSTORE ADD MLOAD SWAP2 ADD MSTORE JUMP JUMPDEST SWAP1 PUSH1 0x4 DUP2 LT ISZERO PUSH2 0x81D JUMPI DUP2 SLOAD PUSH1 0xFF PUSH1 0x50 SHL NOT AND PUSH1 0x50 SWAP2 SWAP1 SWAP2 SHL PUSH1 0xFF PUSH1 0x50 SHL AND OR SWAP1 SSTORE JUMP JUMPDEST SWAP1 PUSH1 0x96 DUP3 MUL SWAP2 DUP1 DUP4 DIV PUSH1 0x96 EQ SWAP1 ISZERO OR ISZERO PUSH2 0x1087 JUMPI JUMP JUMPDEST DUP2 DUP2 MUL SWAP3 SWAP2 DUP2 ISZERO SWAP2 DUP5 DIV EQ OR ISZERO PUSH2 0x1087 JUMPI JUMP JUMPDEST DUP2 ISZERO PUSH2 0x2ACA JUMPI DIV SWAP1 JUMP JUMPDEST PUSH4 0x4E487B71 PUSH1 0xE0 SHL PUSH0 MSTORE PUSH1 0x12 PUSH1 0x4 MSTORE PUSH1 0x24 PUSH0 REVERT JUMPDEST SWAP2 SWAP1 DUP3 SUB SWAP2 DUP3 GT PUSH2 0x1087 JUMPI JUMP JUMPDEST PUSH1 0xC0 DUP2 ADD SWAP1 DUP2 LT PUSH8 0xFFFFFFFFFFFFFFFF DUP3 GT OR PUSH2 0xABB JUMPI PUSH1 0x40 MSTORE JUMP JUMPDEST PUSH2 0x240 DUP2 ADD SWAP1 DUP2 LT PUSH8 0xFFFFFFFFFFFFFFFF DUP3 GT OR PUSH2 0xABB JUMPI PUSH1 0x40 MSTORE JUMP JUMPDEST PUSH1 0xE0 DUP2 ADD SWAP1 DUP2 LT PUSH8 0xFFFFFFFFFFFFFFFF DUP3 GT OR PUSH2 0xABB JUMPI PUSH1 0x40 MSTORE JUMP JUMPDEST SWAP1 PUSH1 0x1F DUP1 NOT SWAP2 ADD AND DUP2 ADD SWAP1 DUP2 LT PUSH8 0xFFFFFFFFFFFFFFFF DUP3 GT OR PUSH2 0xABB JUMPI PUSH1 0x40 MSTORE JUMP JUMPDEST MLOAD SWAP1 DUP2 ISZERO ISZERO DUP3 SUB PUSH2 0x2B9 JUMPI JUMP JUMPDEST SWAP2 SWAP1 DUP3 ADD DUP1 SWAP3 GT PUSH2 0x1087 JUMPI JUMP JUMPDEST SWAP2 SWAP1 DUP2 LT ISZERO PUSH2 0x291A JUMPI PUSH1 0x5 SHL ADD SWAP1 JUMP JUMPDEST PUSH0 NOT DUP2 EQ PUSH2 0x1087 JUMPI PUSH1 0x1 ADD SWAP1 JUMP JUMPDEST PUSH8 0xFFFFFFFFFFFFFFFF DUP2 GT PUSH2 0xABB JUMPI PUSH1 0x5 SHL PUSH1 0x20 ADD SWAP1 JUMP JUMPDEST PUSH1 0x3 DUP3 LT ISZERO PUSH2 0x81D JUMPI MSTORE JUMP JUMPDEST PUSH2 0x2BCD PUSH1 0xC SLOAD PUSH1 0xD SLOAD SWAP1 PUSH2 0x2B6F JUMP JUMPDEST DUP1 TIMESTAMP LT ISZERO PUSH2 0x2BE3 JUMPI PUSH2 0x2BE0 SWAP1 TIMESTAMP SWAP1 PUSH2 0x2ADE JUMP JUMPDEST SWAP1 JUMP JUMPDEST POP PUSH0 SWAP1 JUMP JUMPDEST SWAP1 PUSH1 0x10 SLOAD DUP2 LT ISZERO PUSH2 0x2C08 JUMPI PUSH2 0x2BE0 SWAP2 PUSH0 MSTORE PUSH1 0x12 PUSH1 0x20 MSTORE PUSH1 0x40 PUSH0 KECCAK256 SLOAD PUSH2 0x37F8 JUMP JUMPDEST POP POP PUSH0 SWAP1 JUMP JUMPDEST PUSH1 0x40 MLOAD SWAP1 PUSH2 0x2C1B DUP3 PUSH2 0x2B07 JUMP JUMPDEST PUSH0 PUSH2 0x220 DUP4 DUP3 DUP2 MSTORE DUP3 PUSH1 0x20 DUP3 ADD MSTORE DUP3 PUSH1 0x40 DUP3 ADD MSTORE DUP3 PUSH1 0x60 DUP3 ADD MSTORE DUP3 PUSH1 0x80 DUP3 ADD MSTORE DUP3 PUSH1 0xA0 DUP3 ADD MSTORE DUP3 PUSH1 0xC0 DUP3 ADD MSTORE DUP3 PUSH1 0xE0 DUP3 ADD MSTORE DUP3 PUSH2 0x100 DUP3 ADD MSTORE DUP3 PUSH2 0x120 DUP3 ADD MSTORE DUP3 PUSH2 0x140 DUP3 ADD MSTORE DUP3 PUSH2 0x160 DUP3 ADD MSTORE DUP3 PUSH2 0x180 DUP3 ADD MSTORE DUP3 PUSH2 0x1A0 DUP3 ADD MSTORE DUP3 PUSH2 0x1C0 DUP3 ADD MSTORE DUP3 PUSH2 0x1E0 DUP3 ADD MSTORE DUP3 PUSH2 0x200 DUP3 ADD MSTORE ADD MSTORE JUMP JUMPDEST SWAP1 PUSH1 0x40 MLOAD PUSH2 0x2C9D DUP2 PUSH2 0x2B07 JUMP JUMPDEST DUP1 SWAP3 DUP1 SLOAD DUP3 MSTORE PUSH1 0x1 DUP1 PUSH1 0xA0 SHL SUB PUSH1 0x1 DUP3 ADD SLOAD AND PUSH1 0x20 DUP4 ADD MSTORE PUSH1 0x1 DUP1 PUSH1 0xA0 SHL SUB PUSH1 0x2 DUP3 ADD SLOAD AND PUSH1 0x40 DUP4 ADD MSTORE PUSH1 0x3 DUP2 ADD SLOAD PUSH1 0x60 DUP4 ADD MSTORE PUSH1 0x4 DUP2 ADD SLOAD PUSH1 0x80 DUP4 ADD MSTORE PUSH1 0x5 DUP2 ADD SLOAD SWAP1 DUP2 PUSH1 0x1 SIGNEXTEND PUSH1 0xA0 DUP5 ADD MSTORE DUP2 PUSH1 0x10 SHR PUSH1 0x1 SIGNEXTEND PUSH1 0xC0 DUP5 ADD MSTORE PUSH1 0xFF DUP3 PUSH1 0x20 SHR AND PUSH1 0xE0 DUP5 ADD MSTORE PUSH1 0xFF DUP3 PUSH1 0x28 SHR AND PUSH2 0x100 DUP5 ADD MSTORE PUSH1 0xFF DUP3 PUSH1 0x30 SHR AND PUSH2 0x120 DUP5 ADD MSTORE PUSH1 0xFF DUP3 PUSH1 0x38 SHR AND ISZERO ISZERO PUSH2 0x140 DUP5 ADD MSTORE PUSH1 0xFF DUP3 PUSH1 0x40 SHR AND PUSH2 0x160 DUP5 ADD MSTORE PUSH1 0xFF DUP3 PUSH1 0x48 SHR AND PUSH2 0x180 DUP5 ADD MSTORE PUSH1 0xFF DUP3 PUSH1 0x50 SHR AND PUSH1 0x4 DUP2 LT ISZERO PUSH2 0x81D JUMPI PUSH2 0x1A0 DUP5 ADD MSTORE PUSH1 0xFF DUP3 PUSH1 0x58 SHR AND SWAP1 PUSH1 0x2 DUP3 LT ISZERO PUSH2 0x81D JUMPI PUSH2 0x220 SWAP3 PUSH1 0x7 SWAP3 PUSH2 0x1C0 DUP7 ADD MSTORE PUSH1 0x60 SHR PUSH2 0x1E0 DUP6 ADD MSTORE PUSH1 0x6 DUP2 ADD SLOAD PUSH2 0x200 DUP6 ADD MSTORE ADD SLOAD SWAP2 ADD MSTORE JUMP JUMPDEST DUP1 SLOAD PUSH1 0x1 PUSH1 0x40 SHL DUP2 LT ISZERO PUSH2 0xABB JUMPI PUSH2 0x2DB1 SWAP2 PUSH1 0x1 DUP3 ADD DUP2 SSTORE PUSH2 0x292E JUMP JUMPDEST SWAP2 SWAP1 SWAP2 PUSH2 0x2E75 JUMPI DUP1 MLOAD DUP3 SLOAD PUSH1 0x20 DUP4 ADD MLOAD PUSH2 0x100 PUSH1 0x1 PUSH1 0xA8 SHL SUB PUSH1 0x8 SWAP2 SWAP1 SWAP2 SHL AND PUSH1 0xFF SWAP1 SWAP3 AND PUSH1 0x1 PUSH1 0x1 PUSH1 0xA8 SHL SUB NOT DUP3 AND DUP2 OR DUP4 OR DUP6 SSTORE PUSH1 0x40 DUP5 ADD MLOAD SWAP3 SWAP4 SWAP3 SWAP2 SWAP1 PUSH1 0x3 DUP4 LT ISZERO PUSH2 0x81D JUMPI PUSH1 0x60 DUP5 ADD MLOAD PUSH1 0x80 DUP6 ADD MLOAD PUSH1 0xA0 SWAP1 SWAP6 ADD MLOAD PUSH1 0xD0 SHL PUSH2 0xFFFF PUSH1 0xD0 SHL AND PUSH1 0xC0 SWAP6 SWAP1 SWAP6 SHL PUSH2 0xFFFF PUSH1 0xC0 SHL AND PUSH2 0xFFFF PUSH1 0xB0 SHL PUSH1 0xB0 SWAP3 SWAP1 SWAP3 SHL SWAP2 SWAP1 SWAP2 AND PUSH1 0xFF PUSH1 0xA8 SHL PUSH1 0xA8 SWAP6 SWAP1 SWAP6 SHL SWAP5 SWAP1 SWAP5 AND PUSH1 0x1 PUSH1 0x1 PUSH1 0xC0 SHL SUB NOT SWAP4 SWAP1 SWAP4 AND PUSH2 0xFFFF PUSH1 0xB0 SHL NOT SWAP3 SWAP1 SWAP3 AND SWAP2 SWAP1 SWAP2 OR SWAP5 SWAP1 SWAP5 OR PUSH4 0xFFFFFFFF PUSH1 0xC0 SHL NOT AND OR OR SWAP2 SWAP1 SWAP2 OR OR SWAP1 SSTORE JUMP JUMPDEST PUSH4 0x4E487B71 PUSH1 0xE0 SHL PUSH0 MSTORE PUSH0 PUSH1 0x4 MSTORE PUSH1 0x24 PUSH0 REVERT JUMPDEST SWAP2 PUSH1 0x40 SWAP2 SWAP5 SWAP4 PUSH2 0x2EA9 PUSH2 0xFFFF SWAP3 PUSH1 0xFF PUSH1 0x60 DUP8 ADD SWAP9 AND DUP7 MSTORE PUSH1 0x20 DUP7 ADD SWAP1 PUSH2 0x28F5 JUMP JUMPDEST AND SWAP2 ADD MSTORE JUMP JUMPDEST PUSH1 0xFF AND PUSH1 0xFF DUP2 EQ PUSH2 0x1087 JUMPI PUSH1 0x1 ADD SWAP1 JUMP JUMPDEST DUP1 PUSH0 MSTORE PUSH1 0x2 PUSH1 0x20 MSTORE PUSH1 0x40 PUSH0 KECCAK256 SWAP1 PUSH1 0x5 DUP3 ADD SWAP3 DUP4 SLOAD SWAP1 PUSH1 0xFF DUP3 PUSH1 0x50 SHR AND PUSH1 0x4 DUP2 LT ISZERO PUSH2 0x81D JUMPI PUSH1 0x1 DUP2 SUB PUSH2 0x2856 JUMPI PUSH1 0x2 EQ PUSH2 0x3641 JUMPI PUSH1 0x1 DUP5 ADD SLOAD PUSH1 0x2 DUP6 ADD SLOAD CALLER PUSH1 0x1 PUSH1 0x1 PUSH1 0xA0 SHL SUB SWAP3 DUP4 AND DUP2 EQ SWAP5 SWAP3 SWAP1 SWAP2 AND EQ SWAP1 DUP4 ISZERO DUP1 PUSH2 0x3639 JUMPI JUMPDEST PUSH2 0x1E6D JUMPI PUSH1 0xFF DUP2 PUSH1 0x58 SHR AND PUSH1 0x2 DUP2 LT ISZERO PUSH2 0x81D JUMPI ISZERO PUSH2 0x35F1 JUMPI JUMPDEST POP POP PUSH1 0x3 DUP2 LT ISZERO PUSH2 0x81D JUMPI DUP1 PUSH2 0x34B5 JUMPI PUSH2 0x2F4F DUP3 DUP6 PUSH2 0x43A6 JUMP JUMPDEST DUP3 ISZERO PUSH2 0x348C JUMPI PUSH2 0x2F8B PUSH2 0x2F70 PUSH2 0xFFFF DUP4 AND PUSH1 0x1 SIGNEXTEND DUP9 SLOAD PUSH1 0x10 SHR PUSH1 0x1 SIGNEXTEND PUSH2 0x3896 JUMP JUMPDEST DUP8 SWAP1 DUP2 SLOAD SWAP1 PUSH1 0x10 SHL PUSH4 0xFFFF0000 AND SWAP1 PUSH4 0xFFFF0000 NOT AND OR SWAP1 SSTORE JUMP JUMPDEST DUP4 PUSH0 MSTORE PUSH1 0x3 PUSH1 0x20 MSTORE PUSH2 0x2FE9 PUSH1 0x40 PUSH0 KECCAK256 DUP8 SLOAD SWAP1 PUSH1 0x40 MLOAD SWAP2 PUSH2 0x2FAA DUP4 PUSH2 0x2AEB JUMP JUMPDEST PUSH1 0xFF DUP2 PUSH1 0x20 SHR AND DUP4 MSTORE CALLER PUSH1 0x20 DUP5 ADD MSTORE PUSH2 0x2FC6 DUP7 PUSH1 0x40 DUP6 ADD PUSH2 0x2BB2 JUMP JUMPDEST PUSH2 0xFFFF DUP6 AND PUSH1 0x60 DUP5 ADD MSTORE DUP1 PUSH1 0x1 SIGNEXTEND PUSH1 0x80 DUP5 ADD MSTORE PUSH1 0x10 SHR PUSH1 0x1 SIGNEXTEND PUSH1 0xA0 DUP4 ADD MSTORE PUSH2 0x2D94 JUMP JUMPDEST DUP6 SLOAD SWAP2 DUP5 PUSH32 0x4098E393A0E9D111279B0D880BB9EDE47CC0304A549B3E044A2F8EACE73A167F PUSH2 0x3028 PUSH1 0xFF DUP7 PUSH1 0x20 SHR AND SWAP5 PUSH1 0x40 MLOAD SWAP2 DUP3 SWAP2 CALLER SWAP7 DUP9 DUP5 PUSH2 0x2E88 JUMP JUMPDEST SUB SWAP1 LOG3 PUSH0 DUP3 PUSH1 0x1 SIGNEXTEND SGT SWAP2 DUP3 ISZERO SWAP3 PUSH2 0x3479 JUMPI JUMPDEST POP DUP2 ISZERO PUSH2 0x346D JUMPI JUMPDEST POP PUSH2 0x3461 JUMPI DUP4 SLOAD SWAP1 PUSH1 0xFF DUP3 PUSH1 0x58 SHR AND PUSH1 0x2 DUP2 LT ISZERO PUSH2 0x81D JUMPI PUSH1 0x1 EQ SWAP1 DUP2 PUSH2 0x3459 JUMPI JUMPDEST POP PUSH2 0x30FC JUMPI JUMPDEST POP POP POP DUP1 SLOAD PUSH1 0xFF DUP2 PUSH1 0x58 SHR AND PUSH1 0x2 DUP2 LT ISZERO PUSH2 0x81D JUMPI PUSH2 0x30E9 JUMPI POP DUP1 SLOAD PUSH8 0xFF00000000000000 NOT DUP2 AND PUSH1 0x38 SWAP2 DUP3 SHR PUSH1 0xFF AND ISZERO SWAP1 SWAP2 SHL PUSH1 0xFF PUSH1 0x38 SHL AND OR DUP2 SSTORE DUP1 SLOAD SWAP1 PUSH1 0xFF DUP3 PUSH1 0x38 SHR AND PUSH2 0x30BA JUMPI JUMPDEST POP POP JUMP JUMPDEST PUSH2 0x30CC PUSH1 0xFF PUSH2 0x30E7 SWAP4 PUSH1 0x20 SHR AND PUSH2 0x2EAF JUMP JUMPDEST PUSH5 0xFF00000000 DUP3 SLOAD SWAP2 PUSH1 0x20 SHL AND SWAP1 PUSH5 0xFF00000000 NOT AND OR SWAP1 SSTORE JUMP JUMPDEST JUMP JUMPDEST SWAP1 PUSH2 0x30CC PUSH1 0xFF PUSH2 0x30E7 SWAP4 PUSH1 0x20 SHR AND PUSH2 0x2EAF JUMP JUMPDEST DUP3 SLOAD PUSH1 0x40 MLOAD PUSH1 0x20 DUP2 ADD SWAP2 DUP3 MSTORE PUSH1 0xFF PUSH1 0xF8 SHL DUP4 PUSH1 0xD8 SHL AND PUSH1 0x40 DUP3 ADD MSTORE TIMESTAMP PUSH1 0x41 DUP3 ADD MSTORE PUSH11 0x30B4AFB232B1B4B9B4B7B7 PUSH1 0xA9 SHL PUSH1 0x61 DUP3 ADD MSTORE PUSH1 0x4C DUP2 MSTORE PUSH2 0x3140 PUSH1 0x6C DUP3 PUSH2 0x2B40 JUMP JUMPDEST MLOAD SWAP1 KECCAK256 SWAP1 PUSH1 0xFF DUP2 PUSH1 0x30 SHR AND SWAP2 DUP3 ISZERO SWAP3 DUP4 ISZERO PUSH2 0x3437 JUMPI JUMPDEST POP PUSH1 0x64 SWAP1 MOD SWAP1 PUSH1 0x10 SHR PUSH1 0x1 SIGNEXTEND PUSH1 0x3 DUP2 SDIV PUSH1 0x1 SIGNEXTEND SGT DUP1 PUSH2 0x342D JUMPI JUMPDEST ISZERO PUSH2 0x3409 JUMPI POP POP PUSH1 0x2 JUMPDEST PUSH0 PUSH1 0x3 DUP3 LT ISZERO PUSH2 0x81D JUMPI DUP2 PUSH2 0x32E4 JUMPI PUSH2 0x3193 DUP2 DUP6 PUSH2 0x43A6 JUMP JUMPDEST SWAP1 ISZERO PUSH2 0x32BB JUMPI PUSH2 0x31CF PUSH2 0x31B4 PUSH2 0xFFFF DUP4 AND PUSH1 0x1 SIGNEXTEND DUP8 SLOAD PUSH1 0x10 SHR PUSH1 0x1 SIGNEXTEND PUSH2 0x3896 JUMP JUMPDEST DUP7 SWAP1 DUP2 SLOAD SWAP1 PUSH1 0x10 SHL PUSH4 0xFFFF0000 AND SWAP1 PUSH4 0xFFFF0000 NOT AND OR SWAP1 SSTORE JUMP JUMPDEST SWAP1 DUP3 PUSH0 MSTORE PUSH1 0x3 PUSH1 0x20 MSTORE PUSH2 0x322E PUSH1 0x40 PUSH0 KECCAK256 DUP7 SLOAD SWAP1 PUSH1 0x40 MLOAD SWAP2 PUSH2 0x31EF DUP4 PUSH2 0x2AEB JUMP JUMPDEST PUSH1 0xFF DUP2 PUSH1 0x20 SHR AND DUP4 MSTORE ADDRESS PUSH1 0x20 DUP5 ADD MSTORE PUSH2 0x320B DUP6 PUSH1 0x40 DUP6 ADD PUSH2 0x2BB2 JUMP JUMPDEST PUSH2 0xFFFF DUP7 AND PUSH1 0x60 DUP5 ADD MSTORE DUP1 PUSH1 0x1 SIGNEXTEND PUSH1 0x80 DUP5 ADD MSTORE PUSH1 0x10 SHR PUSH1 0x1 SIGNEXTEND PUSH1 0xA0 DUP4 ADD MSTORE PUSH2 0x2D94 JUMP JUMPDEST DUP5 SLOAD SWAP3 PUSH32 0x4098E393A0E9D111279B0D880BB9EDE47CC0304A549B3E044A2F8EACE73A167F PUSH2 0x326C PUSH1 0xFF DUP7 PUSH1 0x20 SHR AND SWAP5 PUSH1 0x40 MLOAD SWAP2 DUP3 SWAP2 ADDRESS SWAP7 DUP9 DUP5 PUSH2 0x2E88 JUMP JUMPDEST SUB SWAP1 LOG3 PUSH0 DUP3 PUSH1 0x1 SIGNEXTEND SGT SWAP2 DUP3 ISZERO SWAP3 PUSH2 0x32A8 JUMPI JUMPDEST POP DUP2 ISZERO PUSH2 0x329C JUMPI JUMPDEST POP PUSH2 0x3292 JUMPI DUP1 DUP1 PUSH2 0x306A JUMP JUMPDEST PUSH2 0x30E7 SWAP2 POP PUSH2 0x38C8 JUMP JUMPDEST PUSH1 0x1E SWAP2 POP LT ISZERO PUSH0 PUSH2 0x3286 JUMP JUMPDEST PUSH0 SWAP2 SWAP3 POP PUSH1 0x10 SHR PUSH1 0x1 SIGNEXTEND SGT ISZERO SWAP1 PUSH0 PUSH2 0x327E JUMP JUMPDEST PUSH2 0x32D0 PUSH2 0xFFFF DUP3 AND PUSH1 0x1 SIGNEXTEND DUP7 SLOAD PUSH1 0x1 SIGNEXTEND PUSH2 0x3896 JUMP JUMPDEST PUSH2 0xFFFF NOT DUP7 SLOAD AND SWAP1 PUSH2 0xFFFF AND OR DUP6 SSTORE PUSH2 0x31CF JUMP JUMPDEST PUSH1 0x1 DUP3 SUB PUSH2 0x33DA JUMPI DUP1 ISZERO PUSH2 0x33CD JUMPI PUSH1 0xFF DUP6 SLOAD PUSH1 0x28 SHR AND JUMPDEST PUSH1 0xFF DUP2 AND ISZERO ISZERO SWAP1 DUP2 PUSH2 0x33AF JUMPI JUMPDEST POP PUSH2 0x33A0 JUMPI PUSH2 0x3317 DUP2 DUP6 PUSH2 0x3E09 JUMP JUMPDEST SWAP1 ISZERO PUSH2 0x3358 JUMPI PUSH2 0x3338 PUSH2 0x31B4 PUSH2 0xFFFF DUP4 AND PUSH1 0x1 SIGNEXTEND DUP8 SLOAD PUSH1 0x10 SHR PUSH1 0x1 SIGNEXTEND PUSH2 0x3896 JUMP JUMPDEST DUP5 SLOAD PUSH6 0xFF0000000000 NOT DUP2 AND PUSH1 0x8 SWAP2 SWAP1 SWAP2 SHL PUSH1 0xFF PUSH1 0x28 SHL AND OR DUP6 SSTORE PUSH2 0x31CF JUMP JUMPDEST PUSH2 0x336D PUSH2 0xFFFF DUP3 AND PUSH1 0x1 SIGNEXTEND DUP7 SLOAD PUSH1 0x1 SIGNEXTEND PUSH2 0x3896 JUMP JUMPDEST DUP6 SLOAD PUSH1 0xFF PUSH1 0x30 SHL PUSH2 0xFFFF NOT DUP3 AND PUSH2 0xFFFF SWAP4 SWAP1 SWAP4 AND SWAP3 DUP4 OR PUSH1 0x10 SHL AND PUSH7 0xFF00000000FFFF NOT SWAP1 SWAP2 AND SWAP2 SWAP1 SWAP2 OR OR DUP6 SSTORE PUSH2 0x31CF JUMP JUMPDEST PUSH4 0x1BFA8CDD PUSH1 0xE2 SHL DUP2 MSTORE PUSH1 0x4 SWAP1 REVERT JUMPDEST PUSH1 0x3 SWAP2 POP PUSH2 0x33C5 PUSH1 0xFF SWAP2 DUP3 DUP10 SLOAD PUSH1 0x20 SHR AND PUSH2 0x372B JUMP JUMPDEST AND LT PUSH0 PUSH2 0x3308 JUMP JUMPDEST PUSH1 0xFF DUP6 SLOAD PUSH1 0x30 SHR AND PUSH2 0x32FB JUMP JUMPDEST POP PUSH1 0x2 DUP2 SUB PUSH2 0x33FA JUMPI DUP4 SLOAD PUSH1 0xFF PUSH1 0x48 SHL NOT AND PUSH1 0x1 PUSH1 0x49 SHL OR DUP5 SSTORE PUSH0 PUSH2 0x31CF JUMP JUMPDEST PUSH4 0x21E08B4D PUSH1 0xE2 SHL PUSH0 MSTORE PUSH1 0x4 PUSH0 REVERT JUMPDEST DUP2 PUSH2 0x3422 JUMPI JUMPDEST POP ISZERO PUSH2 0x341C JUMPI PUSH1 0x1 PUSH2 0x317A JUMP JUMPDEST PUSH0 PUSH2 0x317A JUMP JUMPDEST PUSH1 0x28 SWAP2 POP LT PUSH0 PUSH2 0x340F JUMP JUMPDEST POP PUSH1 0x1E DUP2 LT PUSH2 0x3170 JUMP JUMPDEST PUSH1 0x64 SWAP2 SWAP4 POP PUSH1 0xFF PUSH2 0x344F PUSH1 0x3 SWAP3 DUP3 DUP7 PUSH1 0x20 SHR AND PUSH2 0x372B JUMP JUMPDEST AND LT ISZERO SWAP3 SWAP1 PUSH2 0x3156 JUMP JUMPDEST SWAP1 POP PUSH0 PUSH2 0x3064 JUMP JUMPDEST POP POP PUSH2 0x30E7 SWAP2 POP PUSH2 0x38C8 JUMP JUMPDEST PUSH1 0x1E SWAP2 POP LT ISZERO PUSH0 PUSH2 0x3042 JUMP JUMPDEST PUSH0 SWAP2 SWAP3 POP PUSH1 0x10 SHR PUSH1 0x1 SIGNEXTEND SGT ISZERO SWAP1 PUSH0 PUSH2 0x303A JUMP JUMPDEST PUSH2 0x34A1 PUSH2 0xFFFF DUP3 AND PUSH1 0x1 SIGNEXTEND DUP8 SLOAD PUSH1 0x1 SIGNEXTEND PUSH2 0x3896 JUMP JUMPDEST PUSH2 0xFFFF NOT DUP8 SLOAD AND SWAP1 PUSH2 0xFFFF AND OR DUP7 SSTORE PUSH2 0x2F8B JUMP JUMPDEST PUSH1 0x1 DUP2 SUB PUSH2 0x35AB JUMPI DUP2 ISZERO PUSH2 0x359E JUMPI PUSH1 0xFF DUP6 SLOAD PUSH1 0x28 SHR AND JUMPDEST PUSH1 0xFF DUP2 AND ISZERO ISZERO SWAP1 DUP2 PUSH2 0x3580 JUMPI JUMPDEST POP PUSH2 0x3571 JUMPI PUSH2 0x34E8 DUP3 DUP6 PUSH2 0x3E09 JUMP JUMPDEST DUP3 ISZERO PUSH2 0x3529 JUMPI PUSH2 0x3509 PUSH2 0x2F70 PUSH2 0xFFFF DUP4 AND PUSH1 0x1 SIGNEXTEND DUP9 SLOAD PUSH1 0x10 SHR PUSH1 0x1 SIGNEXTEND PUSH2 0x3896 JUMP JUMPDEST DUP6 SLOAD PUSH6 0xFF0000000000 NOT DUP2 AND PUSH1 0x8 SWAP2 SWAP1 SWAP2 SHL PUSH1 0xFF PUSH1 0x28 SHL AND OR DUP7 SSTORE PUSH2 0x2F8B JUMP JUMPDEST PUSH2 0x353E PUSH2 0xFFFF DUP3 AND PUSH1 0x1 SIGNEXTEND DUP8 SLOAD PUSH1 0x1 SIGNEXTEND PUSH2 0x3896 JUMP JUMPDEST DUP7 SLOAD PUSH1 0xFF PUSH1 0x30 SHL PUSH2 0xFFFF NOT DUP3 AND PUSH2 0xFFFF SWAP4 SWAP1 SWAP4 AND SWAP3 DUP4 OR PUSH1 0x10 SHL AND PUSH7 0xFF00000000FFFF NOT SWAP1 SWAP2 AND SWAP2 SWAP1 SWAP2 OR OR DUP7 SSTORE PUSH2 0x2F8B JUMP JUMPDEST PUSH4 0x1BFA8CDD PUSH1 0xE2 SHL PUSH0 MSTORE PUSH1 0x4 PUSH0 REVERT JUMPDEST PUSH1 0x3 SWAP2 POP PUSH2 0x3596 PUSH1 0xFF SWAP2 DUP3 DUP10 SLOAD PUSH1 0x20 SHR AND PUSH2 0x372B JUMP JUMPDEST AND LT PUSH0 PUSH2 0x34D9 JUMP JUMPDEST PUSH1 0xFF DUP6 SLOAD PUSH1 0x30 SHR AND PUSH2 0x34CC JUMP JUMPDEST PUSH1 0x2 DUP2 SUB PUSH2 0x33FA JUMPI DUP2 ISZERO PUSH2 0x35DB JUMPI DUP5 SLOAD PUSH9 0xFF0000000000000000 NOT AND PUSH9 0x20000000000000000 OR DUP6 SSTORE JUMPDEST PUSH0 PUSH2 0x2F8B JUMP JUMPDEST DUP5 SLOAD PUSH1 0xFF PUSH1 0x48 SHL NOT AND PUSH1 0x1 PUSH1 0x49 SHL OR DUP6 SSTORE PUSH2 0x35D5 JUMP JUMPDEST DUP4 DUP1 PUSH2 0x362B JUMPI JUMPDEST PUSH2 0x360E JUMPI DUP2 PUSH2 0x361D JUMPI JUMPDEST POP PUSH2 0x360E JUMPI PUSH0 DUP1 PUSH2 0x2F35 JUMP JUMPDEST PUSH4 0x1CC191EB PUSH1 0xE3 SHL PUSH0 MSTORE PUSH1 0x4 PUSH0 REVERT JUMPDEST PUSH1 0xFF SWAP2 POP PUSH1 0x38 SHR AND PUSH0 PUSH2 0x3602 JUMP JUMPDEST POP PUSH1 0xFF DUP2 PUSH1 0x38 SHR AND ISZERO PUSH2 0x35F8 JUMP JUMPDEST POP DUP2 ISZERO PUSH2 0x2F1B JUMP JUMPDEST PUSH4 0x6E18399 PUSH1 0xE1 SHL PUSH0 MSTORE PUSH1 0x4 PUSH0 REVERT JUMPDEST DUP1 MLOAD DUP3 LT ISZERO PUSH2 0x291A JUMPI PUSH1 0x20 SWAP2 PUSH1 0x5 SHL ADD ADD SWAP1 JUMP JUMPDEST MLOAD SWAP1 PUSH2 0xFFFF DUP3 AND DUP3 SUB PUSH2 0x2B9 JUMPI JUMP JUMPDEST MLOAD SWAP1 PUSH1 0xFF DUP3 AND DUP3 SUB PUSH2 0x2B9 JUMPI JUMP JUMPDEST SWAP1 DUP2 PUSH2 0x100 SWAP2 SUB SLT PUSH2 0x2B9 JUMPI PUSH1 0x40 MLOAD SWAP1 PUSH2 0x100 DUP3 ADD DUP3 DUP2 LT PUSH8 0xFFFFFFFFFFFFFFFF DUP3 GT OR PUSH2 0xABB JUMPI PUSH2 0x3723 SWAP2 PUSH1 0xE0 SWAP2 PUSH1 0x40 MSTORE PUSH2 0x36BC DUP2 PUSH2 0x3664 JUMP JUMPDEST DUP5 MSTORE PUSH2 0x36CA PUSH1 0x20 DUP3 ADD PUSH2 0x3664 JUMP JUMPDEST PUSH1 0x20 DUP6 ADD MSTORE PUSH2 0x36DB PUSH1 0x40 DUP3 ADD PUSH2 0x3664 JUMP JUMPDEST PUSH1 0x40 DUP6 ADD MSTORE PUSH2 0x36EC PUSH1 0x60 DUP3 ADD PUSH2 0x3664 JUMP JUMPDEST PUSH1 0x60 DUP6 ADD MSTORE PUSH2 0x36FD PUSH1 0x80 DUP3 ADD PUSH2 0x3673 JUMP JUMPDEST PUSH1 0x80 DUP6 ADD MSTORE PUSH2 0x370E PUSH1 0xA0 DUP3 ADD PUSH2 0x3673 JUMP JUMPDEST PUSH1 0xA0 DUP6 ADD MSTORE PUSH1 0xC0 DUP2 ADD MLOAD PUSH1 0xC0 DUP6 ADD MSTORE ADD PUSH2 0x2B62 JUMP JUMPDEST PUSH1 0xE0 DUP3 ADD MSTORE SWAP1 JUMP JUMPDEST SWAP1 PUSH1 0xFF DUP1 SWAP2 AND SWAP2 AND SUB SWAP1 PUSH1 0xFF DUP3 GT PUSH2 0x1087 JUMPI JUMP JUMPDEST PUSH0 MSTORE PUSH1 0x2 PUSH1 0x20 MSTORE PUSH2 0x3752 PUSH1 0x40 PUSH0 KECCAK256 PUSH2 0x2C90 JUMP JUMPDEST SWAP1 ISZERO PUSH2 0x378C JUMPI PUSH1 0xFF PUSH2 0x100 DUP3 ADD MLOAD AND JUMPDEST PUSH1 0xFF DUP2 AND ISZERO PUSH2 0x3785 JUMPI PUSH2 0x377F PUSH1 0xFF SWAP2 DUP3 PUSH1 0xE0 PUSH1 0x3 SWAP6 ADD MLOAD AND PUSH2 0x372B JUMP JUMPDEST AND LT ISZERO SWAP1 JUMP JUMPDEST POP POP PUSH1 0x1 SWAP1 JUMP JUMPDEST PUSH1 0xFF PUSH2 0x120 DUP3 ADD MLOAD AND PUSH2 0x3762 JUMP JUMPDEST PUSH1 0x2 PUSH0 MLOAD PUSH1 0x20 PUSH2 0x4981 PUSH0 CODECOPY PUSH0 MLOAD SWAP1 PUSH0 MSTORE SLOAD EQ PUSH2 0x37C3 JUMPI PUSH1 0x2 PUSH0 MLOAD PUSH1 0x20 PUSH2 0x4981 PUSH0 CODECOPY PUSH0 MLOAD SWAP1 PUSH0 MSTORE SSTORE JUMP JUMPDEST PUSH4 0x3EE5AEB5 PUSH1 0xE0 SHL PUSH0 MSTORE PUSH1 0x4 PUSH0 REVERT JUMPDEST PUSH0 SLOAD PUSH1 0x1 PUSH1 0x1 PUSH1 0xA0 SHL SUB AND CALLER SUB PUSH2 0x37E5 JUMPI JUMP JUMPDEST PUSH4 0x118CDAA7 PUSH1 0xE0 SHL PUSH0 MSTORE CALLER PUSH1 0x4 MSTORE PUSH1 0x24 PUSH0 REVERT JUMPDEST SWAP1 PUSH1 0xF SLOAD DUP1 DUP3 LT PUSH0 EQ PUSH2 0x3827 JUMPI POP PUSH2 0x2710 SWAP2 PUSH2 0x3816 PUSH2 0x3823 SWAP3 PUSH2 0x2902 JUMP JUMPDEST SWAP1 SLOAD SWAP1 PUSH1 0x3 SHL SHR SWAP1 PUSH2 0x2AAD JUMP JUMPDEST DIV SWAP1 JUMP JUMPDEST SWAP1 POP PUSH0 PUSH0 JUMPDEST DUP3 DUP2 LT PUSH2 0x3872 JUMPI POP PUSH2 0x2710 SUB SWAP1 PUSH2 0x2710 DUP3 GT PUSH2 0x1087 JUMPI PUSH2 0x384E SWAP1 PUSH1 0x10 SLOAD PUSH2 0x2ADE JUMP JUMPDEST SWAP1 DUP2 ISZERO PUSH2 0x386B JUMPI PUSH2 0x3865 PUSH2 0x2710 SWAP2 PUSH2 0x2BE0 SWAP5 PUSH2 0x2AAD JUMP JUMPDEST DIV PUSH2 0x2AC0 JUMP JUMPDEST POP POP POP PUSH0 SWAP1 JUMP JUMPDEST SWAP1 PUSH2 0x388F PUSH1 0x1 SWAP2 PUSH2 0x3882 DUP5 PUSH2 0x2902 JUMP JUMPDEST SWAP1 SLOAD SWAP1 PUSH1 0x3 SHL SHR SWAP1 PUSH2 0x2B6F JUMP JUMPDEST SWAP2 ADD PUSH2 0x382C JUMP JUMPDEST PUSH1 0x1 SWAP2 DUP3 SIGNEXTEND SWAP2 SIGNEXTEND SUB SWAP1 PUSH2 0x7FFF NOT DUP3 SLT PUSH2 0x7FFF DUP4 SGT OR PUSH2 0x1087 JUMPI JUMP JUMPDEST PUSH4 0xFFFFFFFF AND PUSH4 0xFFFFFFFF DUP2 EQ PUSH2 0x1087 JUMPI PUSH1 0x1 ADD SWAP1 JUMP JUMPDEST PUSH1 0x5 DUP2 ADD DUP1 SLOAD PUSH1 0xFF PUSH1 0x50 SHL NOT AND PUSH1 0x1 PUSH1 0x51 SHL OR DUP1 DUP3 SSTORE TIMESTAMP PUSH1 0x7 DUP5 ADD SSTORE SWAP1 SWAP2 SWAP1 PUSH1 0x1 DUP2 SWAP1 SIGNEXTEND SWAP1 PUSH0 DUP3 SGT ISZERO DUP1 PUSH2 0x3B06 JUMPI JUMPDEST ISZERO PUSH2 0x3A1F JUMPI POP POP PUSH1 0x1 PUSH1 0x1 PUSH1 0x60 SHL SUB DUP3 SLOAD AND DUP3 SSTORE PUSH1 0x1 DUP1 PUSH1 0xA0 SHL SUB PUSH1 0x1 DUP3 ADD SLOAD AND PUSH0 MSTORE PUSH1 0x4 PUSH1 0x20 MSTORE PUSH2 0x3958 PUSH1 0x40 PUSH0 KECCAK256 PUSH2 0x3939 PUSH4 0xFFFFFFFF DUP3 SLOAD PUSH1 0x40 SHR AND PUSH2 0x38B1 JUMP JUMPDEST PUSH4 0xFFFFFFFF PUSH1 0x40 SHL DUP3 SLOAD SWAP2 PUSH1 0x40 SHL AND SWAP1 PUSH4 0xFFFFFFFF PUSH1 0x40 SHL NOT AND OR SWAP1 SSTORE JUMP JUMPDEST PUSH1 0x2 DUP2 ADD SLOAD PUSH1 0x1 PUSH1 0x1 PUSH1 0xA0 SHL SUB AND ADDRESS DUP2 SUB PUSH2 0x39F8 JUMPI JUMPDEST POP JUMPDEST PUSH1 0x1 DUP2 ADD SLOAD PUSH1 0x1 PUSH1 0x1 PUSH1 0xA0 SHL SUB SWAP1 DUP2 AND PUSH0 SWAP1 DUP2 MSTORE PUSH1 0x5 PUSH1 0x20 MSTORE PUSH1 0x40 DUP2 KECCAK256 SSTORE PUSH1 0x2 DUP3 ADD SLOAD AND ADDRESS DUP2 SUB PUSH2 0x39E5 JUMPI JUMPDEST POP PUSH2 0x39A8 PUSH1 0x15 SLOAD PUSH2 0x2B8C JUMP JUMPDEST PUSH1 0x15 SSTORE SLOAD SWAP1 SLOAD SWAP1 PUSH32 0x6ECE8C7A0814E499368677ABB88C44F55F86F4BDB83665CB2BBEE15321AE78D8 PUSH1 0x20 PUSH1 0x40 MLOAD SWAP4 PUSH1 0xFF DUP2 DUP4 SHR AND DUP6 MSTORE PUSH1 0x60 SHR SWAP4 LOG3 JUMP JUMPDEST PUSH0 MSTORE PUSH1 0x5 PUSH1 0x20 MSTORE PUSH0 PUSH1 0x40 DUP2 KECCAK256 SSTORE PUSH0 PUSH2 0x399C JUMP JUMPDEST PUSH0 MSTORE PUSH1 0x4 PUSH1 0x20 MSTORE PUSH2 0x3A19 PUSH1 0x40 PUSH0 KECCAK256 PUSH2 0x3939 PUSH4 0xFFFFFFFF DUP3 SLOAD PUSH1 0x40 SHR AND PUSH2 0x38B1 JUMP JUMPDEST PUSH0 PUSH2 0x396E JUMP JUMPDEST PUSH1 0x10 SHR PUSH1 0x1 SIGNEXTEND PUSH0 DUP2 SGT SWAP2 DUP3 ISZERO SWAP3 PUSH2 0x3AFC JUMPI JUMPDEST POP POP ISZERO PUSH2 0x3A9A JUMPI PUSH1 0x1 DUP2 ADD DUP1 SLOAD DUP4 SLOAD PUSH1 0x1 PUSH1 0x1 PUSH1 0x60 SHL SUB AND PUSH1 0x60 SWAP2 SWAP1 SWAP2 SHL PUSH1 0x1 PUSH1 0x1 PUSH1 0x60 SHL SUB NOT AND OR DUP4 SSTORE PUSH2 0x3A6F SWAP1 SLOAD PUSH1 0x1 PUSH1 0x1 PUSH1 0xA0 SHL SUB AND PUSH2 0x4804 JUMP JUMPDEST PUSH1 0x2 DUP2 ADD SLOAD PUSH1 0x1 PUSH1 0x1 PUSH1 0xA0 SHL SUB AND ADDRESS DUP2 SUB PUSH2 0x3A8B JUMPI JUMPDEST POP PUSH2 0x3970 JUMP JUMPDEST PUSH2 0x3A94 SWAP1 PUSH2 0x491C JUMP JUMPDEST PUSH0 PUSH2 0x3A85 JUMP JUMPDEST PUSH1 0x2 DUP2 ADD DUP1 SLOAD DUP4 SLOAD PUSH1 0x1 PUSH1 0x1 PUSH1 0x60 SHL SUB AND PUSH1 0x60 SWAP2 SWAP1 SWAP2 SHL PUSH1 0x1 PUSH1 0x1 PUSH1 0x60 SHL SUB NOT AND OR DUP4 SSTORE SLOAD PUSH1 0x1 PUSH1 0x1 PUSH1 0xA0 SHL SUB AND ADDRESS DUP2 SUB PUSH2 0x3AED JUMPI JUMPDEST POP PUSH1 0x1 DUP2 ADD SLOAD PUSH2 0x3AE8 SWAP1 PUSH1 0x1 PUSH1 0x1 PUSH1 0xA0 SHL SUB AND PUSH2 0x491C JUMP JUMPDEST PUSH2 0x3970 JUMP JUMPDEST PUSH2 0x3AF6 SWAP1 PUSH2 0x4804 JUMP JUMPDEST PUSH0 PUSH2 0x3AD0 JUMP JUMPDEST SGT SWAP1 POP PUSH0 DUP1 PUSH2 0x3A31 JUMP JUMPDEST POP PUSH0 DUP2 PUSH1 0x10 SHR PUSH1 0x1 SIGNEXTEND SGT ISZERO PUSH2 0x38F7 JUMP JUMPDEST PUSH1 0x40 MLOAD PUSH4 0x31A9108F PUSH1 0xE1 SHL DUP2 MSTORE PUSH1 0x4 DUP2 ADD DUP4 SWAP1 MSTORE PUSH32 0x0 PUSH1 0x1 PUSH1 0x1 PUSH1 0xA0 SHL SUB AND SWAP3 SWAP2 PUSH1 0x20 DUP3 PUSH1 0x24 DUP2 DUP8 GAS STATICCALL SWAP2 DUP3 ISZERO PUSH2 0x40D JUMPI PUSH0 SWAP3 PUSH2 0x3BF5 JUMPI JUMPDEST POP PUSH1 0x1 PUSH1 0x1 PUSH1 0xA0 SHL SUB SWAP1 DUP2 AND SWAP2 AND SUB PUSH2 0x3BE6 JUMPI PUSH2 0x100 SWAP1 PUSH1 0x24 PUSH1 0x40 MLOAD DUP1 SWAP5 DUP2 SWAP4 PUSH4 0x6A24447F PUSH1 0xE1 SHL DUP4 MSTORE PUSH1 0x4 DUP4 ADD MSTORE GAS STATICCALL DUP1 ISZERO PUSH2 0x40D JUMPI PUSH1 0xE0 SWAP2 PUSH0 SWAP2 PUSH2 0x3BC7 JUMPI JUMPDEST POP ADD MLOAD ISZERO PUSH2 0x3BB8 JUMPI JUMP JUMPDEST PUSH4 0xCC71C29 PUSH1 0xE1 SHL PUSH0 MSTORE PUSH1 0x4 PUSH0 REVERT JUMPDEST PUSH2 0x3BE0 SWAP2 POP PUSH2 0x100 RETURNDATASIZE DUP2 GT PUSH2 0x7C3 JUMPI PUSH2 0x7B5 DUP2 DUP4 PUSH2 0x2B40 JUMP JUMPDEST PUSH0 PUSH2 0x3BAE JUMP JUMPDEST PUSH4 0x8F0F029B PUSH1 0xE0 SHL PUSH0 MSTORE PUSH1 0x4 PUSH0 REVERT JUMPDEST SWAP1 SWAP2 POP PUSH1 0x20 DUP2 RETURNDATASIZE PUSH1 0x20 GT PUSH2 0x3C31 JUMPI JUMPDEST DUP2 PUSH2 0x3C11 PUSH1 0x20 SWAP4 DUP4 PUSH2 0x2B40 JUMP JUMPDEST DUP2 ADD SUB SLT PUSH2 0x2B9 JUMPI MLOAD PUSH1 0x1 PUSH1 0x1 PUSH1 0xA0 SHL SUB DUP2 AND DUP2 SUB PUSH2 0x2B9 JUMPI SWAP1 PUSH0 PUSH2 0x3B6D JUMP JUMPDEST RETURNDATASIZE SWAP2 POP PUSH2 0x3C04 JUMP JUMPDEST PUSH1 0x7 SLOAD DUP1 ISZERO PUSH2 0x30B6 JUMPI PUSH1 0x40 MLOAD PUSH4 0x6EB1769F PUSH1 0xE1 SHL DUP2 MSTORE PUSH1 0x1 PUSH1 0x1 PUSH1 0xA0 SHL SUB SWAP3 DUP4 AND PUSH1 0x4 DUP3 ADD DUP2 SWAP1 MSTORE ADDRESS PUSH1 0x24 DUP4 ADD MSTORE SWAP3 PUSH32 0x0 AND SWAP2 SWAP1 PUSH1 0x20 DUP2 PUSH1 0x44 DUP2 DUP7 GAS STATICCALL DUP1 ISZERO PUSH2 0x40D JUMPI DUP3 SWAP2 PUSH0 SWAP2 PUSH2 0x3DC5 JUMPI JUMPDEST POP LT PUSH2 0x3DB6 JUMPI PUSH0 PUSH1 0x20 PUSH2 0x2710 PUSH2 0x3CBC PUSH1 0x8 SLOAD DUP6 PUSH2 0x2AAD JUMP JUMPDEST DIV SWAP4 PUSH1 0x64 PUSH2 0x3CCA DUP7 DUP7 PUSH2 0x2ADE JUMP JUMPDEST SWAP5 PUSH1 0x40 MLOAD SWAP5 DUP6 SWAP4 DUP5 SWAP3 PUSH4 0x23B872DD PUSH1 0xE0 SHL DUP5 MSTORE DUP11 PUSH1 0x4 DUP6 ADD MSTORE ADDRESS PUSH1 0x24 DUP6 ADD MSTORE PUSH1 0x44 DUP5 ADD MSTORE GAS CALL DUP1 ISZERO PUSH2 0x40D JUMPI PUSH2 0x3D56 JUMPI JUMPDEST POP DUP1 PUSH32 0x662B8686F5A56F0ACF339ED89DC0000EC2E51D0960E10EF41643917B6608090 SWAP3 PUSH2 0x3D2D PUSH1 0x60 SWAP4 PUSH1 0x9 SLOAD PUSH2 0x2B6F JUMP JUMPDEST PUSH1 0x9 SSTORE PUSH2 0x3D3C DUP2 PUSH1 0xA SLOAD PUSH2 0x2B6F JUMP JUMPDEST PUSH1 0xA SSTORE PUSH1 0x7 SLOAD SWAP2 PUSH1 0x40 MLOAD SWAP3 DUP4 MSTORE PUSH1 0x20 DUP4 ADD MSTORE PUSH1 0x40 DUP3 ADD MSTORE LOG2 JUMP JUMPDEST SWAP1 PUSH1 0x20 DUP3 RETURNDATASIZE PUSH1 0x20 GT PUSH2 0x3DAE JUMPI JUMPDEST DUP2 PUSH2 0x3D70 PUSH1 0x20 SWAP4 DUP4 PUSH2 0x2B40 JUMP JUMPDEST DUP2 ADD SUB SLT PUSH2 0x2B9 JUMPI PUSH32 0x662B8686F5A56F0ACF339ED89DC0000EC2E51D0960E10EF41643917B6608090 SWAP3 PUSH2 0x3DA5 PUSH1 0x60 SWAP4 PUSH2 0x2B62 JUMP JUMPDEST POP SWAP3 POP SWAP1 PUSH2 0x3CFB JUMP JUMPDEST RETURNDATASIZE SWAP2 POP PUSH2 0x3D63 JUMP JUMPDEST PUSH4 0x13BE252B PUSH1 0xE0 SHL PUSH0 MSTORE PUSH1 0x4 PUSH0 REVERT JUMPDEST SWAP2 POP POP PUSH1 0x20 DUP2 RETURNDATASIZE PUSH1 0x20 GT PUSH2 0x3DF2 JUMPI JUMPDEST DUP2 PUSH2 0x3DE1 PUSH1 0x20 SWAP4 DUP4 PUSH2 0x2B40 JUMP JUMPDEST DUP2 ADD SUB SLT PUSH2 0x2B9 JUMPI DUP2 SWAP1 MLOAD PUSH0 PUSH2 0x3CA4 JUMP JUMPDEST RETURNDATASIZE SWAP2 POP PUSH2 0x3DD4 JUMP JUMPDEST PUSH1 0xFF AND DUP1 ISZERO PUSH2 0x1087 JUMPI PUSH0 NOT ADD SWAP1 JUMP JUMPDEST SWAP1 DUP1 ISZERO PUSH2 0x422C JUMPI PUSH1 0x5 DUP3 ADD SLOAD PUSH1 0xFF DUP2 PUSH1 0x58 SHR AND PUSH1 0x2 DUP2 LT ISZERO PUSH2 0x81D JUMPI PUSH1 0x1 EQ DUP1 DUP1 PUSH2 0x4224 JUMPI JUMPDEST ISZERO PUSH2 0x40C6 JUMPI POP DUP3 SLOAD SWAP1 PUSH1 0x40 MLOAD SWAP1 PUSH1 0x20 DUP3 ADD SWAP3 DUP4 MSTORE PUSH1 0xFF PUSH1 0xF8 SHL SWAP1 PUSH1 0xD8 SHL AND PUSH1 0x40 DUP3 ADD MSTORE PUSH3 0x61746B PUSH1 0xE8 SHL PUSH1 0x41 DUP3 ADD MSTORE PUSH1 0x24 DUP2 MSTORE PUSH2 0x3E6D PUSH1 0x44 DUP3 PUSH2 0x2B40 JUMP JUMPDEST MLOAD SWAP1 KECCAK256 SWAP1 PUSH1 0x3C DUP3 MOD PUSH1 0x1E ADD DUP1 PUSH1 0x1E GT PUSH2 0x1087 JUMPI PUSH2 0xFFFF AND PUSH1 0xFF PUSH1 0x6 PUSH1 0x32 SWAP5 MOD AND SWAP3 PUSH1 0x3 DUP6 ADD SLOAD PUSH1 0x40 MLOAD SWAP1 PUSH4 0x6A24447F PUSH1 0xE1 SHL DUP3 MSTORE PUSH1 0x4 DUP3 ADD MSTORE PUSH2 0x100 DUP2 PUSH1 0x24 DUP2 PUSH1 0x1 DUP1 PUSH1 0xA0 SHL SUB PUSH32 0x0 AND GAS STATICCALL DUP1 ISZERO PUSH2 0x40D JUMPI PUSH1 0x80 PUSH1 0xFF SWAP2 PUSH2 0xFFFF SWAP4 PUSH0 SWAP2 PUSH2 0x40A7 JUMPI JUMPDEST POP ADD MLOAD AND SWAP3 JUMPDEST AND SWAP1 PUSH1 0x64 DUP3 MUL SWAP2 DUP1 DUP4 DIV PUSH1 0x64 EQ SWAP1 ISZERO OR ISZERO PUSH2 0x1087 JUMPI PUSH2 0xFFFF AND PUSH1 0x64 ADD DUP1 PUSH1 0x64 GT PUSH2 0x1087 JUMPI PUSH2 0x3F21 SWAP2 PUSH2 0x2AC0 JUMP JUMPDEST PUSH1 0xB4 DUP2 MUL SWAP1 DUP1 DUP3 DIV PUSH1 0xB4 EQ SWAP1 ISZERO OR ISZERO PUSH2 0x1087 JUMPI PUSH1 0x64 PUSH1 0xFF SWAP2 DIV SWAP4 AND PUSH0 MSTORE PUSH1 0x6 PUSH1 0x20 MSTORE PUSH1 0xFF DUP1 PUSH1 0x40 PUSH0 KECCAK256 SLOAD AND SWAP2 AND EQ PUSH2 0x4094 JUMPI JUMPDEST DUP1 DUP1 PUSH2 0x4081 JUMPI JUMPDEST ISZERO PUSH2 0x4015 JUMPI PUSH1 0x5 PUSH1 0x15 SWAP3 PUSH1 0x1 SHR SWAP4 PUSH2 0x3F98 DUP3 DUP3 ADD PUSH2 0x3F7F PUSH1 0xFF DUP3 SLOAD PUSH1 0x48 SHR AND PUSH2 0x3DFA JUMP JUMPDEST PUSH1 0xFF PUSH1 0x48 SHL DUP3 SLOAD SWAP2 PUSH1 0x48 SHL AND SWAP1 PUSH1 0xFF PUSH1 0x48 SHL NOT AND OR SWAP1 SSTORE JUMP JUMPDEST ADD SLOAD SWAP1 PUSH1 0x40 MLOAD SWAP1 PUSH1 0x20 DUP3 ADD SWAP3 TIMESTAMP DUP5 MSTORE PUSH1 0xFF PUSH1 0xF8 SHL SWAP1 PUSH1 0xD8 SHL AND PUSH1 0x40 DUP4 ADD MSTORE ISZERO ISZERO PUSH1 0xF8 SHL PUSH1 0x41 DUP3 ADD MSTORE PUSH1 0x22 DUP2 MSTORE PUSH2 0x3FCF PUSH1 0x42 DUP3 PUSH2 0x2B40 JUMP JUMPDEST MLOAD SWAP1 KECCAK256 MOD PUSH1 0x5A ADD SWAP1 DUP2 PUSH1 0x5A GT PUSH2 0x1087 JUMPI PUSH1 0x64 SWAP2 PUSH2 0x3FEB SWAP2 PUSH2 0x2AAD JUMP JUMPDEST DIV PUSH1 0x5 DUP2 LT PUSH2 0x400D JUMPI JUMPDEST PUSH2 0xFFFF DUP2 GT ISZERO PUSH2 0x4006 JUMPI POP PUSH2 0xFFFF SWAP1 JUMP JUMPDEST PUSH2 0xFFFF AND SWAP1 JUMP JUMPDEST POP PUSH1 0x5 PUSH2 0x3FF5 JUMP JUMPDEST DUP1 ISZERO DUP1 PUSH2 0x406E JUMPI JUMPDEST PUSH2 0x402D JUMPI JUMPDEST PUSH1 0x5 PUSH1 0x15 SWAP3 SWAP4 PUSH2 0x3F98 JUMP JUMPDEST PUSH1 0x5 PUSH1 0x15 SWAP3 PUSH1 0x1 SHR SWAP4 PUSH2 0x4065 DUP3 DUP3 ADD PUSH2 0x404C PUSH1 0xFF DUP3 SLOAD PUSH1 0x40 SHR AND PUSH2 0x3DFA JUMP JUMPDEST PUSH1 0xFF PUSH1 0x40 SHL DUP3 SLOAD SWAP2 PUSH1 0x40 SHL AND SWAP1 PUSH1 0xFF PUSH1 0x40 SHL NOT AND OR SWAP1 SSTORE JUMP JUMPDEST SWAP4 SWAP3 POP POP PUSH2 0x4022 JUMP JUMPDEST POP PUSH1 0xFF PUSH1 0x5 DUP5 ADD SLOAD PUSH1 0x40 SHR AND ISZERO ISZERO PUSH2 0x401D JUMP JUMPDEST POP PUSH1 0xFF PUSH1 0x5 DUP5 ADD SLOAD PUSH1 0x48 SHR AND ISZERO ISZERO PUSH2 0x3F5B JUMP JUMPDEST SWAP1 PUSH2 0x40A0 PUSH1 0x64 SWAP2 PUSH2 0x2A97 JUMP JUMPDEST DIV SWAP1 PUSH2 0x3F54 JUMP JUMPDEST PUSH2 0x40C0 SWAP2 POP PUSH2 0x100 RETURNDATASIZE DUP2 GT PUSH2 0x7C3 JUMPI PUSH2 0x7B5 DUP2 DUP4 PUSH2 0x2B40 JUMP JUMPDEST PUSH0 PUSH2 0x3EEE JUMP JUMPDEST PUSH1 0x3 DUP5 ADD SLOAD PUSH1 0x40 MLOAD PUSH4 0x6A24447F PUSH1 0xE1 SHL DUP2 MSTORE PUSH1 0x4 DUP2 ADD SWAP2 SWAP1 SWAP2 MSTORE SWAP1 SWAP3 SWAP2 PUSH32 0x0 PUSH1 0x1 PUSH1 0x1 PUSH1 0xA0 SHL SUB AND PUSH2 0x100 DUP4 PUSH1 0x24 DUP2 DUP5 GAS STATICCALL SWAP3 DUP4 ISZERO PUSH2 0x40D JUMPI PUSH0 SWAP4 PUSH2 0x4203 JUMPI JUMPDEST POP PUSH1 0xFF PUSH1 0x80 PUSH2 0xFFFF DUP6 MLOAD AND SWAP5 ADD MLOAD AND SWAP5 PUSH0 EQ PUSH2 0x4199 JUMPI POP DUP5 SLOAD SWAP1 PUSH1 0x40 MLOAD SWAP1 PUSH1 0x20 DUP3 ADD SWAP3 DUP4 MSTORE PUSH1 0xFF PUSH1 0xF8 SHL SWAP1 PUSH1 0xD8 SHL AND PUSH1 0x40 DUP3 ADD MSTORE PUSH3 0x3232B3 PUSH1 0xE9 SHL PUSH1 0x41 DUP3 ADD MSTORE PUSH1 0x24 DUP2 MSTORE PUSH2 0x4174 PUSH1 0x44 DUP3 PUSH2 0x2B40 JUMP JUMPDEST MLOAD SWAP1 KECCAK256 PUSH1 0x32 DUP2 MOD PUSH1 0x1E ADD DUP1 PUSH1 0x1E GT PUSH2 0x1087 JUMPI PUSH1 0xFF PUSH1 0x6 PUSH2 0xFFFF DUP1 SWAP4 AND SWAP4 MOD AND SWAP3 PUSH2 0x3EF4 JUMP JUMPDEST SWAP1 POP PUSH2 0x100 PUSH1 0x4 DUP7 ADD SLOAD PUSH1 0x24 PUSH1 0x40 MLOAD DUP1 SWAP5 DUP2 SWAP4 PUSH4 0x6A24447F PUSH1 0xE1 SHL DUP4 MSTORE PUSH1 0x4 DUP4 ADD MSTORE GAS STATICCALL SWAP1 DUP2 ISZERO PUSH2 0x40D JUMPI PUSH0 SWAP2 PUSH2 0x41E4 JUMPI JUMPDEST POP PUSH2 0xFFFF PUSH1 0xFF PUSH1 0x80 DUP3 PUSH1 0x20 DUP6 ADD MLOAD AND SWAP4 ADD MLOAD AND SWAP3 PUSH2 0x3EF4 JUMP JUMPDEST PUSH2 0x41FD SWAP2 POP PUSH2 0x100 RETURNDATASIZE DUP2 GT PUSH2 0x7C3 JUMPI PUSH2 0x7B5 DUP2 DUP4 PUSH2 0x2B40 JUMP JUMPDEST PUSH0 PUSH2 0x41CB JUMP JUMPDEST PUSH2 0x421D SWAP2 SWAP4 POP PUSH2 0x100 RETURNDATASIZE DUP2 GT PUSH2 0x7C3 JUMPI PUSH2 0x7B5 DUP2 DUP4 PUSH2 0x2B40 JUMP JUMPDEST SWAP2 PUSH0 PUSH2 0x4125 JUMP JUMPDEST POP DUP3 ISZERO PUSH2 0x3E2F JUMP JUMPDEST PUSH1 0x5 DUP3 ADD SLOAD PUSH1 0xFF DUP2 PUSH1 0x58 SHR AND PUSH1 0x2 DUP2 LT ISZERO PUSH2 0x81D JUMPI PUSH1 0x1 SUB PUSH2 0x4316 JUMPI DUP3 SLOAD SWAP1 PUSH1 0x40 MLOAD SWAP1 PUSH1 0x20 DUP3 ADD SWAP3 DUP4 MSTORE PUSH1 0xFF PUSH1 0xF8 SHL SWAP1 PUSH1 0xD8 SHL AND PUSH1 0x40 DUP3 ADD MSTORE PUSH5 0x616961746B PUSH1 0xD8 SHL PUSH1 0x41 DUP3 ADD MSTORE PUSH1 0x26 DUP2 MSTORE PUSH2 0x4282 PUSH1 0x46 DUP3 PUSH2 0x2B40 JUMP JUMPDEST MLOAD SWAP1 KECCAK256 SWAP1 PUSH1 0x37 DUP3 MOD PUSH1 0x1E ADD DUP1 PUSH1 0x1E GT PUSH2 0x1087 JUMPI PUSH1 0x6 PUSH2 0xFFFF PUSH1 0xFF SWAP3 AND SWAP4 MOD AND SWAP2 JUMPDEST PUSH1 0x3 DUP5 ADD SLOAD PUSH1 0x40 MLOAD PUSH4 0x6A24447F PUSH1 0xE1 SHL DUP2 MSTORE PUSH1 0x4 DUP2 ADD SWAP2 SWAP1 SWAP2 MSTORE PUSH2 0x100 DUP2 PUSH1 0x24 DUP2 PUSH32 0x0 PUSH1 0x1 PUSH1 0x1 PUSH1 0xA0 SHL SUB AND GAS STATICCALL SWAP1 DUP2 ISZERO PUSH2 0x40D JUMPI PUSH0 SWAP2 PUSH2 0x41E4 JUMPI POP PUSH2 0xFFFF PUSH1 0xFF PUSH1 0x80 DUP3 PUSH1 0x20 DUP6 ADD MLOAD AND SWAP4 ADD MLOAD AND SWAP3 PUSH2 0x3EF4 JUMP JUMPDEST POP PUSH1 0x4 DUP3 DUP2 ADD SLOAD PUSH1 0x40 MLOAD PUSH4 0x6A24447F PUSH1 0xE1 SHL DUP2 MSTORE SWAP2 DUP3 ADD MSTORE SWAP1 PUSH2 0x100 DUP3 PUSH1 0x24 DUP2 PUSH32 0x0 PUSH1 0x1 PUSH1 0x1 PUSH1 0xA0 SHL SUB AND GAS STATICCALL SWAP2 DUP3 ISZERO PUSH2 0x40D JUMPI PUSH0 SWAP3 PUSH2 0x4385 JUMPI JUMPDEST POP PUSH1 0xFF PUSH1 0x80 PUSH2 0xFFFF DUP5 MLOAD AND SWAP4 ADD MLOAD AND SWAP2 PUSH2 0x42A3 JUMP JUMPDEST PUSH2 0x439F SWAP2 SWAP3 POP PUSH2 0x100 RETURNDATASIZE DUP2 GT PUSH2 0x7C3 JUMPI PUSH2 0x7B5 DUP2 DUP4 PUSH2 0x2B40 JUMP JUMPDEST SWAP1 PUSH0 PUSH2 0x4370 JUMP JUMPDEST SWAP1 DUP1 ISZERO PUSH2 0x468A JUMPI PUSH1 0x5 DUP3 ADD SLOAD PUSH1 0xFF DUP2 PUSH1 0x58 SHR AND PUSH1 0x2 DUP2 LT ISZERO PUSH2 0x81D JUMPI PUSH1 0x1 EQ DUP1 DUP1 PUSH2 0x4682 JUMPI JUMPDEST ISZERO PUSH2 0x4524 JUMPI POP DUP3 SLOAD SWAP1 PUSH1 0x40 MLOAD SWAP1 PUSH1 0x20 DUP3 ADD SWAP3 DUP4 MSTORE PUSH1 0xFF PUSH1 0xF8 SHL SWAP1 PUSH1 0xD8 SHL AND PUSH1 0x40 DUP3 ADD MSTORE PUSH3 0x61746B PUSH1 0xE8 SHL PUSH1 0x41 DUP3 ADD MSTORE PUSH1 0x24 DUP2 MSTORE PUSH2 0x440A PUSH1 0x44 DUP3 PUSH2 0x2B40 JUMP JUMPDEST MLOAD SWAP1 KECCAK256 SWAP1 PUSH1 0x3C DUP3 MOD PUSH1 0x1E ADD DUP1 PUSH1 0x1E GT PUSH2 0x1087 JUMPI PUSH2 0xFFFF AND PUSH1 0xFF PUSH1 0x6 PUSH1 0x32 SWAP5 MOD AND SWAP3 PUSH1 0x3 DUP6 ADD SLOAD PUSH1 0x40 MLOAD SWAP1 PUSH4 0x6A24447F PUSH1 0xE1 SHL DUP3 MSTORE PUSH1 0x4 DUP3 ADD MSTORE PUSH2 0x100 DUP2 PUSH1 0x24 DUP2 PUSH1 0x1 DUP1 PUSH1 0xA0 SHL SUB PUSH32 0x0 AND GAS STATICCALL DUP1 ISZERO PUSH2 0x40D JUMPI PUSH1 0x80 PUSH1 0xFF SWAP2 PUSH2 0xFFFF SWAP4 PUSH0 SWAP2 PUSH2 0x4505 JUMPI JUMPDEST POP ADD MLOAD AND SWAP3 JUMPDEST AND SWAP1 PUSH1 0x64 DUP3 MUL SWAP2 DUP1 DUP4 DIV PUSH1 0x64 EQ SWAP1 ISZERO OR ISZERO PUSH2 0x1087 JUMPI PUSH2 0xFFFF AND PUSH1 0x64 ADD SWAP1 DUP2 PUSH1 0x64 GT PUSH2 0x1087 JUMPI PUSH1 0xFF SWAP2 PUSH2 0x44C2 SWAP2 PUSH2 0x2AC0 JUMP JUMPDEST SWAP4 AND PUSH0 MSTORE PUSH1 0x6 PUSH1 0x20 MSTORE PUSH1 0xFF DUP1 PUSH1 0x40 PUSH0 KECCAK256 SLOAD AND SWAP2 AND EQ PUSH2 0x4094 JUMPI DUP1 DUP1 PUSH2 0x4081 JUMPI ISZERO PUSH2 0x4015 JUMPI PUSH1 0x5 PUSH1 0x15 SWAP3 PUSH1 0x1 SHR SWAP4 PUSH2 0x3F98 DUP3 DUP3 ADD PUSH2 0x3F7F PUSH1 0xFF DUP3 SLOAD PUSH1 0x48 SHR AND PUSH2 0x3DFA JUMP JUMPDEST PUSH2 0x451E SWAP2 POP PUSH2 0x100 RETURNDATASIZE DUP2 GT PUSH2 0x7C3 JUMPI PUSH2 0x7B5 DUP2 DUP4 PUSH2 0x2B40 JUMP JUMPDEST PUSH0 PUSH2 0x448B JUMP JUMPDEST PUSH1 0x3 DUP5 ADD SLOAD PUSH1 0x40 MLOAD PUSH4 0x6A24447F PUSH1 0xE1 SHL DUP2 MSTORE PUSH1 0x4 DUP2 ADD SWAP2 SWAP1 SWAP2 MSTORE SWAP1 SWAP3 SWAP2 PUSH32 0x0 PUSH1 0x1 PUSH1 0x1 PUSH1 0xA0 SHL SUB AND PUSH2 0x100 DUP4 PUSH1 0x24 DUP2 DUP5 GAS STATICCALL SWAP3 DUP4 ISZERO PUSH2 0x40D JUMPI PUSH0 SWAP4 PUSH2 0x4661 JUMPI JUMPDEST POP PUSH1 0xFF PUSH1 0x80 PUSH2 0xFFFF DUP6 MLOAD AND SWAP5 ADD MLOAD AND SWAP5 PUSH0 EQ PUSH2 0x45F7 JUMPI POP DUP5 SLOAD SWAP1 PUSH1 0x40 MLOAD SWAP1 PUSH1 0x20 DUP3 ADD SWAP3 DUP4 MSTORE PUSH1 0xFF PUSH1 0xF8 SHL SWAP1 PUSH1 0xD8 SHL AND PUSH1 0x40 DUP3 ADD MSTORE PUSH3 0x3232B3 PUSH1 0xE9 SHL PUSH1 0x41 DUP3 ADD MSTORE PUSH1 0x24 DUP2 MSTORE PUSH2 0x45D2 PUSH1 0x44 DUP3 PUSH2 0x2B40 JUMP JUMPDEST MLOAD SWAP1 KECCAK256 PUSH1 0x32 DUP2 MOD PUSH1 0x1E ADD DUP1 PUSH1 0x1E GT PUSH2 0x1087 JUMPI PUSH1 0xFF PUSH1 0x6 PUSH2 0xFFFF DUP1 SWAP4 AND SWAP4 MOD AND SWAP3 PUSH2 0x4491 JUMP JUMPDEST SWAP1 POP PUSH2 0x100 PUSH1 0x4 DUP7 ADD SLOAD PUSH1 0x24 PUSH1 0x40 MLOAD DUP1 SWAP5 DUP2 SWAP4 PUSH4 0x6A24447F PUSH1 0xE1 SHL DUP4 MSTORE PUSH1 0x4 DUP4 ADD MSTORE GAS STATICCALL SWAP1 DUP2 ISZERO PUSH2 0x40D JUMPI PUSH0 SWAP2 PUSH2 0x4642 JUMPI JUMPDEST POP PUSH2 0xFFFF PUSH1 0xFF PUSH1 0x80 DUP3 PUSH1 0x20 DUP6 ADD MLOAD AND SWAP4 ADD MLOAD AND SWAP3 PUSH2 0x4491 JUMP JUMPDEST PUSH2 0x465B SWAP2 POP PUSH2 0x100 RETURNDATASIZE DUP2 GT PUSH2 0x7C3 JUMPI PUSH2 0x7B5 DUP2 DUP4 PUSH2 0x2B40 JUMP JUMPDEST PUSH0 PUSH2 0x4629 JUMP JUMPDEST PUSH2 0x467B SWAP2 SWAP4 POP PUSH2 0x100 RETURNDATASIZE DUP2 GT PUSH2 0x7C3 JUMPI PUSH2 0x7B5 DUP2 DUP4 PUSH2 0x2B40 JUMP JUMPDEST SWAP2 PUSH0 PUSH2 0x4583 JUMP JUMPDEST POP DUP3 ISZERO PUSH2 0x43CC JUMP JUMPDEST PUSH1 0x5 DUP3 ADD SLOAD PUSH1 0xFF DUP2 PUSH1 0x58 SHR AND PUSH1 0x2 DUP2 LT ISZERO PUSH2 0x81D JUMPI PUSH1 0x1 SUB PUSH2 0x4774 JUMPI DUP3 SLOAD SWAP1 PUSH1 0x40 MLOAD SWAP1 PUSH1 0x20 DUP3 ADD SWAP3 DUP4 MSTORE PUSH1 0xFF PUSH1 0xF8 SHL SWAP1 PUSH1 0xD8 SHL AND PUSH1 0x40 DUP3 ADD MSTORE PUSH5 0x616961746B PUSH1 0xD8 SHL PUSH1 0x41 DUP3 ADD MSTORE PUSH1 0x26 DUP2 MSTORE PUSH2 0x46E0 PUSH1 0x46 DUP3 PUSH2 0x2B40 JUMP JUMPDEST MLOAD SWAP1 KECCAK256 SWAP1 PUSH1 0x37 DUP3 MOD PUSH1 0x1E ADD DUP1 PUSH1 0x1E GT PUSH2 0x1087 JUMPI PUSH1 0x6 PUSH2 0xFFFF PUSH1 0xFF SWAP3 AND SWAP4 MOD AND SWAP2 JUMPDEST PUSH1 0x3 DUP5 ADD SLOAD PUSH1 0x40 MLOAD PUSH4 0x6A24447F PUSH1 0xE1 SHL DUP2 MSTORE PUSH1 0x4 DUP2 ADD SWAP2 SWAP1 SWAP2 MSTORE PUSH2 0x100 DUP2 PUSH1 0x24 DUP2 PUSH32 0x0 PUSH1 0x1 PUSH1 0x1 PUSH1 0xA0 SHL SUB AND GAS STATICCALL SWAP1 DUP2 ISZERO PUSH2 0x40D JUMPI PUSH0 SWAP2 PUSH2 0x4642 JUMPI POP PUSH2 0xFFFF PUSH1 0xFF PUSH1 0x80 DUP3 PUSH1 0x20 DUP6 ADD MLOAD AND SWAP4 ADD MLOAD AND SWAP3 PUSH2 0x4491 JUMP JUMPDEST POP PUSH1 0x4 DUP3 DUP2 ADD SLOAD PUSH1 0x40 MLOAD PUSH4 0x6A24447F PUSH1 0xE1 SHL DUP2 MSTORE SWAP2 DUP3 ADD MSTORE SWAP1 PUSH2 0x100 DUP3 PUSH1 0x24 DUP2 PUSH32 0x0 PUSH1 0x1 PUSH1 0x1 PUSH1 0xA0 SHL SUB AND GAS STATICCALL SWAP2 DUP3 ISZERO PUSH2 0x40D JUMPI PUSH0 SWAP3 PUSH2 0x47E3 JUMPI JUMPDEST POP PUSH1 0xFF PUSH1 0x80 PUSH2 0xFFFF DUP5 MLOAD AND SWAP4 ADD MLOAD AND SWAP2 PUSH2 0x4701 JUMP JUMPDEST PUSH2 0x47FD SWAP2 SWAP3 POP PUSH2 0x100 RETURNDATASIZE DUP2 GT PUSH2 0x7C3 JUMPI PUSH2 0x7B5 DUP2 DUP4 PUSH2 0x2B40 JUMP JUMPDEST SWAP1 PUSH0 PUSH2 0x47CE JUMP JUMPDEST PUSH1 0x1 DUP1 PUSH1 0xA0 SHL SUB DUP2 AND PUSH0 MSTORE PUSH1 0x4 PUSH1 0x20 MSTORE PUSH1 0x40 PUSH0 KECCAK256 PUSH4 0xFFFFFFFF PUSH2 0x4829 DUP2 DUP4 SLOAD AND PUSH2 0x38B1 JUMP JUMPDEST AND PUSH4 0xFFFFFFFF NOT DUP3 SLOAD AND OR DUP2 SSTORE PUSH2 0x486C PUSH2 0x484C PUSH4 0xFFFFFFFF DUP4 SLOAD PUSH1 0x60 SHR AND PUSH2 0x38B1 JUMP JUMPDEST DUP3 SLOAD PUSH4 0xFFFFFFFF PUSH1 0x60 SHL NOT AND PUSH1 0x60 SWAP2 SWAP1 SWAP2 SHL PUSH4 0xFFFFFFFF PUSH1 0x60 SHL AND OR DUP3 SSTORE JUMP JUMPDEST PUSH2 0x487F PUSH4 0xFFFFFFFF DUP3 SLOAD PUSH1 0x80 SHR AND PUSH2 0x38B1 JUMP JUMPDEST DUP2 SLOAD PUSH4 0xFFFFFFFF PUSH1 0x80 SHL NOT AND PUSH1 0x80 SWAP2 DUP3 SHL PUSH4 0xFFFFFFFF PUSH1 0x80 SHL AND OR DUP1 DUP4 SSTORE SWAP1 PUSH1 0xA0 DUP3 SWAP1 SHR PUSH4 0xFFFFFFFF SWAP1 DUP2 AND SWAP2 DUP4 SWAP1 SHR AND GT PUSH2 0x48F8 JUMPI JUMPDEST POP POP PUSH1 0xB SLOAD PUSH0 MSTORE PUSH1 0x14 PUSH1 0x20 MSTORE PUSH1 0x40 PUSH0 KECCAK256 SWAP1 PUSH1 0x1 DUP1 PUSH1 0xA0 SHL SUB AND PUSH0 MSTORE PUSH1 0x20 MSTORE PUSH1 0x40 PUSH0 KECCAK256 PUSH4 0xFFFFFFFF PUSH2 0x48E9 DUP2 DUP4 SLOAD AND PUSH2 0x38B1 JUMP JUMPDEST AND PUSH4 0xFFFFFFFF NOT DUP3 SLOAD AND OR SWAP1 SSTORE JUMP JUMPDEST PUSH4 0xFFFFFFFF PUSH1 0xA0 SHL NOT DUP2 AND PUSH1 0x20 SWAP2 SWAP1 SWAP2 SHL PUSH4 0xFFFFFFFF PUSH1 0xA0 SHL AND OR SWAP1 SSTORE PUSH0 DUP1 PUSH2 0x48B6 JUMP JUMPDEST PUSH1 0x1 DUP1 PUSH1 0xA0 SHL SUB AND PUSH0 MSTORE PUSH1 0x4 PUSH1 0x20 MSTORE PUSH1 0x40 PUSH0 KECCAK256 PUSH2 0x4970 PUSH2 0x484C PUSH4 0xFFFFFFFF DUP4 SLOAD PUSH8 0xFFFFFFFF00000000 PUSH2 0x4953 DUP4 DUP4 PUSH1 0x20 SHR AND PUSH2 0x38B1 JUMP JUMPDEST PUSH1 0x20 SHL AND SWAP1 PUSH8 0xFFFFFFFF00000000 NOT AND OR DUP1 DUP6 SSTORE PUSH1 0x60 SHR AND PUSH2 0x38B1 JUMP JUMPDEST DUP1 SLOAD PUSH4 0xFFFFFFFF PUSH1 0x80 SHL NOT AND SWAP1 SSTORE JUMP INVALID SWAP12 PUSH24 0x9B17422D0DF92223018B32B4D1FA46E071723D6817E2486D STOP EXTCODESIZE 0xEC 0xC5 PUSH0 STOP LOG2 PUSH5 0x6970667358 0x22 SLT KECCAK256 PUSH1 0x3C PUSH14 0xE6F64B69DBE32229A973E1C24A80 0xBE 0xC3 MSTORE8 SWAP16 SWAP10 0xFB 0xC9 0xDE 0xEA 0xEA 0xE4 CODECOPY 0xC5 0xB0 0xE5 PUSH5 0x736F6C6343 STOP ADDMOD SHR STOP CALLER "},"methodIdentifiers":{"ABILITY_COOLDOWN()":"c0fac838","ABILITY_POWER_MULTIPLIER()":"2f3d22bb","BASE_DAMAGE_MIN()":"3837ad48","ELEMENT_BONUS()":"e2680709","MAX_PLATFORM_FEE()":"3998a681","MAX_TURNS()":"8b90fbc0","activeBattle(address)":"33e4b2df","battleLogs(uint256,uint256)":"42d4aa60","battles(uint256)":"606d2e96","canUseAbility(uint256,bool)":"d794e1a6","cancelBattle(uint256)":"4c4c447e","claimPrize(uint256,uint256)":"7b154140","createAIBattle(uint256)":"a98204f8","createBattle(uint256)":"94d44f12","currentSeason()":"bcb39621","elementAdvantage(uint8)":"0a02396b","emergencyWithdrawPrizePool(address)":"e7a2df61","endSeason(address[])":"1833c0af","entryFee()":"072ea61c","forfeitBattle(uint256)":"07653afd","getBattle(uint256)":"6dd0ce7a","getBattleLog(uint256)":"188107b7","getOpenBattles(uint256,uint256)":"851ea6b9","getPlayerRecord(address)":"d21b4c52","getPoolInfo()":"60246c88","getPrizeAmount(uint256,uint256)":"6abe4b1a","getSeasonWins(uint256,address)":"e178e215","getTopTierShares()":"8a29719f","hasElementAdvantage(uint8,uint8)":"b94f5e49","joinBattle(uint256,uint256)":"e44dba4f","makeMove(uint256,uint8)":"7fd6f7c4","nextBattleId()":"31a6ff66","owner()":"8da5cb5b","pathUSD()":"7b008d3b","platformFeeBps()":"22dcd13e","platformFees()":"194a4e7e","playerRecords(address)":"7c01800d","prizeClaimed(uint256,uint256)":"db2c0fd1","prizePool()":"719ce73e","renounceOwnership()":"715018a6","seasonDuration()":"e76c5908","seasonPrizePool(uint256)":"fe54009d","seasonRankings(uint256,uint256)":"a94e5a69","seasonStart()":"bafa0946","seasonTimeRemaining()":"20286cc3","seasonWins(uint256,address)":"0dca4bc1","setEntryFee(uint256)":"eb770d0c","setPlatformFee(uint256)":"12e8e2c3","setPrizeStructure(uint256[],uint256)":"cf2012af","setSeasonDuration(uint256)":"84f86a66","topTierCount()":"371ca3c5","topTierShares(uint256)":"3c38b21d","totalBattlesPlayed()":"302c80e1","totalRewardedPlayers()":"3aaea2e7","transferOwnership(address)":"f2fde38b","whaleCards()":"96a92858","withdrawPlatformFees(address)":"ec3889b5"}}}}}