{"project/contracts/WhaleCards.sol":{"WhaleCards":{"abi":[{"inputs":[{"internalType":"address","name":"_pathUSD","type":"address"},{"internalType":"address","name":"_oracle","type":"address"},{"internalType":"address","name":"_renderer","type":"address"}],"stateMutability":"nonpayable","type":"constructor"},{"inputs":[],"name":"CardAlreadyMinted","type":"error"},{"inputs":[],"name":"CardDoesNotExist","type":"error"},{"inputs":[],"name":"CollectionNotActive","type":"error"},{"inputs":[],"name":"CollectionNotFound","type":"error"},{"inputs":[],"name":"CraftInputDifferentCollection","type":"error"},{"inputs":[],"name":"CraftInputNotOwned","type":"error"},{"inputs":[],"name":"CraftInputStatsNotSet","type":"error"},{"inputs":[],"name":"CraftInputWrongRarity","type":"error"},{"inputs":[],"name":"ERC721EnumerableForbiddenBatchMint","type":"error"},{"inputs":[{"internalType":"address","name":"sender","type":"address"},{"internalType":"uint256","name":"tokenId","type":"uint256"},{"internalType":"address","name":"owner","type":"address"}],"name":"ERC721IncorrectOwner","type":"error"},{"inputs":[{"internalType":"address","name":"operator","type":"address"},{"internalType":"uint256","name":"tokenId","type":"uint256"}],"name":"ERC721InsufficientApproval","type":"error"},{"inputs":[{"internalType":"address","name":"approver","type":"address"}],"name":"ERC721InvalidApprover","type":"error"},{"inputs":[{"internalType":"address","name":"operator","type":"address"}],"name":"ERC721InvalidOperator","type":"error"},{"inputs":[{"internalType":"address","name":"owner","type":"address"}],"name":"ERC721InvalidOwner","type":"error"},{"inputs":[{"internalType":"address","name":"receiver","type":"address"}],"name":"ERC721InvalidReceiver","type":"error"},{"inputs":[{"internalType":"address","name":"sender","type":"address"}],"name":"ERC721InvalidSender","type":"error"},{"inputs":[{"internalType":"uint256","name":"tokenId","type":"uint256"}],"name":"ERC721NonexistentToken","type":"error"},{"inputs":[{"internalType":"address","name":"owner","type":"address"},{"internalType":"uint256","name":"index","type":"uint256"}],"name":"ERC721OutOfBoundsIndex","type":"error"},{"inputs":[],"name":"InsufficientAllowance","type":"error"},{"inputs":[],"name":"InvalidCraftInput","type":"error"},{"inputs":[],"name":"InvalidStats","type":"error"},{"inputs":[],"name":"NotNFTOwner","type":"error"},{"inputs":[],"name":"NothingToWithdraw","type":"error"},{"inputs":[],"name":"OnlyOracle","type":"error"},{"inputs":[{"internalType":"address","name":"owner","type":"address"}],"name":"OwnableInvalidOwner","type":"error"},{"inputs":[{"internalType":"address","name":"account","type":"address"}],"name":"OwnableUnauthorizedAccount","type":"error"},{"inputs":[],"name":"ReentrancyGuardReentrantCall","type":"error"},{"inputs":[],"name":"StatsAlreadySet","type":"error"},{"anonymous":false,"inputs":[{"indexed":true,"internalType":"address","name":"owner","type":"address"},{"indexed":true,"internalType":"address","name":"approved","type":"address"},{"indexed":true,"internalType":"uint256","name":"tokenId","type":"uint256"}],"name":"Approval","type":"event"},{"anonymous":false,"inputs":[{"indexed":true,"internalType":"address","name":"owner","type":"address"},{"indexed":true,"internalType":"address","name":"operator","type":"address"},{"indexed":false,"internalType":"bool","name":"approved","type":"bool"}],"name":"ApprovalForAll","type":"event"},{"anonymous":false,"inputs":[{"indexed":true,"internalType":"address","name":"owner","type":"address"},{"indexed":true,"internalType":"uint256","name":"newCardId","type":"uint256"},{"indexed":false,"internalType":"uint8","name":"outputRarity","type":"uint8"},{"indexed":false,"internalType":"bool","name":"success","type":"bool"}],"name":"CardCrafted","type":"event"},{"anonymous":false,"inputs":[{"indexed":true,"internalType":"address","name":"owner","type":"address"},{"indexed":true,"internalType":"uint256","name":"cardId","type":"uint256"},{"indexed":true,"internalType":"address","name":"sourceContract","type":"address"},{"indexed":false,"internalType":"uint256","name":"sourceTokenId","type":"uint256"}],"name":"CardMinted","type":"event"},{"anonymous":false,"inputs":[{"indexed":true,"internalType":"uint256","name":"collectionId","type":"uint256"},{"indexed":true,"internalType":"address","name":"contractAddr","type":"address"},{"indexed":false,"internalType":"string","name":"name","type":"string"}],"name":"CollectionAdded","type":"event"},{"anonymous":false,"inputs":[{"indexed":true,"internalType":"uint256","name":"collectionId","type":"uint256"},{"indexed":false,"internalType":"bool","name":"active","type":"bool"}],"name":"CollectionUpdated","type":"event"},{"anonymous":false,"inputs":[{"indexed":true,"internalType":"address","name":"to","type":"address"},{"indexed":false,"internalType":"uint256","name":"platformAmount","type":"uint256"},{"indexed":false,"internalType":"uint256","name":"prizePoolAmount","type":"uint256"}],"name":"CraftingFeesWithdrawn","type":"event"},{"anonymous":false,"inputs":[{"indexed":true,"internalType":"address","name":"oldOracle","type":"address"},{"indexed":true,"internalType":"address","name":"newOracle","type":"address"}],"name":"OracleUpdated","type":"event"},{"anonymous":false,"inputs":[{"indexed":true,"internalType":"address","name":"previousOwner","type":"address"},{"indexed":true,"internalType":"address","name":"newOwner","type":"address"}],"name":"OwnershipTransferred","type":"event"},{"anonymous":false,"inputs":[{"indexed":true,"internalType":"uint256","name":"cardId","type":"uint256"},{"indexed":false,"internalType":"uint8","name":"element","type":"uint8"},{"indexed":false,"internalType":"uint8","name":"rarity","type":"uint8"}],"name":"StatsCommitted","type":"event"},{"anonymous":false,"inputs":[{"indexed":true,"internalType":"address","name":"from","type":"address"},{"indexed":true,"internalType":"address","name":"to","type":"address"},{"indexed":true,"internalType":"uint256","name":"tokenId","type":"uint256"}],"name":"Transfer","type":"event"},{"inputs":[{"internalType":"address","name":"_contractAddr","type":"address"},{"internalType":"string","name":"_name","type":"string"},{"internalType":"string","name":"_imageURI","type":"string"}],"name":"addCollection","outputs":[{"internalType":"uint256","name":"","type":"uint256"}],"stateMutability":"nonpayable","type":"function"},{"inputs":[{"internalType":"address","name":"to","type":"address"},{"internalType":"uint256","name":"tokenId","type":"uint256"}],"name":"approve","outputs":[],"stateMutability":"nonpayable","type":"function"},{"inputs":[{"internalType":"address","name":"owner","type":"address"}],"name":"balanceOf","outputs":[{"internalType":"uint256","name":"","type":"uint256"}],"stateMutability":"view","type":"function"},{"inputs":[],"name":"baseMetadataURI","outputs":[{"internalType":"string","name":"","type":"string"}],"stateMutability":"view","type":"function"},{"inputs":[{"internalType":"uint256[]","name":"cardIds","type":"uint256[]"},{"internalType":"uint16[]","name":"attacks","type":"uint16[]"},{"internalType":"uint16[]","name":"defenses","type":"uint16[]"},{"internalType":"uint16[]","name":"healths","type":"uint16[]"},{"internalType":"uint16[]","name":"speeds","type":"uint16[]"},{"internalType":"uint8[]","name":"elements","type":"uint8[]"},{"internalType":"uint8[]","name":"rarities","type":"uint8[]"},{"internalType":"bytes32[]","name":"abilityHashes","type":"bytes32[]"},{"internalType":"string[]","name":"imageURIs","type":"string[]"}],"name":"batchCommitStats","outputs":[],"stateMutability":"nonpayable","type":"function"},{"inputs":[{"internalType":"uint256","name":"collectionId","type":"uint256"},{"internalType":"uint256[]","name":"sourceTokenIds","type":"uint256[]"}],"name":"batchMintCards","outputs":[{"internalType":"uint256[]","name":"","type":"uint256[]"}],"stateMutability":"nonpayable","type":"function"},{"inputs":[{"internalType":"uint256","name":"","type":"uint256"}],"name":"cardImageURI","outputs":[{"internalType":"string","name":"","type":"string"}],"stateMutability":"view","type":"function"},{"inputs":[{"internalType":"bytes32","name":"","type":"bytes32"}],"name":"cardMinted","outputs":[{"internalType":"bool","name":"","type":"bool"}],"stateMutability":"view","type":"function"},{"inputs":[{"internalType":"uint256","name":"","type":"uint256"}],"name":"cardOrigins","outputs":[{"internalType":"address","name":"sourceContract","type":"address"},{"internalType":"uint256","name":"sourceTokenId","type":"uint256"},{"internalType":"bool","name":"isCrafted","type":"bool"}],"stateMutability":"view","type":"function"},{"inputs":[{"internalType":"uint256","name":"","type":"uint256"}],"name":"cardStats","outputs":[{"internalType":"uint16","name":"attack","type":"uint16"},{"internalType":"uint16","name":"defense","type":"uint16"},{"internalType":"uint16","name":"health","type":"uint16"},{"internalType":"uint16","name":"speed","type":"uint16"},{"internalType":"uint8","name":"element","type":"uint8"},{"internalType":"uint8","name":"rarity","type":"uint8"},{"internalType":"bytes32","name":"abilityHash","type":"bytes32"},{"internalType":"bool","name":"isSet","type":"bool"}],"stateMutability":"view","type":"function"},{"inputs":[],"name":"collectionCount","outputs":[{"internalType":"uint256","name":"","type":"uint256"}],"stateMutability":"view","type":"function"},{"inputs":[{"internalType":"uint256","name":"","type":"uint256"}],"name":"collections","outputs":[{"internalType":"address","name":"contractAddr","type":"address"},{"internalType":"string","name":"name","type":"string"},{"internalType":"string","name":"imageURI","type":"string"},{"internalType":"bool","name":"active","type":"bool"},{"internalType":"uint256","name":"totalMinted","type":"uint256"}],"stateMutability":"view","type":"function"},{"inputs":[{"internalType":"uint256","name":"cardId","type":"uint256"},{"internalType":"uint16","name":"attack","type":"uint16"},{"internalType":"uint16","name":"defense","type":"uint16"},{"internalType":"uint16","name":"health","type":"uint16"},{"internalType":"uint16","name":"speed","type":"uint16"},{"internalType":"uint8","name":"element","type":"uint8"},{"internalType":"uint8","name":"rarity","type":"uint8"},{"internalType":"bytes32","name":"abilityHash","type":"bytes32"},{"internalType":"string","name":"imageURI","type":"string"}],"name":"commitStats","outputs":[],"stateMutability":"nonpayable","type":"function"},{"inputs":[{"internalType":"uint256[]","name":"inputCardIds","type":"uint256[]"}],"name":"craftCards","outputs":[{"internalType":"uint256","name":"","type":"uint256"}],"stateMutability":"nonpayable","type":"function"},{"inputs":[{"internalType":"uint256","name":"","type":"uint256"}],"name":"craftTiers","outputs":[{"internalType":"uint8","name":"inputRarity","type":"uint8"},{"internalType":"uint8","name":"outputRarity","type":"uint8"},{"internalType":"uint8","name":"inputCount","type":"uint8"},{"internalType":"uint256","name":"cost","type":"uint256"},{"internalType":"uint8","name":"successRate","type":"uint8"}],"stateMutability":"view","type":"function"},{"inputs":[],"name":"craftingPlatformFees","outputs":[{"internalType":"uint256","name":"","type":"uint256"}],"stateMutability":"view","type":"function"},{"inputs":[],"name":"craftingPrizePoolFees","outputs":[{"internalType":"uint256","name":"","type":"uint256"}],"stateMutability":"view","type":"function"},{"inputs":[{"internalType":"uint256","name":"tokenId","type":"uint256"}],"name":"getApproved","outputs":[{"internalType":"address","name":"","type":"address"}],"stateMutability":"view","type":"function"},{"inputs":[{"internalType":"uint256","name":"cardId","type":"uint256"}],"name":"getCardOrigin","outputs":[{"internalType":"address","name":"","type":"address"},{"internalType":"uint256","name":"","type":"uint256"},{"internalType":"bool","name":"","type":"bool"}],"stateMutability":"view","type":"function"},{"inputs":[{"internalType":"uint256","name":"cardId","type":"uint256"}],"name":"getCardStats","outputs":[{"internalType":"uint16","name":"","type":"uint16"},{"internalType":"uint16","name":"","type":"uint16"},{"internalType":"uint16","name":"","type":"uint16"},{"internalType":"uint16","name":"","type":"uint16"},{"internalType":"uint8","name":"","type":"uint8"},{"internalType":"uint8","name":"","type":"uint8"},{"internalType":"bytes32","name":"","type":"bytes32"},{"internalType":"bool","name":"","type":"bool"}],"stateMutability":"view","type":"function"},{"inputs":[{"internalType":"address","name":"_addr","type":"address"}],"name":"getCollectionIdByContract","outputs":[{"internalType":"uint256","name":"","type":"uint256"}],"stateMutability":"view","type":"function"},{"inputs":[],"name":"getCollections","outputs":[{"components":[{"internalType":"address","name":"contractAddr","type":"address"},{"internalType":"string","name":"name","type":"string"},{"internalType":"string","name":"imageURI","type":"string"},{"internalType":"bool","name":"active","type":"bool"},{"internalType":"uint256","name":"totalMinted","type":"uint256"}],"internalType":"struct WhaleCards.Collection[]","name":"","type":"tuple[]"}],"stateMutability":"view","type":"function"},{"inputs":[{"internalType":"uint8","name":"inputRarity","type":"uint8"}],"name":"getCraftTier","outputs":[{"components":[{"internalType":"uint8","name":"inputRarity","type":"uint8"},{"internalType":"uint8","name":"outputRarity","type":"uint8"},{"internalType":"uint8","name":"inputCount","type":"uint8"},{"internalType":"uint256","name":"cost","type":"uint256"},{"internalType":"uint8","name":"successRate","type":"uint8"}],"internalType":"struct WhaleCards.CraftTier","name":"","type":"tuple"}],"stateMutability":"view","type":"function"},{"inputs":[{"internalType":"address","name":"owner","type":"address"},{"internalType":"address","name":"operator","type":"address"}],"name":"isApprovedForAll","outputs":[{"internalType":"bool","name":"","type":"bool"}],"stateMutability":"view","type":"function"},{"inputs":[{"internalType":"address","name":"srcContract","type":"address"},{"internalType":"uint256","name":"srcTokenId","type":"uint256"}],"name":"isCardMinted","outputs":[{"internalType":"bool","name":"","type":"bool"}],"stateMutability":"view","type":"function"},{"inputs":[{"internalType":"uint256","name":"collectionId","type":"uint256"},{"internalType":"uint256","name":"sourceTokenId","type":"uint256"}],"name":"mintCard","outputs":[{"internalType":"uint256","name":"","type":"uint256"}],"stateMutability":"nonpayable","type":"function"},{"inputs":[],"name":"name","outputs":[{"internalType":"string","name":"","type":"string"}],"stateMutability":"view","type":"function"},{"inputs":[],"name":"nextCardId","outputs":[{"internalType":"uint256","name":"","type":"uint256"}],"stateMutability":"view","type":"function"},{"inputs":[],"name":"oracle","outputs":[{"internalType":"address","name":"","type":"address"}],"stateMutability":"view","type":"function"},{"inputs":[],"name":"owner","outputs":[{"internalType":"address","name":"","type":"address"}],"stateMutability":"view","type":"function"},{"inputs":[{"internalType":"uint256","name":"tokenId","type":"uint256"}],"name":"ownerOf","outputs":[{"internalType":"address","name":"","type":"address"}],"stateMutability":"view","type":"function"},{"inputs":[],"name":"pathUSD","outputs":[{"internalType":"contract IPATHUSD","name":"","type":"address"}],"stateMutability":"view","type":"function"},{"inputs":[],"name":"prizePoolTarget","outputs":[{"internalType":"address","name":"","type":"address"}],"stateMutability":"view","type":"function"},{"inputs":[],"name":"renderer","outputs":[{"internalType":"contract IWhalemonRenderer","name":"","type":"address"}],"stateMutability":"view","type":"function"},{"inputs":[],"name":"renounceOwnership","outputs":[],"stateMutability":"nonpayable","type":"function"},{"inputs":[{"internalType":"address","name":"from","type":"address"},{"internalType":"address","name":"to","type":"address"},{"internalType":"uint256","name":"tokenId","type":"uint256"}],"name":"safeTransferFrom","outputs":[],"stateMutability":"nonpayable","type":"function"},{"inputs":[{"internalType":"address","name":"from","type":"address"},{"internalType":"address","name":"to","type":"address"},{"internalType":"uint256","name":"tokenId","type":"uint256"},{"internalType":"bytes","name":"data","type":"bytes"}],"name":"safeTransferFrom","outputs":[],"stateMutability":"nonpayable","type":"function"},{"inputs":[{"internalType":"address","name":"operator","type":"address"},{"internalType":"bool","name":"approved","type":"bool"}],"name":"setApprovalForAll","outputs":[],"stateMutability":"nonpayable","type":"function"},{"inputs":[{"internalType":"string","name":"_uri","type":"string"}],"name":"setBaseMetadataURI","outputs":[],"stateMutability":"nonpayable","type":"function"},{"inputs":[{"internalType":"uint256","name":"cid","type":"uint256"},{"internalType":"bool","name":"active","type":"bool"}],"name":"setCollectionActive","outputs":[],"stateMutability":"nonpayable","type":"function"},{"inputs":[{"internalType":"uint8","name":"tierIndex","type":"uint8"},{"internalType":"uint8","name":"inputCount","type":"uint8"},{"internalType":"uint256","name":"cost","type":"uint256"},{"internalType":"uint8","name":"successRate","type":"uint8"}],"name":"setCraftTier","outputs":[],"stateMutability":"nonpayable","type":"function"},{"inputs":[{"internalType":"address","name":"_oracle","type":"address"}],"name":"setOracle","outputs":[],"stateMutability":"nonpayable","type":"function"},{"inputs":[{"internalType":"address","name":"_target","type":"address"}],"name":"setPrizePoolTarget","outputs":[],"stateMutability":"nonpayable","type":"function"},{"inputs":[{"internalType":"address","name":"_renderer","type":"address"}],"name":"setRenderer","outputs":[],"stateMutability":"nonpayable","type":"function"},{"inputs":[{"internalType":"bytes4","name":"interfaceId","type":"bytes4"}],"name":"supportsInterface","outputs":[{"internalType":"bool","name":"","type":"bool"}],"stateMutability":"view","type":"function"},{"inputs":[],"name":"symbol","outputs":[{"internalType":"string","name":"","type":"string"}],"stateMutability":"view","type":"function"},{"inputs":[{"internalType":"uint256","name":"index","type":"uint256"}],"name":"tokenByIndex","outputs":[{"internalType":"uint256","name":"","type":"uint256"}],"stateMutability":"view","type":"function"},{"inputs":[{"internalType":"address","name":"owner","type":"address"},{"internalType":"uint256","name":"index","type":"uint256"}],"name":"tokenOfOwnerByIndex","outputs":[{"internalType":"uint256","name":"","type":"uint256"}],"stateMutability":"view","type":"function"},{"inputs":[{"internalType":"uint256","name":"tokenId","type":"uint256"}],"name":"tokenURI","outputs":[{"internalType":"string","name":"","type":"string"}],"stateMutability":"view","type":"function"},{"inputs":[],"name":"totalSupply","outputs":[{"internalType":"uint256","name":"","type":"uint256"}],"stateMutability":"view","type":"function"},{"inputs":[{"internalType":"address","name":"from","type":"address"},{"internalType":"address","name":"to","type":"address"},{"internalType":"uint256","name":"tokenId","type":"uint256"}],"name":"transferFrom","outputs":[],"stateMutability":"nonpayable","type":"function"},{"inputs":[{"internalType":"address","name":"newOwner","type":"address"}],"name":"transferOwnership","outputs":[],"stateMutability":"nonpayable","type":"function"},{"inputs":[{"internalType":"uint256","name":"cid","type":"uint256"},{"internalType":"string","name":"_name","type":"string"},{"internalType":"string","name":"_imageURI","type":"string"}],"name":"updateCollection","outputs":[],"stateMutability":"nonpayable","type":"function"},{"inputs":[{"internalType":"address","name":"platformTo","type":"address"}],"name":"withdrawCraftingFees","outputs":[],"stateMutability":"nonpayable","type":"function"}],"evm":{"bytecode":{"linkReferences":{},"object":"60a0604052346105ce57614bbd6060813803918261001c816105f1565b9384928339810103126105ce5761003281610616565b9061004b604061004460208401610616565b9201610616565b9061005660406105f1565b9260088452672bb430b632b6b7b760c11b602085015261007660406105f1565b60048152632ba6a7a760e11b6020820152845190946001600160401b0382116104d5575f5490600182811c921680156105c4575b60208310146104b75781601f849311610557575b50602090601f83116001146104f4575f926104e9575b50508160011b915f199060031b1c1916175f555b83516001600160401b0381116104d557600154600181811c911680156104cb575b60208210146104b757601f8111610454575b50602094601f82116001146103f1579481929394955f926103e6575b50508160011b915f199060031b1c1916176001555b33156103d357600a8054336001600160a01b0319821681179092556001600160a01b03167f8be0079c531659141344cd1fd0a4f28419497f9722a3daafe3b4186f6b6457e05f80a360017f9b779b17422d0df92223018b32b4d1fa46e071723d6817e2486d003becc55f00819055600c556001600160a01b03908116608052601380546001600160a01b0319908116938316939093179055600b8054909216921691909117905560ff6101fd6105d2565b5f81526001602082015260036040820152671bc16d674ec8000060608201819052606460809092018290526018805484191662ffff00191662030100179055601955601a80549290911660ff1990921691909117905560ff61025d6105d2565b60018082526002602083015260036040830152674563918244f400006060830181905260556080909301839052601b8054928516851990931662ffff001916929092176203020017909155601c55601d80549290911660ff1990921691909117905560ff6102c96105d2565b600280825260036020808401919091526004604084015267d02ab486cedc000060608401819052603c6080909401849052601e8054938616861990941662ffff001916939093176204030017909255601f9190915580549290911660ff1990921691909117905560ff61033a6105d2565b60038082526004602083015260056040808401919091526802b5e3af16b1880000606084018190526023608090940184905260218054938616861990941662ffff001916939093176205040017909255602291909155815492821660ff1990931692909217905551614592908161062b82396080518181816108ba015281816109c801528181610a9001528181611f9101526136300152f35b631e4fbdf760e01b5f525f60045260245ffd5b015190505f80610137565b601f1982169560015f52805f20915f5b88811061043c57508360019596979810610424575b505050811b0160015561014c565b01515f1960f88460031b161c191690555f8080610416565b91926020600181928685015181550194019201610401565b60015f527fb10e2d527612073b26eecdfd717e6a320cf44b4afac2b0732d9fcbe2b7fa0cf6601f830160051c810191602084106104ad575b601f0160051c01905b8181106104a2575061011b565b5f8155600101610495565b909150819061048c565b634e487b7160e01b5f52602260045260245ffd5b90607f1690610109565b634e487b7160e01b5f52604160045260245ffd5b015190505f806100d4565b5f8080528281209350601f198516905b81811061053f5750908460019594939210610527575b505050811b015f556100e8565b01515f1960f88460031b161c191690555f808061051a565b92936020600181928786015181550195019301610504565b5f80529091507f290decd9548b62a8d60345a988386fc84ba6bc95484008f6362f93160ef3e563601f840160051c810191602085106105ba575b90601f859493920160051c01905b8181106105ac57506100be565b5f815584935060010161059f565b9091508190610591565b91607f16916100aa565b5f80fd5b6040519060a082016001600160401b038111838210176104d557604052565b6040519190601f01601f191682016001600160401b038111838210176104d557604052565b51906001600160a01b03821682036105ce5756fe610300806040526004361015610013575f80fd5b5f3560e01c90816301ffc9a714612de85750806306fdde0314612d46578063081812fc14612d0a57806308e305d014612ca8578063095ea7b314612bbe5780630b2680f914612b3e5780630e427f171461295757806318160ddd1461293a578063227a0f881461291057806323b872dd146128f9578063296fb521146125ce5780632c596d0f146125625780632f745c59146124f057806342842e0e146124c157806346e63586146123145780634c77fe2a146122aa5780634f6ccce71461225c57806356d3163d146122195780635b2bd79e146121745780636352211e1461214457806370a0823114612121578063715018a6146120c6578063789eb33c146120285780637adbf97314611fc05780637b008d3b14611f7c5780637dc0d1d014611f545780637e518ec814611de25780638329d10914611d585780638a6f0c11146119d95780638ada6b0f146119b15780638c7810f5146119945780638da5cb5b1461196c5780639350254f146118a757806395d89b41146117c95780639c3cf4cd1461179a578063a22cb465146116e1578063b0e887611461167f578063b877f42114611378578063b88d4fde1461130b578063c0564277146112c8578063c4ae904314610d82578063c5263e8c14610d65578063c87b56dd14610b01578063c9913b7b14610831578063ca000ec11461076d578063cee5063514610545578063d44888fe1461046e578063d57f966b14610451578063ddad571914610426578063e07257f214610409578063e985e9c5146103b2578063f2fde38b1461032c578063f96e8594146103045763fdbda0ec1461026f575f80fd5b34610300576020366003190112610300576004355f908152600d6020526040902080546001600160a01b03166102a760018301612f77565b916102b460028201612f77565b6102ef600460ff600385015416930154916102e1604051968796875260a0602088015260a0870190612e6d565b908582036040870152612e6d565b911515606084015260808301520390f35b5f80fd5b34610300575f366003190112610300576015546040516001600160a01b039091168152602090f35b3461030057602036600319011261030057610345612e91565b61034d613f08565b6001600160a01b0316801561039f57600a80546001600160a01b0319811683179091556001600160a01b03167f8be0079c531659141344cd1fd0a4f28419497f9722a3daafe3b4186f6b6457e05f80a3005b631e4fbdf760e01b5f525f60045260245ffd5b34610300576040366003190112610300576103cb612e91565b6103d3612ea7565b9060018060a01b03165f52600560205260405f209060018060a01b03165f52602052602060ff60405f2054166040519015158152f35b34610300575f366003190112610300576020601754604051908152f35b34610300576020366003190112610300576020610449610444612e91565b613e94565b604051908152f35b34610300575f366003190112610300576020600e54604051908152f35b34610300576020366003190112610300576004355f818152600260205260409020546001600160a01b031615610536575f52601060205260405f206040516104b581612f3a565b61053260e083549361ffff85169384815261ffff8660101c169586602083015261ffff8160201c1680604084015261ffff8260301c169081606085015260ff808460401c169384608087015260481c16938460a082015260ff60026001880154978860c0850152015416151596879101526040519889988961307e565b0390f35b63dc114e6b60e01b5f5260045ffd5b34610300576060366003190112610300576004356024356001600160401b03811161030057610578903690600401613051565b916044356001600160401b03811161030057610598903690600401613051565b9290936105a3613f08565b600e5483101561075e57825f52600d602052600160405f2001916001600160401b0382116106db576105df826105d98554612ecc565b8561344c565b5f90601f83116001146106fa5761060d92915f91836106ef575b50508160011b915f199060031b1c19161790565b90555b5f52600d602052600260405f2001906001600160401b0381116106db576106418161063b8454612ecc565b8461344c565b5f601f821160011461067d57819061066e93945f926106725750508160011b915f199060031b1c19161790565b9055005b0135905084806105f9565b601f19821693835f5260205f20915f5b8681106106c357508360019596106106aa575b505050811b019055005b01355f19600384901b60f8161c191690558380806106a0565b9092602060018192868601358155019401910161068d565b634e487b7160e01b5f52604160045260245ffd5b0135905087806105f9565b601f19831691845f5260205f20925f5b818110610746575090846001959493921061072d575b505050811b019055610610565b01355f19600384901b60f8161c19169055868080610720565b9193602060018192878701358155019501920161070a565b6342414a4f60e11b5f5260045ffd5b34610300576080366003190112610300576107866130cc565b6024359060ff82168203610300576064359160ff8316809303610300576107ab613f08565b600360ff83161161082257606483116108135760048210156107ff576003601a920290816018019062ff000082549160101b169062ff000019161790556044356019820155019060ff198254161790555f80f35b634e487b7160e01b5f52603260045260245ffd5b63270b168d60e01b5f5260045ffd5b635811e33760e01b5f5260045ffd5b346103005760203660031901126103005761084a612e91565b610852613f08565b601654906017548215808091610af9575b610aea575f6016555f60175515610a60575b8015158080610a4c575b15610968575060155460405163a9059cbb60e01b81526001600160a01b0390911660048201526024810182905291602083806044810103815f7f00000000000000000000000000000000000000000000000000000000000000006001600160a01b03165af191821561095d577f4fcbde66b5e814a7ef82a2bef143d3795bc79caeb885f6d2497cfc93cf89d9739360409361092e575b505b825194855260208501526001600160a01b031692a2005b61094f9060203d602011610956575b6109478183612f56565b81019061356f565b5085610915565b503d61093d565b6040513d5f823e3d90fd5b610997575b7f4fcbde66b5e814a7ef82a2bef143d3795bc79caeb885f6d2497cfc93cf89d97391604091610917565b60405163a9059cbb60e01b81526001600160a01b03831660048201526024810182905291602083806044810103815f7f00000000000000000000000000000000000000000000000000000000000000006001600160a01b03165af191821561095d577f4fcbde66b5e814a7ef82a2bef143d3795bc79caeb885f6d2497cfc93cf89d97393604093610a2d575b509150915061096d565b610a459060203d602011610956576109478183612f56565b5085610a23565b506015546001600160a01b0316151561087f565b60405163a9059cbb60e01b81526001600160a01b038316600482015260248101849052602081806044810103815f7f00000000000000000000000000000000000000000000000000000000000000006001600160a01b03165af1801561095d57610acb575b50610875565b610ae39060203d602011610956576109478183612f56565b5083610ac5565b630686827b60e51b5f5260045ffd5b508115610863565b34610300576020366003190112610300576004355f818152600260205260409020546001600160a01b03161561053657805f52601060205260405f209060405190610b4b82612f3a565b82549261ffff84169384845260e061ffff8260101c169283602087015261ffff8360201c169283604088015261ffff8160301c169687606082015260ff600281808560401c169485608086015260481c16948560a0850152600181015460c08501520154161515938491015260018060a01b03600b541696865f52601160205260ff600260405f2001541694875f52601260205260405f20966040519a8b99636cb3fdcd60e01b8b5260048b015260248a015260448901526064880152608487015260a486015260c485015260e484015215156101048301526101406101248301525f90805490610c3b82612ecc565b91826101448601526001811690815f14610d3f5750600114610d02575b50509181805f9403915afa801561095d575f90610c88575b61053290604051918291602083526020830190612e6d565b503d805f833e610c988183612f56565b810190602081830312610300578051906001600160401b03821161030057019080601f83011215610300578151610cce8161310c565b91610cdc6040519384612f56565b81835260208285010111610300576020815f928261053296018386015e83010152610c70565b5f908152602081209092505b818310610d245750508101610164018180610c58565b80546101648488010152859350602090920191600101610d0e565b60ff19166101648087019190915292151560051b85019092019250839150819050610c58565b34610300575f366003190112610300576020600c54604051908152f35b3461030057610120366003190112610300576004356001600160401b03811161030057610db39036906004016130dc565b610240526102c0526024356001600160401b03811161030057610dda9036906004016130dc565b6101205260a0526044356001600160401b03811161030057610e009036906004016130dc565b6102605260e0526064356001600160401b03811161030057610e269036906004016130dc565b6101a052610160526084356001600160401b03811161030057610e4d9036906004016130dc565b6102005260c05260a4356001600160401b03811161030057610e739036906004016130dc565b610220526101005260c4356001600160401b03811161030057610e9a9036906004016130dc565b6101c0526101405260e4356001600160401b03811161030057610ec19036906004016130dc565b6101e052610180526001600160401b03610104351161030057610eea36610104356004016130dc565b6102a052610280526013546001600160a01b0316331415806112b3575b6112a4575f6080525b6102405160805110610f1e57005b610f51610f34608051610240516102c051613552565b355f908152600260205260409020546001600160a01b0316151590565b1561053657610f69608051610240516102c051613552565b355f52601060205260ff600260405f200154166112955761112161ffff6002610fa2610f9d6080516101205160a051613552565b613e36565b610fb7610f9d6080516102605160e051613552565b610fcd610f9d6080516101a05161016051613552565b610fe2610f9d6080516102005160c051613552565b91610ffe610ff96080516102205161010051613552565b613e45565b611014610ff96080516101c05161014051613552565b916110286080516101e05161018051613552565b3594886040519761103889612f3a565b16875288602088019216825288604088019516855288606088019116815260ff608088019316835260ff60a088019416845260c0870195865260e08701966001885261108d608051610240516102c051613552565b355f52601060205260ff60481b60ff60401b61ffff60301b65ffff0000000063ffff000060405f209e8f9651169554975160101b16995160201b16945160301b16955160401b16955160481b169560ff60481b199360ff60401b199261ffff60301b199165ffffffffffff1916171617161716171717845551600184015551151591019060ff801983541691151516179055565b6111346080516102a05161028051613e53565b90506111ac575b61114e608051610240516102c051613552565b355f51602061453d5f395f51905f52611173610ff96080516102205161010051613552565b611189610ff96080516101c05161014051613552565b6040805160ff9384168152919092166020820152a2600160805101608052610f10565b6111bf6080516102a05161028051613e53565b6111d2608051610240516102c051613552565b355f52601260205260405f20906001600160401b0381116106db576111fb8161063b8454612ecc565b5f92601f821160011461123057611229929382915f926106725750508160011b915f199060031b1c19161790565b905561113b565b825f5260205f20905f945b601f198416861061127d57600194955083601f19811610611264575b505050811b01905561113b565b01355f19600384901b60f8161c19169055838080611257565b9160206001819285850135815501930195019461123b565b6368d3cd5360e01b5f5260045ffd5b6380fee10560e01b5f5260045ffd5b50600a546001600160a01b0316331415610f07565b34610300576020366003190112610300576112e1612e91565b6112e9613f08565b601580546001600160a01b0319166001600160a01b0392909216919091179055005b3461030057608036600319011261030057611324612e91565b61132c612ea7565b90604435606435926001600160401b038411610300573660238501121561030057611364611376943690602481600401359101613127565b9261137083838361319e565b33614418565b005b34610300576040366003190112610300576004356024356001600160401b038111610300576113ab9036906004016130dc565b9091600e5481101561075e575f52600d60205260405f2060ff600382015416156116705780546001600160a01b03166113e38361349b565b936113f16040519586612f56565b8385526113fd8461349b565b602086019490601f190136863760048401905f5b81811061145c578688604051918291602083019060208452518091526040830191905f5b818110611443575050500390f35b8251845285945060209384019390920191600101611435565b611467818386613552565b6040516331a9108f60e11b815290356004820152602081602481895afa90811561095d575f91611642575b50336001600160a01b03909116036116335785546001600160a01b03166114eb6114f96114c0848689613552565b3560405192839160208301958690916034926001600160601b03199060601b16825260148201520190565b03601f198101835282612f56565b51902090815f52600f60205260ff60405f205416611624576001915f52600f60205260405f208260ff19825416179055600c546115358161317c565b600c556115ba838060a01b03895416600261155185888b613552565b356040519261155f84612f04565b83526020830190815260408301905f8252855f52601160205260405f2093888060a01b0390898060a01b03905116166001600160601b0360a01b855416178455518784015551151591019060ff801983541691151516179055565b6115c4855461317c565b85556115d08133613f2f565b806115db838c6134b2565b52828060a01b03885416906115f1838689613552565b356040519081527f87c9474d9c731dd6ced957adae84621220fb03e140358fa6ca1aa046e4527dad60203392a401611411565b6315ec10b760e31b5f5260045ffd5b631022318760e21b5f5260045ffd5b611663915060203d8111611669575b61165b8183612f56565b81019061315d565b89611492565b503d611651565b6322f1e75560e11b5f5260045ffd5b3461030057602036600319011261030057600435600481101561030057600360a0910280601801549060ff601a6019830154920154169060ff604051938181168552818160081c16602086015260101c16604084015260608301526080820152f35b34610300576040366003190112610300576116fa612e91565b611702612ebd565b903315611787576001600160a01b031690811561177457335f52600560205260405f20825f526020526117448160405f209060ff801983541691151516179055565b60405190151581527f17307eab39ab6107e8899845ad3d59bd9653f200f220920489ca2b5937696c3160203392a3005b50630b61174360e31b5f5260045260245ffd5b63a9fbf51f60e01b5f525f60045260245ffd5b34610300576020366003190112610300576004355f52600f602052602060ff60405f2054166040519015158152f35b34610300575f366003190112610300576040515f6001546117e981612ecc565b80845290600181169081156118835750600114611825575b6105328361181181850382612f56565b604051918291602083526020830190612e6d565b60015f9081527fb10e2d527612073b26eecdfd717e6a320cf44b4afac2b0732d9fcbe2b7fa0cf6939250905b80821061186957509091508101602001611811611801565b919260018160209254838588010152019101909291611851565b60ff191660208086019190915291151560051b840190910191506118119050611801565b34610300576020366003190112610300576004356001600160401b038111610300576118d79036906004016130dc565b9060027f9b779b17422d0df92223018b32b4d1fa46e071723d6817e2486d003becc55f00541461195d576020916119319160027f9b779b17422d0df92223018b32b4d1fa46e071723d6817e2486d003becc55f0055613587565b60017f9b779b17422d0df92223018b32b4d1fa46e071723d6817e2486d003becc55f0055604051908152f35b633ee5aeb560e01b5f5260045ffd5b34610300575f36600319011261030057600a546040516001600160a01b039091168152602090f35b34610300575f366003190112610300576020601654604051908152f35b34610300575f36600319011261030057600b546040516001600160a01b039091168152602090f35b3461030057610120366003190112610300576004356024359061ffff82168092036103005760443561ffff81168091036103005760643561ffff8116809103610300576084359061ffff82168092036103005760a4359160ff83168084036103005760c4359460ff86169283870361030057610104356001600160401b03811161030057611a6b903690600401613051565b99909560018060a01b036013541633141580611d43575b6112a4575f8a8152600260205260409020546001600160a01b03161561053657895f52601060205260ff600260405f200154166112955781158015611d39575b8015611d31575b8015611d27575b61081357603281108015611d1c575b8015611d14575b8015611d0a575b61081357600585118015611d00575b61081357611be59561ffff956002958c9560405195611b1a87612f3a565b86526020860191825260408601948552606086019081526080860192835260a0860193845260c086019560e435875260e0810197600189525f52601060205260ff60481b60ff60401b61ffff60301b65ffff0000000063ffff000060405f209e8f9651169554975160101b16995160201b16945160301b16955160401b16955160481b169560ff60481b199360ff60401b199261ffff60301b199165ffffffffffff1916171617161716171717845551600184015551151591019060ff801983541691151516179055565b84611c12575b506040805160ff92831681529290911660208301525f51602061453d5f395f51905f5291a2005b835f52601260205260405f20906001600160401b0386116106db57611c3b8661063b8454612ecc565b5f90601f8711600114611c8d579580611c78925f51602061453d5f395f51905f5297985f92611c825750508160011b915f199060031b1c19161790565b90555b8392611beb565b0135905088806105f9565b601f19871691835f5260205f20925f5b818110611ce857509160019391895f51602061453d5f395f51905f52999a9410611ccf575b505050811b019055611c7b565b01355f19600384901b60f8161c19169055878080611cc2565b91936020600181928787013581550195019201611c9d565b5060048611611afc565b5060648311611aed565b508215611ae6565b5061012c8111611adf565b5060648411611ad0565b508315611ac9565b5060648211611ac2565b50600a546001600160a01b0316331415611a82565b34610300576020366003190112610300576004355f818152600260205260409020546001600160a01b031615610536575f52601160205260405f20604051611d9f81612f04565b81546001600160a01b03168082526001830154602080840182905260029094015460ff161515604093840181905283519283529382015290810191909152606090f35b34610300576020366003190112610300576004356001600160401b03811161030057611e12903690600401613051565b611e1a613f08565b6001600160401b0381116106db57611e33601454612ecc565b601f8111611ef1575b505f601f8211600114611e79578190611e69935f92611e6e5750508160011b915f199060031b1c19161790565b601455005b0135905083806105f9565b601f198216927fce6d7b5282bd9a3661ae061feed1dbda4e52ab073b1f9285be6e155d9c38d4ec915f5b858110611ed957508360019510611ec0575b505050811b01601455005b01355f19600384901b60f8161c19169055828080611eb5565b90926020600181928686013581550194019101611ea3565b60145f527fce6d7b5282bd9a3661ae061feed1dbda4e52ab073b1f9285be6e155d9c38d4ec601f830160051c81019160208410611f4a575b601f0160051c01905b818110611f3f5750611e3c565b5f8155600101611f32565b9091508190611f29565b34610300575f366003190112610300576013546040516001600160a01b039091168152602090f35b34610300575f366003190112610300576040517f00000000000000000000000000000000000000000000000000000000000000006001600160a01b03168152602090f35b3461030057602036600319011261030057611fd9612e91565b611fe1613f08565b6013546001600160a01b0391821691829082167f078c3b417dadf69374a59793b829c52001247130433427049317bde56607b1b75f80a36001600160a01b03191617601355005b34610300576020366003190112610300576120416130cc565b5f608060405161205081612f1f565b8281528260208201528260408201528260608201520152600360ff8216116108225760048110156107ff5761208c600360a0920260180161350f565b60ff608060405192828151168452826020820151166020850152826040820151166040850152606081015160608501520151166080820152f35b34610300575f366003190112610300576120de613f08565b600a80546001600160a01b031981169091555f906001600160a01b03167f8be0079c531659141344cd1fd0a4f28419497f9722a3daafe3b4186f6b6457e08280a3005b3461030057602036600319011261030057602061044961213f612e91565b6134de565b34610300576020366003190112610300576020612162600435613ed4565b6040516001600160a01b039091168152f35b34610300575f366003190112610300576040515f60145461219481612ecc565b808452906001811690811561188357506001146121bb576105328361181181850382612f56565b60145f9081527fce6d7b5282bd9a3661ae061feed1dbda4e52ab073b1f9285be6e155d9c38d4ec939250905b8082106121ff57509091508101602001611811611801565b9192600181602092548385880101520191019092916121e7565b3461030057602036600319011261030057612232612e91565b61223a613f08565b600b80546001600160a01b0319166001600160a01b0392909216919091179055005b3461030057602036600319011261030057600435600854811015612294576122856020916134c6565b90549060031b1c604051908152f35b63295f44f760e21b5f525f60045260245260445ffd5b34610300576020366003190112610300576004355f52601060205260405f20805461053260ff6002600185015494015416604051938360ff869560481c169060ff8160401c169061ffff8160301c169061ffff8160201c169061ffff808260101c1691168961307e565b34610300575f36600319011261030057600e546123308161349b565b9061233e6040519283612f56565b808252601f1961234d8261349b565b015f5b81811061248a5750505f5b81811061240e57826040518091602082016020835281518091526040830190602060408260051b8601019301915f905b82821061239a57505050500390f35b919360019193955060208091603f19898203018552875190848060a01b0382511681526080806123ec6123da8686015160a08887015260a0860190612e6d565b60408601518582036040870152612e6d565b936060810151151560608501520151910152960192019201859493919261238b565b806001915f52600d60205260405f2060046040519161242c83612f1f565b848060a01b038154168352612442858201612f77565b602084015261245360028201612f77565b604084015260ff600382015416151560608401520154608082015261247882866134b2565b5261248381856134b2565b500161235b565b60209060405161249981612f1f565b5f8152606083820152606060408201525f60608201525f608082015282828701015201612350565b34610300576113766124d236613017565b90604051926124e2602085612f56565b5f845261137083838361319e565b3461030057604036600319011261030057612509612e91565b60243590612516816134de565b8210156125455760018060a01b03165f52600660205260405f20905f52602052602060405f2054604051908152f35b63295f44f760e21b5f5260018060a01b031660045260245260445ffd5b346103005760403660031901126103005761257b612e91565b60405160609190911b6bffffffffffffffffffffffff1916602082019081526024356034830152906125b081605481016114eb565b5190205f52600f602052602060ff60405f2054166040519015158152f35b34610300576060366003190112610300576125e7612e91565b6024356001600160401b03811161030057612606903690600401613051565b6044356001600160401b03811161030057612625903690600401613051565b909161262f613f08565b600e549361263c8561317c565b600e556126766040519661264f88612f1f565b6001600160a01b031680885294612667368585613127565b94602089019586523691613127565b60408088019182526001606089018181525f60808b018181528a8252600d60205293902099518a546001600160a01b0319166001600160a01b0391909116178a559551805193999391840191906001600160401b0382116106db576126df826105d98554612ecc565b602090601f83116001146128965761270d92915f918361288b5750508160011b915f199060031b1c19161790565b90555b600282019751948551986001600160401b038a116106db5789899761273b60209c6105d98554612ecc565b8b90601f83116001146127ef5793600493612797847f1eabd33a83b9c620fab3c5c4cf51fca065d1cc07ea2be194a7d490c84a343da89b9a98956127b29560409b995f926127e45750508160011b915f199060031b1c19161790565b90555b511515600385019060ff801983541691151516179055565b519101558282519384928a8452818b850152848401375f828201840152601f01601f19168101030190a3604051908152f35b015190505f806105f9565b601f9998979695949392919919821690835f528a5f20915f5b818110612871575083600496937f1eabd33a83b9c620fab3c5c4cf51fca065d1cc07ea2be194a7d490c84a343da89c9d60409b9a9997946127b29760019510612859575b505050811b01905561279a565b01515f1960f88460031b161c191690555f808061284c565b828d015184559b8f019b8e9b506001909301928f01612808565b015190508c806105f9565b90601f19831691845f52815f20925f5b8181106128e157509084600195949392106128c9575b505050811b019055612710565b01515f1960f88460031b161c191690558b80806128bc565b929360206001819287860151815501950193016128a6565b346103005761137661290a36613017565b9161319e565b34610300576020366003190112610300576004355f52601260205261053261181160405f20612f77565b34610300575f366003190112610300576020600854604051908152f35b346103005760403660031901126103005760043560243590600e5481101561075e575f52600d60205260405f2060ff600382015416156116705780546040516331a9108f60e11b8152600481018490526001600160a01b0390911690602081602481855afa90811561095d575f91612b1f575b50336001600160a01b03909116036116335760405160609190911b6bffffffffffffffffffffffff1916602082019081526034820184905290612a1081605481016114eb565b51902091825f52600f60205260ff60405f205416611624576020925f52600f835260405f20600160ff19825416179055600c548092612a4e8261317c565b600c558054604051612ac5916001600160a01b0316612a6c82612f04565b81528681018581525f604080840182815287835260118b529120925183546001600160a01b039091166001600160a01b031990911617835590516001830155516002909101805460ff191691151560ff16919091179055565b60048101612ad3815461317c565b9055612adf8233613f2f565b546040519283526001600160a01b03169133907f87c9474d9c731dd6ced957adae84621220fb03e140358fa6ca1aa046e4527dad908690a4604051908152f35b612b38915060203d6020116116695761165b8183612f56565b846129ca565b3461030057604036600319011261030057600435612b5a612ebd565b612b62613f08565b600e5482101561075e5760207fddff2e0904df6dec2b9ce7db538095bdb975e6ba0a1dd2948f4deb60c7bf662891835f52600d8252612bb381600360405f20019060ff801983541691151516179055565b6040519015158152a2005b3461030057604036600319011261030057612bd7612e91565b602435612be381613ed4565b33151580612c95575b80612c68575b612c555781906001600160a01b0384811691167f8c5be1e5ebec7d5bd14f71427d1e84f3dd0314c0f7b2291e5b200ac8c7c3b9255f80a45f90815260046020526040902080546001600160a01b0319166001600160a01b03909216919091179055005b63a9fbf51f60e01b5f523360045260245ffd5b506001600160a01b0381165f90815260056020908152604080832033845290915290205460ff1615612bf2565b506001600160a01b038116331415612bec565b34610300576020366003190112610300576004355f52601160205260405f2060018060a01b0381541661053260ff60026001850154940154166040519384938491926040919493606084019560018060a01b0316845260208401521515910152565b3461030057602036600319011261030057600435612d2781613ed4565b505f526004602052602060018060a01b0360405f205416604051908152f35b34610300575f366003190112610300576040515f5f54612d6581612ecc565b80845290600181169081156118835750600114612d8c576105328361181181850382612f56565b5f8080527f290decd9548b62a8d60345a988386fc84ba6bc95484008f6362f93160ef3e563939250905b808210612dce57509091508101602001611811611801565b919260018160209254838588010152019101909291612db6565b34610300576020366003190112610300576004359063ffffffff60e01b82168092036103005760209163780e9d6360e01b8114908115612e2a575b5015158152f35b6380ac58cd60e01b811491508115612e5c575b8115612e4b575b5083612e23565b6301ffc9a760e01b14905083612e44565b635b5e139f60e01b81149150612e3d565b805180835260209291819084018484015e5f828201840152601f01601f1916010190565b600435906001600160a01b038216820361030057565b602435906001600160a01b038216820361030057565b60243590811515820361030057565b90600182811c92168015612efa575b6020831014612ee657565b634e487b7160e01b5f52602260045260245ffd5b91607f1691612edb565b606081019081106001600160401b038211176106db57604052565b60a081019081106001600160401b038211176106db57604052565b61010081019081106001600160401b038211176106db57604052565b90601f801991011681019081106001600160401b038211176106db57604052565b9060405191825f825492612f8a84612ecc565b8084529360018116908115612ff55750600114612fb1575b50612faf92500383612f56565b565b90505f9291925260205f20905f915b818310612fd9575050906020612faf928201015f612fa2565b6020919350806001915483858901015201910190918492612fc0565b905060209250612faf94915060ff191682840152151560051b8201015f612fa2565b6060906003190112610300576004356001600160a01b038116810361030057906024356001600160a01b0381168103610300579060443590565b9181601f84011215610300578235916001600160401b038311610300576020838186019501011161030057565b96949290989795939161010088019961ffff16885261ffff16602088015261ffff16604087015261ffff16606086015260ff16608085015260ff1660a084015260c083015215159060e00152565b6004359060ff8216820361030057565b9181601f84011215610300578235916001600160401b038311610300576020808501948460051b01011161030057565b6001600160401b0381116106db57601f01601f191660200190565b9291926131338261310c565b916131416040519384612f56565b829481845281830111610300578281602093845f960137010152565b9081602091031261030057516001600160a01b03811681036103005790565b5f19811461318a5760010190565b634e487b7160e01b5f52601160045260245ffd5b9091906001600160a01b0383168015613439575f838152600260205260409020546001600160a01b031693331515806133a9575b5084158015613376575b825f52600360205260405f2060018154019055845f52600260205260405f20836001600160601b0360a01b8254161790558483877fddf252ad1be2c89b69c2b068fc378daa952ba7f163c4a11628f55a4df523b3ef5f80a4156132f957600854845f5260096020528060405f2055600160401b8110156106db578461326a82600161328294016008556134c6565b90919082549060031b91821b915f19901b1916179055565b8185036132b9575b50506001600160a01b03168083036132a157505050565b6364283d7b60e01b5f5260045260245260445260645ffd5b6132c2906134de565b5f1981019190821161318a575f52600660205260405f20815f526020528260405f2055825f52600760205260405f20555f8061328a565b84821461328257613309856134de565b845f52600760205260405f205490865f52600660205260405f209181810361334b575b50855f5260076020525f60408120555f526020525f6040812055613282565b815f528260205260405f2054815f52836020528060405f20555f52600760205260405f20555f61332c565b5f85815260046020526040902080546001600160a01b0319169055855f52600360205260405f205f1981540190556131dc565b806133e8575b156133ba575f6131d2565b83856133d257637e27328960e01b5f5260045260245ffd5b63177e802f60e01b5f523360045260245260445ffd5b503385148015613417575b806133af57505f848152600460205260409020546001600160a01b031633146133af565b505f85815260056020908152604080832033845290915290205460ff166133f3565b633250574960e11b5f525f60045260245ffd5b601f821161345957505050565b5f5260205f20906020601f840160051c83019310613491575b601f0160051c01905b818110613486575050565b5f815560010161347b565b9091508190613472565b6001600160401b0381116106db5760051b60200190565b80518210156107ff5760209160051b010190565b6008548110156107ff5760085f5260205f2001905f90565b6001600160a01b031680156134fc575f52600360205260405f205490565b6322718ad960e21b5f525f60045260245ffd5b9060405161351c81612f1f565b608060ff600283958281548181168752818160081c16602088015260101c16604086015260018101546060860152015416910152565b91908110156107ff5760051b0190565b9190820180921161318a57565b90816020910312610300575180151581036103005790565b600382106108225781156107ff57803590815f52601060205260ff60405f205460481c16600381116108225760048110156107ff576135cb6003820260180161350f565b9260ff6040850151168503610822575f908152601160205260408120546102e082905290948594859460609486946001600160a01b0316938592918390815b838110613c43575050604051636eb1769f60e11b815233600482015230602482015290507f00000000000000000000000000000000000000000000000000000000000000006001600160a01b0316602082604481845afa91821561095d575f92613c0f575b506060860191825111613c005760205f916064845160405194859384926323b872dd60e01b845233600485015230602485015260448401525af1801561095d57613be3575b50805160011c906136c782601754613562565b6017555190810390811161318a576136e190601654613562565b601655600c5460405160208101914483524260408301523360601b606083015260748201528260948201526094815261371b60b482612f56565b5190209960ff60808601511660648c06105f14613b6857505f5b818110613b4b57505050600c549761374c8961317c565b600c556040516020810191825264189bdbdcdd60da1b604082015260258152613776604582612f56565b51902093600b8506606901908160691161318a5760649161ffff61379a9216614405565b0460648111613b43575b8015613b3b575b61ffff1696600b8560101c06606901908160691161318a5760649161ffff6137d39216614405565b0460648111613b33575b8015613b2b575b61ffff1695600b8560201c066069018060691161318a5761380e60649161ffff6102e05116614405565b049461012c8611613b21575b60328610613b18575b600b9060301c06606901908160691161318a5789986139ea9661397c9561ffff9560646138556002978f978a16614405565b0460648111613b10575b8015613b08575b876020911692019b60ff8d51169260405160208101906618dc98599d195960ca1b82528860278201526027815261389e604782612f56565b51902095604051906138af82612f3a565b8152602081019283528960408201961686526060810191825260ff608082019416845260a0810194855260c0810196875260e0810197600189525f52601060205260ff60481b60ff60401b61ffff60301b65ffff0000000063ffff000060405f209e8f9651169554975160101b16995160201b16945160301b16955160401b16955160481b169560ff60481b199360ff60401b199261ffff60301b199165ffffffffffff1916171617161716171717845551600184015551151591019060ff801983541691151516179055565b6040519061398982612f04565b81526002602082015f8152604083019060018252875f52601160205260405f209360018060a01b039060018060a01b03905116166001600160601b0360a01b85541617845551600184015551151591019060ff801983541691151516179055565b8051613a37575b5060ff906139ff8333613f2f565b5116604051908152600160208201527f763386aa390b413ac7a3d1e08dba082126496e180f1c515b1872162854bae07060403392a390565b915f52601260205260405f20908251916001600160401b0383116106db5782613a65869461063b8454612ecc565b602094601f8211600114613aa057908060ff9596613a97935f926127e45750508160011b915f199060031b1c19161790565b90555b906139f1565b601f19821690835f52865f20915f5b818110613aed57509683929160019460ff989910613ad5575b505050811b019055613a9a565b01515f1960f88460031b161c191690555f8080613ac8565b8289015184556020988901988a985060019094019301613aaf565b506001613866565b50606461385f565b60329550613823565b61012c955061381a565b5060016137e4565b5060646137dd565b5060016137ab565b5060646137a4565b80613b62613b5c6001938587613552565b35614227565b01613735565b98509650945050955050505f5b828110613bbf575050505060ff60205f920151166040519081528160208201527f763386aa390b413ac7a3d1e08dba082126496e180f1c515b1872162854bae07060403392a35f90565b808460019203613bd0575b01613b75565b613bde613b5c828686613552565b613bca565b613bfb9060203d602011610956576109478183612f56565b6136b4565b6313be252b60e01b5f5260045ffd5b9091506020813d602011613c3b575b81613c2b60209383612f56565b810103126103005751905f61366f565b3d9150613c1e565b613c4e818587613552565b35336001600160a01b03613c6183613ed4565b1603613e2757805f52601060205260405f209060405191613c8183612f3a565b805461ffff8116845260ff6002602086019361ffff8460101c16855261ffff8460201c16604088015261ffff8460301c166060880152828460401c1660808801528260a088019460481c168452600181015460c088015201541615801560e0860152613e185760ff8691511603613e09575f828152601160205260409020546001600160a01b03168b9003613dfa578b8f9161ffff8086511692168211613df0575b61ffff8091511692168211613de6575b8e61ffff60408601511661ffff6102e051168111613ddc575b5061ffff8060608701511691168111613dd4575b50613d71613d8f92613d8092613562565b61ffff60408601511690613562565b61ffff60608501511690613562565b858111613da2575b50505060010161360a565b93945096509c5098509060ff60808a9d015116945f5260126020526001613dcb60405f20612f77565b99905f80613d97565b9e505f613d60565b6102e0525f613d4c565b909e508e90613d33565b909c508c90613d23565b6348c63cad60e11b5f5260045ffd5b63af6b8d4960e01b5f5260045ffd5b639a42bb1d60e01b5f5260045ffd5b63d47ee09f60e01b5f5260045ffd5b3561ffff811681036103005790565b3560ff811681036103005790565b91908110156107ff5760051b81013590601e19813603018212156103005701908135916001600160401b038311610300576020018236038113610300579190565b600e54905f5b828110613ea657505090565b5f818152600d60205260409020546001600160a01b03838116911614613ece57600101613e9a565b91505090565b5f818152600260205260409020546001600160a01b0316908115613ef6575090565b637e27328960e01b5f5260045260245ffd5b600a546001600160a01b03163303613f1c57565b63118cdaa760e01b5f523360045260245ffd5b9060209060405190613f418383612f56565b5f82526001600160a01b038416938415613439575f8281526002855260409020546001600160a01b0316801580159190826141f6575b875f526003875260405f2060018154019055845f526002875260405f20886001600160601b0360a01b8254161790558488837fddf252ad1be2c89b69c2b068fc378daa952ba7f163c4a11628f55a4df523b3ef5f80a41561418057600854845f52600987528060405f2055600160401b8110156106db578461326a82600161400294016008556134c6565b868103614145575b50614132573b61401b575b50505050565b9161405891819495936040519384928392630a85bd0160e11b84523360048501525f60248501526044840152608060648401526084830190612e6d565b03815f885af15f91816140f2575b506140bb5750503d156140b3573d9061407e8261310c565b9161408c6040519384612f56565b82523d5f8284013e5b815191826140b05783633250574960e11b5f5260045260245ffd5b01fd5b606090614095565b909291506001600160e01b03191663757a42ff60e11b016140e057505f808080614015565b633250574960e11b5f5260045260245ffd5b9091508381813d831161412b575b61410a8183612f56565b8101031261030057516001600160e01b03198116810361030057905f614066565b503d614100565b6339e3563760e11b5f525f60045260245ffd5b61414e836134de565b5f19810190811161318a57875f526006875260405f20815f5287528460405f2055845f526007875260405f205561400a565b80871461400257614190816134de565b845f526007875260405f205490825f526006885260405f20918181036141ce575b50855f52600788525f60408120555f5286525f6040812055614002565b815f5282895260405f2054815f52838a528060405f20555f526007895260405f20555f6141b1565b5f8581526004602052604080822080546001600160a01b031916905583825260038952902080545f19019055613f77565b5f818152600260205260409020546001600160a01b03168015908115806143d2575b5f84815260026020526040812080546001600160a01b03191690558490837fddf252ad1be2c89b69c2b068fc378daa952ba7f163c4a11628f55a4df523b3ef8280a482156143575750600854835f5260096020528060405f2055600160401b8110156106db578361326a8260016142c394016008556134c6565b6008545f19810190811161318a57835f5260096020526142e760405f2054916134c6565b90549060031b1c6142fb8161326a846134c6565b5f52600960205260405f2055825f5260096020525f60408120556008548015614343575f190161432a816134c6565b8154905f199060031b1b1916905560085550613ef65750565b634e487b7160e01b5f52603160045260245ffd5b156142c357614365816134de565b835f52600760205260405f205490825f52600660205260405f20918181036143a7575b50845f5260076020525f60408120555f526020525f60408120556142c3565b815f528260205260405f2054815f52836020528060405f20555f52600760205260405f20555f614388565b5f84815260046020526040902080546001600160a01b0319169055815f52600360205260405f205f198154019055614249565b8181029291811591840414171561318a57565b823b614426575b5050505050565b604051630a85bd0160e11b81526001600160a01b039182166004820152918116602483015260448201939093526080606482015291169160209082908190614472906084830190612e6d565b03815f865af15f91816144f7575b506144d557503d156144ce573d6144968161310c565b906144a46040519283612f56565b81523d5f602083013e5b805190816144c95782633250574960e11b5f5260045260245ffd5b602001fd5b60606144ae565b6001600160e01b03191663757a42ff60e11b016140e057505f8080808061441f565b9091506020813d602011614534575b8161451360209383612f56565b8101031261030057516001600160e01b03198116810361030057905f614480565b3d915061450656fec00c20eb2df14c640de18a45fb80f455bb660b242fbb7582470a0c8eb843eb00a26469706673582212209c2058a70223dd3e988762b4abc6244227f9364d4a01881d04cdb9bf889b329164736f6c634300081c0033","opcodes":"PUSH1 0xA0 PUSH1 0x40 MSTORE CALLVALUE PUSH2 0x5CE JUMPI PUSH2 0x4BBD PUSH1 0x60 DUP2 CODESIZE SUB SWAP2 DUP3 PUSH2 0x1C DUP2 PUSH2 0x5F1 JUMP JUMPDEST SWAP4 DUP5 SWAP3 DUP4 CODECOPY DUP2 ADD SUB SLT PUSH2 0x5CE JUMPI PUSH2 0x32 DUP2 PUSH2 0x616 JUMP JUMPDEST SWAP1 PUSH2 0x4B PUSH1 0x40 PUSH2 0x44 PUSH1 0x20 DUP5 ADD PUSH2 0x616 JUMP JUMPDEST SWAP3 ADD PUSH2 0x616 JUMP JUMPDEST SWAP1 PUSH2 0x56 PUSH1 0x40 PUSH2 0x5F1 JUMP JUMPDEST SWAP3 PUSH1 0x8 DUP5 MSTORE PUSH8 0x2BB430B632B6B7B7 PUSH1 0xC1 SHL PUSH1 0x20 DUP6 ADD MSTORE PUSH2 0x76 PUSH1 0x40 PUSH2 0x5F1 JUMP JUMPDEST PUSH1 0x4 DUP2 MSTORE PUSH4 0x2BA6A7A7 PUSH1 0xE1 SHL PUSH1 0x20 DUP3 ADD MSTORE DUP5 MLOAD SWAP1 SWAP5 PUSH1 0x1 PUSH1 0x1 PUSH1 0x40 SHL SUB DUP3 GT PUSH2 0x4D5 JUMPI PUSH0 SLOAD SWAP1 PUSH1 0x1 DUP3 DUP2 SHR SWAP3 AND DUP1 ISZERO PUSH2 0x5C4 JUMPI JUMPDEST PUSH1 0x20 DUP4 LT EQ PUSH2 0x4B7 JUMPI DUP2 PUSH1 0x1F DUP5 SWAP4 GT PUSH2 0x557 JUMPI JUMPDEST POP PUSH1 0x20 SWAP1 PUSH1 0x1F DUP4 GT PUSH1 0x1 EQ PUSH2 0x4F4 JUMPI PUSH0 SWAP3 PUSH2 0x4E9 JUMPI JUMPDEST POP POP DUP2 PUSH1 0x1 SHL SWAP2 PUSH0 NOT SWAP1 PUSH1 0x3 SHL SHR NOT AND OR PUSH0 SSTORE JUMPDEST DUP4 MLOAD PUSH1 0x1 PUSH1 0x1 PUSH1 0x40 SHL SUB DUP2 GT PUSH2 0x4D5 JUMPI PUSH1 0x1 SLOAD PUSH1 0x1 DUP2 DUP2 SHR SWAP2 AND DUP1 ISZERO PUSH2 0x4CB JUMPI JUMPDEST PUSH1 0x20 DUP3 LT EQ PUSH2 0x4B7 JUMPI PUSH1 0x1F DUP2 GT PUSH2 0x454 JUMPI JUMPDEST POP PUSH1 0x20 SWAP5 PUSH1 0x1F DUP3 GT PUSH1 0x1 EQ PUSH2 0x3F1 JUMPI SWAP5 DUP2 SWAP3 SWAP4 SWAP5 SWAP6 PUSH0 SWAP3 PUSH2 0x3E6 JUMPI JUMPDEST POP POP DUP2 PUSH1 0x1 SHL SWAP2 PUSH0 NOT SWAP1 PUSH1 0x3 SHL SHR NOT AND OR PUSH1 0x1 SSTORE JUMPDEST CALLER ISZERO PUSH2 0x3D3 JUMPI PUSH1 0xA DUP1 SLOAD CALLER PUSH1 0x1 PUSH1 0x1 PUSH1 0xA0 SHL SUB NOT DUP3 AND DUP2 OR SWAP1 SWAP3 SSTORE PUSH1 0x1 PUSH1 0x1 PUSH1 0xA0 SHL SUB AND PUSH32 0x8BE0079C531659141344CD1FD0A4F28419497F9722A3DAAFE3B4186F6B6457E0 PUSH0 DUP1 LOG3 PUSH1 0x1 PUSH32 0x9B779B17422D0DF92223018B32B4D1FA46E071723D6817E2486D003BECC55F00 DUP2 SWAP1 SSTORE PUSH1 0xC SSTORE PUSH1 0x1 PUSH1 0x1 PUSH1 0xA0 SHL SUB SWAP1 DUP2 AND PUSH1 0x80 MSTORE PUSH1 0x13 DUP1 SLOAD PUSH1 0x1 PUSH1 0x1 PUSH1 0xA0 SHL SUB NOT SWAP1 DUP2 AND SWAP4 DUP4 AND SWAP4 SWAP1 SWAP4 OR SWAP1 SSTORE PUSH1 0xB DUP1 SLOAD SWAP1 SWAP3 AND SWAP3 AND SWAP2 SWAP1 SWAP2 OR SWAP1 SSTORE PUSH1 0xFF PUSH2 0x1FD PUSH2 0x5D2 JUMP JUMPDEST PUSH0 DUP2 MSTORE PUSH1 0x1 PUSH1 0x20 DUP3 ADD MSTORE PUSH1 0x3 PUSH1 0x40 DUP3 ADD MSTORE PUSH8 0x1BC16D674EC80000 PUSH1 0x60 DUP3 ADD DUP2 SWAP1 MSTORE PUSH1 0x64 PUSH1 0x80 SWAP1 SWAP3 ADD DUP3 SWAP1 MSTORE PUSH1 0x18 DUP1 SLOAD DUP5 NOT AND PUSH3 0xFFFF00 NOT AND PUSH3 0x30100 OR SWAP1 SSTORE PUSH1 0x19 SSTORE PUSH1 0x1A DUP1 SLOAD SWAP3 SWAP1 SWAP2 AND PUSH1 0xFF NOT SWAP1 SWAP3 AND SWAP2 SWAP1 SWAP2 OR SWAP1 SSTORE PUSH1 0xFF PUSH2 0x25D PUSH2 0x5D2 JUMP JUMPDEST PUSH1 0x1 DUP1 DUP3 MSTORE PUSH1 0x2 PUSH1 0x20 DUP4 ADD MSTORE PUSH1 0x3 PUSH1 0x40 DUP4 ADD MSTORE PUSH8 0x4563918244F40000 PUSH1 0x60 DUP4 ADD DUP2 SWAP1 MSTORE PUSH1 0x55 PUSH1 0x80 SWAP1 SWAP4 ADD DUP4 SWAP1 MSTORE PUSH1 0x1B DUP1 SLOAD SWAP3 DUP6 AND DUP6 NOT SWAP1 SWAP4 AND PUSH3 0xFFFF00 NOT AND SWAP3 SWAP1 SWAP3 OR PUSH3 0x30200 OR SWAP1 SWAP2 SSTORE PUSH1 0x1C SSTORE PUSH1 0x1D DUP1 SLOAD SWAP3 SWAP1 SWAP2 AND PUSH1 0xFF NOT SWAP1 SWAP3 AND SWAP2 SWAP1 SWAP2 OR SWAP1 SSTORE PUSH1 0xFF PUSH2 0x2C9 PUSH2 0x5D2 JUMP JUMPDEST PUSH1 0x2 DUP1 DUP3 MSTORE PUSH1 0x3 PUSH1 0x20 DUP1 DUP5 ADD SWAP2 SWAP1 SWAP2 MSTORE PUSH1 0x4 PUSH1 0x40 DUP5 ADD MSTORE PUSH8 0xD02AB486CEDC0000 PUSH1 0x60 DUP5 ADD DUP2 SWAP1 MSTORE PUSH1 0x3C PUSH1 0x80 SWAP1 SWAP5 ADD DUP5 SWAP1 MSTORE PUSH1 0x1E DUP1 SLOAD SWAP4 DUP7 AND DUP7 NOT SWAP1 SWAP5 AND PUSH3 0xFFFF00 NOT AND SWAP4 SWAP1 SWAP4 OR PUSH3 0x40300 OR SWAP1 SWAP3 SSTORE PUSH1 0x1F SWAP2 SWAP1 SWAP2 SSTORE DUP1 SLOAD SWAP3 SWAP1 SWAP2 AND PUSH1 0xFF NOT SWAP1 SWAP3 AND SWAP2 SWAP1 SWAP2 OR SWAP1 SSTORE PUSH1 0xFF PUSH2 0x33A PUSH2 0x5D2 JUMP JUMPDEST PUSH1 0x3 DUP1 DUP3 MSTORE PUSH1 0x4 PUSH1 0x20 DUP4 ADD MSTORE PUSH1 0x5 PUSH1 0x40 DUP1 DUP5 ADD SWAP2 SWAP1 SWAP2 MSTORE PUSH9 0x2B5E3AF16B1880000 PUSH1 0x60 DUP5 ADD DUP2 SWAP1 MSTORE PUSH1 0x23 PUSH1 0x80 SWAP1 SWAP5 ADD DUP5 SWAP1 MSTORE PUSH1 0x21 DUP1 SLOAD SWAP4 DUP7 AND DUP7 NOT SWAP1 SWAP5 AND PUSH3 0xFFFF00 NOT AND SWAP4 SWAP1 SWAP4 OR PUSH3 0x50400 OR SWAP1 SWAP3 SSTORE PUSH1 0x22 SWAP2 SWAP1 SWAP2 SSTORE DUP2 SLOAD SWAP3 DUP3 AND PUSH1 0xFF NOT SWAP1 SWAP4 AND SWAP3 SWAP1 SWAP3 OR SWAP1 SSTORE MLOAD PUSH2 0x4592 SWAP1 DUP2 PUSH2 0x62B DUP3 CODECOPY PUSH1 0x80 MLOAD DUP2 DUP2 DUP2 PUSH2 0x8BA ADD MSTORE DUP2 DUP2 PUSH2 0x9C8 ADD MSTORE DUP2 DUP2 PUSH2 0xA90 ADD MSTORE DUP2 DUP2 PUSH2 0x1F91 ADD MSTORE PUSH2 0x3630 ADD MSTORE RETURN JUMPDEST PUSH4 0x1E4FBDF7 PUSH1 0xE0 SHL PUSH0 MSTORE PUSH0 PUSH1 0x4 MSTORE PUSH1 0x24 PUSH0 REVERT JUMPDEST ADD MLOAD SWAP1 POP PUSH0 DUP1 PUSH2 0x137 JUMP JUMPDEST PUSH1 0x1F NOT DUP3 AND SWAP6 PUSH1 0x1 PUSH0 MSTORE DUP1 PUSH0 KECCAK256 SWAP2 PUSH0 JUMPDEST DUP9 DUP2 LT PUSH2 0x43C JUMPI POP DUP4 PUSH1 0x1 SWAP6 SWAP7 SWAP8 SWAP9 LT PUSH2 0x424 JUMPI JUMPDEST POP POP POP DUP2 SHL ADD PUSH1 0x1 SSTORE PUSH2 0x14C JUMP JUMPDEST ADD MLOAD PUSH0 NOT PUSH1 0xF8 DUP5 PUSH1 0x3 SHL AND SHR NOT AND SWAP1 SSTORE PUSH0 DUP1 DUP1 PUSH2 0x416 JUMP JUMPDEST SWAP2 SWAP3 PUSH1 0x20 PUSH1 0x1 DUP2 SWAP3 DUP7 DUP6 ADD MLOAD DUP2 SSTORE ADD SWAP5 ADD SWAP3 ADD PUSH2 0x401 JUMP JUMPDEST PUSH1 0x1 PUSH0 MSTORE PUSH32 0xB10E2D527612073B26EECDFD717E6A320CF44B4AFAC2B0732D9FCBE2B7FA0CF6 PUSH1 0x1F DUP4 ADD PUSH1 0x5 SHR DUP2 ADD SWAP2 PUSH1 0x20 DUP5 LT PUSH2 0x4AD JUMPI JUMPDEST PUSH1 0x1F ADD PUSH1 0x5 SHR ADD SWAP1 JUMPDEST DUP2 DUP2 LT PUSH2 0x4A2 JUMPI POP PUSH2 0x11B JUMP JUMPDEST PUSH0 DUP2 SSTORE PUSH1 0x1 ADD PUSH2 0x495 JUMP JUMPDEST SWAP1 SWAP2 POP DUP2 SWAP1 PUSH2 0x48C JUMP JUMPDEST PUSH4 0x4E487B71 PUSH1 0xE0 SHL PUSH0 MSTORE PUSH1 0x22 PUSH1 0x4 MSTORE PUSH1 0x24 PUSH0 REVERT JUMPDEST SWAP1 PUSH1 0x7F AND SWAP1 PUSH2 0x109 JUMP JUMPDEST PUSH4 0x4E487B71 PUSH1 0xE0 SHL PUSH0 MSTORE PUSH1 0x41 PUSH1 0x4 MSTORE PUSH1 0x24 PUSH0 REVERT JUMPDEST ADD MLOAD SWAP1 POP PUSH0 DUP1 PUSH2 0xD4 JUMP JUMPDEST PUSH0 DUP1 DUP1 MSTORE DUP3 DUP2 KECCAK256 SWAP4 POP PUSH1 0x1F NOT DUP6 AND SWAP1 JUMPDEST DUP2 DUP2 LT PUSH2 0x53F JUMPI POP SWAP1 DUP5 PUSH1 0x1 SWAP6 SWAP5 SWAP4 SWAP3 LT PUSH2 0x527 JUMPI JUMPDEST POP POP POP DUP2 SHL ADD PUSH0 SSTORE PUSH2 0xE8 JUMP JUMPDEST ADD MLOAD PUSH0 NOT PUSH1 0xF8 DUP5 PUSH1 0x3 SHL AND SHR NOT AND SWAP1 SSTORE PUSH0 DUP1 DUP1 PUSH2 0x51A JUMP JUMPDEST SWAP3 SWAP4 PUSH1 0x20 PUSH1 0x1 DUP2 SWAP3 DUP8 DUP7 ADD MLOAD DUP2 SSTORE ADD SWAP6 ADD SWAP4 ADD PUSH2 0x504 JUMP JUMPDEST PUSH0 DUP1 MSTORE SWAP1 SWAP2 POP PUSH32 0x290DECD9548B62A8D60345A988386FC84BA6BC95484008F6362F93160EF3E563 PUSH1 0x1F DUP5 ADD PUSH1 0x5 SHR DUP2 ADD SWAP2 PUSH1 0x20 DUP6 LT PUSH2 0x5BA JUMPI JUMPDEST SWAP1 PUSH1 0x1F DUP6 SWAP5 SWAP4 SWAP3 ADD PUSH1 0x5 SHR ADD SWAP1 JUMPDEST DUP2 DUP2 LT PUSH2 0x5AC JUMPI POP PUSH2 0xBE JUMP JUMPDEST PUSH0 DUP2 SSTORE DUP5 SWAP4 POP PUSH1 0x1 ADD PUSH2 0x59F JUMP JUMPDEST SWAP1 SWAP2 POP DUP2 SWAP1 PUSH2 0x591 JUMP JUMPDEST SWAP2 PUSH1 0x7F AND SWAP2 PUSH2 0xAA JUMP JUMPDEST PUSH0 DUP1 REVERT JUMPDEST PUSH1 0x40 MLOAD SWAP1 PUSH1 0xA0 DUP3 ADD PUSH1 0x1 PUSH1 0x1 PUSH1 0x40 SHL SUB DUP2 GT DUP4 DUP3 LT OR PUSH2 0x4D5 JUMPI PUSH1 0x40 MSTORE JUMP JUMPDEST PUSH1 0x40 MLOAD SWAP2 SWAP1 PUSH1 0x1F ADD PUSH1 0x1F NOT AND DUP3 ADD PUSH1 0x1 PUSH1 0x1 PUSH1 0x40 SHL SUB DUP2 GT DUP4 DUP3 LT OR PUSH2 0x4D5 JUMPI PUSH1 0x40 MSTORE JUMP JUMPDEST MLOAD SWAP1 PUSH1 0x1 PUSH1 0x1 PUSH1 0xA0 SHL SUB DUP3 AND DUP3 SUB PUSH2 0x5CE JUMPI JUMP INVALID PUSH2 0x300 DUP1 PUSH1 0x40 MSTORE PUSH1 0x4 CALLDATASIZE LT ISZERO PUSH2 0x13 JUMPI PUSH0 DUP1 REVERT JUMPDEST PUSH0 CALLDATALOAD PUSH1 0xE0 SHR SWAP1 DUP2 PUSH4 0x1FFC9A7 EQ PUSH2 0x2DE8 JUMPI POP DUP1 PUSH4 0x6FDDE03 EQ PUSH2 0x2D46 JUMPI DUP1 PUSH4 0x81812FC EQ PUSH2 0x2D0A JUMPI DUP1 PUSH4 0x8E305D0 EQ PUSH2 0x2CA8 JUMPI DUP1 PUSH4 0x95EA7B3 EQ PUSH2 0x2BBE JUMPI DUP1 PUSH4 0xB2680F9 EQ PUSH2 0x2B3E JUMPI DUP1 PUSH4 0xE427F17 EQ PUSH2 0x2957 JUMPI DUP1 PUSH4 0x18160DDD EQ PUSH2 0x293A JUMPI DUP1 PUSH4 0x227A0F88 EQ PUSH2 0x2910 JUMPI DUP1 PUSH4 0x23B872DD EQ PUSH2 0x28F9 JUMPI DUP1 PUSH4 0x296FB521 EQ PUSH2 0x25CE JUMPI DUP1 PUSH4 0x2C596D0F EQ PUSH2 0x2562 JUMPI DUP1 PUSH4 0x2F745C59 EQ PUSH2 0x24F0 JUMPI DUP1 PUSH4 0x42842E0E EQ PUSH2 0x24C1 JUMPI DUP1 PUSH4 0x46E63586 EQ PUSH2 0x2314 JUMPI DUP1 PUSH4 0x4C77FE2A EQ PUSH2 0x22AA JUMPI DUP1 PUSH4 0x4F6CCCE7 EQ PUSH2 0x225C JUMPI DUP1 PUSH4 0x56D3163D EQ PUSH2 0x2219 JUMPI DUP1 PUSH4 0x5B2BD79E EQ PUSH2 0x2174 JUMPI DUP1 PUSH4 0x6352211E EQ PUSH2 0x2144 JUMPI DUP1 PUSH4 0x70A08231 EQ PUSH2 0x2121 JUMPI DUP1 PUSH4 0x715018A6 EQ PUSH2 0x20C6 JUMPI DUP1 PUSH4 0x789EB33C EQ PUSH2 0x2028 JUMPI DUP1 PUSH4 0x7ADBF973 EQ PUSH2 0x1FC0 JUMPI DUP1 PUSH4 0x7B008D3B EQ PUSH2 0x1F7C JUMPI DUP1 PUSH4 0x7DC0D1D0 EQ PUSH2 0x1F54 JUMPI DUP1 PUSH4 0x7E518EC8 EQ PUSH2 0x1DE2 JUMPI DUP1 PUSH4 0x8329D109 EQ PUSH2 0x1D58 JUMPI DUP1 PUSH4 0x8A6F0C11 EQ PUSH2 0x19D9 JUMPI DUP1 PUSH4 0x8ADA6B0F EQ PUSH2 0x19B1 JUMPI DUP1 PUSH4 0x8C7810F5 EQ PUSH2 0x1994 JUMPI DUP1 PUSH4 0x8DA5CB5B EQ PUSH2 0x196C JUMPI DUP1 PUSH4 0x9350254F EQ PUSH2 0x18A7 JUMPI DUP1 PUSH4 0x95D89B41 EQ PUSH2 0x17C9 JUMPI DUP1 PUSH4 0x9C3CF4CD EQ PUSH2 0x179A JUMPI DUP1 PUSH4 0xA22CB465 EQ PUSH2 0x16E1 JUMPI DUP1 PUSH4 0xB0E88761 EQ PUSH2 0x167F JUMPI DUP1 PUSH4 0xB877F421 EQ PUSH2 0x1378 JUMPI DUP1 PUSH4 0xB88D4FDE EQ PUSH2 0x130B JUMPI DUP1 PUSH4 0xC0564277 EQ PUSH2 0x12C8 JUMPI DUP1 PUSH4 0xC4AE9043 EQ PUSH2 0xD82 JUMPI DUP1 PUSH4 0xC5263E8C EQ PUSH2 0xD65 JUMPI DUP1 PUSH4 0xC87B56DD EQ PUSH2 0xB01 JUMPI DUP1 PUSH4 0xC9913B7B EQ PUSH2 0x831 JUMPI DUP1 PUSH4 0xCA000EC1 EQ PUSH2 0x76D JUMPI DUP1 PUSH4 0xCEE50635 EQ PUSH2 0x545 JUMPI DUP1 PUSH4 0xD44888FE EQ PUSH2 0x46E JUMPI DUP1 PUSH4 0xD57F966B EQ PUSH2 0x451 JUMPI DUP1 PUSH4 0xDDAD5719 EQ PUSH2 0x426 JUMPI DUP1 PUSH4 0xE07257F2 EQ PUSH2 0x409 JUMPI DUP1 PUSH4 0xE985E9C5 EQ PUSH2 0x3B2 JUMPI DUP1 PUSH4 0xF2FDE38B EQ PUSH2 0x32C JUMPI DUP1 PUSH4 0xF96E8594 EQ PUSH2 0x304 JUMPI PUSH4 0xFDBDA0EC EQ PUSH2 0x26F JUMPI PUSH0 DUP1 REVERT JUMPDEST CALLVALUE PUSH2 0x300 JUMPI PUSH1 0x20 CALLDATASIZE PUSH1 0x3 NOT ADD SLT PUSH2 0x300 JUMPI PUSH1 0x4 CALLDATALOAD PUSH0 SWAP1 DUP2 MSTORE PUSH1 0xD PUSH1 0x20 MSTORE PUSH1 0x40 SWAP1 KECCAK256 DUP1 SLOAD PUSH1 0x1 PUSH1 0x1 PUSH1 0xA0 SHL SUB AND PUSH2 0x2A7 PUSH1 0x1 DUP4 ADD PUSH2 0x2F77 JUMP JUMPDEST SWAP2 PUSH2 0x2B4 PUSH1 0x2 DUP3 ADD PUSH2 0x2F77 JUMP JUMPDEST PUSH2 0x2EF PUSH1 0x4 PUSH1 0xFF PUSH1 0x3 DUP6 ADD SLOAD AND SWAP4 ADD SLOAD SWAP2 PUSH2 0x2E1 PUSH1 0x40 MLOAD SWAP7 DUP8 SWAP7 DUP8 MSTORE PUSH1 0xA0 PUSH1 0x20 DUP9 ADD MSTORE PUSH1 0xA0 DUP8 ADD SWAP1 PUSH2 0x2E6D JUMP JUMPDEST SWAP1 DUP6 DUP3 SUB PUSH1 0x40 DUP8 ADD MSTORE PUSH2 0x2E6D JUMP JUMPDEST SWAP2 ISZERO ISZERO PUSH1 0x60 DUP5 ADD MSTORE PUSH1 0x80 DUP4 ADD MSTORE SUB SWAP1 RETURN JUMPDEST PUSH0 DUP1 REVERT JUMPDEST CALLVALUE PUSH2 0x300 JUMPI PUSH0 CALLDATASIZE PUSH1 0x3 NOT ADD SLT PUSH2 0x300 JUMPI PUSH1 0x15 SLOAD PUSH1 0x40 MLOAD PUSH1 0x1 PUSH1 0x1 PUSH1 0xA0 SHL SUB SWAP1 SWAP2 AND DUP2 MSTORE PUSH1 0x20 SWAP1 RETURN JUMPDEST CALLVALUE PUSH2 0x300 JUMPI PUSH1 0x20 CALLDATASIZE PUSH1 0x3 NOT ADD SLT PUSH2 0x300 JUMPI PUSH2 0x345 PUSH2 0x2E91 JUMP JUMPDEST PUSH2 0x34D PUSH2 0x3F08 JUMP JUMPDEST PUSH1 0x1 PUSH1 0x1 PUSH1 0xA0 SHL SUB AND DUP1 ISZERO PUSH2 0x39F JUMPI PUSH1 0xA DUP1 SLOAD PUSH1 0x1 PUSH1 0x1 PUSH1 0xA0 SHL SUB NOT DUP2 AND DUP4 OR SWAP1 SWAP2 SSTORE PUSH1 0x1 PUSH1 0x1 PUSH1 0xA0 SHL SUB AND PUSH32 0x8BE0079C531659141344CD1FD0A4F28419497F9722A3DAAFE3B4186F6B6457E0 PUSH0 DUP1 LOG3 STOP JUMPDEST PUSH4 0x1E4FBDF7 PUSH1 0xE0 SHL PUSH0 MSTORE PUSH0 PUSH1 0x4 MSTORE PUSH1 0x24 PUSH0 REVERT JUMPDEST CALLVALUE PUSH2 0x300 JUMPI PUSH1 0x40 CALLDATASIZE PUSH1 0x3 NOT ADD SLT PUSH2 0x300 JUMPI PUSH2 0x3CB PUSH2 0x2E91 JUMP JUMPDEST PUSH2 0x3D3 PUSH2 0x2EA7 JUMP JUMPDEST SWAP1 PUSH1 0x1 DUP1 PUSH1 0xA0 SHL SUB AND PUSH0 MSTORE PUSH1 0x5 PUSH1 0x20 MSTORE PUSH1 0x40 PUSH0 KECCAK256 SWAP1 PUSH1 0x1 DUP1 PUSH1 0xA0 SHL SUB AND PUSH0 MSTORE PUSH1 0x20 MSTORE PUSH1 0x20 PUSH1 0xFF PUSH1 0x40 PUSH0 KECCAK256 SLOAD AND PUSH1 0x40 MLOAD SWAP1 ISZERO ISZERO DUP2 MSTORE RETURN JUMPDEST CALLVALUE PUSH2 0x300 JUMPI PUSH0 CALLDATASIZE PUSH1 0x3 NOT ADD SLT PUSH2 0x300 JUMPI PUSH1 0x20 PUSH1 0x17 SLOAD PUSH1 0x40 MLOAD SWAP1 DUP2 MSTORE RETURN JUMPDEST CALLVALUE PUSH2 0x300 JUMPI PUSH1 0x20 CALLDATASIZE PUSH1 0x3 NOT ADD SLT PUSH2 0x300 JUMPI PUSH1 0x20 PUSH2 0x449 PUSH2 0x444 PUSH2 0x2E91 JUMP JUMPDEST PUSH2 0x3E94 JUMP JUMPDEST PUSH1 0x40 MLOAD SWAP1 DUP2 MSTORE RETURN JUMPDEST CALLVALUE PUSH2 0x300 JUMPI PUSH0 CALLDATASIZE PUSH1 0x3 NOT ADD SLT PUSH2 0x300 JUMPI PUSH1 0x20 PUSH1 0xE SLOAD PUSH1 0x40 MLOAD SWAP1 DUP2 MSTORE RETURN JUMPDEST CALLVALUE PUSH2 0x300 JUMPI PUSH1 0x20 CALLDATASIZE PUSH1 0x3 NOT ADD SLT PUSH2 0x300 JUMPI PUSH1 0x4 CALLDATALOAD PUSH0 DUP2 DUP2 MSTORE PUSH1 0x2 PUSH1 0x20 MSTORE PUSH1 0x40 SWAP1 KECCAK256 SLOAD PUSH1 0x1 PUSH1 0x1 PUSH1 0xA0 SHL SUB AND ISZERO PUSH2 0x536 JUMPI PUSH0 MSTORE PUSH1 0x10 PUSH1 0x20 MSTORE PUSH1 0x40 PUSH0 KECCAK256 PUSH1 0x40 MLOAD PUSH2 0x4B5 DUP2 PUSH2 0x2F3A JUMP JUMPDEST PUSH2 0x532 PUSH1 0xE0 DUP4 SLOAD SWAP4 PUSH2 0xFFFF DUP6 AND SWAP4 DUP5 DUP2 MSTORE PUSH2 0xFFFF DUP7 PUSH1 0x10 SHR AND SWAP6 DUP7 PUSH1 0x20 DUP4 ADD MSTORE PUSH2 0xFFFF DUP2 PUSH1 0x20 SHR AND DUP1 PUSH1 0x40 DUP5 ADD MSTORE PUSH2 0xFFFF DUP3 PUSH1 0x30 SHR AND SWAP1 DUP2 PUSH1 0x60 DUP6 ADD MSTORE PUSH1 0xFF DUP1 DUP5 PUSH1 0x40 SHR AND SWAP4 DUP5 PUSH1 0x80 DUP8 ADD MSTORE PUSH1 0x48 SHR AND SWAP4 DUP5 PUSH1 0xA0 DUP3 ADD MSTORE PUSH1 0xFF PUSH1 0x2 PUSH1 0x1 DUP9 ADD SLOAD SWAP8 DUP9 PUSH1 0xC0 DUP6 ADD MSTORE ADD SLOAD AND ISZERO ISZERO SWAP7 DUP8 SWAP2 ADD MSTORE PUSH1 0x40 MLOAD SWAP9 DUP10 SWAP9 DUP10 PUSH2 0x307E JUMP JUMPDEST SUB SWAP1 RETURN JUMPDEST PUSH4 0xDC114E6B PUSH1 0xE0 SHL PUSH0 MSTORE PUSH1 0x4 PUSH0 REVERT JUMPDEST CALLVALUE PUSH2 0x300 JUMPI PUSH1 0x60 CALLDATASIZE PUSH1 0x3 NOT ADD SLT PUSH2 0x300 JUMPI PUSH1 0x4 CALLDATALOAD PUSH1 0x24 CALLDATALOAD PUSH1 0x1 PUSH1 0x1 PUSH1 0x40 SHL SUB DUP2 GT PUSH2 0x300 JUMPI PUSH2 0x578 SWAP1 CALLDATASIZE SWAP1 PUSH1 0x4 ADD PUSH2 0x3051 JUMP JUMPDEST SWAP2 PUSH1 0x44 CALLDATALOAD PUSH1 0x1 PUSH1 0x1 PUSH1 0x40 SHL SUB DUP2 GT PUSH2 0x300 JUMPI PUSH2 0x598 SWAP1 CALLDATASIZE SWAP1 PUSH1 0x4 ADD PUSH2 0x3051 JUMP JUMPDEST SWAP3 SWAP1 SWAP4 PUSH2 0x5A3 PUSH2 0x3F08 JUMP JUMPDEST PUSH1 0xE SLOAD DUP4 LT ISZERO PUSH2 0x75E JUMPI DUP3 PUSH0 MSTORE PUSH1 0xD PUSH1 0x20 MSTORE PUSH1 0x1 PUSH1 0x40 PUSH0 KECCAK256 ADD SWAP2 PUSH1 0x1 PUSH1 0x1 PUSH1 0x40 SHL SUB DUP3 GT PUSH2 0x6DB JUMPI PUSH2 0x5DF DUP3 PUSH2 0x5D9 DUP6 SLOAD PUSH2 0x2ECC JUMP JUMPDEST DUP6 PUSH2 0x344C JUMP JUMPDEST PUSH0 SWAP1 PUSH1 0x1F DUP4 GT PUSH1 0x1 EQ PUSH2 0x6FA JUMPI PUSH2 0x60D SWAP3 SWAP2 PUSH0 SWAP2 DUP4 PUSH2 0x6EF JUMPI JUMPDEST POP POP DUP2 PUSH1 0x1 SHL SWAP2 PUSH0 NOT SWAP1 PUSH1 0x3 SHL SHR NOT AND OR SWAP1 JUMP JUMPDEST SWAP1 SSTORE JUMPDEST PUSH0 MSTORE PUSH1 0xD PUSH1 0x20 MSTORE PUSH1 0x2 PUSH1 0x40 PUSH0 KECCAK256 ADD SWAP1 PUSH1 0x1 PUSH1 0x1 PUSH1 0x40 SHL SUB DUP2 GT PUSH2 0x6DB JUMPI PUSH2 0x641 DUP2 PUSH2 0x63B DUP5 SLOAD PUSH2 0x2ECC JUMP JUMPDEST DUP5 PUSH2 0x344C JUMP JUMPDEST PUSH0 PUSH1 0x1F DUP3 GT PUSH1 0x1 EQ PUSH2 0x67D JUMPI DUP2 SWAP1 PUSH2 0x66E SWAP4 SWAP5 PUSH0 SWAP3 PUSH2 0x672 JUMPI POP POP DUP2 PUSH1 0x1 SHL SWAP2 PUSH0 NOT SWAP1 PUSH1 0x3 SHL SHR NOT AND OR SWAP1 JUMP JUMPDEST SWAP1 SSTORE STOP JUMPDEST ADD CALLDATALOAD SWAP1 POP DUP5 DUP1 PUSH2 0x5F9 JUMP JUMPDEST PUSH1 0x1F NOT DUP3 AND SWAP4 DUP4 PUSH0 MSTORE PUSH1 0x20 PUSH0 KECCAK256 SWAP2 PUSH0 JUMPDEST DUP7 DUP2 LT PUSH2 0x6C3 JUMPI POP DUP4 PUSH1 0x1 SWAP6 SWAP7 LT PUSH2 0x6AA JUMPI JUMPDEST POP POP POP DUP2 SHL ADD SWAP1 SSTORE STOP JUMPDEST ADD CALLDATALOAD PUSH0 NOT PUSH1 0x3 DUP5 SWAP1 SHL PUSH1 0xF8 AND SHR NOT AND SWAP1 SSTORE DUP4 DUP1 DUP1 PUSH2 0x6A0 JUMP JUMPDEST SWAP1 SWAP3 PUSH1 0x20 PUSH1 0x1 DUP2 SWAP3 DUP7 DUP7 ADD CALLDATALOAD DUP2 SSTORE ADD SWAP5 ADD SWAP2 ADD PUSH2 0x68D JUMP JUMPDEST PUSH4 0x4E487B71 PUSH1 0xE0 SHL PUSH0 MSTORE PUSH1 0x41 PUSH1 0x4 MSTORE PUSH1 0x24 PUSH0 REVERT JUMPDEST ADD CALLDATALOAD SWAP1 POP DUP8 DUP1 PUSH2 0x5F9 JUMP JUMPDEST PUSH1 0x1F NOT DUP4 AND SWAP2 DUP5 PUSH0 MSTORE PUSH1 0x20 PUSH0 KECCAK256 SWAP3 PUSH0 JUMPDEST DUP2 DUP2 LT PUSH2 0x746 JUMPI POP SWAP1 DUP5 PUSH1 0x1 SWAP6 SWAP5 SWAP4 SWAP3 LT PUSH2 0x72D JUMPI JUMPDEST POP POP POP DUP2 SHL ADD SWAP1 SSTORE PUSH2 0x610 JUMP JUMPDEST ADD CALLDATALOAD PUSH0 NOT PUSH1 0x3 DUP5 SWAP1 SHL PUSH1 0xF8 AND SHR NOT AND SWAP1 SSTORE DUP7 DUP1 DUP1 PUSH2 0x720 JUMP JUMPDEST SWAP2 SWAP4 PUSH1 0x20 PUSH1 0x1 DUP2 SWAP3 DUP8 DUP8 ADD CALLDATALOAD DUP2 SSTORE ADD SWAP6 ADD SWAP3 ADD PUSH2 0x70A JUMP JUMPDEST PUSH4 0x42414A4F PUSH1 0xE1 SHL PUSH0 MSTORE PUSH1 0x4 PUSH0 REVERT JUMPDEST CALLVALUE PUSH2 0x300 JUMPI PUSH1 0x80 CALLDATASIZE PUSH1 0x3 NOT ADD SLT PUSH2 0x300 JUMPI PUSH2 0x786 PUSH2 0x30CC JUMP JUMPDEST PUSH1 0x24 CALLDATALOAD SWAP1 PUSH1 0xFF DUP3 AND DUP3 SUB PUSH2 0x300 JUMPI PUSH1 0x64 CALLDATALOAD SWAP2 PUSH1 0xFF DUP4 AND DUP1 SWAP4 SUB PUSH2 0x300 JUMPI PUSH2 0x7AB PUSH2 0x3F08 JUMP JUMPDEST PUSH1 0x3 PUSH1 0xFF DUP4 AND GT PUSH2 0x822 JUMPI PUSH1 0x64 DUP4 GT PUSH2 0x813 JUMPI PUSH1 0x4 DUP3 LT ISZERO PUSH2 0x7FF JUMPI PUSH1 0x3 PUSH1 0x1A SWAP3 MUL SWAP1 DUP2 PUSH1 0x18 ADD SWAP1 PUSH3 0xFF0000 DUP3 SLOAD SWAP2 PUSH1 0x10 SHL AND SWAP1 PUSH3 0xFF0000 NOT AND OR SWAP1 SSTORE PUSH1 0x44 CALLDATALOAD PUSH1 0x19 DUP3 ADD SSTORE ADD SWAP1 PUSH1 0xFF NOT DUP3 SLOAD AND OR SWAP1 SSTORE PUSH0 DUP1 RETURN JUMPDEST PUSH4 0x4E487B71 PUSH1 0xE0 SHL PUSH0 MSTORE PUSH1 0x32 PUSH1 0x4 MSTORE PUSH1 0x24 PUSH0 REVERT JUMPDEST PUSH4 0x270B168D PUSH1 0xE0 SHL PUSH0 MSTORE PUSH1 0x4 PUSH0 REVERT JUMPDEST PUSH4 0x5811E337 PUSH1 0xE0 SHL PUSH0 MSTORE PUSH1 0x4 PUSH0 REVERT JUMPDEST CALLVALUE PUSH2 0x300 JUMPI PUSH1 0x20 CALLDATASIZE PUSH1 0x3 NOT ADD SLT PUSH2 0x300 JUMPI PUSH2 0x84A PUSH2 0x2E91 JUMP JUMPDEST PUSH2 0x852 PUSH2 0x3F08 JUMP JUMPDEST PUSH1 0x16 SLOAD SWAP1 PUSH1 0x17 SLOAD DUP3 ISZERO DUP1 DUP1 SWAP2 PUSH2 0xAF9 JUMPI JUMPDEST PUSH2 0xAEA JUMPI PUSH0 PUSH1 0x16 SSTORE PUSH0 PUSH1 0x17 SSTORE ISZERO PUSH2 0xA60 JUMPI JUMPDEST DUP1 ISZERO ISZERO DUP1 DUP1 PUSH2 0xA4C JUMPI JUMPDEST ISZERO PUSH2 0x968 JUMPI POP PUSH1 0x15 SLOAD PUSH1 0x40 MLOAD PUSH4 0xA9059CBB PUSH1 0xE0 SHL DUP2 MSTORE PUSH1 0x1 PUSH1 0x1 PUSH1 0xA0 SHL SUB SWAP1 SWAP2 AND PUSH1 0x4 DUP3 ADD MSTORE PUSH1 0x24 DUP2 ADD DUP3 SWAP1 MSTORE SWAP2 PUSH1 0x20 DUP4 DUP1 PUSH1 0x44 DUP2 ADD SUB DUP2 PUSH0 PUSH32 0x0 PUSH1 0x1 PUSH1 0x1 PUSH1 0xA0 SHL SUB AND GAS CALL SWAP2 DUP3 ISZERO PUSH2 0x95D JUMPI PUSH32 0x4FCBDE66B5E814A7EF82A2BEF143D3795BC79CAEB885F6D2497CFC93CF89D973 SWAP4 PUSH1 0x40 SWAP4 PUSH2 0x92E JUMPI JUMPDEST POP JUMPDEST DUP3 MLOAD SWAP5 DUP6 MSTORE PUSH1 0x20 DUP6 ADD MSTORE PUSH1 0x1 PUSH1 0x1 PUSH1 0xA0 SHL SUB AND SWAP3 LOG2 STOP JUMPDEST PUSH2 0x94F SWAP1 PUSH1 0x20 RETURNDATASIZE PUSH1 0x20 GT PUSH2 0x956 JUMPI JUMPDEST PUSH2 0x947 DUP2 DUP4 PUSH2 0x2F56 JUMP JUMPDEST DUP2 ADD SWAP1 PUSH2 0x356F JUMP JUMPDEST POP DUP6 PUSH2 0x915 JUMP JUMPDEST POP RETURNDATASIZE PUSH2 0x93D JUMP JUMPDEST PUSH1 0x40 MLOAD RETURNDATASIZE PUSH0 DUP3 RETURNDATACOPY RETURNDATASIZE SWAP1 REVERT JUMPDEST PUSH2 0x997 JUMPI JUMPDEST PUSH32 0x4FCBDE66B5E814A7EF82A2BEF143D3795BC79CAEB885F6D2497CFC93CF89D973 SWAP2 PUSH1 0x40 SWAP2 PUSH2 0x917 JUMP JUMPDEST PUSH1 0x40 MLOAD PUSH4 0xA9059CBB PUSH1 0xE0 SHL DUP2 MSTORE PUSH1 0x1 PUSH1 0x1 PUSH1 0xA0 SHL SUB DUP4 AND PUSH1 0x4 DUP3 ADD MSTORE PUSH1 0x24 DUP2 ADD DUP3 SWAP1 MSTORE SWAP2 PUSH1 0x20 DUP4 DUP1 PUSH1 0x44 DUP2 ADD SUB DUP2 PUSH0 PUSH32 0x0 PUSH1 0x1 PUSH1 0x1 PUSH1 0xA0 SHL SUB AND GAS CALL SWAP2 DUP3 ISZERO PUSH2 0x95D JUMPI PUSH32 0x4FCBDE66B5E814A7EF82A2BEF143D3795BC79CAEB885F6D2497CFC93CF89D973 SWAP4 PUSH1 0x40 SWAP4 PUSH2 0xA2D JUMPI JUMPDEST POP SWAP2 POP SWAP2 POP PUSH2 0x96D JUMP JUMPDEST PUSH2 0xA45 SWAP1 PUSH1 0x20 RETURNDATASIZE PUSH1 0x20 GT PUSH2 0x956 JUMPI PUSH2 0x947 DUP2 DUP4 PUSH2 0x2F56 JUMP JUMPDEST POP DUP6 PUSH2 0xA23 JUMP JUMPDEST POP PUSH1 0x15 SLOAD PUSH1 0x1 PUSH1 0x1 PUSH1 0xA0 SHL SUB AND ISZERO ISZERO PUSH2 0x87F JUMP JUMPDEST PUSH1 0x40 MLOAD PUSH4 0xA9059CBB PUSH1 0xE0 SHL DUP2 MSTORE PUSH1 0x1 PUSH1 0x1 PUSH1 0xA0 SHL SUB DUP4 AND PUSH1 0x4 DUP3 ADD MSTORE PUSH1 0x24 DUP2 ADD DUP5 SWAP1 MSTORE PUSH1 0x20 DUP2 DUP1 PUSH1 0x44 DUP2 ADD SUB DUP2 PUSH0 PUSH32 0x0 PUSH1 0x1 PUSH1 0x1 PUSH1 0xA0 SHL SUB AND GAS CALL DUP1 ISZERO PUSH2 0x95D JUMPI PUSH2 0xACB JUMPI JUMPDEST POP PUSH2 0x875 JUMP JUMPDEST PUSH2 0xAE3 SWAP1 PUSH1 0x20 RETURNDATASIZE PUSH1 0x20 GT PUSH2 0x956 JUMPI PUSH2 0x947 DUP2 DUP4 PUSH2 0x2F56 JUMP JUMPDEST POP DUP4 PUSH2 0xAC5 JUMP JUMPDEST PUSH4 0x686827B PUSH1 0xE5 SHL PUSH0 MSTORE PUSH1 0x4 PUSH0 REVERT JUMPDEST POP DUP2 ISZERO PUSH2 0x863 JUMP JUMPDEST CALLVALUE PUSH2 0x300 JUMPI PUSH1 0x20 CALLDATASIZE PUSH1 0x3 NOT ADD SLT PUSH2 0x300 JUMPI PUSH1 0x4 CALLDATALOAD PUSH0 DUP2 DUP2 MSTORE PUSH1 0x2 PUSH1 0x20 MSTORE PUSH1 0x40 SWAP1 KECCAK256 SLOAD PUSH1 0x1 PUSH1 0x1 PUSH1 0xA0 SHL SUB AND ISZERO PUSH2 0x536 JUMPI DUP1 PUSH0 MSTORE PUSH1 0x10 PUSH1 0x20 MSTORE PUSH1 0x40 PUSH0 KECCAK256 SWAP1 PUSH1 0x40 MLOAD SWAP1 PUSH2 0xB4B DUP3 PUSH2 0x2F3A JUMP JUMPDEST DUP3 SLOAD SWAP3 PUSH2 0xFFFF DUP5 AND SWAP4 DUP5 DUP5 MSTORE PUSH1 0xE0 PUSH2 0xFFFF DUP3 PUSH1 0x10 SHR AND SWAP3 DUP4 PUSH1 0x20 DUP8 ADD MSTORE PUSH2 0xFFFF DUP4 PUSH1 0x20 SHR AND SWAP3 DUP4 PUSH1 0x40 DUP9 ADD MSTORE PUSH2 0xFFFF DUP2 PUSH1 0x30 SHR AND SWAP7 DUP8 PUSH1 0x60 DUP3 ADD MSTORE PUSH1 0xFF PUSH1 0x2 DUP2 DUP1 DUP6 PUSH1 0x40 SHR AND SWAP5 DUP6 PUSH1 0x80 DUP7 ADD MSTORE PUSH1 0x48 SHR AND SWAP5 DUP6 PUSH1 0xA0 DUP6 ADD MSTORE PUSH1 0x1 DUP2 ADD SLOAD PUSH1 0xC0 DUP6 ADD MSTORE ADD SLOAD AND ISZERO ISZERO SWAP4 DUP5 SWAP2 ADD MSTORE PUSH1 0x1 DUP1 PUSH1 0xA0 SHL SUB PUSH1 0xB SLOAD AND SWAP7 DUP7 PUSH0 MSTORE PUSH1 0x11 PUSH1 0x20 MSTORE PUSH1 0xFF PUSH1 0x2 PUSH1 0x40 PUSH0 KECCAK256 ADD SLOAD AND SWAP5 DUP8 PUSH0 MSTORE PUSH1 0x12 PUSH1 0x20 MSTORE PUSH1 0x40 PUSH0 KECCAK256 SWAP7 PUSH1 0x40 MLOAD SWAP11 DUP12 SWAP10 PUSH4 0x6CB3FDCD PUSH1 0xE0 SHL DUP12 MSTORE PUSH1 0x4 DUP12 ADD MSTORE PUSH1 0x24 DUP11 ADD MSTORE PUSH1 0x44 DUP10 ADD MSTORE PUSH1 0x64 DUP9 ADD MSTORE PUSH1 0x84 DUP8 ADD MSTORE PUSH1 0xA4 DUP7 ADD MSTORE PUSH1 0xC4 DUP6 ADD MSTORE PUSH1 0xE4 DUP5 ADD MSTORE ISZERO ISZERO PUSH2 0x104 DUP4 ADD MSTORE PUSH2 0x140 PUSH2 0x124 DUP4 ADD MSTORE PUSH0 SWAP1 DUP1 SLOAD SWAP1 PUSH2 0xC3B DUP3 PUSH2 0x2ECC JUMP JUMPDEST SWAP2 DUP3 PUSH2 0x144 DUP7 ADD MSTORE PUSH1 0x1 DUP2 AND SWAP1 DUP2 PUSH0 EQ PUSH2 0xD3F JUMPI POP PUSH1 0x1 EQ PUSH2 0xD02 JUMPI JUMPDEST POP POP SWAP2 DUP2 DUP1 PUSH0 SWAP5 SUB SWAP2 GAS STATICCALL DUP1 ISZERO PUSH2 0x95D JUMPI PUSH0 SWAP1 PUSH2 0xC88 JUMPI JUMPDEST PUSH2 0x532 SWAP1 PUSH1 0x40 MLOAD SWAP2 DUP3 SWAP2 PUSH1 0x20 DUP4 MSTORE PUSH1 0x20 DUP4 ADD SWAP1 PUSH2 0x2E6D JUMP JUMPDEST POP RETURNDATASIZE DUP1 PUSH0 DUP4 RETURNDATACOPY PUSH2 0xC98 DUP2 DUP4 PUSH2 0x2F56 JUMP JUMPDEST DUP2 ADD SWAP1 PUSH1 0x20 DUP2 DUP4 SUB SLT PUSH2 0x300 JUMPI DUP1 MLOAD SWAP1 PUSH1 0x1 PUSH1 0x1 PUSH1 0x40 SHL SUB DUP3 GT PUSH2 0x300 JUMPI ADD SWAP1 DUP1 PUSH1 0x1F DUP4 ADD SLT ISZERO PUSH2 0x300 JUMPI DUP2 MLOAD PUSH2 0xCCE DUP2 PUSH2 0x310C JUMP JUMPDEST SWAP2 PUSH2 0xCDC PUSH1 0x40 MLOAD SWAP4 DUP5 PUSH2 0x2F56 JUMP JUMPDEST DUP2 DUP4 MSTORE PUSH1 0x20 DUP3 DUP6 ADD ADD GT PUSH2 0x300 JUMPI PUSH1 0x20 DUP2 PUSH0 SWAP3 DUP3 PUSH2 0x532 SWAP7 ADD DUP4 DUP7 ADD MCOPY DUP4 ADD ADD MSTORE PUSH2 0xC70 JUMP JUMPDEST PUSH0 SWAP1 DUP2 MSTORE PUSH1 0x20 DUP2 KECCAK256 SWAP1 SWAP3 POP JUMPDEST DUP2 DUP4 LT PUSH2 0xD24 JUMPI POP POP DUP2 ADD PUSH2 0x164 ADD DUP2 DUP1 PUSH2 0xC58 JUMP JUMPDEST DUP1 SLOAD PUSH2 0x164 DUP5 DUP9 ADD ADD MSTORE DUP6 SWAP4 POP PUSH1 0x20 SWAP1 SWAP3 ADD SWAP2 PUSH1 0x1 ADD PUSH2 0xD0E JUMP JUMPDEST PUSH1 0xFF NOT AND PUSH2 0x164 DUP1 DUP8 ADD SWAP2 SWAP1 SWAP2 MSTORE SWAP3 ISZERO ISZERO PUSH1 0x5 SHL DUP6 ADD SWAP1 SWAP3 ADD SWAP3 POP DUP4 SWAP2 POP DUP2 SWAP1 POP PUSH2 0xC58 JUMP JUMPDEST CALLVALUE PUSH2 0x300 JUMPI PUSH0 CALLDATASIZE PUSH1 0x3 NOT ADD SLT PUSH2 0x300 JUMPI PUSH1 0x20 PUSH1 0xC SLOAD PUSH1 0x40 MLOAD SWAP1 DUP2 MSTORE RETURN JUMPDEST CALLVALUE PUSH2 0x300 JUMPI PUSH2 0x120 CALLDATASIZE PUSH1 0x3 NOT ADD SLT PUSH2 0x300 JUMPI PUSH1 0x4 CALLDATALOAD PUSH1 0x1 PUSH1 0x1 PUSH1 0x40 SHL SUB DUP2 GT PUSH2 0x300 JUMPI PUSH2 0xDB3 SWAP1 CALLDATASIZE SWAP1 PUSH1 0x4 ADD PUSH2 0x30DC JUMP JUMPDEST PUSH2 0x240 MSTORE PUSH2 0x2C0 MSTORE PUSH1 0x24 CALLDATALOAD PUSH1 0x1 PUSH1 0x1 PUSH1 0x40 SHL SUB DUP2 GT PUSH2 0x300 JUMPI PUSH2 0xDDA SWAP1 CALLDATASIZE SWAP1 PUSH1 0x4 ADD PUSH2 0x30DC JUMP JUMPDEST PUSH2 0x120 MSTORE PUSH1 0xA0 MSTORE PUSH1 0x44 CALLDATALOAD PUSH1 0x1 PUSH1 0x1 PUSH1 0x40 SHL SUB DUP2 GT PUSH2 0x300 JUMPI PUSH2 0xE00 SWAP1 CALLDATASIZE SWAP1 PUSH1 0x4 ADD PUSH2 0x30DC JUMP JUMPDEST PUSH2 0x260 MSTORE PUSH1 0xE0 MSTORE PUSH1 0x64 CALLDATALOAD PUSH1 0x1 PUSH1 0x1 PUSH1 0x40 SHL SUB DUP2 GT PUSH2 0x300 JUMPI PUSH2 0xE26 SWAP1 CALLDATASIZE SWAP1 PUSH1 0x4 ADD PUSH2 0x30DC JUMP JUMPDEST PUSH2 0x1A0 MSTORE PUSH2 0x160 MSTORE PUSH1 0x84 CALLDATALOAD PUSH1 0x1 PUSH1 0x1 PUSH1 0x40 SHL SUB DUP2 GT PUSH2 0x300 JUMPI PUSH2 0xE4D SWAP1 CALLDATASIZE SWAP1 PUSH1 0x4 ADD PUSH2 0x30DC JUMP JUMPDEST PUSH2 0x200 MSTORE PUSH1 0xC0 MSTORE PUSH1 0xA4 CALLDATALOAD PUSH1 0x1 PUSH1 0x1 PUSH1 0x40 SHL SUB DUP2 GT PUSH2 0x300 JUMPI PUSH2 0xE73 SWAP1 CALLDATASIZE SWAP1 PUSH1 0x4 ADD PUSH2 0x30DC JUMP JUMPDEST PUSH2 0x220 MSTORE PUSH2 0x100 MSTORE PUSH1 0xC4 CALLDATALOAD PUSH1 0x1 PUSH1 0x1 PUSH1 0x40 SHL SUB DUP2 GT PUSH2 0x300 JUMPI PUSH2 0xE9A SWAP1 CALLDATASIZE SWAP1 PUSH1 0x4 ADD PUSH2 0x30DC JUMP JUMPDEST PUSH2 0x1C0 MSTORE PUSH2 0x140 MSTORE PUSH1 0xE4 CALLDATALOAD PUSH1 0x1 PUSH1 0x1 PUSH1 0x40 SHL SUB DUP2 GT PUSH2 0x300 JUMPI PUSH2 0xEC1 SWAP1 CALLDATASIZE SWAP1 PUSH1 0x4 ADD PUSH2 0x30DC JUMP JUMPDEST PUSH2 0x1E0 MSTORE PUSH2 0x180 MSTORE PUSH1 0x1 PUSH1 0x1 PUSH1 0x40 SHL SUB PUSH2 0x104 CALLDATALOAD GT PUSH2 0x300 JUMPI PUSH2 0xEEA CALLDATASIZE PUSH2 0x104 CALLDATALOAD PUSH1 0x4 ADD PUSH2 0x30DC JUMP JUMPDEST PUSH2 0x2A0 MSTORE PUSH2 0x280 MSTORE PUSH1 0x13 SLOAD PUSH1 0x1 PUSH1 0x1 PUSH1 0xA0 SHL SUB AND CALLER EQ ISZERO DUP1 PUSH2 0x12B3 JUMPI JUMPDEST PUSH2 0x12A4 JUMPI PUSH0 PUSH1 0x80 MSTORE JUMPDEST PUSH2 0x240 MLOAD PUSH1 0x80 MLOAD LT PUSH2 0xF1E JUMPI STOP JUMPDEST PUSH2 0xF51 PUSH2 0xF34 PUSH1 0x80 MLOAD PUSH2 0x240 MLOAD PUSH2 0x2C0 MLOAD PUSH2 0x3552 JUMP JUMPDEST CALLDATALOAD PUSH0 SWAP1 DUP2 MSTORE PUSH1 0x2 PUSH1 0x20 MSTORE PUSH1 0x40 SWAP1 KECCAK256 SLOAD PUSH1 0x1 PUSH1 0x1 PUSH1 0xA0 SHL SUB AND ISZERO ISZERO SWAP1 JUMP JUMPDEST ISZERO PUSH2 0x536 JUMPI PUSH2 0xF69 PUSH1 0x80 MLOAD PUSH2 0x240 MLOAD PUSH2 0x2C0 MLOAD PUSH2 0x3552 JUMP JUMPDEST CALLDATALOAD PUSH0 MSTORE PUSH1 0x10 PUSH1 0x20 MSTORE PUSH1 0xFF PUSH1 0x2 PUSH1 0x40 PUSH0 KECCAK256 ADD SLOAD AND PUSH2 0x1295 JUMPI PUSH2 0x1121 PUSH2 0xFFFF PUSH1 0x2 PUSH2 0xFA2 PUSH2 0xF9D PUSH1 0x80 MLOAD PUSH2 0x120 MLOAD PUSH1 0xA0 MLOAD PUSH2 0x3552 JUMP JUMPDEST PUSH2 0x3E36 JUMP JUMPDEST PUSH2 0xFB7 PUSH2 0xF9D PUSH1 0x80 MLOAD PUSH2 0x260 MLOAD PUSH1 0xE0 MLOAD PUSH2 0x3552 JUMP JUMPDEST PUSH2 0xFCD PUSH2 0xF9D PUSH1 0x80 MLOAD PUSH2 0x1A0 MLOAD PUSH2 0x160 MLOAD PUSH2 0x3552 JUMP JUMPDEST PUSH2 0xFE2 PUSH2 0xF9D PUSH1 0x80 MLOAD PUSH2 0x200 MLOAD PUSH1 0xC0 MLOAD PUSH2 0x3552 JUMP JUMPDEST SWAP2 PUSH2 0xFFE PUSH2 0xFF9 PUSH1 0x80 MLOAD PUSH2 0x220 MLOAD PUSH2 0x100 MLOAD PUSH2 0x3552 JUMP JUMPDEST PUSH2 0x3E45 JUMP JUMPDEST PUSH2 0x1014 PUSH2 0xFF9 PUSH1 0x80 MLOAD PUSH2 0x1C0 MLOAD PUSH2 0x140 MLOAD PUSH2 0x3552 JUMP JUMPDEST SWAP2 PUSH2 0x1028 PUSH1 0x80 MLOAD PUSH2 0x1E0 MLOAD PUSH2 0x180 MLOAD PUSH2 0x3552 JUMP JUMPDEST CALLDATALOAD SWAP5 DUP9 PUSH1 0x40 MLOAD SWAP8 PUSH2 0x1038 DUP10 PUSH2 0x2F3A JUMP JUMPDEST AND DUP8 MSTORE DUP9 PUSH1 0x20 DUP9 ADD SWAP3 AND DUP3 MSTORE DUP9 PUSH1 0x40 DUP9 ADD SWAP6 AND DUP6 MSTORE DUP9 PUSH1 0x60 DUP9 ADD SWAP2 AND DUP2 MSTORE PUSH1 0xFF PUSH1 0x80 DUP9 ADD SWAP4 AND DUP4 MSTORE PUSH1 0xFF PUSH1 0xA0 DUP9 ADD SWAP5 AND DUP5 MSTORE PUSH1 0xC0 DUP8 ADD SWAP6 DUP7 MSTORE PUSH1 0xE0 DUP8 ADD SWAP7 PUSH1 0x1 DUP9 MSTORE PUSH2 0x108D PUSH1 0x80 MLOAD PUSH2 0x240 MLOAD PUSH2 0x2C0 MLOAD PUSH2 0x3552 JUMP JUMPDEST CALLDATALOAD PUSH0 MSTORE PUSH1 0x10 PUSH1 0x20 MSTORE PUSH1 0xFF PUSH1 0x48 SHL PUSH1 0xFF PUSH1 0x40 SHL PUSH2 0xFFFF PUSH1 0x30 SHL PUSH6 0xFFFF00000000 PUSH4 0xFFFF0000 PUSH1 0x40 PUSH0 KECCAK256 SWAP15 DUP16 SWAP7 MLOAD AND SWAP6 SLOAD SWAP8 MLOAD PUSH1 0x10 SHL AND SWAP10 MLOAD PUSH1 0x20 SHL AND SWAP5 MLOAD PUSH1 0x30 SHL AND SWAP6 MLOAD PUSH1 0x40 SHL AND SWAP6 MLOAD PUSH1 0x48 SHL AND SWAP6 PUSH1 0xFF PUSH1 0x48 SHL NOT SWAP4 PUSH1 0xFF PUSH1 0x40 SHL NOT SWAP3 PUSH2 0xFFFF PUSH1 0x30 SHL NOT SWAP2 PUSH6 0xFFFFFFFFFFFF NOT AND OR AND OR AND OR AND OR OR OR DUP5 SSTORE MLOAD PUSH1 0x1 DUP5 ADD SSTORE MLOAD ISZERO ISZERO SWAP2 ADD SWAP1 PUSH1 0xFF DUP1 NOT DUP4 SLOAD AND SWAP2 ISZERO ISZERO AND OR SWAP1 SSTORE JUMP JUMPDEST PUSH2 0x1134 PUSH1 0x80 MLOAD PUSH2 0x2A0 MLOAD PUSH2 0x280 MLOAD PUSH2 0x3E53 JUMP JUMPDEST SWAP1 POP PUSH2 0x11AC JUMPI JUMPDEST PUSH2 0x114E PUSH1 0x80 MLOAD PUSH2 0x240 MLOAD PUSH2 0x2C0 MLOAD PUSH2 0x3552 JUMP JUMPDEST CALLDATALOAD PUSH0 MLOAD PUSH1 0x20 PUSH2 0x453D PUSH0 CODECOPY PUSH0 MLOAD SWAP1 PUSH0 MSTORE PUSH2 0x1173 PUSH2 0xFF9 PUSH1 0x80 MLOAD PUSH2 0x220 MLOAD PUSH2 0x100 MLOAD PUSH2 0x3552 JUMP JUMPDEST PUSH2 0x1189 PUSH2 0xFF9 PUSH1 0x80 MLOAD PUSH2 0x1C0 MLOAD PUSH2 0x140 MLOAD PUSH2 0x3552 JUMP JUMPDEST PUSH1 0x40 DUP1 MLOAD PUSH1 0xFF SWAP4 DUP5 AND DUP2 MSTORE SWAP2 SWAP1 SWAP3 AND PUSH1 0x20 DUP3 ADD MSTORE LOG2 PUSH1 0x1 PUSH1 0x80 MLOAD ADD PUSH1 0x80 MSTORE PUSH2 0xF10 JUMP JUMPDEST PUSH2 0x11BF PUSH1 0x80 MLOAD PUSH2 0x2A0 MLOAD PUSH2 0x280 MLOAD PUSH2 0x3E53 JUMP JUMPDEST PUSH2 0x11D2 PUSH1 0x80 MLOAD PUSH2 0x240 MLOAD PUSH2 0x2C0 MLOAD PUSH2 0x3552 JUMP JUMPDEST CALLDATALOAD PUSH0 MSTORE PUSH1 0x12 PUSH1 0x20 MSTORE PUSH1 0x40 PUSH0 KECCAK256 SWAP1 PUSH1 0x1 PUSH1 0x1 PUSH1 0x40 SHL SUB DUP2 GT PUSH2 0x6DB JUMPI PUSH2 0x11FB DUP2 PUSH2 0x63B DUP5 SLOAD PUSH2 0x2ECC JUMP JUMPDEST PUSH0 SWAP3 PUSH1 0x1F DUP3 GT PUSH1 0x1 EQ PUSH2 0x1230 JUMPI PUSH2 0x1229 SWAP3 SWAP4 DUP3 SWAP2 PUSH0 SWAP3 PUSH2 0x672 JUMPI POP POP DUP2 PUSH1 0x1 SHL SWAP2 PUSH0 NOT SWAP1 PUSH1 0x3 SHL SHR NOT AND OR SWAP1 JUMP JUMPDEST SWAP1 SSTORE PUSH2 0x113B JUMP JUMPDEST DUP3 PUSH0 MSTORE PUSH1 0x20 PUSH0 KECCAK256 SWAP1 PUSH0 SWAP5 JUMPDEST PUSH1 0x1F NOT DUP5 AND DUP7 LT PUSH2 0x127D JUMPI PUSH1 0x1 SWAP5 SWAP6 POP DUP4 PUSH1 0x1F NOT DUP2 AND LT PUSH2 0x1264 JUMPI JUMPDEST POP POP POP DUP2 SHL ADD SWAP1 SSTORE PUSH2 0x113B JUMP JUMPDEST ADD CALLDATALOAD PUSH0 NOT PUSH1 0x3 DUP5 SWAP1 SHL PUSH1 0xF8 AND SHR NOT AND SWAP1 SSTORE DUP4 DUP1 DUP1 PUSH2 0x1257 JUMP JUMPDEST SWAP2 PUSH1 0x20 PUSH1 0x1 DUP2 SWAP3 DUP6 DUP6 ADD CALLDATALOAD DUP2 SSTORE ADD SWAP4 ADD SWAP6 ADD SWAP5 PUSH2 0x123B JUMP JUMPDEST PUSH4 0x68D3CD53 PUSH1 0xE0 SHL PUSH0 MSTORE PUSH1 0x4 PUSH0 REVERT JUMPDEST PUSH4 0x80FEE105 PUSH1 0xE0 SHL PUSH0 MSTORE PUSH1 0x4 PUSH0 REVERT JUMPDEST POP PUSH1 0xA SLOAD PUSH1 0x1 PUSH1 0x1 PUSH1 0xA0 SHL SUB AND CALLER EQ ISZERO PUSH2 0xF07 JUMP JUMPDEST CALLVALUE PUSH2 0x300 JUMPI PUSH1 0x20 CALLDATASIZE PUSH1 0x3 NOT ADD SLT PUSH2 0x300 JUMPI PUSH2 0x12E1 PUSH2 0x2E91 JUMP JUMPDEST PUSH2 0x12E9 PUSH2 0x3F08 JUMP JUMPDEST PUSH1 0x15 DUP1 SLOAD PUSH1 0x1 PUSH1 0x1 PUSH1 0xA0 SHL SUB NOT AND PUSH1 0x1 PUSH1 0x1 PUSH1 0xA0 SHL SUB SWAP3 SWAP1 SWAP3 AND SWAP2 SWAP1 SWAP2 OR SWAP1 SSTORE STOP JUMPDEST CALLVALUE PUSH2 0x300 JUMPI PUSH1 0x80 CALLDATASIZE PUSH1 0x3 NOT ADD SLT PUSH2 0x300 JUMPI PUSH2 0x1324 PUSH2 0x2E91 JUMP JUMPDEST PUSH2 0x132C PUSH2 0x2EA7 JUMP JUMPDEST SWAP1 PUSH1 0x44 CALLDATALOAD PUSH1 0x64 CALLDATALOAD SWAP3 PUSH1 0x1 PUSH1 0x1 PUSH1 0x40 SHL SUB DUP5 GT PUSH2 0x300 JUMPI CALLDATASIZE PUSH1 0x23 DUP6 ADD SLT ISZERO PUSH2 0x300 JUMPI PUSH2 0x1364 PUSH2 0x1376 SWAP5 CALLDATASIZE SWAP1 PUSH1 0x24 DUP2 PUSH1 0x4 ADD CALLDATALOAD SWAP2 ADD PUSH2 0x3127 JUMP JUMPDEST SWAP3 PUSH2 0x1370 DUP4 DUP4 DUP4 PUSH2 0x319E JUMP JUMPDEST CALLER PUSH2 0x4418 JUMP JUMPDEST STOP JUMPDEST CALLVALUE PUSH2 0x300 JUMPI PUSH1 0x40 CALLDATASIZE PUSH1 0x3 NOT ADD SLT PUSH2 0x300 JUMPI PUSH1 0x4 CALLDATALOAD PUSH1 0x24 CALLDATALOAD PUSH1 0x1 PUSH1 0x1 PUSH1 0x40 SHL SUB DUP2 GT PUSH2 0x300 JUMPI PUSH2 0x13AB SWAP1 CALLDATASIZE SWAP1 PUSH1 0x4 ADD PUSH2 0x30DC JUMP JUMPDEST SWAP1 SWAP2 PUSH1 0xE SLOAD DUP2 LT ISZERO PUSH2 0x75E JUMPI PUSH0 MSTORE PUSH1 0xD PUSH1 0x20 MSTORE PUSH1 0x40 PUSH0 KECCAK256 PUSH1 0xFF PUSH1 0x3 DUP3 ADD SLOAD AND ISZERO PUSH2 0x1670 JUMPI DUP1 SLOAD PUSH1 0x1 PUSH1 0x1 PUSH1 0xA0 SHL SUB AND PUSH2 0x13E3 DUP4 PUSH2 0x349B JUMP JUMPDEST SWAP4 PUSH2 0x13F1 PUSH1 0x40 MLOAD SWAP6 DUP7 PUSH2 0x2F56 JUMP JUMPDEST DUP4 DUP6 MSTORE PUSH2 0x13FD DUP5 PUSH2 0x349B JUMP JUMPDEST PUSH1 0x20 DUP7 ADD SWAP5 SWAP1 PUSH1 0x1F NOT ADD CALLDATASIZE DUP7 CALLDATACOPY PUSH1 0x4 DUP5 ADD SWAP1 PUSH0 JUMPDEST DUP2 DUP2 LT PUSH2 0x145C JUMPI DUP7 DUP9 PUSH1 0x40 MLOAD SWAP2 DUP3 SWAP2 PUSH1 0x20 DUP4 ADD SWAP1 PUSH1 0x20 DUP5 MSTORE MLOAD DUP1 SWAP2 MSTORE PUSH1 0x40 DUP4 ADD SWAP2 SWAP1 PUSH0 JUMPDEST DUP2 DUP2 LT PUSH2 0x1443 JUMPI POP POP POP SUB SWAP1 RETURN JUMPDEST DUP3 MLOAD DUP5 MSTORE DUP6 SWAP5 POP PUSH1 0x20 SWAP4 DUP5 ADD SWAP4 SWAP1 SWAP3 ADD SWAP2 PUSH1 0x1 ADD PUSH2 0x1435 JUMP JUMPDEST PUSH2 0x1467 DUP2 DUP4 DUP7 PUSH2 0x3552 JUMP JUMPDEST PUSH1 0x40 MLOAD PUSH4 0x31A9108F PUSH1 0xE1 SHL DUP2 MSTORE SWAP1 CALLDATALOAD PUSH1 0x4 DUP3 ADD MSTORE PUSH1 0x20 DUP2 PUSH1 0x24 DUP2 DUP10 GAS STATICCALL SWAP1 DUP2 ISZERO PUSH2 0x95D JUMPI PUSH0 SWAP2 PUSH2 0x1642 JUMPI JUMPDEST POP CALLER PUSH1 0x1 PUSH1 0x1 PUSH1 0xA0 SHL SUB SWAP1 SWAP2 AND SUB PUSH2 0x1633 JUMPI DUP6 SLOAD PUSH1 0x1 PUSH1 0x1 PUSH1 0xA0 SHL SUB AND PUSH2 0x14EB PUSH2 0x14F9 PUSH2 0x14C0 DUP5 DUP7 DUP10 PUSH2 0x3552 JUMP JUMPDEST CALLDATALOAD PUSH1 0x40 MLOAD SWAP3 DUP4 SWAP2 PUSH1 0x20 DUP4 ADD SWAP6 DUP7 SWAP1 SWAP2 PUSH1 0x34 SWAP3 PUSH1 0x1 PUSH1 0x1 PUSH1 0x60 SHL SUB NOT SWAP1 PUSH1 0x60 SHL AND DUP3 MSTORE PUSH1 0x14 DUP3 ADD MSTORE ADD SWAP1 JUMP JUMPDEST SUB PUSH1 0x1F NOT DUP2 ADD DUP4 MSTORE DUP3 PUSH2 0x2F56 JUMP JUMPDEST MLOAD SWAP1 KECCAK256 SWAP1 DUP2 PUSH0 MSTORE PUSH1 0xF PUSH1 0x20 MSTORE PUSH1 0xFF PUSH1 0x40 PUSH0 KECCAK256 SLOAD AND PUSH2 0x1624 JUMPI PUSH1 0x1 SWAP2 PUSH0 MSTORE PUSH1 0xF PUSH1 0x20 MSTORE PUSH1 0x40 PUSH0 KECCAK256 DUP3 PUSH1 0xFF NOT DUP3 SLOAD AND OR SWAP1 SSTORE PUSH1 0xC SLOAD PUSH2 0x1535 DUP2 PUSH2 0x317C JUMP JUMPDEST PUSH1 0xC SSTORE PUSH2 0x15BA DUP4 DUP1 PUSH1 0xA0 SHL SUB DUP10 SLOAD AND PUSH1 0x2 PUSH2 0x1551 DUP6 DUP9 DUP12 PUSH2 0x3552 JUMP JUMPDEST CALLDATALOAD PUSH1 0x40 MLOAD SWAP3 PUSH2 0x155F DUP5 PUSH2 0x2F04 JUMP JUMPDEST DUP4 MSTORE PUSH1 0x20 DUP4 ADD SWAP1 DUP2 MSTORE PUSH1 0x40 DUP4 ADD SWAP1 PUSH0 DUP3 MSTORE DUP6 PUSH0 MSTORE PUSH1 0x11 PUSH1 0x20 MSTORE PUSH1 0x40 PUSH0 KECCAK256 SWAP4 DUP9 DUP1 PUSH1 0xA0 SHL SUB SWAP1 DUP10 DUP1 PUSH1 0xA0 SHL SUB SWAP1 MLOAD AND AND PUSH1 0x1 PUSH1 0x1 PUSH1 0x60 SHL SUB PUSH1 0xA0 SHL DUP6 SLOAD AND OR DUP5 SSTORE MLOAD DUP8 DUP5 ADD SSTORE MLOAD ISZERO ISZERO SWAP2 ADD SWAP1 PUSH1 0xFF DUP1 NOT DUP4 SLOAD AND SWAP2 ISZERO ISZERO AND OR SWAP1 SSTORE JUMP JUMPDEST PUSH2 0x15C4 DUP6 SLOAD PUSH2 0x317C JUMP JUMPDEST DUP6 SSTORE PUSH2 0x15D0 DUP2 CALLER PUSH2 0x3F2F JUMP JUMPDEST DUP1 PUSH2 0x15DB DUP4 DUP13 PUSH2 0x34B2 JUMP JUMPDEST MSTORE DUP3 DUP1 PUSH1 0xA0 SHL SUB DUP9 SLOAD AND SWAP1 PUSH2 0x15F1 DUP4 DUP7 DUP10 PUSH2 0x3552 JUMP JUMPDEST CALLDATALOAD PUSH1 0x40 MLOAD SWAP1 DUP2 MSTORE PUSH32 0x87C9474D9C731DD6CED957ADAE84621220FB03E140358FA6CA1AA046E4527DAD PUSH1 0x20 CALLER SWAP3 LOG4 ADD PUSH2 0x1411 JUMP JUMPDEST PUSH4 0x15EC10B7 PUSH1 0xE3 SHL PUSH0 MSTORE PUSH1 0x4 PUSH0 REVERT JUMPDEST PUSH4 0x10223187 PUSH1 0xE2 SHL PUSH0 MSTORE PUSH1 0x4 PUSH0 REVERT JUMPDEST PUSH2 0x1663 SWAP2 POP PUSH1 0x20 RETURNDATASIZE DUP2 GT PUSH2 0x1669 JUMPI JUMPDEST PUSH2 0x165B DUP2 DUP4 PUSH2 0x2F56 JUMP JUMPDEST DUP2 ADD SWAP1 PUSH2 0x315D JUMP JUMPDEST DUP10 PUSH2 0x1492 JUMP JUMPDEST POP RETURNDATASIZE PUSH2 0x1651 JUMP JUMPDEST PUSH4 0x22F1E755 PUSH1 0xE1 SHL PUSH0 MSTORE PUSH1 0x4 PUSH0 REVERT JUMPDEST CALLVALUE PUSH2 0x300 JUMPI PUSH1 0x20 CALLDATASIZE PUSH1 0x3 NOT ADD SLT PUSH2 0x300 JUMPI PUSH1 0x4 CALLDATALOAD PUSH1 0x4 DUP2 LT ISZERO PUSH2 0x300 JUMPI PUSH1 0x3 PUSH1 0xA0 SWAP2 MUL DUP1 PUSH1 0x18 ADD SLOAD SWAP1 PUSH1 0xFF PUSH1 0x1A PUSH1 0x19 DUP4 ADD SLOAD SWAP3 ADD SLOAD AND SWAP1 PUSH1 0xFF PUSH1 0x40 MLOAD SWAP4 DUP2 DUP2 AND DUP6 MSTORE DUP2 DUP2 PUSH1 0x8 SHR AND PUSH1 0x20 DUP7 ADD MSTORE PUSH1 0x10 SHR AND PUSH1 0x40 DUP5 ADD MSTORE PUSH1 0x60 DUP4 ADD MSTORE PUSH1 0x80 DUP3 ADD MSTORE RETURN JUMPDEST CALLVALUE PUSH2 0x300 JUMPI PUSH1 0x40 CALLDATASIZE PUSH1 0x3 NOT ADD SLT PUSH2 0x300 JUMPI PUSH2 0x16FA PUSH2 0x2E91 JUMP JUMPDEST PUSH2 0x1702 PUSH2 0x2EBD JUMP JUMPDEST SWAP1 CALLER ISZERO PUSH2 0x1787 JUMPI PUSH1 0x1 PUSH1 0x1 PUSH1 0xA0 SHL SUB AND SWAP1 DUP2 ISZERO PUSH2 0x1774 JUMPI CALLER PUSH0 MSTORE PUSH1 0x5 PUSH1 0x20 MSTORE PUSH1 0x40 PUSH0 KECCAK256 DUP3 PUSH0 MSTORE PUSH1 0x20 MSTORE PUSH2 0x1744 DUP2 PUSH1 0x40 PUSH0 KECCAK256 SWAP1 PUSH1 0xFF DUP1 NOT DUP4 SLOAD AND SWAP2 ISZERO ISZERO AND OR SWAP1 SSTORE JUMP JUMPDEST PUSH1 0x40 MLOAD SWAP1 ISZERO ISZERO DUP2 MSTORE PUSH32 0x17307EAB39AB6107E8899845AD3D59BD9653F200F220920489CA2B5937696C31 PUSH1 0x20 CALLER SWAP3 LOG3 STOP JUMPDEST POP PUSH4 0xB611743 PUSH1 0xE3 SHL PUSH0 MSTORE PUSH1 0x4 MSTORE PUSH1 0x24 PUSH0 REVERT JUMPDEST PUSH4 0xA9FBF51F PUSH1 0xE0 SHL PUSH0 MSTORE PUSH0 PUSH1 0x4 MSTORE PUSH1 0x24 PUSH0 REVERT JUMPDEST CALLVALUE PUSH2 0x300 JUMPI PUSH1 0x20 CALLDATASIZE PUSH1 0x3 NOT ADD SLT PUSH2 0x300 JUMPI PUSH1 0x4 CALLDATALOAD PUSH0 MSTORE PUSH1 0xF PUSH1 0x20 MSTORE PUSH1 0x20 PUSH1 0xFF PUSH1 0x40 PUSH0 KECCAK256 SLOAD AND PUSH1 0x40 MLOAD SWAP1 ISZERO ISZERO DUP2 MSTORE RETURN JUMPDEST CALLVALUE PUSH2 0x300 JUMPI PUSH0 CALLDATASIZE PUSH1 0x3 NOT ADD SLT PUSH2 0x300 JUMPI PUSH1 0x40 MLOAD PUSH0 PUSH1 0x1 SLOAD PUSH2 0x17E9 DUP2 PUSH2 0x2ECC JUMP JUMPDEST DUP1 DUP5 MSTORE SWAP1 PUSH1 0x1 DUP2 AND SWAP1 DUP2 ISZERO PUSH2 0x1883 JUMPI POP PUSH1 0x1 EQ PUSH2 0x1825 JUMPI JUMPDEST PUSH2 0x532 DUP4 PUSH2 0x1811 DUP2 DUP6 SUB DUP3 PUSH2 0x2F56 JUMP JUMPDEST PUSH1 0x40 MLOAD SWAP2 DUP3 SWAP2 PUSH1 0x20 DUP4 MSTORE PUSH1 0x20 DUP4 ADD SWAP1 PUSH2 0x2E6D JUMP JUMPDEST PUSH1 0x1 PUSH0 SWAP1 DUP2 MSTORE PUSH32 0xB10E2D527612073B26EECDFD717E6A320CF44B4AFAC2B0732D9FCBE2B7FA0CF6 SWAP4 SWAP3 POP SWAP1 JUMPDEST DUP1 DUP3 LT PUSH2 0x1869 JUMPI POP SWAP1 SWAP2 POP DUP2 ADD PUSH1 0x20 ADD PUSH2 0x1811 PUSH2 0x1801 JUMP JUMPDEST SWAP2 SWAP3 PUSH1 0x1 DUP2 PUSH1 0x20 SWAP3 SLOAD DUP4 DUP6 DUP9 ADD ADD MSTORE ADD SWAP2 ADD SWAP1 SWAP3 SWAP2 PUSH2 0x1851 JUMP JUMPDEST PUSH1 0xFF NOT AND PUSH1 0x20 DUP1 DUP7 ADD SWAP2 SWAP1 SWAP2 MSTORE SWAP2 ISZERO ISZERO PUSH1 0x5 SHL DUP5 ADD SWAP1 SWAP2 ADD SWAP2 POP PUSH2 0x1811 SWAP1 POP PUSH2 0x1801 JUMP JUMPDEST CALLVALUE PUSH2 0x300 JUMPI PUSH1 0x20 CALLDATASIZE PUSH1 0x3 NOT ADD SLT PUSH2 0x300 JUMPI PUSH1 0x4 CALLDATALOAD PUSH1 0x1 PUSH1 0x1 PUSH1 0x40 SHL SUB DUP2 GT PUSH2 0x300 JUMPI PUSH2 0x18D7 SWAP1 CALLDATASIZE SWAP1 PUSH1 0x4 ADD PUSH2 0x30DC JUMP JUMPDEST SWAP1 PUSH1 0x2 PUSH32 0x9B779B17422D0DF92223018B32B4D1FA46E071723D6817E2486D003BECC55F00 SLOAD EQ PUSH2 0x195D JUMPI PUSH1 0x20 SWAP2 PUSH2 0x1931 SWAP2 PUSH1 0x2 PUSH32 0x9B779B17422D0DF92223018B32B4D1FA46E071723D6817E2486D003BECC55F00 SSTORE PUSH2 0x3587 JUMP JUMPDEST PUSH1 0x1 PUSH32 0x9B779B17422D0DF92223018B32B4D1FA46E071723D6817E2486D003BECC55F00 SSTORE PUSH1 0x40 MLOAD SWAP1 DUP2 MSTORE RETURN JUMPDEST PUSH4 0x3EE5AEB5 PUSH1 0xE0 SHL PUSH0 MSTORE PUSH1 0x4 PUSH0 REVERT JUMPDEST CALLVALUE PUSH2 0x300 JUMPI PUSH0 CALLDATASIZE PUSH1 0x3 NOT ADD SLT PUSH2 0x300 JUMPI PUSH1 0xA SLOAD PUSH1 0x40 MLOAD PUSH1 0x1 PUSH1 0x1 PUSH1 0xA0 SHL SUB SWAP1 SWAP2 AND DUP2 MSTORE PUSH1 0x20 SWAP1 RETURN JUMPDEST CALLVALUE PUSH2 0x300 JUMPI PUSH0 CALLDATASIZE PUSH1 0x3 NOT ADD SLT PUSH2 0x300 JUMPI PUSH1 0x20 PUSH1 0x16 SLOAD PUSH1 0x40 MLOAD SWAP1 DUP2 MSTORE RETURN JUMPDEST CALLVALUE PUSH2 0x300 JUMPI PUSH0 CALLDATASIZE PUSH1 0x3 NOT ADD SLT PUSH2 0x300 JUMPI PUSH1 0xB SLOAD PUSH1 0x40 MLOAD PUSH1 0x1 PUSH1 0x1 PUSH1 0xA0 SHL SUB SWAP1 SWAP2 AND DUP2 MSTORE PUSH1 0x20 SWAP1 RETURN JUMPDEST CALLVALUE PUSH2 0x300 JUMPI PUSH2 0x120 CALLDATASIZE PUSH1 0x3 NOT ADD SLT PUSH2 0x300 JUMPI PUSH1 0x4 CALLDATALOAD PUSH1 0x24 CALLDATALOAD SWAP1 PUSH2 0xFFFF DUP3 AND DUP1 SWAP3 SUB PUSH2 0x300 JUMPI PUSH1 0x44 CALLDATALOAD PUSH2 0xFFFF DUP2 AND DUP1 SWAP2 SUB PUSH2 0x300 JUMPI PUSH1 0x64 CALLDATALOAD PUSH2 0xFFFF DUP2 AND DUP1 SWAP2 SUB PUSH2 0x300 JUMPI PUSH1 0x84 CALLDATALOAD SWAP1 PUSH2 0xFFFF DUP3 AND DUP1 SWAP3 SUB PUSH2 0x300 JUMPI PUSH1 0xA4 CALLDATALOAD SWAP2 PUSH1 0xFF DUP4 AND DUP1 DUP5 SUB PUSH2 0x300 JUMPI PUSH1 0xC4 CALLDATALOAD SWAP5 PUSH1 0xFF DUP7 AND SWAP3 DUP4 DUP8 SUB PUSH2 0x300 JUMPI PUSH2 0x104 CALLDATALOAD PUSH1 0x1 PUSH1 0x1 PUSH1 0x40 SHL SUB DUP2 GT PUSH2 0x300 JUMPI PUSH2 0x1A6B SWAP1 CALLDATASIZE SWAP1 PUSH1 0x4 ADD PUSH2 0x3051 JUMP JUMPDEST SWAP10 SWAP1 SWAP6 PUSH1 0x1 DUP1 PUSH1 0xA0 SHL SUB PUSH1 0x13 SLOAD AND CALLER EQ ISZERO DUP1 PUSH2 0x1D43 JUMPI JUMPDEST PUSH2 0x12A4 JUMPI PUSH0 DUP11 DUP2 MSTORE PUSH1 0x2 PUSH1 0x20 MSTORE PUSH1 0x40 SWAP1 KECCAK256 SLOAD PUSH1 0x1 PUSH1 0x1 PUSH1 0xA0 SHL SUB AND ISZERO PUSH2 0x536 JUMPI DUP10 PUSH0 MSTORE PUSH1 0x10 PUSH1 0x20 MSTORE PUSH1 0xFF PUSH1 0x2 PUSH1 0x40 PUSH0 KECCAK256 ADD SLOAD AND PUSH2 0x1295 JUMPI DUP2 ISZERO DUP1 ISZERO PUSH2 0x1D39 JUMPI JUMPDEST DUP1 ISZERO PUSH2 0x1D31 JUMPI JUMPDEST DUP1 ISZERO PUSH2 0x1D27 JUMPI JUMPDEST PUSH2 0x813 JUMPI PUSH1 0x32 DUP2 LT DUP1 ISZERO PUSH2 0x1D1C JUMPI JUMPDEST DUP1 ISZERO PUSH2 0x1D14 JUMPI JUMPDEST DUP1 ISZERO PUSH2 0x1D0A JUMPI JUMPDEST PUSH2 0x813 JUMPI PUSH1 0x5 DUP6 GT DUP1 ISZERO PUSH2 0x1D00 JUMPI JUMPDEST PUSH2 0x813 JUMPI PUSH2 0x1BE5 SWAP6 PUSH2 0xFFFF SWAP6 PUSH1 0x2 SWAP6 DUP13 SWAP6 PUSH1 0x40 MLOAD SWAP6 PUSH2 0x1B1A DUP8 PUSH2 0x2F3A JUMP JUMPDEST DUP7 MSTORE PUSH1 0x20 DUP7 ADD SWAP2 DUP3 MSTORE PUSH1 0x40 DUP7 ADD SWAP5 DUP6 MSTORE PUSH1 0x60 DUP7 ADD SWAP1 DUP2 MSTORE PUSH1 0x80 DUP7 ADD SWAP3 DUP4 MSTORE PUSH1 0xA0 DUP7 ADD SWAP4 DUP5 MSTORE PUSH1 0xC0 DUP7 ADD SWAP6 PUSH1 0xE4 CALLDATALOAD DUP8 MSTORE PUSH1 0xE0 DUP2 ADD SWAP8 PUSH1 0x1 DUP10 MSTORE PUSH0 MSTORE PUSH1 0x10 PUSH1 0x20 MSTORE PUSH1 0xFF PUSH1 0x48 SHL PUSH1 0xFF PUSH1 0x40 SHL PUSH2 0xFFFF PUSH1 0x30 SHL PUSH6 0xFFFF00000000 PUSH4 0xFFFF0000 PUSH1 0x40 PUSH0 KECCAK256 SWAP15 DUP16 SWAP7 MLOAD AND SWAP6 SLOAD SWAP8 MLOAD PUSH1 0x10 SHL AND SWAP10 MLOAD PUSH1 0x20 SHL AND SWAP5 MLOAD PUSH1 0x30 SHL AND SWAP6 MLOAD PUSH1 0x40 SHL AND SWAP6 MLOAD PUSH1 0x48 SHL AND SWAP6 PUSH1 0xFF PUSH1 0x48 SHL NOT SWAP4 PUSH1 0xFF PUSH1 0x40 SHL NOT SWAP3 PUSH2 0xFFFF PUSH1 0x30 SHL NOT SWAP2 PUSH6 0xFFFFFFFFFFFF NOT AND OR AND OR AND OR AND OR OR OR DUP5 SSTORE MLOAD PUSH1 0x1 DUP5 ADD SSTORE MLOAD ISZERO ISZERO SWAP2 ADD SWAP1 PUSH1 0xFF DUP1 NOT DUP4 SLOAD AND SWAP2 ISZERO ISZERO AND OR SWAP1 SSTORE JUMP JUMPDEST DUP5 PUSH2 0x1C12 JUMPI JUMPDEST POP PUSH1 0x40 DUP1 MLOAD PUSH1 0xFF SWAP3 DUP4 AND DUP2 MSTORE SWAP3 SWAP1 SWAP2 AND PUSH1 0x20 DUP4 ADD MSTORE PUSH0 MLOAD PUSH1 0x20 PUSH2 0x453D PUSH0 CODECOPY PUSH0 MLOAD SWAP1 PUSH0 MSTORE SWAP2 LOG2 STOP JUMPDEST DUP4 PUSH0 MSTORE PUSH1 0x12 PUSH1 0x20 MSTORE PUSH1 0x40 PUSH0 KECCAK256 SWAP1 PUSH1 0x1 PUSH1 0x1 PUSH1 0x40 SHL SUB DUP7 GT PUSH2 0x6DB JUMPI PUSH2 0x1C3B DUP7 PUSH2 0x63B DUP5 SLOAD PUSH2 0x2ECC JUMP JUMPDEST PUSH0 SWAP1 PUSH1 0x1F DUP8 GT PUSH1 0x1 EQ PUSH2 0x1C8D JUMPI SWAP6 DUP1 PUSH2 0x1C78 SWAP3 PUSH0 MLOAD PUSH1 0x20 PUSH2 0x453D PUSH0 CODECOPY PUSH0 MLOAD SWAP1 PUSH0 MSTORE SWAP8 SWAP9 PUSH0 SWAP3 PUSH2 0x1C82 JUMPI POP POP DUP2 PUSH1 0x1 SHL SWAP2 PUSH0 NOT SWAP1 PUSH1 0x3 SHL SHR NOT AND OR SWAP1 JUMP JUMPDEST SWAP1 SSTORE JUMPDEST DUP4 SWAP3 PUSH2 0x1BEB JUMP JUMPDEST ADD CALLDATALOAD SWAP1 POP DUP9 DUP1 PUSH2 0x5F9 JUMP JUMPDEST PUSH1 0x1F NOT DUP8 AND SWAP2 DUP4 PUSH0 MSTORE PUSH1 0x20 PUSH0 KECCAK256 SWAP3 PUSH0 JUMPDEST DUP2 DUP2 LT PUSH2 0x1CE8 JUMPI POP SWAP2 PUSH1 0x1 SWAP4 SWAP2 DUP10 PUSH0 MLOAD PUSH1 0x20 PUSH2 0x453D PUSH0 CODECOPY PUSH0 MLOAD SWAP1 PUSH0 MSTORE SWAP10 SWAP11 SWAP5 LT PUSH2 0x1CCF JUMPI JUMPDEST POP POP POP DUP2 SHL ADD SWAP1 SSTORE PUSH2 0x1C7B JUMP JUMPDEST ADD CALLDATALOAD PUSH0 NOT PUSH1 0x3 DUP5 SWAP1 SHL PUSH1 0xF8 AND SHR NOT AND SWAP1 SSTORE DUP8 DUP1 DUP1 PUSH2 0x1CC2 JUMP JUMPDEST SWAP2 SWAP4 PUSH1 0x20 PUSH1 0x1 DUP2 SWAP3 DUP8 DUP8 ADD CALLDATALOAD DUP2 SSTORE ADD SWAP6 ADD SWAP3 ADD PUSH2 0x1C9D JUMP JUMPDEST POP PUSH1 0x4 DUP7 GT PUSH2 0x1AFC JUMP JUMPDEST POP PUSH1 0x64 DUP4 GT PUSH2 0x1AED JUMP JUMPDEST POP DUP3 ISZERO PUSH2 0x1AE6 JUMP JUMPDEST POP PUSH2 0x12C DUP2 GT PUSH2 0x1ADF JUMP JUMPDEST POP PUSH1 0x64 DUP5 GT PUSH2 0x1AD0 JUMP JUMPDEST POP DUP4 ISZERO PUSH2 0x1AC9 JUMP JUMPDEST POP PUSH1 0x64 DUP3 GT PUSH2 0x1AC2 JUMP JUMPDEST POP PUSH1 0xA SLOAD PUSH1 0x1 PUSH1 0x1 PUSH1 0xA0 SHL SUB AND CALLER EQ ISZERO PUSH2 0x1A82 JUMP JUMPDEST CALLVALUE PUSH2 0x300 JUMPI PUSH1 0x20 CALLDATASIZE PUSH1 0x3 NOT ADD SLT PUSH2 0x300 JUMPI PUSH1 0x4 CALLDATALOAD PUSH0 DUP2 DUP2 MSTORE PUSH1 0x2 PUSH1 0x20 MSTORE PUSH1 0x40 SWAP1 KECCAK256 SLOAD PUSH1 0x1 PUSH1 0x1 PUSH1 0xA0 SHL SUB AND ISZERO PUSH2 0x536 JUMPI PUSH0 MSTORE PUSH1 0x11 PUSH1 0x20 MSTORE PUSH1 0x40 PUSH0 KECCAK256 PUSH1 0x40 MLOAD PUSH2 0x1D9F DUP2 PUSH2 0x2F04 JUMP JUMPDEST DUP2 SLOAD PUSH1 0x1 PUSH1 0x1 PUSH1 0xA0 SHL SUB AND DUP1 DUP3 MSTORE PUSH1 0x1 DUP4 ADD SLOAD PUSH1 0x20 DUP1 DUP5 ADD DUP3 SWAP1 MSTORE PUSH1 0x2 SWAP1 SWAP5 ADD SLOAD PUSH1 0xFF AND ISZERO ISZERO PUSH1 0x40 SWAP4 DUP5 ADD DUP2 SWAP1 MSTORE DUP4 MLOAD SWAP3 DUP4 MSTORE SWAP4 DUP3 ADD MSTORE SWAP1 DUP2 ADD SWAP2 SWAP1 SWAP2 MSTORE PUSH1 0x60 SWAP1 RETURN JUMPDEST CALLVALUE PUSH2 0x300 JUMPI PUSH1 0x20 CALLDATASIZE PUSH1 0x3 NOT ADD SLT PUSH2 0x300 JUMPI PUSH1 0x4 CALLDATALOAD PUSH1 0x1 PUSH1 0x1 PUSH1 0x40 SHL SUB DUP2 GT PUSH2 0x300 JUMPI PUSH2 0x1E12 SWAP1 CALLDATASIZE SWAP1 PUSH1 0x4 ADD PUSH2 0x3051 JUMP JUMPDEST PUSH2 0x1E1A PUSH2 0x3F08 JUMP JUMPDEST PUSH1 0x1 PUSH1 0x1 PUSH1 0x40 SHL SUB DUP2 GT PUSH2 0x6DB JUMPI PUSH2 0x1E33 PUSH1 0x14 SLOAD PUSH2 0x2ECC JUMP JUMPDEST PUSH1 0x1F DUP2 GT PUSH2 0x1EF1 JUMPI JUMPDEST POP PUSH0 PUSH1 0x1F DUP3 GT PUSH1 0x1 EQ PUSH2 0x1E79 JUMPI DUP2 SWAP1 PUSH2 0x1E69 SWAP4 PUSH0 SWAP3 PUSH2 0x1E6E JUMPI POP POP DUP2 PUSH1 0x1 SHL SWAP2 PUSH0 NOT SWAP1 PUSH1 0x3 SHL SHR NOT AND OR SWAP1 JUMP JUMPDEST PUSH1 0x14 SSTORE STOP JUMPDEST ADD CALLDATALOAD SWAP1 POP DUP4 DUP1 PUSH2 0x5F9 JUMP JUMPDEST PUSH1 0x1F NOT DUP3 AND SWAP3 PUSH32 0xCE6D7B5282BD9A3661AE061FEED1DBDA4E52AB073B1F9285BE6E155D9C38D4EC SWAP2 PUSH0 JUMPDEST DUP6 DUP2 LT PUSH2 0x1ED9 JUMPI POP DUP4 PUSH1 0x1 SWAP6 LT PUSH2 0x1EC0 JUMPI JUMPDEST POP POP POP DUP2 SHL ADD PUSH1 0x14 SSTORE STOP JUMPDEST ADD CALLDATALOAD PUSH0 NOT PUSH1 0x3 DUP5 SWAP1 SHL PUSH1 0xF8 AND SHR NOT AND SWAP1 SSTORE DUP3 DUP1 DUP1 PUSH2 0x1EB5 JUMP JUMPDEST SWAP1 SWAP3 PUSH1 0x20 PUSH1 0x1 DUP2 SWAP3 DUP7 DUP7 ADD CALLDATALOAD DUP2 SSTORE ADD SWAP5 ADD SWAP2 ADD PUSH2 0x1EA3 JUMP JUMPDEST PUSH1 0x14 PUSH0 MSTORE PUSH32 0xCE6D7B5282BD9A3661AE061FEED1DBDA4E52AB073B1F9285BE6E155D9C38D4EC PUSH1 0x1F DUP4 ADD PUSH1 0x5 SHR DUP2 ADD SWAP2 PUSH1 0x20 DUP5 LT PUSH2 0x1F4A JUMPI JUMPDEST PUSH1 0x1F ADD PUSH1 0x5 SHR ADD SWAP1 JUMPDEST DUP2 DUP2 LT PUSH2 0x1F3F JUMPI POP PUSH2 0x1E3C JUMP JUMPDEST PUSH0 DUP2 SSTORE PUSH1 0x1 ADD PUSH2 0x1F32 JUMP JUMPDEST SWAP1 SWAP2 POP DUP2 SWAP1 PUSH2 0x1F29 JUMP JUMPDEST CALLVALUE PUSH2 0x300 JUMPI PUSH0 CALLDATASIZE PUSH1 0x3 NOT ADD SLT PUSH2 0x300 JUMPI PUSH1 0x13 SLOAD PUSH1 0x40 MLOAD PUSH1 0x1 PUSH1 0x1 PUSH1 0xA0 SHL SUB SWAP1 SWAP2 AND DUP2 MSTORE PUSH1 0x20 SWAP1 RETURN JUMPDEST CALLVALUE PUSH2 0x300 JUMPI PUSH0 CALLDATASIZE PUSH1 0x3 NOT ADD SLT PUSH2 0x300 JUMPI PUSH1 0x40 MLOAD PUSH32 0x0 PUSH1 0x1 PUSH1 0x1 PUSH1 0xA0 SHL SUB AND DUP2 MSTORE PUSH1 0x20 SWAP1 RETURN JUMPDEST CALLVALUE PUSH2 0x300 JUMPI PUSH1 0x20 CALLDATASIZE PUSH1 0x3 NOT ADD SLT PUSH2 0x300 JUMPI PUSH2 0x1FD9 PUSH2 0x2E91 JUMP JUMPDEST PUSH2 0x1FE1 PUSH2 0x3F08 JUMP JUMPDEST PUSH1 0x13 SLOAD PUSH1 0x1 PUSH1 0x1 PUSH1 0xA0 SHL SUB SWAP2 DUP3 AND SWAP2 DUP3 SWAP1 DUP3 AND PUSH32 0x78C3B417DADF69374A59793B829C52001247130433427049317BDE56607B1B7 PUSH0 DUP1 LOG3 PUSH1 0x1 PUSH1 0x1 PUSH1 0xA0 SHL SUB NOT AND OR PUSH1 0x13 SSTORE STOP JUMPDEST CALLVALUE PUSH2 0x300 JUMPI PUSH1 0x20 CALLDATASIZE PUSH1 0x3 NOT ADD SLT PUSH2 0x300 JUMPI PUSH2 0x2041 PUSH2 0x30CC JUMP JUMPDEST PUSH0 PUSH1 0x80 PUSH1 0x40 MLOAD PUSH2 0x2050 DUP2 PUSH2 0x2F1F JUMP JUMPDEST DUP3 DUP2 MSTORE DUP3 PUSH1 0x20 DUP3 ADD MSTORE DUP3 PUSH1 0x40 DUP3 ADD MSTORE DUP3 PUSH1 0x60 DUP3 ADD MSTORE ADD MSTORE PUSH1 0x3 PUSH1 0xFF DUP3 AND GT PUSH2 0x822 JUMPI PUSH1 0x4 DUP2 LT ISZERO PUSH2 0x7FF JUMPI PUSH2 0x208C PUSH1 0x3 PUSH1 0xA0 SWAP3 MUL PUSH1 0x18 ADD PUSH2 0x350F JUMP JUMPDEST PUSH1 0xFF PUSH1 0x80 PUSH1 0x40 MLOAD SWAP3 DUP3 DUP2 MLOAD AND DUP5 MSTORE DUP3 PUSH1 0x20 DUP3 ADD MLOAD AND PUSH1 0x20 DUP6 ADD MSTORE DUP3 PUSH1 0x40 DUP3 ADD MLOAD AND PUSH1 0x40 DUP6 ADD MSTORE PUSH1 0x60 DUP2 ADD MLOAD PUSH1 0x60 DUP6 ADD MSTORE ADD MLOAD AND PUSH1 0x80 DUP3 ADD MSTORE RETURN JUMPDEST CALLVALUE PUSH2 0x300 JUMPI PUSH0 CALLDATASIZE PUSH1 0x3 NOT ADD SLT PUSH2 0x300 JUMPI PUSH2 0x20DE PUSH2 0x3F08 JUMP JUMPDEST PUSH1 0xA DUP1 SLOAD PUSH1 0x1 PUSH1 0x1 PUSH1 0xA0 SHL SUB NOT DUP2 AND SWAP1 SWAP2 SSTORE PUSH0 SWAP1 PUSH1 0x1 PUSH1 0x1 PUSH1 0xA0 SHL SUB AND PUSH32 0x8BE0079C531659141344CD1FD0A4F28419497F9722A3DAAFE3B4186F6B6457E0 DUP3 DUP1 LOG3 STOP JUMPDEST CALLVALUE PUSH2 0x300 JUMPI PUSH1 0x20 CALLDATASIZE PUSH1 0x3 NOT ADD SLT PUSH2 0x300 JUMPI PUSH1 0x20 PUSH2 0x449 PUSH2 0x213F PUSH2 0x2E91 JUMP JUMPDEST PUSH2 0x34DE JUMP JUMPDEST CALLVALUE PUSH2 0x300 JUMPI PUSH1 0x20 CALLDATASIZE PUSH1 0x3 NOT ADD SLT PUSH2 0x300 JUMPI PUSH1 0x20 PUSH2 0x2162 PUSH1 0x4 CALLDATALOAD PUSH2 0x3ED4 JUMP JUMPDEST PUSH1 0x40 MLOAD PUSH1 0x1 PUSH1 0x1 PUSH1 0xA0 SHL SUB SWAP1 SWAP2 AND DUP2 MSTORE RETURN JUMPDEST CALLVALUE PUSH2 0x300 JUMPI PUSH0 CALLDATASIZE PUSH1 0x3 NOT ADD SLT PUSH2 0x300 JUMPI PUSH1 0x40 MLOAD PUSH0 PUSH1 0x14 SLOAD PUSH2 0x2194 DUP2 PUSH2 0x2ECC JUMP JUMPDEST DUP1 DUP5 MSTORE SWAP1 PUSH1 0x1 DUP2 AND SWAP1 DUP2 ISZERO PUSH2 0x1883 JUMPI POP PUSH1 0x1 EQ PUSH2 0x21BB JUMPI PUSH2 0x532 DUP4 PUSH2 0x1811 DUP2 DUP6 SUB DUP3 PUSH2 0x2F56 JUMP JUMPDEST PUSH1 0x14 PUSH0 SWAP1 DUP2 MSTORE PUSH32 0xCE6D7B5282BD9A3661AE061FEED1DBDA4E52AB073B1F9285BE6E155D9C38D4EC SWAP4 SWAP3 POP SWAP1 JUMPDEST DUP1 DUP3 LT PUSH2 0x21FF JUMPI POP SWAP1 SWAP2 POP DUP2 ADD PUSH1 0x20 ADD PUSH2 0x1811 PUSH2 0x1801 JUMP JUMPDEST SWAP2 SWAP3 PUSH1 0x1 DUP2 PUSH1 0x20 SWAP3 SLOAD DUP4 DUP6 DUP9 ADD ADD MSTORE ADD SWAP2 ADD SWAP1 SWAP3 SWAP2 PUSH2 0x21E7 JUMP JUMPDEST CALLVALUE PUSH2 0x300 JUMPI PUSH1 0x20 CALLDATASIZE PUSH1 0x3 NOT ADD SLT PUSH2 0x300 JUMPI PUSH2 0x2232 PUSH2 0x2E91 JUMP JUMPDEST PUSH2 0x223A PUSH2 0x3F08 JUMP JUMPDEST PUSH1 0xB DUP1 SLOAD PUSH1 0x1 PUSH1 0x1 PUSH1 0xA0 SHL SUB NOT AND PUSH1 0x1 PUSH1 0x1 PUSH1 0xA0 SHL SUB SWAP3 SWAP1 SWAP3 AND SWAP2 SWAP1 SWAP2 OR SWAP1 SSTORE STOP JUMPDEST CALLVALUE PUSH2 0x300 JUMPI PUSH1 0x20 CALLDATASIZE PUSH1 0x3 NOT ADD SLT PUSH2 0x300 JUMPI PUSH1 0x4 CALLDATALOAD PUSH1 0x8 SLOAD DUP2 LT ISZERO PUSH2 0x2294 JUMPI PUSH2 0x2285 PUSH1 0x20 SWAP2 PUSH2 0x34C6 JUMP JUMPDEST SWAP1 SLOAD SWAP1 PUSH1 0x3 SHL SHR PUSH1 0x40 MLOAD SWAP1 DUP2 MSTORE RETURN JUMPDEST PUSH4 0x295F44F7 PUSH1 0xE2 SHL PUSH0 MSTORE PUSH0 PUSH1 0x4 MSTORE PUSH1 0x24 MSTORE PUSH1 0x44 PUSH0 REVERT JUMPDEST CALLVALUE PUSH2 0x300 JUMPI PUSH1 0x20 CALLDATASIZE PUSH1 0x3 NOT ADD SLT PUSH2 0x300 JUMPI PUSH1 0x4 CALLDATALOAD PUSH0 MSTORE PUSH1 0x10 PUSH1 0x20 MSTORE PUSH1 0x40 PUSH0 KECCAK256 DUP1 SLOAD PUSH2 0x532 PUSH1 0xFF PUSH1 0x2 PUSH1 0x1 DUP6 ADD SLOAD SWAP5 ADD SLOAD AND PUSH1 0x40 MLOAD SWAP4 DUP4 PUSH1 0xFF DUP7 SWAP6 PUSH1 0x48 SHR AND SWAP1 PUSH1 0xFF DUP2 PUSH1 0x40 SHR AND SWAP1 PUSH2 0xFFFF DUP2 PUSH1 0x30 SHR AND SWAP1 PUSH2 0xFFFF DUP2 PUSH1 0x20 SHR AND SWAP1 PUSH2 0xFFFF DUP1 DUP3 PUSH1 0x10 SHR AND SWAP2 AND DUP10 PUSH2 0x307E JUMP JUMPDEST CALLVALUE PUSH2 0x300 JUMPI PUSH0 CALLDATASIZE PUSH1 0x3 NOT ADD SLT PUSH2 0x300 JUMPI PUSH1 0xE SLOAD PUSH2 0x2330 DUP2 PUSH2 0x349B JUMP JUMPDEST SWAP1 PUSH2 0x233E PUSH1 0x40 MLOAD SWAP3 DUP4 PUSH2 0x2F56 JUMP JUMPDEST DUP1 DUP3 MSTORE PUSH1 0x1F NOT PUSH2 0x234D DUP3 PUSH2 0x349B JUMP JUMPDEST ADD PUSH0 JUMPDEST DUP2 DUP2 LT PUSH2 0x248A JUMPI POP POP PUSH0 JUMPDEST DUP2 DUP2 LT PUSH2 0x240E JUMPI DUP3 PUSH1 0x40 MLOAD DUP1 SWAP2 PUSH1 0x20 DUP3 ADD PUSH1 0x20 DUP4 MSTORE DUP2 MLOAD DUP1 SWAP2 MSTORE PUSH1 0x40 DUP4 ADD SWAP1 PUSH1 0x20 PUSH1 0x40 DUP3 PUSH1 0x5 SHL DUP7 ADD ADD SWAP4 ADD SWAP2 PUSH0 SWAP1 JUMPDEST DUP3 DUP3 LT PUSH2 0x239A JUMPI POP POP POP POP SUB SWAP1 RETURN JUMPDEST SWAP2 SWAP4 PUSH1 0x1 SWAP2 SWAP4 SWAP6 POP PUSH1 0x20 DUP1 SWAP2 PUSH1 0x3F NOT DUP10 DUP3 SUB ADD DUP6 MSTORE DUP8 MLOAD SWAP1 DUP5 DUP1 PUSH1 0xA0 SHL SUB DUP3 MLOAD AND DUP2 MSTORE PUSH1 0x80 DUP1 PUSH2 0x23EC PUSH2 0x23DA DUP7 DUP7 ADD MLOAD PUSH1 0xA0 DUP9 DUP8 ADD MSTORE PUSH1 0xA0 DUP7 ADD SWAP1 PUSH2 0x2E6D JUMP JUMPDEST PUSH1 0x40 DUP7 ADD MLOAD DUP6 DUP3 SUB PUSH1 0x40 DUP8 ADD MSTORE PUSH2 0x2E6D JUMP JUMPDEST SWAP4 PUSH1 0x60 DUP2 ADD MLOAD ISZERO ISZERO PUSH1 0x60 DUP6 ADD MSTORE ADD MLOAD SWAP2 ADD MSTORE SWAP7 ADD SWAP3 ADD SWAP3 ADD DUP6 SWAP5 SWAP4 SWAP2 SWAP3 PUSH2 0x238B JUMP JUMPDEST DUP1 PUSH1 0x1 SWAP2 PUSH0 MSTORE PUSH1 0xD PUSH1 0x20 MSTORE PUSH1 0x40 PUSH0 KECCAK256 PUSH1 0x4 PUSH1 0x40 MLOAD SWAP2 PUSH2 0x242C DUP4 PUSH2 0x2F1F JUMP JUMPDEST DUP5 DUP1 PUSH1 0xA0 SHL SUB DUP2 SLOAD AND DUP4 MSTORE PUSH2 0x2442 DUP6 DUP3 ADD PUSH2 0x2F77 JUMP JUMPDEST PUSH1 0x20 DUP5 ADD MSTORE PUSH2 0x2453 PUSH1 0x2 DUP3 ADD PUSH2 0x2F77 JUMP JUMPDEST PUSH1 0x40 DUP5 ADD MSTORE PUSH1 0xFF PUSH1 0x3 DUP3 ADD SLOAD AND ISZERO ISZERO PUSH1 0x60 DUP5 ADD MSTORE ADD SLOAD PUSH1 0x80 DUP3 ADD MSTORE PUSH2 0x2478 DUP3 DUP7 PUSH2 0x34B2 JUMP JUMPDEST MSTORE PUSH2 0x2483 DUP2 DUP6 PUSH2 0x34B2 JUMP JUMPDEST POP ADD PUSH2 0x235B JUMP JUMPDEST PUSH1 0x20 SWAP1 PUSH1 0x40 MLOAD PUSH2 0x2499 DUP2 PUSH2 0x2F1F JUMP JUMPDEST PUSH0 DUP2 MSTORE PUSH1 0x60 DUP4 DUP3 ADD MSTORE PUSH1 0x60 PUSH1 0x40 DUP3 ADD MSTORE PUSH0 PUSH1 0x60 DUP3 ADD MSTORE PUSH0 PUSH1 0x80 DUP3 ADD MSTORE DUP3 DUP3 DUP8 ADD ADD MSTORE ADD PUSH2 0x2350 JUMP JUMPDEST CALLVALUE PUSH2 0x300 JUMPI PUSH2 0x1376 PUSH2 0x24D2 CALLDATASIZE PUSH2 0x3017 JUMP JUMPDEST SWAP1 PUSH1 0x40 MLOAD SWAP3 PUSH2 0x24E2 PUSH1 0x20 DUP6 PUSH2 0x2F56 JUMP JUMPDEST PUSH0 DUP5 MSTORE PUSH2 0x1370 DUP4 DUP4 DUP4 PUSH2 0x319E JUMP JUMPDEST CALLVALUE PUSH2 0x300 JUMPI PUSH1 0x40 CALLDATASIZE PUSH1 0x3 NOT ADD SLT PUSH2 0x300 JUMPI PUSH2 0x2509 PUSH2 0x2E91 JUMP JUMPDEST PUSH1 0x24 CALLDATALOAD SWAP1 PUSH2 0x2516 DUP2 PUSH2 0x34DE JUMP JUMPDEST DUP3 LT ISZERO PUSH2 0x2545 JUMPI PUSH1 0x1 DUP1 PUSH1 0xA0 SHL SUB AND PUSH0 MSTORE PUSH1 0x6 PUSH1 0x20 MSTORE PUSH1 0x40 PUSH0 KECCAK256 SWAP1 PUSH0 MSTORE PUSH1 0x20 MSTORE PUSH1 0x20 PUSH1 0x40 PUSH0 KECCAK256 SLOAD PUSH1 0x40 MLOAD SWAP1 DUP2 MSTORE RETURN JUMPDEST PUSH4 0x295F44F7 PUSH1 0xE2 SHL PUSH0 MSTORE PUSH1 0x1 DUP1 PUSH1 0xA0 SHL SUB AND PUSH1 0x4 MSTORE PUSH1 0x24 MSTORE PUSH1 0x44 PUSH0 REVERT JUMPDEST CALLVALUE PUSH2 0x300 JUMPI PUSH1 0x40 CALLDATASIZE PUSH1 0x3 NOT ADD SLT PUSH2 0x300 JUMPI PUSH2 0x257B PUSH2 0x2E91 JUMP JUMPDEST PUSH1 0x40 MLOAD PUSH1 0x60 SWAP2 SWAP1 SWAP2 SHL PUSH12 0xFFFFFFFFFFFFFFFFFFFFFFFF NOT AND PUSH1 0x20 DUP3 ADD SWAP1 DUP2 MSTORE PUSH1 0x24 CALLDATALOAD PUSH1 0x34 DUP4 ADD MSTORE SWAP1 PUSH2 0x25B0 DUP2 PUSH1 0x54 DUP2 ADD PUSH2 0x14EB JUMP JUMPDEST MLOAD SWAP1 KECCAK256 PUSH0 MSTORE PUSH1 0xF PUSH1 0x20 MSTORE PUSH1 0x20 PUSH1 0xFF PUSH1 0x40 PUSH0 KECCAK256 SLOAD AND PUSH1 0x40 MLOAD SWAP1 ISZERO ISZERO DUP2 MSTORE RETURN JUMPDEST CALLVALUE PUSH2 0x300 JUMPI PUSH1 0x60 CALLDATASIZE PUSH1 0x3 NOT ADD SLT PUSH2 0x300 JUMPI PUSH2 0x25E7 PUSH2 0x2E91 JUMP JUMPDEST PUSH1 0x24 CALLDATALOAD PUSH1 0x1 PUSH1 0x1 PUSH1 0x40 SHL SUB DUP2 GT PUSH2 0x300 JUMPI PUSH2 0x2606 SWAP1 CALLDATASIZE SWAP1 PUSH1 0x4 ADD PUSH2 0x3051 JUMP JUMPDEST PUSH1 0x44 CALLDATALOAD PUSH1 0x1 PUSH1 0x1 PUSH1 0x40 SHL SUB DUP2 GT PUSH2 0x300 JUMPI PUSH2 0x2625 SWAP1 CALLDATASIZE SWAP1 PUSH1 0x4 ADD PUSH2 0x3051 JUMP JUMPDEST SWAP1 SWAP2 PUSH2 0x262F PUSH2 0x3F08 JUMP JUMPDEST PUSH1 0xE SLOAD SWAP4 PUSH2 0x263C DUP6 PUSH2 0x317C JUMP JUMPDEST PUSH1 0xE SSTORE PUSH2 0x2676 PUSH1 0x40 MLOAD SWAP7 PUSH2 0x264F DUP9 PUSH2 0x2F1F JUMP JUMPDEST PUSH1 0x1 PUSH1 0x1 PUSH1 0xA0 SHL SUB AND DUP1 DUP9 MSTORE SWAP5 PUSH2 0x2667 CALLDATASIZE DUP6 DUP6 PUSH2 0x3127 JUMP JUMPDEST SWAP5 PUSH1 0x20 DUP10 ADD SWAP6 DUP7 MSTORE CALLDATASIZE SWAP2 PUSH2 0x3127 JUMP JUMPDEST PUSH1 0x40 DUP1 DUP9 ADD SWAP2 DUP3 MSTORE PUSH1 0x1 PUSH1 0x60 DUP10 ADD DUP2 DUP2 MSTORE PUSH0 PUSH1 0x80 DUP12 ADD DUP2 DUP2 MSTORE DUP11 DUP3 MSTORE PUSH1 0xD PUSH1 0x20 MSTORE SWAP4 SWAP1 KECCAK256 SWAP10 MLOAD DUP11 SLOAD PUSH1 0x1 PUSH1 0x1 PUSH1 0xA0 SHL SUB NOT AND PUSH1 0x1 PUSH1 0x1 PUSH1 0xA0 SHL SUB SWAP2 SWAP1 SWAP2 AND OR DUP11 SSTORE SWAP6 MLOAD DUP1 MLOAD SWAP4 SWAP10 SWAP4 SWAP2 DUP5 ADD SWAP2 SWAP1 PUSH1 0x1 PUSH1 0x1 PUSH1 0x40 SHL SUB DUP3 GT PUSH2 0x6DB JUMPI PUSH2 0x26DF DUP3 PUSH2 0x5D9 DUP6 SLOAD PUSH2 0x2ECC JUMP JUMPDEST PUSH1 0x20 SWAP1 PUSH1 0x1F DUP4 GT PUSH1 0x1 EQ PUSH2 0x2896 JUMPI PUSH2 0x270D SWAP3 SWAP2 PUSH0 SWAP2 DUP4 PUSH2 0x288B JUMPI POP POP DUP2 PUSH1 0x1 SHL SWAP2 PUSH0 NOT SWAP1 PUSH1 0x3 SHL SHR NOT AND OR SWAP1 JUMP JUMPDEST SWAP1 SSTORE JUMPDEST PUSH1 0x2 DUP3 ADD SWAP8 MLOAD SWAP5 DUP6 MLOAD SWAP9 PUSH1 0x1 PUSH1 0x1 PUSH1 0x40 SHL SUB DUP11 GT PUSH2 0x6DB JUMPI DUP10 DUP10 SWAP8 PUSH2 0x273B PUSH1 0x20 SWAP13 PUSH2 0x5D9 DUP6 SLOAD PUSH2 0x2ECC JUMP JUMPDEST DUP12 SWAP1 PUSH1 0x1F DUP4 GT PUSH1 0x1 EQ PUSH2 0x27EF JUMPI SWAP4 PUSH1 0x4 SWAP4 PUSH2 0x2797 DUP5 PUSH32 0x1EABD33A83B9C620FAB3C5C4CF51FCA065D1CC07EA2BE194A7D490C84A343DA8 SWAP12 SWAP11 SWAP9 SWAP6 PUSH2 0x27B2 SWAP6 PUSH1 0x40 SWAP12 SWAP10 PUSH0 SWAP3 PUSH2 0x27E4 JUMPI POP POP DUP2 PUSH1 0x1 SHL SWAP2 PUSH0 NOT SWAP1 PUSH1 0x3 SHL SHR NOT AND OR SWAP1 JUMP JUMPDEST SWAP1 SSTORE JUMPDEST MLOAD ISZERO ISZERO PUSH1 0x3 DUP6 ADD SWAP1 PUSH1 0xFF DUP1 NOT DUP4 SLOAD AND SWAP2 ISZERO ISZERO AND OR SWAP1 SSTORE JUMP JUMPDEST MLOAD SWAP2 ADD SSTORE DUP3 DUP3 MLOAD SWAP4 DUP5 SWAP3 DUP11 DUP5 MSTORE DUP2 DUP12 DUP6 ADD MSTORE DUP5 DUP5 ADD CALLDATACOPY PUSH0 DUP3 DUP3 ADD DUP5 ADD MSTORE PUSH1 0x1F ADD PUSH1 0x1F NOT AND DUP2 ADD SUB ADD SWAP1 LOG3 PUSH1 0x40 MLOAD SWAP1 DUP2 MSTORE RETURN JUMPDEST ADD MLOAD SWAP1 POP PUSH0 DUP1 PUSH2 0x5F9 JUMP JUMPDEST PUSH1 0x1F SWAP10 SWAP9 SWAP8 SWAP7 SWAP6 SWAP5 SWAP4 SWAP3 SWAP2 SWAP10 NOT DUP3 AND SWAP1 DUP4 PUSH0 MSTORE DUP11 PUSH0 KECCAK256 SWAP2 PUSH0 JUMPDEST DUP2 DUP2 LT PUSH2 0x2871 JUMPI POP DUP4 PUSH1 0x4 SWAP7 SWAP4 PUSH32 0x1EABD33A83B9C620FAB3C5C4CF51FCA065D1CC07EA2BE194A7D490C84A343DA8 SWAP13 SWAP14 PUSH1 0x40 SWAP12 SWAP11 SWAP10 SWAP8 SWAP5 PUSH2 0x27B2 SWAP8 PUSH1 0x1 SWAP6 LT PUSH2 0x2859 JUMPI JUMPDEST POP POP POP DUP2 SHL ADD SWAP1 SSTORE PUSH2 0x279A JUMP JUMPDEST ADD MLOAD PUSH0 NOT PUSH1 0xF8 DUP5 PUSH1 0x3 SHL AND SHR NOT AND SWAP1 SSTORE PUSH0 DUP1 DUP1 PUSH2 0x284C JUMP JUMPDEST DUP3 DUP14 ADD MLOAD DUP5 SSTORE SWAP12 DUP16 ADD SWAP12 DUP15 SWAP12 POP PUSH1 0x1 SWAP1 SWAP4 ADD SWAP3 DUP16 ADD PUSH2 0x2808 JUMP JUMPDEST ADD MLOAD SWAP1 POP DUP13 DUP1 PUSH2 0x5F9 JUMP JUMPDEST SWAP1 PUSH1 0x1F NOT DUP4 AND SWAP2 DUP5 PUSH0 MSTORE DUP2 PUSH0 KECCAK256 SWAP3 PUSH0 JUMPDEST DUP2 DUP2 LT PUSH2 0x28E1 JUMPI POP SWAP1 DUP5 PUSH1 0x1 SWAP6 SWAP5 SWAP4 SWAP3 LT PUSH2 0x28C9 JUMPI JUMPDEST POP POP POP DUP2 SHL ADD SWAP1 SSTORE PUSH2 0x2710 JUMP JUMPDEST ADD MLOAD PUSH0 NOT PUSH1 0xF8 DUP5 PUSH1 0x3 SHL AND SHR NOT AND SWAP1 SSTORE DUP12 DUP1 DUP1 PUSH2 0x28BC JUMP JUMPDEST SWAP3 SWAP4 PUSH1 0x20 PUSH1 0x1 DUP2 SWAP3 DUP8 DUP7 ADD MLOAD DUP2 SSTORE ADD SWAP6 ADD SWAP4 ADD PUSH2 0x28A6 JUMP JUMPDEST CALLVALUE PUSH2 0x300 JUMPI PUSH2 0x1376 PUSH2 0x290A CALLDATASIZE PUSH2 0x3017 JUMP JUMPDEST SWAP2 PUSH2 0x319E JUMP JUMPDEST CALLVALUE PUSH2 0x300 JUMPI PUSH1 0x20 CALLDATASIZE PUSH1 0x3 NOT ADD SLT PUSH2 0x300 JUMPI PUSH1 0x4 CALLDATALOAD PUSH0 MSTORE PUSH1 0x12 PUSH1 0x20 MSTORE PUSH2 0x532 PUSH2 0x1811 PUSH1 0x40 PUSH0 KECCAK256 PUSH2 0x2F77 JUMP JUMPDEST CALLVALUE PUSH2 0x300 JUMPI PUSH0 CALLDATASIZE PUSH1 0x3 NOT ADD SLT PUSH2 0x300 JUMPI PUSH1 0x20 PUSH1 0x8 SLOAD PUSH1 0x40 MLOAD SWAP1 DUP2 MSTORE RETURN JUMPDEST CALLVALUE PUSH2 0x300 JUMPI PUSH1 0x40 CALLDATASIZE PUSH1 0x3 NOT ADD SLT PUSH2 0x300 JUMPI PUSH1 0x4 CALLDATALOAD PUSH1 0x24 CALLDATALOAD SWAP1 PUSH1 0xE SLOAD DUP2 LT ISZERO PUSH2 0x75E JUMPI PUSH0 MSTORE PUSH1 0xD PUSH1 0x20 MSTORE PUSH1 0x40 PUSH0 KECCAK256 PUSH1 0xFF PUSH1 0x3 DUP3 ADD SLOAD AND ISZERO PUSH2 0x1670 JUMPI DUP1 SLOAD PUSH1 0x40 MLOAD PUSH4 0x31A9108F PUSH1 0xE1 SHL DUP2 MSTORE PUSH1 0x4 DUP2 ADD DUP5 SWAP1 MSTORE PUSH1 0x1 PUSH1 0x1 PUSH1 0xA0 SHL SUB SWAP1 SWAP2 AND SWAP1 PUSH1 0x20 DUP2 PUSH1 0x24 DUP2 DUP6 GAS STATICCALL SWAP1 DUP2 ISZERO PUSH2 0x95D JUMPI PUSH0 SWAP2 PUSH2 0x2B1F JUMPI JUMPDEST POP CALLER PUSH1 0x1 PUSH1 0x1 PUSH1 0xA0 SHL SUB SWAP1 SWAP2 AND SUB PUSH2 0x1633 JUMPI PUSH1 0x40 MLOAD PUSH1 0x60 SWAP2 SWAP1 SWAP2 SHL PUSH12 0xFFFFFFFFFFFFFFFFFFFFFFFF NOT AND PUSH1 0x20 DUP3 ADD SWAP1 DUP2 MSTORE PUSH1 0x34 DUP3 ADD DUP5 SWAP1 MSTORE SWAP1 PUSH2 0x2A10 DUP2 PUSH1 0x54 DUP2 ADD PUSH2 0x14EB JUMP JUMPDEST MLOAD SWAP1 KECCAK256 SWAP2 DUP3 PUSH0 MSTORE PUSH1 0xF PUSH1 0x20 MSTORE PUSH1 0xFF PUSH1 0x40 PUSH0 KECCAK256 SLOAD AND PUSH2 0x1624 JUMPI PUSH1 0x20 SWAP3 PUSH0 MSTORE PUSH1 0xF DUP4 MSTORE PUSH1 0x40 PUSH0 KECCAK256 PUSH1 0x1 PUSH1 0xFF NOT DUP3 SLOAD AND OR SWAP1 SSTORE PUSH1 0xC SLOAD DUP1 SWAP3 PUSH2 0x2A4E DUP3 PUSH2 0x317C JUMP JUMPDEST PUSH1 0xC SSTORE DUP1 SLOAD PUSH1 0x40 MLOAD PUSH2 0x2AC5 SWAP2 PUSH1 0x1 PUSH1 0x1 PUSH1 0xA0 SHL SUB AND PUSH2 0x2A6C DUP3 PUSH2 0x2F04 JUMP JUMPDEST DUP2 MSTORE DUP7 DUP2 ADD DUP6 DUP2 MSTORE PUSH0 PUSH1 0x40 DUP1 DUP5 ADD DUP3 DUP2 MSTORE DUP8 DUP4 MSTORE PUSH1 0x11 DUP12 MSTORE SWAP2 KECCAK256 SWAP3 MLOAD DUP4 SLOAD PUSH1 0x1 PUSH1 0x1 PUSH1 0xA0 SHL SUB SWAP1 SWAP2 AND PUSH1 0x1 PUSH1 0x1 PUSH1 0xA0 SHL SUB NOT SWAP1 SWAP2 AND OR DUP4 SSTORE SWAP1 MLOAD PUSH1 0x1 DUP4 ADD SSTORE MLOAD PUSH1 0x2 SWAP1 SWAP2 ADD DUP1 SLOAD PUSH1 0xFF NOT AND SWAP2 ISZERO ISZERO PUSH1 0xFF AND SWAP2 SWAP1 SWAP2 OR SWAP1 SSTORE JUMP JUMPDEST PUSH1 0x4 DUP2 ADD PUSH2 0x2AD3 DUP2 SLOAD PUSH2 0x317C JUMP JUMPDEST SWAP1 SSTORE PUSH2 0x2ADF DUP3 CALLER PUSH2 0x3F2F JUMP JUMPDEST SLOAD PUSH1 0x40 MLOAD SWAP3 DUP4 MSTORE PUSH1 0x1 PUSH1 0x1 PUSH1 0xA0 SHL SUB AND SWAP2 CALLER SWAP1 PUSH32 0x87C9474D9C731DD6CED957ADAE84621220FB03E140358FA6CA1AA046E4527DAD SWAP1 DUP7 SWAP1 LOG4 PUSH1 0x40 MLOAD SWAP1 DUP2 MSTORE RETURN JUMPDEST PUSH2 0x2B38 SWAP2 POP PUSH1 0x20 RETURNDATASIZE PUSH1 0x20 GT PUSH2 0x1669 JUMPI PUSH2 0x165B DUP2 DUP4 PUSH2 0x2F56 JUMP JUMPDEST DUP5 PUSH2 0x29CA JUMP JUMPDEST CALLVALUE PUSH2 0x300 JUMPI PUSH1 0x40 CALLDATASIZE PUSH1 0x3 NOT ADD SLT PUSH2 0x300 JUMPI PUSH1 0x4 CALLDATALOAD PUSH2 0x2B5A PUSH2 0x2EBD JUMP JUMPDEST PUSH2 0x2B62 PUSH2 0x3F08 JUMP JUMPDEST PUSH1 0xE SLOAD DUP3 LT ISZERO PUSH2 0x75E JUMPI PUSH1 0x20 PUSH32 0xDDFF2E0904DF6DEC2B9CE7DB538095BDB975E6BA0A1DD2948F4DEB60C7BF6628 SWAP2 DUP4 PUSH0 MSTORE PUSH1 0xD DUP3 MSTORE PUSH2 0x2BB3 DUP2 PUSH1 0x3 PUSH1 0x40 PUSH0 KECCAK256 ADD SWAP1 PUSH1 0xFF DUP1 NOT DUP4 SLOAD AND SWAP2 ISZERO ISZERO AND OR SWAP1 SSTORE JUMP JUMPDEST PUSH1 0x40 MLOAD SWAP1 ISZERO ISZERO DUP2 MSTORE LOG2 STOP JUMPDEST CALLVALUE PUSH2 0x300 JUMPI PUSH1 0x40 CALLDATASIZE PUSH1 0x3 NOT ADD SLT PUSH2 0x300 JUMPI PUSH2 0x2BD7 PUSH2 0x2E91 JUMP JUMPDEST PUSH1 0x24 CALLDATALOAD PUSH2 0x2BE3 DUP2 PUSH2 0x3ED4 JUMP JUMPDEST CALLER ISZERO ISZERO DUP1 PUSH2 0x2C95 JUMPI JUMPDEST DUP1 PUSH2 0x2C68 JUMPI JUMPDEST PUSH2 0x2C55 JUMPI DUP2 SWAP1 PUSH1 0x1 PUSH1 0x1 PUSH1 0xA0 SHL SUB DUP5 DUP2 AND SWAP2 AND PUSH32 0x8C5BE1E5EBEC7D5BD14F71427D1E84F3DD0314C0F7B2291E5B200AC8C7C3B925 PUSH0 DUP1 LOG4 PUSH0 SWAP1 DUP2 MSTORE PUSH1 0x4 PUSH1 0x20 MSTORE PUSH1 0x40 SWAP1 KECCAK256 DUP1 SLOAD PUSH1 0x1 PUSH1 0x1 PUSH1 0xA0 SHL SUB NOT AND PUSH1 0x1 PUSH1 0x1 PUSH1 0xA0 SHL SUB SWAP1 SWAP3 AND SWAP2 SWAP1 SWAP2 OR SWAP1 SSTORE STOP JUMPDEST PUSH4 0xA9FBF51F PUSH1 0xE0 SHL PUSH0 MSTORE CALLER PUSH1 0x4 MSTORE PUSH1 0x24 PUSH0 REVERT JUMPDEST POP PUSH1 0x1 PUSH1 0x1 PUSH1 0xA0 SHL SUB DUP2 AND PUSH0 SWAP1 DUP2 MSTORE PUSH1 0x5 PUSH1 0x20 SWAP1 DUP2 MSTORE PUSH1 0x40 DUP1 DUP4 KECCAK256 CALLER DUP5 MSTORE SWAP1 SWAP2 MSTORE SWAP1 KECCAK256 SLOAD PUSH1 0xFF AND ISZERO PUSH2 0x2BF2 JUMP JUMPDEST POP PUSH1 0x1 PUSH1 0x1 PUSH1 0xA0 SHL SUB DUP2 AND CALLER EQ ISZERO PUSH2 0x2BEC JUMP JUMPDEST CALLVALUE PUSH2 0x300 JUMPI PUSH1 0x20 CALLDATASIZE PUSH1 0x3 NOT ADD SLT PUSH2 0x300 JUMPI PUSH1 0x4 CALLDATALOAD PUSH0 MSTORE PUSH1 0x11 PUSH1 0x20 MSTORE PUSH1 0x40 PUSH0 KECCAK256 PUSH1 0x1 DUP1 PUSH1 0xA0 SHL SUB DUP2 SLOAD AND PUSH2 0x532 PUSH1 0xFF PUSH1 0x2 PUSH1 0x1 DUP6 ADD SLOAD SWAP5 ADD SLOAD AND PUSH1 0x40 MLOAD SWAP4 DUP5 SWAP4 DUP5 SWAP2 SWAP3 PUSH1 0x40 SWAP2 SWAP5 SWAP4 PUSH1 0x60 DUP5 ADD SWAP6 PUSH1 0x1 DUP1 PUSH1 0xA0 SHL SUB AND DUP5 MSTORE PUSH1 0x20 DUP5 ADD MSTORE ISZERO ISZERO SWAP2 ADD MSTORE JUMP JUMPDEST CALLVALUE PUSH2 0x300 JUMPI PUSH1 0x20 CALLDATASIZE PUSH1 0x3 NOT ADD SLT PUSH2 0x300 JUMPI PUSH1 0x4 CALLDATALOAD PUSH2 0x2D27 DUP2 PUSH2 0x3ED4 JUMP JUMPDEST POP PUSH0 MSTORE PUSH1 0x4 PUSH1 0x20 MSTORE PUSH1 0x20 PUSH1 0x1 DUP1 PUSH1 0xA0 SHL SUB PUSH1 0x40 PUSH0 KECCAK256 SLOAD AND PUSH1 0x40 MLOAD SWAP1 DUP2 MSTORE RETURN JUMPDEST CALLVALUE PUSH2 0x300 JUMPI PUSH0 CALLDATASIZE PUSH1 0x3 NOT ADD SLT PUSH2 0x300 JUMPI PUSH1 0x40 MLOAD PUSH0 PUSH0 SLOAD PUSH2 0x2D65 DUP2 PUSH2 0x2ECC JUMP JUMPDEST DUP1 DUP5 MSTORE SWAP1 PUSH1 0x1 DUP2 AND SWAP1 DUP2 ISZERO PUSH2 0x1883 JUMPI POP PUSH1 0x1 EQ PUSH2 0x2D8C JUMPI PUSH2 0x532 DUP4 PUSH2 0x1811 DUP2 DUP6 SUB DUP3 PUSH2 0x2F56 JUMP JUMPDEST PUSH0 DUP1 DUP1 MSTORE PUSH32 0x290DECD9548B62A8D60345A988386FC84BA6BC95484008F6362F93160EF3E563 SWAP4 SWAP3 POP SWAP1 JUMPDEST DUP1 DUP3 LT PUSH2 0x2DCE JUMPI POP SWAP1 SWAP2 POP DUP2 ADD PUSH1 0x20 ADD PUSH2 0x1811 PUSH2 0x1801 JUMP JUMPDEST SWAP2 SWAP3 PUSH1 0x1 DUP2 PUSH1 0x20 SWAP3 SLOAD DUP4 DUP6 DUP9 ADD ADD MSTORE ADD SWAP2 ADD SWAP1 SWAP3 SWAP2 PUSH2 0x2DB6 JUMP JUMPDEST CALLVALUE PUSH2 0x300 JUMPI PUSH1 0x20 CALLDATASIZE PUSH1 0x3 NOT ADD SLT PUSH2 0x300 JUMPI PUSH1 0x4 CALLDATALOAD SWAP1 PUSH4 0xFFFFFFFF PUSH1 0xE0 SHL DUP3 AND DUP1 SWAP3 SUB PUSH2 0x300 JUMPI PUSH1 0x20 SWAP2 PUSH4 0x780E9D63 PUSH1 0xE0 SHL DUP2 EQ SWAP1 DUP2 ISZERO PUSH2 0x2E2A JUMPI JUMPDEST POP ISZERO ISZERO DUP2 MSTORE RETURN JUMPDEST PUSH4 0x80AC58CD PUSH1 0xE0 SHL DUP2 EQ SWAP2 POP DUP2 ISZERO PUSH2 0x2E5C JUMPI JUMPDEST DUP2 ISZERO PUSH2 0x2E4B JUMPI JUMPDEST POP DUP4 PUSH2 0x2E23 JUMP JUMPDEST PUSH4 0x1FFC9A7 PUSH1 0xE0 SHL EQ SWAP1 POP DUP4 PUSH2 0x2E44 JUMP JUMPDEST PUSH4 0x5B5E139F PUSH1 0xE0 SHL DUP2 EQ SWAP2 POP PUSH2 0x2E3D JUMP JUMPDEST DUP1 MLOAD DUP1 DUP4 MSTORE PUSH1 0x20 SWAP3 SWAP2 DUP2 SWAP1 DUP5 ADD DUP5 DUP5 ADD MCOPY PUSH0 DUP3 DUP3 ADD DUP5 ADD MSTORE PUSH1 0x1F ADD PUSH1 0x1F NOT AND ADD ADD SWAP1 JUMP JUMPDEST PUSH1 0x4 CALLDATALOAD SWAP1 PUSH1 0x1 PUSH1 0x1 PUSH1 0xA0 SHL SUB DUP3 AND DUP3 SUB PUSH2 0x300 JUMPI JUMP JUMPDEST PUSH1 0x24 CALLDATALOAD SWAP1 PUSH1 0x1 PUSH1 0x1 PUSH1 0xA0 SHL SUB DUP3 AND DUP3 SUB PUSH2 0x300 JUMPI JUMP JUMPDEST PUSH1 0x24 CALLDATALOAD SWAP1 DUP2 ISZERO ISZERO DUP3 SUB PUSH2 0x300 JUMPI JUMP JUMPDEST SWAP1 PUSH1 0x1 DUP3 DUP2 SHR SWAP3 AND DUP1 ISZERO PUSH2 0x2EFA JUMPI JUMPDEST PUSH1 0x20 DUP4 LT EQ PUSH2 0x2EE6 JUMPI JUMP JUMPDEST PUSH4 0x4E487B71 PUSH1 0xE0 SHL PUSH0 MSTORE PUSH1 0x22 PUSH1 0x4 MSTORE PUSH1 0x24 PUSH0 REVERT JUMPDEST SWAP2 PUSH1 0x7F AND SWAP2 PUSH2 0x2EDB JUMP JUMPDEST PUSH1 0x60 DUP2 ADD SWAP1 DUP2 LT PUSH1 0x1 PUSH1 0x1 PUSH1 0x40 SHL SUB DUP3 GT OR PUSH2 0x6DB JUMPI PUSH1 0x40 MSTORE JUMP JUMPDEST PUSH1 0xA0 DUP2 ADD SWAP1 DUP2 LT PUSH1 0x1 PUSH1 0x1 PUSH1 0x40 SHL SUB DUP3 GT OR PUSH2 0x6DB JUMPI PUSH1 0x40 MSTORE JUMP JUMPDEST PUSH2 0x100 DUP2 ADD SWAP1 DUP2 LT PUSH1 0x1 PUSH1 0x1 PUSH1 0x40 SHL SUB DUP3 GT OR PUSH2 0x6DB JUMPI PUSH1 0x40 MSTORE JUMP JUMPDEST SWAP1 PUSH1 0x1F DUP1 NOT SWAP2 ADD AND DUP2 ADD SWAP1 DUP2 LT PUSH1 0x1 PUSH1 0x1 PUSH1 0x40 SHL SUB DUP3 GT OR PUSH2 0x6DB JUMPI PUSH1 0x40 MSTORE JUMP JUMPDEST SWAP1 PUSH1 0x40 MLOAD SWAP2 DUP3 PUSH0 DUP3 SLOAD SWAP3 PUSH2 0x2F8A DUP5 PUSH2 0x2ECC JUMP JUMPDEST DUP1 DUP5 MSTORE SWAP4 PUSH1 0x1 DUP2 AND SWAP1 DUP2 ISZERO PUSH2 0x2FF5 JUMPI POP PUSH1 0x1 EQ PUSH2 0x2FB1 JUMPI JUMPDEST POP PUSH2 0x2FAF SWAP3 POP SUB DUP4 PUSH2 0x2F56 JUMP JUMPDEST JUMP JUMPDEST SWAP1 POP PUSH0 SWAP3 SWAP2 SWAP3 MSTORE PUSH1 0x20 PUSH0 KECCAK256 SWAP1 PUSH0 SWAP2 JUMPDEST DUP2 DUP4 LT PUSH2 0x2FD9 JUMPI POP POP SWAP1 PUSH1 0x20 PUSH2 0x2FAF SWAP3 DUP3 ADD ADD PUSH0 PUSH2 0x2FA2 JUMP JUMPDEST PUSH1 0x20 SWAP2 SWAP4 POP DUP1 PUSH1 0x1 SWAP2 SLOAD DUP4 DUP6 DUP10 ADD ADD MSTORE ADD SWAP2 ADD SWAP1 SWAP2 DUP5 SWAP3 PUSH2 0x2FC0 JUMP JUMPDEST SWAP1 POP PUSH1 0x20 SWAP3 POP PUSH2 0x2FAF SWAP5 SWAP2 POP PUSH1 0xFF NOT AND DUP3 DUP5 ADD MSTORE ISZERO ISZERO PUSH1 0x5 SHL DUP3 ADD ADD PUSH0 PUSH2 0x2FA2 JUMP JUMPDEST PUSH1 0x60 SWAP1 PUSH1 0x3 NOT ADD SLT PUSH2 0x300 JUMPI PUSH1 0x4 CALLDATALOAD PUSH1 0x1 PUSH1 0x1 PUSH1 0xA0 SHL SUB DUP2 AND DUP2 SUB PUSH2 0x300 JUMPI SWAP1 PUSH1 0x24 CALLDATALOAD PUSH1 0x1 PUSH1 0x1 PUSH1 0xA0 SHL SUB DUP2 AND DUP2 SUB PUSH2 0x300 JUMPI SWAP1 PUSH1 0x44 CALLDATALOAD SWAP1 JUMP JUMPDEST SWAP2 DUP2 PUSH1 0x1F DUP5 ADD SLT ISZERO PUSH2 0x300 JUMPI DUP3 CALLDATALOAD SWAP2 PUSH1 0x1 PUSH1 0x1 PUSH1 0x40 SHL SUB DUP4 GT PUSH2 0x300 JUMPI PUSH1 0x20 DUP4 DUP2 DUP7 ADD SWAP6 ADD ADD GT PUSH2 0x300 JUMPI JUMP JUMPDEST SWAP7 SWAP5 SWAP3 SWAP1 SWAP9 SWAP8 SWAP6 SWAP4 SWAP2 PUSH2 0x100 DUP9 ADD SWAP10 PUSH2 0xFFFF AND DUP9 MSTORE PUSH2 0xFFFF AND PUSH1 0x20 DUP9 ADD MSTORE PUSH2 0xFFFF AND PUSH1 0x40 DUP8 ADD MSTORE PUSH2 0xFFFF AND PUSH1 0x60 DUP7 ADD MSTORE PUSH1 0xFF AND PUSH1 0x80 DUP6 ADD MSTORE PUSH1 0xFF AND PUSH1 0xA0 DUP5 ADD MSTORE PUSH1 0xC0 DUP4 ADD MSTORE ISZERO ISZERO SWAP1 PUSH1 0xE0 ADD MSTORE JUMP JUMPDEST PUSH1 0x4 CALLDATALOAD SWAP1 PUSH1 0xFF DUP3 AND DUP3 SUB PUSH2 0x300 JUMPI JUMP JUMPDEST SWAP2 DUP2 PUSH1 0x1F DUP5 ADD SLT ISZERO PUSH2 0x300 JUMPI DUP3 CALLDATALOAD SWAP2 PUSH1 0x1 PUSH1 0x1 PUSH1 0x40 SHL SUB DUP4 GT PUSH2 0x300 JUMPI PUSH1 0x20 DUP1 DUP6 ADD SWAP5 DUP5 PUSH1 0x5 SHL ADD ADD GT PUSH2 0x300 JUMPI JUMP JUMPDEST PUSH1 0x1 PUSH1 0x1 PUSH1 0x40 SHL SUB DUP2 GT PUSH2 0x6DB JUMPI PUSH1 0x1F ADD PUSH1 0x1F NOT AND PUSH1 0x20 ADD SWAP1 JUMP JUMPDEST SWAP3 SWAP2 SWAP3 PUSH2 0x3133 DUP3 PUSH2 0x310C JUMP JUMPDEST SWAP2 PUSH2 0x3141 PUSH1 0x40 MLOAD SWAP4 DUP5 PUSH2 0x2F56 JUMP JUMPDEST DUP3 SWAP5 DUP2 DUP5 MSTORE DUP2 DUP4 ADD GT PUSH2 0x300 JUMPI DUP3 DUP2 PUSH1 0x20 SWAP4 DUP5 PUSH0 SWAP7 ADD CALLDATACOPY ADD ADD MSTORE JUMP JUMPDEST SWAP1 DUP2 PUSH1 0x20 SWAP2 SUB SLT PUSH2 0x300 JUMPI MLOAD PUSH1 0x1 PUSH1 0x1 PUSH1 0xA0 SHL SUB DUP2 AND DUP2 SUB PUSH2 0x300 JUMPI SWAP1 JUMP JUMPDEST PUSH0 NOT DUP2 EQ PUSH2 0x318A JUMPI PUSH1 0x1 ADD SWAP1 JUMP JUMPDEST PUSH4 0x4E487B71 PUSH1 0xE0 SHL PUSH0 MSTORE PUSH1 0x11 PUSH1 0x4 MSTORE PUSH1 0x24 PUSH0 REVERT JUMPDEST SWAP1 SWAP2 SWAP1 PUSH1 0x1 PUSH1 0x1 PUSH1 0xA0 SHL SUB DUP4 AND DUP1 ISZERO PUSH2 0x3439 JUMPI PUSH0 DUP4 DUP2 MSTORE PUSH1 0x2 PUSH1 0x20 MSTORE PUSH1 0x40 SWAP1 KECCAK256 SLOAD PUSH1 0x1 PUSH1 0x1 PUSH1 0xA0 SHL SUB AND SWAP4 CALLER ISZERO ISZERO DUP1 PUSH2 0x33A9 JUMPI JUMPDEST POP DUP5 ISZERO DUP1 ISZERO PUSH2 0x3376 JUMPI JUMPDEST DUP3 PUSH0 MSTORE PUSH1 0x3 PUSH1 0x20 MSTORE PUSH1 0x40 PUSH0 KECCAK256 PUSH1 0x1 DUP2 SLOAD ADD SWAP1 SSTORE DUP5 PUSH0 MSTORE PUSH1 0x2 PUSH1 0x20 MSTORE PUSH1 0x40 PUSH0 KECCAK256 DUP4 PUSH1 0x1 PUSH1 0x1 PUSH1 0x60 SHL SUB PUSH1 0xA0 SHL DUP3 SLOAD AND OR SWAP1 SSTORE DUP5 DUP4 DUP8 PUSH32 0xDDF252AD1BE2C89B69C2B068FC378DAA952BA7F163C4A11628F55A4DF523B3EF PUSH0 DUP1 LOG4 ISZERO PUSH2 0x32F9 JUMPI PUSH1 0x8 SLOAD DUP5 PUSH0 MSTORE PUSH1 0x9 PUSH1 0x20 MSTORE DUP1 PUSH1 0x40 PUSH0 KECCAK256 SSTORE PUSH1 0x1 PUSH1 0x40 SHL DUP2 LT ISZERO PUSH2 0x6DB JUMPI DUP5 PUSH2 0x326A DUP3 PUSH1 0x1 PUSH2 0x3282 SWAP5 ADD PUSH1 0x8 SSTORE PUSH2 0x34C6 JUMP JUMPDEST SWAP1 SWAP2 SWAP1 DUP3 SLOAD SWAP1 PUSH1 0x3 SHL SWAP2 DUP3 SHL SWAP2 PUSH0 NOT SWAP1 SHL NOT AND OR SWAP1 SSTORE JUMP JUMPDEST DUP2 DUP6 SUB PUSH2 0x32B9 JUMPI JUMPDEST POP POP PUSH1 0x1 PUSH1 0x1 PUSH1 0xA0 SHL SUB AND DUP1 DUP4 SUB PUSH2 0x32A1 JUMPI POP POP POP JUMP JUMPDEST PUSH4 0x64283D7B PUSH1 0xE0 SHL PUSH0 MSTORE PUSH1 0x4 MSTORE PUSH1 0x24 MSTORE PUSH1 0x44 MSTORE PUSH1 0x64 PUSH0 REVERT JUMPDEST PUSH2 0x32C2 SWAP1 PUSH2 0x34DE JUMP JUMPDEST PUSH0 NOT DUP2 ADD SWAP2 SWAP1 DUP3 GT PUSH2 0x318A JUMPI PUSH0 MSTORE PUSH1 0x6 PUSH1 0x20 MSTORE PUSH1 0x40 PUSH0 KECCAK256 DUP2 PUSH0 MSTORE PUSH1 0x20 MSTORE DUP3 PUSH1 0x40 PUSH0 KECCAK256 SSTORE DUP3 PUSH0 MSTORE PUSH1 0x7 PUSH1 0x20 MSTORE PUSH1 0x40 PUSH0 KECCAK256 SSTORE PUSH0 DUP1 PUSH2 0x328A JUMP JUMPDEST DUP5 DUP3 EQ PUSH2 0x3282 JUMPI PUSH2 0x3309 DUP6 PUSH2 0x34DE JUMP JUMPDEST DUP5 PUSH0 MSTORE PUSH1 0x7 PUSH1 0x20 MSTORE PUSH1 0x40 PUSH0 KECCAK256 SLOAD SWAP1 DUP7 PUSH0 MSTORE PUSH1 0x6 PUSH1 0x20 MSTORE PUSH1 0x40 PUSH0 KECCAK256 SWAP2 DUP2 DUP2 SUB PUSH2 0x334B JUMPI JUMPDEST POP DUP6 PUSH0 MSTORE PUSH1 0x7 PUSH1 0x20 MSTORE PUSH0 PUSH1 0x40 DUP2 KECCAK256 SSTORE PUSH0 MSTORE PUSH1 0x20 MSTORE PUSH0 PUSH1 0x40 DUP2 KECCAK256 SSTORE PUSH2 0x3282 JUMP JUMPDEST DUP2 PUSH0 MSTORE DUP3 PUSH1 0x20 MSTORE PUSH1 0x40 PUSH0 KECCAK256 SLOAD DUP2 PUSH0 MSTORE DUP4 PUSH1 0x20 MSTORE DUP1 PUSH1 0x40 PUSH0 KECCAK256 SSTORE PUSH0 MSTORE PUSH1 0x7 PUSH1 0x20 MSTORE PUSH1 0x40 PUSH0 KECCAK256 SSTORE PUSH0 PUSH2 0x332C JUMP JUMPDEST PUSH0 DUP6 DUP2 MSTORE PUSH1 0x4 PUSH1 0x20 MSTORE PUSH1 0x40 SWAP1 KECCAK256 DUP1 SLOAD PUSH1 0x1 PUSH1 0x1 PUSH1 0xA0 SHL SUB NOT AND SWAP1 SSTORE DUP6 PUSH0 MSTORE PUSH1 0x3 PUSH1 0x20 MSTORE PUSH1 0x40 PUSH0 KECCAK256 PUSH0 NOT DUP2 SLOAD ADD SWAP1 SSTORE PUSH2 0x31DC JUMP JUMPDEST DUP1 PUSH2 0x33E8 JUMPI JUMPDEST ISZERO PUSH2 0x33BA JUMPI PUSH0 PUSH2 0x31D2 JUMP JUMPDEST DUP4 DUP6 PUSH2 0x33D2 JUMPI PUSH4 0x7E273289 PUSH1 0xE0 SHL PUSH0 MSTORE PUSH1 0x4 MSTORE PUSH1 0x24 PUSH0 REVERT JUMPDEST PUSH4 0x177E802F PUSH1 0xE0 SHL PUSH0 MSTORE CALLER PUSH1 0x4 MSTORE PUSH1 0x24 MSTORE PUSH1 0x44 PUSH0 REVERT JUMPDEST POP CALLER DUP6 EQ DUP1 ISZERO PUSH2 0x3417 JUMPI JUMPDEST DUP1 PUSH2 0x33AF JUMPI POP PUSH0 DUP5 DUP2 MSTORE PUSH1 0x4 PUSH1 0x20 MSTORE PUSH1 0x40 SWAP1 KECCAK256 SLOAD PUSH1 0x1 PUSH1 0x1 PUSH1 0xA0 SHL SUB AND CALLER EQ PUSH2 0x33AF JUMP JUMPDEST POP PUSH0 DUP6 DUP2 MSTORE PUSH1 0x5 PUSH1 0x20 SWAP1 DUP2 MSTORE PUSH1 0x40 DUP1 DUP4 KECCAK256 CALLER DUP5 MSTORE SWAP1 SWAP2 MSTORE SWAP1 KECCAK256 SLOAD PUSH1 0xFF AND PUSH2 0x33F3 JUMP JUMPDEST PUSH4 0x32505749 PUSH1 0xE1 SHL PUSH0 MSTORE PUSH0 PUSH1 0x4 MSTORE PUSH1 0x24 PUSH0 REVERT JUMPDEST PUSH1 0x1F DUP3 GT PUSH2 0x3459 JUMPI POP POP POP JUMP JUMPDEST PUSH0 MSTORE PUSH1 0x20 PUSH0 KECCAK256 SWAP1 PUSH1 0x20 PUSH1 0x1F DUP5 ADD PUSH1 0x5 SHR DUP4 ADD SWAP4 LT PUSH2 0x3491 JUMPI JUMPDEST PUSH1 0x1F ADD PUSH1 0x5 SHR ADD SWAP1 JUMPDEST DUP2 DUP2 LT PUSH2 0x3486 JUMPI POP POP JUMP JUMPDEST PUSH0 DUP2 SSTORE PUSH1 0x1 ADD PUSH2 0x347B JUMP JUMPDEST SWAP1 SWAP2 POP DUP2 SWAP1 PUSH2 0x3472 JUMP JUMPDEST PUSH1 0x1 PUSH1 0x1 PUSH1 0x40 SHL SUB DUP2 GT PUSH2 0x6DB JUMPI PUSH1 0x5 SHL PUSH1 0x20 ADD SWAP1 JUMP JUMPDEST DUP1 MLOAD DUP3 LT ISZERO PUSH2 0x7FF JUMPI PUSH1 0x20 SWAP2 PUSH1 0x5 SHL ADD ADD SWAP1 JUMP JUMPDEST PUSH1 0x8 SLOAD DUP2 LT ISZERO PUSH2 0x7FF JUMPI PUSH1 0x8 PUSH0 MSTORE PUSH1 0x20 PUSH0 KECCAK256 ADD SWAP1 PUSH0 SWAP1 JUMP JUMPDEST PUSH1 0x1 PUSH1 0x1 PUSH1 0xA0 SHL SUB AND DUP1 ISZERO PUSH2 0x34FC JUMPI PUSH0 MSTORE PUSH1 0x3 PUSH1 0x20 MSTORE PUSH1 0x40 PUSH0 KECCAK256 SLOAD SWAP1 JUMP JUMPDEST PUSH4 0x22718AD9 PUSH1 0xE2 SHL PUSH0 MSTORE PUSH0 PUSH1 0x4 MSTORE PUSH1 0x24 PUSH0 REVERT JUMPDEST SWAP1 PUSH1 0x40 MLOAD PUSH2 0x351C DUP2 PUSH2 0x2F1F JUMP JUMPDEST PUSH1 0x80 PUSH1 0xFF PUSH1 0x2 DUP4 SWAP6 DUP3 DUP2 SLOAD DUP2 DUP2 AND DUP8 MSTORE DUP2 DUP2 PUSH1 0x8 SHR AND PUSH1 0x20 DUP9 ADD MSTORE PUSH1 0x10 SHR AND PUSH1 0x40 DUP7 ADD MSTORE PUSH1 0x1 DUP2 ADD SLOAD PUSH1 0x60 DUP7 ADD MSTORE ADD SLOAD AND SWAP2 ADD MSTORE JUMP JUMPDEST SWAP2 SWAP1 DUP2 LT ISZERO PUSH2 0x7FF JUMPI PUSH1 0x5 SHL ADD SWAP1 JUMP JUMPDEST SWAP2 SWAP1 DUP3 ADD DUP1 SWAP3 GT PUSH2 0x318A JUMPI JUMP JUMPDEST SWAP1 DUP2 PUSH1 0x20 SWAP2 SUB SLT PUSH2 0x300 JUMPI MLOAD DUP1 ISZERO ISZERO DUP2 SUB PUSH2 0x300 JUMPI SWAP1 JUMP JUMPDEST PUSH1 0x3 DUP3 LT PUSH2 0x822 JUMPI DUP2 ISZERO PUSH2 0x7FF JUMPI DUP1 CALLDATALOAD SWAP1 DUP2 PUSH0 MSTORE PUSH1 0x10 PUSH1 0x20 MSTORE PUSH1 0xFF PUSH1 0x40 PUSH0 KECCAK256 SLOAD PUSH1 0x48 SHR AND PUSH1 0x3 DUP2 GT PUSH2 0x822 JUMPI PUSH1 0x4 DUP2 LT ISZERO PUSH2 0x7FF JUMPI PUSH2 0x35CB PUSH1 0x3 DUP3 MUL PUSH1 0x18 ADD PUSH2 0x350F JUMP JUMPDEST SWAP3 PUSH1 0xFF PUSH1 0x40 DUP6 ADD MLOAD AND DUP6 SUB PUSH2 0x822 JUMPI PUSH0 SWAP1 DUP2 MSTORE PUSH1 0x11 PUSH1 0x20 MSTORE PUSH1 0x40 DUP2 KECCAK256 SLOAD PUSH2 0x2E0 DUP3 SWAP1 MSTORE SWAP1 SWAP5 DUP6 SWAP5 DUP6 SWAP5 PUSH1 0x60 SWAP5 DUP7 SWAP5 PUSH1 0x1 PUSH1 0x1 PUSH1 0xA0 SHL SUB AND SWAP4 DUP6 SWAP3 SWAP2 DUP4 SWAP1 DUP2 JUMPDEST DUP4 DUP2 LT PUSH2 0x3C43 JUMPI POP POP PUSH1 0x40 MLOAD PUSH4 0x6EB1769F PUSH1 0xE1 SHL DUP2 MSTORE CALLER PUSH1 0x4 DUP3 ADD MSTORE ADDRESS PUSH1 0x24 DUP3 ADD MSTORE SWAP1 POP PUSH32 0x0 PUSH1 0x1 PUSH1 0x1 PUSH1 0xA0 SHL SUB AND PUSH1 0x20 DUP3 PUSH1 0x44 DUP2 DUP5 GAS STATICCALL SWAP2 DUP3 ISZERO PUSH2 0x95D JUMPI PUSH0 SWAP3 PUSH2 0x3C0F JUMPI JUMPDEST POP PUSH1 0x60 DUP7 ADD SWAP2 DUP3 MLOAD GT PUSH2 0x3C00 JUMPI PUSH1 0x20 PUSH0 SWAP2 PUSH1 0x64 DUP5 MLOAD PUSH1 0x40 MLOAD SWAP5 DUP6 SWAP4 DUP5 SWAP3 PUSH4 0x23B872DD PUSH1 0xE0 SHL DUP5 MSTORE CALLER PUSH1 0x4 DUP6 ADD MSTORE ADDRESS PUSH1 0x24 DUP6 ADD MSTORE PUSH1 0x44 DUP5 ADD MSTORE GAS CALL DUP1 ISZERO PUSH2 0x95D JUMPI PUSH2 0x3BE3 JUMPI JUMPDEST POP DUP1 MLOAD PUSH1 0x1 SHR SWAP1 PUSH2 0x36C7 DUP3 PUSH1 0x17 SLOAD PUSH2 0x3562 JUMP JUMPDEST PUSH1 0x17 SSTORE MLOAD SWAP1 DUP2 SUB SWAP1 DUP2 GT PUSH2 0x318A JUMPI PUSH2 0x36E1 SWAP1 PUSH1 0x16 SLOAD PUSH2 0x3562 JUMP JUMPDEST PUSH1 0x16 SSTORE PUSH1 0xC SLOAD PUSH1 0x40 MLOAD PUSH1 0x20 DUP2 ADD SWAP2 PREVRANDAO DUP4 MSTORE TIMESTAMP PUSH1 0x40 DUP4 ADD MSTORE CALLER PUSH1 0x60 SHL PUSH1 0x60 DUP4 ADD MSTORE PUSH1 0x74 DUP3 ADD MSTORE DUP3 PUSH1 0x94 DUP3 ADD MSTORE PUSH1 0x94 DUP2 MSTORE PUSH2 0x371B PUSH1 0xB4 DUP3 PUSH2 0x2F56 JUMP JUMPDEST MLOAD SWAP1 KECCAK256 SWAP10 PUSH1 0xFF PUSH1 0x80 DUP7 ADD MLOAD AND PUSH1 0x64 DUP13 MOD LT PUSH0 EQ PUSH2 0x3B68 JUMPI POP PUSH0 JUMPDEST DUP2 DUP2 LT PUSH2 0x3B4B JUMPI POP POP POP PUSH1 0xC SLOAD SWAP8 PUSH2 0x374C DUP10 PUSH2 0x317C JUMP JUMPDEST PUSH1 0xC SSTORE PUSH1 0x40 MLOAD PUSH1 0x20 DUP2 ADD SWAP2 DUP3 MSTORE PUSH5 0x189BDBDCDD PUSH1 0xDA SHL PUSH1 0x40 DUP3 ADD MSTORE PUSH1 0x25 DUP2 MSTORE PUSH2 0x3776 PUSH1 0x45 DUP3 PUSH2 0x2F56 JUMP JUMPDEST MLOAD SWAP1 KECCAK256 SWAP4 PUSH1 0xB DUP6 MOD PUSH1 0x69 ADD SWAP1 DUP2 PUSH1 0x69 GT PUSH2 0x318A JUMPI PUSH1 0x64 SWAP2 PUSH2 0xFFFF PUSH2 0x379A SWAP3 AND PUSH2 0x4405 JUMP JUMPDEST DIV PUSH1 0x64 DUP2 GT PUSH2 0x3B43 JUMPI JUMPDEST DUP1 ISZERO PUSH2 0x3B3B JUMPI JUMPDEST PUSH2 0xFFFF AND SWAP7 PUSH1 0xB DUP6 PUSH1 0x10 SHR MOD PUSH1 0x69 ADD SWAP1 DUP2 PUSH1 0x69 GT PUSH2 0x318A JUMPI PUSH1 0x64 SWAP2 PUSH2 0xFFFF PUSH2 0x37D3 SWAP3 AND PUSH2 0x4405 JUMP JUMPDEST DIV PUSH1 0x64 DUP2 GT PUSH2 0x3B33 JUMPI JUMPDEST DUP1 ISZERO PUSH2 0x3B2B JUMPI JUMPDEST PUSH2 0xFFFF AND SWAP6 PUSH1 0xB DUP6 PUSH1 0x20 SHR MOD PUSH1 0x69 ADD DUP1 PUSH1 0x69 GT PUSH2 0x318A JUMPI PUSH2 0x380E PUSH1 0x64 SWAP2 PUSH2 0xFFFF PUSH2 0x2E0 MLOAD AND PUSH2 0x4405 JUMP JUMPDEST DIV SWAP5 PUSH2 0x12C DUP7 GT PUSH2 0x3B21 JUMPI JUMPDEST PUSH1 0x32 DUP7 LT PUSH2 0x3B18 JUMPI JUMPDEST PUSH1 0xB SWAP1 PUSH1 0x30 SHR MOD PUSH1 0x69 ADD SWAP1 DUP2 PUSH1 0x69 GT PUSH2 0x318A JUMPI DUP10 SWAP9 PUSH2 0x39EA SWAP7 PUSH2 0x397C SWAP6 PUSH2 0xFFFF SWAP6 PUSH1 0x64 PUSH2 0x3855 PUSH1 0x2 SWAP8 DUP16 SWAP8 DUP11 AND PUSH2 0x4405 JUMP JUMPDEST DIV PUSH1 0x64 DUP2 GT PUSH2 0x3B10 JUMPI JUMPDEST DUP1 ISZERO PUSH2 0x3B08 JUMPI JUMPDEST DUP8 PUSH1 0x20 SWAP2 AND SWAP3 ADD SWAP12 PUSH1 0xFF DUP14 MLOAD AND SWAP3 PUSH1 0x40 MLOAD PUSH1 0x20 DUP2 ADD SWAP1 PUSH7 0x18DC98599D1959 PUSH1 0xCA SHL DUP3 MSTORE DUP9 PUSH1 0x27 DUP3 ADD MSTORE PUSH1 0x27 DUP2 MSTORE PUSH2 0x389E PUSH1 0x47 DUP3 PUSH2 0x2F56 JUMP JUMPDEST MLOAD SWAP1 KECCAK256 SWAP6 PUSH1 0x40 MLOAD SWAP1 PUSH2 0x38AF DUP3 PUSH2 0x2F3A JUMP JUMPDEST DUP2 MSTORE PUSH1 0x20 DUP2 ADD SWAP3 DUP4 MSTORE DUP10 PUSH1 0x40 DUP3 ADD SWAP7 AND DUP7 MSTORE PUSH1 0x60 DUP2 ADD SWAP2 DUP3 MSTORE PUSH1 0xFF PUSH1 0x80 DUP3 ADD SWAP5 AND DUP5 MSTORE PUSH1 0xA0 DUP2 ADD SWAP5 DUP6 MSTORE PUSH1 0xC0 DUP2 ADD SWAP7 DUP8 MSTORE PUSH1 0xE0 DUP2 ADD SWAP8 PUSH1 0x1 DUP10 MSTORE PUSH0 MSTORE PUSH1 0x10 PUSH1 0x20 MSTORE PUSH1 0xFF PUSH1 0x48 SHL PUSH1 0xFF PUSH1 0x40 SHL PUSH2 0xFFFF PUSH1 0x30 SHL PUSH6 0xFFFF00000000 PUSH4 0xFFFF0000 PUSH1 0x40 PUSH0 KECCAK256 SWAP15 DUP16 SWAP7 MLOAD AND SWAP6 SLOAD SWAP8 MLOAD PUSH1 0x10 SHL AND SWAP10 MLOAD PUSH1 0x20 SHL AND SWAP5 MLOAD PUSH1 0x30 SHL AND SWAP6 MLOAD PUSH1 0x40 SHL AND SWAP6 MLOAD PUSH1 0x48 SHL AND SWAP6 PUSH1 0xFF PUSH1 0x48 SHL NOT SWAP4 PUSH1 0xFF PUSH1 0x40 SHL NOT SWAP3 PUSH2 0xFFFF PUSH1 0x30 SHL NOT SWAP2 PUSH6 0xFFFFFFFFFFFF NOT AND OR AND OR AND OR AND OR OR OR DUP5 SSTORE MLOAD PUSH1 0x1 DUP5 ADD SSTORE MLOAD ISZERO ISZERO SWAP2 ADD SWAP1 PUSH1 0xFF DUP1 NOT DUP4 SLOAD AND SWAP2 ISZERO ISZERO AND OR SWAP1 SSTORE JUMP JUMPDEST PUSH1 0x40 MLOAD SWAP1 PUSH2 0x3989 DUP3 PUSH2 0x2F04 JUMP JUMPDEST DUP2 MSTORE PUSH1 0x2 PUSH1 0x20 DUP3 ADD PUSH0 DUP2 MSTORE PUSH1 0x40 DUP4 ADD SWAP1 PUSH1 0x1 DUP3 MSTORE DUP8 PUSH0 MSTORE PUSH1 0x11 PUSH1 0x20 MSTORE PUSH1 0x40 PUSH0 KECCAK256 SWAP4 PUSH1 0x1 DUP1 PUSH1 0xA0 SHL SUB SWAP1 PUSH1 0x1 DUP1 PUSH1 0xA0 SHL SUB SWAP1 MLOAD AND AND PUSH1 0x1 PUSH1 0x1 PUSH1 0x60 SHL SUB PUSH1 0xA0 SHL DUP6 SLOAD AND OR DUP5 SSTORE MLOAD PUSH1 0x1 DUP5 ADD SSTORE MLOAD ISZERO ISZERO SWAP2 ADD SWAP1 PUSH1 0xFF DUP1 NOT DUP4 SLOAD AND SWAP2 ISZERO ISZERO AND OR SWAP1 SSTORE JUMP JUMPDEST DUP1 MLOAD PUSH2 0x3A37 JUMPI JUMPDEST POP PUSH1 0xFF SWAP1 PUSH2 0x39FF DUP4 CALLER PUSH2 0x3F2F JUMP JUMPDEST MLOAD AND PUSH1 0x40 MLOAD SWAP1 DUP2 MSTORE PUSH1 0x1 PUSH1 0x20 DUP3 ADD MSTORE PUSH32 0x763386AA390B413AC7A3D1E08DBA082126496E180F1C515B1872162854BAE070 PUSH1 0x40 CALLER SWAP3 LOG3 SWAP1 JUMP JUMPDEST SWAP2 PUSH0 MSTORE PUSH1 0x12 PUSH1 0x20 MSTORE PUSH1 0x40 PUSH0 KECCAK256 SWAP1 DUP3 MLOAD SWAP2 PUSH1 0x1 PUSH1 0x1 PUSH1 0x40 SHL SUB DUP4 GT PUSH2 0x6DB JUMPI DUP3 PUSH2 0x3A65 DUP7 SWAP5 PUSH2 0x63B DUP5 SLOAD PUSH2 0x2ECC JUMP JUMPDEST PUSH1 0x20 SWAP5 PUSH1 0x1F DUP3 GT PUSH1 0x1 EQ PUSH2 0x3AA0 JUMPI SWAP1 DUP1 PUSH1 0xFF SWAP6 SWAP7 PUSH2 0x3A97 SWAP4 PUSH0 SWAP3 PUSH2 0x27E4 JUMPI POP POP DUP2 PUSH1 0x1 SHL SWAP2 PUSH0 NOT SWAP1 PUSH1 0x3 SHL SHR NOT AND OR SWAP1 JUMP JUMPDEST SWAP1 SSTORE JUMPDEST SWAP1 PUSH2 0x39F1 JUMP JUMPDEST PUSH1 0x1F NOT DUP3 AND SWAP1 DUP4 PUSH0 MSTORE DUP7 PUSH0 KECCAK256 SWAP2 PUSH0 JUMPDEST DUP2 DUP2 LT PUSH2 0x3AED JUMPI POP SWAP7 DUP4 SWAP3 SWAP2 PUSH1 0x1 SWAP5 PUSH1 0xFF SWAP9 SWAP10 LT PUSH2 0x3AD5 JUMPI JUMPDEST POP POP POP DUP2 SHL ADD SWAP1 SSTORE PUSH2 0x3A9A JUMP JUMPDEST ADD MLOAD PUSH0 NOT PUSH1 0xF8 DUP5 PUSH1 0x3 SHL AND SHR NOT AND SWAP1 SSTORE PUSH0 DUP1 DUP1 PUSH2 0x3AC8 JUMP JUMPDEST DUP3 DUP10 ADD MLOAD DUP5 SSTORE PUSH1 0x20 SWAP9 DUP10 ADD SWAP9 DUP11 SWAP9 POP PUSH1 0x1 SWAP1 SWAP5 ADD SWAP4 ADD PUSH2 0x3AAF JUMP JUMPDEST POP PUSH1 0x1 PUSH2 0x3866 JUMP JUMPDEST POP PUSH1 0x64 PUSH2 0x385F JUMP JUMPDEST PUSH1 0x32 SWAP6 POP PUSH2 0x3823 JUMP JUMPDEST PUSH2 0x12C SWAP6 POP PUSH2 0x381A JUMP JUMPDEST POP PUSH1 0x1 PUSH2 0x37E4 JUMP JUMPDEST POP PUSH1 0x64 PUSH2 0x37DD JUMP JUMPDEST POP PUSH1 0x1 PUSH2 0x37AB JUMP JUMPDEST POP PUSH1 0x64 PUSH2 0x37A4 JUMP JUMPDEST DUP1 PUSH2 0x3B62 PUSH2 0x3B5C PUSH1 0x1 SWAP4 DUP6 DUP8 PUSH2 0x3552 JUMP JUMPDEST CALLDATALOAD PUSH2 0x4227 JUMP JUMPDEST ADD PUSH2 0x3735 JUMP JUMPDEST SWAP9 POP SWAP7 POP SWAP5 POP POP SWAP6 POP POP POP PUSH0 JUMPDEST DUP3 DUP2 LT PUSH2 0x3BBF JUMPI POP POP POP POP PUSH1 0xFF PUSH1 0x20 PUSH0 SWAP3 ADD MLOAD AND PUSH1 0x40 MLOAD SWAP1 DUP2 MSTORE DUP2 PUSH1 0x20 DUP3 ADD MSTORE PUSH32 0x763386AA390B413AC7A3D1E08DBA082126496E180F1C515B1872162854BAE070 PUSH1 0x40 CALLER SWAP3 LOG3 PUSH0 SWAP1 JUMP JUMPDEST DUP1 DUP5 PUSH1 0x1 SWAP3 SUB PUSH2 0x3BD0 JUMPI JUMPDEST ADD PUSH2 0x3B75 JUMP JUMPDEST PUSH2 0x3BDE PUSH2 0x3B5C DUP3 DUP7 DUP7 PUSH2 0x3552 JUMP JUMPDEST PUSH2 0x3BCA JUMP JUMPDEST PUSH2 0x3BFB SWAP1 PUSH1 0x20 RETURNDATASIZE PUSH1 0x20 GT PUSH2 0x956 JUMPI PUSH2 0x947 DUP2 DUP4 PUSH2 0x2F56 JUMP JUMPDEST PUSH2 0x36B4 JUMP JUMPDEST PUSH4 0x13BE252B PUSH1 0xE0 SHL PUSH0 MSTORE PUSH1 0x4 PUSH0 REVERT JUMPDEST SWAP1 SWAP2 POP PUSH1 0x20 DUP2 RETURNDATASIZE PUSH1 0x20 GT PUSH2 0x3C3B JUMPI JUMPDEST DUP2 PUSH2 0x3C2B PUSH1 0x20 SWAP4 DUP4 PUSH2 0x2F56 JUMP JUMPDEST DUP2 ADD SUB SLT PUSH2 0x300 JUMPI MLOAD SWAP1 PUSH0 PUSH2 0x366F JUMP JUMPDEST RETURNDATASIZE SWAP2 POP PUSH2 0x3C1E JUMP JUMPDEST PUSH2 0x3C4E DUP2 DUP6 DUP8 PUSH2 0x3552 JUMP JUMPDEST CALLDATALOAD CALLER PUSH1 0x1 PUSH1 0x1 PUSH1 0xA0 SHL SUB PUSH2 0x3C61 DUP4 PUSH2 0x3ED4 JUMP JUMPDEST AND SUB PUSH2 0x3E27 JUMPI DUP1 PUSH0 MSTORE PUSH1 0x10 PUSH1 0x20 MSTORE PUSH1 0x40 PUSH0 KECCAK256 SWAP1 PUSH1 0x40 MLOAD SWAP2 PUSH2 0x3C81 DUP4 PUSH2 0x2F3A JUMP JUMPDEST DUP1 SLOAD PUSH2 0xFFFF DUP2 AND DUP5 MSTORE PUSH1 0xFF PUSH1 0x2 PUSH1 0x20 DUP7 ADD SWAP4 PUSH2 0xFFFF DUP5 PUSH1 0x10 SHR AND DUP6 MSTORE PUSH2 0xFFFF DUP5 PUSH1 0x20 SHR AND PUSH1 0x40 DUP9 ADD MSTORE PUSH2 0xFFFF DUP5 PUSH1 0x30 SHR AND PUSH1 0x60 DUP9 ADD MSTORE DUP3 DUP5 PUSH1 0x40 SHR AND PUSH1 0x80 DUP9 ADD MSTORE DUP3 PUSH1 0xA0 DUP9 ADD SWAP5 PUSH1 0x48 SHR AND DUP5 MSTORE PUSH1 0x1 DUP2 ADD SLOAD PUSH1 0xC0 DUP9 ADD MSTORE ADD SLOAD AND ISZERO DUP1 ISZERO PUSH1 0xE0 DUP7 ADD MSTORE PUSH2 0x3E18 JUMPI PUSH1 0xFF DUP7 SWAP2 MLOAD AND SUB PUSH2 0x3E09 JUMPI PUSH0 DUP3 DUP2 MSTORE PUSH1 0x11 PUSH1 0x20 MSTORE PUSH1 0x40 SWAP1 KECCAK256 SLOAD PUSH1 0x1 PUSH1 0x1 PUSH1 0xA0 SHL SUB AND DUP12 SWAP1 SUB PUSH2 0x3DFA JUMPI DUP12 DUP16 SWAP2 PUSH2 0xFFFF DUP1 DUP7 MLOAD AND SWAP3 AND DUP3 GT PUSH2 0x3DF0 JUMPI JUMPDEST PUSH2 0xFFFF DUP1 SWAP2 MLOAD AND SWAP3 AND DUP3 GT PUSH2 0x3DE6 JUMPI JUMPDEST DUP15 PUSH2 0xFFFF PUSH1 0x40 DUP7 ADD MLOAD AND PUSH2 0xFFFF PUSH2 0x2E0 MLOAD AND DUP2 GT PUSH2 0x3DDC JUMPI JUMPDEST POP PUSH2 0xFFFF DUP1 PUSH1 0x60 DUP8 ADD MLOAD AND SWAP2 AND DUP2 GT PUSH2 0x3DD4 JUMPI JUMPDEST POP PUSH2 0x3D71 PUSH2 0x3D8F SWAP3 PUSH2 0x3D80 SWAP3 PUSH2 0x3562 JUMP JUMPDEST PUSH2 0xFFFF PUSH1 0x40 DUP7 ADD MLOAD AND SWAP1 PUSH2 0x3562 JUMP JUMPDEST PUSH2 0xFFFF PUSH1 0x60 DUP6 ADD MLOAD AND SWAP1 PUSH2 0x3562 JUMP JUMPDEST DUP6 DUP2 GT PUSH2 0x3DA2 JUMPI JUMPDEST POP POP POP PUSH1 0x1 ADD PUSH2 0x360A JUMP JUMPDEST SWAP4 SWAP5 POP SWAP7 POP SWAP13 POP SWAP9 POP SWAP1 PUSH1 0xFF PUSH1 0x80 DUP11 SWAP14 ADD MLOAD AND SWAP5 PUSH0 MSTORE PUSH1 0x12 PUSH1 0x20 MSTORE PUSH1 0x1 PUSH2 0x3DCB PUSH1 0x40 PUSH0 KECCAK256 PUSH2 0x2F77 JUMP JUMPDEST SWAP10 SWAP1 PUSH0 DUP1 PUSH2 0x3D97 JUMP JUMPDEST SWAP15 POP PUSH0 PUSH2 0x3D60 JUMP JUMPDEST PUSH2 0x2E0 MSTORE PUSH0 PUSH2 0x3D4C JUMP JUMPDEST SWAP1 SWAP15 POP DUP15 SWAP1 PUSH2 0x3D33 JUMP JUMPDEST SWAP1 SWAP13 POP DUP13 SWAP1 PUSH2 0x3D23 JUMP JUMPDEST PUSH4 0x48C63CAD PUSH1 0xE1 SHL PUSH0 MSTORE PUSH1 0x4 PUSH0 REVERT JUMPDEST PUSH4 0xAF6B8D49 PUSH1 0xE0 SHL PUSH0 MSTORE PUSH1 0x4 PUSH0 REVERT JUMPDEST PUSH4 0x9A42BB1D PUSH1 0xE0 SHL PUSH0 MSTORE PUSH1 0x4 PUSH0 REVERT JUMPDEST PUSH4 0xD47EE09F PUSH1 0xE0 SHL PUSH0 MSTORE PUSH1 0x4 PUSH0 REVERT JUMPDEST CALLDATALOAD PUSH2 0xFFFF DUP2 AND DUP2 SUB PUSH2 0x300 JUMPI SWAP1 JUMP JUMPDEST CALLDATALOAD PUSH1 0xFF DUP2 AND DUP2 SUB PUSH2 0x300 JUMPI SWAP1 JUMP JUMPDEST SWAP2 SWAP1 DUP2 LT ISZERO PUSH2 0x7FF JUMPI PUSH1 0x5 SHL DUP2 ADD CALLDATALOAD SWAP1 PUSH1 0x1E NOT DUP2 CALLDATASIZE SUB ADD DUP3 SLT ISZERO PUSH2 0x300 JUMPI ADD SWAP1 DUP2 CALLDATALOAD SWAP2 PUSH1 0x1 PUSH1 0x1 PUSH1 0x40 SHL SUB DUP4 GT PUSH2 0x300 JUMPI PUSH1 0x20 ADD DUP3 CALLDATASIZE SUB DUP2 SGT PUSH2 0x300 JUMPI SWAP2 SWAP1 JUMP JUMPDEST PUSH1 0xE SLOAD SWAP1 PUSH0 JUMPDEST DUP3 DUP2 LT PUSH2 0x3EA6 JUMPI POP POP SWAP1 JUMP JUMPDEST PUSH0 DUP2 DUP2 MSTORE PUSH1 0xD PUSH1 0x20 MSTORE PUSH1 0x40 SWAP1 KECCAK256 SLOAD PUSH1 0x1 PUSH1 0x1 PUSH1 0xA0 SHL SUB DUP4 DUP2 AND SWAP2 AND EQ PUSH2 0x3ECE JUMPI PUSH1 0x1 ADD PUSH2 0x3E9A JUMP JUMPDEST SWAP2 POP POP SWAP1 JUMP JUMPDEST PUSH0 DUP2 DUP2 MSTORE PUSH1 0x2 PUSH1 0x20 MSTORE PUSH1 0x40 SWAP1 KECCAK256 SLOAD PUSH1 0x1 PUSH1 0x1 PUSH1 0xA0 SHL SUB AND SWAP1 DUP2 ISZERO PUSH2 0x3EF6 JUMPI POP SWAP1 JUMP JUMPDEST PUSH4 0x7E273289 PUSH1 0xE0 SHL PUSH0 MSTORE PUSH1 0x4 MSTORE PUSH1 0x24 PUSH0 REVERT JUMPDEST PUSH1 0xA SLOAD PUSH1 0x1 PUSH1 0x1 PUSH1 0xA0 SHL SUB AND CALLER SUB PUSH2 0x3F1C JUMPI JUMP JUMPDEST PUSH4 0x118CDAA7 PUSH1 0xE0 SHL PUSH0 MSTORE CALLER PUSH1 0x4 MSTORE PUSH1 0x24 PUSH0 REVERT JUMPDEST SWAP1 PUSH1 0x20 SWAP1 PUSH1 0x40 MLOAD SWAP1 PUSH2 0x3F41 DUP4 DUP4 PUSH2 0x2F56 JUMP JUMPDEST PUSH0 DUP3 MSTORE PUSH1 0x1 PUSH1 0x1 PUSH1 0xA0 SHL SUB DUP5 AND SWAP4 DUP5 ISZERO PUSH2 0x3439 JUMPI PUSH0 DUP3 DUP2 MSTORE PUSH1 0x2 DUP6 MSTORE PUSH1 0x40 SWAP1 KECCAK256 SLOAD PUSH1 0x1 PUSH1 0x1 PUSH1 0xA0 SHL SUB AND DUP1 ISZERO DUP1 ISZERO SWAP2 SWAP1 DUP3 PUSH2 0x41F6 JUMPI JUMPDEST DUP8 PUSH0 MSTORE PUSH1 0x3 DUP8 MSTORE PUSH1 0x40 PUSH0 KECCAK256 PUSH1 0x1 DUP2 SLOAD ADD SWAP1 SSTORE DUP5 PUSH0 MSTORE PUSH1 0x2 DUP8 MSTORE PUSH1 0x40 PUSH0 KECCAK256 DUP9 PUSH1 0x1 PUSH1 0x1 PUSH1 0x60 SHL SUB PUSH1 0xA0 SHL DUP3 SLOAD AND OR SWAP1 SSTORE DUP5 DUP9 DUP4 PUSH32 0xDDF252AD1BE2C89B69C2B068FC378DAA952BA7F163C4A11628F55A4DF523B3EF PUSH0 DUP1 LOG4 ISZERO PUSH2 0x4180 JUMPI PUSH1 0x8 SLOAD DUP5 PUSH0 MSTORE PUSH1 0x9 DUP8 MSTORE DUP1 PUSH1 0x40 PUSH0 KECCAK256 SSTORE PUSH1 0x1 PUSH1 0x40 SHL DUP2 LT ISZERO PUSH2 0x6DB JUMPI DUP5 PUSH2 0x326A DUP3 PUSH1 0x1 PUSH2 0x4002 SWAP5 ADD PUSH1 0x8 SSTORE PUSH2 0x34C6 JUMP JUMPDEST DUP7 DUP2 SUB PUSH2 0x4145 JUMPI JUMPDEST POP PUSH2 0x4132 JUMPI EXTCODESIZE PUSH2 0x401B JUMPI JUMPDEST POP POP POP POP JUMP JUMPDEST SWAP2 PUSH2 0x4058 SWAP2 DUP2 SWAP5 SWAP6 SWAP4 PUSH1 0x40 MLOAD SWAP4 DUP5 SWAP3 DUP4 SWAP3 PUSH4 0xA85BD01 PUSH1 0xE1 SHL DUP5 MSTORE CALLER PUSH1 0x4 DUP6 ADD MSTORE PUSH0 PUSH1 0x24 DUP6 ADD MSTORE PUSH1 0x44 DUP5 ADD MSTORE PUSH1 0x80 PUSH1 0x64 DUP5 ADD MSTORE PUSH1 0x84 DUP4 ADD SWAP1 PUSH2 0x2E6D JUMP JUMPDEST SUB DUP2 PUSH0 DUP9 GAS CALL PUSH0 SWAP2 DUP2 PUSH2 0x40F2 JUMPI JUMPDEST POP PUSH2 0x40BB JUMPI POP POP RETURNDATASIZE ISZERO PUSH2 0x40B3 JUMPI RETURNDATASIZE SWAP1 PUSH2 0x407E DUP3 PUSH2 0x310C JUMP JUMPDEST SWAP2 PUSH2 0x408C PUSH1 0x40 MLOAD SWAP4 DUP5 PUSH2 0x2F56 JUMP JUMPDEST DUP3 MSTORE RETURNDATASIZE PUSH0 DUP3 DUP5 ADD RETURNDATACOPY JUMPDEST DUP2 MLOAD SWAP2 DUP3 PUSH2 0x40B0 JUMPI DUP4 PUSH4 0x32505749 PUSH1 0xE1 SHL PUSH0 MSTORE PUSH1 0x4 MSTORE PUSH1 0x24 PUSH0 REVERT JUMPDEST ADD REVERT JUMPDEST PUSH1 0x60 SWAP1 PUSH2 0x4095 JUMP JUMPDEST SWAP1 SWAP3 SWAP2 POP PUSH1 0x1 PUSH1 0x1 PUSH1 0xE0 SHL SUB NOT AND PUSH4 0x757A42FF PUSH1 0xE1 SHL ADD PUSH2 0x40E0 JUMPI POP PUSH0 DUP1 DUP1 DUP1 PUSH2 0x4015 JUMP JUMPDEST PUSH4 0x32505749 PUSH1 0xE1 SHL PUSH0 MSTORE PUSH1 0x4 MSTORE PUSH1 0x24 PUSH0 REVERT JUMPDEST SWAP1 SWAP2 POP DUP4 DUP2 DUP2 RETURNDATASIZE DUP4 GT PUSH2 0x412B JUMPI JUMPDEST PUSH2 0x410A DUP2 DUP4 PUSH2 0x2F56 JUMP JUMPDEST DUP2 ADD SUB SLT PUSH2 0x300 JUMPI MLOAD PUSH1 0x1 PUSH1 0x1 PUSH1 0xE0 SHL SUB NOT DUP2 AND DUP2 SUB PUSH2 0x300 JUMPI SWAP1 PUSH0 PUSH2 0x4066 JUMP JUMPDEST POP RETURNDATASIZE PUSH2 0x4100 JUMP JUMPDEST PUSH4 0x39E35637 PUSH1 0xE1 SHL PUSH0 MSTORE PUSH0 PUSH1 0x4 MSTORE PUSH1 0x24 PUSH0 REVERT JUMPDEST PUSH2 0x414E DUP4 PUSH2 0x34DE JUMP JUMPDEST PUSH0 NOT DUP2 ADD SWAP1 DUP2 GT PUSH2 0x318A JUMPI DUP8 PUSH0 MSTORE PUSH1 0x6 DUP8 MSTORE PUSH1 0x40 PUSH0 KECCAK256 DUP2 PUSH0 MSTORE DUP8 MSTORE DUP5 PUSH1 0x40 PUSH0 KECCAK256 SSTORE DUP5 PUSH0 MSTORE PUSH1 0x7 DUP8 MSTORE PUSH1 0x40 PUSH0 KECCAK256 SSTORE PUSH2 0x400A JUMP JUMPDEST DUP1 DUP8 EQ PUSH2 0x4002 JUMPI PUSH2 0x4190 DUP2 PUSH2 0x34DE JUMP JUMPDEST DUP5 PUSH0 MSTORE PUSH1 0x7 DUP8 MSTORE PUSH1 0x40 PUSH0 KECCAK256 SLOAD SWAP1 DUP3 PUSH0 MSTORE PUSH1 0x6 DUP9 MSTORE PUSH1 0x40 PUSH0 KECCAK256 SWAP2 DUP2 DUP2 SUB PUSH2 0x41CE JUMPI JUMPDEST POP DUP6 PUSH0 MSTORE PUSH1 0x7 DUP9 MSTORE PUSH0 PUSH1 0x40 DUP2 KECCAK256 SSTORE PUSH0 MSTORE DUP7 MSTORE PUSH0 PUSH1 0x40 DUP2 KECCAK256 SSTORE PUSH2 0x4002 JUMP JUMPDEST DUP2 PUSH0 MSTORE DUP3 DUP10 MSTORE PUSH1 0x40 PUSH0 KECCAK256 SLOAD DUP2 PUSH0 MSTORE DUP4 DUP11 MSTORE DUP1 PUSH1 0x40 PUSH0 KECCAK256 SSTORE PUSH0 MSTORE PUSH1 0x7 DUP10 MSTORE PUSH1 0x40 PUSH0 KECCAK256 SSTORE PUSH0 PUSH2 0x41B1 JUMP JUMPDEST PUSH0 DUP6 DUP2 MSTORE PUSH1 0x4 PUSH1 0x20 MSTORE PUSH1 0x40 DUP1 DUP3 KECCAK256 DUP1 SLOAD PUSH1 0x1 PUSH1 0x1 PUSH1 0xA0 SHL SUB NOT AND SWAP1 SSTORE DUP4 DUP3 MSTORE PUSH1 0x3 DUP10 MSTORE SWAP1 KECCAK256 DUP1 SLOAD PUSH0 NOT ADD SWAP1 SSTORE PUSH2 0x3F77 JUMP JUMPDEST PUSH0 DUP2 DUP2 MSTORE PUSH1 0x2 PUSH1 0x20 MSTORE PUSH1 0x40 SWAP1 KECCAK256 SLOAD PUSH1 0x1 PUSH1 0x1 PUSH1 0xA0 SHL SUB AND DUP1 ISZERO SWAP1 DUP2 ISZERO DUP1 PUSH2 0x43D2 JUMPI JUMPDEST PUSH0 DUP5 DUP2 MSTORE PUSH1 0x2 PUSH1 0x20 MSTORE PUSH1 0x40 DUP2 KECCAK256 DUP1 SLOAD PUSH1 0x1 PUSH1 0x1 PUSH1 0xA0 SHL SUB NOT AND SWAP1 SSTORE DUP5 SWAP1 DUP4 PUSH32 0xDDF252AD1BE2C89B69C2B068FC378DAA952BA7F163C4A11628F55A4DF523B3EF DUP3 DUP1 LOG4 DUP3 ISZERO PUSH2 0x4357 JUMPI POP PUSH1 0x8 SLOAD DUP4 PUSH0 MSTORE PUSH1 0x9 PUSH1 0x20 MSTORE DUP1 PUSH1 0x40 PUSH0 KECCAK256 SSTORE PUSH1 0x1 PUSH1 0x40 SHL DUP2 LT ISZERO PUSH2 0x6DB JUMPI DUP4 PUSH2 0x326A DUP3 PUSH1 0x1 PUSH2 0x42C3 SWAP5 ADD PUSH1 0x8 SSTORE PUSH2 0x34C6 JUMP JUMPDEST PUSH1 0x8 SLOAD PUSH0 NOT DUP2 ADD SWAP1 DUP2 GT PUSH2 0x318A JUMPI DUP4 PUSH0 MSTORE PUSH1 0x9 PUSH1 0x20 MSTORE PUSH2 0x42E7 PUSH1 0x40 PUSH0 KECCAK256 SLOAD SWAP2 PUSH2 0x34C6 JUMP JUMPDEST SWAP1 SLOAD SWAP1 PUSH1 0x3 SHL SHR PUSH2 0x42FB DUP2 PUSH2 0x326A DUP5 PUSH2 0x34C6 JUMP JUMPDEST PUSH0 MSTORE PUSH1 0x9 PUSH1 0x20 MSTORE PUSH1 0x40 PUSH0 KECCAK256 SSTORE DUP3 PUSH0 MSTORE PUSH1 0x9 PUSH1 0x20 MSTORE PUSH0 PUSH1 0x40 DUP2 KECCAK256 SSTORE PUSH1 0x8 SLOAD DUP1 ISZERO PUSH2 0x4343 JUMPI PUSH0 NOT ADD PUSH2 0x432A DUP2 PUSH2 0x34C6 JUMP JUMPDEST DUP2 SLOAD SWAP1 PUSH0 NOT SWAP1 PUSH1 0x3 SHL SHL NOT AND SWAP1 SSTORE PUSH1 0x8 SSTORE POP PUSH2 0x3EF6 JUMPI POP JUMP JUMPDEST PUSH4 0x4E487B71 PUSH1 0xE0 SHL PUSH0 MSTORE PUSH1 0x31 PUSH1 0x4 MSTORE PUSH1 0x24 PUSH0 REVERT JUMPDEST ISZERO PUSH2 0x42C3 JUMPI PUSH2 0x4365 DUP2 PUSH2 0x34DE JUMP JUMPDEST DUP4 PUSH0 MSTORE PUSH1 0x7 PUSH1 0x20 MSTORE PUSH1 0x40 PUSH0 KECCAK256 SLOAD SWAP1 DUP3 PUSH0 MSTORE PUSH1 0x6 PUSH1 0x20 MSTORE PUSH1 0x40 PUSH0 KECCAK256 SWAP2 DUP2 DUP2 SUB PUSH2 0x43A7 JUMPI JUMPDEST POP DUP5 PUSH0 MSTORE PUSH1 0x7 PUSH1 0x20 MSTORE PUSH0 PUSH1 0x40 DUP2 KECCAK256 SSTORE PUSH0 MSTORE PUSH1 0x20 MSTORE PUSH0 PUSH1 0x40 DUP2 KECCAK256 SSTORE PUSH2 0x42C3 JUMP JUMPDEST DUP2 PUSH0 MSTORE DUP3 PUSH1 0x20 MSTORE PUSH1 0x40 PUSH0 KECCAK256 SLOAD DUP2 PUSH0 MSTORE DUP4 PUSH1 0x20 MSTORE DUP1 PUSH1 0x40 PUSH0 KECCAK256 SSTORE PUSH0 MSTORE PUSH1 0x7 PUSH1 0x20 MSTORE PUSH1 0x40 PUSH0 KECCAK256 SSTORE PUSH0 PUSH2 0x4388 JUMP JUMPDEST PUSH0 DUP5 DUP2 MSTORE PUSH1 0x4 PUSH1 0x20 MSTORE PUSH1 0x40 SWAP1 KECCAK256 DUP1 SLOAD PUSH1 0x1 PUSH1 0x1 PUSH1 0xA0 SHL SUB NOT AND SWAP1 SSTORE DUP2 PUSH0 MSTORE PUSH1 0x3 PUSH1 0x20 MSTORE PUSH1 0x40 PUSH0 KECCAK256 PUSH0 NOT DUP2 SLOAD ADD SWAP1 SSTORE PUSH2 0x4249 JUMP JUMPDEST DUP2 DUP2 MUL SWAP3 SWAP2 DUP2 ISZERO SWAP2 DUP5 DIV EQ OR ISZERO PUSH2 0x318A JUMPI JUMP JUMPDEST DUP3 EXTCODESIZE PUSH2 0x4426 JUMPI JUMPDEST POP POP POP POP POP JUMP JUMPDEST PUSH1 0x40 MLOAD PUSH4 0xA85BD01 PUSH1 0xE1 SHL DUP2 MSTORE PUSH1 0x1 PUSH1 0x1 PUSH1 0xA0 SHL SUB SWAP2 DUP3 AND PUSH1 0x4 DUP3 ADD MSTORE SWAP2 DUP2 AND PUSH1 0x24 DUP4 ADD MSTORE PUSH1 0x44 DUP3 ADD SWAP4 SWAP1 SWAP4 MSTORE PUSH1 0x80 PUSH1 0x64 DUP3 ADD MSTORE SWAP2 AND SWAP2 PUSH1 0x20 SWAP1 DUP3 SWAP1 DUP2 SWAP1 PUSH2 0x4472 SWAP1 PUSH1 0x84 DUP4 ADD SWAP1 PUSH2 0x2E6D JUMP JUMPDEST SUB DUP2 PUSH0 DUP7 GAS CALL PUSH0 SWAP2 DUP2 PUSH2 0x44F7 JUMPI JUMPDEST POP PUSH2 0x44D5 JUMPI POP RETURNDATASIZE ISZERO PUSH2 0x44CE JUMPI RETURNDATASIZE PUSH2 0x4496 DUP2 PUSH2 0x310C JUMP JUMPDEST SWAP1 PUSH2 0x44A4 PUSH1 0x40 MLOAD SWAP3 DUP4 PUSH2 0x2F56 JUMP JUMPDEST DUP2 MSTORE RETURNDATASIZE PUSH0 PUSH1 0x20 DUP4 ADD RETURNDATACOPY JUMPDEST DUP1 MLOAD SWAP1 DUP2 PUSH2 0x44C9 JUMPI DUP3 PUSH4 0x32505749 PUSH1 0xE1 SHL PUSH0 MSTORE PUSH1 0x4 MSTORE PUSH1 0x24 PUSH0 REVERT JUMPDEST PUSH1 0x20 ADD REVERT JUMPDEST PUSH1 0x60 PUSH2 0x44AE JUMP JUMPDEST PUSH1 0x1 PUSH1 0x1 PUSH1 0xE0 SHL SUB NOT AND PUSH4 0x757A42FF PUSH1 0xE1 SHL ADD PUSH2 0x40E0 JUMPI POP PUSH0 DUP1 DUP1 DUP1 DUP1 PUSH2 0x441F JUMP JUMPDEST SWAP1 SWAP2 POP PUSH1 0x20 DUP2 RETURNDATASIZE PUSH1 0x20 GT PUSH2 0x4534 JUMPI JUMPDEST DUP2 PUSH2 0x4513 PUSH1 0x20 SWAP4 DUP4 PUSH2 0x2F56 JUMP JUMPDEST DUP2 ADD SUB SLT PUSH2 0x300 JUMPI MLOAD PUSH1 0x1 PUSH1 0x1 PUSH1 0xE0 SHL SUB NOT DUP2 AND DUP2 SUB PUSH2 0x300 JUMPI SWAP1 PUSH0 PUSH2 0x4480 JUMP JUMPDEST RETURNDATASIZE SWAP2 POP PUSH2 0x4506 JUMP INVALID 0xC0 0xC KECCAK256 0xEB 0x2D CALL 0x4C PUSH5 0xDE18A45FB DUP1 DELEGATECALL SSTORE 0xBB PUSH7 0xB242FBB758247 EXP 0xC DUP15 0xB8 NUMBER 0xEB STOP LOG2 PUSH5 0x6970667358 0x22 SLT KECCAK256 SWAP13 KECCAK256 PC 0xA7 MUL 0x23 0xDD RETURNDATACOPY SWAP9 DUP8 PUSH3 0xB4ABC6 0x24 TIMESTAMP 0x27 0xF9 CALLDATASIZE 0x4D BLOBBASEFEE ADD DUP9 SAR DIV 0xCD 0xB9 0xBF DUP9 SWAP12 ORIGIN SWAP2 PUSH5 0x736F6C6343 STOP ADDMOD SHR STOP CALLER "},"methodIdentifiers":{"addCollection(address,string,string)":"296fb521","approve(address,uint256)":"095ea7b3","balanceOf(address)":"70a08231","baseMetadataURI()":"5b2bd79e","batchCommitStats(uint256[],uint16[],uint16[],uint16[],uint16[],uint8[],uint8[],bytes32[],string[])":"c4ae9043","batchMintCards(uint256,uint256[])":"b877f421","cardImageURI(uint256)":"227a0f88","cardMinted(bytes32)":"9c3cf4cd","cardOrigins(uint256)":"08e305d0","cardStats(uint256)":"4c77fe2a","collectionCount()":"d57f966b","collections(uint256)":"fdbda0ec","commitStats(uint256,uint16,uint16,uint16,uint16,uint8,uint8,bytes32,string)":"8a6f0c11","craftCards(uint256[])":"9350254f","craftTiers(uint256)":"b0e88761","craftingPlatformFees()":"8c7810f5","craftingPrizePoolFees()":"e07257f2","getApproved(uint256)":"081812fc","getCardOrigin(uint256)":"8329d109","getCardStats(uint256)":"d44888fe","getCollectionIdByContract(address)":"ddad5719","getCollections()":"46e63586","getCraftTier(uint8)":"789eb33c","isApprovedForAll(address,address)":"e985e9c5","isCardMinted(address,uint256)":"2c596d0f","mintCard(uint256,uint256)":"0e427f17","name()":"06fdde03","nextCardId()":"c5263e8c","oracle()":"7dc0d1d0","owner()":"8da5cb5b","ownerOf(uint256)":"6352211e","pathUSD()":"7b008d3b","prizePoolTarget()":"f96e8594","renderer()":"8ada6b0f","renounceOwnership()":"715018a6","safeTransferFrom(address,address,uint256)":"42842e0e","safeTransferFrom(address,address,uint256,bytes)":"b88d4fde","setApprovalForAll(address,bool)":"a22cb465","setBaseMetadataURI(string)":"7e518ec8","setCollectionActive(uint256,bool)":"0b2680f9","setCraftTier(uint8,uint8,uint256,uint8)":"ca000ec1","setOracle(address)":"7adbf973","setPrizePoolTarget(address)":"c0564277","setRenderer(address)":"56d3163d","supportsInterface(bytes4)":"01ffc9a7","symbol()":"95d89b41","tokenByIndex(uint256)":"4f6ccce7","tokenOfOwnerByIndex(address,uint256)":"2f745c59","tokenURI(uint256)":"c87b56dd","totalSupply()":"18160ddd","transferFrom(address,address,uint256)":"23b872dd","transferOwnership(address)":"f2fde38b","updateCollection(uint256,string,string)":"cee50635","withdrawCraftingFees(address)":"c9913b7b"}}}}}