{
  "_format": "hh3-artifact-1",
  "contractName": "WhaleCards",
  "sourceName": "contracts/WhaleCards.sol",
  "abi": [
    {
      "inputs": [
        {
          "internalType": "address",
          "name": "_whaleNFT",
          "type": "address"
        },
        {
          "internalType": "address",
          "name": "_oracle",
          "type": "address"
        }
      ],
      "stateMutability": "nonpayable",
      "type": "constructor"
    },
    {
      "inputs": [],
      "name": "CardAlreadyMinted",
      "type": "error"
    },
    {
      "inputs": [],
      "name": "CardDoesNotExist",
      "type": "error"
    },
    {
      "inputs": [],
      "name": "ERC721EnumerableForbiddenBatchMint",
      "type": "error"
    },
    {
      "inputs": [
        {
          "internalType": "address",
          "name": "sender",
          "type": "address"
        },
        {
          "internalType": "uint256",
          "name": "tokenId",
          "type": "uint256"
        },
        {
          "internalType": "address",
          "name": "owner",
          "type": "address"
        }
      ],
      "name": "ERC721IncorrectOwner",
      "type": "error"
    },
    {
      "inputs": [
        {
          "internalType": "address",
          "name": "operator",
          "type": "address"
        },
        {
          "internalType": "uint256",
          "name": "tokenId",
          "type": "uint256"
        }
      ],
      "name": "ERC721InsufficientApproval",
      "type": "error"
    },
    {
      "inputs": [
        {
          "internalType": "address",
          "name": "approver",
          "type": "address"
        }
      ],
      "name": "ERC721InvalidApprover",
      "type": "error"
    },
    {
      "inputs": [
        {
          "internalType": "address",
          "name": "operator",
          "type": "address"
        }
      ],
      "name": "ERC721InvalidOperator",
      "type": "error"
    },
    {
      "inputs": [
        {
          "internalType": "address",
          "name": "owner",
          "type": "address"
        }
      ],
      "name": "ERC721InvalidOwner",
      "type": "error"
    },
    {
      "inputs": [
        {
          "internalType": "address",
          "name": "receiver",
          "type": "address"
        }
      ],
      "name": "ERC721InvalidReceiver",
      "type": "error"
    },
    {
      "inputs": [
        {
          "internalType": "address",
          "name": "sender",
          "type": "address"
        }
      ],
      "name": "ERC721InvalidSender",
      "type": "error"
    },
    {
      "inputs": [
        {
          "internalType": "uint256",
          "name": "tokenId",
          "type": "uint256"
        }
      ],
      "name": "ERC721NonexistentToken",
      "type": "error"
    },
    {
      "inputs": [
        {
          "internalType": "address",
          "name": "owner",
          "type": "address"
        },
        {
          "internalType": "uint256",
          "name": "index",
          "type": "uint256"
        }
      ],
      "name": "ERC721OutOfBoundsIndex",
      "type": "error"
    },
    {
      "inputs": [],
      "name": "InvalidStats",
      "type": "error"
    },
    {
      "inputs": [],
      "name": "NotWhaleOwner",
      "type": "error"
    },
    {
      "inputs": [],
      "name": "OnlyOracle",
      "type": "error"
    },
    {
      "inputs": [
        {
          "internalType": "address",
          "name": "owner",
          "type": "address"
        }
      ],
      "name": "OwnableInvalidOwner",
      "type": "error"
    },
    {
      "inputs": [
        {
          "internalType": "address",
          "name": "account",
          "type": "address"
        }
      ],
      "name": "OwnableUnauthorizedAccount",
      "type": "error"
    },
    {
      "inputs": [],
      "name": "StatsAlreadySet",
      "type": "error"
    },
    {
      "anonymous": false,
      "inputs": [
        {
          "indexed": true,
          "internalType": "address",
          "name": "owner",
          "type": "address"
        },
        {
          "indexed": true,
          "internalType": "address",
          "name": "approved",
          "type": "address"
        },
        {
          "indexed": true,
          "internalType": "uint256",
          "name": "tokenId",
          "type": "uint256"
        }
      ],
      "name": "Approval",
      "type": "event"
    },
    {
      "anonymous": false,
      "inputs": [
        {
          "indexed": true,
          "internalType": "address",
          "name": "owner",
          "type": "address"
        },
        {
          "indexed": true,
          "internalType": "address",
          "name": "operator",
          "type": "address"
        },
        {
          "indexed": false,
          "internalType": "bool",
          "name": "approved",
          "type": "bool"
        }
      ],
      "name": "ApprovalForAll",
      "type": "event"
    },
    {
      "anonymous": false,
      "inputs": [
        {
          "indexed": true,
          "internalType": "address",
          "name": "owner",
          "type": "address"
        },
        {
          "indexed": true,
          "internalType": "uint256",
          "name": "whaleId",
          "type": "uint256"
        },
        {
          "indexed": true,
          "internalType": "uint256",
          "name": "cardId",
          "type": "uint256"
        }
      ],
      "name": "CardMinted",
      "type": "event"
    },
    {
      "anonymous": false,
      "inputs": [
        {
          "indexed": true,
          "internalType": "address",
          "name": "oldOracle",
          "type": "address"
        },
        {
          "indexed": true,
          "internalType": "address",
          "name": "newOracle",
          "type": "address"
        }
      ],
      "name": "OracleUpdated",
      "type": "event"
    },
    {
      "anonymous": false,
      "inputs": [
        {
          "indexed": true,
          "internalType": "address",
          "name": "previousOwner",
          "type": "address"
        },
        {
          "indexed": true,
          "internalType": "address",
          "name": "newOwner",
          "type": "address"
        }
      ],
      "name": "OwnershipTransferred",
      "type": "event"
    },
    {
      "anonymous": false,
      "inputs": [
        {
          "indexed": true,
          "internalType": "uint256",
          "name": "cardId",
          "type": "uint256"
        },
        {
          "indexed": false,
          "internalType": "uint8",
          "name": "element",
          "type": "uint8"
        },
        {
          "indexed": false,
          "internalType": "uint8",
          "name": "rarity",
          "type": "uint8"
        }
      ],
      "name": "StatsCommitted",
      "type": "event"
    },
    {
      "anonymous": false,
      "inputs": [
        {
          "indexed": true,
          "internalType": "address",
          "name": "from",
          "type": "address"
        },
        {
          "indexed": true,
          "internalType": "address",
          "name": "to",
          "type": "address"
        },
        {
          "indexed": true,
          "internalType": "uint256",
          "name": "tokenId",
          "type": "uint256"
        }
      ],
      "name": "Transfer",
      "type": "event"
    },
    {
      "inputs": [],
      "name": "MAX_CARDS",
      "outputs": [
        {
          "internalType": "uint256",
          "name": "",
          "type": "uint256"
        }
      ],
      "stateMutability": "view",
      "type": "function"
    },
    {
      "inputs": [
        {
          "internalType": "address",
          "name": "to",
          "type": "address"
        },
        {
          "internalType": "uint256",
          "name": "tokenId",
          "type": "uint256"
        }
      ],
      "name": "approve",
      "outputs": [],
      "stateMutability": "nonpayable",
      "type": "function"
    },
    {
      "inputs": [
        {
          "internalType": "address",
          "name": "owner",
          "type": "address"
        }
      ],
      "name": "balanceOf",
      "outputs": [
        {
          "internalType": "uint256",
          "name": "",
          "type": "uint256"
        }
      ],
      "stateMutability": "view",
      "type": "function"
    },
    {
      "inputs": [],
      "name": "baseMetadataURI",
      "outputs": [
        {
          "internalType": "string",
          "name": "",
          "type": "string"
        }
      ],
      "stateMutability": "view",
      "type": "function"
    },
    {
      "inputs": [
        {
          "internalType": "uint256[]",
          "name": "cardIds",
          "type": "uint256[]"
        },
        {
          "internalType": "uint16[]",
          "name": "attacks",
          "type": "uint16[]"
        },
        {
          "internalType": "uint16[]",
          "name": "defenses",
          "type": "uint16[]"
        },
        {
          "internalType": "uint16[]",
          "name": "healths",
          "type": "uint16[]"
        },
        {
          "internalType": "uint16[]",
          "name": "speeds",
          "type": "uint16[]"
        },
        {
          "internalType": "uint8[]",
          "name": "elements",
          "type": "uint8[]"
        },
        {
          "internalType": "uint8[]",
          "name": "rarities",
          "type": "uint8[]"
        },
        {
          "internalType": "bytes32[]",
          "name": "abilityHashes",
          "type": "bytes32[]"
        },
        {
          "internalType": "string[]",
          "name": "imageURIs",
          "type": "string[]"
        }
      ],
      "name": "batchCommitStats",
      "outputs": [],
      "stateMutability": "nonpayable",
      "type": "function"
    },
    {
      "inputs": [
        {
          "internalType": "uint256[]",
          "name": "whaleIds",
          "type": "uint256[]"
        }
      ],
      "name": "batchMintCards",
      "outputs": [],
      "stateMutability": "nonpayable",
      "type": "function"
    },
    {
      "inputs": [
        {
          "internalType": "uint256",
          "name": "",
          "type": "uint256"
        }
      ],
      "name": "cardImageURI",
      "outputs": [
        {
          "internalType": "string",
          "name": "",
          "type": "string"
        }
      ],
      "stateMutability": "view",
      "type": "function"
    },
    {
      "inputs": [
        {
          "internalType": "uint256",
          "name": "",
          "type": "uint256"
        }
      ],
      "name": "cardMinted",
      "outputs": [
        {
          "internalType": "bool",
          "name": "",
          "type": "bool"
        }
      ],
      "stateMutability": "view",
      "type": "function"
    },
    {
      "inputs": [
        {
          "internalType": "uint256",
          "name": "",
          "type": "uint256"
        }
      ],
      "name": "cardStats",
      "outputs": [
        {
          "internalType": "uint16",
          "name": "attack",
          "type": "uint16"
        },
        {
          "internalType": "uint16",
          "name": "defense",
          "type": "uint16"
        },
        {
          "internalType": "uint16",
          "name": "health",
          "type": "uint16"
        },
        {
          "internalType": "uint16",
          "name": "speed",
          "type": "uint16"
        },
        {
          "internalType": "uint8",
          "name": "element",
          "type": "uint8"
        },
        {
          "internalType": "uint8",
          "name": "rarity",
          "type": "uint8"
        },
        {
          "internalType": "bytes32",
          "name": "abilityHash",
          "type": "bytes32"
        },
        {
          "internalType": "bool",
          "name": "isSet",
          "type": "bool"
        }
      ],
      "stateMutability": "view",
      "type": "function"
    },
    {
      "inputs": [
        {
          "internalType": "uint256",
          "name": "cardId",
          "type": "uint256"
        },
        {
          "internalType": "uint16",
          "name": "attack",
          "type": "uint16"
        },
        {
          "internalType": "uint16",
          "name": "defense",
          "type": "uint16"
        },
        {
          "internalType": "uint16",
          "name": "health",
          "type": "uint16"
        },
        {
          "internalType": "uint16",
          "name": "speed",
          "type": "uint16"
        },
        {
          "internalType": "uint8",
          "name": "element",
          "type": "uint8"
        },
        {
          "internalType": "uint8",
          "name": "rarity",
          "type": "uint8"
        },
        {
          "internalType": "bytes32",
          "name": "abilityHash",
          "type": "bytes32"
        },
        {
          "internalType": "string",
          "name": "imageURI",
          "type": "string"
        }
      ],
      "name": "commitStats",
      "outputs": [],
      "stateMutability": "nonpayable",
      "type": "function"
    },
    {
      "inputs": [
        {
          "internalType": "uint256",
          "name": "",
          "type": "uint256"
        }
      ],
      "name": "elementColors",
      "outputs": [
        {
          "internalType": "string",
          "name": "",
          "type": "string"
        }
      ],
      "stateMutability": "view",
      "type": "function"
    },
    {
      "inputs": [
        {
          "internalType": "uint256",
          "name": "",
          "type": "uint256"
        }
      ],
      "name": "elementNames",
      "outputs": [
        {
          "internalType": "string",
          "name": "",
          "type": "string"
        }
      ],
      "stateMutability": "view",
      "type": "function"
    },
    {
      "inputs": [
        {
          "internalType": "uint256",
          "name": "tokenId",
          "type": "uint256"
        }
      ],
      "name": "getApproved",
      "outputs": [
        {
          "internalType": "address",
          "name": "",
          "type": "address"
        }
      ],
      "stateMutability": "view",
      "type": "function"
    },
    {
      "inputs": [
        {
          "internalType": "uint256",
          "name": "cardId",
          "type": "uint256"
        }
      ],
      "name": "getCardStats",
      "outputs": [
        {
          "components": [
            {
              "internalType": "uint16",
              "name": "attack",
              "type": "uint16"
            },
            {
              "internalType": "uint16",
              "name": "defense",
              "type": "uint16"
            },
            {
              "internalType": "uint16",
              "name": "health",
              "type": "uint16"
            },
            {
              "internalType": "uint16",
              "name": "speed",
              "type": "uint16"
            },
            {
              "internalType": "uint8",
              "name": "element",
              "type": "uint8"
            },
            {
              "internalType": "uint8",
              "name": "rarity",
              "type": "uint8"
            },
            {
              "internalType": "bytes32",
              "name": "abilityHash",
              "type": "bytes32"
            },
            {
              "internalType": "bool",
              "name": "isSet",
              "type": "bool"
            }
          ],
          "internalType": "struct WhaleCards.CardStats",
          "name": "",
          "type": "tuple"
        }
      ],
      "stateMutability": "view",
      "type": "function"
    },
    {
      "inputs": [
        {
          "internalType": "address",
          "name": "owner",
          "type": "address"
        }
      ],
      "name": "getCardsOf",
      "outputs": [
        {
          "internalType": "uint256[]",
          "name": "",
          "type": "uint256[]"
        }
      ],
      "stateMutability": "view",
      "type": "function"
    },
    {
      "inputs": [
        {
          "internalType": "address",
          "name": "owner",
          "type": "address"
        },
        {
          "internalType": "address",
          "name": "operator",
          "type": "address"
        }
      ],
      "name": "isApprovedForAll",
      "outputs": [
        {
          "internalType": "bool",
          "name": "",
          "type": "bool"
        }
      ],
      "stateMutability": "view",
      "type": "function"
    },
    {
      "inputs": [
        {
          "internalType": "uint256",
          "name": "whaleId",
          "type": "uint256"
        }
      ],
      "name": "isCardMinted",
      "outputs": [
        {
          "internalType": "bool",
          "name": "",
          "type": "bool"
        }
      ],
      "stateMutability": "view",
      "type": "function"
    },
    {
      "inputs": [
        {
          "internalType": "uint256",
          "name": "whaleId",
          "type": "uint256"
        }
      ],
      "name": "mintCard",
      "outputs": [],
      "stateMutability": "nonpayable",
      "type": "function"
    },
    {
      "inputs": [],
      "name": "name",
      "outputs": [
        {
          "internalType": "string",
          "name": "",
          "type": "string"
        }
      ],
      "stateMutability": "view",
      "type": "function"
    },
    {
      "inputs": [],
      "name": "oracle",
      "outputs": [
        {
          "internalType": "address",
          "name": "",
          "type": "address"
        }
      ],
      "stateMutability": "view",
      "type": "function"
    },
    {
      "inputs": [],
      "name": "owner",
      "outputs": [
        {
          "internalType": "address",
          "name": "",
          "type": "address"
        }
      ],
      "stateMutability": "view",
      "type": "function"
    },
    {
      "inputs": [
        {
          "internalType": "uint256",
          "name": "tokenId",
          "type": "uint256"
        }
      ],
      "name": "ownerOf",
      "outputs": [
        {
          "internalType": "address",
          "name": "",
          "type": "address"
        }
      ],
      "stateMutability": "view",
      "type": "function"
    },
    {
      "inputs": [
        {
          "internalType": "uint256",
          "name": "",
          "type": "uint256"
        }
      ],
      "name": "rarityNames",
      "outputs": [
        {
          "internalType": "string",
          "name": "",
          "type": "string"
        }
      ],
      "stateMutability": "view",
      "type": "function"
    },
    {
      "inputs": [],
      "name": "renounceOwnership",
      "outputs": [],
      "stateMutability": "nonpayable",
      "type": "function"
    },
    {
      "inputs": [
        {
          "internalType": "address",
          "name": "from",
          "type": "address"
        },
        {
          "internalType": "address",
          "name": "to",
          "type": "address"
        },
        {
          "internalType": "uint256",
          "name": "tokenId",
          "type": "uint256"
        }
      ],
      "name": "safeTransferFrom",
      "outputs": [],
      "stateMutability": "nonpayable",
      "type": "function"
    },
    {
      "inputs": [
        {
          "internalType": "address",
          "name": "from",
          "type": "address"
        },
        {
          "internalType": "address",
          "name": "to",
          "type": "address"
        },
        {
          "internalType": "uint256",
          "name": "tokenId",
          "type": "uint256"
        },
        {
          "internalType": "bytes",
          "name": "data",
          "type": "bytes"
        }
      ],
      "name": "safeTransferFrom",
      "outputs": [],
      "stateMutability": "nonpayable",
      "type": "function"
    },
    {
      "inputs": [
        {
          "internalType": "address",
          "name": "operator",
          "type": "address"
        },
        {
          "internalType": "bool",
          "name": "approved",
          "type": "bool"
        }
      ],
      "name": "setApprovalForAll",
      "outputs": [],
      "stateMutability": "nonpayable",
      "type": "function"
    },
    {
      "inputs": [
        {
          "internalType": "string",
          "name": "_uri",
          "type": "string"
        }
      ],
      "name": "setBaseMetadataURI",
      "outputs": [],
      "stateMutability": "nonpayable",
      "type": "function"
    },
    {
      "inputs": [
        {
          "internalType": "address",
          "name": "_oracle",
          "type": "address"
        }
      ],
      "name": "setOracle",
      "outputs": [],
      "stateMutability": "nonpayable",
      "type": "function"
    },
    {
      "inputs": [
        {
          "internalType": "bytes4",
          "name": "interfaceId",
          "type": "bytes4"
        }
      ],
      "name": "supportsInterface",
      "outputs": [
        {
          "internalType": "bool",
          "name": "",
          "type": "bool"
        }
      ],
      "stateMutability": "view",
      "type": "function"
    },
    {
      "inputs": [],
      "name": "symbol",
      "outputs": [
        {
          "internalType": "string",
          "name": "",
          "type": "string"
        }
      ],
      "stateMutability": "view",
      "type": "function"
    },
    {
      "inputs": [
        {
          "internalType": "uint256",
          "name": "index",
          "type": "uint256"
        }
      ],
      "name": "tokenByIndex",
      "outputs": [
        {
          "internalType": "uint256",
          "name": "",
          "type": "uint256"
        }
      ],
      "stateMutability": "view",
      "type": "function"
    },
    {
      "inputs": [
        {
          "internalType": "address",
          "name": "owner",
          "type": "address"
        },
        {
          "internalType": "uint256",
          "name": "index",
          "type": "uint256"
        }
      ],
      "name": "tokenOfOwnerByIndex",
      "outputs": [
        {
          "internalType": "uint256",
          "name": "",
          "type": "uint256"
        }
      ],
      "stateMutability": "view",
      "type": "function"
    },
    {
      "inputs": [
        {
          "internalType": "uint256",
          "name": "tokenId",
          "type": "uint256"
        }
      ],
      "name": "tokenURI",
      "outputs": [
        {
          "internalType": "string",
          "name": "",
          "type": "string"
        }
      ],
      "stateMutability": "view",
      "type": "function"
    },
    {
      "inputs": [],
      "name": "totalSupply",
      "outputs": [
        {
          "internalType": "uint256",
          "name": "",
          "type": "uint256"
        }
      ],
      "stateMutability": "view",
      "type": "function"
    },
    {
      "inputs": [
        {
          "internalType": "address",
          "name": "from",
          "type": "address"
        },
        {
          "internalType": "address",
          "name": "to",
          "type": "address"
        },
        {
          "internalType": "uint256",
          "name": "tokenId",
          "type": "uint256"
        }
      ],
      "name": "transferFrom",
      "outputs": [],
      "stateMutability": "nonpayable",
      "type": "function"
    },
    {
      "inputs": [
        {
          "internalType": "address",
          "name": "newOwner",
          "type": "address"
        }
      ],
      "name": "transferOwnership",
      "outputs": [],
      "stateMutability": "nonpayable",
      "type": "function"
    },
    {
      "inputs": [],
      "name": "whaleNFT",
      "outputs": [
        {
          "internalType": "contract IERC721Ownership",
          "name": "",
          "type": "address"
        }
      ],
      "stateMutability": "view",
      "type": "function"
    }
  ],
  "bytecode": "0x60a060405234610904576148de6040813803918261001c81610927565b9384928339810103126109045761003e60206100378361094c565b920161094c565b906100496040610927565b9160088352672bb430b632b6b7b760c11b60208401526100696040610927565b60048152632ba6a7a760e11b602082015283519092906001600160401b038111610574576100975f54610960565b601f81116108b7575b50602094601f8211600114610856576100d39293949582915f926104c5575b50508160011b915f199060031b1c19161790565b5f555b82516001600160401b038111610574576100f1600154610960565b601f8111610808575b506020601f82116001146107a557819061012a9394955f926104c55750508160011b915f199060031b1c19161790565b6001555b331561079257600a8054336001600160a01b0319821681179092556001600160a01b03167f8be0079c531659141344cd1fd0a4f28419497f9722a3daafe3b4186f6b6457e05f80a361017e610908565b6101886040610927565b6005815264416279737360d81b602082015281526101a66040610927565b60048152635469646560e01b602082015260208201526101c66040610927565b600581526453746f726d60d81b602082015260408201526101e76040610927565b6005815264119c9bdcdd60da1b602082015260608201526102086040610927565b600581526410dbdc985b60da1b602082015260808201526102296040610927565b60098152682632bb34b0ba3430b760b91b602082015260a08201526010905f905b6006821061068d575050604051905060a081016001600160401b038111828210176105745760405261027c6040610927565b600681526521b7b6b6b7b760d11b6020820152815261029b6040610927565b60088152672ab731b7b6b6b7b760c11b602082015260208201526102bf6040610927565b60048152635261726560e01b602082015260408201526102df6040610927565b60048152634570696360e01b602082015260608201526102ff6040610927565b60098152684c6567656e6461727960b81b602082015260808201526016905f905b6005821061058857505050610333610908565b61033d6040610927565b600681526531613061326560d01b6020820152815261035c6040610927565b600681526530656135653960d01b6020820152602082015261037e6040610927565b60068152651c311ab1b31b60d11b602082015260408201526103a06040610927565b600681526536376538663960d01b602082015260608201526103c26040610927565b6006815265331a1b99311b60d11b602082015260808201526103e46040610927565b60068152653231991b191b60d11b602082015260a0820152601b905f905b60068210610459575050506001600160a01b03908116608052600d80546001600160a01b03191692909116919091179055604051613f2f90816109af82396080518181816105180152818161150a01526118490152f35b80518051906001600160401b038211610574576104768554610960565b601f8111610539575b50602090601f83116001146104d057926104b6836001959460209487965f926104c55750508160011b915f199060031b1c19161790565b86555b01930191019091610402565b015190505f806100bf565b90601f19831691865f52815f20925f5b8181106105215750936020936001969387969383889510610509575b505050811b0186556104b9565b01515f1960f88460031b161c191690555f80806104fc565b929360206001819287860151815501950193016104e0565b61056490865f5260205f20601f850160051c8101916020861061056a575b601f0160051c0190610998565b5f61047f565b9091508190610557565b634e487b7160e01b5f52604160045260245ffd5b80518051906001600160401b038211610574576105a58554610960565b601f811161065d575b50602090601f83116001146105f457926105e5836001959460209487965f926104c55750508160011b915f199060031b1c19161790565b86555b01930191019091610320565b90601f19831691865f52815f20925f5b818110610645575093602093600196938796938388951061062d575b505050811b0186556105e8565b01515f1960f88460031b161c191690555f8080610620565b92936020600181928786015181550195019301610604565b61068790865f5260205f20601f850160051c8101916020861061056a57601f0160051c0190610998565b5f6105ae565b80518051906001600160401b038211610574576106aa8554610960565b601f8111610762575b50602090601f83116001146106f957926106ea836001959460209487965f926104c55750508160011b915f199060031b1c19161790565b86555b0193019101909161024a565b90601f19831691865f52815f20925f5b81811061074a5750936020936001969387969383889510610732575b505050811b0186556106ed565b01515f1960f88460031b161c191690555f8080610725565b92936020600181928786015181550195019301610709565b61078c90865f5260205f20601f850160051c8101916020861061056a57601f0160051c0190610998565b5f6106b3565b631e4fbdf760e01b5f525f60045260245ffd5b601f1982169060015f52805f20915f5b8181106107f0575095836001959697106107d8575b505050811b0160015561012e565b01515f1960f88460031b161c191690555f80806107ca565b9192602060018192868b0151815501940192016107b5565b60015f52610850907fb10e2d527612073b26eecdfd717e6a320cf44b4afac2b0732d9fcbe2b7fa0cf6601f840160051c8101916020851061056a57601f0160051c0190610998565b5f6100fa565b601f198216955f8052805f20915f5b88811061089f57508360019596979810610887575b505050811b015f556100d6565b01515f1960f88460031b161c191690555f808061087a565b91926020600181928685015181550194019201610865565b5f80526108fe907f290decd9548b62a8d60345a988386fc84ba6bc95484008f6362f93160ef3e563601f840160051c8101916020851061056a57601f0160051c0190610998565b5f6100a0565b5f80fd5b6040519060c082016001600160401b0381118382101761057457604052565b6040519190601f01601f191682016001600160401b0381118382101761057457604052565b51906001600160a01b038216820361090457565b90600182811c9216801561098e575b602083101461097a57565b634e487b7160e01b5f52602260045260245ffd5b91607f169161096f565b8181106109a3575050565b5f815560010161099856fe610300806040526004361015610013575f80fd5b5f3560e01c90816301ffc9a714611a6c5750806306fdde03146119ca578063081812fc1461198e578063095ea7b3146118a4578063165ed4c51461187857806317b1090b1461183457806318160ddd14611817578063227a0f88146117ed57806323b872dd146117d65780632f745c591461176457806342842e0e146117355780634873a1e3146117095780634c77fe2a146116805780634f6ccce7146116625780635b2bd79e146115d05780635d61071f1461037857806360b47a50146114d95780636352211e146114a957806370a0823114611483578063715018a6146114285780637adbf973146113c05780637dc0d1d0146113985780637e518ec81461123c5780637e744a76146112205780638a6f0c1114610e675780638da5cb5b14610e3f57806395d89b4114610d7557806398bf314314610d49578063a22cb46514610c8c578063b88d4fde14610bf7578063c4ae904314610687578063c87b56dd14610650578063c9664da6146104e6578063d44888fe146103a7578063dd7c315514610378578063e1ed6a5e146102a0578063e985e9c5146102495763f2fde38b146101bf575f80fd5b34610245576020366003190112610245576101d8611b15565b6101e0613a4c565b6001600160a01b0316801561023257600a80546001600160a01b0319811683179091556001600160a01b03167f8be0079c531659141344cd1fd0a4f28419497f9722a3daafe3b4186f6b6457e05f80a3005b631e4fbdf760e01b5f525f60045260245ffd5b5f80fd5b3461024557604036600319011261024557610262611b15565b61026a611b2b565b9060018060a01b03165f52600560205260405f209060018060a01b03165f52602052602060ff60405f2054166040519015158152f35b34610245576020366003190112610245576102c16102bc611b15565b612039565b6102ca81613704565b906102d86040519283611b95565b8082526102e481613704565b602083019190601f19013683375f5b81811061033e578284604051918291602083019060208452518091526040830191905f5b818110610325575050500390f35b8251845285945060209384019390920191600101610317565b61034781611fe7565b9084518110156103645760019160208260051b87010152016102f3565b634e487b7160e01b5f52603260045260245ffd5b34610245576020366003190112610245576004355f52600b602052602060ff60405f2054166040519015158152f35b34610245576020366003190112610245576004355f60e06040516103ca81611b79565b8281528260208201528260408201528260608201528260808201528260a08201528260c08201520152610410815f52600260205260018060a01b0360405f205416151590565b156104d7575f52600c60205261010060405f2060405161042f81611b79565b8060ff8354818061ffff838187818084169b8c835260e08760026020860193858960101c1685528260a06040890198888c60201c168a52606081019b898160301c168d52608082019e8f9160401c169052019d60481c168d5260c060018201549f019e8f520154169c019b15158c526040519c8d52511660208c0152511660408a01525116606088015251166080860152511660a08401525160c083015251151560e0820152f35b63dc114e6b60e01b5f5260045ffd5b34610245576020366003190112610245576004356001600160401b03811161024557610516903690600401611cd8565b7f00000000000000000000000000000000000000000000000000000000000000006001600160a01b031691905f5b81811061054d57005b61055881838561206a565b35906040516331a9108f60e11b8152826004820152602081602481895afa908115610645575f91610617575b50336001600160a01b039091160361060857815f52600b60205260ff60405f2054166105f957816001925f52600b60205260405f208360ff198254161790556105cd813361374f565b80337fcb1c56d5745b05695241c17b7cfaece9a64f70bc32508c0997990633be8056ff5f80a401610544565b6315ec10b760e31b5f5260045ffd5b6393debdb960e01b5f5260045ffd5b610638915060203d811161063e575b6106308183611b95565b81019061201a565b86610584565b503d610626565b6040513d5f823e3d90fd5b346102455760203660031901126102455761068361066f600435612161565b604051918291602083526020830190611af1565b0390f35b3461024557610120366003190112610245576004356001600160401b038111610245576106b8903690600401611cd8565b6102e052610120526024356001600160401b038111610245576106df903690600401611cd8565b60e0526101e0526044356001600160401b03811161024557610705903690600401611cd8565b610200526102c0526064356001600160401b0381116102455761072c903690600401611cd8565b6101c05260c0526084356001600160401b03811161024557610752903690600401611cd8565b6101a0526101605260a4356001600160401b03811161024557610779903690600401611cd8565b610280526102605260c4356001600160401b038111610245576107a0903690600401611cd8565b6102a0526101005260e4356001600160401b038111610245576107c7903690600401611cd8565b61018052610140526001600160401b036101043511610245576107f03661010435600401611cd8565b6102405261022052600d546001600160a01b031633141580610be2575b610bd3575f60a0525b6102e05160a0511061082457005b61083760a0516102e0516101205161206a565b3560808190525f908152600260205260409020546001600160a01b0316156104d7576080515f52600c60205260ff600260405f20015416610bc457610a0361ffff600261089461088f60a05160e0516101e05161206a565b61207a565b6108aa61088f60a051610200516102c05161206a565b6108bf61088f60a0516101c05160c05161206a565b6108d561088f60a0516101a0516101605161206a565b916108f16108ec60a051610280516102605161206a565b612089565b6109076108ec60a0516102a0516101005161206a565b9161091b60a051610180516101405161206a565b3594886040519761092b89611b79565b16875288602088019216825288604088019516855288606088019116815260ff608088019316835260ff60a088019416845260c0870195865260e0870196600188526080515f52600c60205260ff60481b60ff60401b61ffff60301b65ffff0000000063ffff000060405f209e8f9651169554975160101b16995160201b16945160301b16955160401b16955160481b169560ff60481b199360ff60401b199261ffff60301b199165ffffffffffff1916171617161716171717845551600184015551151591019060ff801983541691151516179055565b610a1660a0516102405161022051612097565b9050610a8b575b610a336108ec60a051610280516102605161206a565b5f516020613eba5f395f51905f52610a7a610a5a6108ec60a0516102a0516101005161206a565b6040805160805160ff968716825295909216602083015290918291820190565b0390a2600160a0510160a052610816565b610a9e60a0516102405161022051612097565b6080515f52600f60205260405f20906001600160401b038111610bb057610ac58254611b41565b601f8111610b6f575b505f92601f8211600114610b0a57928192935f92610aff575b50508160011b915f199060031b1c1916179055610a1d565b013590508380610ae7565b825f5260205f20905f945b601f1984168610610b5757600194955083601f19811610610b3e575b505050811b019055610a1d565b01355f19600384901b60f8161c19169055838080610b31565b91602060018192858501358155019301950194610b15565b825f5260205f20601f830160051c810160208410610ba9575b601f830160051c82018110610b9e575050610ace565b5f8155600101610b88565b5080610b88565b634e487b7160e01b5f52604160045260245ffd5b6368d3cd5360e01b5f5260045ffd5b6380fee10560e01b5f5260045ffd5b50600a546001600160a01b031633141561080d565b3461024557608036600319011261024557610c10611b15565b610c18611b2b565b90604435606435926001600160401b038411610245573660238501121561024557836004013592610c4884611cbd565b93610c566040519586611b95565b8085523660248288010111610245576020815f926024610c8a99018389013786010152610c84838383611d08565b33613a73565b005b3461024557604036600319011261024557610ca5611b15565b6024359081151590818303610245573315610d36576001600160a01b0316918215610d2357610cf590335f52600560205260405f20845f5260205260405f209060ff801983541691151516179055565b6040519081527f17307eab39ab6107e8899845ad3d59bd9653f200f220920489ca2b5937696c3160203392a3005b82630b61174360e31b5f5260045260245ffd5b63a9fbf51f60e01b5f525f60045260245ffd5b346102455760203660031901126102455760043560058110156102455761066f61068391601601611bb6565b34610245575f366003190112610245576040515f600154610d9581611b41565b8084529060018116908115610e1b5750600114610dbd575b6106838361066f81850382611b95565b60015f9081527fb10e2d527612073b26eecdfd717e6a320cf44b4afac2b0732d9fcbe2b7fa0cf6939250905b808210610e015750909150810160200161066f610dad565b919260018160209254838588010152019101909291610de9565b60ff191660208086019190915291151560051b8401909101915061066f9050610dad565b34610245575f36600319011261024557600a546040516001600160a01b039091168152602090f35b3461024557610120366003190112610245576004356024359061ffff82168092036102455760443561ffff81168091036102455760643561ffff8116809103610245576084359061ffff82168092036102455760a4359160ff83168084036102455760c4359460ff86169283870361024557610104356001600160401b03811161024557610ef9903690600401611c90565b99909560018060a01b03600d54163314158061120b575b610bd3575f8a8152600260205260409020546001600160a01b0316156104d757895f52600c60205260ff600260405f20015416610bc45781158015611201575b6111d357831580156111f7575b6111d3576032811080156111ec575b6111d357821580156111e2575b6111d357600585116111d357600486116111d3576110729561ffff956002958c9560405195610fa787611b79565b86526020860191825260408601948552606086019081526080860192835260a0860193845260c086019560e435875260e0810197600189525f52600c60205260ff60481b60ff60401b61ffff60301b65ffff0000000063ffff000060405f209e8f9651169554975160101b16995160201b16945160301b16955160401b16955160481b169560ff60481b199360ff60401b199261ffff60301b199165ffffffffffff1916171617161716171717845551600184015551151591019060ff801983541691151516179055565b8461109f575b506040805160ff92831681529290911660208301525f516020613eba5f395f51905f5291a2005b835f52600f60205260405f20906001600160401b038611610bb0576110c48254611b41565b601f811161118e575b505f90601f871160011461111b579580915f516020613eba5f395f51905f5296975f92611110575b50508160011b915f199060031b1c19161790555b8392611078565b0135905087806110f5565b601f19871691835f5260205f20925f5b81811061117657509160019391895f516020613eba5f395f51905f52999a941061115d575b505050811b019055611109565b01355f19600384901b60f8161c19169055878080611150565b9193602060018192878701358155019501920161112b565b825f5260205f20601f880160051c810191602089106111c9575b601f0160051c01905b8181106111be57506110cd565b5f81556001016111b1565b90915081906111a8565b63270b168d60e01b5f5260045ffd5b5060648311610f79565b5061012c8111610f6c565b5060648411610f5d565b5060648211610f50565b50600a546001600160a01b0316331415610f10565b34610245575f366003190112610245576020604051610d058152f35b34610245576020366003190112610245576004356001600160401b0381116102455761126c903690600401611c90565b611274613a4c565b6001600160401b038111610bb05761128d600e54611b41565b601f8111611334575b505f601f82116001146112cf5781925f926112c4575b50505f19600383901b1c191660019190911b17600e55005b0135905082806112ac565b601f198216925f516020613eda5f395f51905f52915f5b85811061131c57508360019510611303575b505050811b01600e55005b01355f19600384901b60f8161c191690558280806112f8565b909260206001819286860135815501940191016112e6565b601f820160051c5f516020613eda5f395f51905f52019060208310611383575b601f0160051c5f516020613eda5f395f51905f5201905b8181106113785750611296565b5f815560010161136b565b5f516020613eda5f395f51905f529150611354565b34610245575f36600319011261024557600d546040516001600160a01b039091168152602090f35b34610245576020366003190112610245576113d9611b15565b6113e1613a4c565b600d546001600160a01b0391821691829082167f078c3b417dadf69374a59793b829c52001247130433427049317bde56607b1b75f80a36001600160a01b03191617600d55005b34610245575f36600319011261024557611440613a4c565b600a80546001600160a01b031981169091555f906001600160a01b03167f8be0079c531659141344cd1fd0a4f28419497f9722a3daafe3b4186f6b6457e08280a3005b346102455760203660031901126102455760206114a16102bc611b15565b604051908152f35b346102455760203660031901126102455760206114c760043561371b565b6040516001600160a01b039091168152f35b34610245576020366003190112610245576040516331a9108f60e11b815260048035908201819052906020816024817f00000000000000000000000000000000000000000000000000000000000000006001600160a01b03165afa908115610645575f916115b1575b50336001600160a01b039091160361060857805f52600b60205260ff60405f2054166105f957805f52600b60205260405f20600160ff19825416179055611589813361374f565b80337fcb1c56d5745b05695241c17b7cfaece9a64f70bc32508c0997990633be8056ff5f80a4005b6115ca915060203d60201161063e576106308183611b95565b82611542565b34610245575f366003190112610245576040515f600e546115f081611b41565b8084529060018116908115610e1b5750600114611617576106838361066f81850382611b95565b600e5f9081525f516020613eda5f395f51905f52939250905b8082106116485750909150810160200161066f610dad565b919260018160209254838588010152019101909291611630565b346102455760203660031901126102455760206114a1600435611fe7565b34610245576020366003190112610245576004355f52600c60205261010060405f2080549060ff60026001830154920154169060ff6040519361ffff8116855261ffff8160101c16602086015261ffff8160201c16604086015261ffff8160301c166060860152818160401c16608086015260481c1660a084015260c0830152151560e0820152f35b346102455760203660031901126102455760043560068110156102455761066f61068391601001611bb6565b3461024557610c8a61174636611c56565b9060405192611756602085611b95565b5f8452610c84838383611d08565b346102455760403660031901126102455761177d611b15565b6024359061178a81612039565b8210156117b95760018060a01b03165f52600660205260405f20905f52602052602060405f2054604051908152f35b63295f44f760e21b5f5260018060a01b031660045260245260445ffd5b3461024557610c8a6117e736611c56565b91611d08565b34610245576020366003190112610245576004355f52600f60205261068361066f60405f20611bb6565b34610245575f366003190112610245576020600854604051908152f35b34610245575f366003190112610245576040517f00000000000000000000000000000000000000000000000000000000000000006001600160a01b03168152602090f35b346102455760203660031901126102455760043560068110156102455761066f61068391601b01611bb6565b34610245576040366003190112610245576118bd611b15565b6024356118c98161371b565b3315158061197b575b8061194e575b61193b5781906001600160a01b0384811691167f8c5be1e5ebec7d5bd14f71427d1e84f3dd0314c0f7b2291e5b200ac8c7c3b9255f80a45f90815260046020526040902080546001600160a01b0319166001600160a01b03909216919091179055005b63a9fbf51f60e01b5f523360045260245ffd5b506001600160a01b0381165f90815260056020908152604080832033845290915290205460ff16156118d8565b506001600160a01b0381163314156118d2565b34610245576020366003190112610245576004356119ab8161371b565b505f526004602052602060018060a01b0360405f205416604051908152f35b34610245575f366003190112610245576040515f5f546119e981611b41565b8084529060018116908115610e1b5750600114611a10576106838361066f81850382611b95565b5f8080527f290decd9548b62a8d60345a988386fc84ba6bc95484008f6362f93160ef3e563939250905b808210611a525750909150810160200161066f610dad565b919260018160209254838588010152019101909291611a3a565b34610245576020366003190112610245576004359063ffffffff60e01b82168092036102455760209163780e9d6360e01b8114908115611aae575b5015158152f35b6380ac58cd60e01b811491508115611ae0575b8115611acf575b5083611aa7565b6301ffc9a760e01b14905083611ac8565b635b5e139f60e01b81149150611ac1565b805180835260209291819084018484015e5f828201840152601f01601f1916010190565b600435906001600160a01b038216820361024557565b602435906001600160a01b038216820361024557565b90600182811c92168015611b6f575b6020831014611b5b57565b634e487b7160e01b5f52602260045260245ffd5b91607f1691611b50565b61010081019081106001600160401b03821117610bb057604052565b90601f801991011681019081106001600160401b03821117610bb057604052565b9060405191825f825492611bc984611b41565b8084529360018116908115611c345750600114611bf0575b50611bee92500383611b95565b565b90505f9291925260205f20905f915b818310611c18575050906020611bee928201015f611be1565b6020919350806001915483858901015201910190918492611bff565b905060209250611bee94915060ff191682840152151560051b8201015f611be1565b6060906003190112610245576004356001600160a01b038116810361024557906024356001600160a01b0381168103610245579060443590565b9181601f84011215610245578235916001600160401b038311610245576020838186019501011161024557565b6001600160401b038111610bb057601f01601f191660200190565b9181601f84011215610245578235916001600160401b038311610245576020808501948460051b01011161024557565b9091906001600160a01b0383168015611fbc575f838152600260205260409020546001600160a01b03169333151580611f2c575b5084158015611ef9575b825f52600360205260405f2060018154019055845f52600260205260405f20836bffffffffffffffffffffffff60a01b8254161790558483877fddf252ad1be2c89b69c2b068fc378daa952ba7f163c4a11628f55a4df523b3ef5f80a415611e7c57600854845f5260096020528060405f2055600160401b811015610bb05784611dd9826001611df19401600855611fcf565b90919082549060031b91821b915f19901b1916179055565b818503611e28575b50506001600160a01b0316808303611e1057505050565b6364283d7b60e01b5f5260045260245260445260645ffd5b611e3190612039565b5f19810191908211611e68575f52600660205260405f20815f526020528260405f2055825f52600760205260405f20555f80611df9565b634e487b7160e01b5f52601160045260245ffd5b848214611df157611e8c85612039565b845f52600760205260405f205490865f52600660205260405f2091818103611ece575b50855f5260076020525f60408120555f526020525f6040812055611df1565b815f528260205260405f2054815f52836020528060405f20555f52600760205260405f20555f611eaf565b5f85815260046020526040902080546001600160a01b0319169055855f52600360205260405f205f198154019055611d46565b80611f6b575b15611f3d575f611d3c565b8385611f5557637e27328960e01b5f5260045260245ffd5b63177e802f60e01b5f523360045260245260445ffd5b503385148015611f9a575b80611f3257505f848152600460205260409020546001600160a01b03163314611f32565b505f85815260056020908152604080832033845290915290205460ff16611f76565b633250574960e11b5f525f60045260245ffd5b6008548110156103645760085f5260205f2001905f90565b60085481101561200457611ffa90611fcf565b90549060031b1c90565b63295f44f760e21b5f525f60045260245260445ffd5b9081602091031261024557516001600160a01b03811681036102455790565b6001600160a01b03168015612057575f52600360205260405f205490565b6322718ad960e21b5f525f60045260245ffd5b91908110156103645760051b0190565b3561ffff811681036102455790565b3560ff811681036102455790565b91908110156103645760051b81013590601e19813603018212156102455701908135916001600160401b038311610245576020018236038113610245579190565b7f22696d616765223a22646174613a696d6167652f7376672b786d6c3b626173658152620d8d0b60ea1b602082015260230190565b90611bee603d6020936040519485917f646174613a6170706c69636174696f6e2f6a736f6e3b6261736536342c000000828401528051918291018484015e81015f838201520301601f198101845283611b95565b5f818152600260205260409020546001600160a01b0316156104d757602081695768616c656d6f6e202360b01b925f52600c825260405f206040516121a581611b79565b81549261ffff841682528482019061ffff8560101c168252604083019261ffff86881c168452606081019461ffff8760301c16865260ff60026080840192828a60401c1684528260a086019a60481c168a52600181015460c086015201541660e083019015158152612247602a61221b86613b97565b6040519b8c918183019e8f528051918291018484015e81015f838201520301601f1981018b528a611b95565b511561325b5760ff81511660068110156103645761226790601001611bb6565b60ff88511660058110156103645761228190601601611bb6565b9261229061ffff825116613b97565b9461229f61ffff885116613b97565b936122ae61ffff8a5116613b97565b9a6122bd61ffff8c5116613b97565b9260ff8351166006811015610364576122da60ff91601b01611bb6565b9351166006811015610364576122f460ff91601001611bb6565b92511660058110156103645761230c90601601611bb6565b92815f52600f60205261232260405f2054611b41565b1561316e57815f52600f60205260405f20604051907f3c636c6970506174682069643d22696d67436c6970223e3c7265637420783d2260208301527f33302220793d223730222077696474683d2232343022206865696768743d223160408301527f3830222072783d223130222f3e3c2f636c6970506174683e000000000000000060608301526c1e34b6b0b3b290343932b31e9160991b60788301525f908054906123cd82611b41565b9160018116908115613146575060011461310b575b50509061247e606982847f2220783d2233302220793d223730222077696474683d2232343022206865696761248496527f68743d223138302220636c69702d706174683d2275726c2823696d67436c697060208201527f2922207072657365727665417370656374526174696f3d22784d6964594d69646040820152681039b634b1b291179f60b91b6060820152036049810184520182611b95565b92613b97565b918d8d8d895161ffff1661249790613b97565b905161ffff166124a690613b97565b915161ffff166124b590613b97565b925161ffff166124c490613b97565b604080517f3c73766720786d6c6e733d22687474703a2f2f7777772e77332e6f72672f32306020808301919091527f30302f7376672220786d6c6e733a786c696e6b3d22687474703a2f2f7777772e928201929092527f77332e6f72672f313939392f786c696e6b222076696577426f783d223020302060608201527f3330302034323022207374796c653d22666f6e742d66616d696c793a6d6f6e6f60808201526639b830b1b2911f60c91b60a08201527f3c646566733e3c6c696e6561724772616469656e742069643d2262672220783160a78201527f3d2230222079313d2230222078323d2230222079323d2231223e00000000000060c78201527f3c73746f70206f66667365743d223025222073746f702d636f6c6f723d22233060e18201527f6130653237222f3e3c73746f70206f66667365743d2231303025222073746f706101018201527116b1b7b637b91e91119833189b993091179f60711b6101218201527f3c2f6c696e6561724772616469656e743e3c2f646566733e00000000000000006101338201527f3c726563742077696474683d2233303022206865696768743d2234323022207261014b8201527f783d223136222066696c6c3d2275726c2823626729222f3e000000000000000061016b8201527f3c7265637420783d22342220793d2234222077696474683d22323932222068656101838201527f696768743d22343132222072783d223134222066696c6c3d226e6f6e652220736101a38201526774726f6b653d222360c01b6101c38201528751909a8b9a92890199939793909291808b6101cb8e015e8b016101cb81017f22207374726f6b652d77696474683d223322206f7061636974793d22302e382290526101eb810161179f60f11b90526101ed0161275c90613d04565b81516020819301825e661e17ba32bc3a1f60c91b91019081527f3c7465787420783d223135302220793d2235362220746578742d616e63686f726007820152703d226d6964646c65222066696c6c3d222360781b6027820152885190818b603883015e017011103337b73a16b9b4bd329e911899111f60791b603882015281516020819301604983015e0160380160118101620103e160ed1b905281516020819301601483015e0160110160038101661e17ba32bc3a1f60c91b905281516020819301600a83015e01600301600781017f3c6c696e652078313d223330222079313d22323630222078323d22323730222090527179323d2232363022207374726f6b653d222360701b60278201528551908188603983015e70111037b830b1b4ba3c9e9118171a11179f60791b603992909101918201527f3c7465787420783d2234302220793d22323930222066696c6c3d222339346133604a8201527f62382220666f6e742d73697a653d223131223e41544b3c2f746578743e3c7465606a8201527f787420783d223132302220793d22323930222066696c6c3d2223663837313731608a8201527f2220666f6e742d73697a653d2231342220666f6e742d7765696768743d22626f60aa820152633632111f60e11b60ca820152815191600782019183916020019060ce015e0160320160958101661e17ba32bc3a1f60c91b9052609c81017f3c7465787420783d223137302220793d22323930222066696c6c3d2223393461905260bc81017f3362382220666f6e742d73697a653d223131223e4445463c2f746578743e3c74905260dc81017f65787420783d223235302220793d22323930222066696c6c3d22233630613566905260fc81017f612220666f6e742d73697a653d2231342220666f6e742d7765696768743d226290526437b632111f60d91b61011c8201528151602081930161012183015e01609501608c8101661e17ba32bc3a1f60c91b9052609381017f3c7465787420783d2234302220793d22333230222066696c6c3d222339346133905260b381017f62382220666f6e742d73697a653d223131223e48503c2f746578743e3c746578905260d381017f7420783d223132302220793d22333230222066696c6c3d222334616465383022905260f381017f20666f6e742d73697a653d2231342220666f6e742d7765696768743d22626f6c90526232111f60e91b6101138201528151602081930161011683015e01608c01608a8101661e17ba32bc3a1f60c91b9052609181017f3c7465787420783d223137302220793d22333230222066696c6c3d2223393461905260b181017f3362382220666f6e742d73697a653d223131223e5350443c2f746578743e3c74905260d181017f65787420783d223235302220793d22333230222066696c6c3d22236661636331905260f181017f352220666f6e742d73697a653d2231342220666f6e742d7765696768743d226290526437b632111f60d91b6101118201528151602081930161011683015e01608a01608c8101661e17ba32bc3a1f60c91b9052609381017f3c7265637420783d2232302220793d22333530222077696474683d2232363022905260b381017f206865696768743d223530222072783d2238222066696c6c3d222300000000009052815190818460ce83015e01608c019070111037b830b1b4ba3c9e9118171891179f60791b6042830152605382017f3c7465787420783d223135302220793d223338302220746578742d616e63686f905271723d226d6964646c65222066696c6c3d222360701b6073830152518092608583015e01604201604381017f2220666f6e742d73697a653d223131223e5748414c454d4f4e205443473c2f749052606381016332bc3a1f60e11b905260678101651e17b9bb339f60d11b905203604301600a81018252602a01612ce59082611b95565b612cee90613d84565b915161ffff16612cfd90613b97565b965161ffff16612d0c90613b97565b975161ffff16612d1b90613b97565b985161ffff16612d2a90613b97565b996040519c8d809d683d913730b6b2911d1160b91b6020830152519160298392015e8c0194602986016201016960ed1b9052845160208601968188602c83015e016029019760038901600160fd1b905287516020890199818b600483015e0160030161088b60f21b6001820152700113232b9b1b934b83a34b7b7111d11209607d1b6003820152885190818b601483015e0160010160138101600160fd1b90528651908189601483015e01601301600181017f20636172642066726f6d20746865205768616c656d6f6e205443472e2041544b905260218101601d60f91b905281516020819301602283015e016001016021810164102222a31d60d91b905281516020819301602683015e0160210160058101631024281d60e11b905281516020819301600983015e0160050160048101641029a8221d60d91b905281516020819301600983015e0160040161088b60f21b6005820152600701612e8d906120d8565b81516020819301825e61088b60f21b91019081526d2261747472696275746573223a5b60901b60028201527f7b2274726169745f74797065223a22456c656d656e74222c2276616c7565223a6010820152601160f91b60308201529051918290603183015e019062089f4b60ea1b6031830152603482017f7b2274726169745f74797065223a22526172697479222c2276616c7565223a229052518092605483015e0160310162089f4b60ea1b6023820152602681017f7b2274726169745f74797065223a2241747461636b222c22646973706c61795f905260468101763a3cb832911d11373ab6b132b91116113b30b63ab2911d60491b905281516020819301605d83015e01602301603a8101611f4b60f21b9052603c81017f7b2274726169745f74797065223a22446566656e7365222c22646973706c61799052605c81017f5f74797065223a226e756d626572222c2276616c7565223a0000000000000000905281516020819301607483015e01603a01603a8101611f4b60f21b9052603c81017f7b2274726169745f74797065223a224865616c7468222c22646973706c61795f9052605c8101763a3cb832911d11373ab6b132b91116113b30b63ab2911d60491b905281516020819301607383015e01603a0160398101611f4b60f21b9052603b81017f7b2274726169745f74797065223a225370656564222c22646973706c61795f749052753cb832911d11373ab6b132b91116113b30b63ab2911d60511b605b82015281516020819301607183015e0160390160388101607d60f81b905260398101615d7d60f01b905203603801601c19810182526003016130f69082611b95565b6130ff90613d84565b6131089061210d565b90565b9091505f5260205f205f905b82821061312f575050810160850161247e60696123e2565b600181602092546085858801015201910190613117565b60ff19166085808701919091528315159093028501909201925061247e9150606990506123e2565b6124846040517f3c636972636c652063783d22313530222063793d223136302220723d223730226020820152672066696c6c3d222360c01b604082015261247e606b604883865180602089018484015e810171111037b830b1b4ba3c9e911817189a91179f60711b838201527f3c7465787420783d223135302220793d223137302220746578742d616e63686f605a8201527f723d226d6964646c65222066696c6c3d22236532653866302220666f6e742d73607a8201527f697a653d223438223e26237831463433333b3c2f746578743e00000000000000609a8201520301604b810184520182611b95565b505061310896945061360a9350600292506136ff95915061360f602061360a6101876132878395613b97565b6040519384917f3c73766720786d6c6e733d22687474703a2f2f7777772e77332e6f72672f3230828401527f30302f737667222076696577426f783d2230203020333030203432302220737460408401527f796c653d22666f6e742d66616d696c793a6d6f6e6f7370616365223e0000000060608401527f3c726563742077696474683d2233303022206865696768743d22343230222072607c8401527f783d223136222066696c6c3d2223306130653237222f3e000000000000000000609c8401527f3c7265637420783d22342220793d2234222077696474683d223239322220686560b38401527f696768743d22343132222072783d223134222066696c6c3d226e6f6e6522207360d38401527f74726f6b653d222333333431353522207374726f6b652d77696474683d22322260f38401527f207374726f6b652d6461736861727261793d22382034222f3e000000000000006101138401526133f061012c8401613d04565b90805192839101825e01661e17ba32bc3a1f60c91b81527f3c7465787420783d223135302220793d2235362220746578742d616e63686f7260078201527f3d226d6964646c65222066696c6c3d22233634373438622220666f6e742d736960278201527f7a653d223132223e4177616974696e672044657374696e792e2e2e3c2f7465786047820152613a1f60f11b60678201527f3c7465787420783d223135302220793d223138302220746578742d616e63686f60698201527f723d226d6964646c65222066696c6c3d22233437353536392220666f6e742d7360898201527f697a653d223634223e26237831463433333b3c2f746578743e0000000000000060a98201527f3c7465787420783d223135302220793d223330302220746578742d616e63686f60c28201527f723d226d6964646c65222066696c6c3d22233437353536392220666f6e742d7360e28201527f697a653d223132223e53746174732067656e65726174696e672e2e2e3c2f7465610102820152623c3a1f60e91b6101228201527f3c7465787420783d223135302220793d223338302220746578742d616e63686f6101258201527f723d226d6964646c65222066696c6c3d22233333343135352220666f6e742d736101458201527f697a653d223131223e5748414c454d4f4e205443473c2f746578743e00000000610165820152651e17b9bb339f60d11b61018182015203610167810184520182611b95565b613d84565b6136de60a6604051978895683d913730b6b2911d1160b91b86880152518091602988015e850161088b60f21b60298201527f226465736372697074696f6e223a2241205768616c656d6f6e2054726164696e602b8201527f672043617264206177616974696e67206974732064657374696e792e20537461604b8201527f74732077696c6c2062652072657665616c6564206f6e636520746865206f7261606b8201527f636c652070726f6365737365732074686973207768616c652e222c0000000000608b820152016120d8565b90805192839101825e0161227d60f01b815203601d19810184520182611b95565b61210d565b6001600160401b038111610bb05760051b60200190565b5f818152600260205260409020546001600160a01b031690811561373d575090565b637e27328960e01b5f5260045260245ffd5b90602090604051906137618383611b95565b5f82526001600160a01b038416938415611fbc575f8281526002855260409020546001600160a01b031680158015919082613a1b575b875f526003875260405f2060018154019055845f526002875260405f20886bffffffffffffffffffffffff60a01b8254161790558488837fddf252ad1be2c89b69c2b068fc378daa952ba7f163c4a11628f55a4df523b3ef5f80a4156139a557600854845f52600987528060405f2055600160401b811015610bb05784611dd98260016138279401600855611fcf565b86810361396a575b50613957573b613840575b50505050565b9161387d91819495936040519384928392630a85bd0160e11b84523360048501525f60248501526044840152608060648401526084830190611af1565b03815f885af15f9181613917575b506138e05750503d156138d8573d906138a382611cbd565b916138b16040519384611b95565b82523d5f8284013e5b815191826138d55783633250574960e11b5f5260045260245ffd5b01fd5b6060906138ba565b909291506001600160e01b03191663757a42ff60e11b0161390557505f80808061383a565b633250574960e11b5f5260045260245ffd5b9091508381813d8311613950575b61392f8183611b95565b8101031261024557516001600160e01b03198116810361024557905f61388b565b503d613925565b6339e3563760e11b5f525f60045260245ffd5b61397383612039565b5f198101908111611e6857875f526006875260405f20815f5287528460405f2055845f526007875260405f205561382f565b808714613827576139b581612039565b845f526007875260405f205490825f526006885260405f20918181036139f3575b50855f52600788525f60408120555f5286525f6040812055613827565b815f5282895260405f2054815f52838a528060405f20555f526007895260405f20555f6139d6565b5f8581526004602052604080822080546001600160a01b031916905583825260038952902080545f19019055613797565b600a546001600160a01b03163303613a6057565b63118cdaa760e01b5f523360045260245ffd5b823b613a81575b5050505050565b604051630a85bd0160e11b81526001600160a01b039182166004820152918116602483015260448201939093526080606482015291169160209082908190613acd906084830190611af1565b03815f865af15f9181613b52575b50613b3057503d15613b29573d613af181611cbd565b90613aff6040519283611b95565b81523d5f602083013e5b80519081613b245782633250574960e11b5f5260045260245ffd5b602001fd5b6060613b09565b6001600160e01b03191663757a42ff60e11b0161390557505f80808080613a7a565b9091506020813d602011613b8f575b81613b6e60209383611b95565b8101031261024557516001600160e01b03198116810361024557905f613adb565b3d9150613b61565b805f9172184f03e93ff9f4daa797ed6e38ed64bf6a1f0160401b821015613ce1575b806d04ee2d6d415b85acef8100000000600a921015613cc6575b662386f26fc10000811015613cb2575b6305f5e100811015613ca1575b612710811015613c92575b6064811015613c84575b1015613c79575b600a60216001840193613c1e85611cbd565b94613c2c6040519687611b95565b808652613c3b601f1991611cbd565b013660208701378401015b5f1901916f181899199a1a9b1b9c1cb0b131b232b360811b8282061a8353048015613c7457600a9091613c46565b505090565b600190910190613c0c565b606460029104930192613c05565b61271060049104930192613bfb565b6305f5e10060089104930192613bf0565b662386f26fc1000060109104930192613be3565b6d04ee2d6d415b85acef810000000060209104930192613bd3565b506040915072184f03e93ff9f4daa797ed6e38ed64bf6a1f0160401b8104613bb9565b7f3c7465787420783d223135302220793d2233362220746578742d616e63686f7281527f3d226d6964646c65222066696c6c3d22236532653866302220666f6e742d736960208201527f7a653d2231362220666f6e742d7765696768743d22626f6c64223e5748414c45604082015261202360f01b606082015260620190565b90815115613ea357815160028101809111611e685760039004600281901b91906001600160fe1b03811603611e6857604051917f4142434445464748494a4b4c4d4e4f505152535455565758595a616263646566601f527f6768696a6b6c6d6e6f707172737475767778797a303132333435363738392b2f603f52602083018480518101602081018051915f82525b808910613e675750602095969750906003929152510680600114613e5257600214613e45575b50808452830101604052565b603d905f1901535f613e39565b50603d90815f1982015360011901535f613e39565b939760036004910198603f8a51818160121c165183538181600c1c16516001840153818160061c16516002840153165160038201530193613e13565b9050604051613eb3602082611b95565b5f81529056fec00c20eb2df14c640de18a45fb80f455bb660b242fbb7582470a0c8eb843eb00bb7b4a454dc3493923482f07822329ed19e8244eff582cc204f8554c3620c3fda26469706673582212206abcac4702214e32569b641bd81356b940c5e73b9c6248982abc80b5a963d32564736f6c634300081c0033",
  "linkReferences": {},
  "deployedLinkReferences": {},
  "immutableReferences": {
    "12686": [
      {
        "length": 32,
        "start": 1304
      },
      {
        "length": 32,
        "start": 5386
      },
      {
        "length": 32,
        "start": 6217
      }
    ]
  },
  "inputSourceName": "project/contracts/WhaleCards.sol",
  "buildInfoId": "solc-0_8_28-c96f4ca273027a818c3c20d5e3128ff35d26c4e2"
}