{
  "_format": "hh3-artifact-1",
  "contractName": "BattleArena",
  "sourceName": "contracts/BattleArena.sol",
  "abi": [
    {
      "inputs": [
        {
          "internalType": "address",
          "name": "_whaleCards",
          "type": "address"
        },
        {
          "internalType": "address",
          "name": "_pathUSD",
          "type": "address"
        }
      ],
      "stateMutability": "nonpayable",
      "type": "constructor"
    },
    {
      "inputs": [],
      "name": "AbilityOnCooldown",
      "type": "error"
    },
    {
      "inputs": [],
      "name": "AlreadyClaimed",
      "type": "error"
    },
    {
      "inputs": [],
      "name": "AlreadyInBattle",
      "type": "error"
    },
    {
      "inputs": [],
      "name": "BattleAlreadyFinished",
      "type": "error"
    },
    {
      "inputs": [],
      "name": "BattleNotActive",
      "type": "error"
    },
    {
      "inputs": [],
      "name": "BattleNotFound",
      "type": "error"
    },
    {
      "inputs": [],
      "name": "BattleNotOpen",
      "type": "error"
    },
    {
      "inputs": [],
      "name": "CannotFightYourself",
      "type": "error"
    },
    {
      "inputs": [],
      "name": "CardStatsNotSet",
      "type": "error"
    },
    {
      "inputs": [],
      "name": "ForfeitNotAllowed",
      "type": "error"
    },
    {
      "inputs": [],
      "name": "InsufficientAllowance",
      "type": "error"
    },
    {
      "inputs": [],
      "name": "InvalidFee",
      "type": "error"
    },
    {
      "inputs": [],
      "name": "InvalidMove",
      "type": "error"
    },
    {
      "inputs": [],
      "name": "InvalidRank",
      "type": "error"
    },
    {
      "inputs": [],
      "name": "NotBattleParticipant",
      "type": "error"
    },
    {
      "inputs": [],
      "name": "NotCardOwner",
      "type": "error"
    },
    {
      "inputs": [],
      "name": "NotRankedPlayer",
      "type": "error"
    },
    {
      "inputs": [],
      "name": "NotYourTurn",
      "type": "error"
    },
    {
      "inputs": [],
      "name": "NothingToWithdraw",
      "type": "error"
    },
    {
      "inputs": [
        {
          "internalType": "address",
          "name": "owner",
          "type": "address"
        }
      ],
      "name": "OwnableInvalidOwner",
      "type": "error"
    },
    {
      "inputs": [
        {
          "internalType": "address",
          "name": "account",
          "type": "address"
        }
      ],
      "name": "OwnableUnauthorizedAccount",
      "type": "error"
    },
    {
      "inputs": [],
      "name": "ReentrancyGuardReentrantCall",
      "type": "error"
    },
    {
      "inputs": [],
      "name": "SeasonNotEnded",
      "type": "error"
    },
    {
      "inputs": [],
      "name": "SeasonStillActive",
      "type": "error"
    },
    {
      "anonymous": false,
      "inputs": [
        {
          "indexed": true,
          "internalType": "uint256",
          "name": "battleId",
          "type": "uint256"
        }
      ],
      "name": "BattleCancelled",
      "type": "event"
    },
    {
      "anonymous": false,
      "inputs": [
        {
          "indexed": true,
          "internalType": "uint256",
          "name": "battleId",
          "type": "uint256"
        },
        {
          "indexed": true,
          "internalType": "address",
          "name": "player1",
          "type": "address"
        },
        {
          "indexed": false,
          "internalType": "uint256",
          "name": "card1",
          "type": "uint256"
        },
        {
          "indexed": false,
          "internalType": "enum BattleArena.BattleMode",
          "name": "mode",
          "type": "uint8"
        }
      ],
      "name": "BattleCreated",
      "type": "event"
    },
    {
      "anonymous": false,
      "inputs": [
        {
          "indexed": true,
          "internalType": "uint256",
          "name": "battleId",
          "type": "uint256"
        },
        {
          "indexed": true,
          "internalType": "address",
          "name": "winner",
          "type": "address"
        },
        {
          "indexed": false,
          "internalType": "uint8",
          "name": "totalTurns",
          "type": "uint8"
        }
      ],
      "name": "BattleFinished",
      "type": "event"
    },
    {
      "anonymous": false,
      "inputs": [
        {
          "indexed": true,
          "internalType": "uint256",
          "name": "battleId",
          "type": "uint256"
        },
        {
          "indexed": true,
          "internalType": "address",
          "name": "forfeiter",
          "type": "address"
        }
      ],
      "name": "BattleForfeited",
      "type": "event"
    },
    {
      "anonymous": false,
      "inputs": [
        {
          "indexed": true,
          "internalType": "uint256",
          "name": "battleId",
          "type": "uint256"
        },
        {
          "indexed": true,
          "internalType": "address",
          "name": "player2",
          "type": "address"
        },
        {
          "indexed": false,
          "internalType": "uint256",
          "name": "card2",
          "type": "uint256"
        }
      ],
      "name": "BattleJoined",
      "type": "event"
    },
    {
      "anonymous": false,
      "inputs": [
        {
          "indexed": true,
          "internalType": "uint256",
          "name": "battleId",
          "type": "uint256"
        },
        {
          "indexed": false,
          "internalType": "uint8",
          "name": "turn",
          "type": "uint8"
        },
        {
          "indexed": true,
          "internalType": "address",
          "name": "player",
          "type": "address"
        },
        {
          "indexed": false,
          "internalType": "enum BattleArena.MoveType",
          "name": "move",
          "type": "uint8"
        },
        {
          "indexed": false,
          "internalType": "uint16",
          "name": "damage",
          "type": "uint16"
        }
      ],
      "name": "BattleMove",
      "type": "event"
    },
    {
      "anonymous": false,
      "inputs": [
        {
          "indexed": true,
          "internalType": "address",
          "name": "to",
          "type": "address"
        },
        {
          "indexed": false,
          "internalType": "uint256",
          "name": "amount",
          "type": "uint256"
        }
      ],
      "name": "EmergencyWithdraw",
      "type": "event"
    },
    {
      "anonymous": false,
      "inputs": [
        {
          "indexed": true,
          "internalType": "address",
          "name": "player",
          "type": "address"
        },
        {
          "indexed": false,
          "internalType": "uint256",
          "name": "amount",
          "type": "uint256"
        },
        {
          "indexed": false,
          "internalType": "uint256",
          "name": "toPool",
          "type": "uint256"
        },
        {
          "indexed": false,
          "internalType": "uint256",
          "name": "toPlatform",
          "type": "uint256"
        }
      ],
      "name": "EntryFeePaid",
      "type": "event"
    },
    {
      "anonymous": false,
      "inputs": [
        {
          "indexed": false,
          "internalType": "uint256",
          "name": "oldFee",
          "type": "uint256"
        },
        {
          "indexed": false,
          "internalType": "uint256",
          "name": "newFee",
          "type": "uint256"
        }
      ],
      "name": "EntryFeeUpdated",
      "type": "event"
    },
    {
      "anonymous": false,
      "inputs": [
        {
          "indexed": true,
          "internalType": "address",
          "name": "previousOwner",
          "type": "address"
        },
        {
          "indexed": true,
          "internalType": "address",
          "name": "newOwner",
          "type": "address"
        }
      ],
      "name": "OwnershipTransferred",
      "type": "event"
    },
    {
      "anonymous": false,
      "inputs": [
        {
          "indexed": true,
          "internalType": "uint256",
          "name": "season",
          "type": "uint256"
        },
        {
          "indexed": false,
          "internalType": "uint256",
          "name": "rank",
          "type": "uint256"
        },
        {
          "indexed": true,
          "internalType": "address",
          "name": "player",
          "type": "address"
        },
        {
          "indexed": false,
          "internalType": "uint256",
          "name": "amount",
          "type": "uint256"
        }
      ],
      "name": "PrizeClaimed",
      "type": "event"
    },
    {
      "anonymous": false,
      "inputs": [
        {
          "indexed": true,
          "internalType": "uint256",
          "name": "season",
          "type": "uint256"
        },
        {
          "indexed": false,
          "internalType": "uint256",
          "name": "prizePool",
          "type": "uint256"
        },
        {
          "indexed": false,
          "internalType": "address[]",
          "name": "topPlayers",
          "type": "address[]"
        }
      ],
      "name": "SeasonEnded",
      "type": "event"
    },
    {
      "inputs": [],
      "name": "ABILITY_COOLDOWN",
      "outputs": [
        {
          "internalType": "uint16",
          "name": "",
          "type": "uint16"
        }
      ],
      "stateMutability": "view",
      "type": "function"
    },
    {
      "inputs": [],
      "name": "ABILITY_POWER_MULTIPLIER",
      "outputs": [
        {
          "internalType": "uint16",
          "name": "",
          "type": "uint16"
        }
      ],
      "stateMutability": "view",
      "type": "function"
    },
    {
      "inputs": [],
      "name": "BASE_DAMAGE_MIN",
      "outputs": [
        {
          "internalType": "uint16",
          "name": "",
          "type": "uint16"
        }
      ],
      "stateMutability": "view",
      "type": "function"
    },
    {
      "inputs": [],
      "name": "ELEMENT_BONUS",
      "outputs": [
        {
          "internalType": "uint16",
          "name": "",
          "type": "uint16"
        }
      ],
      "stateMutability": "view",
      "type": "function"
    },
    {
      "inputs": [],
      "name": "MAX_PLATFORM_FEE",
      "outputs": [
        {
          "internalType": "uint256",
          "name": "",
          "type": "uint256"
        }
      ],
      "stateMutability": "view",
      "type": "function"
    },
    {
      "inputs": [],
      "name": "MAX_TURNS",
      "outputs": [
        {
          "internalType": "uint8",
          "name": "",
          "type": "uint8"
        }
      ],
      "stateMutability": "view",
      "type": "function"
    },
    {
      "inputs": [
        {
          "internalType": "address",
          "name": "",
          "type": "address"
        }
      ],
      "name": "activeBattle",
      "outputs": [
        {
          "internalType": "uint256",
          "name": "",
          "type": "uint256"
        }
      ],
      "stateMutability": "view",
      "type": "function"
    },
    {
      "inputs": [
        {
          "internalType": "uint256",
          "name": "",
          "type": "uint256"
        },
        {
          "internalType": "uint256",
          "name": "",
          "type": "uint256"
        }
      ],
      "name": "battleLogs",
      "outputs": [
        {
          "internalType": "uint8",
          "name": "turn",
          "type": "uint8"
        },
        {
          "internalType": "address",
          "name": "player",
          "type": "address"
        },
        {
          "internalType": "enum BattleArena.MoveType",
          "name": "move",
          "type": "uint8"
        },
        {
          "internalType": "uint16",
          "name": "damage",
          "type": "uint16"
        },
        {
          "internalType": "int16",
          "name": "hp1After",
          "type": "int16"
        },
        {
          "internalType": "int16",
          "name": "hp2After",
          "type": "int16"
        }
      ],
      "stateMutability": "view",
      "type": "function"
    },
    {
      "inputs": [
        {
          "internalType": "uint256",
          "name": "",
          "type": "uint256"
        }
      ],
      "name": "battles",
      "outputs": [
        {
          "internalType": "uint256",
          "name": "battleId",
          "type": "uint256"
        },
        {
          "internalType": "address",
          "name": "player1",
          "type": "address"
        },
        {
          "internalType": "address",
          "name": "player2",
          "type": "address"
        },
        {
          "internalType": "uint256",
          "name": "card1",
          "type": "uint256"
        },
        {
          "internalType": "uint256",
          "name": "card2",
          "type": "uint256"
        },
        {
          "internalType": "int16",
          "name": "hp1",
          "type": "int16"
        },
        {
          "internalType": "int16",
          "name": "hp2",
          "type": "int16"
        },
        {
          "internalType": "uint8",
          "name": "turn",
          "type": "uint8"
        },
        {
          "internalType": "uint8",
          "name": "lastAbility1",
          "type": "uint8"
        },
        {
          "internalType": "uint8",
          "name": "lastAbility2",
          "type": "uint8"
        },
        {
          "internalType": "bool",
          "name": "isPlayer1Turn",
          "type": "bool"
        },
        {
          "internalType": "uint8",
          "name": "defenseBoost1",
          "type": "uint8"
        },
        {
          "internalType": "uint8",
          "name": "defenseBoost2",
          "type": "uint8"
        },
        {
          "internalType": "enum BattleArena.BattleStatus",
          "name": "status",
          "type": "uint8"
        },
        {
          "internalType": "enum BattleArena.BattleMode",
          "name": "mode",
          "type": "uint8"
        },
        {
          "internalType": "address",
          "name": "winner",
          "type": "address"
        },
        {
          "internalType": "uint256",
          "name": "createdAt",
          "type": "uint256"
        },
        {
          "internalType": "uint256",
          "name": "finishedAt",
          "type": "uint256"
        }
      ],
      "stateMutability": "view",
      "type": "function"
    },
    {
      "inputs": [
        {
          "internalType": "uint256",
          "name": "battleId",
          "type": "uint256"
        },
        {
          "internalType": "bool",
          "name": "isPlayer1",
          "type": "bool"
        }
      ],
      "name": "canUseAbility",
      "outputs": [
        {
          "internalType": "bool",
          "name": "",
          "type": "bool"
        }
      ],
      "stateMutability": "view",
      "type": "function"
    },
    {
      "inputs": [
        {
          "internalType": "uint256",
          "name": "battleId",
          "type": "uint256"
        }
      ],
      "name": "cancelBattle",
      "outputs": [],
      "stateMutability": "nonpayable",
      "type": "function"
    },
    {
      "inputs": [
        {
          "internalType": "uint256",
          "name": "season",
          "type": "uint256"
        },
        {
          "internalType": "uint256",
          "name": "rank",
          "type": "uint256"
        }
      ],
      "name": "claimPrize",
      "outputs": [],
      "stateMutability": "nonpayable",
      "type": "function"
    },
    {
      "inputs": [
        {
          "internalType": "uint256",
          "name": "cardId",
          "type": "uint256"
        }
      ],
      "name": "createAIBattle",
      "outputs": [
        {
          "internalType": "uint256",
          "name": "",
          "type": "uint256"
        }
      ],
      "stateMutability": "nonpayable",
      "type": "function"
    },
    {
      "inputs": [
        {
          "internalType": "uint256",
          "name": "cardId",
          "type": "uint256"
        }
      ],
      "name": "createBattle",
      "outputs": [
        {
          "internalType": "uint256",
          "name": "",
          "type": "uint256"
        }
      ],
      "stateMutability": "nonpayable",
      "type": "function"
    },
    {
      "inputs": [],
      "name": "currentSeason",
      "outputs": [
        {
          "internalType": "uint256",
          "name": "",
          "type": "uint256"
        }
      ],
      "stateMutability": "view",
      "type": "function"
    },
    {
      "inputs": [
        {
          "internalType": "uint8",
          "name": "",
          "type": "uint8"
        }
      ],
      "name": "elementAdvantage",
      "outputs": [
        {
          "internalType": "uint8",
          "name": "",
          "type": "uint8"
        }
      ],
      "stateMutability": "view",
      "type": "function"
    },
    {
      "inputs": [
        {
          "internalType": "address",
          "name": "to",
          "type": "address"
        }
      ],
      "name": "emergencyWithdrawPrizePool",
      "outputs": [],
      "stateMutability": "nonpayable",
      "type": "function"
    },
    {
      "inputs": [
        {
          "internalType": "address[]",
          "name": "topPlayers",
          "type": "address[]"
        }
      ],
      "name": "endSeason",
      "outputs": [],
      "stateMutability": "nonpayable",
      "type": "function"
    },
    {
      "inputs": [],
      "name": "entryFee",
      "outputs": [
        {
          "internalType": "uint256",
          "name": "",
          "type": "uint256"
        }
      ],
      "stateMutability": "view",
      "type": "function"
    },
    {
      "inputs": [
        {
          "internalType": "uint256",
          "name": "battleId",
          "type": "uint256"
        }
      ],
      "name": "forfeitBattle",
      "outputs": [],
      "stateMutability": "nonpayable",
      "type": "function"
    },
    {
      "inputs": [
        {
          "internalType": "uint256",
          "name": "battleId",
          "type": "uint256"
        }
      ],
      "name": "getBattle",
      "outputs": [
        {
          "components": [
            {
              "internalType": "uint256",
              "name": "battleId",
              "type": "uint256"
            },
            {
              "internalType": "address",
              "name": "player1",
              "type": "address"
            },
            {
              "internalType": "address",
              "name": "player2",
              "type": "address"
            },
            {
              "internalType": "uint256",
              "name": "card1",
              "type": "uint256"
            },
            {
              "internalType": "uint256",
              "name": "card2",
              "type": "uint256"
            },
            {
              "internalType": "int16",
              "name": "hp1",
              "type": "int16"
            },
            {
              "internalType": "int16",
              "name": "hp2",
              "type": "int16"
            },
            {
              "internalType": "uint8",
              "name": "turn",
              "type": "uint8"
            },
            {
              "internalType": "uint8",
              "name": "lastAbility1",
              "type": "uint8"
            },
            {
              "internalType": "uint8",
              "name": "lastAbility2",
              "type": "uint8"
            },
            {
              "internalType": "bool",
              "name": "isPlayer1Turn",
              "type": "bool"
            },
            {
              "internalType": "uint8",
              "name": "defenseBoost1",
              "type": "uint8"
            },
            {
              "internalType": "uint8",
              "name": "defenseBoost2",
              "type": "uint8"
            },
            {
              "internalType": "enum BattleArena.BattleStatus",
              "name": "status",
              "type": "uint8"
            },
            {
              "internalType": "enum BattleArena.BattleMode",
              "name": "mode",
              "type": "uint8"
            },
            {
              "internalType": "address",
              "name": "winner",
              "type": "address"
            },
            {
              "internalType": "uint256",
              "name": "createdAt",
              "type": "uint256"
            },
            {
              "internalType": "uint256",
              "name": "finishedAt",
              "type": "uint256"
            }
          ],
          "internalType": "struct BattleArena.Battle",
          "name": "",
          "type": "tuple"
        }
      ],
      "stateMutability": "view",
      "type": "function"
    },
    {
      "inputs": [
        {
          "internalType": "uint256",
          "name": "battleId",
          "type": "uint256"
        }
      ],
      "name": "getBattleLog",
      "outputs": [
        {
          "components": [
            {
              "internalType": "uint8",
              "name": "turn",
              "type": "uint8"
            },
            {
              "internalType": "address",
              "name": "player",
              "type": "address"
            },
            {
              "internalType": "enum BattleArena.MoveType",
              "name": "move",
              "type": "uint8"
            },
            {
              "internalType": "uint16",
              "name": "damage",
              "type": "uint16"
            },
            {
              "internalType": "int16",
              "name": "hp1After",
              "type": "int16"
            },
            {
              "internalType": "int16",
              "name": "hp2After",
              "type": "int16"
            }
          ],
          "internalType": "struct BattleArena.BattleLog[]",
          "name": "",
          "type": "tuple[]"
        }
      ],
      "stateMutability": "view",
      "type": "function"
    },
    {
      "inputs": [
        {
          "internalType": "uint256",
          "name": "offset",
          "type": "uint256"
        },
        {
          "internalType": "uint256",
          "name": "limit",
          "type": "uint256"
        }
      ],
      "name": "getOpenBattles",
      "outputs": [
        {
          "components": [
            {
              "internalType": "uint256",
              "name": "battleId",
              "type": "uint256"
            },
            {
              "internalType": "address",
              "name": "player1",
              "type": "address"
            },
            {
              "internalType": "address",
              "name": "player2",
              "type": "address"
            },
            {
              "internalType": "uint256",
              "name": "card1",
              "type": "uint256"
            },
            {
              "internalType": "uint256",
              "name": "card2",
              "type": "uint256"
            },
            {
              "internalType": "int16",
              "name": "hp1",
              "type": "int16"
            },
            {
              "internalType": "int16",
              "name": "hp2",
              "type": "int16"
            },
            {
              "internalType": "uint8",
              "name": "turn",
              "type": "uint8"
            },
            {
              "internalType": "uint8",
              "name": "lastAbility1",
              "type": "uint8"
            },
            {
              "internalType": "uint8",
              "name": "lastAbility2",
              "type": "uint8"
            },
            {
              "internalType": "bool",
              "name": "isPlayer1Turn",
              "type": "bool"
            },
            {
              "internalType": "uint8",
              "name": "defenseBoost1",
              "type": "uint8"
            },
            {
              "internalType": "uint8",
              "name": "defenseBoost2",
              "type": "uint8"
            },
            {
              "internalType": "enum BattleArena.BattleStatus",
              "name": "status",
              "type": "uint8"
            },
            {
              "internalType": "enum BattleArena.BattleMode",
              "name": "mode",
              "type": "uint8"
            },
            {
              "internalType": "address",
              "name": "winner",
              "type": "address"
            },
            {
              "internalType": "uint256",
              "name": "createdAt",
              "type": "uint256"
            },
            {
              "internalType": "uint256",
              "name": "finishedAt",
              "type": "uint256"
            }
          ],
          "internalType": "struct BattleArena.Battle[]",
          "name": "",
          "type": "tuple[]"
        }
      ],
      "stateMutability": "view",
      "type": "function"
    },
    {
      "inputs": [
        {
          "internalType": "address",
          "name": "player",
          "type": "address"
        }
      ],
      "name": "getPlayerRecord",
      "outputs": [
        {
          "components": [
            {
              "internalType": "uint32",
              "name": "wins",
              "type": "uint32"
            },
            {
              "internalType": "uint32",
              "name": "losses",
              "type": "uint32"
            },
            {
              "internalType": "uint32",
              "name": "draws",
              "type": "uint32"
            },
            {
              "internalType": "uint32",
              "name": "totalBattles",
              "type": "uint32"
            },
            {
              "internalType": "uint32",
              "name": "winStreak",
              "type": "uint32"
            },
            {
              "internalType": "uint32",
              "name": "bestStreak",
              "type": "uint32"
            },
            {
              "internalType": "uint256",
              "name": "totalDamageDealt",
              "type": "uint256"
            }
          ],
          "internalType": "struct BattleArena.PlayerRecord",
          "name": "",
          "type": "tuple"
        }
      ],
      "stateMutability": "view",
      "type": "function"
    },
    {
      "inputs": [],
      "name": "getPoolInfo",
      "outputs": [
        {
          "internalType": "uint256",
          "name": "currentPool",
          "type": "uint256"
        },
        {
          "internalType": "uint256",
          "name": "season",
          "type": "uint256"
        },
        {
          "internalType": "uint256",
          "name": "seasonEnd",
          "type": "uint256"
        },
        {
          "internalType": "uint256",
          "name": "totalBattles",
          "type": "uint256"
        },
        {
          "internalType": "uint256",
          "name": "currentEntryFee",
          "type": "uint256"
        },
        {
          "internalType": "uint256",
          "name": "topTier",
          "type": "uint256"
        },
        {
          "internalType": "uint256",
          "name": "totalRewarded",
          "type": "uint256"
        }
      ],
      "stateMutability": "view",
      "type": "function"
    },
    {
      "inputs": [
        {
          "internalType": "uint256",
          "name": "season",
          "type": "uint256"
        },
        {
          "internalType": "uint256",
          "name": "rank",
          "type": "uint256"
        }
      ],
      "name": "getPrizeAmount",
      "outputs": [
        {
          "internalType": "uint256",
          "name": "",
          "type": "uint256"
        }
      ],
      "stateMutability": "view",
      "type": "function"
    },
    {
      "inputs": [
        {
          "internalType": "uint256",
          "name": "season",
          "type": "uint256"
        },
        {
          "internalType": "address",
          "name": "player",
          "type": "address"
        }
      ],
      "name": "getSeasonWins",
      "outputs": [
        {
          "internalType": "uint32",
          "name": "",
          "type": "uint32"
        }
      ],
      "stateMutability": "view",
      "type": "function"
    },
    {
      "inputs": [],
      "name": "getTopTierShares",
      "outputs": [
        {
          "internalType": "uint256[]",
          "name": "",
          "type": "uint256[]"
        }
      ],
      "stateMutability": "view",
      "type": "function"
    },
    {
      "inputs": [
        {
          "internalType": "uint8",
          "name": "attackerElement",
          "type": "uint8"
        },
        {
          "internalType": "uint8",
          "name": "defenderElement",
          "type": "uint8"
        }
      ],
      "name": "hasElementAdvantage",
      "outputs": [
        {
          "internalType": "bool",
          "name": "",
          "type": "bool"
        }
      ],
      "stateMutability": "view",
      "type": "function"
    },
    {
      "inputs": [
        {
          "internalType": "uint256",
          "name": "battleId",
          "type": "uint256"
        },
        {
          "internalType": "uint256",
          "name": "cardId",
          "type": "uint256"
        }
      ],
      "name": "joinBattle",
      "outputs": [],
      "stateMutability": "nonpayable",
      "type": "function"
    },
    {
      "inputs": [
        {
          "internalType": "uint256",
          "name": "battleId",
          "type": "uint256"
        },
        {
          "internalType": "enum BattleArena.MoveType",
          "name": "move",
          "type": "uint8"
        }
      ],
      "name": "makeMove",
      "outputs": [],
      "stateMutability": "nonpayable",
      "type": "function"
    },
    {
      "inputs": [],
      "name": "nextBattleId",
      "outputs": [
        {
          "internalType": "uint256",
          "name": "",
          "type": "uint256"
        }
      ],
      "stateMutability": "view",
      "type": "function"
    },
    {
      "inputs": [],
      "name": "owner",
      "outputs": [
        {
          "internalType": "address",
          "name": "",
          "type": "address"
        }
      ],
      "stateMutability": "view",
      "type": "function"
    },
    {
      "inputs": [],
      "name": "pathUSD",
      "outputs": [
        {
          "internalType": "contract IPATHUSD",
          "name": "",
          "type": "address"
        }
      ],
      "stateMutability": "view",
      "type": "function"
    },
    {
      "inputs": [],
      "name": "platformFeeBps",
      "outputs": [
        {
          "internalType": "uint256",
          "name": "",
          "type": "uint256"
        }
      ],
      "stateMutability": "view",
      "type": "function"
    },
    {
      "inputs": [],
      "name": "platformFees",
      "outputs": [
        {
          "internalType": "uint256",
          "name": "",
          "type": "uint256"
        }
      ],
      "stateMutability": "view",
      "type": "function"
    },
    {
      "inputs": [
        {
          "internalType": "address",
          "name": "",
          "type": "address"
        }
      ],
      "name": "playerRecords",
      "outputs": [
        {
          "internalType": "uint32",
          "name": "wins",
          "type": "uint32"
        },
        {
          "internalType": "uint32",
          "name": "losses",
          "type": "uint32"
        },
        {
          "internalType": "uint32",
          "name": "draws",
          "type": "uint32"
        },
        {
          "internalType": "uint32",
          "name": "totalBattles",
          "type": "uint32"
        },
        {
          "internalType": "uint32",
          "name": "winStreak",
          "type": "uint32"
        },
        {
          "internalType": "uint32",
          "name": "bestStreak",
          "type": "uint32"
        },
        {
          "internalType": "uint256",
          "name": "totalDamageDealt",
          "type": "uint256"
        }
      ],
      "stateMutability": "view",
      "type": "function"
    },
    {
      "inputs": [
        {
          "internalType": "uint256",
          "name": "",
          "type": "uint256"
        },
        {
          "internalType": "uint256",
          "name": "",
          "type": "uint256"
        }
      ],
      "name": "prizeClaimed",
      "outputs": [
        {
          "internalType": "bool",
          "name": "",
          "type": "bool"
        }
      ],
      "stateMutability": "view",
      "type": "function"
    },
    {
      "inputs": [],
      "name": "prizePool",
      "outputs": [
        {
          "internalType": "uint256",
          "name": "",
          "type": "uint256"
        }
      ],
      "stateMutability": "view",
      "type": "function"
    },
    {
      "inputs": [],
      "name": "renounceOwnership",
      "outputs": [],
      "stateMutability": "nonpayable",
      "type": "function"
    },
    {
      "inputs": [],
      "name": "seasonDuration",
      "outputs": [
        {
          "internalType": "uint256",
          "name": "",
          "type": "uint256"
        }
      ],
      "stateMutability": "view",
      "type": "function"
    },
    {
      "inputs": [
        {
          "internalType": "uint256",
          "name": "",
          "type": "uint256"
        }
      ],
      "name": "seasonPrizePool",
      "outputs": [
        {
          "internalType": "uint256",
          "name": "",
          "type": "uint256"
        }
      ],
      "stateMutability": "view",
      "type": "function"
    },
    {
      "inputs": [
        {
          "internalType": "uint256",
          "name": "",
          "type": "uint256"
        },
        {
          "internalType": "uint256",
          "name": "",
          "type": "uint256"
        }
      ],
      "name": "seasonRankings",
      "outputs": [
        {
          "internalType": "address",
          "name": "",
          "type": "address"
        }
      ],
      "stateMutability": "view",
      "type": "function"
    },
    {
      "inputs": [],
      "name": "seasonStart",
      "outputs": [
        {
          "internalType": "uint256",
          "name": "",
          "type": "uint256"
        }
      ],
      "stateMutability": "view",
      "type": "function"
    },
    {
      "inputs": [],
      "name": "seasonTimeRemaining",
      "outputs": [
        {
          "internalType": "uint256",
          "name": "",
          "type": "uint256"
        }
      ],
      "stateMutability": "view",
      "type": "function"
    },
    {
      "inputs": [
        {
          "internalType": "uint256",
          "name": "",
          "type": "uint256"
        },
        {
          "internalType": "address",
          "name": "",
          "type": "address"
        }
      ],
      "name": "seasonWins",
      "outputs": [
        {
          "internalType": "uint32",
          "name": "",
          "type": "uint32"
        }
      ],
      "stateMutability": "view",
      "type": "function"
    },
    {
      "inputs": [
        {
          "internalType": "uint256",
          "name": "_fee",
          "type": "uint256"
        }
      ],
      "name": "setEntryFee",
      "outputs": [],
      "stateMutability": "nonpayable",
      "type": "function"
    },
    {
      "inputs": [
        {
          "internalType": "uint256",
          "name": "_feeBps",
          "type": "uint256"
        }
      ],
      "name": "setPlatformFee",
      "outputs": [],
      "stateMutability": "nonpayable",
      "type": "function"
    },
    {
      "inputs": [
        {
          "internalType": "uint256[]",
          "name": "_topTierShares",
          "type": "uint256[]"
        },
        {
          "internalType": "uint256",
          "name": "_totalRewardedPlayers",
          "type": "uint256"
        }
      ],
      "name": "setPrizeStructure",
      "outputs": [],
      "stateMutability": "nonpayable",
      "type": "function"
    },
    {
      "inputs": [
        {
          "internalType": "uint256",
          "name": "_duration",
          "type": "uint256"
        }
      ],
      "name": "setSeasonDuration",
      "outputs": [],
      "stateMutability": "nonpayable",
      "type": "function"
    },
    {
      "inputs": [],
      "name": "topTierCount",
      "outputs": [
        {
          "internalType": "uint256",
          "name": "",
          "type": "uint256"
        }
      ],
      "stateMutability": "view",
      "type": "function"
    },
    {
      "inputs": [
        {
          "internalType": "uint256",
          "name": "",
          "type": "uint256"
        }
      ],
      "name": "topTierShares",
      "outputs": [
        {
          "internalType": "uint256",
          "name": "",
          "type": "uint256"
        }
      ],
      "stateMutability": "view",
      "type": "function"
    },
    {
      "inputs": [],
      "name": "totalBattlesPlayed",
      "outputs": [
        {
          "internalType": "uint256",
          "name": "",
          "type": "uint256"
        }
      ],
      "stateMutability": "view",
      "type": "function"
    },
    {
      "inputs": [],
      "name": "totalRewardedPlayers",
      "outputs": [
        {
          "internalType": "uint256",
          "name": "",
          "type": "uint256"
        }
      ],
      "stateMutability": "view",
      "type": "function"
    },
    {
      "inputs": [
        {
          "internalType": "address",
          "name": "newOwner",
          "type": "address"
        }
      ],
      "name": "transferOwnership",
      "outputs": [],
      "stateMutability": "nonpayable",
      "type": "function"
    },
    {
      "inputs": [],
      "name": "whaleCards",
      "outputs": [
        {
          "internalType": "contract IWhaleCards",
          "name": "",
          "type": "address"
        }
      ],
      "stateMutability": "view",
      "type": "function"
    },
    {
      "inputs": [
        {
          "internalType": "address",
          "name": "to",
          "type": "address"
        }
      ],
      "name": "withdrawPlatformFees",
      "outputs": [],
      "stateMutability": "nonpayable",
      "type": "function"
    }
  ],
  "bytecode": "0x60c03461040757601f614df638819003918201601f19168301916001600160401b038311848410176103e057808492604094855283398101031261040757610052602061004b8361040b565b920161040b565b9033156103f4575f8054336001600160a01b0319821681178355916001600160a01b03909116907f8be0079c531659141344cd1fd0a4f28419497f9722a3daafe3b4186f6b6457e09080a360017f9b779b17422d0df92223018b32b4d1fa46e071723d6817e2486d003becc55f00819055620f42406007556103e8600855600b81905562278d00600d556005600e81905560196010556001600160a01b039283166080529290911660a05260066020527f54cdd369e4e8a8515e52ca72ec816c2101831ad1f18bf44102ed171459c9b4f8805460ff199081166003179091557f75f96ab15d697e93042dc45b5c896c4b27e89bb6eaf39475c5c371cb2513f7d28054821660041790557fc5069e24aaadb2addc3e52e868fcf3f4f8acf5a87e24300992fd4540c2a87eed805482169092179091557f3e5fec24aa4dc4e5aee2e025e51e1392c72a2500577559fae9665c6d52bd6a31805482169092179091557fbfd358e93f18da3ed276c3afdbdba00b8f0b6008a03476a6a86bd6320ee6938b8054821660029081179091555f527f8819ef417987f8ae7a81f42cdfb18815282fe989326fbff903d13cf0e03ace298054909116905542600c55600f54680100000000000000008110156103e0576001810180600f558110156103cc57610bb890600f5f5260205f200155600f54680100000000000000008110156103e0576001810180600f558110156103cc576107d090600f5f5260205f200155600f54680100000000000000008110156103e0576001810180600f558110156103cc576105dc90600f5f5260205f200155600f54680100000000000000008110156103e0576001810180600f558110156103cc576103e890600f5f5260205f200155600f54680100000000000000008110156103e0576001810180600f558110156103cc57600f5f526102bc7f8d1108e10bcb7c27dddfc02ed9d693a074039d026cf4ea4240b40f7d581ac802909101556040516149d69081610420823960805181818161064c01528181610cf5015281816111060152818161119201528181613b2c01528181613eb6015281816140e5015281816142c6015281816143380152818161445301528181614543015281816147240152614796015260a0518181816103a3015281816104ca0152818161196401528181611a6601528181611dff0152818161259a0152818161269e015281816127ef0152613c6a0152f35b634e487b7160e01b5f52603260045260245ffd5b634e487b7160e01b5f52604160045260245ffd5b631e4fbdf760e01b5f525f60045260245ffd5b5f80fd5b51906001600160a01b03821682036104075756fe6080806040526004361015610012575f80fd5b5f3560e01c908163072ea61c1461286e5750806307653afd146123e85780630a02396b146123b35780630dca4bc11461084c57806312e8e2c31461237a5780631833c0af146121da578063188107b71461208a578063194a4e7e1461206d57806320286cc31461205357806322dcd13e146120365780632f3d22bb1461201b578063302c80e114611ffe57806331a6ff6614611fe157806333e4b2df14611fa9578063371ca3c514611f8c5780633837ad4814611f715780633998a68114611f555780633aaea2e714611f385780633c38b21d14611f0057806342d4aa6014611e7c5780634c4c447e14611ce157806360246c8814611c85578063606d2e9614611b6c5780636abe4b1a14611b4b5780636dd0ce7a14611b09578063715018a614611ab2578063719ce73e14611a955780637b008d3b14611a515780637b1541401461189b5780637c01800d1461181b5780637fd6f7c4146117d757806384f86a66146117b6578063851ea6b9146115f95780638a29719f146115435780638b90fbc0146115285780638da5cb5b1461150157806394d44f121461113557806396a92858146110f1578063a94e5a69146110ba578063a98204f814610c98578063b94f5e4914610c54578063bafa094614610c37578063bcb3962114610c1a578063c0fac83814610bff578063cf2012af146109f8578063d21b4c52146108ff578063d794e1a6146108ca578063db2c0fd114610896578063e178e2151461084c578063e268070914610831578063e44dba4f146105c2578063e76c5908146105a5578063e7a2df611461046b578063eb770d0c14610418578063ec3889b514610342578063f2fde38b146102bd5763fe54009d1461028f575f80fd5b346102b95760203660031901126102b9576004355f526012602052602060405f2054604051908152f35b5f80fd5b346102b95760203660031901126102b9576102d66128ae565b6102de6137d2565b6001600160a01b0316801561032f575f80546001600160a01b03198116831782556001600160a01b0316907f8be0079c531659141344cd1fd0a4f28419497f9722a3daafe3b4186f6b6457e09080a3005b631e4fbdf760e01b5f525f60045260245ffd5b346102b95760203660031901126102b95761039e60206103606128ae565b6103686137d2565b600a80545f90915560405163a9059cbb60e01b81526001600160a01b039092166004830152602482015291829081906044820190565b03815f7f00000000000000000000000000000000000000000000000000000000000000006001600160a01b03165af1801561040d576103d957005b6020813d602011610405575b816103f260209383612b40565b810103126102b95761040390612b62565b005b3d91506103e5565b6040513d5f823e3d90fd5b346102b95760203660031901126102b9576004356104346137d2565b7f6a75d918a59da9597a749b7c707f23cfa76552074b43c68a24a21db1c45841f160406007548151908152836020820152a1600755005b346102b95760203660031901126102b9576104846128ae565b61048c6137d2565b600954908115610596575f60095560405163a9059cbb60e01b81526001600160a01b038216600482015260248101839052602081806044810103815f7f00000000000000000000000000000000000000000000000000000000000000006001600160a01b03165af1801561040d57610538575b506040519182526001600160a01b0316907f5fafa99d0643513820be26656b45130b01e1c03062e1266bf36f88cbd3bd969590602090a2005b6020813d60201161058e575b8161055160209383612b40565b810103126102b9577f5fafa99d0643513820be26656b45130b01e1c03062e1266bf36f88cbd3bd969591610586602092612b62565b5091506104ff565b3d9150610544565b630686827b60e51b5f5260045ffd5b346102b9575f3660031901126102b9576020600d54604051908152f35b346102b9576105d036612943565b906105d961379a565b805f52600260205260405f206005810160ff815460501c16600481101561081d5761080e5760018201546001600160a01b031633146107ff57335f52600560205260405f20546107f05761062d8433613b16565b61063633613c39565b604051636a24447f60e11b8152600481018590527f00000000000000000000000000000000000000000000000000000000000000006001600160a01b03169261010082602481875afa91821561040d575f926107ca575b506002810180546001600160a01b03191633179055600481018690556040820151835463ffff0000191663ffff000060109290921b919091161783556101009060039084546aff0000000000ff0000000019166a01000000000001000000001785550154604051636a24447f60e11b8152600481019190915293849060249082905afa801561040d57606061ffff81819361074e975f9161079b575b5001511692015116111560ff60381b825491151560381b169060ff60381b1916179055565b335f5260056020528060405f20556040519182527fa47b02d2d7d744d434c03db59a4362b0fc7a74d04df715cc6200d66fd65df98960203393a360015f5160206149815f395f51905f5255005b6107bd91506101003d81116107c3575b6107b58183612b40565b810190613681565b8a610729565b503d6107ab565b6101009192506107e8600391833d81116107c3576107b58183612b40565b92915061068d565b631844f0a560e11b5f5260045ffd5b632f50dd8760e01b5f5260045ffd5b637100718960e01b5f5260045ffd5b634e487b7160e01b5f52602160045260245ffd5b346102b9575f3660031901126102b957602060405160968152f35b346102b95760403660031901126102b957610865612898565b6004355f52601460205260405f209060018060a01b03165f52602052602063ffffffff60405f205416604051908152f35b346102b9576108a436612943565b905f52601360205260405f20905f52602052602060ff60405f2054166040519015158152f35b346102b95760403660031901126102b95760243580151581036102b9576108f560209160043561373f565b6040519015158152f35b346102b95760203660031901126102b9576109186128ae565b5f60c060405161092781612b24565b8281528260208201528260408201528260608201528260808201528260a0820152015260018060a01b03165f52600460205260e060405f2060405161096b81612b24565b63ffffffff82548181818581808416988983528160208401818760201c16815260c060016040870194848a60401c1686528460a060608a0199828d60601c168b5282608082019d60801c168d52019c60a01c168c5201549b019a8b526040519b8c52511660208b0152511660408901525116606087015251166080850152511660a08301525160c0820152f35b346102b95760403660031901126102b95760043567ffffffffffffffff81116102b957610a299036906004016128c4565b60243591610a356137d2565b818310610bba575f805b838210610b9a5761271091501015610b2f57600f545f600f5580610acf575b505f5b828110610a72575050600e55601055005b610a7d818484612b7c565b3590600f5491600160401b831015610abb57610aa0836001809501600f55612902565b819291549060031b91821b915f19901b191617905501610a61565b634e487b7160e01b5f52604160045260245ffd5b600f5f527f8d1108e10bcb7c27dddfc02ed9d693a074039d026cf4ea4240b40f7d581ac802017f8d1108e10bcb7c27dddfc02ed9d693a074039d026cf4ea4240b40f7d581ac8025b818110610b245750610a5e565b5f8155600101610b17565b60405162461bcd60e51b815260206004820152603960248201527f546f70207469657220736861726573206d757374206c656176652072656d616960448201527f6e64657220666f7220657175616c2d73686172652074696572000000000000006064820152608490fd5b610bb2600191610bab848787612b7c565b3590612b6f565b910190610a3f565b60405162461bcd60e51b815260206004820152601f60248201527f546f74616c206d757374206265203e3d20746f70207469657220636f756e74006044820152606490fd5b346102b9575f3660031901126102b957602060405160038152f35b346102b9575f3660031901126102b9576020600b54604051908152f35b346102b9575f3660031901126102b9576020600c54604051908152f35b346102b95760403660031901126102b957610c6d612888565b60243560ff81168091036102b95760ff602092165f526006825260ff60405f20541614604051908152f35b346102b95760203660031901126102b957610cb161379a565b610cbd60043533613b16565b335f52600560205260405f20546107f057610cd733613c39565b604051636a24447f60e11b81526004803590820152610100816024817f00000000000000000000000000000000000000000000000000000000000000006001600160a01b03165afa90811561040d575f9161109b575b50610d39600154612b8c565b8060015560b46040516020810190428252836040820152600435606082015260608152610d67608082612b40565b5190200660500191826050116110875761ffff6040819201511660010b9260405193610d9285612b07565b83855233602086015230604086015260043560608601525f608086015260a08501521660010b60c0830152600160e08301525f6101008301525f61012083015260016101408301525f6101608301525f61018083015260016101a083015260016101c08301525f6101e0830152426102008301525f610220830152805f52600260205260405f208251815560018060a01b03602084015116600182019060018060a01b03166001600160601b0360a01b82541617905560018060a01b03604084015116600282019060018060a01b03166001600160601b0360a01b825416179055606083015160038201556080830151600482015560a083015160010b61ffff196005830154169061ffff16176005820155610ecd60c084015160010b600583019081549060101b63ffff0000169063ffff00001916179055565b610ef860ff60e085015116600583019064ff0000000082549160201b169064ff000000001916179055565b610f2260ff61010085015116600583019060ff60281b82549160281b169060ff60281b1916179055565b610f4c60ff61012085015116600583019060ff60301b82549160301b169060ff60301b1916179055565b61014083015160058201805461016086015161018087015162ffffff60381b1990921660ff60381b94151560381b949094169390931760409390931b60ff60401b169290921760489290921b60ff60481b169190911790556101a0830151600481101561081d57610fc09060058301612a73565b6101c083015192600284101561081d576005820180546101e08301516affffffffffffffffffffff90911660589690961b60ff60581b169590951760609590951b6001600160601b031916949094179093556020926007906102209061020081015160068501550151910155335f52600582528060405f20556040516004358152600183820152817f04eb289f4f987f7cfc6dabfb6ccea9a32bd7d39f2e413d0b4d59bcce2a332aba60403393a360015f5160206149815f395f51905f5255604051908152f35b634e487b7160e01b5f52601160045260245ffd5b6110b491506101003d81116107c3576107b58183612b40565b81610d2d565b346102b9576110c836612943565b905f52601160205260405f20905f52602052602060018060a01b0360405f205416604051908152f35b346102b9575f3660031901126102b9576040517f00000000000000000000000000000000000000000000000000000000000000006001600160a01b03168152602090f35b346102b95760203660031901126102b95761114e61379a565b61115a60043533613b16565b335f52600560205260405f20546107f05761117433613c39565b604051636a24447f60e11b81526004803590820152610100816024817f00000000000000000000000000000000000000000000000000000000000000006001600160a01b03165afa90811561040d575f916114e2575b5061ffff60406111db600154612b8c565b928360015501511660010b90604051916111f483612b07565b8183523360208401525f604084015260043560608401525f608084015260a08301525f60c08301525f60e08301525f6101008301525f61012083015260016101408301525f6101608301525f6101808301525f6101a08301525f6101c08301525f6101e0830152426102008301525f610220830152805f52600260205260405f208251815560018060a01b03602084015116600182019060018060a01b03166001600160601b0360a01b82541617905560018060a01b03604084015116600282019060018060a01b03166001600160601b0360a01b825416179055606083015160038201556080830151600482015560a083015160010b61ffff196005830154169061ffff1617600582015561132960c084015160010b600583019081549060101b63ffff0000169063ffff00001916179055565b61135460ff60e085015116600583019064ff0000000082549160201b169064ff000000001916179055565b61137e60ff61010085015116600583019060ff60281b82549160281b169060ff60281b1916179055565b6113a860ff61012085015116600583019060ff60301b82549160301b169060ff60301b1916179055565b61014083015160058201805461016086015161018087015162ffffff60381b1990921660ff60381b94151560381b949094169390931760409390931b60ff60401b169290921760489290921b60ff60481b169190911790556101a0830151600481101561081d5761141c9060058301612a73565b6101c083015192600284101561081d576005820180546101e08301516affffffffffffffffffffff90911660589690961b60ff60581b169590951760609590951b6001600160601b031916949094179093556020926007906102209061020081015160068501550151910155335f52600582528060405f205560405160043581525f83820152817f04eb289f4f987f7cfc6dabfb6ccea9a32bd7d39f2e413d0b4d59bcce2a332aba60403393a360015f5160206149815f395f51905f5255604051908152f35b6114fb91506101003d81116107c3576107b58183612b40565b816111ca565b346102b9575f3660031901126102b9575f546040516001600160a01b039091168152602090f35b346102b9575f3660031901126102b9576020604051601e8152f35b346102b9575f3660031901126102b957604051806020600f5492838152018092600f5f527f8d1108e10bcb7c27dddfc02ed9d693a074039d026cf4ea4240b40f7d581ac802905f5b8181106115e357505050816115a1910382612b40565b604051918291602083019060208452518091526040830191905f5b8181106115ca575050500390f35b82518452859450602093840193909201916001016115bc565b825484526020909301926001928301920161158b565b346102b95761160736612943565b5f9160018054905b81811115806117ad575b1561166657805f52600260205260ff600560405f20015460501c16600481101561081d5715611651575b61164c90612b8c565b61160f565b9361165e61164c91612b8c565b949050611643565b508361167181612b9a565b61167e6040519182612b40565b818152601f1961168d83612b9a565b015f5b8181106117965750505f905f9260015b858111158061178d575b1561173c57805f52600260205260ff600560405f20015460501c16600481101561081d57156116e2575b6116dd90612b8c565b6116a0565b86851061172957806116dd915f52600260205261172060405f209561170f61170982612b8c565b97612c90565b6117198288613650565b5285613650565b505b90506116d4565b936117366116dd91612b8c565b94611722565b826040518091602082016020835281518091526020604084019201905f5b818110611768575050500390f35b9193509160206102408261177f6001948851612973565b01940191019184939261175a565b508184106116aa565b6020906117a1612c0e565b82828601015201611690565b50838510611619565b346102b95760203660031901126102b9576117cf6137d2565b600435600d55005b346102b95760403660031901126102b95760243560038110156102b9576118089061180061379a565b600435612ec0565b60015f5160206149815f395f51905f5255005b346102b95760203660031901126102b9576001600160a01b0361183c6128ae565b165f52600460205260e060405f206001815491015463ffffffff604051928181168452818160201c166020850152818160401c166040850152818160601c166060850152818160801c16608085015260a01c1660a083015260c0820152f35b346102b9576118a936612943565b906118b261379a565b600b54811015611a4257601054821015611a3357805f52601160205260405f20825f5260205260018060a01b0360405f2054163303611a2457805f52601360205260405f20825f5260205260ff60405f205416611a1557805f52601260205261191f8260405f20546137f8565b5f8281526013602090815260408083208684528252808320805460ff191660011790555163a9059cbb60e01b81523360048201526024810184905291829060449082907f00000000000000000000000000000000000000000000000000000000000000006001600160a01b03165af1801561040d576119de575b5060405192835260208301527f608c8c3c6a3d40f40b96fbee44f9b9aee57a39c2fcb8bb0f59d8892b2d5492a260403393a360015f5160206149815f395f51905f5255005b6020813d602011611a0d575b816119f760209383612b40565b810103126102b957611a0890612b62565b611999565b3d91506119ea565b630c8d9eab60e31b5f5260045ffd5b636ee783d160e11b5f5260045ffd5b6302ba562960e61b5f5260045ffd5b637221b37b60e01b5f5260045ffd5b346102b9575f3660031901126102b9576040517f00000000000000000000000000000000000000000000000000000000000000006001600160a01b03168152602090f35b346102b9575f3660031901126102b9576020600954604051908152f35b346102b9575f3660031901126102b957611aca6137d2565b5f80546001600160a01b0319811682556001600160a01b03167f8be0079c531659141344cd1fd0a4f28419497f9722a3daafe3b4186f6b6457e08280a3005b346102b95760203660031901126102b957611b22612c0e565b506004355f526002602052610240611b3c60405f20612c90565b611b496040518092612973565bf35b346102b9576020611b64611b5e36612943565b90612be8565b604051908152f35b346102b95760203660031901126102b9576004355f52600260205261024060405f2080549060018060a01b036001820154169060018060a01b036002820154166003820154600483015490600584015492600760068601549501549560405197885260208801526040870152606086015260808501528060010b60a08501528060101c60010b60c085015260ff8160201c1660e085015260ff8160281c1661010085015260ff8160301c1661012085015260ff8160381c16151561014085015260ff8160401c1661016085015260ff8160481c16610180850152611c5a6101a0850160ff8360501c16612959565b611c6e6101c0850160ff8360581c16612966565b60601c6101e0840152610200830152610220820152f35b346102b9575f3660031901126102b95760e0600954600b54611cac600c54600d5490612b6f565b60155460075490600e549260105494604051968752602087015260408601526060850152608084015260a083015260c0820152f35b346102b95760203660031901126102b957600435611cfd61379a565b5f81815260026020526040902060018101546001600160a01b03163303611e6d5760050160ff815460501c16600481101561081d5761080e57805460ff60501b1916600360501b179055335f9081526005602052604081205560075480611d97575b507fe10fd8c156678d18df7daf6dd3e15b95c6d350ee99272630fcad6dde9bef0d0c5f80a260015f5160206149815f395f51905f5255005b6020611dfa91611dd0612710611daf60085484612aad565b04611dc5611dbd8285612ade565b600954612ade565b600955600a54612ade565b600a5560405163a9059cbb60e01b8152336004820152602481019190915291829081906044820190565b03815f7f00000000000000000000000000000000000000000000000000000000000000006001600160a01b03165af1801561040d5715611d5f576020813d602011611e65575b81611e4d60209383612b40565b810103126102b957611e5e90612b62565b5081611d5f565b3d9150611e40565b634b400be560e11b5f5260045ffd5b346102b957611e8a36612943565b905f52600360205260405f2080548210156102b95760c091611eab9161292e565b50546040519060ff8116825260018060a01b038160081c166020830152611edb6040830160ff8360a81c166128f5565b61ffff8160b01c16606083015280831c60010b608083015260d01c60010b60a0820152f35b346102b95760203660031901126102b957600435600f548110156102b957611f29602091612902565b90549060031b1c604051908152f35b346102b9575f3660031901126102b9576020601054604051908152f35b346102b9575f3660031901126102b95760206040516107d08152f35b346102b9575f3660031901126102b957602060405160058152f35b346102b9575f3660031901126102b9576020600e54604051908152f35b346102b95760203660031901126102b9576001600160a01b03611fca6128ae565b165f526005602052602060405f2054604051908152f35b346102b9575f3660031901126102b9576020600154604051908152f35b346102b9575f3660031901126102b9576020601554604051908152f35b346102b9575f3660031901126102b957602060405160b48152f35b346102b9575f3660031901126102b9576020600854604051908152f35b346102b9575f3660031901126102b9576020611b64612bbe565b346102b9575f3660031901126102b9576020600a54604051908152f35b346102b95760203660031901126102b9576004355f52600360205260405f208054906120b582612b9a565b916120c36040519384612b40565b8083526020830180925f5260205f205f915b83831061216e578486604051918291602083019060208452518091526040830191905f5b818110612107575050500390f35b91935091602060c060019260a0875160ff81511683528580831b0385820151168584015261213d604082015160408501906128f5565b61ffff60608201511660608401526080810151860b60808401520151840b60a08201520194019101918493926120f9565b60016020819260405161218081612aeb565b855460ff81168252848060a01b038160081c16848301526121aa60ff8260a81c1660408401612bb2565b61ffff8160b01c1660608301528060c01c850b608083015260d01c840b60a08201528152019201920191906120d5565b346102b95760203660031901126102b95760043567ffffffffffffffff81116102b95761220b9036906004016128c4565b6122136137d2565b612222600c54600d5490612b6f565b421061236b57601054811161233357600b5491600954915f5b8181106122de5750835f5260126020528260405f20555f600955612260600b54612b8c565b600b5542600c5580604051936040850190855260406020860152526060830191905f905b8082106122b457857f60adcb75ee5c9fd534a467f9f54a34f58a8532f615c0deadb38f85eb32e814d086860387a2005b90919283359060018060a01b0382168092036102b957602081600193829352019401920190612284565b6122e9818385612b7c565b35906001600160a01b03821682036102b957600191865f52601160205260405f20825f5260205260405f2090838060a01b03166001600160601b0360a01b8254161790550161223b565b60405162461bcd60e51b815260206004820152601060248201526f546f6f206d616e7920706c617965727360801b6044820152606490fd5b63141189cf60e31b5f5260045ffd5b346102b95760203660031901126102b9576004356123966137d2565b6107d081116123a457600855005b6358d620b360e01b5f5260045ffd5b346102b95760203660031901126102b95760ff6123ce612888565b165f526006602052602060ff60405f205416604051908152f35b346102b95760203660031901126102b95760043561240461379a565b805f52600260205260405f206001810160018060a01b03815416331491600281019260018060a01b03845416331490159081612865575b50611e6d576005810190815460ff8160501c16600481101561081d576001036128565760ff60019160201c161161284757815460ff60501b1916600360501b178255426007919091015581546001600160a01b039081165f90815260056020526040812055835416308103612834575b506007549081612514575b8433817fa4262d2b40a2cee3044e9392c8668b69a5d135ea0ad29d0ad69caf59f0b95f595f80a37fe10fd8c156678d18df7daf6dd3e15b95c6d350ee99272630fcad6dde9bef0d0c5f80a260015f5160206149815f395f51905f5255005b61271061252360085484612aad565b049160ff6125318483612ade565b925460581c16600281101561081d576001036126135750612595935060209291611dc561256092600954612ade565b600a555460075460405163a9059cbb60e01b81526001600160a01b039092166004830152602482015291829081906044820190565b03815f7f00000000000000000000000000000000000000000000000000000000000000006001600160a01b03165af1801561040d576125da575b505b818080806124b6565b6020813d60201161260b575b816125f360209383612b40565b810103126102b95761260490612b62565b50816125cf565b3d91506125e6565b84546001600160a01b03168015159081612829575b501561279c57508060011b90808204600214901517156110875761264e90600954612ade565b6009558060011b90808204600214901517156110875761267090600a54612ade565b600a555460075460405163a9059cbb60e01b81526001600160a01b03928316600482015260248101919091527f0000000000000000000000000000000000000000000000000000000000000000909116906020816044815f865af1801561040d5761275a575b50905460075460405163a9059cbb60e01b81526001600160a01b0390921660048301526024820152906020908290815f81604481015b03925af1801561040d57612721575b506125d1565b6020813d602011612752575b8161273a60209383612b40565b810103126102b95761274b90612b62565b508161271b565b3d915061272d565b906020823d602011612794575b8161277460209383612b40565b810103126102b95761270c9261278b602093612b62565b509250906126d6565b3d9150612767565b916127ea94506127b590611dc560209593600954612ade565b600a555460405163a9059cbb60e01b81526001600160a01b039091166004820152602481019190915291829081906044820190565b03815f7f00000000000000000000000000000000000000000000000000000000000000006001600160a01b03165af1801561040d5761272157506125d1565b905030141587612628565b5f5260056020525f6040812055846124ab565b638acece1160e01b5f5260045ffd5b63792c967960e11b5f5260045ffd5b9050158561243b565b346102b9575f3660031901126102b9576020906007548152f35b6004359060ff821682036102b957565b602435906001600160a01b03821682036102b957565b600435906001600160a01b03821682036102b957565b9181601f840112156102b95782359167ffffffffffffffff83116102b9576020808501948460051b0101116102b957565b90600382101561081d5752565b600f5481101561291a57600f5f5260205f2001905f90565b634e487b7160e01b5f52603260045260245ffd5b805482101561291a575f5260205f2001905f90565b60409060031901126102b9576004359060243590565b90600482101561081d5752565b90600282101561081d5752565b61022080918051845260018060a01b03602082015116602085015260018060a01b036040820151166040850152606081015160608501526080810151608085015260a081015160010b60a085015260c081015160010b60c085015260ff60e08201511660e085015260ff6101008201511661010085015260ff61012082015116610120850152610140810151151561014085015260ff6101608201511661016085015260ff61018082015116610180850152612a396101a08201516101a0860190612959565b612a4d6101c08201516101c0860190612966565b6101e0818101516001600160a01b03169085015261020080820151908501520151910152565b90600481101561081d57815460ff60501b191660509190911b60ff60501b16179055565b9060968202918083046096149015171561108757565b8181029291811591840414171561108757565b8115612aca570490565b634e487b7160e01b5f52601260045260245ffd5b9190820391821161108757565b60c0810190811067ffffffffffffffff821117610abb57604052565b610240810190811067ffffffffffffffff821117610abb57604052565b60e0810190811067ffffffffffffffff821117610abb57604052565b90601f8019910116810190811067ffffffffffffffff821117610abb57604052565b519081151582036102b957565b9190820180921161108757565b919081101561291a5760051b0190565b5f1981146110875760010190565b67ffffffffffffffff8111610abb5760051b60200190565b600382101561081d5752565b612bcd600c54600d5490612b6f565b80421015612be357612be0904290612ade565b90565b505f90565b90601054811015612c0857612be0915f52601260205260405f20546137f8565b50505f90565b60405190612c1b82612b07565b5f610220838281528260208201528260408201528260608201528260808201528260a08201528260c08201528260e08201528261010082015282610120820152826101408201528261016082015282610180820152826101a0820152826101c0820152826101e0820152826102008201520152565b90604051612c9d81612b07565b80928054825260018060a01b03600182015416602083015260018060a01b03600282015416604083015260038101546060830152600481015460808301526005810154908160010b60a08401528160101c60010b60c084015260ff8260201c1660e084015260ff8260281c1661010084015260ff8260301c1661012084015260ff8260381c16151561014084015260ff8260401c1661016084015260ff8260481c1661018084015260ff8260501c16600481101561081d576101a084015260ff8260581c1690600282101561081d57610220926007926101c086015260601c6101e085015260068101546102008501520154910152565b8054600160401b811015610abb57612db19160018201815561292e565b919091612e7557805182546020830151610100600160a81b0360089190911b1660ff9092166001600160a81b0319821681178317855560408401519293929190600383101561081d576060840151608085015160a09095015160d01b61ffff60d01b1660c09590951b61ffff60c01b1661ffff60b01b60b09290921b9190911660ff60a81b60a89590951b949094166001600160c01b03199390931661ffff60b01b1992909216919091179490941763ffffffff60c01b1916171791909117179055565b634e487b7160e01b5f525f60045260245ffd5b916040919493612ea961ffff9260ff606087019816865260208601906128f5565b16910152565b60ff1660ff81146110875760010190565b805f52600260205260405f2090600582019283549060ff8260501c16600481101561081d5760018103612856576002146136415760018401546002850154336001600160a01b03928316811494929091161490831580613639575b611e6d5760ff8160581c16600281101561081d57156135f1575b5050600381101561081d57806134b557612f4f82856143a6565b821561348c57612f8b612f7061ffff831660010b885460101c60010b613896565b879081549060101b63ffff0000169063ffff00001916179055565b835f526003602052612fe960405f2087549060405191612faa83612aeb565b60ff8160201c168352336020840152612fc68660408501612bb2565b61ffff851660608401528060010b608084015260101c60010b60a0830152612d94565b855491847f4098e393a0e9d111279b0d880bb9ede47cc0304a549b3e044a2f8eace73a167f61302860ff8660201c169460405191829133968884612e88565b0390a35f8260010b1391821592613479575b50811561346d575b506134615783549060ff8260581c16600281101561081d576001149081613459575b506130fc575b505050805460ff8160581c16600281101561081d576130e95750805467ff00000000000000198116603891821c60ff161590911b60ff60381b1617815580549060ff8260381c166130ba575b5050565b6130cc60ff6130e79360201c16612eaf565b64ff0000000082549160201b169064ff000000001916179055565b565b906130cc60ff6130e79360201c16612eaf565b82546040516020810191825260ff60f81b8360d81b1660408201524260418201526a30b4afb232b1b4b9b4b7b760a91b6061820152604c8152613140606c82612b40565b5190209060ff8160301c16918215928315613437575b50606490069060101c60010b6003810560010b138061342d575b1561340957505060025b5f600382101561081d57816132e45761319381856143a6565b90156132bb576131cf6131b461ffff831660010b875460101c60010b613896565b869081549060101b63ffff0000169063ffff00001916179055565b90825f52600360205261322e60405f20865490604051916131ef83612aeb565b60ff8160201c16835230602084015261320b8560408501612bb2565b61ffff861660608401528060010b608084015260101c60010b60a0830152612d94565b8454927f4098e393a0e9d111279b0d880bb9ede47cc0304a549b3e044a2f8eace73a167f61326c60ff8660201c169460405191829130968884612e88565b0390a35f8260010b13918215926132a8575b50811561329c575b5061329257808061306a565b6130e791506138c8565b601e915010155f613286565b5f91925060101c60010b1315905f61327e565b6132d061ffff821660010b865460010b613896565b61ffff198654169061ffff161785556131cf565b600182036133da5780156133cd5760ff855460281c165b60ff8116151590816133af575b506133a0576133178185613e09565b9015613358576133386131b461ffff831660010b875460101c60010b613896565b845465ff000000000019811660089190911b60ff60281b161785556131cf565b61336d61ffff821660010b865460010b613896565b855460ff60301b61ffff19821661ffff9390931692831760101b1666ff00000000ffff19909116919091171785556131cf565b631bfa8cdd60e21b8152600490fd5b600391506133c560ff9182895460201c1661372b565b16105f613308565b60ff855460301c166132fb565b50600281036133fa57835460ff60481b1916600160491b1784555f6131cf565b6321e08b4d60e21b5f5260045ffd5b81613422575b501561341c57600161317a565b5f61317a565b60289150105f61340f565b50601e8110613170565b606491935060ff61344f600392828660201c1661372b565b1610159290613156565b90505f613064565b50506130e791506138c8565b601e915010155f613042565b5f91925060101c60010b1315905f61303a565b6134a161ffff821660010b875460010b613896565b61ffff198754169061ffff16178655612f8b565b600181036135ab57811561359e5760ff855460281c165b60ff811615159081613580575b50613571576134e88285613e09565b821561352957613509612f7061ffff831660010b885460101c60010b613896565b855465ff000000000019811660089190911b60ff60281b16178655612f8b565b61353e61ffff821660010b875460010b613896565b865460ff60301b61ffff19821661ffff9390931692831760101b1666ff00000000ffff1990911691909117178655612f8b565b631bfa8cdd60e21b5f5260045ffd5b6003915061359660ff9182895460201c1661372b565b16105f6134d9565b60ff855460301c166134cc565b600281036133fa5781156135db57845468ff00000000000000001916680200000000000000001785555b5f612f8b565b845460ff60481b1916600160491b1785556135d5565b838061362b575b61360e578161361d575b5061360e575f80612f35565b631cc191eb60e31b5f5260045ffd5b60ff915060381c165f613602565b5060ff8160381c16156135f8565b508115612f1b565b6306e1839960e11b5f5260045ffd5b805182101561291a5760209160051b010190565b519061ffff821682036102b957565b519060ff821682036102b957565b90816101009103126102b95760405190610100820182811067ffffffffffffffff821117610abb576137239160e0916040526136bc81613664565b84526136ca60208201613664565b60208501526136db60408201613664565b60408501526136ec60608201613664565b60608501526136fd60808201613673565b608085015261370e60a08201613673565b60a085015260c081015160c085015201612b62565b60e082015290565b9060ff8091169116039060ff821161108757565b5f52600260205261375260405f20612c90565b901561378c5760ff610100820151165b60ff8116156137855761377f60ff918260e060039501511661372b565b16101590565b5050600190565b60ff61012082015116613762565b60025f5160206149815f395f51905f5254146137c35760025f5160206149815f395f51905f5255565b633ee5aeb560e01b5f5260045ffd5b5f546001600160a01b031633036137e557565b63118cdaa760e01b5f523360045260245ffd5b90600f548082105f1461382757506127109161381661382392612902565b90549060031b1c90612aad565b0490565b90505f5f5b8281106138725750612710039061271082116110875761384e90601054612ade565b90811561386b5761386561271091612be094612aad565b04612ac0565b5050505f90565b9061388f60019161388284612902565b90549060031b1c90612b6f565b910161382c565b600191820b910b0390617fff198212617fff83131761108757565b63ffffffff1663ffffffff81146110875760010190565b60058101805460ff60501b1916600160511b17808255426007840155909190600181900b905f82131580613b06575b15613a1f5750506001600160601b03825416825560018060a01b036001820154165f52600460205261395860405f2061393963ffffffff825460401c166138b1565b63ffffffff60401b82549160401b169063ffffffff60401b1916179055565b60028101546001600160a01b03163081036139f8575b505b60018101546001600160a01b039081165f908152600560205260408120556002820154163081036139e5575b506139a8601554612b8c565b601555549054907f6ece8c7a0814e499368677abb88c44f55f86f4bdb83665cb2bbee15321ae78d860206040519360ff81831c16855260601c93a3565b5f5260056020525f60408120555f61399c565b5f526004602052613a1960405f2061393963ffffffff825460401c166138b1565b5f61396e565b60101c60010b5f811391821592613afc575b505015613a9a5760018101805483546001600160601b031660609190911b6001600160601b031916178355613a6f90546001600160a01b0316614804565b60028101546001600160a01b0316308103613a8b575b50613970565b613a949061491c565b5f613a85565b60028101805483546001600160601b031660609190911b6001600160601b031916178355546001600160a01b0316308103613aed575b506001810154613ae8906001600160a01b031661491c565b613970565b613af690614804565b5f613ad0565b1390505f80613a31565b505f8160101c60010b13156138f7565b6040516331a9108f60e11b8152600481018390527f00000000000000000000000000000000000000000000000000000000000000006001600160a01b03169291602082602481875afa91821561040d575f92613bf5575b506001600160a01b03908116911603613be65761010090602460405180948193636a24447f60e11b835260048301525afa801561040d5760e0915f91613bc7575b50015115613bb857565b630cc71c2960e11b5f5260045ffd5b613be091506101003d81116107c3576107b58183612b40565b5f613bae565b638f0f029b60e01b5f5260045ffd5b9091506020813d602011613c31575b81613c1160209383612b40565b810103126102b957516001600160a01b03811681036102b957905f613b6d565b3d9150613c04565b60075480156130b657604051636eb1769f60e11b81526001600160a01b0392831660048201819052306024830152927f0000000000000000000000000000000000000000000000000000000000000000169190602081604481865afa801561040d5782915f91613dc5575b5010613db6575f6020612710613cbc60085485612aad565b04936064613cca8686612ade565b9460405194859384926323b872dd60e01b84528a600485015230602485015260448401525af1801561040d57613d56575b50807f0662b8686f5a56f0acf339ed89dc0000ec2e51d0960e10ef41643917b660809092613d2d606093600954612b6f565b600955613d3c81600a54612b6f565b600a556007549160405192835260208301526040820152a2565b906020823d602011613dae575b81613d7060209383612b40565b810103126102b9577f0662b8686f5a56f0acf339ed89dc0000ec2e51d0960e10ef41643917b660809092613da5606093612b62565b50925090613cfb565b3d9150613d63565b6313be252b60e01b5f5260045ffd5b9150506020813d602011613df2575b81613de160209383612b40565b810103126102b9578190515f613ca4565b3d9150613dd4565b60ff168015611087575f190190565b90801561422c57600582015460ff8160581c16600281101561081d576001148080614224575b156140c65750825490604051906020820192835260ff60f81b9060d81b1660408201526261746b60e81b604182015260248152613e6d604482612b40565b51902090603c8206601e0180601e116110875761ffff1660ff6006603294061692600385015460405190636a24447f60e11b825260048201526101008160248160018060a01b037f0000000000000000000000000000000000000000000000000000000000000000165afa801561040d57608060ff9161ffff935f916140a7575b50015116925b16906064820291808304606414901517156110875761ffff166064018060641161108757613f2191612ac0565b60b481029080820460b4149015171561108757606460ff910493165f52600660205260ff8060405f205416911614614094575b8080614081575b1561401557600560159260011c93613f98828201613f7f60ff825460481c16613dfa565b60ff60481b82549160481b169060ff60481b1916179055565b01549060405190602082019242845260ff60f81b9060d81b166040830152151560f81b604182015260228152613fcf604282612b40565b51902006605a019081605a1161108757606491613feb91612aad565b046005811061400d575b61ffff811115614006575061ffff90565b61ffff1690565b506005613ff5565b80158061406e575b61402d575b600560159293613f98565b600560159260011c9361406582820161404c60ff825460401c16613dfa565b60ff60401b82549160401b169060ff60401b1916179055565b93925050614022565b5060ff600584015460401c16151561401d565b5060ff600584015460481c161515613f5b565b906140a0606491612a97565b0490613f54565b6140c091506101003d81116107c3576107b58183612b40565b5f613eee565b6003840154604051636a24447f60e11b815260048101919091529092917f00000000000000000000000000000000000000000000000000000000000000006001600160a01b031661010083602481845afa92831561040d575f93614203575b5060ff608061ffff85511694015116945f146141995750845490604051906020820192835260ff60f81b9060d81b166040820152623232b360e91b604182015260248152614174604482612b40565b51902060328106601e0180601e116110875760ff600661ffff80931693061692613ef4565b90506101006004860154602460405180948193636a24447f60e11b835260048301525afa90811561040d575f916141e4575b5061ffff60ff6080826020850151169301511692613ef4565b6141fd91506101003d81116107c3576107b58183612b40565b5f6141cb565b61421d9193506101003d81116107c3576107b58183612b40565b915f614125565b508215613e2f565b600582015460ff8160581c16600281101561081d5760010361431657825490604051906020820192835260ff60f81b9060d81b16604082015264616961746b60d81b604182015260268152614282604682612b40565b5190209060378206601e0180601e1161108757600661ffff60ff9216930616915b6003840154604051636a24447f60e11b81526004810191909152610100816024817f00000000000000000000000000000000000000000000000000000000000000006001600160a01b03165afa90811561040d575f916141e4575061ffff60ff6080826020850151169301511692613ef4565b50600482810154604051636a24447f60e11b81529182015290610100826024817f00000000000000000000000000000000000000000000000000000000000000006001600160a01b03165afa91821561040d575f92614385575b5060ff608061ffff84511693015116916142a3565b61439f9192506101003d81116107c3576107b58183612b40565b905f614370565b90801561468a57600582015460ff8160581c16600281101561081d576001148080614682575b156145245750825490604051906020820192835260ff60f81b9060d81b1660408201526261746b60e81b60418201526024815261440a604482612b40565b51902090603c8206601e0180601e116110875761ffff1660ff6006603294061692600385015460405190636a24447f60e11b825260048201526101008160248160018060a01b037f0000000000000000000000000000000000000000000000000000000000000000165afa801561040d57608060ff9161ffff935f91614505575b50015116925b16906064820291808304606414901517156110875761ffff1660640190816064116110875760ff916144c291612ac0565b93165f52600660205260ff8060405f205416911614614094578080614081571561401557600560159260011c93613f98828201613f7f60ff825460481c16613dfa565b61451e91506101003d81116107c3576107b58183612b40565b5f61448b565b6003840154604051636a24447f60e11b815260048101919091529092917f00000000000000000000000000000000000000000000000000000000000000006001600160a01b031661010083602481845afa92831561040d575f93614661575b5060ff608061ffff85511694015116945f146145f75750845490604051906020820192835260ff60f81b9060d81b166040820152623232b360e91b6041820152602481526145d2604482612b40565b51902060328106601e0180601e116110875760ff600661ffff80931693061692614491565b90506101006004860154602460405180948193636a24447f60e11b835260048301525afa90811561040d575f91614642575b5061ffff60ff6080826020850151169301511692614491565b61465b91506101003d81116107c3576107b58183612b40565b5f614629565b61467b9193506101003d81116107c3576107b58183612b40565b915f614583565b5082156143cc565b600582015460ff8160581c16600281101561081d5760010361477457825490604051906020820192835260ff60f81b9060d81b16604082015264616961746b60d81b6041820152602681526146e0604682612b40565b5190209060378206601e0180601e1161108757600661ffff60ff9216930616915b6003840154604051636a24447f60e11b81526004810191909152610100816024817f00000000000000000000000000000000000000000000000000000000000000006001600160a01b03165afa90811561040d575f91614642575061ffff60ff6080826020850151169301511692614491565b50600482810154604051636a24447f60e11b81529182015290610100826024817f00000000000000000000000000000000000000000000000000000000000000006001600160a01b03165afa91821561040d575f926147e3575b5060ff608061ffff8451169301511691614701565b6147fd9192506101003d81116107c3576107b58183612b40565b905f6147ce565b60018060a01b0381165f52600460205260405f2063ffffffff614829818354166138b1565b1663ffffffff1982541617815561486c61484c63ffffffff835460601c166138b1565b825463ffffffff60601b191660609190911b63ffffffff60601b16178255565b61487f63ffffffff825460801c166138b1565b815463ffffffff60801b1916608091821b63ffffffff60801b16178083559060a082901c63ffffffff9081169183901c16116148f8575b5050600b545f52601460205260405f209060018060a01b03165f5260205260405f2063ffffffff6148e9818354166138b1565b1663ffffffff19825416179055565b63ffffffff60a01b19811660209190911b63ffffffff60a01b161790555f806148b6565b60018060a01b03165f52600460205260405f2061497061484c63ffffffff835467ffffffff00000000614953838360201c166138b1565b60201b169067ffffffff0000000019161780855560601c166138b1565b805463ffffffff60801b1916905556fe9b779b17422d0df92223018b32b4d1fa46e071723d6817e2486d003becc55f00a2646970667358221220603c6de6f64b69dbe32229a973e1c24a80bec3539f99fbc9deeaeae439c5b0e564736f6c634300081c0033",
  "linkReferences": {},
  "deployedLinkReferences": {},
  "immutableReferences": {
    "496": [
      {
        "length": 32,
        "start": 1612
      },
      {
        "length": 32,
        "start": 3317
      },
      {
        "length": 32,
        "start": 4358
      },
      {
        "length": 32,
        "start": 4498
      },
      {
        "length": 32,
        "start": 15148
      },
      {
        "length": 32,
        "start": 16054
      },
      {
        "length": 32,
        "start": 16613
      },
      {
        "length": 32,
        "start": 17094
      },
      {
        "length": 32,
        "start": 17208
      },
      {
        "length": 32,
        "start": 17491
      },
      {
        "length": 32,
        "start": 17731
      },
      {
        "length": 32,
        "start": 18212
      },
      {
        "length": 32,
        "start": 18326
      }
    ],
    "499": [
      {
        "length": 32,
        "start": 931
      },
      {
        "length": 32,
        "start": 1226
      },
      {
        "length": 32,
        "start": 6500
      },
      {
        "length": 32,
        "start": 6758
      },
      {
        "length": 32,
        "start": 7679
      },
      {
        "length": 32,
        "start": 9626
      },
      {
        "length": 32,
        "start": 9886
      },
      {
        "length": 32,
        "start": 10223
      },
      {
        "length": 32,
        "start": 15466
      }
    ]
  },
  "inputSourceName": "project/contracts/BattleArena.sol",
  "buildInfoId": "solc-0_8_28-19958964da9c52c7e769ab7371b8c0663a6a6b06"
}