{
  "_format": "hh3-artifact-1",
  "contractName": "BattleArena",
  "sourceName": "contracts/BattleArena.sol",
  "abi": [
    {
      "inputs": [
        {
          "internalType": "address",
          "name": "_whaleCards",
          "type": "address"
        },
        {
          "internalType": "address",
          "name": "_pathUSD",
          "type": "address"
        }
      ],
      "stateMutability": "nonpayable",
      "type": "constructor"
    },
    {
      "inputs": [],
      "name": "AbilityOnCooldown",
      "type": "error"
    },
    {
      "inputs": [],
      "name": "AlreadyClaimed",
      "type": "error"
    },
    {
      "inputs": [],
      "name": "AlreadyInBattle",
      "type": "error"
    },
    {
      "inputs": [],
      "name": "AlreadySwept",
      "type": "error"
    },
    {
      "inputs": [],
      "name": "BattleAlreadyFinished",
      "type": "error"
    },
    {
      "inputs": [],
      "name": "BattleNotActive",
      "type": "error"
    },
    {
      "inputs": [],
      "name": "BattleNotOpen",
      "type": "error"
    },
    {
      "inputs": [],
      "name": "CannotFightYourself",
      "type": "error"
    },
    {
      "inputs": [],
      "name": "CardStatsNotSet",
      "type": "error"
    },
    {
      "inputs": [],
      "name": "ClaimWindowStillOpen",
      "type": "error"
    },
    {
      "inputs": [],
      "name": "DuplicateRankedPlayer",
      "type": "error"
    },
    {
      "inputs": [],
      "name": "ForfeitNotAllowed",
      "type": "error"
    },
    {
      "inputs": [],
      "name": "InactivityNotReached",
      "type": "error"
    },
    {
      "inputs": [],
      "name": "InsufficientAllowance",
      "type": "error"
    },
    {
      "inputs": [],
      "name": "InvalidFee",
      "type": "error"
    },
    {
      "inputs": [],
      "name": "InvalidMove",
      "type": "error"
    },
    {
      "inputs": [],
      "name": "InvalidMultiplier",
      "type": "error"
    },
    {
      "inputs": [],
      "name": "InvalidRank",
      "type": "error"
    },
    {
      "inputs": [],
      "name": "NotBattleParticipant",
      "type": "error"
    },
    {
      "inputs": [],
      "name": "NotCardOwner",
      "type": "error"
    },
    {
      "inputs": [],
      "name": "NotOpponent",
      "type": "error"
    },
    {
      "inputs": [],
      "name": "NotRankedPlayer",
      "type": "error"
    },
    {
      "inputs": [],
      "name": "NotYourTurn",
      "type": "error"
    },
    {
      "inputs": [],
      "name": "NothingToWithdraw",
      "type": "error"
    },
    {
      "inputs": [
        {
          "internalType": "address",
          "name": "owner",
          "type": "address"
        }
      ],
      "name": "OwnableInvalidOwner",
      "type": "error"
    },
    {
      "inputs": [
        {
          "internalType": "address",
          "name": "account",
          "type": "address"
        }
      ],
      "name": "OwnableUnauthorizedAccount",
      "type": "error"
    },
    {
      "inputs": [],
      "name": "ReentrancyGuardReentrantCall",
      "type": "error"
    },
    {
      "inputs": [],
      "name": "SeasonNotEnded",
      "type": "error"
    },
    {
      "inputs": [],
      "name": "SeasonStillActive",
      "type": "error"
    },
    {
      "inputs": [],
      "name": "SharesMustLeavRemainder",
      "type": "error"
    },
    {
      "inputs": [],
      "name": "SharesMustSumTo10000",
      "type": "error"
    },
    {
      "inputs": [],
      "name": "TooManyPlayers",
      "type": "error"
    },
    {
      "inputs": [],
      "name": "TooManyRewardedPlayers",
      "type": "error"
    },
    {
      "inputs": [],
      "name": "TopTierExceedsTotal",
      "type": "error"
    },
    {
      "anonymous": false,
      "inputs": [
        {
          "indexed": true,
          "internalType": "uint256",
          "name": "battleId",
          "type": "uint256"
        },
        {
          "indexed": true,
          "internalType": "address",
          "name": "abandoner",
          "type": "address"
        }
      ],
      "name": "BattleAbandoned",
      "type": "event"
    },
    {
      "anonymous": false,
      "inputs": [
        {
          "indexed": true,
          "internalType": "uint256",
          "name": "battleId",
          "type": "uint256"
        }
      ],
      "name": "BattleCancelled",
      "type": "event"
    },
    {
      "anonymous": false,
      "inputs": [
        {
          "indexed": true,
          "internalType": "uint256",
          "name": "battleId",
          "type": "uint256"
        },
        {
          "indexed": true,
          "internalType": "address",
          "name": "player1",
          "type": "address"
        },
        {
          "indexed": false,
          "internalType": "uint256",
          "name": "card1",
          "type": "uint256"
        },
        {
          "indexed": false,
          "internalType": "enum BattleArena.BattleMode",
          "name": "mode",
          "type": "uint8"
        }
      ],
      "name": "BattleCreated",
      "type": "event"
    },
    {
      "anonymous": false,
      "inputs": [
        {
          "indexed": true,
          "internalType": "uint256",
          "name": "battleId",
          "type": "uint256"
        },
        {
          "indexed": true,
          "internalType": "address",
          "name": "player1",
          "type": "address"
        },
        {
          "indexed": true,
          "internalType": "address",
          "name": "player2",
          "type": "address"
        },
        {
          "indexed": false,
          "internalType": "uint256",
          "name": "refundEach",
          "type": "uint256"
        }
      ],
      "name": "BattleDraw",
      "type": "event"
    },
    {
      "anonymous": false,
      "inputs": [
        {
          "indexed": true,
          "internalType": "uint256",
          "name": "battleId",
          "type": "uint256"
        },
        {
          "indexed": true,
          "internalType": "address",
          "name": "winner",
          "type": "address"
        },
        {
          "indexed": false,
          "internalType": "uint8",
          "name": "totalTurns",
          "type": "uint8"
        }
      ],
      "name": "BattleFinished",
      "type": "event"
    },
    {
      "anonymous": false,
      "inputs": [
        {
          "indexed": true,
          "internalType": "uint256",
          "name": "battleId",
          "type": "uint256"
        },
        {
          "indexed": true,
          "internalType": "address",
          "name": "forfeiter",
          "type": "address"
        }
      ],
      "name": "BattleForfeited",
      "type": "event"
    },
    {
      "anonymous": false,
      "inputs": [
        {
          "indexed": true,
          "internalType": "uint256",
          "name": "battleId",
          "type": "uint256"
        },
        {
          "indexed": true,
          "internalType": "address",
          "name": "player2",
          "type": "address"
        },
        {
          "indexed": false,
          "internalType": "uint256",
          "name": "card2",
          "type": "uint256"
        }
      ],
      "name": "BattleJoined",
      "type": "event"
    },
    {
      "anonymous": false,
      "inputs": [
        {
          "indexed": true,
          "internalType": "uint256",
          "name": "battleId",
          "type": "uint256"
        },
        {
          "indexed": false,
          "internalType": "uint8",
          "name": "turn",
          "type": "uint8"
        },
        {
          "indexed": true,
          "internalType": "address",
          "name": "player",
          "type": "address"
        },
        {
          "indexed": false,
          "internalType": "enum BattleArena.MoveType",
          "name": "move",
          "type": "uint8"
        },
        {
          "indexed": false,
          "internalType": "uint16",
          "name": "damage",
          "type": "uint16"
        }
      ],
      "name": "BattleMove",
      "type": "event"
    },
    {
      "anonymous": false,
      "inputs": [
        {
          "indexed": false,
          "internalType": "uint256",
          "name": "oldWindow",
          "type": "uint256"
        },
        {
          "indexed": false,
          "internalType": "uint256",
          "name": "newWindow",
          "type": "uint256"
        }
      ],
      "name": "ClaimWindowUpdated",
      "type": "event"
    },
    {
      "anonymous": false,
      "inputs": [
        {
          "indexed": true,
          "internalType": "address",
          "name": "to",
          "type": "address"
        },
        {
          "indexed": false,
          "internalType": "uint256",
          "name": "amount",
          "type": "uint256"
        }
      ],
      "name": "EmergencyWithdraw",
      "type": "event"
    },
    {
      "anonymous": false,
      "inputs": [
        {
          "indexed": true,
          "internalType": "address",
          "name": "player",
          "type": "address"
        },
        {
          "indexed": false,
          "internalType": "uint256",
          "name": "amount",
          "type": "uint256"
        },
        {
          "indexed": false,
          "internalType": "uint256",
          "name": "toPool",
          "type": "uint256"
        },
        {
          "indexed": false,
          "internalType": "uint256",
          "name": "toPlatform",
          "type": "uint256"
        }
      ],
      "name": "EntryFeePaid",
      "type": "event"
    },
    {
      "anonymous": false,
      "inputs": [
        {
          "indexed": false,
          "internalType": "uint256",
          "name": "oldFee",
          "type": "uint256"
        },
        {
          "indexed": false,
          "internalType": "uint256",
          "name": "newFee",
          "type": "uint256"
        }
      ],
      "name": "EntryFeeUpdated",
      "type": "event"
    },
    {
      "anonymous": false,
      "inputs": [
        {
          "indexed": true,
          "internalType": "uint256",
          "name": "battleId",
          "type": "uint256"
        },
        {
          "indexed": true,
          "internalType": "address",
          "name": "claimant",
          "type": "address"
        },
        {
          "indexed": true,
          "internalType": "address",
          "name": "inactive",
          "type": "address"
        }
      ],
      "name": "InactivityClaimed",
      "type": "event"
    },
    {
      "anonymous": false,
      "inputs": [
        {
          "indexed": false,
          "internalType": "uint256",
          "name": "oldTimeout",
          "type": "uint256"
        },
        {
          "indexed": false,
          "internalType": "uint256",
          "name": "newTimeout",
          "type": "uint256"
        }
      ],
      "name": "InactivityTimeoutUpdated",
      "type": "event"
    },
    {
      "anonymous": false,
      "inputs": [
        {
          "indexed": false,
          "internalType": "uint256",
          "name": "oldFee",
          "type": "uint256"
        },
        {
          "indexed": false,
          "internalType": "uint256",
          "name": "newFee",
          "type": "uint256"
        }
      ],
      "name": "MultiplierFeeUpdated",
      "type": "event"
    },
    {
      "anonymous": false,
      "inputs": [
        {
          "indexed": true,
          "internalType": "address",
          "name": "previousOwner",
          "type": "address"
        },
        {
          "indexed": true,
          "internalType": "address",
          "name": "newOwner",
          "type": "address"
        }
      ],
      "name": "OwnershipTransferred",
      "type": "event"
    },
    {
      "anonymous": false,
      "inputs": [
        {
          "indexed": true,
          "internalType": "uint256",
          "name": "season",
          "type": "uint256"
        },
        {
          "indexed": true,
          "internalType": "uint256",
          "name": "rank",
          "type": "uint256"
        },
        {
          "indexed": true,
          "internalType": "address",
          "name": "player",
          "type": "address"
        }
      ],
      "name": "PlayerRanked",
      "type": "event"
    },
    {
      "anonymous": false,
      "inputs": [
        {
          "indexed": true,
          "internalType": "uint256",
          "name": "season",
          "type": "uint256"
        },
        {
          "indexed": false,
          "internalType": "uint256",
          "name": "rank",
          "type": "uint256"
        },
        {
          "indexed": true,
          "internalType": "address",
          "name": "player",
          "type": "address"
        },
        {
          "indexed": false,
          "internalType": "uint256",
          "name": "amount",
          "type": "uint256"
        }
      ],
      "name": "PrizeClaimed",
      "type": "event"
    },
    {
      "anonymous": false,
      "inputs": [
        {
          "indexed": true,
          "internalType": "address",
          "name": "to",
          "type": "address"
        },
        {
          "indexed": false,
          "internalType": "uint256",
          "name": "amount",
          "type": "uint256"
        }
      ],
      "name": "PrizePoolCleared",
      "type": "event"
    },
    {
      "anonymous": false,
      "inputs": [
        {
          "indexed": true,
          "internalType": "uint256",
          "name": "season",
          "type": "uint256"
        },
        {
          "indexed": false,
          "internalType": "uint256",
          "name": "prizePool",
          "type": "uint256"
        },
        {
          "indexed": false,
          "internalType": "uint256",
          "name": "playerCount",
          "type": "uint256"
        }
      ],
      "name": "SeasonEnded",
      "type": "event"
    },
    {
      "anonymous": false,
      "inputs": [
        {
          "indexed": true,
          "internalType": "uint256",
          "name": "season",
          "type": "uint256"
        },
        {
          "indexed": false,
          "internalType": "uint256",
          "name": "amount",
          "type": "uint256"
        }
      ],
      "name": "UnclaimedSwept",
      "type": "event"
    },
    {
      "inputs": [],
      "name": "ABILITY_COOLDOWN",
      "outputs": [
        {
          "internalType": "uint16",
          "name": "",
          "type": "uint16"
        }
      ],
      "stateMutability": "view",
      "type": "function"
    },
    {
      "inputs": [],
      "name": "ABILITY_POWER_MULTIPLIER",
      "outputs": [
        {
          "internalType": "uint16",
          "name": "",
          "type": "uint16"
        }
      ],
      "stateMutability": "view",
      "type": "function"
    },
    {
      "inputs": [],
      "name": "BASE_DAMAGE_MIN",
      "outputs": [
        {
          "internalType": "uint16",
          "name": "",
          "type": "uint16"
        }
      ],
      "stateMutability": "view",
      "type": "function"
    },
    {
      "inputs": [],
      "name": "ELEMENT_BONUS",
      "outputs": [
        {
          "internalType": "uint16",
          "name": "",
          "type": "uint16"
        }
      ],
      "stateMutability": "view",
      "type": "function"
    },
    {
      "inputs": [],
      "name": "MAX_MULTIPLIER",
      "outputs": [
        {
          "internalType": "uint256",
          "name": "",
          "type": "uint256"
        }
      ],
      "stateMutability": "view",
      "type": "function"
    },
    {
      "inputs": [],
      "name": "MAX_PLATFORM_FEE",
      "outputs": [
        {
          "internalType": "uint256",
          "name": "",
          "type": "uint256"
        }
      ],
      "stateMutability": "view",
      "type": "function"
    },
    {
      "inputs": [],
      "name": "MAX_TURNS",
      "outputs": [
        {
          "internalType": "uint8",
          "name": "",
          "type": "uint8"
        }
      ],
      "stateMutability": "view",
      "type": "function"
    },
    {
      "inputs": [
        {
          "internalType": "uint256",
          "name": "battleId",
          "type": "uint256"
        }
      ],
      "name": "abandonBattle",
      "outputs": [],
      "stateMutability": "nonpayable",
      "type": "function"
    },
    {
      "inputs": [
        {
          "internalType": "address",
          "name": "",
          "type": "address"
        }
      ],
      "name": "activeBattle",
      "outputs": [
        {
          "internalType": "uint256",
          "name": "",
          "type": "uint256"
        }
      ],
      "stateMutability": "view",
      "type": "function"
    },
    {
      "inputs": [
        {
          "internalType": "uint256",
          "name": "",
          "type": "uint256"
        },
        {
          "internalType": "uint256",
          "name": "",
          "type": "uint256"
        }
      ],
      "name": "battleLogs",
      "outputs": [
        {
          "internalType": "uint8",
          "name": "turn",
          "type": "uint8"
        },
        {
          "internalType": "address",
          "name": "player",
          "type": "address"
        },
        {
          "internalType": "enum BattleArena.MoveType",
          "name": "move",
          "type": "uint8"
        },
        {
          "internalType": "uint16",
          "name": "damage",
          "type": "uint16"
        },
        {
          "internalType": "int16",
          "name": "hp1After",
          "type": "int16"
        },
        {
          "internalType": "int16",
          "name": "hp2After",
          "type": "int16"
        }
      ],
      "stateMutability": "view",
      "type": "function"
    },
    {
      "inputs": [
        {
          "internalType": "uint256",
          "name": "",
          "type": "uint256"
        }
      ],
      "name": "battles",
      "outputs": [
        {
          "internalType": "uint256",
          "name": "battleId",
          "type": "uint256"
        },
        {
          "internalType": "address",
          "name": "player1",
          "type": "address"
        },
        {
          "internalType": "address",
          "name": "player2",
          "type": "address"
        },
        {
          "internalType": "uint256",
          "name": "card1",
          "type": "uint256"
        },
        {
          "internalType": "uint256",
          "name": "card2",
          "type": "uint256"
        },
        {
          "internalType": "int16",
          "name": "hp1",
          "type": "int16"
        },
        {
          "internalType": "int16",
          "name": "hp2",
          "type": "int16"
        },
        {
          "internalType": "uint8",
          "name": "turn",
          "type": "uint8"
        },
        {
          "internalType": "uint8",
          "name": "lastAbility1",
          "type": "uint8"
        },
        {
          "internalType": "uint8",
          "name": "lastAbility2",
          "type": "uint8"
        },
        {
          "internalType": "bool",
          "name": "isPlayer1Turn",
          "type": "bool"
        },
        {
          "internalType": "uint8",
          "name": "defenseBoost1",
          "type": "uint8"
        },
        {
          "internalType": "uint8",
          "name": "defenseBoost2",
          "type": "uint8"
        },
        {
          "internalType": "enum BattleArena.BattleStatus",
          "name": "status",
          "type": "uint8"
        },
        {
          "internalType": "enum BattleArena.BattleMode",
          "name": "mode",
          "type": "uint8"
        },
        {
          "internalType": "address",
          "name": "winner",
          "type": "address"
        },
        {
          "internalType": "uint256",
          "name": "createdAt",
          "type": "uint256"
        },
        {
          "internalType": "uint256",
          "name": "finishedAt",
          "type": "uint256"
        },
        {
          "internalType": "uint256",
          "name": "lastMoveAt",
          "type": "uint256"
        },
        {
          "internalType": "uint32",
          "name": "multiplier",
          "type": "uint32"
        }
      ],
      "stateMutability": "view",
      "type": "function"
    },
    {
      "inputs": [
        {
          "internalType": "uint256",
          "name": "battleId",
          "type": "uint256"
        },
        {
          "internalType": "bool",
          "name": "isPlayer1",
          "type": "bool"
        }
      ],
      "name": "canUseAbility",
      "outputs": [
        {
          "internalType": "bool",
          "name": "",
          "type": "bool"
        }
      ],
      "stateMutability": "view",
      "type": "function"
    },
    {
      "inputs": [
        {
          "internalType": "uint256",
          "name": "battleId",
          "type": "uint256"
        }
      ],
      "name": "cancelBattle",
      "outputs": [],
      "stateMutability": "nonpayable",
      "type": "function"
    },
    {
      "inputs": [
        {
          "internalType": "uint256",
          "name": "battleId",
          "type": "uint256"
        }
      ],
      "name": "claimInactivityWin",
      "outputs": [],
      "stateMutability": "nonpayable",
      "type": "function"
    },
    {
      "inputs": [
        {
          "internalType": "uint256",
          "name": "season",
          "type": "uint256"
        },
        {
          "internalType": "uint256",
          "name": "rank",
          "type": "uint256"
        }
      ],
      "name": "claimPrize",
      "outputs": [],
      "stateMutability": "nonpayable",
      "type": "function"
    },
    {
      "inputs": [
        {
          "internalType": "uint256",
          "name": "season",
          "type": "uint256"
        }
      ],
      "name": "claimTimeRemaining",
      "outputs": [
        {
          "internalType": "uint256",
          "name": "",
          "type": "uint256"
        }
      ],
      "stateMutability": "view",
      "type": "function"
    },
    {
      "inputs": [],
      "name": "claimWindow",
      "outputs": [
        {
          "internalType": "uint256",
          "name": "",
          "type": "uint256"
        }
      ],
      "stateMutability": "view",
      "type": "function"
    },
    {
      "inputs": [
        {
          "internalType": "address",
          "name": "to",
          "type": "address"
        }
      ],
      "name": "clearPrizePool",
      "outputs": [],
      "stateMutability": "nonpayable",
      "type": "function"
    },
    {
      "inputs": [
        {
          "internalType": "uint256",
          "name": "cardId",
          "type": "uint256"
        },
        {
          "internalType": "uint32",
          "name": "multiplier",
          "type": "uint32"
        }
      ],
      "name": "createAIBattle",
      "outputs": [
        {
          "internalType": "uint256",
          "name": "",
          "type": "uint256"
        }
      ],
      "stateMutability": "nonpayable",
      "type": "function"
    },
    {
      "inputs": [
        {
          "internalType": "uint256",
          "name": "cardId",
          "type": "uint256"
        },
        {
          "internalType": "uint32",
          "name": "multiplier",
          "type": "uint32"
        }
      ],
      "name": "createBattle",
      "outputs": [
        {
          "internalType": "uint256",
          "name": "",
          "type": "uint256"
        }
      ],
      "stateMutability": "nonpayable",
      "type": "function"
    },
    {
      "inputs": [],
      "name": "currentSeason",
      "outputs": [
        {
          "internalType": "uint256",
          "name": "",
          "type": "uint256"
        }
      ],
      "stateMutability": "view",
      "type": "function"
    },
    {
      "inputs": [
        {
          "internalType": "uint8",
          "name": "",
          "type": "uint8"
        }
      ],
      "name": "elementAdvantage",
      "outputs": [
        {
          "internalType": "uint8",
          "name": "",
          "type": "uint8"
        }
      ],
      "stateMutability": "view",
      "type": "function"
    },
    {
      "inputs": [
        {
          "internalType": "address[]",
          "name": "rankedPlayers",
          "type": "address[]"
        }
      ],
      "name": "endSeason",
      "outputs": [],
      "stateMutability": "nonpayable",
      "type": "function"
    },
    {
      "inputs": [],
      "name": "entryFee",
      "outputs": [
        {
          "internalType": "uint256",
          "name": "",
          "type": "uint256"
        }
      ],
      "stateMutability": "view",
      "type": "function"
    },
    {
      "inputs": [
        {
          "internalType": "uint256",
          "name": "battleId",
          "type": "uint256"
        }
      ],
      "name": "forfeitBattle",
      "outputs": [],
      "stateMutability": "nonpayable",
      "type": "function"
    },
    {
      "inputs": [
        {
          "internalType": "uint256",
          "name": "battleId",
          "type": "uint256"
        }
      ],
      "name": "getBattle",
      "outputs": [
        {
          "components": [
            {
              "internalType": "uint256",
              "name": "battleId",
              "type": "uint256"
            },
            {
              "internalType": "address",
              "name": "player1",
              "type": "address"
            },
            {
              "internalType": "address",
              "name": "player2",
              "type": "address"
            },
            {
              "internalType": "uint256",
              "name": "card1",
              "type": "uint256"
            },
            {
              "internalType": "uint256",
              "name": "card2",
              "type": "uint256"
            },
            {
              "internalType": "int16",
              "name": "hp1",
              "type": "int16"
            },
            {
              "internalType": "int16",
              "name": "hp2",
              "type": "int16"
            },
            {
              "internalType": "uint8",
              "name": "turn",
              "type": "uint8"
            },
            {
              "internalType": "uint8",
              "name": "lastAbility1",
              "type": "uint8"
            },
            {
              "internalType": "uint8",
              "name": "lastAbility2",
              "type": "uint8"
            },
            {
              "internalType": "bool",
              "name": "isPlayer1Turn",
              "type": "bool"
            },
            {
              "internalType": "uint8",
              "name": "defenseBoost1",
              "type": "uint8"
            },
            {
              "internalType": "uint8",
              "name": "defenseBoost2",
              "type": "uint8"
            },
            {
              "internalType": "enum BattleArena.BattleStatus",
              "name": "status",
              "type": "uint8"
            },
            {
              "internalType": "enum BattleArena.BattleMode",
              "name": "mode",
              "type": "uint8"
            },
            {
              "internalType": "address",
              "name": "winner",
              "type": "address"
            },
            {
              "internalType": "uint256",
              "name": "createdAt",
              "type": "uint256"
            },
            {
              "internalType": "uint256",
              "name": "finishedAt",
              "type": "uint256"
            },
            {
              "internalType": "uint256",
              "name": "lastMoveAt",
              "type": "uint256"
            },
            {
              "internalType": "uint32",
              "name": "multiplier",
              "type": "uint32"
            }
          ],
          "internalType": "struct BattleArena.Battle",
          "name": "",
          "type": "tuple"
        }
      ],
      "stateMutability": "view",
      "type": "function"
    },
    {
      "inputs": [
        {
          "internalType": "uint256",
          "name": "battleId",
          "type": "uint256"
        }
      ],
      "name": "getBattleLog",
      "outputs": [
        {
          "components": [
            {
              "internalType": "uint8",
              "name": "turn",
              "type": "uint8"
            },
            {
              "internalType": "address",
              "name": "player",
              "type": "address"
            },
            {
              "internalType": "enum BattleArena.MoveType",
              "name": "move",
              "type": "uint8"
            },
            {
              "internalType": "uint16",
              "name": "damage",
              "type": "uint16"
            },
            {
              "internalType": "int16",
              "name": "hp1After",
              "type": "int16"
            },
            {
              "internalType": "int16",
              "name": "hp2After",
              "type": "int16"
            }
          ],
          "internalType": "struct BattleArena.BattleLog[]",
          "name": "",
          "type": "tuple[]"
        }
      ],
      "stateMutability": "view",
      "type": "function"
    },
    {
      "inputs": [
        {
          "internalType": "uint256",
          "name": "offset",
          "type": "uint256"
        },
        {
          "internalType": "uint256",
          "name": "limit",
          "type": "uint256"
        }
      ],
      "name": "getOpenBattles",
      "outputs": [
        {
          "components": [
            {
              "internalType": "uint256",
              "name": "battleId",
              "type": "uint256"
            },
            {
              "internalType": "address",
              "name": "player1",
              "type": "address"
            },
            {
              "internalType": "address",
              "name": "player2",
              "type": "address"
            },
            {
              "internalType": "uint256",
              "name": "card1",
              "type": "uint256"
            },
            {
              "internalType": "uint256",
              "name": "card2",
              "type": "uint256"
            },
            {
              "internalType": "int16",
              "name": "hp1",
              "type": "int16"
            },
            {
              "internalType": "int16",
              "name": "hp2",
              "type": "int16"
            },
            {
              "internalType": "uint8",
              "name": "turn",
              "type": "uint8"
            },
            {
              "internalType": "uint8",
              "name": "lastAbility1",
              "type": "uint8"
            },
            {
              "internalType": "uint8",
              "name": "lastAbility2",
              "type": "uint8"
            },
            {
              "internalType": "bool",
              "name": "isPlayer1Turn",
              "type": "bool"
            },
            {
              "internalType": "uint8",
              "name": "defenseBoost1",
              "type": "uint8"
            },
            {
              "internalType": "uint8",
              "name": "defenseBoost2",
              "type": "uint8"
            },
            {
              "internalType": "enum BattleArena.BattleStatus",
              "name": "status",
              "type": "uint8"
            },
            {
              "internalType": "enum BattleArena.BattleMode",
              "name": "mode",
              "type": "uint8"
            },
            {
              "internalType": "address",
              "name": "winner",
              "type": "address"
            },
            {
              "internalType": "uint256",
              "name": "createdAt",
              "type": "uint256"
            },
            {
              "internalType": "uint256",
              "name": "finishedAt",
              "type": "uint256"
            },
            {
              "internalType": "uint256",
              "name": "lastMoveAt",
              "type": "uint256"
            },
            {
              "internalType": "uint32",
              "name": "multiplier",
              "type": "uint32"
            }
          ],
          "internalType": "struct BattleArena.Battle[]",
          "name": "",
          "type": "tuple[]"
        }
      ],
      "stateMutability": "view",
      "type": "function"
    },
    {
      "inputs": [
        {
          "internalType": "address",
          "name": "player",
          "type": "address"
        }
      ],
      "name": "getPlayerRecord",
      "outputs": [
        {
          "components": [
            {
              "internalType": "uint32",
              "name": "wins",
              "type": "uint32"
            },
            {
              "internalType": "uint32",
              "name": "losses",
              "type": "uint32"
            },
            {
              "internalType": "uint32",
              "name": "draws",
              "type": "uint32"
            },
            {
              "internalType": "uint32",
              "name": "totalBattles",
              "type": "uint32"
            },
            {
              "internalType": "uint32",
              "name": "winStreak",
              "type": "uint32"
            },
            {
              "internalType": "uint32",
              "name": "bestStreak",
              "type": "uint32"
            },
            {
              "internalType": "uint256",
              "name": "totalDamageDealt",
              "type": "uint256"
            }
          ],
          "internalType": "struct BattleArena.PlayerRecord",
          "name": "",
          "type": "tuple"
        }
      ],
      "stateMutability": "view",
      "type": "function"
    },
    {
      "inputs": [],
      "name": "getPoolInfo",
      "outputs": [
        {
          "internalType": "uint256",
          "name": "currentPool",
          "type": "uint256"
        },
        {
          "internalType": "uint256",
          "name": "season",
          "type": "uint256"
        },
        {
          "internalType": "uint256",
          "name": "seasonEnd",
          "type": "uint256"
        },
        {
          "internalType": "uint256",
          "name": "totalBattles",
          "type": "uint256"
        },
        {
          "internalType": "uint256",
          "name": "currentEntryFee",
          "type": "uint256"
        },
        {
          "internalType": "uint256",
          "name": "topTierCount",
          "type": "uint256"
        },
        {
          "internalType": "uint256",
          "name": "totalRewarded",
          "type": "uint256"
        },
        {
          "internalType": "uint256",
          "name": "currentMultiplierFee",
          "type": "uint256"
        },
        {
          "internalType": "uint256",
          "name": "currentPlatformFeeBps",
          "type": "uint256"
        }
      ],
      "stateMutability": "view",
      "type": "function"
    },
    {
      "inputs": [
        {
          "internalType": "uint256",
          "name": "season",
          "type": "uint256"
        },
        {
          "internalType": "uint256",
          "name": "rank",
          "type": "uint256"
        }
      ],
      "name": "getPrizeAmount",
      "outputs": [
        {
          "internalType": "uint256",
          "name": "",
          "type": "uint256"
        }
      ],
      "stateMutability": "view",
      "type": "function"
    },
    {
      "inputs": [
        {
          "internalType": "uint256",
          "name": "season",
          "type": "uint256"
        },
        {
          "internalType": "address",
          "name": "player",
          "type": "address"
        }
      ],
      "name": "getSeasonAIWins",
      "outputs": [
        {
          "internalType": "uint32",
          "name": "",
          "type": "uint32"
        }
      ],
      "stateMutability": "view",
      "type": "function"
    },
    {
      "inputs": [
        {
          "internalType": "uint256",
          "name": "season",
          "type": "uint256"
        },
        {
          "internalType": "address",
          "name": "player",
          "type": "address"
        }
      ],
      "name": "getSeasonPvPWins",
      "outputs": [
        {
          "internalType": "uint32",
          "name": "",
          "type": "uint32"
        }
      ],
      "stateMutability": "view",
      "type": "function"
    },
    {
      "inputs": [
        {
          "internalType": "uint256",
          "name": "season",
          "type": "uint256"
        }
      ],
      "name": "getSeasonTopTierShares",
      "outputs": [
        {
          "internalType": "uint256[]",
          "name": "",
          "type": "uint256[]"
        }
      ],
      "stateMutability": "view",
      "type": "function"
    },
    {
      "inputs": [
        {
          "internalType": "uint256",
          "name": "season",
          "type": "uint256"
        },
        {
          "internalType": "address",
          "name": "player",
          "type": "address"
        }
      ],
      "name": "getSeasonWins",
      "outputs": [
        {
          "internalType": "uint32",
          "name": "",
          "type": "uint32"
        }
      ],
      "stateMutability": "view",
      "type": "function"
    },
    {
      "inputs": [],
      "name": "getTopTierShares",
      "outputs": [
        {
          "internalType": "uint256[]",
          "name": "",
          "type": "uint256[]"
        }
      ],
      "stateMutability": "view",
      "type": "function"
    },
    {
      "inputs": [
        {
          "internalType": "uint8",
          "name": "attackerElement",
          "type": "uint8"
        },
        {
          "internalType": "uint8",
          "name": "defenderElement",
          "type": "uint8"
        }
      ],
      "name": "hasElementAdvantage",
      "outputs": [
        {
          "internalType": "bool",
          "name": "",
          "type": "bool"
        }
      ],
      "stateMutability": "view",
      "type": "function"
    },
    {
      "inputs": [
        {
          "internalType": "uint256",
          "name": "battleId",
          "type": "uint256"
        }
      ],
      "name": "inactivitySecondsRemaining",
      "outputs": [
        {
          "internalType": "uint256",
          "name": "",
          "type": "uint256"
        }
      ],
      "stateMutability": "view",
      "type": "function"
    },
    {
      "inputs": [],
      "name": "inactivityTimeout",
      "outputs": [
        {
          "internalType": "uint256",
          "name": "",
          "type": "uint256"
        }
      ],
      "stateMutability": "view",
      "type": "function"
    },
    {
      "inputs": [
        {
          "internalType": "uint256",
          "name": "battleId",
          "type": "uint256"
        },
        {
          "internalType": "uint256",
          "name": "cardId",
          "type": "uint256"
        }
      ],
      "name": "joinBattle",
      "outputs": [],
      "stateMutability": "nonpayable",
      "type": "function"
    },
    {
      "inputs": [
        {
          "internalType": "uint256",
          "name": "battleId",
          "type": "uint256"
        },
        {
          "internalType": "enum BattleArena.MoveType",
          "name": "move",
          "type": "uint8"
        }
      ],
      "name": "makeMove",
      "outputs": [],
      "stateMutability": "nonpayable",
      "type": "function"
    },
    {
      "inputs": [],
      "name": "multiplierFeePerUnit",
      "outputs": [
        {
          "internalType": "uint256",
          "name": "",
          "type": "uint256"
        }
      ],
      "stateMutability": "view",
      "type": "function"
    },
    {
      "inputs": [],
      "name": "nextBattleId",
      "outputs": [
        {
          "internalType": "uint256",
          "name": "",
          "type": "uint256"
        }
      ],
      "stateMutability": "view",
      "type": "function"
    },
    {
      "inputs": [],
      "name": "owner",
      "outputs": [
        {
          "internalType": "address",
          "name": "",
          "type": "address"
        }
      ],
      "stateMutability": "view",
      "type": "function"
    },
    {
      "inputs": [
        {
          "internalType": "uint256",
          "name": "",
          "type": "uint256"
        },
        {
          "internalType": "address",
          "name": "",
          "type": "address"
        }
      ],
      "name": "participated",
      "outputs": [
        {
          "internalType": "bool",
          "name": "",
          "type": "bool"
        }
      ],
      "stateMutability": "view",
      "type": "function"
    },
    {
      "inputs": [],
      "name": "pathUSD",
      "outputs": [
        {
          "internalType": "contract IPATHUSD",
          "name": "",
          "type": "address"
        }
      ],
      "stateMutability": "view",
      "type": "function"
    },
    {
      "inputs": [],
      "name": "platformFeeBps",
      "outputs": [
        {
          "internalType": "uint256",
          "name": "",
          "type": "uint256"
        }
      ],
      "stateMutability": "view",
      "type": "function"
    },
    {
      "inputs": [],
      "name": "platformFees",
      "outputs": [
        {
          "internalType": "uint256",
          "name": "",
          "type": "uint256"
        }
      ],
      "stateMutability": "view",
      "type": "function"
    },
    {
      "inputs": [
        {
          "internalType": "address",
          "name": "",
          "type": "address"
        }
      ],
      "name": "playerRecords",
      "outputs": [
        {
          "internalType": "uint32",
          "name": "wins",
          "type": "uint32"
        },
        {
          "internalType": "uint32",
          "name": "losses",
          "type": "uint32"
        },
        {
          "internalType": "uint32",
          "name": "draws",
          "type": "uint32"
        },
        {
          "internalType": "uint32",
          "name": "totalBattles",
          "type": "uint32"
        },
        {
          "internalType": "uint32",
          "name": "winStreak",
          "type": "uint32"
        },
        {
          "internalType": "uint32",
          "name": "bestStreak",
          "type": "uint32"
        },
        {
          "internalType": "uint256",
          "name": "totalDamageDealt",
          "type": "uint256"
        }
      ],
      "stateMutability": "view",
      "type": "function"
    },
    {
      "inputs": [
        {
          "internalType": "uint256",
          "name": "",
          "type": "uint256"
        },
        {
          "internalType": "uint256",
          "name": "",
          "type": "uint256"
        }
      ],
      "name": "prizeClaimed",
      "outputs": [
        {
          "internalType": "bool",
          "name": "",
          "type": "bool"
        }
      ],
      "stateMutability": "view",
      "type": "function"
    },
    {
      "inputs": [],
      "name": "prizePool",
      "outputs": [
        {
          "internalType": "uint256",
          "name": "",
          "type": "uint256"
        }
      ],
      "stateMutability": "view",
      "type": "function"
    },
    {
      "inputs": [],
      "name": "renounceOwnership",
      "outputs": [],
      "stateMutability": "nonpayable",
      "type": "function"
    },
    {
      "inputs": [
        {
          "internalType": "uint256",
          "name": "",
          "type": "uint256"
        },
        {
          "internalType": "address",
          "name": "",
          "type": "address"
        }
      ],
      "name": "seasonAIWins",
      "outputs": [
        {
          "internalType": "uint32",
          "name": "",
          "type": "uint32"
        }
      ],
      "stateMutability": "view",
      "type": "function"
    },
    {
      "inputs": [
        {
          "internalType": "uint256",
          "name": "",
          "type": "uint256"
        }
      ],
      "name": "seasonClaimDeadline",
      "outputs": [
        {
          "internalType": "uint256",
          "name": "",
          "type": "uint256"
        }
      ],
      "stateMutability": "view",
      "type": "function"
    },
    {
      "inputs": [],
      "name": "seasonDuration",
      "outputs": [
        {
          "internalType": "uint256",
          "name": "",
          "type": "uint256"
        }
      ],
      "stateMutability": "view",
      "type": "function"
    },
    {
      "inputs": [
        {
          "internalType": "uint256",
          "name": "",
          "type": "uint256"
        }
      ],
      "name": "seasonPrizePool",
      "outputs": [
        {
          "internalType": "uint256",
          "name": "",
          "type": "uint256"
        }
      ],
      "stateMutability": "view",
      "type": "function"
    },
    {
      "inputs": [
        {
          "internalType": "uint256",
          "name": "",
          "type": "uint256"
        },
        {
          "internalType": "address",
          "name": "",
          "type": "address"
        }
      ],
      "name": "seasonPvPWins",
      "outputs": [
        {
          "internalType": "uint32",
          "name": "",
          "type": "uint32"
        }
      ],
      "stateMutability": "view",
      "type": "function"
    },
    {
      "inputs": [
        {
          "internalType": "uint256",
          "name": "",
          "type": "uint256"
        },
        {
          "internalType": "uint256",
          "name": "",
          "type": "uint256"
        }
      ],
      "name": "seasonRankings",
      "outputs": [
        {
          "internalType": "address",
          "name": "",
          "type": "address"
        }
      ],
      "stateMutability": "view",
      "type": "function"
    },
    {
      "inputs": [],
      "name": "seasonStart",
      "outputs": [
        {
          "internalType": "uint256",
          "name": "",
          "type": "uint256"
        }
      ],
      "stateMutability": "view",
      "type": "function"
    },
    {
      "inputs": [
        {
          "internalType": "uint256",
          "name": "",
          "type": "uint256"
        }
      ],
      "name": "seasonSwept",
      "outputs": [
        {
          "internalType": "bool",
          "name": "",
          "type": "bool"
        }
      ],
      "stateMutability": "view",
      "type": "function"
    },
    {
      "inputs": [],
      "name": "seasonTimeRemaining",
      "outputs": [
        {
          "internalType": "uint256",
          "name": "",
          "type": "uint256"
        }
      ],
      "stateMutability": "view",
      "type": "function"
    },
    {
      "inputs": [
        {
          "internalType": "uint256",
          "name": "",
          "type": "uint256"
        },
        {
          "internalType": "uint256",
          "name": "",
          "type": "uint256"
        }
      ],
      "name": "seasonTopTierShares",
      "outputs": [
        {
          "internalType": "uint256",
          "name": "",
          "type": "uint256"
        }
      ],
      "stateMutability": "view",
      "type": "function"
    },
    {
      "inputs": [
        {
          "internalType": "uint256",
          "name": "",
          "type": "uint256"
        }
      ],
      "name": "seasonTotalRewarded",
      "outputs": [
        {
          "internalType": "uint256",
          "name": "",
          "type": "uint256"
        }
      ],
      "stateMutability": "view",
      "type": "function"
    },
    {
      "inputs": [
        {
          "internalType": "uint256",
          "name": "",
          "type": "uint256"
        },
        {
          "internalType": "address",
          "name": "",
          "type": "address"
        }
      ],
      "name": "seasonWins",
      "outputs": [
        {
          "internalType": "uint32",
          "name": "",
          "type": "uint32"
        }
      ],
      "stateMutability": "view",
      "type": "function"
    },
    {
      "inputs": [
        {
          "internalType": "uint256",
          "name": "_window",
          "type": "uint256"
        }
      ],
      "name": "setClaimWindow",
      "outputs": [],
      "stateMutability": "nonpayable",
      "type": "function"
    },
    {
      "inputs": [
        {
          "internalType": "uint256",
          "name": "_fee",
          "type": "uint256"
        }
      ],
      "name": "setEntryFee",
      "outputs": [],
      "stateMutability": "nonpayable",
      "type": "function"
    },
    {
      "inputs": [
        {
          "internalType": "uint256",
          "name": "_timeout",
          "type": "uint256"
        }
      ],
      "name": "setInactivityTimeout",
      "outputs": [],
      "stateMutability": "nonpayable",
      "type": "function"
    },
    {
      "inputs": [
        {
          "internalType": "uint256",
          "name": "_feePerUnit",
          "type": "uint256"
        }
      ],
      "name": "setMultiplierFee",
      "outputs": [],
      "stateMutability": "nonpayable",
      "type": "function"
    },
    {
      "inputs": [
        {
          "internalType": "uint256",
          "name": "_feeBps",
          "type": "uint256"
        }
      ],
      "name": "setPlatformFee",
      "outputs": [],
      "stateMutability": "nonpayable",
      "type": "function"
    },
    {
      "inputs": [
        {
          "internalType": "uint256[]",
          "name": "_topTierShares",
          "type": "uint256[]"
        },
        {
          "internalType": "uint256",
          "name": "_totalRewardedPlayers",
          "type": "uint256"
        }
      ],
      "name": "setPrizeStructure",
      "outputs": [],
      "stateMutability": "nonpayable",
      "type": "function"
    },
    {
      "inputs": [
        {
          "internalType": "uint256",
          "name": "_duration",
          "type": "uint256"
        }
      ],
      "name": "setSeasonDuration",
      "outputs": [],
      "stateMutability": "nonpayable",
      "type": "function"
    },
    {
      "inputs": [
        {
          "internalType": "uint256",
          "name": "season",
          "type": "uint256"
        }
      ],
      "name": "sweepUnclaimedPrizes",
      "outputs": [],
      "stateMutability": "nonpayable",
      "type": "function"
    },
    {
      "inputs": [
        {
          "internalType": "uint256",
          "name": "",
          "type": "uint256"
        }
      ],
      "name": "topTierShares",
      "outputs": [
        {
          "internalType": "uint256",
          "name": "",
          "type": "uint256"
        }
      ],
      "stateMutability": "view",
      "type": "function"
    },
    {
      "inputs": [],
      "name": "totalBattlesPlayed",
      "outputs": [
        {
          "internalType": "uint256",
          "name": "",
          "type": "uint256"
        }
      ],
      "stateMutability": "view",
      "type": "function"
    },
    {
      "inputs": [],
      "name": "totalRewardedPlayers",
      "outputs": [
        {
          "internalType": "uint256",
          "name": "",
          "type": "uint256"
        }
      ],
      "stateMutability": "view",
      "type": "function"
    },
    {
      "inputs": [
        {
          "internalType": "address",
          "name": "newOwner",
          "type": "address"
        }
      ],
      "name": "transferOwnership",
      "outputs": [],
      "stateMutability": "nonpayable",
      "type": "function"
    },
    {
      "inputs": [],
      "name": "whaleCards",
      "outputs": [
        {
          "internalType": "contract IWhaleCards",
          "name": "",
          "type": "address"
        }
      ],
      "stateMutability": "view",
      "type": "function"
    },
    {
      "inputs": [
        {
          "internalType": "address",
          "name": "to",
          "type": "address"
        }
      ],
      "name": "withdrawPlatformFees",
      "outputs": [],
      "stateMutability": "nonpayable",
      "type": "function"
    }
  ],
  "bytecode": "0x60c0346103f557601f615de038819003918201601f19168301916001600160401b038311848410176103ce5780849260409485528339810103126103f557610052602061004b836103f9565b92016103f9565b9033156103e2575f8054336001600160a01b0319821681178355916001600160a01b03909116907f8be0079c531659141344cd1fd0a4f28419497f9722a3daafe3b4186f6b6457e09080a360017f9b779b17422d0df92223018b32b4d1fa46e071723d6817e2486d003becc55f00819055620f42406007556101f4600855620186a0600955600c81905562278d00600e556276a700600f5561070860105560196012556001600160a01b03918216608052911660a05260066020527f54cdd369e4e8a8515e52ca72ec816c2101831ad1f18bf44102ed171459c9b4f8805460ff199081166003179091557f75f96ab15d697e93042dc45b5c896c4b27e89bb6eaf39475c5c371cb2513f7d28054821660041790557fc5069e24aaadb2addc3e52e868fcf3f4f8acf5a87e24300992fd4540c2a87eed805482169092179091557f3e5fec24aa4dc4e5aee2e025e51e1392c72a2500577559fae9665c6d52bd6a318054821660051790557fbfd358e93f18da3ed276c3afdbdba00b8f0b6008a03476a6a86bd6320ee6938b8054821660029081179091555f527f8819ef417987f8ae7a81f42cdfb18815282fe989326fbff903d13cf0e03ace298054909116905542600d55601154680100000000000000008110156103ce5760018101806011558110156103ba57610bb89060115f5260205f200155601154680100000000000000008110156103ce5760018101806011558110156103ba576107d09060115f5260205f200155601154680100000000000000008110156103ce5760018101806011558110156103ba576105dc9060115f5260205f200155601154680100000000000000008110156103ce5760018101806011558110156103ba576103e89060115f5260205f200155601154680100000000000000008110156103ce5760018101806011558110156103ba5760115f526102bc7f31ecc21a745e3968a04e9570e4425bc18fa8019c68028196b546d1669c200c68909101556040516159d2908161040e8239608051818181610b1e015281816110aa0152818161153101528181611b8a01528181614df00152818161515e0152818161551b0152818161558d0152818161561e0152818161589c015261590e015260a05181818161057901528181612022015281816121150152818161250f015281816143db01528181614a8a0152614f790152f35b634e487b7160e01b5f52603260045260245ffd5b634e487b7160e01b5f52604160045260245ffd5b631e4fbdf760e01b5f525f60045260245ffd5b5f80fd5b51906001600160a01b03821682036103f55756fe6080806040526004361015610012575f80fd5b5f3560e01c9081627a573f146131cd57508063072ea61c146131b057806307653afd14612faa5780630a02396b14612f755780630dca4bc114610d0357806312e8e2c314612f3c5780631833c0af14612cd1578063188107b714612b81578063194a4e7e14612b6457806319991dbe146118b757806320286cc314612b4a578063205f66b614611b2b57806322dcd13e14612b2d578063255d2fad146128875780632867e91a146128695780632ab1560f1461283a5780632f3d22bb1461281f578063302c80e11461280257806331a6ff66146127e557806333e4b2df146127ad5780633837ad48146127925780633998a681146127765780633aaea2e7146127595780633c38b21d1461272157806342d4aa601461269d5780634c4c447e146125db5780635108db93146124b05780635d6a618d1461249557806360246c8814612426578063606d2e96146122f057806365cb4da4146122d25780636abe4b1a146122b15780636b5f0f481461225e5780636dd0ce7a1461221c578063715018a6146121c5578063719ce73e146121a857806379e391db146121445780637b008d3b146121005780637b15414014611f5b5780637bbb3a6014611f3e5780637c01800d14611ebe5780637c4bb65114611ea15780637fd6f7c414611e5d57806384f86a6614611e3c578063851ea6b914611c7f5780638a29719f14611bfb5780638b90fbc014611be05780638da5cb5b14611bb957806396a9285814611b75578063a0e9598414611b2b578063a94e5a6914611af4578063af0ae8b514611962578063b94f5e491461191e578063bafa094614611901578063bc79681e146118b7578063bcb396211461189a578063bd3402d8146114c4578063c0fac838146114a9578063c5d37ae11461148c578063c8ad90ec1461103d578063cf2012af14610eaf578063d21b4c5214610db6578063d794e1a614610d81578063db2c0fd114610d4d578063e178e21514610d03578063e268070914610ce8578063e44dba4f14610a89578063e6b8d52c14610a36578063e76c590814610a19578063eb2cd06e14610650578063eb770d0c146105fd578063ec3889b514610518578063eeb58fa2146104c5578063f0dc55eb1461049b578063f2fde38b14610416578063f6c973c7146103ec578063f8536b94146103a35763fe54009d14610375575f80fd5b3461039f57602036600319011261039f576004355f526015602052602060405f2054604051908152f35b5f80fd5b3461039f57604036600319011261039f576103bc613208565b6004355f52601d60205260405f209060018060a01b03165f52602052602060ff60405f2054166040519015158152f35b3461039f57602036600319011261039f576004355f526016602052602060405f2054604051908152f35b3461039f57602036600319011261039f5761042f61321e565b61043761444c565b6001600160a01b03168015610488575f80546001600160a01b03198116831782556001600160a01b0316907f8be0079c531659141344cd1fd0a4f28419497f9722a3daafe3b4186f6b6457e09080a3005b631e4fbdf760e01b5f525f60045260245ffd5b3461039f57602036600319011261039f576004355f526014602052602060405f2054604051908152f35b3461039f57602036600319011261039f576004356104e161444c565b7f0855587c27170e75c96262d5fd85f9afbe456729d3ddf667be334116d962dd586040600f548151908152836020820152a1600f55005b3461039f57602036600319011261039f5761053161321e565b61053961444c565b600b549081156105ee575f600b5560405163a9059cbb60e01b81526001600160a01b0390911660048201526024810191909152602081806044810103815f7f00000000000000000000000000000000000000000000000000000000000000006001600160a01b03165af180156105e3576105af57005b6020813d6020116105db575b816105c86020938361353f565b8101031261039f576105d990613713565b005b3d91506105bb565b6040513d5f823e3d90fd5b630686827b60e51b5f5260045ffd5b3461039f57602036600319011261039f5760043561061961444c565b7f6a75d918a59da9597a749b7c707f23cfa76552074b43c68a24a21db1c45841f160406007548151908152836020820152a1600755005b3461039f57602036600319011261039f5760043561066c6142f8565b805f52600260205260405f20600581019081549060ff8260501c16600481101561084357600103610a0a57600181019260018060a01b03845416331492600283019360018060a01b03855416331490801580610a02575b6109f3576106d8600886015460105490613482565b42106109e45760ff8360581c166002811015610843571561099f575b5050426007840155600260209190911c60ff161161086a57805460ff60501b1916600360501b17815583546001600160a01b039081165f90815260056020526040812055835416308103610857575b50610764600960018060a01b0386541693019263ffffffff8454169061434e565b60ff815460581c169160028310156108435760ff921580610830575b8061081c575b6107f7575b505b5460381c16156107e65750546001600160a01b03165b6001600160a01b03169033907ffb624c1a3e128d7498e39f5be7d4ab87be0c0361492c59922d25b0eb9d0796ed5f80a460015f51602061597d5f395f51905f5255005b546001600160a01b031690506107a3565b835490546108169163ffffffff909116906001600160a01b031661434e565b8561078b565b5083546001600160a01b0316301415610786565b5083546001600160a01b03161515610780565b634e487b7160e01b5f52602160045260245ffd5b5f5260056020525f604081205585610743565b805460ff60501b1916600160511b1780825560ff92906108ed9060381c8416801561098e5786546001600160a01b0316905b156109795785546001600160a01b0316926108e8905b85546001600160601b0316606086901b6001600160601b03191617865563ffffffff600988885460581c16920154169085614557565b614489565b84546001600160a01b039081165f90815260056020526040812055845416308103610966575b5061091f601e546134dc565b601e558154604051602091821c851681526001600160a01b039092169187917f6ece8c7a0814e499368677abb88c44f55f86f4bdb83665cb2bbee15321ae78d891a361078d565b5f5260056020525f604081205586610913565b86546001600160a01b0316926108e8906108b2565b85546001600160a01b03169061089c565b806109d7575b6109ba57806109c9575b6109ba5786806106f4565b63e9a1327f60e01b5f5260045ffd5b5060ff8160381c16156109af565b5060ff8260381c166109a5565b6330c0fe7b60e21b5f5260045ffd5b634b400be560e11b5f5260045ffd5b5081156106c3565b63792c967960e11b5f5260045ffd5b3461039f575f36600319011261039f576020600e54604051908152f35b3461039f57602036600319011261039f57600435610a5261444c565b7f867d59a8854a44562f1e07d6cce76f41a3746da45075b832735543880422a75060406009548151908152836020820152a1600955005b3461039f57610a9736613272565b90610aa06142f8565b805f52600260205260405f206005810160ff815460501c16600481101561084357610cd95760018201546001600160a01b03163314610cca57335f52600560205260405f2054610cbb57610af48433614dda565b610b0863ffffffff60098401541633614efd565b604051636a24447f60e11b8152600481018590527f00000000000000000000000000000000000000000000000000000000000000006001600160a01b031661010082602481845afa9182156105e3575f92610c9a575b506101006003850154602460405180948193636a24447f60e11b835260048301525afa80156105e35761ffff60608092610c1c9783955f92610c69575b50600281018054336001600160a01b0319909116179055600481018b9055604087015188546aff0000000000ffffff0000191690851660101b63ffff000016176a01000000000001000000001788554260089091015501519190930151845460ff60381b929094169216919091111560381b1660ff60381b19909116179055565b335f5260056020528060405f20556040519182527fa47b02d2d7d744d434c03db59a4362b0fc7a74d04df715cc6200d66fd65df98960203393a360015f51602061597d5f395f51905f5255005b610c8c9192506101003d8111610c93575b610c84818361353f565b8101906141df565b908b610b9b565b503d610c7a565b610cb49192506101003d8111610c9357610c84818361353f565b9086610b5e565b631844f0a560e11b5f5260045ffd5b632f50dd8760e01b5f5260045ffd5b637100718960e01b5f5260045ffd5b3461039f575f36600319011261039f57602060405160968152f35b3461039f57604036600319011261039f57610d1c613208565b6004355f52601a60205260405f209060018060a01b03165f52602052602063ffffffff60405f205416604051908152f35b3461039f57610d5b36613272565b905f52601960205260405f20905f52602052602060ff60405f2054166040519015158152f35b3461039f57604036600319011261039f57602435801515810361039f57610dac60209160043561429d565b6040519015158152f35b3461039f57602036600319011261039f57610dcf61321e565b5f60c0604051610dde81613523565b8281528260208201528260408201528260608201528260808201528260a0820152015260018060a01b03165f52600460205260e060405f20604051610e2281613523565b63ffffffff82548181818581808416988983528160208401818760201c16815260c060016040870194848a60401c1686528460a060608a0199828d60601c168b5282608082019d60801c168d52019c60a01c168c5201549b019a8b526040519b8c52511660208b0152511660408901525116606087015251166080850152511660a08301525160c0820152f35b3461039f57604036600319011261039f5760043567ffffffffffffffff811161039f57610ee0903690600401613234565b60243590610eec61444c565b81811161102e576101f4821161101f575f805b828210610fff576127109150838303610fec5703610fdd575b6011545f60115580610f9b575b505f5b818110610f36576012839055005b610f418183866134b8565b3590601154600160401b811015610f8757600192610f698285610f81940160115560116132b4565b90919082549060031b91821b915f19901b1916179055565b01610f28565b634e487b7160e01b5f52604160045260245ffd5b60115f527f31ecc21a745e3968a04e9570e4425bc18fa8019c68028196b546d1669c200c68908101905b818110610fd25750610f25565b5f8155600101610fc5565b63044843f560e11b5f5260045ffd5b10610f18576276723160e81b5f5260045ffd5b6110176001916110108486896134b8565b3590613482565b910190610eff565b6345b3a1d160e11b5f5260045ffd5b63d989b8b360e01b5f5260045ffd5b3461039f5761104b3661343b565b906110546142f8565b61105e8133614dda565b335f52600560205260405f2054610cbb5763ffffffff821615801561147c575b61146d5761108c8233614efd565b604051636a24447f60e11b81526004810182905290610100826024817f00000000000000000000000000000000000000000000000000000000000000006001600160a01b03165afa9182156105e3575f9261144c575b506110ee6001546134dc565b918260015560b4601e5460405160208101914483524260408301528660608301528560808301523360601b60a08301528382015282815261113060d48261353f565b5190200660500193846050116114385761ffff80604063ffffffff9401511660010b956040519661116088613506565b8688523360208901523060408901528560608901525f608089015260a08801521660010b60c0860152600160e08601525f6101008601525f61012086015260016101408601525f6101608601525f61018086015260016101a086015260016101c08601525f6101e0860152426102008601525f6102208601524261024086015216610260840152815f52600260205260405f208351815560018060a01b03602085015116600182019060018060a01b03166001600160601b0360a01b82541617905560018060a01b03604085015116600282019060018060a01b03166001600160601b0360a01b82541617905560608401516003820155608084015160048201556005810160a085015160010b61ffff198254169061ffff161781556112a260c086015160010b829081549060101b63ffff0000169063ffff00001916179055565b60e085015181546101008701516101208801516101408901516101608a01516101808b015160409190911b60ff60401b1691151560381b60ff60381b1660309390931b60ff60301b1660289490941b60ff60281b1660209690961b64ff000000001669ffffffffffff0000000019909516949094179490941791909117179190911760489190911b60ff60481b161781556101a085015160048110156108435761134c908261345e565b6101c08501519460028610156108435781546101e08201516affffffffffffffffffffff90911660589790971b60ff60581b169690961760609690961b6001600160601b03191695909517905560209363ffffffff906009908290610260906102008101516006870155610220810151600787015561024081015160088701550151169201911663ffffffff19825416179055335f52600583528160405f2055604051908152600183820152817f04eb289f4f987f7cfc6dabfb6ccea9a32bd7d39f2e413d0b4d59bcce2a332aba60403393a360015f51602061597d5f395f51905f5255604051908152f35b634e487b7160e01b5f52601160045260245ffd5b6114669192506101003d8111610c9357610c84818361353f565b90836110e2565b631bc4bcf760e21b5f5260045ffd5b50603263ffffffff83161161107e565b3461039f575f36600319011261039f576020600f54604051908152f35b3461039f575f36600319011261039f57602060405160038152f35b3461039f576114d23661343b565b906114db6142f8565b6114e58133614dda565b335f52600560205260405f2054610cbb5763ffffffff821615801561188a575b61146d576115138233614efd565b604051636a24447f60e11b81526004810182905290610100826024817f00000000000000000000000000000000000000000000000000000000000000006001600160a01b03165afa9182156105e3575f92611869575b5063ffffffff61ffff604061157f6001546134dc565b948560015501511660010b936040519461159886613506565b8486523360208701525f60408701528360608701525f608087015260a08601525f60c08601525f60e08601525f6101008601525f61012086015260016101408601525f6101608601525f6101808601525f6101a08601525f6101c08601525f6101e0860152426102008601525f6102208601524261024086015216610260840152815f52600260205260405f208351815560018060a01b03602085015116600182019060018060a01b03166001600160601b0360a01b82541617905560018060a01b03604085015116600282019060018060a01b03166001600160601b0360a01b82541617905560608401516003820155608084015160048201556005810160a085015160010b61ffff198254169061ffff161781556116d460c086015160010b829081549060101b63ffff0000169063ffff00001916179055565b60e085015181546101008701516101208801516101408901516101608a01516101808b015160409190911b60ff60401b1691151560381b60ff60381b1660309390931b60ff60301b1660289490941b60ff60281b1660209690961b64ff000000001669ffffffffffff0000000019909516949094179490941791909117179190911760489190911b60ff60481b161781556101a085015160048110156108435761177e908261345e565b6101c08501519460028610156108435781546101e08201516affffffffffffffffffffff90911660589790971b60ff60581b169690961760609690961b6001600160601b03191695909517905560209363ffffffff906009908290610260906102008101516006870155610220810151600787015561024081015160088701550151169201911663ffffffff19825416179055335f52600583528160405f20556040519081525f83820152817f04eb289f4f987f7cfc6dabfb6ccea9a32bd7d39f2e413d0b4d59bcce2a332aba60403393a360015f51602061597d5f395f51905f5255604051908152f35b6118839192506101003d8111610c9357610c84818361353f565b9083611569565b50603263ffffffff831611611505565b3461039f575f36600319011261039f576020600c54604051908152f35b3461039f57604036600319011261039f576118d0613208565b6004355f52601b60205260405f209060018060a01b03165f52602052602063ffffffff60405f205416604051908152f35b3461039f575f36600319011261039f576020600d54604051908152f35b3461039f57604036600319011261039f576119376131f8565b60243560ff811680910361039f5760ff602092165f526006825260ff60405f20541614604051908152f35b3461039f57602036600319011261039f5760043561197e61444c565b6119866142f8565b600c54811015611ae557805f52601660205260405f2054421115611ad657805f52601760205260ff60405f205416611ac7575f5f90825f52601460205260405f20545f5b818110611a7557847f6c27ac7156f57e09af05b15f4c716d50247e6948e424dd99cb119ff3a1dc3d606020611a2e8787855f526015845260405f2054915f92818111611a62575b5050855f526017845260405f20600160ff19825416179055613482565b80611a4e575b604051908152a260015f51602061597d5f395f51905f5255005b611a5a81600a54613482565b600a55611a34565b611a6d929350613585565b908680611a11565b611a89611a828287614710565b8095613482565b93855f52601960205260405f20825f5260205260ff60405f20541615611ab3575b506001016119ca565b611ac09060019294613482565b9290611aaa565b63b05f1fbf60e01b5f5260045ffd5b63067e28df60e01b5f5260045ffd5b637221b37b60e01b5f5260045ffd5b3461039f57611b0236613272565b905f52601860205260405f20905f52602052602060018060a01b0360405f205416604051908152f35b3461039f57604036600319011261039f57611b44613208565b6004355f52601c60205260405f209060018060a01b03165f52602052602063ffffffff60405f205416604051908152f35b3461039f575f36600319011261039f576040517f00000000000000000000000000000000000000000000000000000000000000006001600160a01b03168152602090f35b3461039f575f36600319011261039f575f546040516001600160a01b039091168152602090f35b3461039f575f36600319011261039f576020604051601e8152f35b3461039f575f36600319011261039f5760405180602060115491828152019060115f527f31ecc21a745e3968a04e9570e4425bc18fa8019c68028196b546d1669c200c68905f5b818110611c6957611c6585611c598187038261353f565b60405191829182613402565b0390f35b8254845260209093019260019283019201611c42565b3461039f57611c8d36613272565b5f9160018054905b8181111580611e33575b15611cec57805f52600260205260ff600560405f20015460501c1660048110156108435715611cd7575b611cd2906134dc565b611c95565b93611ce4611cd2916134dc565b949050611cc9565b5083611cf781613561565b611d04604051918261353f565b818152601f19611d1383613561565b015f5b818110611e1c5750505f905f9260015b8581111580611e13575b15611dc257805f52600260205260ff600560405f20015460501c1660048110156108435715611d68575b611d63906134dc565b611d26565b868510611daf5780611d63915f526002602052611da660405f2095611d95611d8f826134dc565b976135bc565b611d9f82886141ae565b52856141ae565b505b9050611d5a565b93611dbc611d63916134dc565b94611da8565b826040518091602082016020835281518091526020604084019201905f5b818110611dee575050500390f35b91935091602061028082611e0560019488516132e3565b019401910191849392611de0565b50818410611d30565b602090611e27613772565b82828601015201611d16565b50838510611c9f565b3461039f57602036600319011261039f57611e5561444c565b600435600e55005b3461039f57604036600319011261039f57602435600381101561039f57611e8e90611e866142f8565b60043561392e565b60015f51602061597d5f395f51905f5255005b3461039f575f36600319011261039f576020600954604051908152f35b3461039f57602036600319011261039f576001600160a01b03611edf61321e565b165f52600460205260e060405f206001815491015463ffffffff604051928181168452818160201c166020850152818160401c166040850152818160601c166060850152818160801c16608085015260a01c1660a083015260c0820152f35b3461039f575f36600319011261039f576020601054604051908152f35b3461039f57611f6936613272565b90611f726142f8565b600c54811015611ae557805f52601460205260405f20548210156120f157805f52601860205260405f20825f5260205260018060a01b0360405f20541633036120e257805f52601960205260405f20825f5260205260ff60405f2054166120d357611fdd8282614710565b5f8281526019602090815260408083208684528252808320805460ff191660011790555163a9059cbb60e01b81523360048201526024810184905291829060449082907f00000000000000000000000000000000000000000000000000000000000000006001600160a01b03165af180156105e35761209c575b5060405192835260208301527f608c8c3c6a3d40f40b96fbee44f9b9aee57a39c2fcb8bb0f59d8892b2d5492a260403393a360015f51602061597d5f395f51905f5255005b6020813d6020116120cb575b816120b56020938361353f565b8101031261039f576120c690613713565b612057565b3d91506120a8565b630c8d9eab60e31b5f5260045ffd5b636ee783d160e11b5f5260045ffd5b6302ba562960e61b5f5260045ffd5b3461039f575f36600319011261039f576040517f00000000000000000000000000000000000000000000000000000000000000006001600160a01b03168152602090f35b3461039f57602036600319011261039f576004355f52601360205260405f206040519081602082549182815201915f5260205f20905f5b81811061219257611c6585611c598187038261353f565b825484526020909301926001928301920161217b565b3461039f575f36600319011261039f576020600a54604051908152f35b3461039f575f36600319011261039f576121dd61444c565b5f80546001600160a01b0319811682556001600160a01b03167f8be0079c531659141344cd1fd0a4f28419497f9722a3daafe3b4186f6b6457e08280a3005b3461039f57602036600319011261039f57612235613772565b506004355f52600260205261028061224f60405f206135bc565b61225c60405180926132e3565bf35b3461039f57602036600319011261039f5760043561227a61444c565b7f256abb96ecf69e7ac9d2a6b8629e2d79335e48aa40946147f7642d738503bcae60406010548151908152836020820152a1601055005b3461039f5760206122ca6122c436613272565b9061374e565b604051908152f35b3461039f57602036600319011261039f5760206122ca600435613720565b3461039f57602036600319011261039f576004355f52600260205261028060405f2080549060018060a01b036001820154169060018060a01b036002820154166003820154600483015460058401549060068501549260078601549463ffffffff600960088901549801541697604051998a5260208a01526040890152606088015260808701528060010b60a08701528060101c60010b60c087015260ff8160201c1660e087015260ff8160281c1661010087015260ff8160301c1661012087015260ff8160381c16151561014087015260ff8160401c1661016087015260ff8160481c166101808701526123ef6101a0870160ff8360501c166132c9565b6124036101c0870160ff8360581c166132d6565b60601c6101e0860152610200850152610220840152610240830152610260820152f35b3461039f575f36600319011261039f57610120600a54600c5461244e600d54600e5490613482565b601e5460075460115490601254926009549460085496604051988952602089015260408801526060870152608086015260a085015260c084015260e0830152610100820152f35b3461039f575f36600319011261039f57602060405160328152f35b3461039f57602036600319011261039f576124c961321e565b6124d161444c565b600a549081156105ee575f600a5560405163a9059cbb60e01b81526001600160a01b038216600482015260248101839052602081806044810103815f7f00000000000000000000000000000000000000000000000000000000000000006001600160a01b03165af180156105e35761257d575b506040519182526001600160a01b0316907f29e5bac17e22db8cb70100212eae5bd3bafe478f0e53f52627b497fc093a4b3890602090a2005b6020813d6020116125d3575b816125966020938361353f565b8101031261039f577f29e5bac17e22db8cb70100212eae5bd3bafe478f0e53f52627b497fc093a4b38916125cb602092613713565b509150612544565b3d9150612589565b3461039f57602036600319011261039f576004356125f76142f8565b5f81815260026020526040902060018101546001600160a01b031633036109f357600581019060ff825460501c16600481101561084357610cd957600963ffffffff9161266693600360501b60ff60501b19825416179055335f5260056020525f60408120550154163361434e565b7fe10fd8c156678d18df7daf6dd3e15b95c6d350ee99272630fcad6dde9bef0d0c5f80a260015f51602061597d5f395f51905f5255005b3461039f576126ab36613272565b905f52600360205260405f20805482101561039f5760c0916126cc916132b4565b50546040519060ff8116825260018060a01b038160081c1660208301526126fc6040830160ff8360a81c16613265565b61ffff8160b01c16606083015280831c60010b608083015260d01c60010b60a0820152f35b3461039f57602036600319011261039f5760043560115481101561039f5761274a602091613288565b90549060031b1c604051908152f35b3461039f575f36600319011261039f576020601254604051908152f35b3461039f575f36600319011261039f5760206040516107d08152f35b3461039f575f36600319011261039f57602060405160058152f35b3461039f57602036600319011261039f576001600160a01b036127ce61321e565b165f526005602052602060405f2054604051908152f35b3461039f575f36600319011261039f576020600154604051908152f35b3461039f575f36600319011261039f576020601e54604051908152f35b3461039f575f36600319011261039f57602060405160b48152f35b3461039f5761284836613272565b905f52601360205260405f20805482101561039f5760209161274a916132b4565b3461039f57602036600319011261039f5760206122ca6004356136d9565b3461039f57602036600319011261039f576004356128a36142f8565b5f8181526002602081905260409091206001810180549282018054336001600160a01b0395861681149695929492871592161481612b24575b506109f357600581019460ff865460501c16600481101561084357600103610a0a57855460ff60501b1916600160511b17865542600783015515612ac15760ff855460581c166002811015610843571580612aae575b15612aa5578254612967906001600160a01b03165b86546001600160601b031660609190911b6001600160601b031916178655565b815461297b906001600160a01b0316614489565b60ff855460581c1690600282101561084357811580612a91575b80612a7e575b612a58575b50505b546001600160a01b039081165f90815260056020526040812055905416308103612a45575b506129d4601e546134dc565b601e557f6ece8c7a0814e499368677abb88c44f55f86f4bdb83665cb2bbee15321ae78d860206040519333847fb553d7de984c6037119480bd7720e3fb2f3802a5f89a3645a81d30526ceabfd35f80a35460ff81831c16855260601c93a360015f51602061597d5f395f51905f5255005b5f5260056020525f6040812055826129c8565b612a779163ffffffff600960018060a01b038754169301541691614557565b84806129a0565b5083546001600160a01b0316151561299b565b5083546001600160a01b0316301415612995565b6129675f612947565b5082546001600160a01b03161515612932565b815485546001600160601b031660609190911b6001600160601b031916178555612b1f908354612af9906001600160a01b0316614489565b8254865460099092015463ffffffff169160581c60ff16906001600160a01b0316614557565b6129a3565b905015866128dc565b3461039f575f36600319011261039f576020600854604051908152f35b3461039f575f36600319011261039f5760206122ca613592565b3461039f575f36600319011261039f576020600b54604051908152f35b3461039f57602036600319011261039f576004355f52600360205260405f20805490612bac82613561565b91612bba604051938461353f565b8083526020830180925f5260205f205f915b838310612c65578486604051918291602083019060208452518091526040830191905f5b818110612bfe575050500390f35b91935091602060c060019260a0875160ff81511683528580831b03858201511685840152612c3460408201516040850190613265565b61ffff60608201511660608401526080810151860b60808401520151840b60a0820152019401910191849392612bf0565b600160208192604051612c77816134ea565b855460ff81168252848060a01b038160081c1684830152612ca160ff8260a81c1660408401613579565b61ffff8160b01c1660608301528060c01c850b608083015260d01c840b60a0820152815201920192019190612bcc565b3461039f57602036600319011261039f5760043567ffffffffffffffff811161039f57612d02903690600401613234565b612d0a61444c565b612d19600d54600e5490613482565b4210612f2d576012548111612f1e57600c5490600a54825f52601360205260405f208054905f815581612f00575b50505f5b601154811015612d9a57835f52601360205260405f2090612d6b81613288565b905483549160031b1c600160401b821015610f8757610f698260019586612d94950181556132b4565b01612d4b565b5083835f5260146020528260405f2055835f5260156020528160405f2055612dc4600f5442613482565b845f52601660205260405f20555f5b838110612e2357847f897bb6f0795301e9067118702b84a022c8cf163b67d88ee85528f55fc7bc5552604085875f600a55612e0f600c546134dc565b600c5542600d5582519182526020820152a2005b5f5b818110612eb3575080612e43612e3e60019387866134b8565b6134c8565b865f52601860205260405f20825f5260205260405f2090838060a01b03166001600160601b0360a01b825416179055818060a01b03612e86612e3e8388876134b8565b1681877fac118f8271a102092326eb4817b619f9289a650d881c53b86e53f1b29a5b56b75f80a401612dd3565b612ec1612e3e8287866134b8565b6001600160a01b03612ed7612e3e8589886134b8565b6001600160a01b03909216911614612ef157600101612e25565b630757676160e41b5f5260045ffd5b5f5260205f20908101905b81811015612d47575f8155600101612f0b565b634e4ca4df60e01b5f5260045ffd5b63141189cf60e31b5f5260045ffd5b3461039f57602036600319011261039f57600435612f5861444c565b6107d08111612f6657600855005b6358d620b360e01b5f5260045ffd5b3461039f57602036600319011261039f5760ff612f906131f8565b165f526006602052602060ff60405f205416604051908152f35b3461039f57602036600319011261039f57600435612fc66142f8565b805f52600260205260405f20600181019060018060a01b038254163314600282019060018060a01b038254163314901590816131a7575b506109f35760058201805460ff8160501c16600481101561084357600103610a0a5760ff60029160201c161161319857805460ff60501b1916600360501b17815542600784015583546001600160a01b039081165f90815260056020526040812055825460ff929116308103613185575b505460581c16600281101561084357600103613101575063ffffffff60096130a49360018060a01b03905416920154169061434e565b33817fa4262d2b40a2cee3044e9392c8668b69a5d135ea0ad29d0ad69caf59f0b95f595f80a37fe10fd8c156678d18df7daf6dd3e15b95c6d350ee99272630fcad6dde9bef0d0c5f80a260015f51602061597d5f395f51905f5255005b80546001600160a01b0316801515908161317a575b501561315a5763ffffffff9061314260096131559560018060a01b03905416940193838554169061434e565b54915416906001600160a01b031661434e565b6130a4565b5063ffffffff60096131559360018060a01b03905416920154169061434e565b905030141585613116565b5f5260056020525f60408120558661306e565b638acece1160e01b5f5260045ffd5b90501585612ffd565b3461039f575f36600319011261039f576020600754604051908152f35b3461039f57602036600319011261039f576020906004355f526017825260ff60405f20541615158152f35b6004359060ff8216820361039f57565b602435906001600160a01b038216820361039f57565b600435906001600160a01b038216820361039f57565b9181601f8401121561039f5782359167ffffffffffffffff831161039f576020808501948460051b01011161039f57565b9060038210156108435752565b604090600319011261039f576004359060243590565b6011548110156132a05760115f5260205f2001905f90565b634e487b7160e01b5f52603260045260245ffd5b80548210156132a0575f5260205f2001905f90565b9060048210156108435752565b9060028210156108435752565b63ffffffff61026080928051855260018060a01b03602082015116602086015260018060a01b036040820151166040860152606081015160608601526080810151608086015260a081015160010b60a086015260c081015160010b60c086015260ff60e08201511660e086015260ff6101008201511661010086015260ff61012082015116610120860152610140810151151561014086015260ff6101608201511661016086015260ff610180820151166101808601526133ae6101a08201516101a08701906132c9565b6133c26101c08201516101c08701906132d6565b60018060a01b036101e0820151166101e0860152610200810151610200860152610220810151610220860152610240810151610240860152015116910152565b60206040818301928281528451809452019201905f5b8181106134255750505090565b8251845260209384019390920191600101613418565b604090600319011261039f576004359060243563ffffffff8116810361039f5790565b90600481101561084357815460ff60501b191660509190911b60ff60501b16179055565b9190820180921161143857565b9060968202918083046096149015171561143857565b8181029291811591840414171561143857565b91908110156132a05760051b0190565b356001600160a01b038116810361039f5790565b5f1981146114385760010190565b60c0810190811067ffffffffffffffff821117610f8757604052565b610280810190811067ffffffffffffffff821117610f8757604052565b60e0810190811067ffffffffffffffff821117610f8757604052565b90601f8019910116810190811067ffffffffffffffff821117610f8757604052565b67ffffffffffffffff8111610f875760051b60200190565b60038210156108435752565b9190820391821161143857565b6135a1600d54600e5490613482565b804210156135b7576135b4904290613585565b90565b505f90565b906040516135c981613506565b80928054825260018060a01b03600182015416602083015260018060a01b036002820154166040830152600381015460608301526004810154608083015260058101548060010b60a08401528060101c60010b60c084015260ff8160201c1660e084015260ff8160281c1661010084015260ff8160301c1661012084015260ff8160381c16151561014084015260ff8160401c1661016084015260ff8160481c1661018084015260ff8160501c166004811015610843576101a084015260ff8160581c166002811015610843576101c084015260601c6101e08301526006810154610200830152600781015461022083015260088101546102408301526009015463ffffffff1661026090910152565b5f5260026020526136ec60405f206135bc565b6101a08101516004811015610843575f19016135b75761024001516010546135a191613482565b5190811515820361039f57565b5f52601660205260405f205480158015613744575b6135b7576135b4904290613585565b5080421015613735565b90815f52601460205260405f205481101561376c576135b491614710565b50505f90565b6040519061377f82613506565b5f610260838281528260208201528260408201528260608201528260808201528260a08201528260c08201528260e08201528261010082015282610120820152826101408201528261016082015282610180820152826101a0820152826101c0820152826101e08201528261020082015282610220820152826102408201520152565b8054600160401b811015610f875761381f916001820181556132b4565b9190916138e357805182546020830151610100600160a81b0360089190911b1660ff9092166001600160a81b03198216811783178555604084015192939291906003831015610843576060840151608085015160a09095015160d01b61ffff60d01b1660c09590951b61ffff60c01b1661ffff60b01b60b09290921b9190911660ff60a81b60a89590951b949094166001600160c01b03199390931661ffff60b01b1992909216919091179490941763ffffffff60c01b1916171791909117179055565b634e487b7160e01b5f525f60045260245ffd5b91604091949361391761ffff9260ff60608701981686526020860190613265565b16910152565b60ff1660ff81146114385760010190565b805f52600260205260405f2090600582019283549060ff8260501c1660048110156108435760018103610a0a5760021461419f5760018401546002850154336001600160a01b03928316811494929091161490831580614197575b6109f35760ff8160581c166002811015610843571561414f575b505060038110156108435780614013576139bd82856155fb565b8215613fea576139f96139de61ffff831660010b885460101c60010b6147d6565b879081549060101b63ffff0000169063ffff00001916179055565b426008860155835f526003602052613a5d60405f2087549060405191613a1e836134ea565b60ff8160201c168352336020840152613a3a8660408501613579565b61ffff851660608401528060010b608084015260101c60010b60a0830152613802565b855491847f4098e393a0e9d111279b0d880bb9ede47cc0304a549b3e044a2f8eace73a167f613a9c60ff8660201c1694604051918291339688846138f6565b0390a35f8260010b1391821592613fd7575b508115613fcb575b50613fbf5783549060ff8260581c166002811015610843576001149081613fb7575b50613b6b575b505050805460ff8160581c16600281101561084357613b585750805460ff60381b198116603891821c60ff161590911b60ff60381b1617815580549060ff8260381c16613b29575050565b613b3b60ff613b569360201c1661391d565b64ff0000000082549160201b169064ff000000001916179055565b565b90613b3b60ff613b569360201c1661391d565b8254601e54604051906020820192448452604083015260ff60f81b8460d81b1660608301524260618301523360601b608183015260958201526a30b4afb232b1b4b9b4b7b760a91b60b582015260a08152613bc760c08261353f565b51902060ff8260301c16908115918215613f95575b506064900691610104613bf48260101c60010b614dc5565b60010b058160010b5f81135f14613f8b5761012c613c13601992614dc5565b60010b05915b60010b1280613f81575b15613ebe575050505060025b5f60038210156108435781613d9957613c4881856155fb565b9015613d7057613c84613c6961ffff831660010b875460101c60010b6147d6565b869081549060101b63ffff0000169063ffff00001916179055565b90825f526003602052613ce360405f2086549060405191613ca4836134ea565b60ff8160201c168352306020840152613cc08560408501613579565b61ffff861660608401528060010b608084015260101c60010b60a0830152613802565b8454927f4098e393a0e9d111279b0d880bb9ede47cc0304a549b3e044a2f8eace73a167f613d2160ff8660201c1694604051918291309688846138f6565b0390a35f8260010b1391821592613d5d575b508115613d51575b50613d47578080613ade565b613b5691506147f1565b601e915010155f613d3b565b5f91925060101c60010b1315905f613d33565b613d8561ffff821660010b865460010b6147d6565b61ffff198654169061ffff16178555613c84565b60018203613e8f578015613e825760ff855460281c165b60ff811615159081613e64575b50613e5557613dcc818561513b565b9015613e0d57613ded613c6961ffff831660010b875460101c60010b6147d6565b845465ff000000000019811660089190911b60ff60281b16178555613c84565b613e2261ffff821660010b865460010b6147d6565b855460ff60301b61ffff19821661ffff9390931692831760101b1666ff00000000ffff1990911691909117178555613c84565b631bfa8cdd60e21b8152600490fd5b60039150613e7a60ff9182895460201c16614289565b16105f613dbd565b60ff855460301c16613db0565b5060028103613eaf57835460ff60481b1916600160491b1784555f613c84565b6321e08b4d60e21b5f5260045ffd5b8280613f73575b80613f69575b15613edb57505050506001613c2f565b829081613f5b575b5080613f51575b15613ef9575050506001613c2f565b60401c60ff16151580613f47575b15613f155750506002613c2f565b80613f3d575b15613f2857506001613c2f565b600f1115613f37576002613c2f565b5f613c2f565b50601e8110613f1b565b5060288210613f07565b50603c8310613eea565b601e915060010b125f613ee3565b5060328410613ecb565b5060ff8260401c1615613ec5565b50602d8410613c23565b5060195f91613c19565b606491925060ff613fad600392828760201c16614289565b1610159190613bdc565b90505f613ad8565b5050613b5691506147f1565b601e915010155f613ab6565b5f91925060101c60010b1315905f613aae565b613fff61ffff821660010b875460010b6147d6565b61ffff198754169061ffff161786556139f9565b600181036141095781156140fc5760ff855460281c165b60ff8116151590816140de575b506140cf57614046828561513b565b8215614087576140676139de61ffff831660010b885460101c60010b6147d6565b855465ff000000000019811660089190911b60ff60281b161786556139f9565b61409c61ffff821660010b875460010b6147d6565b865460ff60301b61ffff19821661ffff9390931692831760101b1666ff00000000ffff19909116919091171786556139f9565b631bfa8cdd60e21b5f5260045ffd5b600391506140f460ff9182895460201c16614289565b16105f614037565b60ff855460301c1661402a565b60028103613eaf57811561413957845468ff00000000000000001916680200000000000000001785555b5f6139f9565b845460ff60481b1916600160491b178555614133565b8380614189575b61416c578161417b575b5061416c575f806139a3565b631cc191eb60e31b5f5260045ffd5b60ff915060381c165f614160565b5060ff8160381c1615614156565b508115613989565b6306e1839960e11b5f5260045ffd5b80518210156132a05760209160051b010190565b519061ffff8216820361039f57565b519060ff8216820361039f57565b908161010091031261039f5760405190610100820182811067ffffffffffffffff821117610f87576142819160e09160405261421a816141c2565b8452614228602082016141c2565b6020850152614239604082016141c2565b604085015261424a606082016141c2565b606085015261425b608082016141d1565b608085015261426c60a082016141d1565b60a085015260c081015160c085015201613713565b60e082015290565b9060ff8091169116039060ff821161143857565b5f5260026020526142b060405f206135bc565b90156142ea5760ff610100820151165b60ff8116156142e3576142dd60ff918260e0600395015116614289565b16101590565b5050600190565b60ff610120820151166142c0565b60025f51602061597d5f395f51905f5254146143215760025f51602061597d5f395f51905f5255565b633ee5aeb560e01b5f5260045ffd5b811561433a570490565b634e487b7160e01b5f52601260045260245ffd5b6007549081156144475761436e60209263ffffffff6143d69516906134a5565b906143a2612710614381600854856134a5565b0461439761438f8286613585565b600a54613585565b600a55600b54613585565b600b5560405163a9059cbb60e01b81526001600160a01b039091166004820152602481019190915291829081906044820190565b03815f7f00000000000000000000000000000000000000000000000000000000000000006001600160a01b03165af180156105e3576144125750565b6020813d60201161443f575b8161442b6020938361353f565b8101031261039f5761443c90613713565b50565b3d915061441e565b505050565b5f546001600160a01b0316330361445f57565b63118cdaa760e01b5f523360045260245ffd5b63ffffffff1663ffffffff81146114385760010190565b60018060a01b0381165f52600460205260405f206144fe6144de63ffffffff835467ffffffff000000006144c1838360201c16614472565b60201b169067ffffffff0000000019161780855560601c16614472565b825463ffffffff60601b191660609190911b63ffffffff60601b16178255565b805463ffffffff60801b19169055600c545f908152601d602090815260408083206001600160a01b03909416835292905220805460ff19166001179055565b9063ffffffff8091169116019063ffffffff821161143857565b919060018060a01b0383165f52600460205260405f2063ffffffff61457f848284541661453d565b1663ffffffff198254161781556145a26144de63ffffffff835460601c16614472565b6145b68363ffffffff835460801c1661453d565b815463ffffffff60801b1916608091821b63ffffffff60801b16178083559060a082901c63ffffffff9081169183901c16116146ec575b5050600c545f52601a60205260405f2060018060a01b0384165f5260205260405f2063ffffffff614621848284541661453d565b1663ffffffff198254161790556002811015610843576146a857600c545f52601b60205260405f2060018060a01b0383165f5260205263ffffffff61466d60405f20928284541661453d565b1663ffffffff198254161790555b600c545f52601d60205260405f209060018060a01b03165f5260205260405f20600160ff19825416179055565b600c545f52601c60205260405f2060018060a01b0383165f5260205263ffffffff6146da60405f20928284541661453d565b1663ffffffff1982541617905561467b565b63ffffffff60a01b19811660209190911b63ffffffff60a01b161790555f806145ed565b5f90815260156020908152604080832054601383528184206014909352922054815492939290818410156147625750509161475161475e92612710946132b4565b90549060031b1c906134a5565b0490565b919092505f905f905b8482106147af575050612710039161271083116114385761478b91613585565b9081156147a8576147a2612710916135b4946134a5565b04614330565b5050505f90565b90916147ce6001916147c185856132b4565b90549060031b1c90613482565b92019061476b565b600191820b910b0390617fff198212617fff83131761143857565b60058101805460ff60501b1916600160511b17808255426007840155909190600181900b905f82131580614db5575b15614ca25750506001600160601b0382541682556001810160018060a01b038154165f52600460205261488260405f2061486363ffffffff825460401c16614472565b63ffffffff60401b82549160401b169063ffffffff60401b1916179055565b60018060a01b038154165f5260046020526148cd60405f206148ad63ffffffff825460601c16614472565b815463ffffffff60601b191660609190911b63ffffffff60601b16179055565b6002820180549091906001600160a01b0316308103614c50575b50600754806149eb575b50600c545f908152601d6020908152604080832093546001600160a01b039081168452939091529020805460ff191660011790559054163081036149ba575b505b60018101546001600160a01b039081165f908152600560205260408120556002820154163081036149a7575b5061496a601e546134dc565b601e55549054907f6ece8c7a0814e499368677abb88c44f55f86f4bdb83665cb2bbee15321ae78d860206040519360ff81831c16855260601c93a3565b5f5260056020525f60408120555f61495e565b600c545f52601d60205260405f209060018060a01b03165f5260205260405f20600160ff198254161790555f614930565b614a009063ffffffff600986015416906134a5565b6123288102818104612328148215171561143857612710614abc910491614a278382613585565b90614a42612710614a3a600854846134a5565b048092613585565b90614a4f82600a54613585565b600a55614a5e81600b54613585565b600b55855460405163a9059cbb60e01b81526001600160a01b03918216600482015260248101879052947f00000000000000000000000000000000000000000000000000000000000000009091169290602090869081906044820190565b03815f875af19485156105e3578695614c16575b50614add84600b54613482565b600b81905588546001600160a01b03163014614bea575091614b0b614b479592614397602095600a54613585565b600b55875460405163a9059cbb60e01b81526001600160a01b0390911660048201526024810192909252909384919082905f9082906044820190565b03925af180156105e357614baf575b614b639150600b54613482565b600b555b8354825484546040519384526001600160a01b0390811693911691907f2e91a1e08392dd2f4c3eb859b538f20eff0b5912c0503f661707cc6e25d197ed90602090a45f6148f1565b6020823d602011614be2575b81614bc86020938361353f565b8101031261039f57614bdc614b6392613713565b50614b56565b3d9150614bbb565b90614c0e9550614c099350614c0190600a54613585565b600a55613585565b613482565b600b55614b67565b94506020853d602011614c48575b81614c316020938361353f565b8101031261039f57614c438695613713565b614ad0565b3d9150614c24565b5f526004602052614c7160405f2061486363ffffffff825460401c16614472565b60018060a01b038254165f526004602052614c9c60405f206148ad63ffffffff825460601c16614472565b5f6148e7565b60101c60010b5f811391821592614dab575b505015614d355760018101805483546001600160601b031660609190911b6001600160601b031916178355614d0a90548354600984015463ffffffff169160589190911c60ff16906001600160a01b0316614557565b60028101546001600160a01b0316308103614d26575b50614932565b614d2f90614489565b5f614d20565b60028101805483546001600160601b031660609190911b6001600160601b031916178355546001600160a01b0316308103614d88575b506001810154614d83906001600160a01b0316614489565b614932565b614da59060ff845460581c1663ffffffff60098501541691614557565b5f614d6b565b1390505f80614cb4565b505f8160101c60010b1315614820565b60649060010b02908160010b91820361143857565b6040516331a9108f60e11b8152600481018390527f00000000000000000000000000000000000000000000000000000000000000006001600160a01b03169291602082602481875afa9182156105e3575f92614eb9575b506001600160a01b03908116911603614eaa5761010090602460405180948193636a24447f60e11b835260048301525afa80156105e35760e0915f91614e8b575b50015115614e7c57565b630cc71c2960e11b5f5260045ffd5b614ea491506101003d8111610c9357610c84818361353f565b5f614e72565b638f0f029b60e01b5f5260045ffd5b9091506020813d602011614ef5575b81614ed56020938361353f565b8101031261039f57516001600160a01b038116810361039f57905f614e31565b3d9150614ec8565b906007549081156144475763ffffffff614f19911680926134a5565b906001811115615124575f190163ffffffff811161143857600954614f439163ffffffff166134a5565b905b614f4f8282613482565b604051636eb1769f60e11b81526001600160a01b03948516600482018190523060248301529491927f00000000000000000000000000000000000000000000000000000000000000009092169190602081604481865afa80156105e35784915f916150ef575b50106150e0575f6020614fd8612710614fd0600854866134a5565b048094613585565b936064604051809481936323b872dd60e01b83528b60048401523060248401528960448401525af180156105e357615076575b50906150627f0662b8686f5a56f0acf339ed89dc0000ec2e51d0960e10ef41643917b6608090946060949361504284600a54613482565b600a5561505a6150528383613482565b600b54613482565b600b55613482565b9060405192835260208301526040820152a2565b602093929193813d6020116150d8575b816150936020938361353f565b8101031261039f577f0662b8686f5a56f0acf339ed89dc0000ec2e51d0960e10ef41643917b6608090946060946150cc61506293613713565b5092939450945061500b565b3d9150615086565b6313be252b60e01b5f5260045ffd5b9150506020813d60201161511c575b8161510b6020938361353f565b8101031261039f578390515f614fb5565b3d91506150fe565b505f90614f45565b60ff168015611438575f190190565b908015615472576003820154604051636a24447f60e11b815260048101919091527f00000000000000000000000000000000000000000000000000000000000000006001600160a01b0316919061010081602481865afa9081156105e3575f91615453575b5060ff608061ffff835116920151169260058501549060ff8260581c166002811015610843576001036153e95750845490604051906020820192448452604083015260ff60f81b9060d81b1660608201523360601b6061820152623232b360e91b60758201526058815261521560788261353f565b51902060328106601e0180601e116114385760ff600661ffff809316930616925b16906064820291808304606414901517156114385761ffff16606401806064116114385761526391614330565b60b481029080820460b4149015171561143857606460ff910493165f52600660205260ff8060405f2054169116146153d6575b80806153c3575b1561535757600560159260011c936152da8282016152c160ff825460481c1661512c565b60ff60481b82549160481b169060ff60481b1916179055565b01549060405190602082019242845260ff60f81b9060d81b166040830152151560f81b60418201526022815261531160428261353f565b51902006605a019081605a116114385760649161532d916134a5565b046005811061534f575b61ffff811115615348575061ffff90565b61ffff1690565b506005615337565b8015806153b0575b61536f575b6005601592936152da565b600560159260011c936153a782820161538e60ff825460401c1661512c565b60ff60401b82549160401b169060ff60401b1916179055565b93925050615364565b5060ff600584015460401c16151561535f565b5060ff600584015460481c16151561529d565b906153e260649161348f565b0490615296565b90506101006004860154602460405180948193636a24447f60e11b835260048301525afa9081156105e3575f91615434575b5061ffff60ff6080826020850151169301511692615236565b61544d91506101003d8111610c9357610c84818361353f565b5f61541b565b61546c91506101003d8111610c9357610c84818361353f565b5f6151a0565b600582015460ff8160581c1660028110156108435760010361556b57825490604051906020820192448452604083015260ff60f81b9060d81b1660608201523360601b606182015264616961746b60d81b6075820152605a81526154d7607a8261353f565b5190209060378206601e0180601e1161143857600661ffff60ff9216930616915b6003840154604051636a24447f60e11b81526004810191909152610100816024817f00000000000000000000000000000000000000000000000000000000000000006001600160a01b03165afa9081156105e3575f91615434575061ffff60ff6080826020850151169301511692615236565b50600482810154604051636a24447f60e11b81529182015290610100826024817f00000000000000000000000000000000000000000000000000000000000000006001600160a01b03165afa9182156105e3575f926155da575b5060ff608061ffff84511693015116916154f8565b6155f49192506101003d8111610c9357610c84818361353f565b905f6155c5565b9080156157f3576003820154604051636a24447f60e11b815260048101919091527f00000000000000000000000000000000000000000000000000000000000000006001600160a01b0316919061010081602481865afa9081156105e3575f916157d4575b5060ff608061ffff835116920151169260058501549060ff8260581c1660028110156108435760010361576a5750845490604051906020820192448452604083015260ff60f81b9060d81b1660608201523360601b6061820152623232b360e91b6075820152605881526156d560788261353f565b51902060328106601e0180601e116114385760ff600661ffff809316930616925b16906064820291808304606414901517156114385761ffff1660640190816064116114385760ff9161572791614330565b93165f52600660205260ff8060405f2054169116146153d65780806153c3571561535757600560159260011c936152da8282016152c160ff825460481c1661512c565b90506101006004860154602460405180948193636a24447f60e11b835260048301525afa9081156105e3575f916157b5575b5061ffff60ff60808260208501511693015116926156f6565b6157ce91506101003d8111610c9357610c84818361353f565b5f61579c565b6157ed91506101003d8111610c9357610c84818361353f565b5f615660565b600582015460ff8160581c166002811015610843576001036158ec57825490604051906020820192448452604083015260ff60f81b9060d81b1660608201523360601b606182015264616961746b60d81b6075820152605a8152615858607a8261353f565b5190209060378206601e0180601e1161143857600661ffff60ff9216930616915b6003840154604051636a24447f60e11b81526004810191909152610100816024817f00000000000000000000000000000000000000000000000000000000000000006001600160a01b03165afa9081156105e3575f916157b5575061ffff60ff60808260208501511693015116926156f6565b50600482810154604051636a24447f60e11b81529182015290610100826024817f00000000000000000000000000000000000000000000000000000000000000006001600160a01b03165afa9182156105e3575f9261595b575b5060ff608061ffff8451169301511691615879565b6159759192506101003d8111610c9357610c84818361353f565b905f61594656fe9b779b17422d0df92223018b32b4d1fa46e071723d6817e2486d003becc55f00a26469706673582212200f5b72e1f040f62744604766457f7fd1fdd7e4d349731ae909994410987054f864736f6c634300081c0033",
  "linkReferences": {},
  "deployedLinkReferences": {},
  "immutableReferences": {
    "8410": [
      {
        "length": 32,
        "start": 2846
      },
      {
        "length": 32,
        "start": 4266
      },
      {
        "length": 32,
        "start": 5425
      },
      {
        "length": 32,
        "start": 7050
      },
      {
        "length": 32,
        "start": 19952
      },
      {
        "length": 32,
        "start": 20830
      },
      {
        "length": 32,
        "start": 21787
      },
      {
        "length": 32,
        "start": 21901
      },
      {
        "length": 32,
        "start": 22046
      },
      {
        "length": 32,
        "start": 22684
      },
      {
        "length": 32,
        "start": 22798
      }
    ],
    "8413": [
      {
        "length": 32,
        "start": 1401
      },
      {
        "length": 32,
        "start": 8226
      },
      {
        "length": 32,
        "start": 8469
      },
      {
        "length": 32,
        "start": 9487
      },
      {
        "length": 32,
        "start": 17371
      },
      {
        "length": 32,
        "start": 19082
      },
      {
        "length": 32,
        "start": 20345
      }
    ]
  },
  "inputSourceName": "project/contracts/BattleArena.sol",
  "buildInfoId": "solc-0_8_28-4911e08109160df16254e5e9095024bd8b6847de"
}