{
  "_format": "hh3-artifact-1",
  "contractName": "WhalemonMarket",
  "sourceName": "contracts/Marketplace.sol",
  "abi": [
    {
      "inputs": [
        {
          "internalType": "address",
          "name": "_whaleCards",
          "type": "address"
        },
        {
          "internalType": "address",
          "name": "_pathUSD",
          "type": "address"
        }
      ],
      "stateMutability": "nonpayable",
      "type": "constructor"
    },
    {
      "inputs": [],
      "name": "AccountBlacklisted",
      "type": "error"
    },
    {
      "inputs": [],
      "name": "CannotBuyOwnCard",
      "type": "error"
    },
    {
      "inputs": [],
      "name": "CardAlreadyListed",
      "type": "error"
    },
    {
      "inputs": [],
      "name": "CardNotApproved",
      "type": "error"
    },
    {
      "inputs": [],
      "name": "InsufficientPayment",
      "type": "error"
    },
    {
      "inputs": [],
      "name": "InvalidFee",
      "type": "error"
    },
    {
      "inputs": [],
      "name": "ListingNotActive",
      "type": "error"
    },
    {
      "inputs": [],
      "name": "NoFeesToWithdraw",
      "type": "error"
    },
    {
      "inputs": [],
      "name": "NotCardOwner",
      "type": "error"
    },
    {
      "inputs": [],
      "name": "NotOfferer",
      "type": "error"
    },
    {
      "inputs": [],
      "name": "NotSeller",
      "type": "error"
    },
    {
      "inputs": [],
      "name": "OfferExpired",
      "type": "error"
    },
    {
      "inputs": [],
      "name": "OfferNotActive",
      "type": "error"
    },
    {
      "inputs": [
        {
          "internalType": "address",
          "name": "owner",
          "type": "address"
        }
      ],
      "name": "OwnableInvalidOwner",
      "type": "error"
    },
    {
      "inputs": [
        {
          "internalType": "address",
          "name": "account",
          "type": "address"
        }
      ],
      "name": "OwnableUnauthorizedAccount",
      "type": "error"
    },
    {
      "inputs": [],
      "name": "PriceTooLow",
      "type": "error"
    },
    {
      "inputs": [],
      "name": "ReentrancyGuardReentrantCall",
      "type": "error"
    },
    {
      "anonymous": false,
      "inputs": [
        {
          "indexed": true,
          "internalType": "address",
          "name": "account",
          "type": "address"
        },
        {
          "indexed": false,
          "internalType": "bool",
          "name": "status",
          "type": "bool"
        }
      ],
      "name": "Blacklisted",
      "type": "event"
    },
    {
      "anonymous": false,
      "inputs": [
        {
          "indexed": true,
          "internalType": "uint256",
          "name": "listingId",
          "type": "uint256"
        },
        {
          "indexed": true,
          "internalType": "uint256",
          "name": "cardId",
          "type": "uint256"
        },
        {
          "indexed": true,
          "internalType": "address",
          "name": "seller",
          "type": "address"
        },
        {
          "indexed": false,
          "internalType": "uint256",
          "name": "price",
          "type": "uint256"
        }
      ],
      "name": "CardListed",
      "type": "event"
    },
    {
      "anonymous": false,
      "inputs": [
        {
          "indexed": true,
          "internalType": "uint256",
          "name": "listingId",
          "type": "uint256"
        },
        {
          "indexed": true,
          "internalType": "uint256",
          "name": "cardId",
          "type": "uint256"
        },
        {
          "indexed": false,
          "internalType": "address",
          "name": "seller",
          "type": "address"
        },
        {
          "indexed": true,
          "internalType": "address",
          "name": "buyer",
          "type": "address"
        },
        {
          "indexed": false,
          "internalType": "uint256",
          "name": "price",
          "type": "uint256"
        }
      ],
      "name": "CardSold",
      "type": "event"
    },
    {
      "anonymous": false,
      "inputs": [
        {
          "indexed": true,
          "internalType": "address",
          "name": "to",
          "type": "address"
        },
        {
          "indexed": false,
          "internalType": "uint256",
          "name": "amount",
          "type": "uint256"
        }
      ],
      "name": "FeesWithdrawn",
      "type": "event"
    },
    {
      "anonymous": false,
      "inputs": [
        {
          "indexed": true,
          "internalType": "uint256",
          "name": "listingId",
          "type": "uint256"
        },
        {
          "indexed": true,
          "internalType": "uint256",
          "name": "cardId",
          "type": "uint256"
        }
      ],
      "name": "ListingCancelled",
      "type": "event"
    },
    {
      "anonymous": false,
      "inputs": [
        {
          "indexed": true,
          "internalType": "uint256",
          "name": "listingId",
          "type": "uint256"
        },
        {
          "indexed": false,
          "internalType": "uint256",
          "name": "oldPrice",
          "type": "uint256"
        },
        {
          "indexed": false,
          "internalType": "uint256",
          "name": "newPrice",
          "type": "uint256"
        }
      ],
      "name": "ListingPriceUpdated",
      "type": "event"
    },
    {
      "anonymous": false,
      "inputs": [
        {
          "indexed": true,
          "internalType": "uint256",
          "name": "offerId",
          "type": "uint256"
        },
        {
          "indexed": true,
          "internalType": "uint256",
          "name": "cardId",
          "type": "uint256"
        },
        {
          "indexed": false,
          "internalType": "address",
          "name": "seller",
          "type": "address"
        },
        {
          "indexed": false,
          "internalType": "address",
          "name": "buyer",
          "type": "address"
        },
        {
          "indexed": false,
          "internalType": "uint256",
          "name": "amount",
          "type": "uint256"
        }
      ],
      "name": "OfferAccepted",
      "type": "event"
    },
    {
      "anonymous": false,
      "inputs": [
        {
          "indexed": true,
          "internalType": "uint256",
          "name": "offerId",
          "type": "uint256"
        }
      ],
      "name": "OfferCancelled",
      "type": "event"
    },
    {
      "anonymous": false,
      "inputs": [
        {
          "indexed": true,
          "internalType": "uint256",
          "name": "offerId",
          "type": "uint256"
        },
        {
          "indexed": true,
          "internalType": "uint256",
          "name": "cardId",
          "type": "uint256"
        },
        {
          "indexed": true,
          "internalType": "address",
          "name": "offerer",
          "type": "address"
        },
        {
          "indexed": false,
          "internalType": "uint256",
          "name": "amount",
          "type": "uint256"
        }
      ],
      "name": "OfferMade",
      "type": "event"
    },
    {
      "anonymous": false,
      "inputs": [
        {
          "indexed": true,
          "internalType": "address",
          "name": "previousOwner",
          "type": "address"
        },
        {
          "indexed": true,
          "internalType": "address",
          "name": "newOwner",
          "type": "address"
        }
      ],
      "name": "OwnershipTransferred",
      "type": "event"
    },
    {
      "inputs": [],
      "name": "MAX_FEE_BPS",
      "outputs": [
        {
          "internalType": "uint256",
          "name": "",
          "type": "uint256"
        }
      ],
      "stateMutability": "view",
      "type": "function"
    },
    {
      "inputs": [],
      "name": "MIN_PRICE",
      "outputs": [
        {
          "internalType": "uint256",
          "name": "",
          "type": "uint256"
        }
      ],
      "stateMutability": "view",
      "type": "function"
    },
    {
      "inputs": [
        {
          "internalType": "uint256",
          "name": "offerId",
          "type": "uint256"
        }
      ],
      "name": "acceptOffer",
      "outputs": [],
      "stateMutability": "nonpayable",
      "type": "function"
    },
    {
      "inputs": [],
      "name": "accumulatedFees",
      "outputs": [
        {
          "internalType": "uint256",
          "name": "",
          "type": "uint256"
        }
      ],
      "stateMutability": "view",
      "type": "function"
    },
    {
      "inputs": [
        {
          "internalType": "address",
          "name": "",
          "type": "address"
        }
      ],
      "name": "blacklisted",
      "outputs": [
        {
          "internalType": "bool",
          "name": "",
          "type": "bool"
        }
      ],
      "stateMutability": "view",
      "type": "function"
    },
    {
      "inputs": [
        {
          "internalType": "uint256",
          "name": "listingId",
          "type": "uint256"
        }
      ],
      "name": "buyCard",
      "outputs": [],
      "stateMutability": "nonpayable",
      "type": "function"
    },
    {
      "inputs": [
        {
          "internalType": "uint256",
          "name": "listingId",
          "type": "uint256"
        }
      ],
      "name": "cancelListing",
      "outputs": [],
      "stateMutability": "nonpayable",
      "type": "function"
    },
    {
      "inputs": [
        {
          "internalType": "uint256",
          "name": "offerId",
          "type": "uint256"
        }
      ],
      "name": "cancelOffer",
      "outputs": [],
      "stateMutability": "nonpayable",
      "type": "function"
    },
    {
      "inputs": [
        {
          "internalType": "uint256",
          "name": "",
          "type": "uint256"
        },
        {
          "internalType": "uint256",
          "name": "",
          "type": "uint256"
        }
      ],
      "name": "cardOffers",
      "outputs": [
        {
          "internalType": "uint256",
          "name": "",
          "type": "uint256"
        }
      ],
      "stateMutability": "view",
      "type": "function"
    },
    {
      "inputs": [
        {
          "internalType": "uint256",
          "name": "",
          "type": "uint256"
        }
      ],
      "name": "cardToListing",
      "outputs": [
        {
          "internalType": "uint256",
          "name": "",
          "type": "uint256"
        }
      ],
      "stateMutability": "view",
      "type": "function"
    },
    {
      "inputs": [
        {
          "internalType": "uint256",
          "name": "cardId",
          "type": "uint256"
        }
      ],
      "name": "getActiveCardOffers",
      "outputs": [
        {
          "components": [
            {
              "internalType": "uint256",
              "name": "offerId",
              "type": "uint256"
            },
            {
              "internalType": "uint256",
              "name": "cardId",
              "type": "uint256"
            },
            {
              "internalType": "address",
              "name": "offerer",
              "type": "address"
            },
            {
              "internalType": "uint256",
              "name": "amount",
              "type": "uint256"
            },
            {
              "internalType": "uint256",
              "name": "expiresAt",
              "type": "uint256"
            },
            {
              "internalType": "bool",
              "name": "accepted",
              "type": "bool"
            },
            {
              "internalType": "bool",
              "name": "cancelled",
              "type": "bool"
            }
          ],
          "internalType": "struct WhalemonMarket.Offer[]",
          "name": "",
          "type": "tuple[]"
        }
      ],
      "stateMutability": "view",
      "type": "function"
    },
    {
      "inputs": [
        {
          "internalType": "uint256",
          "name": "offset",
          "type": "uint256"
        },
        {
          "internalType": "uint256",
          "name": "limit",
          "type": "uint256"
        }
      ],
      "name": "getActiveListings",
      "outputs": [
        {
          "components": [
            {
              "internalType": "uint256",
              "name": "listingId",
              "type": "uint256"
            },
            {
              "internalType": "uint256",
              "name": "cardId",
              "type": "uint256"
            },
            {
              "internalType": "address",
              "name": "seller",
              "type": "address"
            },
            {
              "internalType": "uint256",
              "name": "price",
              "type": "uint256"
            },
            {
              "internalType": "enum WhalemonMarket.ListingStatus",
              "name": "status",
              "type": "uint8"
            },
            {
              "internalType": "address",
              "name": "buyer",
              "type": "address"
            },
            {
              "internalType": "uint256",
              "name": "createdAt",
              "type": "uint256"
            },
            {
              "internalType": "uint256",
              "name": "soldAt",
              "type": "uint256"
            }
          ],
          "internalType": "struct WhalemonMarket.Listing[]",
          "name": "",
          "type": "tuple[]"
        }
      ],
      "stateMutability": "view",
      "type": "function"
    },
    {
      "inputs": [
        {
          "internalType": "uint256",
          "name": "cardId",
          "type": "uint256"
        }
      ],
      "name": "getCardOffers",
      "outputs": [
        {
          "components": [
            {
              "internalType": "uint256",
              "name": "offerId",
              "type": "uint256"
            },
            {
              "internalType": "uint256",
              "name": "cardId",
              "type": "uint256"
            },
            {
              "internalType": "address",
              "name": "offerer",
              "type": "address"
            },
            {
              "internalType": "uint256",
              "name": "amount",
              "type": "uint256"
            },
            {
              "internalType": "uint256",
              "name": "expiresAt",
              "type": "uint256"
            },
            {
              "internalType": "bool",
              "name": "accepted",
              "type": "bool"
            },
            {
              "internalType": "bool",
              "name": "cancelled",
              "type": "bool"
            }
          ],
          "internalType": "struct WhalemonMarket.Offer[]",
          "name": "",
          "type": "tuple[]"
        }
      ],
      "stateMutability": "view",
      "type": "function"
    },
    {
      "inputs": [],
      "name": "getMarketStats",
      "outputs": [
        {
          "components": [
            {
              "internalType": "uint256",
              "name": "totalVolume",
              "type": "uint256"
            },
            {
              "internalType": "uint256",
              "name": "totalSales",
              "type": "uint256"
            },
            {
              "internalType": "uint256",
              "name": "totalListings",
              "type": "uint256"
            },
            {
              "internalType": "uint256",
              "name": "totalOffers",
              "type": "uint256"
            }
          ],
          "internalType": "struct WhalemonMarket.MarketStats",
          "name": "",
          "type": "tuple"
        }
      ],
      "stateMutability": "view",
      "type": "function"
    },
    {
      "inputs": [
        {
          "internalType": "uint256",
          "name": "limit",
          "type": "uint256"
        }
      ],
      "name": "getRecentSales",
      "outputs": [
        {
          "components": [
            {
              "internalType": "uint256",
              "name": "listingId",
              "type": "uint256"
            },
            {
              "internalType": "uint256",
              "name": "cardId",
              "type": "uint256"
            },
            {
              "internalType": "address",
              "name": "seller",
              "type": "address"
            },
            {
              "internalType": "uint256",
              "name": "price",
              "type": "uint256"
            },
            {
              "internalType": "enum WhalemonMarket.ListingStatus",
              "name": "status",
              "type": "uint8"
            },
            {
              "internalType": "address",
              "name": "buyer",
              "type": "address"
            },
            {
              "internalType": "uint256",
              "name": "createdAt",
              "type": "uint256"
            },
            {
              "internalType": "uint256",
              "name": "soldAt",
              "type": "uint256"
            }
          ],
          "internalType": "struct WhalemonMarket.Listing[]",
          "name": "",
          "type": "tuple[]"
        }
      ],
      "stateMutability": "view",
      "type": "function"
    },
    {
      "inputs": [
        {
          "internalType": "uint256",
          "name": "cardId",
          "type": "uint256"
        },
        {
          "internalType": "uint256",
          "name": "price",
          "type": "uint256"
        }
      ],
      "name": "listCard",
      "outputs": [
        {
          "internalType": "uint256",
          "name": "",
          "type": "uint256"
        }
      ],
      "stateMutability": "nonpayable",
      "type": "function"
    },
    {
      "inputs": [
        {
          "internalType": "uint256",
          "name": "",
          "type": "uint256"
        }
      ],
      "name": "listings",
      "outputs": [
        {
          "internalType": "uint256",
          "name": "listingId",
          "type": "uint256"
        },
        {
          "internalType": "uint256",
          "name": "cardId",
          "type": "uint256"
        },
        {
          "internalType": "address",
          "name": "seller",
          "type": "address"
        },
        {
          "internalType": "uint256",
          "name": "price",
          "type": "uint256"
        },
        {
          "internalType": "enum WhalemonMarket.ListingStatus",
          "name": "status",
          "type": "uint8"
        },
        {
          "internalType": "address",
          "name": "buyer",
          "type": "address"
        },
        {
          "internalType": "uint256",
          "name": "createdAt",
          "type": "uint256"
        },
        {
          "internalType": "uint256",
          "name": "soldAt",
          "type": "uint256"
        }
      ],
      "stateMutability": "view",
      "type": "function"
    },
    {
      "inputs": [
        {
          "internalType": "uint256",
          "name": "cardId",
          "type": "uint256"
        },
        {
          "internalType": "uint256",
          "name": "amount",
          "type": "uint256"
        },
        {
          "internalType": "uint256",
          "name": "duration",
          "type": "uint256"
        }
      ],
      "name": "makeOffer",
      "outputs": [
        {
          "internalType": "uint256",
          "name": "",
          "type": "uint256"
        }
      ],
      "stateMutability": "nonpayable",
      "type": "function"
    },
    {
      "inputs": [],
      "name": "marketStats",
      "outputs": [
        {
          "internalType": "uint256",
          "name": "totalVolume",
          "type": "uint256"
        },
        {
          "internalType": "uint256",
          "name": "totalSales",
          "type": "uint256"
        },
        {
          "internalType": "uint256",
          "name": "totalListings",
          "type": "uint256"
        },
        {
          "internalType": "uint256",
          "name": "totalOffers",
          "type": "uint256"
        }
      ],
      "stateMutability": "view",
      "type": "function"
    },
    {
      "inputs": [],
      "name": "nextListingId",
      "outputs": [
        {
          "internalType": "uint256",
          "name": "",
          "type": "uint256"
        }
      ],
      "stateMutability": "view",
      "type": "function"
    },
    {
      "inputs": [],
      "name": "nextOfferId",
      "outputs": [
        {
          "internalType": "uint256",
          "name": "",
          "type": "uint256"
        }
      ],
      "stateMutability": "view",
      "type": "function"
    },
    {
      "inputs": [
        {
          "internalType": "uint256",
          "name": "",
          "type": "uint256"
        }
      ],
      "name": "offers",
      "outputs": [
        {
          "internalType": "uint256",
          "name": "offerId",
          "type": "uint256"
        },
        {
          "internalType": "uint256",
          "name": "cardId",
          "type": "uint256"
        },
        {
          "internalType": "address",
          "name": "offerer",
          "type": "address"
        },
        {
          "internalType": "uint256",
          "name": "amount",
          "type": "uint256"
        },
        {
          "internalType": "uint256",
          "name": "expiresAt",
          "type": "uint256"
        },
        {
          "internalType": "bool",
          "name": "accepted",
          "type": "bool"
        },
        {
          "internalType": "bool",
          "name": "cancelled",
          "type": "bool"
        }
      ],
      "stateMutability": "view",
      "type": "function"
    },
    {
      "inputs": [],
      "name": "owner",
      "outputs": [
        {
          "internalType": "address",
          "name": "",
          "type": "address"
        }
      ],
      "stateMutability": "view",
      "type": "function"
    },
    {
      "inputs": [],
      "name": "pathUSD",
      "outputs": [
        {
          "internalType": "contract IPATHUSD",
          "name": "",
          "type": "address"
        }
      ],
      "stateMutability": "view",
      "type": "function"
    },
    {
      "inputs": [],
      "name": "platformFeeBps",
      "outputs": [
        {
          "internalType": "uint256",
          "name": "",
          "type": "uint256"
        }
      ],
      "stateMutability": "view",
      "type": "function"
    },
    {
      "inputs": [],
      "name": "renounceOwnership",
      "outputs": [],
      "stateMutability": "nonpayable",
      "type": "function"
    },
    {
      "inputs": [
        {
          "internalType": "address",
          "name": "account",
          "type": "address"
        },
        {
          "internalType": "bool",
          "name": "status",
          "type": "bool"
        }
      ],
      "name": "setBlacklist",
      "outputs": [],
      "stateMutability": "nonpayable",
      "type": "function"
    },
    {
      "inputs": [
        {
          "internalType": "uint256",
          "name": "_feeBps",
          "type": "uint256"
        }
      ],
      "name": "setPlatformFee",
      "outputs": [],
      "stateMutability": "nonpayable",
      "type": "function"
    },
    {
      "inputs": [
        {
          "internalType": "address",
          "name": "newOwner",
          "type": "address"
        }
      ],
      "name": "transferOwnership",
      "outputs": [],
      "stateMutability": "nonpayable",
      "type": "function"
    },
    {
      "inputs": [
        {
          "internalType": "uint256",
          "name": "listingId",
          "type": "uint256"
        },
        {
          "internalType": "uint256",
          "name": "newPrice",
          "type": "uint256"
        }
      ],
      "name": "updateListingPrice",
      "outputs": [],
      "stateMutability": "nonpayable",
      "type": "function"
    },
    {
      "inputs": [],
      "name": "whaleCards",
      "outputs": [
        {
          "internalType": "contract IWhaleCards",
          "name": "",
          "type": "address"
        }
      ],
      "stateMutability": "view",
      "type": "function"
    },
    {
      "inputs": [
        {
          "internalType": "address",
          "name": "to",
          "type": "address"
        }
      ],
      "name": "withdrawFees",
      "outputs": [],
      "stateMutability": "nonpayable",
      "type": "function"
    }
  ],
  "bytecode": "0x60c03461014557601f61245b38819003918201601f19168301916001600160401b0383118484101761014957808492604094855283398101031261014557610052602061004b8361015d565b920161015d565b3315610132575f8054336001600160a01b0319821681178355604051949290916001600160a01b0316907f8be0079c531659141344cd1fd0a4f28419497f9722a3daafe3b4186f6b6457e09080a360017f9b779b17422d0df92223018b32b4d1fa46e071723d6817e2486d003becc55f0081905560fa90556001600160a01b039081166080521660a0526122e99081610172823960805181818161036b0152818161074201528181610b5f0152818161100001526114bb015260a0518181816107b301528181610bf501528181610f55015281816116f00152611a640152f35b631e4fbdf760e01b5f525f60045260245ffd5b5f80fd5b634e487b7160e01b5f52604160045260245ffd5b51906001600160a01b03821682036101455756fe6080806040526004361015610012575f80fd5b5f905f3560e01c9081630316e81614611bbc5750806312e8e2c314611b83578063153b0d1e14611afd578063164e68de14611a0457806322dcd13e146119e75780632d7257dc146119bd578063305a67a81461192d5780634c6410fe146118ef578063587f5ed7146118d25780635f5d0655146118b5578063715018a61461185e57806378350ad51461171f5780637b008d3b146116db5780637ea9d1ce146116a55780637eab05bb1461158c5780638a72ea6a146115115780638da5cb5b146114ea57806396a92858146114a6578063aaccf1ec14611489578063ad9f20a614611468578063c128b231146112f6578063c46049431461124b578063c70f5eaa14610ebc578063c815729d14610ae2578063d55be8c614610ac5578063dbac26e914610a86578063de74e57b146109f5578063e210a72d146106e4578063ed36c52f1461032a578063ef706adf14610284578063f2fde38b146101fe5763ff4cd5b91461017e575f80fd5b346101fb57806003193601126101fb57606060405161019c81611fa2565b828152826020820152826040820152015260806040516101bb81611fa2565b60095490818152600a5460208201908152600b5490604083019182526060600c549301928352604051938452516020840152516040830152516060820152f35b80fd5b50346101fb5760203660031901126101fb57610218611e59565b610220612235565b6001600160a01b031680156102705781546001600160a01b03198116821783556001600160a01b03167f8be0079c531659141344cd1fd0a4f28419497f9722a3daafe3b4186f6b6457e08380a380f35b631e4fbdf760e01b82526004829052602482fd5b50346101fb5760203660031901126101fb5760043580825260056020526040822060028101546001600160a01b0316330361031b57600501805460ff8116801561030e575b6102ff5761ff0019166101001790557fc28b4aed030bfacc245c0501326e1beb8c0ef0d60e4edc21067fdeb52da2a7aa8280a280f35b634d80826b60e11b8452600484fd5b5060ff8160081c166102c9565b630f147a5960e31b8352600483fd5b50346101fb5761033936611e6f565b61034161225b565b338352600d60205260ff6040842054166106d5576040516331a9108f60e11b8152600481018390527f00000000000000000000000000000000000000000000000000000000000000006001600160a01b031690602081602481855afa90811561063b5785916106b6575b50336001600160a01b03909116036106a75782845260066020526040842054151580610664575b61065557662386f26fc1000082106106465760405163020604bf60e21b815260048101849052602081602481855afa90811561063b57859161060c575b506001600160a01b03163014159081610595575b5061058657610433600254611ff4565b918260025560405161044481611f85565b838152602081018281526040820133815260608301858152608084019088825260a085019089825260c086019342855260e08701958b87528a8c52600460205260408c209751885551600188015560018060a01b03905116600287019060018060a01b03166bffffffffffffffffffffffff60a01b825416179055516003860155600485019151600381101561057257825491516001600160a81b031990921660ff9091161760089190911b610100600160a81b03161790556020968693604093919290916006915160058401555191015583815260068752205561052a600b54611ff4565b600b55604051918252827f3b3f75939c9bae45419ad484b8769a4ac0367e412f2a0ed3e07f5b8614cd1e86853394a460015f5160206122945f395f51905f5255604051908152f35b634e487b7160e01b8a52602160045260248afd5b631e05efc360e11b8352600483fd5b60405163e985e9c560e01b81523360048201523060248201529150602090829060449082905afa9081156106015784916105d2575b50155f610423565b6105f4915060203d6020116105fa575b6105ec8183611fbe565b8101906120a7565b5f6105ca565b503d6105e2565b6040513d86823e3d90fd5b61062e915060203d602011610634575b6106268183611fbe565b810190612216565b5f61040f565b503d61061c565b6040513d87823e3d90fd5b636dddf41160e11b8452600484fd5b6358d41f2760e01b8452600484fd5b50828452600660205260408420548452600460205260ff600460408620015416600381101561069357156103d2565b634e487b7160e01b85526021600452602485fd5b638f0f029b60e01b8452600484fd5b6106cf915060203d602011610634576106268183611fbe565b5f6103ab565b637d28af3f60e01b8352600483fd5b50346101fb5760603660031901126101fb5760043560243561070461225b565b338352600d60205260ff6040842054166106d557662386f26fc1000081106109e6576040516331a9108f60e11b8152600481018390526020816024817f00000000000000000000000000000000000000000000000000000000000000006001600160a01b03165afa9081156106015784916109c7575b506001600160a01b031633146109b857604051636eb1769f60e11b81523360048201523060248201526020816044816001600160a01b037f0000000000000000000000000000000000000000000000000000000000000000165afa8015610601578291859161097f575b5010610970576107f5600354611ff4565b9182600355610806604435426121c7565b60405161081281611f55565b8481526108ad600560208301928584526040810194338652606082018881526080830191825260a08301968b885260c08401968c88528b8d528560205260408d209451855551600185015560018060a01b03905116600284019060018060a01b03166bffffffffffffffffffffffff60a01b8254161790555160038301555160048201550192511515839060ff801983541691151516179055565b51815461ff00191690151560081b61ff00161790558084526007602052604084208054946801000000000000000086101561095c5750846108f5916001602097018155611e85565b81549060031b9085821b915f19901b1916179055610914600c54611ff4565b600c55604051918252827f3b2a24777f28e9c99a6c31e1939554147f5cac067f06527c26a7619c1c6df543853394a460015f5160206122945f395f51905f5255604051908152f35b634e487b7160e01b81526041600452602490fd5b63cd1c886760e01b8352600483fd5b9150506020813d6020116109b0575b8161099b60209383611fbe565b810103126109ac578190515f6107e4565b5f80fd5b3d915061098e565b631bd002bf60e01b8352600483fd5b6109e0915060203d602011610634576106268183611fbe565b5f61077a565b636dddf41160e11b8352600483fd5b50346101fb5760203660031901126101fb57604061010091600435815260046020522080549060018101549060018060a01b0360028201541660038201546004830154916006600585015494015494604051968752602087015260408601526060850152610a696080850160ff8316611eae565b60081c6001600160a01b031660a084015260c083015260e0820152f35b50346101fb5760203660031901126101fb5760209060ff906040906001600160a01b03610ab1611e59565b168152600d84522054166040519015158152f35b50346101fb57806003193601126101fb5760206040516103e88152f35b50346101fb5760203660031901126101fb57600435610aff61225b565b338252600d60205260ff604083205416610ead578082526005602052604082209060058201805460ff8116908115610e9f575b506102ff5760048301544211610e90576001830180546040516331a9108f60e11b815260048101919091527f00000000000000000000000000000000000000000000000000000000000000006001600160a01b03169290602081602481875afa908115610e85578791610e66575b50336001600160a01b0390911603610e575785600386015493612710610bc8600154876121e1565b0496610bd488876121d4565b60029190910180546040516323b872dd60e01b815291996001600160a01b037f000000000000000000000000000000000000000000000000000000000000000081169491939260209284928392610c329291339116600485016121f4565b038188875af1801561063b57610e3a575b5080610dc0575b505060018060a01b038754168454823b15610dbc57610c83928492836040518096819582946323b872dd60e01b845233600485016121f4565b03925af18015610db157610d98575b5050805460ff19166001179055805485526006602052604085205480151580610d61575b907f537afea1137614386dde2e3f3f603a09e8ba6fbcd0a9d59b286a6f7e5fc93848939291610d33575b50610ced826009546121c7565b600955610cfb600a54611ff4565b600a55549354604051918291610d1c91906001600160a01b031633846121f4565b0390a360015f5160206122945f395f51905f525580f35b8652600460205260046040872001600260ff198254161790558054865260066020528560408120555f610ce0565b50808652600460205260ff6004604088200154166003811015610d845715610cb6565b634e487b7160e01b87526021600452602487fd5b81610da291611fbe565b610dad57855f610c92565b8580fd5b6040513d84823e3d90fd5b8380fd5b88546040516323b872dd60e01b815292602091849190829088908290610df690889030906001600160a01b0316600485016121f4565b03925af191821561060157610e1392610e1d575b506008546121c7565b6008555f80610c4a565b610e359060203d6020116105fa576105ec8183611fbe565b610e0a565b610e529060203d6020116105fa576105ec8183611fbe565b610c43565b638f0f029b60e01b8652600486fd5b610e7f915060203d602011610634576106268183611fbe565b5f610ba0565b6040513d89823e3d90fd5b639cb1308760e01b8452600484fd5b60ff915060081c165f610b32565b637d28af3f60e01b8252600482fd5b50346109ac5760203660031901126109ac57600435610ed961225b565b335f52600d60205260ff60405f20541661123c57805f52600460205260405f2090600482019060ff825416600381101561122857611219576002830180546001600160a01b03169390929033851461120a576003810154604051636eb1769f60e11b815233600482015230602482015290956001600160a01b037f00000000000000000000000000000000000000000000000000000000000000001691602081604481865afa80156111555788915f916111d5575b50106111c657610fd16020612710610fa86001548b6121e1565b0492610fb4848b6121d4565b6040516323b872dd60e01b815293849283929033600485016121f4565b03815f875af18015611155576111a9575b5080611160575b505083546001820180549093916001600160a01b037f0000000000000000000000000000000000000000000000000000000000000000811692911690823b156109ac57611051925f92836040518096819582946323b872dd60e01b84523390600485016121f4565b03925af1801561115557611117575b5080546001600160a81b0319163360081b610100600160a81b03161760011790557f639442ad3505e09d30cab2587d0384479b9c2e4721f8eba02213fee84c9c6b9591611100916006429101558054875260066020528660408120556110c8866009546121c7565b6009556110d6600a54611ff4565b600a55549354604080516001600160a01b0390921682526020820196909652339590918291820190565b0390a460015f5160206122945f395f51905f525580f35b7f639442ad3505e09d30cab2587d0384479b9c2e4721f8eba02213fee84c9c6b95939197509161114a5f61110094611fbe565b5f9791935091611060565b6040513d5f823e3d90fd5b602060405180936323b872dd60e01b8252815f81611183873033600485016121f4565b03925af19182156111555761119f92610e1d57506008546121c7565b6008555f80610fe9565b6111c19060203d6020116105fa576105ec8183611fbe565b610fe2565b63cd1c886760e01b5f5260045ffd5b9150506020813d602011611202575b816111f160209383611fbe565b810103126109ac578790515f610f8e565b3d91506111e4565b631bd002bf60e01b5f5260045ffd5b6366cb03e960e01b5f5260045ffd5b634e487b7160e01b5f52602160045260245ffd5b637d28af3f60e01b5f5260045ffd5b346109ac5761125936611e6f565b5f82815260046020526040902060028101546001600160a01b031633036112e75760ff60048201541660038110156112285761121957662386f26fc1000082106112d8577f36cfe22dfcf2d3781d9de6b307d67a5431b45492dad5e70e53dd4af34c25b8499160036040920190808254925582519182526020820152a2005b636dddf41160e11b5f5260045ffd5b635ec8235160e01b5f5260045ffd5b346109ac5761130436611e6f565b5f916001600254905b8181111580611456575b1561136157805f52600460205260ff600460405f200154166003811015611228571561134c575b61134790611ff4565b61130d565b9361135961134791611ff4565b94905061133e565b508284838082111561144d57611376916121d4565b905b808211611445575b5061138a816120cb565b5f905f9260015b858111158061143c575b1561142a57805f52600460205260ff600460405f20015416600381101561122857156113d0575b6113cb90611ff4565b611391565b86851061141757806113cb915f52600460205261140e60405f20956113fd6113f782611ff4565b9761214a565b6114078288611fe0565b5285611fe0565b505b90506113c2565b936114246113cb91611ff4565b94611410565b604051806114388582611ebb565b0390f35b5081841061139b565b905083611380565b50505f90611378565b5061146184846121c7565b8510611317565b346109ac575f3660031901126109ac576020604051662386f26fc100008152f35b346109ac575f3660031901126109ac576020600254604051908152f35b346109ac575f3660031901126109ac576040517f00000000000000000000000000000000000000000000000000000000000000006001600160a01b03168152602090f35b346109ac575f3660031901126109ac575f546040516001600160a01b039091168152602090f35b346109ac5760203660031901126109ac576004355f52600560205260e060405f2060ff81549160018101549060018060a01b0360028201541660038201549060056004840154930154936040519687526020870152604086015260608501526080840152818116151560a084015260081c16151560c0820152f35b346109ac5760203660031901126109ac576004355f52600760205260405f20604051808260208294549384815201905f5260205f20925f5b81811061168c5750506115d992500382611fbe565b6115e3815161202e565b905f5b815181101561167e57806115fc60019284611fe0565b515f52600560205260405f2060ff60056040519261161984611f55565b80548452858101546020850152858060a01b03600282015416604085015260038101546060850152600481015460808501520154818116151560a084015260081c16151560c082015261166c8286611fe0565b526116778185611fe0565b50016115e6565b604051806114388582611dd5565b84548352600194850194869450602090930192016115c4565b346109ac575f3660031901126109ac576080600954600a54600b54600c5491604051938452602084015260408301526060820152f35b346109ac575f3660031901126109ac576040517f00000000000000000000000000000000000000000000000000000000000000006001600160a01b03168152602090f35b346109ac5760203660031901126109ac576004355f90600254805b600181101580611855575b1561184d57805f52600460205260ff600460405f2001541660038110156112285760011461183d575b80156117825761177d906120bf565b61173a565b5090505b61178f826120cb565b905f905b600181101580611834575b1561182857805f52600460205260ff600460405f200154166003811015611228576001146117ef575b80156117db576117d6906120bf565b611793565b505061143891505b60405191829182611ebb565b805f52600460205261182260405f209261181161180b82611ff4565b9461214a565b61181b8287611fe0565b5284611fe0565b506117c7565b505061143891506117e3565b5083821061179e565b9261184790611ff4565b9261176e565b509050611786565b50828410611745565b346109ac575f3660031901126109ac57611876612235565b5f80546001600160a01b0319811682556001600160a01b03167f8be0079c531659141344cd1fd0a4f28419497f9722a3daafe3b4186f6b6457e08280a3005b346109ac575f3660031901126109ac576020600354604051908152f35b346109ac575f3660031901126109ac576020600854604051908152f35b346109ac576118fd36611e6f565b905f52600760205260405f2080548210156109ac5760209161191e91611e85565b90549060031b1c604051908152f35b346109ac5760203660031901126109ac57600435805f52600460205260405f2060018060a01b0360028201541633036112e757600481019060ff82541660038110156112285761121957600191600260ff198254161790550180545f5260066020525f604081205554907fafd0a85a3f09cebbc7d9fcde08e8a7d0ebb0aa7d768a030915c3816a053d3c7a5f80a3005b346109ac5760203660031901126109ac576004355f526006602052602060405f2054604051908152f35b346109ac575f3660031901126109ac576020600154604051908152f35b346109ac5760203660031901126109ac57611a1d611e59565b611a25612235565b600854908115611aee575f60085560405163a9059cbb60e01b81526001600160a01b03821660048201526024810183905290602082806044810103815f7f00000000000000000000000000000000000000000000000000000000000000006001600160a01b03165af1908115611155577fc0819c13be868895eb93e40eaceb96de976442fa1d404e5c55f14bb65a8c489a92602092611ad3575b506040519384526001600160a01b031692a2005b611ae990833d85116105fa576105ec8183611fbe565b611abf565b630d00db4d60e31b5f5260045ffd5b346109ac5760403660031901126109ac57611b16611e59565b60243590811515908183036109ac577fcf3473b85df1594d47b6958f29a32bea0abff9dd68296f7bf33443646793cfd891611b7a602092611b55612235565b60018060a01b031694855f52600d845260405f209060ff801983541691151516179055565b604051908152a2005b346109ac5760203660031901126109ac57600435611b9f612235565b6103e88111611bad57600155005b6358d620b360e01b5f5260045ffd5b346109ac5760203660031901126109ac576004355f52600760205260405f208181549182825260208201905f5260205f20925f5b818110611dbc575050611c0592500382611fbe565b5f5f5b8251811015611ccc57611c1b8184611fe0565b515f52600560205260405f2060405190611c3482611f55565b805482526001810154602083015260018060a01b03600282015416604083015260038101546060830152600560048201549182608085015201549160ff8084161593841560a084015260081c16159060c0821591015282611cc4575b5081611cb9575b50611ca5575b600101611c08565b90611cb1600191611ff4565b919050611c9d565b905042111584611c97565b915085611c90565b50611cd69061202e565b5f905f5b8351811015611dae57611ced8185611fe0565b515f52600560205260405f2060405190611d0682611f55565b805482526001810154602083015260018060a01b03600282015416604083015260038101546060830152600560048201549182608085015201549060ff8083161592831560a086015260081c1615801560c085015282611da6575b5081611d9b575b50611d77575b50600101611cda565b9290611d9482611d8960019491611ff4565b9561181b8287611fe0565b5090611d6e565b905042111586611d68565b915087611d61565b604051806114388482611dd5565b8454835260019485019486945060209093019201611bf0565b60206040818301928281528451809452019201905f5b818110611df85750505090565b909192602060e060019260c08751805183528481015185840152858060a01b036040820151166040840152606081015160608401526080810151608084015260a0810151151560a08401520151151560c08201520194019101919091611deb565b600435906001600160a01b03821682036109ac57565b60409060031901126109ac576004359060243590565b8054821015611e9a575f5260205f2001905f90565b634e487b7160e01b5f52603260045260245ffd5b9060038210156112285752565b60206040818301928281528451809452019201905f5b818110611ede5750505090565b909192602061010060019260e08751805183528481015185840152858060a01b03604082015116604084015260608101516060840152611f2660808201516080850190611eae565b858060a01b0360a08201511660a084015260c081015160c0840152015160e08201520194019101919091611ed1565b60e0810190811067ffffffffffffffff821117611f7157604052565b634e487b7160e01b5f52604160045260245ffd5b610100810190811067ffffffffffffffff821117611f7157604052565b6080810190811067ffffffffffffffff821117611f7157604052565b90601f8019910116810190811067ffffffffffffffff821117611f7157604052565b8051821015611e9a5760209160051b010190565b5f1981146120025760010190565b634e487b7160e01b5f52601160045260245ffd5b67ffffffffffffffff8111611f715760051b60200190565b9061203882612016565b6120456040519182611fbe565b8281528092612056601f1991612016565b01905f5b82811061206657505050565b60209060405161207581611f55565b5f81525f838201525f60408201525f60608201525f60808201525f60a08201525f60c08201528282850101520161205a565b908160209103126109ac575180151581036109ac5790565b8015612002575f190190565b906120d582612016565b6120e26040519182611fbe565b82815280926120f3601f1991612016565b01905f5b82811061210357505050565b60209060405161211281611f85565b5f81525f838201525f60408201525f60608201525f60808201525f60a08201525f60c08201525f60e0820152828285010152016120f7565b9060405161215781611f85565b825481526001830154602082015260028301546001600160a01b0316604082015260038084015460608301526004840154919384929160ff831691908210156112285760e092600692608086015260018060a01b039060081c1660a0850152600581015460c08501520154910152565b9190820180921161200257565b9190820391821161200257565b8181029291811591840414171561200257565b6001600160a01b03918216815291166020820152604081019190915260600190565b908160209103126109ac57516001600160a01b03811681036109ac5790565b5f546001600160a01b0316330361224857565b63118cdaa760e01b5f523360045260245ffd5b60025f5160206122945f395f51905f5254146122845760025f5160206122945f395f51905f5255565b633ee5aeb560e01b5f5260045ffdfe9b779b17422d0df92223018b32b4d1fa46e071723d6817e2486d003becc55f00a2646970667358221220030b74e245db162e22af7819db518eb06b5f0166993722b3a502542e2a1e94e864736f6c634300081c0033",
  "linkReferences": {},
  "deployedLinkReferences": {},
  "immutableReferences": {
    "12758": [
      {
        "length": 32,
        "start": 875
      },
      {
        "length": 32,
        "start": 1858
      },
      {
        "length": 32,
        "start": 2911
      },
      {
        "length": 32,
        "start": 4096
      },
      {
        "length": 32,
        "start": 5307
      }
    ],
    "12761": [
      {
        "length": 32,
        "start": 1971
      },
      {
        "length": 32,
        "start": 3061
      },
      {
        "length": 32,
        "start": 3925
      },
      {
        "length": 32,
        "start": 5872
      },
      {
        "length": 32,
        "start": 6756
      }
    ]
  },
  "inputSourceName": "project/contracts/Marketplace.sol",
  "buildInfoId": "solc-0_8_28-8a1c447ce454d3666ba598e6bfb373ac3c8b5c01"
}